S00B0000496F542E737265630D
S113000067C1000086C1000084C1000082C10000F5
S113001080C100007EC100007CC100007AC10000E4
S113002078C1000076C1000074C1000072C10000F4
S11300300C94C40B6EC100006CC100006AC10000C6
S113004068C1000066C1000064C1000062C1000014
S113005060C100005EC100005CC100005AC1000024
S113006058C100000C94902B0C94E22B52C1000058
S113007050C100004EC100004CC100004AC1000044
S113008048C1000046C1000044C1000042C1000054
S11300900C94262C0C94782C3CC100000C949030C9
S11300A038C1000036C1000034C1000032C1000074
S11300B030C100002EC100002CC100002AC1000084
S11300C028C1000026C1000024C100000C94BC2CEF
S11300D00C940E2D1EC100000C94522D0C94A42DD2
S11300E018C100009E219E219E21D521DD21F221EF
S11300F09E219E21D521DD21B230223122312231AF
S11301002231223122312231B230223122312231C4
S11301102231223122312231B430223122312231B2
S11301202231223122312231223122312231223133
S11301302231223122312231B43022312231223192
S11301402231223122312231223122312231223113
S113015022312231223122311E3122312231223107
S11301602231223122312231E9302231223122312D
S113017022312231223122312231223122312231E3
S11301802231223122312231DD3022312231223119
S1130190223122312231223101316E616E00696EC9
S11301A0660000407A10F35A00A0724E180900103D
S11301B0A5D4E80000E87648170000E40B540200D8
S11301C000CA9A3B000000E1F50500008096980003
S11301D0000040420F000000A0860100000010272C
S11301E000000000E80300000000640000000000BC
S11301F00A00000000000100000000002C76D888EE
S1130200DC674F0823DFC1DFAE59E1B1B796E5E300
S1130210E453C63AE651997696E8E6C28426EB8919
S11302208C9B62ED407C6FFCEFBC9C9F40F2BAA5B6
S11302306FA5F490055A2AF75C936B6CF9676DC14E
S11302401BFCE0E40D47FEF520E6B500D0ED902E52
S11302500300943577050080841E080000204E0AB0
S1130260000000C80C333333330F986E12831141EE
S1130270EF8D2114893BE65516CFFEE6DB18D184B9
S11302804B381BF77C1D901DA4BBE42420328472E0
S11302905E228100C9F124ECA1E53D270E94DF1311
S11302A08091F713823010F00E94FE0A0E941B22F4
S11302B0F5CFCF93DF931F92CDB7DEB7CE01019672
S11302C00E941B1F49810E9410210E946721F6CFC2
S11302D011241FBECFEFD1E2DEBFCDBF00E00CBFC3
S11302E017E0A0E0B2E0E0E8F2E700E00BBF02C0F4
S11302F007900D92A03BB107D9F725E1A0EBB7E039
S113030001C01D92A33DB207E1F70E94AF220C94F5
S11303103E3976CE9093B2158093B1150895CF935C
S1130320DF9300D01F92CDB7DEB70E9430156983EA
S11303307A838B839C8340EE53E060E070E0CE01CF
S113034001960E9446174091B3155091B4156091DF
S1130350B5157091B615CC24CA94DC2C760101E055
S113036020E08091B7159091B815F3D50091B3159D
S11303701091B4152091B5153091B615DC01CB015F
S113038080239123A223B323081719072A073B07C5
S113039091F60E94E9298093B0158111CCCFC3D284
S11303A0CACFEF92FF920F93CF93DF93082FEB0105
S11303B04091B3155091B4156091B5157091B6156F
S11303C08091B7159091B81564D6E12CF12C9E015B
S11303D044E251E06FE672E08FE891E00E94A614D7
S11303E0DF91CF910F91FF90EF900895AF92BF925C
S11303F0CF92DF92EF92FF920F931F93CF93DF93ED
S11304008C015B0169017A0182E090E00E94F83579
S1130410EC01892B11F119821882B092B815A092BF
S1130420B715C092B315D092B415E092B515F092F9
S1130430B61583E00E94BF2987E792E09F938F93CC
S113044083D18AE891E00E94E429BE01C801A9DFB2
S11304500F900F908C2F9D2F02C080E090E0DF91D1
S1130460CF911F910F91FF90EF90DF90CF90BF90AD
S1130470AF900895FC018081918108952091B11578
S11304803091B215FC01318320830895EF92FF92DD
S11304900F939B01E12CF12C082F48E851E06EE802
S11304A072E08BE992E00E94A6140F91FF90EF9006
S11304B008950F931F93CF93DF930FEF1FEF9801CE
S11304C046E150E060EB77E00E940B12C0EBD7E00E
S11304D0998188811F929F931F928F9388EA92E05B
S11304E09F938F9331D189810F900F900F900F902C
S11304F00F900F908130D1F48091B207813059F47C
S11305006CE90E94182A89ED92E09F938F931CD185
S11305100F900F900BC064E681E00E94182A87EECA
S113052092E09F938F9310D10F900F90DF91CF9112
S11305301F910F910895EC01CE01BBDFFDCFCF9346
S1130540DF9300D01F92CDB7DEB78130D9F4CE014E
S113055001960E94D02E81110CC069817A818B8111
S11305609C810E94BC227093C7076093C60735D252
S113057009C0833039F485EF92E09F938F93E4D0E0
S11305800F900F900F900F900F900F90DF91CF91DD
S11305900895EF92FF920F93CF93DF93082FEB010F
S11305A04091B3155091B4156091B5157091B6157D
S11305B08091B7159091B8156CD5E12CF12C9E0162
S11305C048E851E066E273E082E793E00E94A614F3
S11305D0DF91CF910F91FF90EF9008958F929F92AA
S11305E0AF92BF92EF92FF921F93CF93DF93182F96
S11305F07B0149015A0162E070E081E090E00E94D1
S1130600DE35EC01892B19F1198218828092B31519
S11306109092B415A092B515B092B615F092B81593
S1130620E092B7158FE992E00E948E2E811107C0E7
S113063081E393E09F938F9387D00F900F900E9454
S1130640A92EBE01812FA5DF8C2F9D2F02C080E033
S113065090E0DF91CF911F91FF90EF90BF90AF900A
S11306609F908F900895CF92DF92EF92FF920F9315
S11306701F93CF93DF93EC014091B3155091B415C0
S11306806091B5157091B615CC24CA94DC2C760112
S113069001E020E08091B7159091B8155AD40091EB
S11306A0B3151091B4152091B5153091B615DC0130
S11306B0CB0180239123A223B323081719072A0708
S11306C03B0739F40E94BE2E811103C0BE0181E0B4
S11306D036DFDF91CF911F910F91FF90EF90DF9064
S11306E0CF900895CF93DF9300D01F92CDB7DEB79C
S11306F08C010E94301569837A838B839C8342EA40
S113070053E060E070E0CE0101960E944617C801F4
S1130710AADFF5CFFC018081918108952091C6075D
S11307203091C707FC013183208308958091B91566
S11307309091BA15892B39F481E00E94BA0D9093F7
S1130740BA158093B91508950F93CF93DF93CDB75E
S1130750DEB74CE251E060E070E08091B915909111
S1130760BA150E94900E8130B9F4BE01675F7F4FC5
S11307708F8198850E94D9388AE090E00E94A6383B
S113078000E020E030E0A90160E070E08091B9155C
S11307909091BA150E94160DDF91CF910F91089593
S11307A0EF92FF920F931F93CF93DF937C018B0102
S11307B0EA018091C1159091C215892B39F481E029
S11307C00E94BA0D9093C2158093C115F092BC1586
S11307D0E092BB151093BE150093BD15D093C015C0
S11307E0C093BF15DF91CF911F910F91FF90EF90B0
S11307F008950F934CE251E060E070E08091C115E0
S11308009091C2150E94900E813091F48091BB1595
S11308109091BC1508D200E020E030E0A90160E02E
S113082070E08091C1159091C2150E94160D07C009
S11308308AE493E09F938F9387DF0F900F900F913B
S113084008950F93CF93DF934CE251E060E070E0A2
S11308508091C1159091C2150E94900E8130B1F41F
S11308608091BB159091BC15DAD1D82FC92F00E027
S113087020E030E0A90160E070E08091C115909122
S1130880C2150E94160D8D2F9C2F09C08AE493E097
S11308909F938F9359DF0F900F9080E090E0DF914A
S11308A0CF910F910895FF920F931F93CF93DF93EE
S11308B04CE251E060E070E08091C1159091C21566
S11308C00E94900E8130D1F48091BB159091BC159B
S11308D0A0D1F62E172FD82FC92F00E020E030E04A
S11308E0A90160E070E08091C1159091C2150E9449
S11308F0160D5F2D412F3D2F2C2F0BC08AE493E062
S11309009F938F9321DF0F900F9050E040E030E0F1
S113091020E0652F742F832F922FDF91CF911F91A9
S11309200F91FF9008950F934CE251E060E070E066
S11309308091C1159091C2150E94900E813091F45E
S11309408091BD159091BE1599DD00E020E030E066
S1130950A90160E070E08091C1159091C2150E94D8
S1130960160D07C08AE493E09F938F93EDDE0F90FA
S11309700F900F9108950F93CF93DF934CE251E0C2
S113098060E070E08091C1159091C2150E94900EB4
S11309908130B1F48091BD159091BE156BDDD82FD7
S11309A0C92F00E020E030E0A90160E070E0809110
S11309B0C1159091C2150E94160D8D2F9C2F09C050
S11309C08AE493E09F938F93BFDE0F900F9080E0B3
S11309D090E0DF91CF910F9108950F934CE251E095
S11309E060E070E08091C1159091C2150E94900E54
S11309F0813091F48091BF159091C0158FDE00E095
S1130A0020E030E0A90160E070E08091C115909190
S1130A10C2150E94160D07C08AE493E09F938F933A
S1130A2093DE0F900F900F9108950F93CF93DF9360
S1130A304CE251E060E070E08091C1159091C215E4
S1130A400E94900E8130A9F48091BF159091C01539
S1130A5061DED82FC92F00E020E030E0A90160E07A
S1130A6070E08091C1159091C215E0D78D2F9C2F15
S1130A7009C08AE493E09F938F9366DE0F900F90F2
S1130A8080E090E0DF91CF910F910895EF92FF9273
S1130A900F93CF93DF93EC01062F4091B315509140
S1130AA0B4156091B5157091B6158091B7159091F4
S1130AB0B815EFD2E12CF12C9E0140EC50E06BE62E
S1130AC073E082EB95E00E94A614DF91CF910F9121
S1130AD0FF90EF900895AF92BF92CF92DF92EF9282
S1130AE0FF920F931F93CF93DF938C015B016901F6
S1130AF07A0186E090E00E94F835EC01892B19F127
S1130B00188219821A821B821D821C82B092B81527
S1130B10A092B715C092B315D092B415E092B51552
S1130B20F092B6150E948524811107C08CE793E0EA
S1130B309F938F9309DE0F900F90B801CE01A6DF2B
S1130B408C2F9D2F02C080E090E0DF91CF911F9108
S1130B500F91FF90EF90DF90CF90BF90AF900895EA
S1130B6048CE0895CF93DF9300D01F92CDB7DEB760
S1130B705C010E94301569837A838B839C8342EAEB
S1130B8053E060E070E0CE0101960E9446170E9497
S1130B909D24882339F089EA93E09F938F93D4DDD1
S1130BA00F900F904091B3155091B4156091B51505
S1130BB07091B615CC24CA94DC2C760101E020E0B7
S1130BC08091B7159091B815C4D16B017C0164E094
S1130BD070E080E090E00E94AB178091B315909193
S1130BE0B415A091B515B091B615C822D922EA2240
S1130BF0FB228C159D05AE05BF0509F0C0CF0E94F0
S1130C00B22460E070E0CB010E94AB17C501A8DFFD
S1130C10B6CFFC0160817181828193810895FC01CA
S1130C20848195810895CF93DF93EC010E94E024A1
S1130C3020E030E0A9010E94B322882331F00E9411
S1130C40E024688379838A839B830E94D724892B39
S1130C5079F00E94D7249C01ADECBCEC0E94CF3506
S1130C609695879596958795969587959D838C837C
S1130C70DF91CF9108950F931F93CF93DF93CDB757
S1130C80DEB764970FB6F894DEBF0FBECDBF0E94E7
S1130C9066260E94E427CE0101960E947826CE01A2
S1130CA001960E949426AE014F5F5F4F63EC73E0A0
S1130CB084EE93E00E94C2280E94C72681E00E942D
S1130CC0C12784EF91E00E94CC271AE080E00E94C3
S1130CD0CD26082F0E94E3289F938F931F921F9382
S1130CE085EF93E09F938F932FDD0F900F900F90DC
S1130CF00F900F900F90083041F066E371E080E0B0
S1130D0090E00E94AB17115009F7083041F485E1D7
S1130D1094E09F938F9318DD0F900F9002C06ED4D0
S1130D20FECF64960FB6F894DEBF0FBECDBFDF9141
S1130D30CF911F910F910895CF93DF93CDB7DEB775
S1130D4028970FB6F894DEBF0FBECDBF81E00E9496
S1130D50582662E070E080E090E00E94AB1780E0EB
S1130D600E94582666E970E080E090E00E94AB178C
S1130D700E94112680DF0E94301569837A838B8359
S1130D809C8344E457E060E070E0CE0101960E9449
S1130D904617E8ECF7E087E0818381E0808383DD18
S1130DA0D62EC72EB82EA92E4CDD8C01E4DD7C0195
S1130DB03CDE882E992E20E030E0A9016D2D7C2D9B
S1130DC08B2D9A2D0E94B322882331F00115110531
S1130DD019F0E114F10499F4FF92EF921F930F9329
S1130DE0AF92BF92CF92DF9284E494E09F938F936B
S1130DF0ABDC0FB6F894DEBF0FBECDBFC2CF1D82F1
S1130E001E821F821886AE014B5F5F4F6D2D7C2DB5
S1130E108B2D9A2D0E94352320E030E048EC52E4DB
S1130E200E9468232B013C01AF92BF92CF92DF92C4
S1130E3081E794E09F938F9387DC6D817E818F811E
S1130E4098850E94B7220F2EF8ECCF2EF7E0DF2E04
S1130E50F02DF6016283C301B2010E94B722F601AC
S1130E6063831F930F9381E894E09F938F936CDCCB
S1130E70F6010483FF92EF928EE894E09F938F93A0
S1130E8063DCF601F582E6829F928F9286E994E014
S1130E909F938F9359DCF60197828086B60180E098
S1130EA00E94F6260E94E3289F938F9387EA94E09A
S1130EB09F938F9349DC0FB6F894DEBF0FBECDBF6E
S1130EC060CFEF92FF920F93E12CF12C082F20E0DA
S1130ED030E048E851E06BEB74E08CE996E00E9466
S1130EE0A6140F91FF90EF9008950F9301110CC079
S1130EF0DC01CB0182239323A423B523892B8A2BE2
S1130F008B2B79F480E010C0DC01CB018223932386
S1130F10A423B523281739074A075B0721F080E08B
S1130F2003C081E001C081E00F910895CF93DF9366
S1130F308FE090E0AFD1EC01009739F0FC01119201
S1130F40119211921192CF018BD2CE01DF91CF91E8
S1130F5008952F923F924F925F926F927F928F9259
S1130F609F92AF92BF92CF92DF92EF92FF920F9334
S1130F701F93CF93DF93EC014A015B01622E702E25
S1130F800E942A15288039804A805B80A50194013B
S1130F90C201B101AADF8823A1F0662089F1D5013D
S1130FA0C40180959095A095B09582219321A421A8
S1130FB0B52188839983AA83BB83C12CD12C760164
S1130FC022C0C114D104E104F104E9F0611004C0A9
S1130FD040E050E0BA0104C040E050E060E071E05D
S1130FE071107460482959296A297B29970186015F
S1130FF0CE0104960E944218212C312C210103C0F9
S1131000C12CD12C76010E946A16CD28CE28CF2877
S113101059F1811101C0F2D20E94041C6B017C01C0
S113102091FD1FC00FB6F8940F92C880D980EA8052
S1131030FB80072DA5019401C701B60156DF882363
S113104071F0662061F080949094A094B0948C2008
S11310509D20AE20BF2088829982AA82BB820F90F5
S11310600FBE160127015524C201B101DF91CF91B2
S11310701F910F91FF90EF90DF90CF90BF90AF90B2
S11310809F908F907F906F905F904F903F902F90A4
S113109008954F925F926F927F92AF92BF92CF92D8
S11310A0DF92EF92FF920F931F93CF93DF93EC01A4
S11310B06A017B018C01095F1F4F0E942A15EB8591
S11310C0FC8588819981AA81BB81C82AD92AEA2A08
S11310D0FB2AC882D982EA82FB82C12CD12C7601F8
S11310E03DC0A480B58080819181A281B381AC018F
S11310F0BD017727B2FD0EC0488059806A807B808D
S1131100442255226622772245284628472889F416
S113111020E012C0488059806A807B804422552296
S113112066227722441555056605770521F020E0EF
S113113003C021E001C021E0222371F0B0FF04C00C
S1131140C42AD52AE62AF72A488159816A817B81F3
S11311507260CF010E947D19EA2DFB2DE017F10783
S113116009F0BFCFC094D094E094F0948881998121
S1131170AA81BB81C822D922EA22FB22C882D98251
S1131180EA82FB820E946A16688179818A819B8146
S1131190DF91CF911F910F91FF90EF90DF90CF904F
S11311A0BF90AF907F906F905F904F900895EAEE5C
S11311B0F7E0AEEEB7E0B183A08313821282E2EAD5
S11311C0F3E1F093E907E093E807138212821182B6
S11311D0108284EB9BE013969C938E931297ED936D
S11311E0FC939093E5078093E4079093E70780933B
S11311F0E60780E090E89093DF078093DE07089588
S1131200CF93DF93EC01AAEEB7E001C0DF01ED91CB
S1131210FC911197EC17FD07C8F312968D919C91E0
S113122013979D01280F391FC217D30749F42A8148
S11312303B81820F931F13969C938E931297ED011B
S11312408A819B819E01280F391FE217F307C1F49D
S11312502091E8073091E907E217F30771F0228142
S11312603381820F931F9B838A83ED91FC911197A5
S1131270808191819983888305C03983288302C042
S1131280F983E883CA17DB0711F0CD93DC93DF9170
S1131290CF910895EF92FF920F931F93CF93DF9313
S11312A08C010E942A158091E8079091E907892B07
S11312B009F47DDF8091DE079091DF07802391237D
S11312C0892B09F076C00115110549F0C80104966F
S11312D00817190718F000E010E001C08C0101158F
S11312E0110509F469C08091E6079091E70780171A
S11312F0910708F464C0C091EA07D091EB07EAEEC5
S1131300F7E002C0FE01EC018A819B8180179107FE
S113131020F4888199810097A9F78091E80790913A
S1131320E907C817D90709F44DC0E080F18084E0CB
S1131330E80EF11C88819981918380832A813B8105
S1131340201B310B2930310548F0CE01800F911F4D
S1131350FC01338322831B830A8352DF2A813B816E
S11313608091E6079091E707821B930B9093E70720
S11313708093E6074091E4075091E50784179507A9
S113138020F49093E5078093E4078091DE07909121
S1131390DF07282B392B3B832A83198218828091FB
S11313A0E2079091E30701969093E3078093E207A5
S11313B00BC0E12CF12C08C0E12CF12C05C0E12C70
S11313C0F12C02C0E12CF12C0E946A16E114F10404
S11313D011F40E942722C701DF91CF911F910F9131
S11313E0FF90EF9008950F931F93CF93DF9300978F
S11313F091F1EC0124974A815B812091DE073091C1
S1131400DF07BA0162237323672B29F1688179818D
S1131410672B09F520953095242335233B832A83B4
S11314200E942A158A819B812091E6073091E70763
S1131430820F931F9093E7078093E607CE01E0DEC7
S11314408091E0079091E10701969093E1078093E2
S1131450E0070E946A16DF91CF911F910F910895C2
S1131460FC010396928381834FEF5FEFBA014383BC
S113147054836583768390878783928781871082DC
S11314800895FC011386128608950F931F93CF933A
S1131490DF93EB01088119812A813B810F3F4FEFD4
S11314A014072407340721F4FC01A185B28511C077
S11314B0DC01139601C0DF011496ED91FC911597A0
S11314C0408151816281738104171507260737070C
S11314D090F71496ED91FC911597FD83EC83D783D7
S11314E0C683BF83AE831596DC93CE9314979B87F4
S11314F08A87FC0120812F5F2083DF91CF911F9188
S11315000F910895CF93DF93FC01A285B385C48125
S1131510D581868197819F838E83C681D78184817B
S113152095819D838C8311968D919C911297E817D8
S1131530F90731F48681978112969C938E931197C3
S1131540138612868C9181508C938C91DF91CF916C
S11315500895A89590EC88E10FB6F894A895809327
S113156060000FBE909360000895FC016083319782
S113157070833197108231971082319720E820834D
S11315803197108231971082319710827797408378
S11315903197508386970895DCDFA0916514B0914C
S11315A06614CD91CDBFDD91DEBFFF91EF91DF9148
S11315B0CF91BF91AF919F918F917F916F915F91E7
S11315C04F913F912F911F910F91FF90EF90DF90DA
S11315D0CF90BF90AF909F908F907F906F905F90CF
S11315E04F903F902F901F900F900CBE0F900BBE0A
S11315F00F900FBE0F90089581E008950F920FB6DB
S1131600F8940F920BB60F920CB60F921F921124FE
S11316102F923F924F925F926F927F928F929F92FE
S1131620AF92BF92CF92DF92EF92FF920F931F93EC
S11316302F933F934F935F936F937F938F939F93D6
S1131640AF93BF93CF93DF93EF93FF93A091651470
S1131650B09166140DB60D920EB60D920E94C61787
S1131660A0916514B0916614CD91CDBFDD91DEBF1C
S1131670FF91EF91DF91CF91BF91AF919F918F91A6
S11316807F916F915F914F913F912F911F910F9196
S1131690FF90EF90DF90CF90BF90AF909F908F908E
S11316A07F906F905F904F903F902F901F900F907E
S11316B00CBE0F900BBE0F900FBE0F9008950F92AB
S11316C00FB6F8940F920BB60F920CB60F921F92AE
S11316D011242F923F924F925F926F927F928F923A
S11316E09F92AF92BF92CF92DF92EF92FF920F93AD
S11316F01F932F933F934F935F936F937F938F9396
S11317009F93AF93BF93CF93DF93EF93FF93A091F6
S11317106514B09166140DB60D920EB60D9213BEFB
S11317200E943E1581110E94C617A0916514B091C4
S11317306614CD91CDBFDD91DEBFFF91EF91DF91B6
S1131740CF91BF91AF919F918F917F916F915F9155
S11317504F913F912F911F910F91FF90EF90DF9048
S1131760CF90BF90AF909F908F907F906F905F903D
S11317704F903F902F901F900F900CBE0F900BBE78
S11317800F900FBE0F9008959ADF1895DC015396C1
S11317902C915397222341F05A96ED91FC915B973B
S11317A090818AE0891B089580E008950FB6F8942B
S11317B00F92FC01868D811102C081E001C080E09E
S11317C00F900FBE08950FB6F8940F92FC01268D6A
S11317D0878D281302C081E001C080E00F900FBE06
S11317E008950F931F93CF93DF93EC01042F1E8D65
S11317F048A141110CC088819981892B09F042C00C
S11318008C819D810E94421B1D821C8242C0011159
S113181017C050E08A819B810E94003828A18A81E8
S11318209B81820F911D9B838A832C813D8182172A
S1131830930750F1888199819B838A8380E029C032
S113184050E08E819F810E94003888A190E091959C
S1131850819591092E813F81280F391F3F832E8363
S1131860488159812417350730F42C813D81820F3A
S1131870931F9F838E83023049F4112349F0115042
S113188080E007C080E005C080E003C080E001C0C4
S113189080E01F5F1E8FDF91CF911F910F910895FC
S11318A0FC0140A14423A9F050E026813781240F94
S11318B0351F37832683848195812817390720F0C3
S11318C08081918197838683CB01668177810C9493
S11318D0003808951F93CF93DF93EC010FB6F8946B
S11318E00F921AA10BC08B89882351F0CE01439625
S11318F00E94CE1881110E94A41A115011169CF353
S11319008FEF8AA30F900FBE0FB6F8940F9219A110
S11319100BC08885882351F0CE0108960E94CE180A
S113192081110E94A41A115011169CF38FEF89A300
S11319300F900FBEDF91CF911F910895CF93DF9346
S1131940EC010FB6F8940F92E881F9818F8D28A1EC
S113195090E030E0829FA001839F500D929F500D34
S113196011244E0F5F1F5D834C831E8EFB83EA831D
S11319700197289FA001299F500D389F500D1124D5
S1131980CF01840F951F9F838E838FEF89A38AA332
S113199061110BC08885882371F0CE0108960E94DE
S11319A0CE18882341F02ADE06C0CE01089658DD01
S11319B0CE01439655DD0F900FBE81E0DF91CF91AC
S11319C008950F931F93F801611103C011830083DD
S11319D002C051834083878F60A361E0CF01AEDFF3
S11319E01F910F910895DF92EF92FF920F931F932F
S11319F0CF93DF93F82EE62ED42E869FC0011124B8
S1131A00839648DCEC01009741F08C012D2DAC014C
S1131A104D5D5F4F6E2D8F2DD4DFCE01DF91CF91C1
S1131A201F910F91FF90EF90DF900895CF92DF9276
S1131A30EF92FF920F931F93CF93DF93CDB7DEB74F
S1131A4029970FB6F894DEBF0FBECDBF7C016B01A2
S1131A502E833F834887598710E00FB6F8940F927E
S1131A60F701968D878D981710F00230B1F4402F4E
S1131A70B601C701B6DEF7019389992341F0C70186
S1131A8043960E94CE18882321F0B8DD02C081114C
S1131A90B5DD0F900FBE81E04CC08E819F81A8857B
S1131AA0B985892B8A2B8B2B21F40F900FBE80E0F4
S1131AB040C0111105C0CE0101960E942D1A11E0FB
S1131AC00F900FBEC7D70FB6F8940F92F70181A1FC
S1131AD08F3F09F411A2F70182A18F3F09F412A2EA
S1131AE00F900FBEBE016A5F7F4FCE0101960E9428
S1131AF03E1A811119C0C70166DE882381F04E8128
S1131B005F8168857985C70108960E942B18C701F3
S1131B10E1DE0E946A168111A0CF70DD9ECFC7015D
S1131B20D9DE0E946A1699CFC701D4DE0E946A16D4
S1131B3080E029960FB6F894DEBF0FBECDBFDF91CB
S1131B40CF911F910F91FF90EF90DF90CF90089568
S1131B500F93009769F0FC011582148211821082A0
S1131B60168200E020E030E0A90160E070E05EDF72
S1131B700F910895CF93DF93482F60E081E033DF26
S1131B80EC01E6DFCE01DF91CF910895EF92FF9251
S1131B900F931F93CF93DF938A01FC01568D378DEA
S1131BA0531710F02230F9F4422F7801EC011AA1F6
S1131BB08E8DCE0116DE1F3F81F48B898823A9F018
S1131BC0CE0143960E94CE18882389F0E114F104D3
S1131BD081F081E0F70180830DC0FF24F394F10EBE
S1131BE0FAA281E007C080E005C081E003C081E083
S1131BF001C081E0DF91CF911F910F91FF90EF9091
S1131C000895CF92DF92EF92FF920F931F93CF9399
S1131C10DF93CDB7DEB729970FB6F894DEBF0FBEBA
S1131C20CDBF8C016B012E833F8348875987E12CFC
S1131C300FB6F8940F92F801F68CFF2099F0B601D4
S1131C40C8012EDEFA94F801F68E8085882331F0DF
S1131C50C80108960E94CE188111D0DC0F900FBEE7
S1131C6081E04FC08E819F81A885B985892B8A2BFD
S1131C708B2B21F40F900FBE80E043C0E11006C00F
S1131C80CE0101960E942D1AEE24E3940F900FBE0C
S1131C90E1D60FB6F8940F92F80181A18F3F09F4B1
S1131CA011A2F80182A18F3F09F412A20F900FBE76
S1131CB0BE016A5F7F4FCE0101960E943E1A8111D8
S1131CC017C0C80173DD882379F04E815F81688570
S1131CD07985C80143960E942B18C801FBDDFAD709
S1131CE08111A6CF8BDCA4CFC801F4DDF3D7A0CF3C
S1131CF0C801F0DDEFD7C80159DD882309F498CF76
S1131D0080E029960FB6F894DEBF0FBECDBFDF91F9
S1131D10CF911F910F91FF90EF90DF90CF90089596
S1131D20EF92FF920F931F93CF93DF93CDB7DEB75C
S1131D3029970FB6F894DEBF0FBECDBF8C014E833A
S1131D405F8368877987E12CF12C0FB6F8940F92A2
S1131D50F801868D8823C9F08150868F8081918116
S1131D60892B29F40E942E1CF80195838483F801A1
S1131D708085882331F0C80108960E94CE1881110D
S1131D803DDC0F900FBE81E06FC08E819F81A885DE
S1131D90B985892B8A2B8B2B21F40F900FBE80E001
S1131DA063C0F11006C0CE0101960E942D1AFF24D3
S1131DB0F3940F900FBE4ED60FB6F8940F92F8011D
S1131DC081A18F3F09F411A2F80182A18F3F09F488
S1131DD012A20F900FBEBE016A5F7F4FCE01019623
S1131DE00E943E1A811126C0C801E0DC8823F1F06C
S1131DF0F80180819181892B51F40FB6F8940F92E8
S1131E00848195810E94BB1AE82E0F900FBE4E81EB
S1131E105F8168857985C80143960E942B18C801A3
S1131E2059DD58D7811191CFE9DB8FCFC80152DD3D
S1131E3051D78BCFC8014EDD4DD7C801B7DC8823FD
S1131E4009F483CFEE2079F00FB6F8940F92C8010D
S1131E509DDC682FF801848195810E949D1B0F9061
S1131E600FBE80E001C080E029960FB6F894DEBF73
S1131E700FBECDBFDF91CF911F910F91FF90EF90D7
S1131E800895CF93DF93EC010FB6F8940F9289A1D4
S1131E908F3F09F419A28AA18F3F09F41AA20F9067
S1131EA00FBE8E8D811104C0CE0143960E948C1802
S1131EB0CE0110DDDF91CF910895FC01448155815D
S1131EC022813381240F351F80819181B901681BE0
S1131ED0790BCB016417750710F0841B950B0895DB
S1131EE00F93FC018FE0DF011D928A95E9F7758756
S1131EF06487558344833783268306870F91089527
S1131F00AF92BF92CF92DF92EF92FF920F931F9303
S1131F10CF93DF936C015B017A01FC01C281D38111
S1131F20048115810C1B1D0B4017510708F48A010D
S1131F30F60184859585A801B5018C0F9D1F0E942B
S1131F4000380E151F0558F4A701401B510BB501AD
S1131F50600F711FF601848595850E940038CE01BB
S1131F608E0D9F1DF601248135818217930710F091
S1131F70821B930BF60193838283C701DF91CF9178
S1131F801F910F91FF90EF90DF90CF90BF90AF9093
S1131F900895CF92DF92EF92FF920F931F93CF9306
S1131FA0DF931F921F92CDB7DEB77C016B015A837A
S1131FB0498321153105C1F0FC01868580FD08C0E7
S1131FC04217530708F49A013A83298381E00FC02A
S1131FD02017310758F042E050E0BE016F5F7F4F99
S1131FE0C7018EDF81E003C080E001C080E0882368
S1131FF031F049815A81B601C70182DF02C080E015
S113200090E00F900F90DF91CF911F910F91FF906F
S1132010EF90DF90CF900895AF92BF92CF92DF926E
S1132020EF92FF920F931F93CF93DF937C015B0199
S1132030E9014217530708F4EA01209781F1F701F7
S11320400081118184819581801B910B6E018C1715
S11320509D0708F46C01F70164857585600F711F95
S1132060A601C5010E940038CC16DD0658F4AE0165
S11320704C195D09F70164857585C5018C0D9D1D9D
S11320800E9400380C0F1D1FF701848195810817E9
S1132090190710F0081B190BF70111830083CE01F7
S11320A0DF91CF911F910F91FF90EF90DF90CF9030
S11320B0BF90AF9008956F927F928F929F92AF924C
S11320C0BF92CF92DF92EF92FF920F931F93CF9321
S11320D0DF931F921F92CDB7DEB76C014B015A01FB
S11320E0790101151105B1F0FC0160807180A8012E
S11320F0BE016F5F7F4F90DF89819A81E01AF10AF8
S1132100A816B90630F4F60171826082A12CB12CB4
S113211001C05C019701A501B401C6017DDF0F90E8
S11321200F90DF91CF911F910F91FF90EF90DF906F
S1132130CF90BF90AF909F908F907F906F900895B5
S1132140CF92DF92EF92FF920F93CF93DF93EC0144
S11321506B01413011F401E001C000E0C114D1046D
S113216019F4CC24C394D12CCE014096C817D907B6
S113217020F421968FD87C0102C0E12CF12CE114CB
S1132180F10439F09601AE01B701615F7F4FC701D9
S1132190A7DEC701DF91CF910F91FF90EF90DF9001
S11321A0CF9008950F930FB6F8940F92FC012085F9
S11321B03185232B71F422853385232B61F4268109
S11321C037814481558164857585068589DE81E082
S11321D003C080E001C080E00F900FBE0F9108950E
S11321E0FC012481358180819181820F931F42817A
S11321F05381841B950B01978217930710F0821B60
S1132200930B08952F923F924F925F926F927F9219
S11322108F929F92AF92BF92CF92DF92EF92FF92F2
S11322200F931F93CF93DF93CDB7DEB72B970FB6E2
S1132230F894DEBF0FBECDBF4C017B876A871A01BD
S11322400E831F8328873987FC0184819581019738
S1132250268520FF0CC02A01F2E04F0E511C841584
S1132260950558F41E821F821886198606C08417A5
S1132270950710F02A0101C02C018E819F81A88549
S1132280B985892B8A2B8B2B09F438C0CE01019692
S11322900E94171A0FB6F8940F92C401A1DF3C01F3
S11322A08415950540F560E080E090E00E94011FF0
S11322B00E94A81AF401938782870F900FBEAE8004
S11322C0BF80C884D984E12CF12C00E010E098018F
S11322D040E050E0BA0180E00E94401CF401138603
S11322E01286BE016A5F7F4FCE0101960E943E1A9C
S11322F0882381F205C00F900FBE02C0612C712C9F
S11323006114710419F4C4016BDF3C01820193016F
S1132310A1016A857B85C4013CDE6C01892BE9F04F
S1132320C401CBDDF4012681378182179307A8F01D
S113233091D3F40180859185892B71F080859185F5
S1132340E12CF12C00E020E030E0A90160E00E94E3
S1132350E81CF40111861086BDD4C6012B960FB675
S1132360F894DEBF0FBECDBFDF91CF911F910F91C7
S1132370FF90EF90DF90CF90BF90AF909F908F90A1
S11323807F906F905F904F903F902F900895AF9201
S1132390BF92CF92DF92EF92FF920F931F93CF934E
S11323A0DF93EC017B015A0169018E8580FF04C033
S11323B08A010E5F1F4F01C08A01CE0111DF9C010B
S11323C0A501B701CE01E5DD5C01892BC1F0CE0189
S11323D074DD2E813F818217930788F08885998563
S11323E0892B69F088859985E12CF12C00E020E0A7
S11323F030E0A90160E00E94DF1D19861886C5013E
S1132400DF91CF911F910F91FF90EF90DF90CF90CC
S1132410BF90AF9008954F925F926F927F928F9288
S11324209F92AF92BF92CF92DF92EF92FF920F935F
S11324301F93CF93DF93EC012B013A0158016901FB
S11324408E8580FF05C06894882481F8912C02C091
S1132450812C912CA114B104C104D10441F10FB613
S1132460F8940F92CE0129DD7C018816990648F074
S113247060E080E090E00E94011F0E94A81A998702
S113248088870F900FBE8E149F04A0F0E12CF12CCE
S113249000E010E0980140E050E0BA0180E00E94C2
S11324A0401C19861886CE0108DD7C0103C0CE01CC
S11324B004DD7C018E149F04E8F484019701A301D8
S11324C0B201CE01F8DD6C01892BB1F0C3D28A854B
S11324D09B85892B69F08A859B85E12CF12C00E092
S11324E020E030E0A90160E00E94E81C1B861A8607
S11324F0F1D302C0C12CD12CC601DF91CF911F9121
S11325000F91FF90EF90DF90CF90BF90AF909F908E
S11325108F907F906F905F904F900895E091DF13BC
S1132520F091E013808181110CC08FEF9FEFDC01EB
S11325308093A9139093AA13A093AB13B093AC13F5
S11325400895E091DF13F091E0130780F085E02D0A
S113255080819181A281B3818093A9139093AA135E
S1132560A093AB13B093AC130895CF93DF93EC0116
S11325708B8D9C8D0E94F309CE010E94F309DF919B
S1132580CF9108954F925F926F927F928F929F9214
S1132590AF92BF92CF92DF92EF92FF920F93CF93BD
S11325A0DF932C015B014A013901E60165EA70E021
S11325B08B8D9C8D0E9409388B8D9C8D21E0821A15
S11325C09108880E991EA114B10489F415C0822FB4
S11325D090E0F501E80FF91F3081DE01A80FB91F63
S11325E05D963C938081882329F02F5F01C020E011
S11325F0203168F31CA601C01D8E0A3008F009E0E2
S11326000A8F0DA71EA6CE0102960E94410ACE0192
S11326100E960E94410ADB87CA878AE090E0A0E018
S1132620B0E0801B9109A109B1098E879F87A88B0F
S1132630B98BDF8BCE8B84E0FE01BF96DF011D9248
S11326408A95E9F71BAAA301B201C4010E94B50A45
S113265099838883E114F10419F0F701D183C083CD
S1132660DF91CF910F91FF90EF90DF90CF90BF90CB
S1132670AF909F908F907F906F905F904F90089550
S1132680CF93C0E009C02BE0C29FC0011124895040
S11326909C4E0E94300ACF5FCA30A8F38CEE93E1BF
S11326A00E94300A81EE93E10E94300A82ED93E1A8
S11326B00E94300A87EC93E10E94300A8BEB93E18D
S11326C00E94300A8CEE93E19093E0138093DF1321
S11326D081EE93E19093DE138093DD13CF910895FF
S11326E0CF93DF93EC010FB6F8940F928091BA1355
S11326F08F5F8093BA138091651490916614892B2F
S113270051F4D0936614C09365148091BA13813048
S113271091F4B6DF10C08091B41381110CC0E09124
S11327206514F0916614928D8A8D891720F0D093E8
S11327306614C09365148091AD138F5F8093AD13BD
S1132740EA8D8091B5138E1710F4E093B5138BE0E6
S11327508E9FF0011124E950FC4E0180F281E02D9E
S1132760FF83EE832681378139872887A681B78145
S11327709E012E5F3F4F15963C932E9314973783FB
S11327802683EA8D8E9FF0011124E950FC4EFD87CB
S1132790EC8780818F5F80830F900FBE8091B4138C
S11327A0882351F0E0916514F0916614928D8A8D1E
S11327B0981710F40E94FE0ADF91CF910895CF93E9
S11327C0DF931BC00FB6F8940F92E091CE13F091F3
S11327D0CF13C085D185CE0102960E94820A8091D2
S11327E0BA1381508093BA138091C6138150809399
S11327F0C6130F900FBECE01B8DE8091C6138111AF
S1132800E1CFDF91CF9108958F929F92AF92BF92C3
S1132810CF92DF92EF92FF92CF93DF936B017C0113
S1132820C42F8090B6139090B713A090B813B090B3
S1132830B913809165149091661402960E94820ADD
S11328408FEFC816D806E806F806B1F5CC23A1F137
S1132850EBEBF3E1A181B281C0916514D0916614D0
S1132860BF83AE83C0916514D091661416968D9182
S11328709C911797998788871696CD91DC91179725
S1132880809165149091661402969D838C83809147
S1132890651490916614029617969C938E931697DE
S11328A0A0916514B09166141D96FC93EE931C9749
S11328B080818F5F80833FC0C80CD91CEA1CFB1C3D
S11328C0E0916514F0916614C282D382E482F582A9
S11328D0C814D904EA04FB0468F460916514709187
S11328E066148091DD139091DE136E5F7F4F0E941A
S11328F0450A21C060916514709166148091DF13BC
S11329009091E0136E5F7F4F0E94450A8091A91356
S11329109091AA13A091AB13B091AC13C816D90629
S1132920EA06FB0640F4C092A913D092AA13E092DF
S1132930AB13F092AC13DF91CF91FF90EF90DF9047
S1132940CF90BF90AF909F908F9008952F923F9219
S11329504F925F926F927F928F929F92AF92BF92AB
S1132960CF92DF92EF92FF920F93CF93DF933C01CC
S11329701B014A012901CA010E944A096C01892BE1
S113298071F084E390E00E944A09EC01892B19F06C
S1132990DC8ECB8E06C0C6010E94F30902C0C0E0E3
S11329A0D0E0209761F0A12CB12C6E019201A4011A
S11329B0B101C301E7DDCE0193DE81E001C08FEFF9
S11329C0DF91CF910F91FF90EF90DF90CF90BF9068
S11329D0AF909F908F907F906F905F904F903F90BB
S11329E02F900895EF92FF920F930F2EF7EAEF2E98
S11329F0F3E1FF2EF02D00E020E030E040EC50E069
S1132A0068EC74E08EE491E0A1DF813011F40E945F
S1132A10A51F8130C9F4F8948FEF9FEFDC018093F8
S1132A20A9139093AA13A093AB13B093AC1381E0B2
S1132A308093B4131092B6131092B7131092B81374
S1132A401092B9130E94CC0A809106020F91FF9054
S1132A50EF9008958091A6138F5F8093A613089535
S1132A600FB6F8940F926091B6137091B7138091DA
S1132A70B8139091B9130F900FBE0895CF92DF92BF
S1132A80EF92FF92CF93DF938091A613811105C13A
S1132A90C090B613D090B713E090B813F090B91368
S1132AA08FEFC81AD80AE80AF80AC092B613D0926F
S1132AB0B713E092B813F092B913C114D104E1042E
S1132AC0F104B1F48091DF139091E0132091DD13B0
S1132AD03091DE133093E0132093DF139093DE13D1
S1132AE08093DD138091AE138F5F8093AE1316DD58
S1132AF08091A9139091AA13A091AB13B091AC1338
S1132B00C816D906EA06FB0620F480E0B2C081E0CC
S1132B1001C080E0E091DF13F091E0139081911106
S1132B200CC04FEF5FEFBA014093A9135093AA135F
S1132B306093AB137093AC139CC0E091DF13F091DE
S1132B40E0130780F085E02D0084F185E02D4281BB
S1132B50538164817581C416D506E606F70648F4E8
S1132B604093A9135093AA136093AB137093AC13BF
S1132B7080C0A485B585C681D781208531853F83F2
S1132B802E83C085D185268137813D832C83119680
S1132B904D915C9112979F012E5F3F4F421753074F
S1132BA031F44085518512965C934E9311971586A6
S1132BB014869C9191509C93A08DB18D109709F12E
S1132BC0C289D389448955895F834E83C489D58951
S1132BD0428953895D834C8311966D917C91129740
S1132BE0AF01425F5F4F6417750731F4448955891B
S1132BF012965C934E931197118E108E9C91915066
S1132C009C93A28D9091B5139A1710F4A093B513C9
S1132C109BE09A9FD0011124A950BC4E11960D90AF
S1132C20BC91A02DB783A68316964D915C911797FE
S1132C30518740871696CD91DC9117973D832C835D
S1132C4017963C932E931697A28D9A9FD001112428
S1132C50A950BC4EB587A4879C919F5F9C93228DFD
S1132C60E0916514F0916614928D291708F04FCF06
S1132C7051CFE0916514F0916614E28D9BE0E99FD9
S1132C80F0011124E950FC4E9081923008F081E06B
S1132C909091AF13911116C016C08091B01390910A
S1132CA0B113A091B213B091B3130196A11DB11D3C
S1132CB08093B0139093B113A093B213B093B31352
S1132CC080E001C081E0DF91CF91FF90EF90DF9031
S1132CD0CF900895CF92DF92EF92FF92CF93DF933C
S1132CE00FB6F8940F928091A61381508093A61387
S1132CF08091A6138111BEC08091BA13811188C03E
S1132D00BCC0E091D913F091DA130084F185E02D71
S1132D10A08DB18DC289D389848995899F838E833F
S1132D20C489D589828993899D838C8311962D9139
S1132D303C911297CF010E962817390731F48489F4
S1132D40958912969C938E931197118E108E8C9167
S1132D5081508C93A485B585C681D7818085918562
S1132D609F838E83C085D185868197819D838C8343
S1132D7011968D919C9112979F012E5F3F4F821760
S1132D80930731F48085918512969C938E931197C5
S1132D90158614868C9181508C93A28D8091B513E5
S1132DA08A1710F4A093B5138BE08A9FD0011124E5
S1132DB0A950BC4E11960D90BC91A02DB783A6834B
S1132DC016964D915C911797518740871696CD9131
S1132DD0DC9117973D832C8317963C932E9316977B
S1132DE0A28D8A9FD0011124A950BC4EB587A48717
S1132DF08C918F5F8C93928DA0916514B091661421
S1132E005A968C91981730F081E08093AF1302C0EA
S1132E10E0E0F0E08091D213811173CFEF2B09F041
S1132E207DDBC090B013D090B113E090B213F0905A
S1132E30B313C114D104E104F104A1F01FDE88230B
S1132E4019F081E08093AF1381E0C81AD108E1083A
S1132E50F108A1F71092B0131092B1131092B213AB
S1132E601092B3138091AF13882331F00E94FE0AAD
S1132E7081E003C080E001C080E00F900FBEDF91CD
S1132E80CF91FF90EF90DF90CF9008958F929F9213
S1132E90AF92BF92CF92DF92EF92FF921F93CF93A4
S1132EA0DF93EC016A017B01D5DD8090B61390902D
S1132EB0B713A090B813B090B91388819981AA81EF
S1132EC0BB81AC01BD014C0D5D1D6E1D7F1D8816BF
S1132ED09906AA06BB0660F4481759076A077B07D8
S1132EE098F484169506A606B70680F010E013C081
S1132EF0481759076A077B0758F084169506A606F3
S1132F00B70640F010E007C010E005C011E003C0B0
S1132F1011E001C011E0488359836A837B83112344
S1132F2041F0CB01BA01681979098A099B0940E08B
S1132F306BDCD0DE811102C00E94FE0A812FDF917A
S1132F40CF911F91FF90EF90DF90CF90BF90AF9003
S1132F509F908F900895CF92DF92EF92FF926B0132
S1132F607C01672B682B692B39F074DD40E0C701C5
S1132F70B6014ADCAFDE01C080E0811102C00E94CC
S1132F80FE0AFF90EF90DF90CF9008958091A613F2
S1132F90882321F081E08093AF1308951092AF133A
S1132FA0E0916514F091661420813181E0916514FB
S1132FB0F0916614838D948D8217930760F060916D
S1132FC0651470916614635E7F4F809165149091CF
S1132FD066140E9433228091B51301C08150282FBA
S1132FE030E09BE0929FF001939FF00D1124E95093
S1132FF0FC4E9081992391F39BE0929FA001939FB3
S1133000500D1124DF010180F281E02D0480F5814F
S1133010E02D1296FC93EE93119746505C4EE41704
S1133020F50729F444815581FD01528341839BE0D6
S1133030929FF001939FF00D1124E950FC4E018002
S1133040F281E02D20853185309366142093651438
S11330508093B5130895CF92DF92EF92FF926A01A5
S11330607B016091651470916614625F7F4F0E94CA
S1133070450A41E0C701B601C7DBFF90EF90DF903E
S1133080CF9008950F931F93CF93DF93FC01A091EA
S11330906514B091661470681E964D935D936D939C
S11330A07C935197A181B281C0916514D09166142B
S11330B0BB8BAA8BC0916514D091661416968D9122
S11330C09C9117979D8B8C8B1696CD91DC911797BD
S11330D080916514909166140E969D838C838091E3
S11330E06514909166140E9617969C938E9316977A
S11330F0A0916514B09166145996FC93EE93589779
S113310080818F5F808341E0C901B8017DDBDF915D
S1133110CF911F910F910895CF93DF93FC01CB01C1
S1133120BA01A181B281C0916514D0916614BB8BA0
S1133130AA8BC0916514D091661416964D915C913A
S113314017975D8B4C8B1696CD91DC911797409118
S1133150651450916614425F5F4F5D834C834091C8
S1133160651450916614425F5F4F17965C934E93BB
S11331701697A0916514B09166145996FC93EE933A
S1133180589730813F5F3083222319F06FEF7FEF30
S1133190CB01422F39DBDF91CF910895CF93DF9399
S11331A0DC011796ED91FC9118970084F185E02DD0
S11331B0A08DB18DC289D389848995899F838E839B
S11331C0C489D589828993899D838C8311968D9135
S11331D09C9112979F01225F3F4F8217930731F40E
S11331E08489958912969C938E931197118E108ED3
S11331F08C9181508C938091A613811152C0A48527
S1133200B585C681D781808591859F838E83C0854E
S1133210D185868197819D838C8311968D919C9114
S113322012979F012E5F3F4F8217930731F48085D9
S1133230918512969C938E931197158614868C9182
S113324081508C93A28D8091B5138A1710F4A093AA
S1133250B5138BE08A9FD0011124A950BC4E11965E
S11332600D90BC91A02DB783A68316964D915C91C9
S11332701797518740871696CD91DC9117973D8318
S11332802C8317963C932E931697A28D8A9FD00178
S11332901124A950BC4EB587A4878C918F5F8C9361
S11332A01CC042ED53E1DA011196CD91DC911297E5
S11332B0D38BC28B8E819F81958B848B8E819F81D2
S11332C0DC0115963C932E9314973F832E83518FE4
S11332D0408FDA018C918F5F8C93928DE09165140D
S11332E0F0916614828D891720F481E08093AF13E6
S11332F001C080E0DF91CF910895CF93DF93DC018B
S113330070684D935D936D937C9313971896ED912C
S1133310FC9119971A964D915C911B9714968D9177
S11333209C91159716962D913C911797EC013F832C
S11333302E8316968D919C91179714962D913C91FE
S11333401597EC013D832C83EA0189819A81A817A2
S1133350B90731F416968D919C9117979A838983B6
S11333601B961C921E921A97DA018C9181508C93B1
S1133370A485B585C681D781808591859F838E83F9
S1133380C085D185868197819D838C8311968D918B
S11333909C9112979F012E5F3F4F8217930731F440
S11333A08085918512969C938E9311971586148629
S11333B08C9181508C93A28D8091B5138A1710F44F
S11333C0A093B5138BE08A9FD0011124A950BC4E61
S11333D011960D90BC91A02DB783A68316964D919E
S11333E05C911797518740871696CD91DC9117977A
S11333F03D832C8317963C932E931697A28D8A9F18
S1133400D0011124A950BC4EB587A4878C918F5F3D
S11334108C93928DE0916514F0916614828D8917D6
S113342018F481E08093AF13DF91CF9108950FB624
S1133430F8940F922091AE13FC0120834091B613AF
S11334405091B7136091B8137091B91341835283AB
S1133450638374830F900FBE08952091AE13FC0113
S113346020834091B6135091B7136091B8137091B3
S1133470B913418352836383748308958F929F9217
S1133480AF92BF92CF92DF92EF92FF920F931F936E
S1133490CF93DF93FB010FB6F8940F92C090B6134D
S11334A0D090B713E090B813F090B913DC011196E3
S11334B00D911D912D913C91149746015701801A4D
S11334C0910AA20AB30A40815181628173814F3FFC
S11334D0BFEF5B076B077B0739F1EC01B881A09163
S11334E0AE13BA1759F0C016D106E206F30630F04F
S11334F0108211821282138281E017C0841695060D
S1133500A606B70658F4481959096A097B09408385
S1133510518362837383A1DF80E007C0108211822C
S11335201282138281E001C080E00F900FBEDF9110
S1133530CF911F910F91FF90EF90DF90CF90BF90AC
S1133540AF909F908F90089581E08093AF1308957A
S1133550809165149091661408958091B413882322
S113356031F08091A613811104C082E0089581E0B6
S1133570089580E008950F931F93CF93DF93FC0188
S1133580892B09F477C0828DA0916514B0916614DB
S11335905A969C91891708F063C0468557856089BF
S11335A07189772394F0A0916514B09166145A96AA
S11335B09C914AE050E060E070E0491B51096109C8
S11335C0710946875787608B718B248535854BE05D
S11335D0849FC001112489509C4E28173907B9F5DE
S11335E0EF018F010E5F1F4FC8010E94820AE09114
S11335F06514F0916614E28DEA8F8091B5138E17ED
S113360010F4E093B5138BE08E9FF0011124E95080
S1133610FC4E0180F281E02DFF83EE832681378109
S113362039872887A681B78115961C930E93149722
S113363017830683EA8D8E9FF0011124E950FC4E16
S1133640FD87EC8780818F5F808381E016C0A09125
S11336506514B09166145A968C91828F81E00DC0E6
S113366095A5E0916514F0916614828D981720F069
S113367080E003C080E001C081E0DF91CF911F9121
S11336800F9108950F931F93CF93DF93FC01892B20
S113369009F449C086A5815086A7228D95A52917CE
S11336A009F443C0811143C0EF018F010E5F1F4F26
S11336B0C8010E94820AEDA5EA8F8AE090E0A0E0AA
S11336C0B0E08E1B9109A109B1098E879F87A88B51
S11336D0B98B8091B5138E1710F4E093B5138BE07A
S11336E08E9FF0011124E950FC4E0180F281E02DFF
S11336F0FF83EE832681378139872887A681B781A6
S113370015961C930E93149717830683EA8D8E9F48
S1133710F0011124E950FC4EFD87EC8780818F5F16
S1133720808381E005C080E003C080E001C080E0C8
S1133730DF91CF911F910F9108950F931F93CF9312
S1133740DF93FC01892B09F45AC085A5861708F478
S1133750862F928D891709F452C026A5213009F0CD
S11337604EC0828F4685578560897189772364F0BE
S11337704AE050E060E070E0481B510961097109BA
S113378046875787608B718B248535854BE0949FE2
S1133790C001112489509C4E2817390781F5EF0187
S11337A08F010E5F1F4FC8010E94820AEA8D80912B
S11337B0B5138E1710F4E093B5138BE08E9FF001D0
S11337C01124E950FC4E0180F281E02DFF83EE8349
S11337D02681378139872887A681B78115961C935E
S11337E00E93149717830683EA8D8E9FF00111249C
S11337F0E950FC4EFD87EC8780818F5F8083DF91E9
S1133800CF911F910F910895CF92DF92EF92FF9283
S1133810E0916514F09166146685778580899189B5
S1133820E0916514F0916614A0916514B09166144A
S11338305A962C910F2EFAE0CF2ED12CE12CF12C9C
S1133840F02DC21AD108E108F108C686D786E08AAD
S1133850F18AFF90EF90DF90CF90089580916514E6
S113386090916614892B39F0E0916514F0916614F7
S113387086A58F5F86A7809165149091661408953C
S11338804F925F926F927F92AF92BF92CF92DF92EC
S1133890EF92FF920F931F93CF93DF932801390187
S11338A00FB6F8940F92E0916514F0916614C82F46
S11338B0D0E0EC0FFD1F83A9823079F1E09165140B
S11338C0F0916614CE01880F991F880F991FE80F95
S11338D0F91F87A590A9A1A9B2A940955095609513
S11338E07095482359236A237B2347A750AB61ABC8
S11338F072ABE0916514F0916614EC0FFD1F81E04A
S113390083ABA114B104C104D10439F041E0C60170
S1133910B5010E9404140E94FE0A0F900FBE0FB658
S1133920F8940F92E114F104A1F0E0916514F09180
S11339306614CE01880F991F880F991FE80FF91F8D
S113394087A590A9A1A9B2A9F70180839183A28335
S1133950B383E0916514F0916614EC0FFD1F83A905
S11339608230E9F4E0916514F0916614CE01880F79
S1133970991F880F991FE80FF91F87A590A9A1A97E
S1133980B2A94094509460947094482259226A22B7
S11339907B2247A650AA61AA72AA81E001C080E0F6
S11339A02091651430916614C20FD31F1BAA0F9087
S11339B00FBEDF91CF911F910F91FF90EF90DF9099
S11339C0CF90BF90AF907F906F905F904F9008958D
S11339D08F929F92AF92BF92EF92FF920F93CF93E9
S11339E0DF93DC010FB6F8940F92E114F10489F02F
S11339F0E62FF0E0EE0FFF1FEE0FFF1FE80FF91F99
S1133A0087A490A8A1A8B2A8F70180829182A2827B
S1133A10B38270E0FD01E60FF71F83A992E093AB38
S1133A20023001F118F4013031F04DC0033079F166
S1133A300430D1F148C0660F771F660F771FFD0170
S1133A40E60FF71F87A490A8A1A8B2A8BA01A901FC
S1133A50482959296A297B2947A750AB61AB72AB26
S1133A6001E034C0660F771F660F771FFD01E60F74
S1133A70F71F47A550A961A972A94F5F5F4F6F4F08
S1133A807F4F47A750AB61AB72AB01E01FC0660F1D
S1133A90771F660F771FFD01E60FF71F27A730ABCF
S1133AA041AB52AB01E012C0823079F0660F771F50
S1133AB0660F771FFD01E60FF71F27A730AB41AB59
S1133AC052AB01E003C001E001C000E0813009F025
S1133AD069C01C96ED91FC911D971696CD91DC91D1
S1133AE0179718968D919C9119979F838E8318969A
S1133AF0CD91DC91199716968D919C9117979D8382
S1133B008C83818192819D012E5F3F4F82179307A1
S1133B1031F418968D919C911997928381831D9607
S1133B201C921E921C978081815080835A96EC913E
S1133B305A978091B5138E1710F4E093B5138BE068
S1133B408E9FF0011124E950FC4E0180F281E02D9A
S1133B501796FC93EE9316974681578119965C93BA
S1133B604E931897C681D7813D832C833783268350
S1133B705A96EC915A978E9FF0011124E950FC4E0D
S1133B801D96FC93EE931C9780818F5F80835A96D9
S1133B909C91E0916514F0916614828D891710F45C
S1133BA00E94FE0A0F900FBE802FDF91CF910F91DC
S1133BB0FF90EF90BF90AF909F908F9008958F9259
S1133BC09F92AF92BF92CF92DF92EF92FF920F93A8
S1133BD0CF93DF93DC01E114F10489F0E62FF0E0E8
S1133BE0EE0FFF1FEE0FFF1FE80FF91F87A490A829
S1133BF0A1A8B2A8F70180829182A282B38270E068
S1133C00FD01E60FF71F93A982E083AB023001F1B7
S1133C1018F4013031F04DC0033079F10430D1F1A2
S1133C2048C0660F771F660F771FFD01E60FF71F69
S1133C3087A490A8A1A8B2A8BA01A9014829592922
S1133C406A297B2947A750AB61AB72AB81E034C0D2
S1133C50660F771F660F771FFD01E60FF71F47A555
S1133C6050A961A972A94F5F5F4F6F4F7F4F47A75C
S1133C7050AB61AB72AB81E01FC0660F771F660F5C
S1133C80771FFD01E60FF71F27A730AB41AB52ABFF
S1133C9081E012C0923079F0660F771F660F771FAC
S1133CA0FD01E60FF71F27A730AB41AB52AB81E014
S1133CB003C081E001C080E0913009F096C090918A
S1133CC0A61391115FC01C96ED91FC911D97169659
S1133CD0CD91DC91179718962D913C9119973F83BC
S1133CE02E831896CD91DC91199716962D913C91BF
S1133CF017973D832C83418152819D012E5F3F4F55
S1133D004217530731F418964D915C9119975283D9
S1133D1041831D961C921E921C9790819150908312
S1133D205A96EC915A979091B5139E1710F4E0931C
S1133D30B5139BE09E9FF0011124E950FC4E0180D5
S1133D40F281E02D1796FC93EE93169746815781E6
S1133D5019965C934E931897C681D7813D832C8323
S1133D60378326835A96EC915A979E9FF00111242B
S1133D70E950FC4E1D96FC93EE931C9790819F5F37
S1133D80908321C062ED73E1FB01C181D28153961E
S1133D90DC93CE9352972E813F8155963C932E937C
S1133DA054974E815F819D01225F3F4FFA01358315
S1133DB024833F832E8359967C936E935897FB01FB
S1133DC090819F5F90835A962C91E0916514F091B5
S1133DD06614928D921748F4C114D10419F091E03D
S1133DE0F601908391E09093AF13DF91CF910F91FF
S1133DF0FF90EF90DF90CF90BF90AF909F908F9007
S1133E000895009721F480916514909166140FB67B
S1133E10F8940F9270E0FC01E60FF71F23A92230FB
S1133E2031F4FC01E60FF71F13AA81E001C080E022
S1133E300F900FBE0895DC01E0917114F09172149B
S1133E40808191E0811190E09C93911108C00780DA
S1133E50F085E02D6081718182819381089560E015
S1133E6070E0CB010895CF92DF92EF92FF920F930F
S1133E701F93FC01428353836483758393878287F2
S1133E800417150726073707C0F00C191D092E095A
S1133E903F0986859785A089B189081719072A07DC
S1133EA03B0700F5BF016E5F7F4F80916F149091C7
S1133EB070140E94450A80E018C00C151D052E05DB
S1133EC03F0528F44C155D056E057F0568F4BF01B8
S1133ED06E5F7F4F80917114909172140E94450A15
S1133EE080E003C081E001C081E01F910F91FF9049
S1133EF0EF90DF90CF9008950FB6F8940F928091D1
S1133F006D1490916E14892BE9F48EE794E10E946C
S1133F10300A83E794E10E94300A8EE794E190939B
S1133F2072148093711483E794E1909370148093D6
S1133F306F1440E067E08AE00E94F30C90936E14E3
S1133F4080936D140F900FBE0895EF92FF920F931C
S1133F50D3DF80916D1490916E14892B91F00F2E04
S1133F60FBE6EF2EF4E1FF2EF02D03E020E030E03D
S1133F7040EC50E06DEC74E089E591E00E94A614F9
S1133F8001C080E00F91FF90EF9008958F929F926F
S1133F90AF92BF92CF92DF92EF92FF920F931F9353
S1133FA0CF93DF93CDB7DEB727970FB6F894DEBF74
S1133FB00FBECDBFE0916D14F0916E14309781F176
S1133FC069832A833B834C835D839F838E8366301E
S1133FD0F4F4C3DA823069F400E0A7019601BE016B
S1133FE06F5F7F4F80916D1490916E140E94160D37
S1133FF018C000E020E030E0A901BE016F5F7F4FF0
S113400080916D1490916E140E94160D0AC020E0E8
S1134010A801BE016F5F7F4FCF010E94C60D01C092
S113402080E027960FB6F894DEBF0FBECDBFDF91B8
S1134030CF911F910F91FF90EF90DF90CF90BF90A1
S1134040AF909F908F9008958F929F92AF92BF925E
S1134050CF92DF92EF92FF920F931F93CF93DF9350
S11340603BC00780F085E02D80809180A280B380E2
S1134070C085D1858E010E5F1F4FC8010E94820A40
S1134080EC89FD89CE0119958E8982FF25C08E8524
S11340909F85A889B989880D991DAA1DBB1D8816FD
S11340A09906AA06BB0670F48A839B83AC83BD83FE
S11340B0DB87CA87B80180917114909172140E94B1
S11340C0450A0AC0C12CD12C760100E010E0A501FC
S11340D0940160E0CE015ADFE0917114F091721402
S11340E080818111BECF80916F1490917014909350
S11340F0721480937114F0937014E0936F14DF9131
S1134100CF911F910F91FF90EF90DF90CF90BF90D0
S1134110AF909F908F900895CF92DF92EF92FF928D
S1134120CF93DF93EC010E9430156B017C018091E9
S1134130671490916814A0916914B0916A14C81618
S1134140D906EA06FB0620F47FDF81E0888301C0FC
S11341501882C0926714D0926814E0926914F092A5
S11341606A14C701B601DF91CF91FF90EF90DF9001
S1134170CF9008954F925F926F927F928F929F9209
S1134180AF92BF92CF92DF92EF92FF920F931F9361
S1134190CF93DF934B015C0129013A01E091711443
S11341A0F09172140780F085E02DC085D185CE0191
S11341B002960E94820A8E8982FF1BC04E855F850B
S11341C068897989480D591D6A1D7B1D7501640133
S11341D093018201CE0147DE882369F0C12CD12CE2
S11341E0760100E010E0A501940160E0CE01CEDE8E
S11341F002C08E7F8E8BEC89FD89CE011995DF91EB
S1134200CF911F910F91FF90EF90DF90CF90BF90CF
S1134210AF909F908F907F906F905F904F90089594
S11342208F929F92AF92BF92CF92DF92EF92FF92C2
S11342301F93CF93DF931F92CDB7DEB76B017C0141
S1134240142F0E942A15CE01019666DF4B015C01F2
S1134250898181112DC011110DC08C149D04AE04EF
S1134260BF0440F00E946A16A5019401C701B6017B
S113427081DF20C0112341F0E0916F14F09170149C
S1134280808111E0811110E0B701A6014819590994
S11342906A097B09212F80916D1490916E140E94FC
S11342A0410F0E946A16811105C00E94FE0A02C0D5
S11342B00E946A160F90DF91CF911F91FF90EF90AB
S11342C0DF90CF90BF90AF909F908F900895AF9262
S11342D0BF92CF92DF92EF92FF920F931F93CF93EF
S11342E0DF93CDB7DEB728970FB6F894DEBF0FBEC5
S11342F0CDBF82C0898188230CF47EC0AE80BF808C
S1134300D5011C968D919C911D97892B21F0C50197
S113431002960E94820ACE010896FEDE8B019C0161
S1134320E9810E2E000CFF0BEA30F10508F064C0A1
S11343308827EE58FF4F8F4F0C94C735F5018689B7
S11343408160868BCA80DB80EC80FD804685578542
S1134350608971894C0D5D1D6E1D7F1DC50183DD56
S1134360882309F449C0D5015496ED91FC915597E1
S1134370C5011995F501868982FF3EC04A815B819A
S11343806C817D8186859785A089B1899A01AB016D
S1134390280F391F4A1F5B1FC12CD12C760100E066
S11343A010E060E0C501F2DD27C0D50156968C917E
S11343B056978E7F56968C931FC0F501868981602F
S11343C0868B4A815B816C817D8146875787608BB0
S11343D0718B400F511F621F731F68017901C50162
S11343E042DD0AC0F501868981FD04C0C5010E9431
S11343F0F30902C08E7F868B20E030E0A901BE0164
S11344006F5F7F4F80916D1490916E140E94010E26
S1134410811170CF28960FB6F894DEBF0FBECDBFC2
S1134420DF91CF911F910F91FF90EF90DF90CF908C
S1134430BF90AF900895089584B1806884B985B120
S1134440806885B9089583B1806883B90895F4DFDD
S11344502FEF80E792E0215080409040E1F700C0C8
S11344600000F1DFF5CFE8DF2FEF87EA91E6215076
S113447080409040E1F700C00000E5DFF5CF609197
S11344808B1470918C1421E030E040E050E083E024
S113449090E00E946B059093C4158093C3156091BE
S11344A08B1470918C1422E030E040E050E083E003
S11344B090E00E94F6019093C8158093C71560910F
S11344C08B1470918C1424E030E040E050E083E0E1
S11344D00E94EE029093C6158093C51508950E941C
S11344E0960385ED94E09F938F930E94A403C7DF06
S11344F04091C5155091C6156091C7157091C815A6
S11345008091C3159091C4150E94D00360918914C1
S113451070918A1484E090E00E94460282E090E068
S11345200E9461070F900F9008950E949607909340
S11345308C1480938B1480E00E94062E91D741E066
S113454060E070E08CE290E00E94A01090938A14E6
S113455080938914BC0181E06BD3C1CF0895E5DF5A
S11345600E94F214FFCF34D008F481E0089504D0FF
S11345706894B11174C0089557D088F09F5790F093
S1134580B92F9927B751A0F0D1F0660F771F881F74
S1134590991F1AF0BA95C9F712C0B13081F05ED0F4
S11345A0B1E008955BC0672F782F8827B85F39F092
S11345B0B93FCCF3869577956795B395D9F73EF4D3
S11345C090958095709561957F4F8F4F9F4F08957B
S11345D0990F0008550FAA0BE0E8FEEF1616170610
S11345E0E807F907C0F012161306E407F50798F078
S11345F0621B730B840B950B39F40A2661F0232B91
S1134600242B252B21F408950A2609F4A140A6950C
S11346108FEF811D811D089557FD9058440F551F3C
S113462059F05F3F71F04795880F97FB991F61F030
S11346309F3F79F087950895121613061406551FA7
S1134640F2CF4695F1DF08C0161617061806991F13
S1134650F1CF86957105610508940895E894BB2708
S113466066277727CB0197F90895FA01DC01AA0F91
S1134670BB1F9B01AC01BF5728F4222733274427D3
S113468050781FC0B75188F4AB2F00244695379556
S11346902795011CA395D2F3002069F0220F331F44
S11346A0441FB395DAF30DD076C061307105A0E8EC
S11346B08A07B94630F49B01AC016627772788271F
S11346C09078309621F02083318342835383089578
S11346D00BD0DDC0CED028F0D3D018F0952309F04C
S11346E0BFC0C4C01124BBCF97DFA0F3959FD1F303
S11346F0950F50E0551F629FF001729FBB27F00D8C
S1134700B11D639FAA27F00DB11DAA1F649F6627E0
S1134710B00DA11D661F829F2227B00DA11D621F2F
S1134720739FB00DA11D621F839FA00D611D221FE9
S1134730749F3327A00D611D231F849F600D211DCD
S1134740822F762F6A2F11249F5750408AF0E1F070
S113475088234AF0EE0FFF1FBB1F661F771F881FB9
S113476091505040A9F79E3F510570F079C077CF22
S11347705F3FECF3983EDCF3869577956795B795A4
S1134780F795E7959F5FC1F7FE2B880F911D9695CE
S1134790879597F908955058BB27AA270ED077C05C
S11347A068D030F06DD020F031F49F3F11F41EF446
S11347B05DC00EF4E095E7FB53C0E92F2DDF80F3D5
S11347C0BA17620773078407950718F071F49EF50A
S11347D045CF0EF4E0950B2EBA2FA02D0B01B90195
S11347E090010C01CA01A0011124FF27591B99F063
S11347F0593F50F4503E68F11A16F040A22F232F6F
S1134800342F4427585FF3CF469537952795A795BE
S1134810F0405395C9F77EF41F16BA0B620B730B65
S1134820840BBAF09150A1F0FF0FBB1F661F771FD6
S1134830881FC2F70EC0BA0F621F731F841F48F48B
S1134840879577956795B795F7959E3F08F0B3CF11
S11348509395880F08F09927EE0F979587950895FB
S113486097F99F6780E870E060E008959FEF80EC1F
S1134870089500240A9416161706180609060895C2
S113488000240A9412161306140605060895092E28
S11348900394000C11F4882352F0BB0F40F4BF2B97
S11348A011F460FF04C06F5F7F4F8F4F9F4F0895D7
S11348B06530F1F4FA0180818F7390E0982F882796
S11348C02181822B90930A02809309028281F0E471
S11348D08F9FC0011124FA01238126952695822BEE
S11348E0909308028093070281E080938D140895C9
S11348F0643051F080E090E49093080280930702C2
S113490090930A028093090208950F931F9308E578
S113491014E220E034E244EF50E060E087E20E94D9
S1134920C02F90938F1480938E1421E0892B09F06B
S113493020E0822F1F910F91089580918E14909101
S11349408F14009759F040E060E070E00E9411304D
S1134950843031F410928D1480E0089582E008953B
S113496083E0089580918E1490918F14009739F00C
S113497064E00E945D30853021F083E0089582E098
S1134980089580E008956091090270910A0280E020
S113499090E00E94633520E030E048EC52E498DE79
S11349A020E038EF4FE756E40C94F2340895EBDF3F
S11349B020E030E040E251E48BDEDEDDCB010895FF
S11349C0609107027091080280E090E00E946335D4
S11349D020E030E045E253E47BDE20E038EF4FE7AF
S11349E056E40E94F23420E030E040E252E4D3CEB8
S11349F008950F931F93CF93DF931F921F92CDB708
S1134A00DEB78C0119822DC0E091C714EC3250F44A
S1134A1081E08E0F8093C714F0E0E750FB4E8A814B
S1134A20808302C01092C7148A818A30D1F44091E5
S1134A30C71450E0FA01E950FB4E1082415051096D
S1134A409E012F5F3F4F69EF74E18091CA149091EA
S1134A50CB140E94C711898181110E94FE0A109211
S1134A60C714BE016E5F7F4FC8013AD6882361F236
S1134A700F900F90DF91CF911F910F9108950F9395
S1134A801F93CF93DF938C01EB018091CA14909113
S1134A90CB140E94D210B80180E994E10E944038FE
S1134AA0209779F0E0E9F4E101900020E9F73197EB
S1134AB080E290E091838083BE0180E994E10E94CA
S1134AC03538E0E9F4E1DF010D900020E9F71197B2
S1134AD08DE09AE011969C938E9312961C9201900D
S1134AE00020E9F73197E059F441AE2F80E994E1D1
S1134AF0AC016A2F8091CC149091CD149CD5811176
S1134B0011C008E215E020E030E04DE250E063E53A
S1134B1075E18091CA149091CB140E940B1283E525
S1134B2095E102C080E090E0DF91CF911F910F9159
S1134B3008952F923F924F925F926F927F928F923D
S1134B409F92AF92BF92CF92DF92EF92FF920F9318
S1134B501F93CF93DF935C01FC0101900020E9F7E0
S1134B6031976F01C81AD90A5C2C0F2EFDE78F2EDE
S1134B70F7E09F2EF02DE12CF12C4C2C3701F401A1
S1134B8001811281E80109900020E9F72197C01BF7
S1134B90D10B3C2EF9E0CF16D10458F0F40120805B
S1134BA0FEE02F1206C0B801C5010E941038892BFF
S1134BB009F5442D351408F44C2F50E0B801C50113
S1134BC00E944738892B49F4F301EE0FFF1FE60DCD
S1134BD0F71DE358F84F20800DC08FEFE81AF80A4C
S1134BE0E3E08E0E911CF1E1EF16F10439F66894BE
S1134BF0222424F8822DDF91CF911F910F91FF90F1
S1134C00EF90DF90CF90BF90AF909F908F907F9068
S1134C106F905F904F903F902F90089530DF89CF31
S1134C2008958091CA149091CB140C94D2100895D5
S1134C308F929F92AF92CF92EF920F931F93CF9345
S1134C40C82F8B0141E060E070E088EC90E00E94A6
S1134C50A0109093CB148093CA141093C91400939A
S1134C60C8140F2EF9EF8F2EF4E29F2EF02D6894C6
S1134C70AA24A6F86894CC24C6F8E12C00E023E02A
S1134C8040E051EE60E070E08C2F06D49093CD1498
S1134C908093CC14E7E0F1E0808180618083CF9140
S1134CA01F910F91EF90CF90AF909F908F900895A8
S1134CB0882331F0E8E0F1E080818F7E80830895DD
S1134CC0E8E0F1E0808180618083089560E070E035
S1134CD083E095E0D4DEE3E5F5E101900020E9F717
S1134CE03197E355F54181E0759708F080E0089528
S1134CF0CF93DF93EC0160E070E084E195E0BFDEE8
S1134D00E3E5F5E101900020E9F7E456F54139F4D3
S1134D1063E575E1CE010E94403880E002C018824C
S1134D2081E0DF91CF910895FC0101900020E9F723
S1134D309F01215131092817390729F4BC0182E464
S1134D4095E06CCF089589E00895FC01019000205E
S1134D50E9F79F01215131092817390729F4BC01CA
S1134D6081E595E05BCF089589E00895FC01019009
S1134D700020E9F79F01215231092817390729F446
S1134D80BC0180E695E04ACF089589E0089560E08B
S1134D9070E08FE995E042CF08950F931F93E82FB9
S1134DA0F0E0EE0FFF1FE758F84F6081718188EA49
S1134DB095E034DF811114C008E215E020E030E012
S1134DC04DE250E063E575E18091CA149091CB14F3
S1134DD00E940B12882321F083E595E1AADE03C02B
S1134DE083E595E1A6DE1F910F9108950F931F931C
S1134DF0CF93DF931F92CDB7DEB7DB0111969C9161
S1134E001197953108F0B4C0992381F160E070E006
S1134E10272F30E0462F50E0FD01E40FF51F92816B
S1134E2092959F709A3010F0995C01C0905DF901E1
S1134E30EC51FB4E90832F5F3F4FFD01E40FF51FB4
S1134E4092819F70492F50E04A30510514F0995CCB
S1134E5001C0905DF901EC51FB4E90837E5F6F5F62
S1134E6011969C911197691798F201C070E0E72F91
S1134E70F0E0EC51FB4E10824C91811103C081EBA8
S1134E8095E002C083EB95E024EE34E13F932F9349
S1134E901F924F939F938F9387EB95E09F938F93EC
S1134EA086E295E19F938F930E94AB3860E070E0B7
S1134EB086E295E1B3DE0FB6F894DEBF0FBECDBF38
S1134EC0811159C008E215E020E030E04DE250E0E5
S1134ED063E575E18091CA149091CB140E940B1282
S1134EE0882309F447C083E595E123DE8E3009F079
S1134EF042C087E089838091C8149091C914892B9A
S1134F00A9F1BE016F5F7F4F83E595E168D180937E
S1134F10CE14E981F0E0ED5AFA4EDF010D90002045
S1134F20E9F71197AE1BBF0BAA2391F0BB27CD0164
S1134F3001979C0112F42F5F3F4F359527952093DD
S1134F40CF14AF014F5F5F4F64E180ED94E173D103
S1134F5001E010E020E030E046E150E06EEC74E166
S1134F608091C8149091C9140E9402118EE003C06C
S1134F7084E101C080E00F90DF91CF911F910F91E8
S1134F800895813019F067EC75E002C060EA76E0BC
S1134F908BEC95E043CE08959F938F938CEF95E02F
S1134FA09F938F9386E295E19F938F930E94AB38F2
S1134FB060E070E086E295E131DE0F900F900F9093
S1134FC00F900F900F9008952F923F924F925F92FF
S1134FD06F927F928F929F92AF92BF92CF92DF9205
S1134FE0EF92FF920F931F93CF93DF93CDB7DEB76A
S1134FF0A0970FB6F894DEBF0FBECDBF69E276E08E
S113500085E396E03CDD95DD8111A3C080E2E2E218
S1135010F2E0DE01119601900D928A95E1F79E016E
S11350202F5F3F4F6901E12CF12C0F2EF1E4AF2EDD
S1135030F6E0BF2EF02D06E215E10F2EFAE54F2E15
S1135040F6E05F2EF02D0F2EF1E78F2EF6E09F2E67
S1135050F02D0F2EFBE86F2EF6E07F2EF02D3E2C68
S11350602F2CFF92EF92BF92AF921F930F930E9447
S1135070AB3860E070E0C80102DD5BDD0F900F909B
S11350800F900F900F900F90811163C032E03E1586
S1135090E8F4F60183818F9382818F9381818F93CA
S11350A080818F93FF92EF925F924F921F930F93A1
S11350B00E94AB3860E070E0C801E1DC3ADD0FB675
S11350C0F894DEBF0FBECDBF811143C02F923F9233
S11350D09F928F921F930F930E94AB3860E070E011
S11350E0C801CDDC26DD0F900F900F900F900F902C
S11350F00F9081112EC02F923F927F926F921F9337
S11351000F930E94AB3860E070E0C801B8DC11DD99
S11351100F900F900F900F900F900F90811119C066
S11351203FEFE31AF30A84E0C80ED11C98E0E916B5
S1135130F10409F094CF60E070E083EA96E09FDC2C
S1135140F8DC811106C060E070E084EB96E097DC47
S1135150F0DCA0960FB6F894DEBF0FBECDBFDF9192
S1135160CF911F910F91FF90EF90DF90CF90BF9060
S1135170AF909F908F907F906F905F904F903F90F3
S11351802F900895EF92FF920F931F93CF93DF9385
S1135190EC018B017A0181E0F4DE81110DC0CE01B6
S11351A0D4DD811109C0C801E1DD811105C0C70149
S11351B0BBDD811101C0EBDDDF91CF911F910F9118
S11351C0FF90EF90089590E0FC01EE0FFF1F8E0F0B
S11351D09F1FFC01E358F84F818192810895DC01FF
S11351E0009729F1FB012081FC0101900020E9F7DF
S11351F03197E81BF90B822F90E0E817F907C8F004
S113520080E008C0880F382F330F330F830F80538B
S1135210890F2F5FFD01E20FF11D908130ED390FF1
S11352203A3010F49111EECFFB012083089580E011
S1135230089580E008950F931F93CF93DF93DC01CB
S1135240EA012097E1F1FA0101900020E9F7319792
S1135250E41BF50B329710F532C08D01040F151FB6
S113526030E0AE01420F531FFA019081913428F0CF
S11352709753592F5295507F03C0592F5295507F01
S11352802C0F3D1FF9019181913410F0975301C007
S11352909053950FF80190838F5F01C080E0282F11
S11352A0220F482F50E0FE0101900020E9F73197CA
S11352B0EC1BFD0B4E175F0710F48613CECFDF9166
S11352C0CF911F910F91089580918315860F80933C
S11352D0831590918615913079F028F09230A9F0D9
S11352E0933019F108956F3F09F048C01092831567
S11352F081E0809386150895663809F03FC01092C6
S1135300821582E0809386150895E091821581E0EC
S11353108E0F80938215F0E0E058FA4E608382305D
S113532069F583E08093861508959091821521E0B4
S1135330290F20938215963009F581110EC0E0E8FB
S1135340F5E1808190E0982F88272181820F911DBB
S1135350909388158093871504C010928815109235
S1135360871510928615E0918415F0918515309774
S113537029F08091871590918815199508958F9239
S11353809F92AF92CF92EF920F930F2EF4E68F2E4F
S1135390F9E29F2EF02D6894AA24A4F86894CC24F2
S11353A0C4F8E12C00E023E040E855E260E070E05E
S11353B073D090938A15809389150F91EF90CF90B5
S11353C0AF909F908F900895909385158093841546
S11353D00895CF93DF93CDB7DEB729970FB6F8942E
S11353E0DEBF0FBECDBF89E0E2E4F2E09E012F5F95
S11353F03F4FD90101900D928A95E1F710928815DB
S1135400109287158091891590918A15009731F033
S1135410422F532F69E00FD180E001C082E029962A
S11354200FB6F894DEBF0FBECDBFDF91CF910895C4
S113543065360CF064E66C390CF46CE996EF69029D
S1135440B00111246854744F811105C0709329016F
S113545060932801089570932B0160932A010895A5
S1135460EAE0F1E08081886180838FE39CE9909396
S113547027018093260160E080E0DADF60E081E0CC
S1135480D7DFE0E2F1E08081826A8083E1E2F1E04B
S113549080818A61808308952F923F924F925F9218
S11354A06F927F928F929F92AF92CF92EF92FF92E0
S11354B00F931F93CF93DF93CDB7DEB7F82E2A0156
S11354C03B0188E090E00E94F8358C018F2D90E03C
S11354D0FC01EE0FFF1FE557FA4E118300830115FF
S11354E0110509F46BC0880F991FFC01E55FFD4F9E
S11354F080819181D8018D939C938C2D90E0880FAD
S1135500991F880F991F0E94F8351C0186E090E0CE
S11355100E94F8357C014C2DB101BFD6F801F5820B
S1135520E4828A2D90E0880F991F880F991F0E94AA
S1135530F8351C0186E090E00E94F8357C014A2D84
S1135540B101ABD6D8011396FC92EE92129717963E
S11355509C928E921697FFB6F894ED91FC91119758
S113556036978081826080838D909C90C301B201C4
S11355700E94633520E030E040E051E4A9D89B016B
S1135580AC0160E074E284E79BE40E94F23420E022
S113559030E040E85FE3FFD80E94BC22F401329778
S11355A06083D801ED91FC911197359788E9808348
S11355B0ED91FC91349786E08083FFBEC801DF91B2
S11355C0CF911F910F91FF90EF90CF90AF909F904C
S11355D08F907F906F905F904F903F902F900895A1
S11355E0CF93DF93DC01892B01F11296ED91FC91AD
S11355F01397938182812581981B92238481981724
S1135600B1F0838126952823C081D181C20FD11D99
S113561068838F5F958189238383ED91FC9135970E
S113562080818062808380E003C081E001C082E0E9
S1135630DF91CF910895EF92FF920F931F93CF9331
S1135640DF937C01009709F441C0DC011296ED91CF
S1135650FC91139793818281981B8581982384817F
S1135660891B8617A8F1662341F1842F952FDC014D
S11356706150462F50E04F5F5F4F480F591FE701BD
S1135680EA81FB81938182812581981B9223848105
S1135690981779F08C9193812695292360817181E3
S11356A08B01020F111DE80188839F5F8581982378
S11356B093831196A417B50711F7D701ED91FC91C7
S11356C0359780818062808380E003C081E001C0DF
S11356D082E0DF91CF911F910F91FF90EF90089599
S11356E00097D1F0DC011496ED91FC91159793810C
S11356F08281981799F09281858186958923A0816A
S1135700B181A80FB11D8C91DB018C939F5F8581C2
S11357109823928380E0089581E0089583E00895BA
S11357201F920F920FB60F9211240BB60F922F9364
S11357303F934F935F936F937F938F939F93AF9315
S1135740BF93CF93DF93EF93FF93A0918B15B09109
S11357508C15109711F16091C6001496ED91FC918F
S11357601597938182812581981B922384819817B0
S113577061F0838126952823C081D181C20FD11D78
S113578068838F5F9581892383831696ED91FC91BD
S11357901797309711F0CD011995FF91EF91DF9193
S11357A0CF91BF91AF919F918F917F916F915F91B5
S11357B04F913F912F910F900BBE0F900FBE0F9002
S11357C01F9018951F920F920FB60F9211240BB6CB
S11357D00F922F938F939F93AF93BF93EF93FF9366
S11357E0E0918B15F0918C153097B9F00280F3811C
S11357F0E02D938182819817B1F092818581282FC1
S113580026952923A081B181A20FB11D2C919F5F00
S1135810892382832093C6000BC0E1ECF0E08081F1
S11358208F7D808305C0E1ECF0E080818F7D8083F3
S1135830FF91EF91BF91AF919F918F912F910F9015
S11358400BBE0F900FBE0F901F9018951F920F92D2
S11358500FB60F9211240BB60F922F933F934F93D1
S11358605F936F937F938F939F93AF93BF93CF93E4
S1135870DF93EF93FF93A0918D15B0918E15109740
S113588011F16091CE001496ED91FC9115979381DE
S113589082812581981B92238481981761F08381EA
S11358A026952823C081D181C20FD11D68838F5FC3
S11358B09581892383831696ED91FC9117973097F0
S11358C011F0CD011995FF91EF91DF91CF91BF9127
S11358D0AF919F918F917F916F915F914F913F9184
S11358E02F910F900BBE0F900FBE0F901F90189525
S11358F01F920F920FB60F9211240BB60F922F9393
S11359008F939F93AF93BF93EF93FF93E0918D1584
S1135910F0918E153097B9F00280F381E02D9381D8
S113592082819817B1F092818581282F26952923A9
S1135930A081B181A20FB11D2C919F5F8923828325
S11359402093CE000BC0E9ECF0E080818F7D808352
S113595005C0E9ECF0E080818F7D8083FF91EF91B9
S1135960BF91AF919F918F912F910F900BBE0F908C
S11359700FBE0F901F9018951F920F920FB60F92A3
S113598011240BB60F922F933F934F935F936F9312
S11359907F938F939F93AF93BF93CF93DF93EF93B3
S11359A0FF93A0918F15B0919015109711F160910C
S11359B0D6001496ED91FC911597938182812581EF
S11359C0981B92238481981761F08381269528235C
S11359D0C081D181C20FD11D68838F5F95818923D6
S11359E083831696ED91FC911797309711F0CD01B2
S11359F01995FF91EF91DF91CF91BF91AF919F9155
S1135A008F917F916F915F914F913F912F910F9063
S1135A100BBE0F900FBE0F901F9018951F920F9200
S1135A200FB60F9211240BB60F922F938F939F935F
S1135A30AF93BF93EF93FF93E0918F15F09190157F
S1135A403097B9F00280F381E02D93818281981719
S1135A50B1F092818581282F26952923A081B181D7
S1135A60A20FB11D2C919F5F892382832093D600BE
S1135A700BC0E1EDF0E080818F7D808305C0E1ED16
S1135A80F0E080818F7D8083FF91EF91BF91AF9192
S1135A909F918F912F910F900BBE0F900FBE0F907F
S1135AA01F9018951F920F920FB60F9211240BB6E8
S1135AB00F922F933F934F935F936F937F938F93A3
S1135AC09F93AF93BF93CF93DF93EF93FF93A091F3
S1135AD09115B0919215109711F1609136011496B9
S1135AE0ED91FC911597938182812581981B9223D6
S1135AF08481981761F0838126952823C081D18100
S1135B00C20FD11D68838F5F958189238383169685
S1135B10ED91FC911797309711F0CD011995FF91F4
S1135B20EF91DF91CF91BF91AF919F918F917F9131
S1135B306F915F914F913F912F910F900BBE0F90FA
S1135B400FBE0F901F9018951F920F920FB60F92D1
S1135B5011240BB60F922F938F939F93AF93BF9300
S1135B60EF93FF93E0919115F09192153097B9F06E
S1135B700280F381E02D938182819817B1F09281A4
S1135B808581282F26952923A081B181A20FB11DDB
S1135B902C919F5F89238283209336010BC0E1E31C
S1135BA0F1E080818F7D808305C0E1E3F1E08081B5
S1135BB08F7D8083FF91EF91BF91AF919F918F91E2
S1135BC02F910F900BBE0F900FBE0F901F90189542
S1135BD0CF93DF931F92CDB7DEB7BE016F5F7F4FC8
S1135BE080919315909194157BDD8111F6CF898175
S1135BF090E00F90DF91CF910895682F80919315D5
S1135C0090919415EDDC80E090E008958F929F923E
S1135C10AF92CF92EF920F93812C912C6894AA2487
S1135C20A7F86894CC24C7F8E12C00E023E040E016
S1135C3051EE60E070E030DC9093941580939315FE
S1135C40EDECF5E183E192E0918380839383828399
S1135C500F91EF90CF90AF909F908F900895E09127
S1135C609D15F0919E15309709F01995089564508B
S1135C70623008F03BC020919C15223079F018F472
S1135C80213031F030C0233081F02430A1F02BC01A
S1135C9022E020939C1561E010C20895FA018081EE
S1135CA08093991582E0DBCF089524E020939C151E
S1135CB064E003C20895FA01818190E0982F882757
S1135CC02081822B9093981580939715838190E07F
S1135CD0982F88272281822B90939615809395156F
S1135CE081E0BDCF089580E0BACF089510929C154D
