S00B0000496F542E737265630D
S113000067C1000086C1000084C1000082C10000F5
S113001080C100007EC100007CC100007AC10000E4
S113002078C1000076C1000074C1000072C10000F4
S11300300C94110C6EC100006CC100006AC1000078
S113004068C1000066C1000064C1000062C1000014
S113005060C100005EC100005CC100005AC1000024
S113006058C100000C94B02B0C94022C52C1000017
S113007050C100004EC100004CC100004AC1000044
S113008048C1000046C1000044C1000042C1000054
S11300900C94462C0C94982C3CC100000C94B03069
S11300A038C1000036C1000034C1000032C1000074
S11300B030C100002EC100002CC100002AC1000084
S11300C028C1000026C1000024C100000C94DC2CCF
S11300D00C942E2D1EC100000C94722D0C94C42D72
S11300E018C10000EB21EB21EB2122222A223F221E
S11300F0EB21EB2122222A22D230423142314231F9
S11301004231423142314231D230423142314231C4
S11301104231423142314231D430423142314231B2
S11301204231423142314231423142314231423133
S11301304231423142314231D43042314231423192
S11301404231423142314231423142314231423113
S113015042314231423142313E3142314231423107
S1130160423142314231423109314231423142312C
S113017042314231423142314231423142314231E3
S11301804231423142314231FD3042314231423119
S1130190423142314231423121316E616E00696E29
S11301A0660000407A10F35A00A0724E180900103D
S11301B0A5D4E80000E87648170000E40B540200D8
S11301C000CA9A3B000000E1F50500008096980003
S11301D0000040420F000000A0860100000010272C
S11301E000000000E80300000000640000000000BC
S11301F00A00000000000100000000002C76D888EE
S1130200DC674F0823DFC1DFAE59E1B1B796E5E300
S1130210E453C63AE651997696E8E6C28426EB8919
S11302208C9B62ED407C6FFCEFBC9C9F40F2BAA5B6
S11302306FA5F490055A2AF75C936B6CF9676DC14E
S11302401BFCE0E40D47FEF520E6B500D0ED902E52
S11302500300943577050080841E080000204E0AB0
S1130260000000C80C333333330F986E12831141EE
S1130270EF8D2114893BE65516CFFEE6DB18D184B9
S11302804B381BF77C1D901DA4BBE42420328472E0
S11302905E228100C9F124ECA1E53D270E942C14C3
S11302A080914114823010F00E944B0B0E9468220E
S11302B0F5CFCF93DF931F92CDB7DEB7CE01019672
S11302C00E94681F49810E945D210E94B421F6CFDB
S11302D011241FBECFEFD1E2DEBFCDBF00E00CBFC3
S11302E017E0A0E0B2E0E2E8F3E700E00BBF02C0F1
S11302F007900D92AA3FB107D9F726E1AAEFB7E01C
S113030001C01D92A332B207E1F70E94F8220C94B7
S1130310BF3976CE9093FC158093FB150895CF9347
S1130320DF9300D01F92CDB7DEB70E947D1569839D
S11303307A838B839C8340EE53E060E070E0CE01CF
S113034001960E9493174091FD155091FE156091FE
S1130350FF1570910016CC24CA94DC2C760101E0C0
S113036020E0809101169091021640D60091FD156F
S11303701091FE152091FF1530910016DC01CB0180
S113038080239123A223B323081719072A073B07C5
S113039091F60E940A2A8093FA158111CCCFC3D218
S11303A0CACFEF92FF920F93CF93DF93082FEB0105
S11303B04091FD155091FE156091FF157091001646
S11303C08091011690910216B1D6E12CF12C9E0178
S11303D044E251E06FE672E08FE891E00E94F3148A
S11303E0DF91CF910F91FF90EF900895AF92BF925C
S11303F0CF92DF92EF92FF920F931F93CF93DF93ED
S11304008C015B0169017A0182E090E00E943B3635
S1130410EC01892BD9F019821882B0920216A092AD
S11304200116C092FD15D092FE15E092FF15F092D0
S1130430001683E00E94E0298AE891E00E94052AE0
S1130440BE01C801AEDF8C2F9D2F02C080E090E07A
S1130450DF91CF911F910F91FF90EF90DF90CF909C
S1130460BF90AF900895FC018081918108952091FF
S1130470FB153091FC15FC01318320830895EF9224
S1130480FF920F93CF93DF93082FEB0187E792E05E
S11304909F938F930E94E938E12CF12C9E0148E848
S11304A051E062E872E08FE892E00E94F3140F904A
S11304B00F90DF91CF910F91FF90EF9008950F93DC
S11304C01F93CF93DF93EC018CE992E09F938F937A
S11304D00E94E9380FEF1FEF980146E150E06AEF00
S11304E077E0CE010E945812EAEFF7E09181808113
S11304F01F929F931F928F9387EA92E09F938F930B
S11305000E94E9388DB79EB708960FB6F8949EBF3F
S11305100FBE8DBFDF91CF911F910F910895EC0114
S1130520CE01CDDFFDCFCF93DF9300D01F92CDB7A7
S1130530DEB7813071F5CE0101960E94F02E811153
S11305401FC069817A818B819C810E9401237093F1
S113055011086093100841D28C818F938B818F9303
S11305608A818F9389818F9388ED92E09F938F93F3
S1130570EFD00F900F900F900F900F900F9009C035
S1130580833039F484EE92E09F938F93E1D00F90FF
S11305900F900F900F900F900F90DF91CF910895CF
S11305A0EF92FF920F93CF93DF93082FEB014091CB
S11305B0FD155091FE156091FF1570910016809104
S11305C0011690910216B2D5E12CF12C9E0148E857
S11305D051E065E173E086E793E00E94F314DF9154
S11305E0CF910F91FF90EF9008958F929F92AF92C9
S11305F0BF92EF92FF921F93CF93DF93182F7B014B
S113060049015A0162E070E081E090E00E942136E5
S1130610EC01892B01F1198218828092FD159092C8
S1130620FE15A092FF15B0920016F0920216E09209
S1130630011683E992E00E94AE2E811104C080E28B
S113064093E00E94FC380E94C92EBE01812FA8DFCE
S11306508C2F9D2F02C080E090E0DF91CF911F91FD
S1130660FF90EF90BF90AF909F908F900895CF929E
S1130670DF92EF92FF920F931F93CF93DF93EC01DE
S11306804091FD155091FE156091FF157091001673
S1130690CC24CA94DC2C760101E020E08091011680
S11306A090910216A3D40091FD151091FE1520918E
S11306B0FF1530910016DC01CB0180239123A22386
S11306C0B323081719072A073B0739F40E94DE2EC3
S11306D0811103C0BE0181E026DFDF91CF911F911C
S11306E00F91FF90EF90DF90CF900895CF93DF9319
S11306F000D01F92CDB7DEB78C010E947D156983AF
S11307007A838B839C8342EA53E060E070E0CE01FD
S113071001960E949317C801AADFF5CFFC018081DE
S1130720918108952091100830911108FC013183C2
S1130730208308958091031690910416892B39F42F
S113074081E00E94070E9093041680930316089587
S11307500F93CF93DF93CDB7DEB74CE251E060E067
S113076070E080910316909104160E94DD0E813092
S113077099F4BE01675F7F4F8F8198850E945A3933
S113078000E020E030E0A90160E070E08091031611
S1130790909104160E94630DDF91CF910F910895FB
S11307A0EF92FF920F931F93CF93DF937C018B0102
S11307B0EA0180910B1690910C16892B39F481E093
S11307C00E94070E90930C1680930B16F092061657
S11307D0E09205161093081600930716D0930A1694
S11307E0C0930916DF91CF911F910F91FF90EF9065
S11307F008950F934CE251E060E070E080910B1695
S113080090910C160E94DD0E813091F480910516B2
S11308109091061602D200E020E030E0A90160E0E9
S113082070E080910B1690910C160E94630D07C026
S113083089E393E09F938F938BDF0F900F900F9139
S113084008950F93CF93DF934CE251E060E070E0A2
S113085080910B1690910C160E94DD0E8130B1F43C
S11308608091051690910616D4D1D82FC92F00E097
S113087020E030E0A90160E070E080910B169091D7
S11308800C160E94630D8D2F9C2F09C089E393E001
S11308909F938F935DDF0F900F9080E090E0DF9146
S11308A0CF910F910895FF920F931F93CF93DF93EE
S11308B04CE251E060E070E080910B1690910C16D0
S11308C00E94DD0E8130D1F48091051690910616B8
S11308D09AD1F62E172FD82FC92F00E020E030E050
S11308E0A90160E070E080910B1690910C160E94B3
S11308F0630D5F2D412F3D2F2C2F0BC089E393E017
S11309009F938F9325DF0F900F9050E040E030E0ED
S113091020E0652F742F832F922FDF91CF911F91A9
S11309200F91FF9008950F934CE251E060E070E066
S113093080910B1690910C160E94DD0E813091F47B
S1130940809107169091081692DD00E020E030E0D7
S1130950A90160E070E080910B1690910C160E9442
S1130960630D07C089E393E09F938F93F1DE0F90AB
S11309700F900F9108950F93CF93DF934CE251E0C2
S113098060E070E080910B1690910C160E94DD0ED1
S11309908130B1F4809107169091081664DDD82F48
S11309A0C92F00E020E030E0A90160E070E0809110
S11309B00B1690910C160E94630D8D2F9C2F09C06D
S11309C089E393E09F938F93C3DE0F900F9080E0B1
S11309D090E0DF91CF910F9108950F934CE251E095
S11309E060E070E080910B1690910C160E94DD0E71
S11309F0813091F48091091690910A1693DE00E0FB
S1130A0020E030E0A90160E070E080910B16909145
S1130A100C160E94630D07C089E393E09F938F93A4
S1130A2097DE0F900F900F9108950F93CF93DF935C
S1130A304CE251E060E070E080910B1690910C164E
S1130A400E94DD0E8130B1F48091091690910A164E
S1130A5065DED82FC92F00E020E030E0A90160E076
S1130A6070E080910B1690910C160E94630D8D2FEF
S1130A709C2F09C089E393E09F938F9369DE0F90C5
S1130A800F9080E090E0DF91CF910F910895EF9265
S1130A90FF920F93CF93DF93EC01062F4091FD1546
S1130AA05091FE156091FF1570910016809101160A
S1130AB0909102163BD3E12CF12C9E0140EC50E0C6
S1130AC06AE573E080EB95E00E94F314DF91CF9127
S1130AD00F91FF90EF900895AF92BF92CF92DF9263
S1130AE0EF92FF920F931F93CF93DF938C015B01DF
S1130AF069017A0186E090E00E943B36EC01892B83
S1130B0001F1188219821A821B821D821C82B09202
S1130B100216A0920116C092FD15D092FE15E09225
S1130B20FF15F09200160E94A624811104C08BE6E2
S1130B3093E00E94FC38B801CE01A9DF8C2F9D2FD1
S1130B4002C080E090E0DF91CF911F910F91FF9060
S1130B50EF90DF90CF90BF90AF9008954ACE089564
S1130B60CF93DF9300D01F92CDB7DEB75C010E9414
S1130B707D1569837A838B839C8342EA53E060E02A
S1130B8070E0CE0101960E9493170E94BE24882330
S1130B9021F084E893E00E94FC384091FD155091C7
S1130BA0FE156091FF1570910016CC24CA94DC2CBC
S1130BB0760101E020E0809101169091021616D290
S1130BC06B017C0164E070E080E090E00E94F81723
S1130BD08091FD159091FE15A091FF15B09100161E
S1130BE0C822D922EA22FB228C159D05AE05BF0539
S1130BF021F60E94D32460E070E0CB010E94F81734
S1130C00C501ACDFBACFFC0160817181828193811F
S1130C100895FC01848195810895CF93DF93EC01BD
S1130C200E940125688379838A839B830E94F82428
S1130C309C01ADECBCEC0E94123696958795969576
S1130C408795969587959D838C83DF91CF910895A1
S1130C500F931F93CF93DF93CDB7DEB764970FB68F
S1130C60F894DEBF0FBECDBF0E9487260E940429E0
S1130C709F938F938EE993E09F938F930E94E9381B
S1130C800E9405280E9404299F938F9381EB93E08F
S1130C909F938F930E94E9388E010F5F1F4FC80105
S1130CA00E9499260E9404291F930F939F938F9368
S1130CB08AEC93E09F938F930E94E938C8010E94C5
S1130CC0B5260E9404299F938F931F930F938EED53
S1130CD093E09F938F930E94E938A80163EF73E038
S1130CE084E194E00E94E3280E9404299F938F9357
S1130CF01F930F9383EF93E09F938F9384E194E08A
S1130D009F938F9385E294E09F938F930E94E93899
S1130D100E94E8260E9404299F938F938BE594E018
S1130D209F938F930E94E9380FB6F894DEBF0FBEED
S1130D30CDBF81E00E94E2270E9404299F938F93F4
S1130D408AE694E09F938F930E94E93884EF91E0C0
S1130D500E94ED270E9404299F938F9381E08F9333
S1130D6084EF8F938BE894E09F938F930E94E938EC
S1130D700FB6F894DEBF0FBECDBF1AE080E00E942C
S1130D80EE26082F0E9404299F938F931F921F938E
S1130D908BEA94E09F938F930E94E9380F900F9011
S1130DA00F900F900F900F90083041F066E371E0C0
S1130DB080E090E00E94F817115001F7083011F01C
S1130DC06AD4FECF64960FB6F894DEBF0FBECDBFD3
S1130DD0DF91CF911F910F910895CF93DF93CDB7FA
S1130DE0DEB76E970FB6F894DEBF0FBECDBF81E0BD
S1130DF00E94792662E070E080E090E00E94F8179B
S1130E0080E00E94792666E970E080E090E00E942C
S1130E10F8170E9432261CDF0E947D1569837A83AD
S1130E208B839C8344E457E060E070E0CE0101963C
S1130E300E94931702E118E087E0F801818381E0C2
S1130E40808331DD362E872EA82E992EFADCB82E1B
S1130E50292E91DDD82EC92EE8DDF82EE92E1B8E21
S1130E601C8E1D8E1E8EAE01455E5F4F632D782D48
S1130E708A2D992D0E94562320E030E048EC52E45C
S1130E800E9489232B013C019F92AF928F923F9243
S1130E908BEC94E09F938F930E94E9386B8D7C8D4B
S1130EA08D8D9E8D0E94FC22F8016283C301B201E4
S1130EB00E94FC22F80163832F92BF9285ED94E097
S1130EC09F938F930E94E938F801B482CF92DF9206
S1130ED083EE94E09F938F930E94E938F801C582D2
S1130EE0D682EF92FF928CEE94E09F938F930E94B0
S1130EF0E938F801E782F086B80180E00E941727FC
S1130F000E9404299F938F938EEF94E09F938F9375
S1130F100E94E9380FEF1FEF980146E150E0BE014F
S1130F206B5F7F4F80910D1690910E160E945812A0
S1130F309E818D811F929F931F928F9387EA92E0E7
S1130F409F938F930E94E9380FB6F894DEBF0FBECB
S1130F50CDBF68CFEF92FF920F9370930E166093FC
S1130F600D16E12CF12C082F20E030E048E851E088
S1130F7063E175E08DEE96E00E94F3140F91FF900B
S1130F80EF9008950F9301110CC0DC01CB01822373
S1130F909323A423B523892B8A2B8B2B79F480E00C
S1130FA010C0DC01CB0182239323A423B52328178B
S1130FB039074A075B0721F080E003C081E001C0E4
S1130FC081E00F910895CF93DF938FE090E0AFD14C
S1130FD0EC01009739F0FC011192119211921192D7
S1130FE0CF018BD2CE01DF91CF9108952F923F9202
S1130FF04F925F926F927F928F929F92AF92BF9225
S1131000CF92DF92EF92FF920F931F93CF93DF93D0
S1131010EC014A015B01622E702E0E947715288034
S113102039804A805B80A5019401C201B101AADF25
S11310308823A1F0662089F1D501C401809590959B
S1131040A095B09582219321A421B5218883998309
S1131050AA83BB83C12CD12C760122C0C114D10434
S1131060E104F104E9F0611004C040E050E0BA0189
S113107004C040E050E060E071E071107460482901
S113108059296A297B2997018601CE0104960E9479
S11310908F18212C312C210103C0C12CD12C7601B5
S11310A00E94B716CD28CE28CF2859F1811101C04E
S11310B0F2D20E94511C6B017C0191FD1FC00FB63E
S11310C0F8940F92C880D980EA80FB80072DA5018F
S11310D09401C701B60156DF882371F0662061F0E0
S11310E080949094A094B0948C209D20AE20BF2036
S11310F088829982AA82BB820F900FBE16012701B3
S11311005524C201B101DF91CF911F910F91FF903E
S1131110EF90DF90CF90BF90AF909F908F907F9093
S11311206F905F904F903F902F9008954F925F92F1
S11311306F927F92AF92BF92CF92DF92EF92FF9223
S11311400F931F93CF93DF93EC016A017B018C0112
S1131150095F1F4F0E947715EB85FC858881998173
S1131160AA81BB81C82AD92AEA2AFB2AC882D98241
S1131170EA82FB82C12CD12C76013DC0A480B580CB
S113118080819181A281B381AC01BD017727B2FD39
S11311900EC0488059806A807B8044225522662292
S11311A0772245284628472889F420E012C0488041
S11311B059806A807B804422552266227722441516
S11311C055056605770521F020E003C021E001C044
S11311D021E0222371F0B0FF04C0C42AD52AE62AF4
S11311E0F72A488159816A817B817260CF010E940C
S11311F0CA19EA2DFB2DE017F10709F0BFCFC094FF
S1131200D094E094F09488819981AA81BB81C8220A
S1131210D922EA22FB22C882D982EA82FB820E9476
S1131220B716688179818A819B81DF91CF911F9163
S11312300F91FF90EF90DF90CF90BF90AF907F9091
S11312406F905F904F900895E4E3F8E0A8E3B8E06E
S1131250B183A08313821282ECEEF3E1F09333089E
S1131260E0933208138212821182108284EB9BE095
S113127013969C938E931297ED93FC9390932F085F
S113128080932E08909331088093300880E090E892
S113129090932908809328080895CF93DF93EC0155
S11312A0A4E3B8E001C0DF01ED91FC911197EC17C4
S11312B0FD07C8F312968D919C9113979D01280FF9
S11312C0391FC217D30749F42A813B81820F931F28
S11312D013969C938E931297ED018A819B819E01B4
S11312E0280F391FE217F307C1F420913208309117
S11312F03308E217F30771F022813381820F931FC1
S11313009B838A83ED91FC911197808191819983CC
S1131310888305C03983288302C0F983E883CA1708
S1131320DB0711F0CD93DC93DF91CF910895EF9219
S1131330FF920F931F93CF93DF938C010E94771535
S11313408091320890913308892B09F47DDF8091D4
S113135028089091290880239123892B09F076C0CD
S11313600115110549F0C80104960817190718F06A
S113137000E010E001C08C010115110509F469C0F9
S113138080913008909131088017910708F464C067
S1131390C0913408D0913508E4E3F8E002C0FE01BE
S11313A0EC018A819B818017910720F488819981BF
S11313B00097A9F78091320890913308C817D9078C
S11313C009F44DC0E080F18084E0E80EF11C8881CE
S11313D09981918380832A813B81201B310B2930A1
S11313E0310548F0CE01800F911FFC013383228325
S11313F01B830A8352DF2A813B81809130089091BC
S11314003108821B930B90933108809330084091EC
S11314102E0850912F088417950720F490932F08D5
S113142080932E088091280890912908282B392B25
S11314303B832A831982188280912C0890912D086D
S1131440019690932D0880932C080BC0E12CF12C6D
S113145008C0E12CF12C05C0E12CF12C02C0E12CD8
S1131460F12C0E94B716E114F10411F40E947422C5
S1131470C701DF91CF911F910F91FF90EF900895D5
S11314800F931F93CF93DF93009791F1EC0124976F
S11314904A815B812091280830912908BA0162238E
S11314A07323672B29F168817981672B09F52095CE
S11314B03095242335233B832A830E9477158A8120
S11314C09B812091300830913108820F931F9093B3
S11314D0310880933008CE01E0DE80912A08909193
S11314E02B08019690932B0880932A080E94B71624
S11314F0DF91CF911F910F910895FC010396928380
S113150081834FEF5FEFBA0143835483658376830E
S1131510908787839287818710820895FC011386C0
S1131520128608950F931F93CF93DF93EB010881E5
S113153019812A813B810F3F4FEF14072407340799
S113154021F4FC01A185B28511C0DC01139601C010
S1131550DF011496ED91FC911597408151816281D0
S11315607381041715072607370790F71496ED9132
S1131570FC911597FD83EC83D783C683BF83AE8329
S11315801596DC93CE9314979B878A87FC01208160
S11315902F5F2083DF91CF911F910F910895CF93F7
S11315A0DF93FC01A285B385C481D58186819781AF
S11315B09F838E83C681D781848195819D838C830B
S11315C011968D919C911297E817F90731F4868151
S11315D0978112969C938E931197138612868C9101
S11315E081508C938C91DF91CF910895A89590ECC4
S11315F088E10FB6F894A895809360000FBE90938D
S113160060000895FC0160833197708331971082E4
S113161031971082319720E82083319710823197D7
S11316201082319710827797408331975083869741
S11316300895DCDFA091AF14B091B014CD91CDBF6B
S1131640DD91DEBFFF91EF91DF91CF91BF91AF911B
S11316509F918F917F916F915F914F913F912F91C6
S11316601F910F91FF90EF90DF90CF90BF90AF90BC
S11316709F908F907F906F905F904F903F902F90AE
S11316801F900F900CBE0F900BBE0F900FBE0F90CB
S1131690089581E008950F920FB6F8940F920BB657
S11316A00F920CB60F921F9211242F923F924F92D9
S11316B05F926F927F928F929F92AF92BF92CF92DE
S11316C0DF92EF92FF920F931F932F933F934F93C9
S11316D05F936F937F938F939F93AF93BF93CF93B6
S11316E0DF93EF93FF93A091AF14B091B0140DB6B4
S11316F00D920EB60D920E941318A091AF14B091E2
S1131700B014CD91CDBFDD91DEBFFF91EF91DF919C
S1131710CF91BF91AF919F918F917F916F915F9185
S11317204F913F912F911F910F91FF90EF90DF9078
S1131730CF90BF90AF909F908F907F906F905F906D
S11317404F903F902F901F900F900CBE0F900BBEA8
S11317500F900FBE0F9008950F920FB6F8940F924A
S11317600BB60F920CB60F921F9211242F923F9238
S11317704F925F926F927F928F929F92AF92BF929D
S1131780CF92DF92EF92FF920F931F932F933F9389
S11317904F935F936F937F938F939F93AF93BF9375
S11317A0CF93DF93EF93FF93A091AF14B091B01454
S11317B00DB60D920EB60D9213BE0E948B158111BB
S11317C00E941318A091AF14B091B014CD91CDBF65
S11317D0DD91DEBFFF91EF91DF91CF91BF91AF918A
S11317E09F918F917F916F915F914F913F912F9135
S11317F01F910F91FF90EF90DF90CF90BF90AF902B
S11318009F908F907F906F905F904F903F902F901C
S11318101F900F900CBE0F900BBE0F900FBE0F9039
S113182008959ADF1895DC0153962C91539722233F
S113183041F05A96ED91FC915B9790818AE0891B67
S1131840089580E008950FB6F8940F92FC01868DF8
S1131850811102C081E001C080E00F900FBE0895A5
S11318600FB6F8940F92FC01268D878D281302C0C1
S113187081E001C080E00F900FBE08950F931F9385
S1131880CF93DF93EC01042F1E8D48A141110CC0AE
S113189088819981892B09F042C08C819D810E94A5
S11318A08F1B1D821C8242C0011117C050E08A8127
S11318B09B810E94433828A18A819B81820F911DBC
S11318C09B838A832C813D818217930750F1888101
S11318D099819B838A8380E029C050E08E819F8117
S11318E00E94433888A190E09195819591092E81B9
S11318F03F81280F391F3F832E8348815981241744
S1131900350730F42C813D81820F931F9F838E8392
S1131910023049F4112349F0115080E007C080E0FF
S113192005C080E003C080E001C080E01F5F1E8F1F
S1131930DF91CF911F910F910895FC0140A14423A1
S1131940A9F050E026813781240F351F3783268381
S1131950848195812817390720F0808191819783AC
S11319608683CB01668177810C94433808951F9355
S1131970CF93DF93EC010FB6F8940F921AA10BC02A
S11319808B89882351F0CE0143960E941B19811143
S11319900E94F11A115011169CF38FEF8AA30F9035
S11319A00FBE0FB6F8940F9219A10BC08885882337
S11319B051F0CE0108960E941B1981110E94F11A60
S11319C0115011169CF38FEF89A30F900FBEDF9176
S11319D0CF911F910895CF93DF93EC010FB6F89444
S11319E00F92E881F9818F8D28A190E030E0829FE9
S11319F0A001839F500D929F500D11244E0F5F1F25
S1131A005D834C831E8EFB83EA830197289FA0018C
S1131A10299F500D389F500D1124CF01840F951F1D
S1131A209F838E838FEF89A38AA361110BC088855E
S1131A30882371F0CE0108960E941B19882341F077
S1131A402ADE06C0CE01089658DDCE01439655DD48
S1131A500F900FBE81E0DF91CF9108950F931F93F4
S1131A60F801611103C01183008302C051834083D4
S1131A70878F60A361E0CF01AEDF1F910F910895BE
S1131A80DF92EF92FF920F931F93CF93DF93F82E81
S1131A90E62ED42E869FC0011124839648DCEC01E7
S1131AA0009741F08C012D2DAC014D5D5F4F6E2DE3
S1131AB08F2DD4DFCE01DF91CF911F910F91FF9035
S1131AC0EF90DF900895CF92DF92EF92FF920F9301
S1131AD01F93CF93DF93CDB7DEB729970FB6F89452
S1131AE0DEBF0FBECDBF7C016B012E833F834887D1
S1131AF0598710E00FB6F8940F92F701968D878DF1
S1131B00981710F00230B1F4402FB601C701B6DEC9
S1131B10F7019389992341F0C70143960E941B1949
S1131B20882321F0B8DD02C08111B5DD0F900FBE0E
S1131B3081E04CC08E819F81A885B985892B8A2B31
S1131B408B2B21F40F900FBE80E040C0111105C013
S1131B50CE0101960E947A1A11E00F900FBEC7D7EA
S1131B600FB6F8940F92F70181A18F3F09F411A2E7
S1131B70F70182A18F3F09F412A20F900FBEBE019C
S1131B806A5F7F4FCE0101960E948B1A811119C0A2
S1131B90C70166DE882381F04E815F81688579857F
S1131BA0C70108960E947818C701E1DE0E94B716A3
S1131BB08111A0CF70DD9ECFC701D9DE0E94B71678
S1131BC099CFC701D4DE0E94B71680E029960FB6DC
S1131BD0F894DEBF0FBECDBFDF91CF911F910F915F
S1131BE0FF90EF90DF90CF9008950F93009769F0E6
S1131BF0FC011582148211821082168200E020E01A
S1131C0030E0A90160E070E05EDF0F910895CF93AA
S1131C10DF93482F60E081E033DFEC01E6DFCE01A3
S1131C20DF91CF910895EF92FF920F931F93CF937B
S1131C30DF938A01FC01568D378D531710F0223043
S1131C40F9F4422F7801EC011AA18E8DCE0116DE33
S1131C501F3F81F48B898823A9F0CE0143960E940B
S1131C601B19882389F0E114F10481F081E0F70164
S1131C7080830DC0FF24F394F10EFAA281E007C023
S1131C8080E005C081E003C081E001C081E0DF9114
S1131C90CF911F910F91FF90EF900895CF92DF9213
S1131CA0EF92FF920F931F93CF93DF93CDB7DEB7DD
S1131CB029970FB6F894DEBF0FBECDBF8C016B0120
S1131CC02E833F8348875987E12C0FB6F8940F92EF
S1131CD0F801F68CFF2099F0B601C8012EDEFA94C3
S1131CE0F801F68E8085882331F0C80108960E9499
S1131CF01B198111D0DC0F900FBE81E04FC08E8183
S1131D009F81A885B985892B8A2B8B2B21F40F9071
S1131D100FBE80E043C0E11006C0CE0101960E94D0
S1131D207A1AEE24E3940F900FBEE1D60FB6F8941E
S1131D300F92F80181A18F3F09F411A2F80182A149
S1131D408F3F09F412A20F900FBEBE016A5F7F4F4E
S1131D50CE0101960E948B1A811117C0C80173DD50
S1131D60882379F04E815F8168857985C80143961F
S1131D700E947818C801FBDDFAD78111A6CF8BDC4D
S1131D80A4CFC801F4DDF3D7A0CFC801F0DDEFD7AD
S1131D90C80159DD882309F498CF80E029960FB64D
S1131DA0F894DEBF0FBECDBFDF91CF911F910F918D
S1131DB0FF90EF90DF90CF900895EF92FF920F93F2
S1131DC01F93CF93DF93CDB7DEB729970FB6F8945F
S1131DD0DEBF0FBECDBF8C014E835F8368877987DA
S1131DE0E12CF12C0FB6F8940F92F801868D88231C
S1131DF0C9F08150868F80819181892B29F40E94BA
S1131E007B1CF80195838483F8018085882331F055
S1131E10C80108960E941B1981113DDC0F900FBE6A
S1131E2081E06FC08E819F81A885B985892B8A2B1B
S1131E308B2B21F40F900FBE80E063C0F11006C01D
S1131E40CE0101960E947A1AFF24F3940F900FBEDC
S1131E504ED60FB6F8940F92F80181A18F3F09F482
S1131E6011A2F80182A18F3F09F412A20F900FBEB4
S1131E70BE016A5F7F4FCE0101960E948B1A8111C9
S1131E8026C0C801E0DC8823F1F0F801808191814B
S1131E90892B51F40FB6F8940F92848195810E9496
S1131EA0081BE82E0F900FBE4E815F8168857985EF
S1131EB0C80143960E947818C80159DD58D781118A
S1131EC091CFE9DB8FCFC80152DD51D78BCFC80149
S1131ED04EDD4DD7C801B7DC882309F483CFEE204B
S1131EE079F00FB6F8940F92C8019DDC682FF801C1
S1131EF0848195810E94EA1B0F900FBE80E001C08F
S1131F0080E029960FB6F894DEBF0FBECDBFDF91F7
S1131F10CF911F910F91FF90EF900895CF93DF938E
S1131F20EC010FB6F8940F9289A18F3F09F419A21E
S1131F308AA18F3F09F41AA20F900FBE8E8D8111D2
S1131F4004C0CE0143960E94D918CE0110DDDF9162
S1131F50CF910895FC014481558122813381240F5E
S1131F60351F80819181B901681B790BCB016417FE
S1131F70750710F0841B950B08950F93FC018FE0F7
S1131F80DF011D928A95E9F7758764875583448339
S1131F903783268306870F910895AF92BF92CF921D
S1131FA0DF92EF92FF920F931F93CF93DF936C0115
S1131FB05B017A01FC01C281D381048115810C1B70
S1131FC01D0B4017510708F48A01F6018485958595
S1131FD0A801B5018C0F9D1F0E9443380E151F05E3
S1131FE058F4A701401B510BB501600F711FF60196
S1131FF0848595850E944338CE018E0D9F1DF60180
S1132000248135818217930710F0821B930BF6010C
S113201093838283C701DF91CF911F910F91FF902A
S1132020EF90DF90CF90BF90AF900895CF92DF9262
S1132030EF92FF920F931F93CF93DF931F921F9200
S1132040CDB7DEB77C016B015A8349832115310575
S1132050C1F0FC01868580FD08C04217530708F4CF
S11320609A013A83298381E00FC02017310758F081
S113207042E050E0BE016F5F7F4FC7018EDF81E019
S113208003C080E001C080E0882331F049815A8197
S1132090B601C70182DF02C080E090E00F900F908C
S11320A0DF91CF911F910F91FF90EF90DF90CF9030
S11320B00895AF92BF92CF92DF92EF92FF920F9367
S11320C01F93CF93DF937C015B01E9014217530710
S11320D008F4EA01209781F1F701008111818481DC
S11320E09581801B910B6E018C179D0708F46C0180
S11320F0F70164857585600F711FA601C5010E94F3
S11321004338CC16DD0658F4AE014C195D09F701CD
S113211064857585C5018C0D9D1D0E9443380C0F87
S11321201D1FF701848195810817190710F0081BFA
S1132130190BF70111830083CE01DF91CF911F9119
S11321400F91FF90EF90DF90CF90BF90AF900895E4
S11321506F927F928F929F92AF92BF92CF92DF92B3
S1132160EF92FF920F931F93CF93DF931F921F92CF
S1132170CDB7DEB76C014B015A0179010115110588
S1132180B1F0FC0160807180A801BE016F5F7F4FD8
S113219090DF89819A81E01AF10AA816B90630F411
S11321A0F60171826082A12CB12C01C05C019701FF
S11321B0A501B401C6017DDF0F900F90DF91CF918F
S11321C01F910F91FF90EF90DF90CF90BF90AF9051
S11321D09F908F907F906F900895CF92DF92EF92AF
S11321E0FF920F93CF93DF93EC016B01413011F415
S11321F001E001C000E0C114D10419F4CC24C3945B
S1132200D12CCE014096C817D90720F421968FD837
S11322107C0102C0E12CF12CE114F10439F09601A7
S1132220AE01B701615F7F4FC701A7DEC701DF9130
S1132230CF910F91FF90EF90DF90CF9008950F937F
S11322400FB6F8940F92FC0120853185232B71F48D
S113225022853385232B61F426813781448155817E
S113226064857585068589DE81E003C080E001C050
S113227080E00F900FBE0F910895FC0124813581F9
S113228080819181820F931F42815381841B950B1E
S113229001978217930710F0821B930B08952F92D6
S11322A03F924F925F926F927F928F929F92AF92E2
S11322B0BF92CF92DF92EF92FF920F931F93CF932F
S11322C0DF93CDB7DEB72B970FB6F894DEBF0FBE02
S11322D0CDBF4C017B876A871A010E831F83288731
S11322E03987FC01848195810197268520FF0CC0E4
S11322F02A01F2E04F0E511C8415950558F41E82F4
S11323001F821886198606C08417950710F02A01C3
S113231001C02C018E819F81A885B985892B8A2BC8
S11323208B2B09F438C0CE0101960E94641A0FB6B3
S1132330F8940F92C401A1DF3C018415950540F582
S113234060E080E090E00E944E1F0E94F51AF401C4
S1132350938782870F900FBEAE80BF80C884D984D4
S1132360E12CF12C00E010E0980140E050E0BA01CB
S113237080E00E948D1CF40113861286BE016A5F00
S11323807F4FCE0101960E948B1A882381F205C0EB
S11323900F900FBE02C0612C712C6114710419F4EA
S11323A0C4016BDF3C0182019301A1016A857B8535
S11323B0C4013CDE6C01892BE9F0C401CBDDF401DE
S11323C02681378182179307A8F091D3F401808581
S11323D09185892B71F080859185E12CF12C00E0A9
S11323E020E030E0A90160E00E94351DF40111866F
S11323F01086BDD4C6012B960FB6F894DEBF0FBE6F
S1132400CDBFDF91CF911F910F91FF90EF90DF909F
S1132410CF90BF90AF909F908F907F906F905F9080
S11324204F903F902F900895AF92BF92CF92DF923A
S1132430EF92FF920F931F93CF93DF93EC017B01F5
S11324405A0169018E8580FF04C08A010E5F1F4F07
S113245001C08A01CE0111DF9C01A501B701CE01A3
S1132460E5DD5C01892BC1F0CE0174DD2E813F8155
S11324708217930788F088859985892B69F0888568
S11324809985E12CF12C00E020E030E0A90160E026
S11324900E942C1E19861886C501DF91CF911F91C9
S11324A00F91FF90EF90DF90CF90BF90AF90089581
S11324B04F925F926F927F928F929F92AF92BF9250
S11324C0CF92DF92EF92FF920F931F93CF93DF93FC
S11324D0EC012B013A01580169018E8580FF05C08A
S11324E06894882481F8912C02C0812C912CA11429
S11324F0B104C104D10441F10FB6F8940F92CE0196
S113250029DD7C018816990648F060E080E090E0BF
S11325100E944E1F0E94F51A998788870F900FBE5C
S11325208E149F04A0F0E12CF12C00E010E098013F
S113253040E050E0BA0180E00E948D1C19861886A4
S1132540CE0108DD7C0103C0CE0104DD7C018E14C4
S11325509F04E8F484019701A301B201CE01F8DDE0
S11325606C01892BB1F0C3D28A859B85892B69F0D4
S11325708A859B85E12CF12C00E020E030E0A90164
S113258060E00E94351D1B861A86F1D302C0C12C5F
S1132590D12CC601DF91CF911F910F91FF90EF9045
S11325A0DF90CF90BF90AF909F908F907F906F906F
S11325B05F904F900895E0912914F0912A1480813E
S11325C081110CC08FEF9FEFDC018093F313909384
S11325D0F413A093F513B093F6130895E09129141E
S11325E0F0912A140780F085E02D80819181A281E9
S11325F0B3818093F3139093F413A093F513B093E2
S1132600F6130895CF93DF93EC018B8D9C8D0E947C
S1132610400ACE010E94400ADF91CF9108954F9263
S11326205F926F927F928F929F92AF92BF92CF925E
S1132630DF92EF92FF920F93CF93DF932C015B0114
S11326404A013901E60165EA70E08B8D9C8D0E9498
S11326504C388B8D9C8D21E0821A9108880E991E2E
S1132660A114B10489F415C0822F90E0F501E80F9C
S1132670F91F3081DE01A80FB91F5D963C9380815C
S1132680882329F02F5F01C020E0203168F31CA6C5
S113269001C01D8E0A3008F009E00A8F0DA71EA69E
S11326A0CE0102960E948E0ACE010E960E948E0AD8
S11326B0DB87CA878AE090E0A0E0B0E0801B910944
S11326C0A109B1098E879F87A88BB98BDF8BCE8B2D
S11326D084E0FE01BF96DF011D928A95E9F71BAAEB
S11326E0A301B201C4010E94020B99838883E114FF
S11326F0F10419F0F701D183C083DF91CF910F91D9
S1132700FF90EF90DF90CF90BF90AF909F908F900D
S11327107F906F905F904F900895CF93C0E009C071
S11327202BE0C29FC00111248F5B9B4E0E947D0A47
S1132730CF5FCA30A8F386E394E10E947D0A8BE25E
S113274094E10E947D0A8CE194E10E947D0A81E17A
S113275094E10E947D0A85E094E10E947D0A86E36B
S113276094E190932A14809329148BE294E190933A
S1132770281480932714CF910895CF93DF93EC010D
S11327800FB6F8940F92809104148F5F8093041411
S11327908091AF149091B014892B51F4D093B0145C
S11327A0C093AF1480910414813091F4B6DF10C04B
S11327B08091FE1381110CC0E091AF14F091B0141C
S11327C0928D8A8D891720F0D093B014C093AF14E2
S11327D08091F7138F5F8093F713EA8D8091FF1335
S11327E08E1710F4E093FF138BE08E9FF0011124F9
S11327F0EF5BFB4E0180F281E02DFF83EE832681A7
S1132800378139872887A681B7819E012E5F3F4F84
S113281015963C932E93149737832683EA8D8E9FC7
S1132820F0011124EF5BFB4EFD87EC8780818F5F05
S113283080830F900FBE8091FE13882351F0E091A6
S1132840AF14F091B014928D8A8D981710F40E94F1
S11328504B0BDF91CF910895CF93DF931BC00FB63D
S1132860F8940F92E0911814F0911914C085D18551
S1132870CE0102960E94CF0A809104148150809365
S11328800414809110148150809310140F900FBE83
S1132890CE01B8DE809110148111E1CFDF91CF9188
S11328A008958F929F92AF92BF92CF92DF92EF9250
S11328B0FF92CF93DF936B017C01C42F80900014AF
S11328C090900114A0900214B09003148091AF145E
S11328D09091B01402960E94CF0A8FEFC816D806C2
S11328E0E806F806B1F5CC23A1F1E5E0F4E1A18115
S11328F0B281C091AF14D091B014BF83AE83C091A4
S1132900AF14D091B01416968D919C911797998716
S113291088871696CD91DC9117978091AF1490918A
S1132920B01402969D838C838091AF149091B0145F
S1132930029617969C938E931697A091AF14B0911C
S1132940B0141D96FC93EE931C9780818F5F808357
S11329503FC0C80CD91CEA1CFB1CE091AF14F091D9
S1132960B014C282D382E482F582C814D904EA0482
S1132970FB0468F46091AF147091B0148091271433
S1132980909128146E5F7F4F0E94920A21C060913B
S1132990AF147091B0148091291490912A146E5F31
S11329A07F4F0E94920A8091F3139091F413A091A7
S11329B0F513B091F613C816D906EA06FB0640F4DF
S11329C0C092F313D092F413E092F513F092F6133D
S11329D0DF91CF91FF90EF90DF90CF90BF90AF90B9
S11329E09F908F9008952F923F924F925F926F9293
S11329F07F928F929F92AF92BF92CF92DF92EF928B
S1132A00FF920F93CF93DF933C011B014A012901ED
S1132A10CA010E9497096C01892B71F084E390E04C
S1132A200E949709EC01892B19F0DC8ECB8E06C02D
S1132A30C6010E94400A02C0C0E0D0E0209761F0C5
S1132A40A12CB12C6E019201A401B101C301E7DDF7
S1132A50CE0193DE81E001C08FEFDF91CF910F9122
S1132A60FF90EF90DF90CF90BF90AF909F908F90AA
S1132A707F906F905F904F903F902F900895EF92CA
S1132A80FF920F930F2EF1EFEF2EF3E1FF2EF02DB7
S1132A9000E020E030E040EC50E060E275E08EE4DD
S1132AA091E0A1DF813011F40E94F21F8130C9F45A
S1132AB0F8948FEF9FEFDC018093F3139093F4135A
S1132AC0A093F513B093F61381E08093FE13109254
S1132AD000141092011410920214109203140E9414
S1132AE0190B809106020F91FF90EF900895809149
S1132AF0F0138F5F8093F01308950FB6F8940F923C
S1132B006091001470910114809102149091031447
S1132B100F900FBE0895CF92DF92EF92FF92CF9362
S1132B20DF938091F013811105C1C0900014D090FF
S1132B300114E0900214F09003148FEFC81AD80A1D
S1132B40E80AF80AC0920014D0920114E092021428
S1132B50F0920314C114D104E104F104B1F480919E
S1132B60291490912A142091271430912814309319
S1132B702A14209329149093281480932714809165
S1132B80F8138F5F8093F81316DD8091F3139091FF
S1132B90F413A091F513B091F613C816D906EA06FA
S1132BA0FB0620F480E0B2C081E001C080E0E09147
S1132BB02914F0912A14908191110CC04FEF5FEF0A
S1132BC0BA014093F3135093F4136093F513709385
S1132BD0F6139CC0E0912914F0912A140780F08523
S1132BE0E02D0084F185E02D42815381648175815B
S1132BF0C416D506E606F70648F44093F31350933B
S1132C00F4136093F5137093F61380C0A485B5850F
S1132C10C681D781208531853F832E83C085D185A8
S1132C20268137813D832C8311964D915C911297B7
S1132C309F012E5F3F4F4217530731F44085518562
S1132C4012965C934E931197158614869C9191501D
S1132C509C93A08DB18D109709F1C289D3894489C1
S1132C6055895F834E83C489D589428953895D839D
S1132C704C8311966D917C911297AF01425F5F4F27
S1132C806417750731F44489558912965C934E9301
S1132C901197118E108E9C9191509C93A28D9091BE
S1132CA0FF139A1710F4A093FF139BE09A9FD0018F
S1132CB01124AF5BBB4E11960D90BC91A02DB78330
S1132CC0A68316964D915C91179751874087169667
S1132CD0CD91DC9117973D832C8317963C932E93CB
S1132CE01697A28D9A9FD0011124AF5BBB4EB58776
S1132CF0A4879C919F5F9C93228DE091AF14F091E7
S1132D00B014928D291708F04FCF51CFE091AF1432
S1132D10F091B014E28D9BE0E99FF0011124EF5B88
S1132D20FB4E9081923008F081E09091F91391115B
S1132D3016C016C08091FA139091FB13A091FC1356
S1132D40B091FD130196A11DB11D8093FA139093C8
S1132D50FB13A093FC13B093FD1380E001C081E04A
S1132D60DF91CF91FF90EF90DF90CF900895CF92B5
S1132D70DF92EF92FF92CF93DF930FB6F8940F9206
S1132D808091F01381508093F0138091F01381119E
S1132D90BEC080910414811188C0BCC0E09123148A
S1132DA0F09124140084F185E02DA08DB18DC289A9
S1132DB0D389848995899F838E83C489D58982899F
S1132DC093899D838C8311962D913C911297CF0109
S1132DD00E962817390731F48489958912969C93A5
S1132DE08E931197118E108E8C9181508C93A485A3
S1132DF0B585C681D781808591859F838E83C08563
S1132E00D185868197819D838C8311968D919C9128
S1132E1012979F012E5F3F4F8217930731F48085ED
S1132E20918512969C938E931197158614868C9196
S1132E3081508C93A28D8091FF138A1710F4A09374
S1132E40FF138BE08A9FD0011124AF5BBB4E119618
S1132E500D90BC91A02DB783A68316964D915C91DD
S1132E601797518740871696CD91DC9117973D832C
S1132E702C8317963C932E931697A28D8A9FD0018C
S1132E801124AF5BBB4EB587A4878C918F5F8C9365
S1132E90928DA091AF14B091B0145A968C9198175A
S1132EA030F081E08093F91302C0E0E0F0E080911B
S1132EB01C14811173CFEF2B09F07DDBC090FA1342
S1132EC0D090FB13E090FC13F090FD13C114D104D7
S1132ED0E104F104A1F01FDE882319F081E080935E
S1132EE0F91381E0C81AD108E108F108A1F710929A
S1132EF0FA131092FB131092FC131092FD1380919D
S1132F00F913882331F00E944B0B81E003C080E069
S1132F1001C080E00F900FBEDF91CF91FF90EF9042
S1132F20DF90CF9008958F929F92AF92BF92CF92ED
S1132F30DF92EF92FF921F93CF93DF93EC016A012C
S1132F407B01D5DD8090001490900114A0900214B0
S1132F50B090031488819981AA81BB81AC01BD0121
S1132F604C0D5D1D6E1D7F1D88169906AA06BB06B5
S1132F7060F4481759076A077B0798F48416950686
S1132F80A606B70680F010E013C0481759076A0771
S1132F907B0758F084169506A606B70640F010E0A5
S1132FA007C010E005C011E003C011E001C011E04A
S1132FB0488359836A837B83112341F0CB01BA018F
S1132FC0681979098A099B0940E06BDCD0DE81111C
S1132FD002C00E944B0B812FDF91CF911F91FF9074
S1132FE0EF90DF90CF90BF90AF909F908F90089517
S1132FF0CF92DF92EF92FF926B017C01672B682BDB
S1133000692B39F074DD40E0C701B6014ADCAFDE5C
S113301001C080E0811102C00E944B0BFF90EF9031
S1133020DF90CF9008958091F013882321F081E000
S11330308093F91308951092F913E091AF14F0916D
S1133040B01420813181E091AF14F091B014838DDC
S1133050948D8217930760F06091AF147091B0144F
S1133060635E7F4F8091AF149091B0140E948022D0
S11330708091FF1301C08150282F30E09BE0929F84
S1133080F001939FF00D1124EF5BFB4E9081992387
S113309091F39BE0929FA001939F500D1124DF01B7
S11330A00180F281E02D0480F581E02D1296FC93DD
S11330B0EE9311974C5B5B4EE417F50729F44481BA
S11330C05581FD01528341839BE0929FF001939FC0
S11330D0F00D1124EF5BFB4E0180F281E02D208581
S11330E031853093B0142093AF148093FF13089567
S11330F0CF92DF92EF92FF926A017B016091AF144D
S11331007091B014625F7F4F0E94920A41E0C70140
S1133110B601C7DBFF90EF90DF90CF9008950F9337
S11331201F93CF93DF93FC01A091AF14B091B0141F
S113313070681E964D935D936D937C935197A18116
S1133140B281C091AF14D091B014BB8BAA8BC09143
S1133150AF14D091B01416968D919C9117979D8BB6
S11331608C8B1696CD91DC9117978091AF1490912A
S1133170B0140E969D838C838091AF149091B014FB
S11331800E9617969C938E931697A091AF14B091B8
S1133190B0145996FC93EE93589780818F5F808387
S11331A041E0C901B8017DDBDF91CF911F910F91FF
S11331B00895CF93DF93FC01CB01BA01A181B281C1
S11331C0C091AF14D091B014BB8BAA8BC091AF1433
S11331D0D091B01416964D915C9117975D8B4C8BE2
S11331E01696CD91DC9117974091AF145091B0147D
S11331F0425F5F4F5D834C834091AF145091B01494
S1133200425F5F4F17965C934E931697A091AF144D
S1133210B091B0145996FC93EE93589730813F5F68
S11332203083222319F06FEF7FEFCB01422F39DB7C
S1133230DF91CF910895CF93DF93DC011796ED9141
S1133240FC9118970084F185E02DA08DB18DC28981
S1133250D389848995899F838E83C489D5898289FA
S113326093899D838C8311968D919C9112979F01D4
S1133270225F3F4F8217930731F484899589129610
S11332809C938E931197118E108E8C9181508C93F8
S11332908091F013811152C0A485B585C681D78170
S11332A0808591859F838E83C085D1858681978112
S11332B09D838C8311968D919C9112979F012E5F13
S11332C03F4F8217930731F48085918512969C9322
S11332D08E931197158614868C9181508C93A28DB0
S11332E08091FF138A1710F4A093FF138BE08A9F39
S11332F0D0011124AF5BBB4E11960D90BC91A02D53
S1133300B783A68316964D915C9117975187408792
S11333101696CD91DC9117973D832C8317963C9399
S11333202E931697A28D8A9FD0011124AF5BBB4EBA
S1133330B587A4878C918F5F8C931CC04CE154E1BA
S1133340DA011196CD91DC911297D38BC28B8E81C9
S11333509F81958B848B8E819F81DC0115963C9394
S11333602E9314973F832E83518F408FDA018C91D3
S11333708F5F8C93928DE091AF14F091B014828D95
S1133380891720F481E08093F91301C080E0DF9174
S1133390CF910895CF93DF93DC0170684D935D93D3
S11333A06D937C9313971896ED91FC9119971A9647
S11333B04D915C911B9714968D919C91159716963F
S11333C02D913C911797EC013F832E8316968D9196
S11333D09C91179714962D913C911597EC013D8380
S11333E02C83EA0189819A81A817B90731F41696CA
S11333F08D919C9117979A8389831B961C921E9298
S11334001A97DA018C9181508C93A485B585C68175
S1133410D781808591859F838E83C085D185868160
S113342097819D838C8311968D919C9112979F0116
S11334302E5F3F4F8217930731F480859185129652
S11334409C938E931197158614868C9181508C933E
S1133450A28D8091FF138A1710F4A093FF138BE0C1
S11334608A9FD0011124AF5BBB4E11960D90BC9185
S1133470A02DB783A68316964D915C91179751871B
S113348040871696CD91DC9117973D832C83179630
S11334903C932E931697A28D8A9FD0011124AF5B83
S11334A0BB4EB587A4878C918F5F8C93928DE091EE
S11334B0AF14F091B014828D891718F481E08093D1
S11334C0F913DF91CF9108950FB6F8940F922091DC
S11334D0F813FC0120834091001450910114609171
S11334E002147091031441835283638374830F9095
S11334F00FBE08952091F813FC012083409100141D
S11335005091011460910214709103144183528309
S11335106383748308958F929F92AF92BF92CF92E8
S1133520DF92EF92FF920F931F93CF93DF93FB01F0
S11335300FB6F8940F92C0900014D0900114E0904C
S11335400214F0900314DC0111960D911D912D913C
S11335503C91149746015701801A910AA20AB30AB2
S113356040815181628173814F3FBFEF5B076B07DD
S11335707B0739F1EC01B881A091F813BA1759F01F
S1133580C016D106E206F30630F0108211821282D0
S1133590138281E017C084169506A606B70658F470
S11335A0481959096A097B094083518362837383EB
S11335B0A1DF80E007C0108211821282138281E0B1
S11335C001C080E00F900FBEDF91CF911F910F914A
S11335D0FF90EF90DF90CF90BF90AF909F908F902F
S11335E0089581E08093F91308958091AF14909128
S11335F0B01408958091FE13882331F08091F01364
S1133600811104C082E0089581E0089580E0089566
S11336100F931F93CF93DF93FC01892B09F477C099
S1133620828DA091AF14B091B0145A969C918917D1
S113363008F063C04685578560897189772394F0C3
S1133640A091AF14B091B0145A969C914AE050E006
S113365060E070E0491B5109610971094687578789
S1133660608B718B248535854BE0849FC0011124C8
S11336708F5B9B4E28173907B9F5EF018F010E5F59
S11336801F4FC8010E94CF0AE091AF14F091B0140B
S1133690E28DEA8F8091FF138E1710F4E093FF13ED
S11336A08BE08E9FF0011124EF5BFB4E0180F281D1
S11336B0E02DFF83EE832681378139872887A68111
S11336C0B78115961C930E93149717830683EA8D7E
S11336D08E9FF0011124EF5BFB4EFD87EC87808108
S11336E08F5F808381E016C0A091AF14B091B014B5
S11336F05A968C91828F81E00DC095A5E091AF140C
S1133700F091B014828D981720F080E003C080E01F
S113371001C081E0DF91CF911F910F9108950F9324
S11337201F93CF93DF93FC01892B09F449C086A52D
S1133730815086A7228D95A5291709F443C08111CC
S113374043C0EF018F010E5F1F4FC8010E94CF0AD3
S1133750EDA5EA8F8AE090E0A0E0B0E08E1B91092D
S1133760A109B1098E879F87A88BB98B8091FF131C
S11337708E1710F4E093FF138BE08E9FF001112459
S1133780EF5BFB4E0180F281E02DFF83EE83268107
S1133790378139872887A681B78115961C930E93A4
S11337A0149717830683EA8D8E9FF0011124EF5B33
S11337B0FB4EFD87EC8780818F5F808381E005C0AD
S11337C080E003C080E001C080E0DF91CF911F91D1
S11337D00F9108950F931F93CF93DF93FC01892BCF
S11337E009F45AC085A5861708F4862F928D891787
S11337F009F452C026A5213009F04EC0828F4685B7
S1133800578560897189772364F04AE050E060E06D
S113381070E0481B51096109710946875787608B1D
S1133820718B248535854BE0949FC00111248F5BF7
S11338309B4E2817390781F5EF018F010E5F1F4F4B
S1133840C8010E94CF0AEA8D8091FF138E1710F4ED
S1133850E093FF138BE08E9FF0011124EF5BFB4E8E
S11338600180F281E02DFF83EE8326813781398741
S11338702887A681B78115961C930E9314971783F6
S11338800683EA8D8E9FF0011124EF5BFB4EFD87CA
S1133890EC8780818F5F8083DF91CF911F910F919F
S11338A00895CF92DF92EF92FF92E091AF14F091DE
S11338B0B0146685778580899189E091AF14F09181
S11338C0B014A091AF14B091B0145A962C910F2E4D
S11338D0FAE0CF2ED12CE12CF12CF02DC21AD10814
S11338E0E108F108C686D786E08AF18AFF90EF9056
S11338F0DF90CF9008958091AF149091B014892BEC
S113390039F0E091AF14F091B01486A58F5F86A7CB
S11339108091AF149091B01408954F925F926F927A
S11339207F92AF92BF92CF92DF92EF92FF920F936A
S11339301F93CF93DF93280139010FB6F8940F92A8
S1133940E091AF14F091B014C82FD0E0EC0FFD1F3C
S113395083A9823079F1E091AF14F091B014CE01D3
S1133960880F991F880F991FE80FF91F87A590A941
S1133970A1A9B2A940955095609570954823592303
S11339806A237B2347A750AB61AB72ABE091AF14C2
S1133990F091B014EC0FFD1F81E083ABA114B104CE
S11339A0C104D10439F041E0C601B5010E945114AB
S11339B00E944B0B0F900FBE0FB6F8940F92E114B8
S11339C0F104A1F0E091AF14F091B014CE01880F8E
S11339D0991F880F991FE80FF91F87A590A9A1A91E
S11339E0B2A9F70180839183A283B383E091AF14DA
S11339F0F091B014EC0FFD1F83A98230E9F4E0913B
S1133A00AF14F091B014CE01880F991F880F991F3D
S1133A10E80FF91F87A590A9A1A9B2A940945094D1
S1133A2060947094482259226A227B2247A650AAA5
S1133A3061AA72AA81E001C080E02091AF143091A4
S1133A40B014C20FD31F1BAA0F900FBEDF91CF91EA
S1133A501F910F91FF90EF90DF90CF90BF90AF90A8
S1133A607F906F905F904F9008958F929F92AF9246
S1133A70BF92EF92FF920F93CF93DF93DC010FB6C7
S1133A80F8940F92E114F10489F0E62FF0E0EE0FC0
S1133A90FF1FEE0FFF1FE80FF91F87A490A8A1A82E
S1133AA0B2A8F70180829182A282B38270E0FD0104
S1133AB0E60FF71F83A992E093AB023001F118F4EB
S1133AC0013031F04DC0033079F10430D1F148C0F8
S1133AD0660F771F660F771FFD01E60FF71F87A498
S1133AE090A8A1A8B2A8BA01A901482959296A290C
S1133AF07B2947A750AB61AB72AB01E034C0660FC2
S1133B00771F660F771FFD01E60FF71F47A550A922
S1133B1061A972A94F5F5F4F6F4F7F4F47A750ABAB
S1133B2061AB72AB01E01FC0660F771F660F771F92
S1133B30FD01E60FF71F27A730AB41AB52AB01E005
S1133B4012C0823079F0660F771F660F771FFD0170
S1133B50E60FF71F27A730AB41AB52AB01E003C020
S1133B6001E001C000E0813009F069C01C96ED91CC
S1133B70FC911D971696CD91DC91179718968D910F
S1133B809C9119979F838E831896CD91DC911997F8
S1133B9016968D919C9117979D838C838181928138
S1133BA09D012E5F3F4F8217930731F418968D9134
S1133BB09C911997928381831D961C921E921C9747
S1133BC08081815080835A96EC915A978091FF139B
S1133BD08E1710F4E093FF138BE08E9FF0011124F5
S1133BE0EF5BFB4E0180F281E02D1796FC93EE9380
S1133BF016974681578119965C934E931897C68100
S1133C00D7813D832C83378326835A96EC915A9728
S1133C108E9FF0011124EF5BFB4E1D96FC93EE93F7
S1133C201C9780818F5F80835A969C91E091AF149A
S1133C30F091B014828D891710F40E944B0B0F90F1
S1133C400FBE802FDF91CF910F91FF90EF90BF9027
S1133C50AF909F908F9008958F929F92AF92BF9252
S1133C60CF92DF92EF92FF920F93CF93DF93DC0119
S1133C70E114F10489F0E62FF0E0EE0FFF1FEE0FE0
S1133C80FF1FE80FF91F87A490A8A1A8B2A8F70105
S1133C9080829182A282B38270E0FD01E60FF71F59
S1133CA093A982E083AB023001F118F4013031F0C2
S1133CB04DC0033079F10430D1F148C0660F771F4D
S1133CC0660F771FFD01E60FF71F87A490A8A1A830
S1133CD0B2A8BA01A901482959296A297B2947A709
S1133CE050AB61AB72AB81E034C0660F771F660FD7
S1133CF0771FFD01E60FF71F47A550A961A972A917
S1133D004F5F5F4F6F4F7F4F47A750AB61AB72ABB5
S1133D1081E01FC0660F771F660F771FFD01E60F56
S1133D20F71F27A730AB41AB52AB81E012C09230F2
S1133D3079F0660F771F660F771FFD01E60FF71FF7
S1133D4027A730AB41AB52AB81E003C081E001C097
S1133D5080E0913009F096C09091F01391115FC00A
S1133D601C96ED91FC911D971696CD91DC911797B9
S1133D7018962D913C9119973F832E831896CD91D7
S1133D80DC91199716962D913C9117973D832C83BE
S1133D90418152819D012E5F3F4F4217530731F4F9
S1133DA018964D915C911997528341831D961C92EC
S1133DB01E921C979081915090835A96EC915A9739
S1133DC09091FF139E1710F4E093FF139BE09E9FC6
S1133DD0F0011124EF5BFB4E0180F281E02D179678
S1133DE0FC93EE9316974681578119965C934E93F4
S1133DF01897C681D7813D832C83378326835A96AF
S1133E00EC915A979E9FF0011124EF5BFB4E1D9697
S1133E10FC93EE931C9790819F5F908321C06CE18B
S1133E2074E1FB01C181D2815396DC93CE93529706
S1133E302E813F8155963C932E9354974E815F81FA
S1133E409D01225F3F4FFA01358324833F832E83F4
S1133E5059967C936E935897FB0190819F5F908352
S1133E605A962C91E091AF14F091B014928D921760
S1133E7048F4C114D10419F091E0F601908391E063
S1133E809093F913DF91CF910F91FF90EF90DF9012
S1133E90CF90BF90AF909F908F900895009721F49A
S1133EA08091AF149091B0140FB6F8940F9270E013
S1133EB0FC01E60FF71F23A9223031F4FC01E60FC1
S1133EC0F71F13AA81E001C080E00F900FBE089590
S1133ED0DC01E091BB14F091BC14808191E081116C
S1133EE090E09C93911108C00780F085E02D6081DB
S1133EF0718182819381089560E070E0CB0108951F
S1133F00CF92DF92EF92FF920F931F93FC014283B3
S1133F105383648375839387828704171507260761
S1133F203707C0F00C191D092E093F0986859785AE
S1133F30A089B189081719072A073B0700F5BF01B3
S1133F406E5F7F4F8091B9149091BA140E94920AC7
S1133F5080E018C00C151D052E053F0528F44C15EE
S1133F605D056E057F0568F4BF016E5F7F4F80912C
S1133F70BB149091BC140E94920A80E003C081E0BB
S1133F8001C081E01F910F91FF90EF90DF90CF90DF
S1133F9008950FB6F8940F928091B7149091B814C5
S1133FA0892BE9F488EC94E10E947D0A8DEB94E17D
S1133FB00E947D0A88EC94E19093BC148093BB1416
S1133FC08DEB94E19093BA148093B91440E067E0C8
S1133FD08AE00E94400D9093B8148093B7140F9018
S1133FE00FBE0895EF92FF920F93D3DF8091B71421
S1133FF09091B814892B91F00F2EF5EBEF2EF4E18C
S1134000FF2EF02D03E020E030E040EC50E065E2CC
S113401075E089E591E00E94F31401C080E00F91FE
S1134020FF90EF9008958F929F92AF92BF92CF929C
S1134030DF92EF92FF920F931F93CF93DF93CDB74D
S1134040DEB727970FB6F894DEBF0FBECDBFE09161
S1134050B714F091B814309781F169832A833B83B4
S11340604C835D839F838E836630F4F4C3DA82309D
S113407069F400E0A7019601BE016F5F7F4F809154
S1134080B7149091B8140E94630D18C000E020E0AA
S113409030E0A901BE016F5F7F4F8091B71490910A
S11340A0B8140E94630D0AC020E0A801BE016F5F2E
S11340B07F4FCF010E94130E01C080E027960FB6F8
S11340C0F894DEBF0FBECDBFDF91CF911F910F914A
S11340D0FF90EF90DF90CF90BF90AF909F908F9024
S11340E008958F929F92AF92BF92CF92DF92EF92F8
S11340F0FF920F931F93CF93DF933BC00780F0850C
S1134100E02D80809180A280B380C085D1858E010E
S11341100E5F1F4FC8010E94CF0AEC89FD89CE01B2
S113412019958E8982FF25C08E859F85A889B989B6
S1134130880D991DAA1DBB1D88169906AA06BB06E3
S113414070F48A839B83AC83BD83DB87CA87B80101
S11341508091BB149091BC140E94920A0AC0C12C95
S1134160D12C760100E010E0A501940160E0CE01BD
S11341705ADFE091BB14F091BC1480818111BECF51
S11341808091B9149091BA149093BC148093BB1489
S1134190F093BA14E093B914DF91CF911F910F916A
S11341A0FF90EF90DF90CF90BF90AF909F908F9053
S11341B00895CF92DF92EF92FF92CF93DF93EC01B9
S11341C00E947D156B017C018091B1149091B21411
S11341D0A091B314B091B414C816D906EA06FB062C
S11341E020F47FDF81E0888301C01882C092B1147B
S11341F0D092B214E092B314F092B414C701B60191
S1134200DF91CF91FF90EF90DF90CF9008954F9280
S11342105F926F927F928F929F92AF92BF92CF9252
S1134220DF92EF92FF920F931F93CF93DF934B0193
S11342305C0129013A01E091BB14F091BC140780A0
S1134240F085E02DC085D185CE0102960E94CF0A6B
S11342508E8982FF1BC04E855F8568897989480DE8
S1134260591D6A1D7B1D7501640193018201CE01F4
S113427047DE882369F0C12CD12C760100E010E0E0
S1134280A501940160E0CE01CEDE02C08E7F8E8B4C
S1134290EC89FD89CE011995DF91CF911F910F9182
S11342A0FF90EF90DF90CF90BF90AF909F908F9052
S11342B07F906F905F904F9008958F929F92AF92EE
S11342C0BF92CF92DF92EF92FF921F93CF93DF932F
S11342D01F92CDB7DEB76B017C01142F0E947715B6
S11342E0CE01019666DF4B015C01898181112DC0ED
S11342F011110DC08C149D04AE04BF0440F00E9443
S1134300B716A5019401C701B60181DF20C01123AE
S113431041F0E091B914F091BA14808111E0811157
S113432010E0B701A601481959096A097B09212F30
S11343308091B7149091B8140E948E0F0E94B71602
S1134340811105C00E944B0B02C00E94B7160F904A
S1134350DF91CF911F91FF90EF90DF90CF90BF90AE
S1134360AF909F908F900895AF92BF92CF92DF92BB
S1134370EF92FF920F931F93CF93DF93CDB7DEB7E6
S113438028970FB6F894DEBF0FBECDBF82C08981D7
S113439088230CF47EC0AE80BF80D5011C968D911D
S11343A09C911D97892B21F0C50102960E94CF0A8A
S11343B0CE010896FEDE8B019C01E9810E2E000CD5
S11343C0FF0BEA30F10508F064C08827EE58FF4F70
S11343D08F4F0C940A36F50186898160868BCA80DA
S11343E0DB80EC80FD8046855785608971894C0DA2
S11343F05D1D6E1D7F1DC50183DD882309F449C041
S1134400D5015496ED91FC915597C5011995F50187
S1134410868982FF3EC04A815B816C817D8186856D
S11344209785A089B1899A01AB01280F391F4A1FCA
S11344305B1FC12CD12C760100E010E060E0C501C7
S1134440F2DD27C0D50156968C9156978E7F5696ED
S11344508C931FC0F50186898160868B4A815B81BC
S11344606C817D8146875787608B718B400F511F0C
S1134470621F731F68017901C50142DD0AC0F5019D
S1134480868981FD04C0C5010E94400A02C08E7F56
S1134490868B20E030E0A901BE016F5F7F4F8091E1
S11344A0B7149091B8140E944E0E811170CF2896C3
S11344B00FB6F894DEBF0FBECDBFDF91CF911F9131
S11344C00F91FF90EF90DF90CF90BF90AF90089541
S11344D0089584B1806884B985B1806885B90895E8
S11344E083B1806883B90895F4DF2FEF80E792E009
S11344F0215080409040E1F700C00000F1DFF5CF8B
S1134500E8DF2FEF87EA91E6215080409040E1F701
S113451000C00000E5DFF5CF6091D5147091D6148A
S113452021E030E040E050E083E090E00E946C0540
S113453090931416809313166091D5147091D61429
S113454022E030E040E050E083E090E00E94F60199
S113455090931816809317166091D5147091D61401
S113456024E030E040E050E083E00E94F5029093C4
S113457016168093151608950E949A03CDDF409174
S11345801516509116166091171670911816809191
S11345901316909114160E94D0036091D314709155
S11345A0D41484E090E00E943F026091D31470918F
S11345B0D41482E090E00C94AA0708950E94E307C3
S11345C09093D6148093D51480E00E94262E69D748
S11345D041E060E070E086E190E00E94ED1090938D
S11345E0D4148093D314BC0181E043D3C5CF089580
S11345F0E5DF0E943F15FFCF04D06894B11150C08D
S1134600089533D088F09F5790F0B92F9927B75168
S1134610A0F0D1F0660F771F881F991F1AF0BA9582
S1134620C9F712C0B13081F03AD0B1E0089537C073
S1134630672F782F8827B85F39F0B93FCCF3869578
S113464077956795B395D9F73EF4909580957095D5
S113465061957F4F8F4F9F4F089557FD9058440F9A
S1134660551F59F05F3F71F04795880F97FB991FCD
S113467061F09F3F79F0879508951216130614068A
S1134680551FF2CF4695F1DF08C016161706180617
S1134690991FF1CF86957105610508940895E894F2
S11346A0BB2766277727CB0197F90895FA01DC0128
S11346B0AA0FBB1F9B01AC01BF5728F42227332745
S11346C0442750781FC0B75188F4AB2F0024469577
S11346D037952795011CA395D2F3002069F0220F8A
S11346E0331F441FB395DAF30DD076C061307105E2
S11346F0A0E88A07B94630F49B01AC016627772706
S113470088279078309621F0208331834283538325
S113471008950BD0DDC0CED028F0D3D018F0952367
S113472009F0BFC0C4C01124BBCF97DFA0F3959F8D
S1134730D1F3950F50E0551F629FF001729FBB2784
S1134740F00DB11D639FAA27F00DB11DAA1F649F30
S11347506627B00DA11D661F829F2227B00DA11DE3
S1134760621F739FB00DA11D621F839FA00D611D69
S1134770221F749F3327A00D611D231F849F600D8A
S1134780211D822F762F6A2F11249F5750408AF0C3
S1134790E1F088234AF0EE0FFF1FBB1F661F771F4F
S11347A0881F91505040A9F79E3F510570F079C081
S11347B077CF5F3FECF3983EDCF38695779567956A
S11347C0B795F795E7959F5FC1F7FE2B880F911D6D
S11347D09695879597F908955058BB27AA270ED028
S11347E077C068D030F06DD020F031F49F3F11F4E1
S11347F01EF45DC00EF4E095E7FB53C0E92F2DDFF6
S113480080F3BA17620773078407950718F071F4E9
S11348109EF545CF0EF4E0950B2EBA2FA02D0B017B
S1134820B90190010C01CA01A0011124FF27591BF1
S113483099F0593F50F4503E68F11A16F040A22FF7
S1134840232F342F4427585FF3CF46953795279568
S1134850A795F0405395C9F77EF41F16BA0B620B67
S1134860730B840BBAF09150A1F0FF0FBB1F661FAE
S1134870771F881FC2F70EC0BA0F621F731F841FF1
S113488048F4879577956795B795F7959E3F08F017
S1134890B3CF9395880F08F09927EE0F97958795D6
S11348A0089597F99F6780E870E060E008959FEFAE
S11348B080EC089500240A941616170618060906B3
S11348C0089500240A941216130614060506089582
S11348D0092E0394000C11F4882352F0BB0F40F40A
S11348E0BF2B11F460FF04C06F5F7F4F8F4F9F4F4A
S11348F008956530F1F4FA0180818F7390E0982F68
S113490088272181822B90930A0280930902828155
S1134910F0E48F9FC0011124FA0123812695269586
S1134920822B909308028093070281E08093D7142E
S11349300895643051F080E090E4909308028093ED
S1134940070290930A028093090208950F931F931C
S113495009E714E220E034E244EF50E060E087E24B
S11349600E94E02F9093D9148093D81421E0892BCE
S113497009F020E0822F1F910F9108958091D8149F
S11349809091D914009759F040E060E070E00E94E3
S11349903130843031F41092D71480E0089582E0ED
S11349A0089583E008958091D8149091D9140097C4
S11349B039F064E00E947D30853021F083E0089571
S11349C082E0089580E008956091090270910A02DE
S11349D080E090E00E94833520E030E048EC52E42F
S11349E098DE20E038EF4FE756E40C941235089532
S11349F0EBDF20E030E040E251E48BDE02DECB016D
S1134A000895609107027091080280E090E00E948E
S1134A10833520E030E045E253E47BDE20E038EFEC
S1134A204FE756E40E94123520E030E040E252E4C1
S1134A30D3CE08950F931F93CF93DF931F921F92AA
S1134A40CDB7DEB78C0119822DC0E0911115EC327F
S1134A5050F481E08E0F80931115F0E0ED5BFA4E77
S1134A608A81808302C0109211158A818A30D1F420
S1134A704091111550E0FA01EF5BFA4E108241505B
S1134A8051099E012F5F3F4F63E475E18091141536
S1134A90909115150E941412898181110E944B0B6B
S1134AA010921115BE016E5F7F4FC80139D688235D
S1134AB061F20F900F90DF91CF911F910F910895A4
S1134AC00F931F93CF93DF938C01EB018091141507
S1134AD0909115150E941F11B8018AED94E10E946E
S1134AE08338209779F0EAEDF4E101900020E9F7AA
S1134AF0319780E290E091838083BE018AED94E156
S1134B000E947838EAEDF4E1DF010D900020E9F726
S1134B1011978DE09AE011969C938E9312961C92B5
S1134B2001900020E9F73197EA5DF441AE2F8AED58
S1134B3094E1AC016A2F80911615909117159BD5BD
S1134B40811111C008E215E020E030E04DE250E0B0
S1134B506DE975E180911415909115150E94581214
S1134B608DE995E102C080E090E0DF91CF911F9143
S1134B700F9108952F923F924F925F926F927F927E
S1134B808F929F92AF92BF92CF92DF92EF92FF9259
S1134B900F931F93CF93DF935C01FC0101900020DE
S1134BA0E9F731976F01C81AD90A5C2C0F2EF6EC7D
S1134BB08F2EF7E09F2EF02DE12CF12C4C2C370199
S1134BC0F40101811281E80109900020E9F721979D
S1134BD0C01BD10B3C2EF9E0CF16D10458F0F401E0
S1134BE02080FEE02F1206C0B801C5010E94533890
S1134BF0892B09F5442D351408F44C2F50E0B801E5
S1134C00C5010E948A38892B49F4F301EE0FFF1F76
S1134C10E60DF71DEA53F84F20800DC08FEFE81A18
S1134C20F80AE3E08E0E911CF1E1EF16F10439F677
S1134C306894222424F8822DDF91CF911F910F9143
S1134C40FF90EF90DF90CF90BF90AF909F908F90A8
S1134C507F906F905F904F903F902F90089530DF3A
S1134C6089CF089580911415909115150C941F11F6
S1134C7008958F929F92AF92CF92EF920F931F93CA
S1134C80CF93C82F8B0141E060E070E088EC90E0A6
S1134C900E94ED109093151580931415109313151D
S1134CA0009312150F2EFAE18F2EF5E29F2EF02DB0
S1134CB06894AA24A6F86894CC24C6F8E12C00E0F1
S1134CC023E040E051EE60E070E08C2F06D4909336
S1134CD0171580931615E7E0F1E0808180618083E9
S1134CE0CF911F910F91EF90CF90AF909F908F90A5
S1134CF00895882331F0E8E0F1E080818F7E80839D
S1134D000895E8E0F1E0808180618083089560E0A7
S1134D1070E08CE495E0D4DEEDE9F5E1019000204B
S1134D20E9F73197ED59F54181E0759708F080E096
S1134D300895CF93DF93EC0160E070E08DE595E09A
S1134D40BFDEEDE9F5E101900020E9F7EE5AF54107
S1134D5039F46DE975E1CE010E94833880E002C028
S1134D60188281E0DF91CF910895FC010190002029
S1134D70E9F79F01215131092817390729F4BC01AA
S1134D808BE895E06CCF089589E00895FC010190CB
S1134D900020E9F79F01215131092817390729F427
S1134DA0BC018AE995E05BCF089589E00895FC0190
S1134DB001900020E9F79F01215231092817390792
S1134DC029F4BC0189EA95E04ACF089589E0089561
S1134DD060E070E088EE95E042CF08950F931F9352
S1134DE0E82FF0E0EE0FFF1FEE53F84F6081718162
S1134DF081EF95E034DF811114C008E215E020E072
S1134E0030E04DE250E06DE975E180911415909128
S1134E1015150E945812882321F08DE995E1AADE28
S1134E2003C08DE995E1A6DE1F910F9108950F93BC
S1134E301F93CF93DF931F92CDB7DEB7DB0111969B
S1134E409C911197953108F0B4C0992381F160E0E9
S1134E5070E0272F30E0462F50E0FD01E40FF51FEE
S1134E60928192959F709A3010F0995C01C0905D88
S1134E70F901E25DFA4E90832F5F3F4FFD01E40F8D
S1134E80F51F92819F70492F50E04A30510514F06C
S1134E90995C01C0905DF901E25DFA4E90837E5FFA
S1134EA06F5F11969C911197691798F201C070E099
S1134EB0E72FF0E0E25DFA4E10824C91811103C0BD
S1134EC08AEF95E002C08CEF95E02EE235E13F9346
S1134ED02F931F924F939F938F9380E096E09F931D
S1134EE08F9380E795E19F938F930E942C3960E024
S1134EF070E080E795E1B3DE0FB6F894DEBF0FBE35
S1134F00CDBF811159C008E215E020E030E04DE248
S1134F1050E06DE975E180911415909115150E948A
S1134F205812882309F447C08DE995E123DE8E30B9
S1134F3009F042C087E0898380911215909113157E
S1134F40892BA9F1BE016F5F7F4F8DE995E168D18F
S1134F5080931815E981F0E0E356FA4EDF010D90D5
S1134F600020E9F71197AE1BBF0BAA2391F0BB27D2
S1134F70CD0101979C0112F42F5F3F4F3595279582
S1134F8020931915AF014F5F5F4F64E18AE195E10A
S1134F9073D101E010E020E030E046E150E068E148
S1134FA075E180911215909113150E944F118EE0B6
S1134FB003C084E101C080E00F90DF91CF911F9185
S1134FC00F910895813019F060E176E002C069EE36
S1134FD076E084E196E043CE08959F938F9385E431
S1134FE096E09F938F9380E795E19F938F930E9420
S1134FF02C3960E070E080E795E131DE0F900F908E
S11350000F900F900F900F9008952F923F924F9210
S11350105F926F927F928F929F92AF92BF92CF9244
S1135020DF92EF92FF920F931F93CF93DF93CDB74D
S1135030DEB7A0970FB6F894DEBF0FBECDBF62E710
S113504076E08EE796E03CDD95DD8111A3C080E239
S1135050E2E2F2E0DE01119601900D928A95E1F709
S11350609E012F5F3F4F6901E12CF12C0F2EFAE8CE
S1135070AF2EF6E0BF2EF02D00E715E10F2EF3EA78
S11350804F2EF6E05F2EF02D0F2EFAEB8F2EF6E06A
S11350909F2EF02D0F2EF4ED6F2EF6E07F2EF02DC7
S11350A03E2C2F2CFF92EF92BF92AF921F930F933F
S11350B00E942C3960E070E0C80102DD5BDD0F90D6
S11350C00F900F900F900F900F90811163C032E0FA
S11350D03E15E8F4F60183818F9382818F93818159
S11350E08F9380818F93FF92EF925F924F921F93E1
S11350F00F930E942C3960E070E0C801E1DC3ADDD6
S11351000FB6F894DEBF0FBECDBF811143C02F92FE
S11351103F929F928F921F930F930E942C3960E0CD
S113512070E0C801CDDC26DD0F900F900F900F903A
S11351300F900F9081112EC02F923F927F926F9209
S11351401F930F930E942C3960E070E0C801B8DC13
S113515011DD0F900F900F900F900F900F90811111
S113516019C03FEFE31AF30A84E0C80ED11C98E09B
S1135170E916F10409F094CF60E070E08CEE96E05B
S11351809FDCF8DC811106C060E070E08DEF96E0F2
S113519097DCF0DCA0960FB6F894DEBF0FBECDBF4F
S11351A0DF91CF911F910F91FF90EF90DF90CF90FF
S11351B0BF90AF909F908F907F906F905F904F9033
S11351C03F902F900895EF92FF920F931F93CF93E8
S11351D0DF93EC018B017A0181E0F4DE81110DC0D3
S11351E0CE01D4DD811109C0C801E1DD811105C002
S11351F0C701BBDD811101C0EBDDDF91CF911F91B0
S11352000F91FF90EF90089590E0FC01EE0FFF1FC7
S11352108E0F9F1FFC01EA53F84F818192810895FC
S1135220DC01009729F1FB012081FC0101900020A1
S1135230E9F73197E81BF90B822F90E0E817F9079B
S1135240C8F080E008C0880F382F330F330F830F66
S11352508053890F2F5FFD01E20FF11D908130ED26
S1135260390F3A3010F49111EECFFB0120830895E9
S113527080E0089580E008950F931F93CF93DF9308
S1135280DC01EA012097E1F1FA0101900020E9F73D
S11352903197E41BF50B329710F532C08D01040FE2
S11352A0151F30E0AE01420F531FFA019081913473
S11352B028F09753592F5295507F03C0592F529578
S11352C0507F2C0F3D1FF9019181913410F09753B9
S11352D001C09053950FF80190838F5F01C080E067
S11352E0282F220F482F50E0FE0101900020E9F7FB
S11352F03197EC1BFD0B4E175F0710F48613CECFCE
S1135300DF91CF911F910F9108958091CD15860F54
S11353108093CD159091D015913079F028F092308A
S1135320A9F0933019F108956F3F09F048C0109225
S1135330CD1581E08093D0150895663809F03FC0FB
S11353401092CC1582E08093D0150895E091CC158D
S113535081E08E0F8093CC15F0E0E653FA4E608323
S1135360823069F583E08093D01508959091CC152F
S113537021E0290F2093CC15963009F581110EC038
S1135380EAECF5E1808190E0982F88272181820F53
S1135390911D9093D2158093D11504C01092D2150B
S11353A01092D1151092D015E091CE15F091CF1531
S11353B0309729F08091D1159091D21519950895BF
S11353C08F929F92AF92CF92EF920F930F2EF5E8A8
S11353D08F2EF9E29F2EF02D6894AA24A4F86894E5
S11353E0CC24C4F8E12C00E023E040E855E260E07E
S11353F070E073D09093D4158093D3150F91EF90F0
S1135400CF90AF909F908F9008959093CF158093F5
S1135410CE150895CF93DF93CDB7DEB729970FB696
S1135420F894DEBF0FBECDBF89E0E2E4F2E09E0156
S11354302F5F3F4FD90101900D928A95E1F71092A9
S1135440D2151092D1158091D3159091D41500974F
S113545031F0422F532F69E00ED180E001C082E089
S113546029960FB6F894DEBF0FBECDBFDF91CF9162
S1135470089565360CF064E66C390CF46CE996EF2B
S11354806902B00111246854744F811105C07093EE
S1135490290160932801089570932B0160932A01D8
S11354A00895EAE0F1E08081886180838FE39CE9DC
S11354B0909327018093260160E080E0DADF60E0CA
S11354C081E0D7DFE0E2F1E08081826A8083E1E27B
S11354D0F1E080818A61808308952F923F924F92F8
S11354E05F926F927F928F929F92AF92CF92EF9240
S11354F0FF920F931F93CF93DF93CDB7DEB7F82EB0
S11355002A013B0188E090E00E943B368C018F2DFC
S113551090E0FC01EE0FFF1FEB52FA4E1183008363
S11355200115110509F46AC0880F991FFC01E55F94
S1135530FD4F80819181D8018D939C938C2D90E0B7
S1135540880F991F880F991F0E943B361C0186E023
S113555090E00E943B367C014C2DB101BED6F8018F
S1135560F582E4828A2D90E0880F991F880F991F95
S11355700E943B361C0186E090E00E943B367C0191
S11355804A2DB101AAD6D8011396FC92EE92129735
S113559017969C928E921697FFB6F894ED91FC9113
S11355A0119736978081826080838D909C90C3018F
S11355B0B2010E94833520E030E040E051E4A9D8F4
S11355C09B01AC0160E074E284E79BE40E94123525
S11355D020E030E040E85FE3FFD813D8F4013297CD
S11355E06083D801ED91FC911197359788E9808308
S11355F0ED91FC91349786E08083FFBEC801DF9172
S1135600CF911F910F91FF90EF90CF90AF909F900B
S11356108F907F906F905F904F903F902F90089560
S1135620CF93DF93DC01892B01F11296ED91FC916C
S11356301397938182812581981B922384819817E3
S1135640B1F0838126952823C081D181C20FD11D59
S113565068838F5F958189238383ED91FC913597CE
S113566080818062808380E003C081E001C082E0A9
S1135670DF91CF910895EF92FF920F931F93CF93F1
S1135680DF937C01009709F441C0DC011296ED918F
S1135690FC91139793818281981B8581982384813F
S11356A0891B8617A8F1662341F1842F952FDC010D
S11356B06150462F50E04F5F5F4F480F591FE7017D
S11356C0EA81FB81938182812581981B92238481C5
S11356D0981779F08C9193812695292360817181A3
S11356E08B01020F111DE80188839F5F8581982338
S11356F093831196A417B50711F7D701ED91FC9187
S1135700359780818062808380E003C081E001C09E
S113571082E0DF91CF911F910F91FF90EF90089558
S11357200097D1F0DC011496ED91FC9115979381CB
S11357308281981799F09281858186958923A08129
S1135740B181A80FB11D8C91DB018C939F5F858182
S11357509823928380E0089581E0089583E008957A
S11357601F920F920FB60F9211240BB60F922F9324
S11357703F934F935F936F937F938F939F93AF93D5
S1135780BF93CF93DF93EF93FF93A091D515B0917F
S1135790D615109711F16091C6001496ED91FC9105
S11357A01597938182812581981B92238481981770
S11357B061F0838126952823C081D181C20FD11D38
S11357C068838F5F9581892383831696ED91FC917D
S11357D01797309711F0CD011995FF91EF91DF9153
S11357E0CF91BF91AF919F918F917F916F915F9175
S11357F04F913F912F910F900BBE0F900FBE0F90C2
S11358001F9018951F920F920FB60F9211240BB68A
S11358100F922F938F939F93AF93BF93EF93FF9325
S1135820E091D515F091D6153097B9F00280F38147
S1135830E02D938182819817B1F092818581282F80
S113584026952923A081B181A20FB11D2C919F5FC0
S1135850892382832093C6000BC0E1ECF0E08081B1
S11358608F7D808305C0E1ECF0E080818F7D8083B3
S1135870FF91EF91BF91AF919F918F912F910F90D5
S11358800BBE0F900FBE0F901F9018951F920F9292
S11358900FB60F9211240BB60F922F933F934F9391
S11358A05F936F937F938F939F93AF93BF93CF93A4
S11358B0DF93EF93FF93A091D715B091D81510976C
S11358C011F16091CE001496ED91FC91159793819E
S11358D082812581981B92238481981761F08381AA
S11358E026952823C081D181C20FD11D68838F5F83
S11358F09581892383831696ED91FC9117973097B0
S113590011F0CD011995FF91EF91DF91CF91BF91E6
S1135910AF919F918F917F916F915F914F913F9143
S11359202F910F900BBE0F900FBE0F901F901895E4
S11359301F920F920FB60F9211240BB60F922F9352
S11359408F939F93AF93BF93EF93FF93E091D715FA
S1135950F091D8153097B9F00280F381E02D93814E
S113596082819817B1F092818581282F2695292369
S1135970A081B181A20FB11D2C919F5F89238283E5
S11359802093CE000BC0E9ECF0E080818F7D808312
S113599005C0E9ECF0E080818F7D8083FF91EF9179
S11359A0BF91AF919F918F912F910F900BBE0F904C
S11359B00FBE0F901F9018951F920F920FB60F9263
S11359C011240BB60F922F933F934F935F936F93D2
S11359D07F938F939F93AF93BF93CF93DF93EF9373
S11359E0FF93A091D915B091DA15109711F1609138
S11359F0D6001496ED91FC911597938182812581AF
S1135A00981B92238481981761F08381269528231B
S1135A10C081D181C20FD11D68838F5F9581892395
S1135A2083831696ED91FC911797309711F0CD0171
S1135A301995FF91EF91DF91CF91BF91AF919F9114
S1135A408F917F916F915F914F913F912F910F9023
S1135A500BBE0F900FBE0F901F9018951F920F92C0
S1135A600FB60F9211240BB60F922F938F939F931F
S1135A70AF93BF93EF93FF93E091D915F091DA15AB
S1135A803097B9F00280F381E02D938182819817D9
S1135A90B1F092818581282F26952923A081B18197
S1135AA0A20FB11D2C919F5F892382832093D6007E
S1135AB00BC0E1EDF0E080818F7D808305C0E1EDD6
S1135AC0F0E080818F7D8083FF91EF91BF91AF9152
S1135AD09F918F912F910F900BBE0F900FBE0F903F
S1135AE01F9018951F920F920FB60F9211240BB6A8
S1135AF00F922F933F934F935F936F937F938F9363
S1135B009F93AF93BF93CF93DF93EF93FF93A091B2
S1135B10DB15B091DC15109711F1609136011496E4
S1135B20ED91FC911597938182812581981B922395
S1135B308481981761F0838126952823C081D181BF
S1135B40C20FD11D68838F5F958189238383169645
S1135B50ED91FC911797309711F0CD011995FF91B4
S1135B60EF91DF91CF91BF91AF919F918F917F91F1
S1135B706F915F914F913F912F910F900BBE0F90BA
S1135B800FBE0F901F9018951F920F920FB60F9291
S1135B9011240BB60F922F938F939F93AF93BF93C0
S1135BA0EF93FF93E091DB15F091DC153097B9F09A
S1135BB00280F381E02D938182819817B1F0928164
S1135BC08581282F26952923A081B181A20FB11D9B
S1135BD02C919F5F89238283209336010BC0E1E3DC
S1135BE0F1E080818F7D808305C0E1E3F1E0808175
S1135BF08F7D8083FF91EF91BF91AF919F918F91A2
S1135C002F910F900BBE0F900FBE0F901F90189501
S1135C10CF93DF931F92CDB7DEB7BE016F5F7F4F87
S1135C208091DD159091DE157BDD8111F6CF8981A0
S1135C3090E00F90DF91CF910895682F8091DD154A
S1135C409091DE15EDDC80E090E008958F929F92B4
S1135C50AF92CF92EF920F93812C912C6894AA2447
S1135C60A7F86894CC24C7F8E12C00E023E040E0D6
S1135C7051EE60E070E031DC9093DE158093DD1529
S1135C80EDE1F6E183E192E0918380839383828363
S1135C900F91EF90CF90AF909F908F900895E091E7
S1135CA0E715F091E815309709F0199508956450B7
S1135CB0623008F03BC02091E615223079F018F4E8
S1135CC0213031F030C0233081F02430A1F02BC0DA
S1135CD022E02093E61561E010C20895FA01808164
S1135CE08093E31582E0DBCF089524E02093E6154A
