S00B0000496F542E737265630D
S113000066C1000085C1000083C1000081C10000F9
S11300107FC100007DC100007BC1000079C10000E8
S113002077C1000075C1000073C1000071C10000F8
S11300300C94D6086DC100006BC1000069C10000BA
S113004067C1000065C1000063C1000061C1000018
S11300505FC100005DC100005BC1000059C1000028
S113006057C100000C9469260C94BB2651C10000B2
S11300704FC100004DC100004BC1000049C1000048
S113008047C1000045C1000043C1000041C1000058
S11300900C94FF260C9451273BC100000C94E929D1
S11300A037C1000035C1000033C1000031C1000078
S11300B02FC100002DC100002BC1000029C1000088
S11300C027C1000025C1000023C100000C9495271E
S11300D00C94E7271DC100000C942B280C947D2858
S11300E017C10000ED1CED1CED1C241D2C1D411D31
S11300F0ED1CED1C241D2C1D0B2A7B2A7B2A7B2A3C
S11301007B2A7B2A7B2A7B2A0B2A7B2A7B2A7B2A33
S11301107B2A7B2A7B2A7B2A0D2A7B2A7B2A7B2A21
S11301207B2A7B2A7B2A7B2A7B2A7B2A7B2A7B2AA3
S11301307B2A7B2A7B2A7B2A0D2A7B2A7B2A7B2A01
S11301407B2A7B2A7B2A7B2A7B2A7B2A7B2A7B2A83
S11301507B2A7B2A7B2A7B2A772A7B2A7B2A7B2A77
S11301607B2A7B2A7B2A7B2A422A7B2A7B2A7B2A9C
S11301707B2A7B2A7B2A7B2A7B2A7B2A7B2A7B2A53
S11301807B2A7B2A7B2A7B2A362A7B2A7B2A7B2A88
S11301907B2A7B2A7B2A7B2A5A2A6E616E00696E2F
S11301A0660000407A10F35A00A0724E180900103D
S11301B0A5D4E80000E87648170000E40B540200D8
S11301C000CA9A3B000000E1F50500008096980003
S11301D0000040420F000000A0860100000010272C
S11301E000000000E80300000000640000000000BC
S11301F00A00000000000100000000002C76D888EE
S1130200DC674F0823DFC1DFAE59E1B1B796E5E300
S1130210E453C63AE651997696E8E6C28426EB8919
S11302208C9B62ED407C6FFCEFBC9C9F40F2BAA5B6
S11302306FA5F490055A2AF75C936B6CF9676DC14E
S11302401BFCE0E40D47FEF520E6B500D0ED902E52
S11302500300943577050080841E080000204E0AB0
S1130260000000C80C333333330F986E12831141EE
S1130270EF8D2114893BE65516CFFEE6DB18D184B9
S11302804B381BF77C1D901DA4BBE42420328472E0
S11302905E228100C9F124ECA1E53D270E942F10C4
S11302A080915711823008F0BBD60E946A1DF6CFA8
S11302B0CF93DF931F92CDB7DEB7CE0101960E9494
S11302C06A1A49810E945F1C0E94B61CF6CF112451
S11302D01FBECFEFD1E2DEBFCDBF00E00CBF17E001
S11302E0A0E0B2E0E2E6F5E600E00BBF02C0079052
S11302F00D92AC31B107D9F723E1ACE1B7E001C00D
S11303001D92AF31B207E1F70E94E51D0C94AF32A4
S113031077CE90930413809303130895CF93DF93C0
S113032000D01F92CDB7DEB75C010E9480116983B3
S11303307A838B839C8340EE53E060E070E0CE01CF
S113034001960E94961340910513509106136091F3
S1130350071370910813CC24CA94DC2C760101E0B5
S113036020E08091091390910A1305D30E94F72489
S1130370809302138111DFCF8091031390910413B2
S1130380F50191838083809104138F9380910313EB
S11303908F938FE692E09F938F930E94E0310F90AA
S11303A00F900F900F90C7CFFC0180819181089529
S11303B0EF92FF920F93CF93DF93082FEB014091BD
S11303C005135091061360910713709108138091DF
S11303D0091390910A136FD3E12CF12C9E0144E28E
S11303E051E066E772E08EE891E00E94F6108EE735
S11303F092E00E94F331DF91CF910F91FF90EF9043
S11304000895AF92BF92CF92DF92EF92FF920F9333
S11304101F93CF93DF938C015B0169017A0182E022
S113042090E00E94322FEC01892BD9F019821882B6
S1130430B0920A13A0920913C0920513D092061326
S1130440E0920713F092081383E00E94CD2489E818
S113045091E00E94F224BE01C801AADF8C2F9D2FD7
S113046002C080E090E0DF91CF911F910F91FF9047
S1130470EF90DF90CF90BF90AF900895CF93DF932C
S1130480EC010E94EE1F688379838A839B830E9418
S1130490E51F9D838C83DF91CF910895CF93DF93E4
S11304A000D01F92CDB7DEB75C010E948011698332
S11304B07A838B839C8342EA53E060E070E0CE0150
S11304C001960E9496130E94AB1F882321F08EE8A8
S11304D092E00E94F331409105135091061360910C
S11304E0071370910813CC24CA94DC2C760101E024
S11304F020E08091091390910A133DD264E070E0EA
S113050080E090E00E94FB130E94C01F60E070E056
S1130510CB010E94FB13C501B1DFCDCFEF92FF9257
S11305200F93CF93DF93EC01062F40910513509165
S11305300613609107137091081380910913909129
S11305400A13B9D2E12CF12C9E0140EC50E068EA88
S113055072E08EE492E00E94F610DF91CF910F9149
S1130560FF90EF900895AF92BF92CF92DF92EF92F7
S1130570FF920F931F93CF93DF938C015B0169016B
S11305807A0186E090E00E94322FEC01892B01F180
S1130590188219821A821B821D821C82B0920A134D
S11305A0A0920913C0920513D0920613E092071388
S11305B0F09208130E94931F811104C089EB92E00A
S11305C00E94F331B801CE01A9DF8C2F9D2F02C008
S11305D080E090E0DF91CF911F910F91FF90EF9019
S11305E0DF90CF90BF90AF900895FC01608171813E
S11305F0828193810895FC018481958108950F93EC
S11306001F93CF93DF93CDB7DEB764970FB6F894FB
S1130610DEBF0FBECDBF0E9474210E94F1239F93C1
S11306208F9382ED92E09F938F930E94E0310E941A
S1130630F2220E94F1239F938F9385EE92E09F9381
S11306408F930E94E0318E010F5F1F4FC8010E94FB
S113065086210E94F1231F930F939F938F938EEF14
S113066092E09F938F930E94E031C8010E94A221DF
S11306700E94F1239F938F931F930F9382E193E042
S11306809F938F930E94E031A80167E273E088E4AE
S113069093E00E94D0230E94F1239F938F931F9392
S11306A00F9387E293E09F938F9388E493E09F9363
S11306B08F9389E593E09F938F930E94E0310E948A
S11306C0D5210E94F1239F938F938FE893E09F930A
S11306D08F930E94E0310FB6F894DEBF0FBECDBFFA
S11306E081E00E94CF220E94F1239F938F938EE991
S11306F093E09F938F930E94E03184EF91E00E94F6
S1130700DA220E94F1239F938F9381E08F9384EFE9
S11307108F938FEB93E09F938F930E94E0310FB6FA
S1130720F894DEBF0FBECDBF1AE080E00E94DB214B
S1130730082F0E94F1239F938F931F921F938FED95
S113074093E09F938F930E94E0310F900F900F904E
S11307500F900F900F90083041F066E371E080E055
S113076090E00E94FB13115001F7083011F058D4A7
S1130770FECF64960FB6F894DEBF0FBECDBFDF91F7
S1130780CF911F910F910895CF93DF93CDB7DEB72B
S113079028970FB6F894DEBF0FBECDBF81E00E944C
S11307A0662162E070E080E090E00E94FB1380E04C
S11307B00E94662166E970E080E090E00E94FB13ED
S11307C00E941F211CDF0E94801169837A838B831E
S11307D09C834CE652E060E070E0CE0101960E94FA
S11307E096130CE117E085E0F801818381E08083B2
S11307F080910D1390910E13F8DEF62EE72ED82E6D
S1130800C92E1D821E821F821886AE014B5F5F4F68
S11308100E94431E20E030E048EC52E40E94761E21
S11308204B015C01CF92DF92EF92FF928FEF93E046
S11308309F938F930E94E0316D817E818F81988593
S11308400E94E91DF8016283C501B4010E94E91DFB
S1130850F801638380910D1390910E13CCDE9C01FB
S1130860ADECBCEC0E94232F7C01F694E794F69443
S1130870E794F694E794FF92EF9289E094E09F93D3
S11308808F930E94E031F801E48280910B139091E0
S11308900C138ADDF82EE92E9F938F9387E194E061
S11308A09F938F930E94E031F801E582F682B801AC
S11308B080E00E9404220E94F1239F938F9380E2A0
S11308C094E09F938F930E94E0310FB6F894DEBFBB
S11308D00FBECDBF7ECFEF92FF920F9370930E1396
S11308E060930D1350930C1340930B13E12CF12CD4
S11308F0082F20E030E048E851E065E374E084EC40
S113090093E00E94F6100F91FF90EF9008950F93DB
S113091001110CC0DC01CB0182239323A423B52352
S1130920892B8A2B8B2B79F480E010C0DC01CB015E
S113093082239323A423B523281739074A075B0787
S113094021F080E003C081E001C081E00F910895AF
S1130950CF93DF938FE090E0AFD1EC01009739F0B3
S1130960FC011192119211921192CF018BD2CE01FE
S1130970DF91CF9108952F923F924F925F926F92A1
S11309807F928F929F92AF92BF92CF92DF92EF921B
S1130990FF920F931F93CF93DF93EC014A015B0106
S11309A0622E702E0E947A11288039804A805B80E2
S11309B0A5019401C201B101AADF8823A1F0662038
S11309C089F1D501C40180959095A095B0958221B7
S11309D09321A421B52188839983AA83BB83C12C45
S11309E0D12C760122C0C114D104E104F104E9F050
S11309F0611004C040E050E0BA0104C040E050E09F
S1130A0060E071E071107460482959296A297B29D2
S1130A1097018601CE0104960E949214212C312C58
S1130A20210103C0C12CD12C76010E94BA12CD2819
S1130A30CE28CF2859F1811101C0F2D20E94661745
S1130A406B017C0191FD1FC00FB6F8940F92C88012
S1130A50D980EA80FB80072DA5019401C701B60166
S1130A6056DF882371F0662061F080949094A094FE
S1130A70B0948C209D20AE20BF2088829982AA82C7
S1130A80BB820F900FBE160127015524C201B1018C
S1130A90DF91CF911F910F91FF90EF90DF90CF9056
S1130AA0BF90AF909F908F907F906F905F904F908A
S1130AB03F902F9008954F925F926F927F92AF92E2
S1130AC0BF92CF92DF92EF92FF920F931F93CF9337
S1130AD0DF93EC016A017B018C01095F1F4F0E94C7
S1130AE07A11EB85FC8588819981AA81BB81C82A0A
S1130AF0D92AEA2AFB2AC882D982EA82FB82C12C3B
S1130B00D12C76013DC0A480B58080819181A281E1
S1130B10B381AC01BD017727B2FD0EC04880598076
S1130B206A807B8044225522662277224528462803
S1130B30472889F420E012C0488059806A807B806D
S1130B404422552266227722441555056605770509
S1130B5021F020E003C021E001C021E0222371F054
S1130B60B0FF04C0C42AD52AE62AF72A488159814D
S1130B706A817B817260CF010E94CD15EA2DFB2D25
S1130B80E017F10709F0BFCFC094D094E094F0943B
S1130B9088819981AA81BB81C822D922EA22FB22B9
S1130BA0C882D982EA82FB820E94BA126881798162
S1130BB08A819B81DF91CF911F910F91FF90EF90DC
S1130BC0DF90CF90BF90AF907F906F905F904F90E9
S1130BD00895EEE3F7E0A2E4B7E0B183A0831382C3
S1130BE01282E2E0F1E1F0933D07E0933C071382C7
S1130BF012821182108280EC99E013969C938E935A
S1130C001297ED93FC939093390780933807909350
S1130C103B0780933A0780E090E8909333078093F2
S1130C2032070895CF93DF93EC01AEE3B7E001C040
S1130C30DF01ED91FC911197EC17FD07C8F31296B3
S1130C408D919C9113979D01280F391FC217D307CB
S1130C5049F42A813B81820F931F13969C938E93B0
S1130C601297ED018A819B819E01280F391FE2179B
S1130C70F307C1F420913C0730913D07E217F307D5
S1130C8071F022813381820F931F9B838A83ED91BC
S1130C90FC911197808191819983888305C0398360
S1130CA0288302C0F983E883CA17DB0711F0CD93C8
S1130CB0DC93DF91CF910895EF92FF920F931F93EE
S1130CC0CF93DF938C010E947A1180913C0790911D
S1130CD03D07892B09F47DDF80913207909133071A
S1130CE080239123892B09F076C00115110549F061
S1130CF0C80104960817190718F000E010E001C0B5
S1130D008C010115110509F469C080913A0790918D
S1130D103B078017910708F464C0C0913E07D09147
S1130D203F07EEE3F7E002C0FE01EC018A819B81FC
S1130D308017910720F4888199810097A9F7809101
S1130D403C0790913D07C817D90709F44DC0E080CE
S1130D50F18084E0E80EF11C88819981918380837D
S1130D602A813B81201B310B2930310548F0CE010B
S1130D70800F911FFC01338322831B830A8352DF7C
S1130D802A813B8180913A0790913B07821B930B08
S1130D9090933B0780933A07409138075091390765
S1130DA08417950720F4909339078093380780912E
S1130DB0320790913307282B392B3B832A831982DE
S1130DC018828091360790913707019690933707E0
S1130DD0809336070BC0E12CF12C08C0E12CF12CD8
S1130DE005C0E12CF12C02C0E12CF12C0E94BA12B6
S1130DF0E114F10411F40E94761DC701DF91CF9133
S1130E001F910F91FF90EF9008950F931F93CF932D
S1130E10DF93009791F1EC0124974A815B81209143
S1130E20320730913307BA0162237323672B29F108
S1130E3068817981672B09F5209530952423352322
S1130E403B832A830E947A118A819B8120913A07ED
S1130E5030913B07820F931F90933B0780933A078F
S1130E60CE01E0DE8091340790913507019690938E
S1130E703507809334070E94BA12DF91CF911F91F6
S1130E800F910895FC010396928381834FEF5FEFE6
S1130E90BA014383548365837683908787839287DB
S1130EA0818710820895FC011386128608950F939A
S1130EB01F93CF93DF93EB01088119812A813B8132
S1130EC00F3F4FEF14072407340721F4FC01A185D9
S1130ED0B28511C0DC01139601C0DF011496ED91B7
S1130EE0FC91159740815181628173810417150724
S1130EF02607370790F71496ED91FC911597FD831B
S1130F00EC83D783C683BF83AE831596DC93CE93DD
S1130F1014979B878A87FC0120812F5F2083DF91B0
S1130F20CF911F910F910895CF93DF93FC01A28578
S1130F30B385C481D581868197819F838E83C68141
S1130F40D781848195819D838C8311968D919C9109
S1130F501297E817F90731F48681978112969C93CA
S1130F608E931197138612868C9181508C938C9159
S1130F70DF91CF910895A89590EC88E10FB6F8948D
S1130F80A895809360000FBE909360000895FC01C3
S1130F906083319770833197108231971082319733
S1130FA020E8208331971082319710823197108284
S1130FB0779740833197508386970895DCDFA0911B
S1130FC0C511B091C611CD91CDBFDD91DEBFFF91AA
S1130FD0EF91DF91CF91BF91AF919F918F917F91CD
S1130FE06F915F914F913F912F911F910F91FF90BE
S1130FF0EF90DF90CF90BF90AF909F908F907F90B5
S11310006F905F904F903F902F901F900F900CBE69
S11310100F900BBE0F900FBE0F90089581E00895BE
S11310200F920FB6F8940F920BB60F920CB60F9264
S11310301F9211242F923F924F925F926F927F9250
S11310408F929F92AF92BF92CF92DF92EF92FF92D4
S11310500F931F932F933F934F935F936F937F93BC
S11310608F939F93AF93BF93CF93DF93EF93FF93AC
S1131070A091C511B091C6110DB60D920EB60D9288
S11310800E941614A091C511B091C611CD91CDBF87
S1131090DD91DEBFFF91EF91DF91CF91BF91AF91D1
S11310A09F918F917F916F915F914F913F912F917C
S11310B01F910F91FF90EF90DF90CF90BF90AF9072
S11310C09F908F907F906F905F904F903F902F9064
S11310D01F900F900CBE0F900BBE0F900FBE0F9081
S11310E008950F920FB6F8940F920BB60F920CB6A8
S11310F00F921F9211242F923F924F925F926F9200
S11311007F928F929F92AF92BF92CF92DF92EF9293
S1131110FF920F931F932F933F934F935F936F937C
S11311207F938F939F93AF93BF93CF93DF93EF936B
S1131130FF93A091C511B091C6110DB60D920EB6D4
S11311400D9213BE0E948E1181110E941614A0915B
S1131150C511B091C611CD91CDBFDD91DEBFFF9118
S1131160EF91DF91CF91BF91AF919F918F917F913B
S11311706F915F914F913F912F911F910F91FF902C
S1131180EF90DF90CF90BF90AF909F908F907F9023
S11311906F905F904F903F902F901F900F900CBED8
S11311A00F900BBE0F900FBE0F9008959ADF189505
S11311B00FB6F8940F92FC01868D811102C081E074
S11311C001C080E00F900FBE08950FB6F8940F92FF
S11311D0FC01268D878D281302C081E001C080E0C8
S11311E00F900FBE08950F931F93CF93DF93EC01DD
S11311F0042F1E8D48A141110CC088819981892B2F
S113120009F042C08C819D810E940B171D821C82B3
S113121042C0011117C050E08A819B810E943A317B
S113122028A18A819B81820F911D9B838A832C81B3
S11312303D818217930750F1888199819B838A832A
S113124080E029C050E08E819F810E943A3188A1BC
S113125090E09195819591092E813F81280F391F46
S11312603F832E83488159812417350730F42C811C
S11312703D81820F931F9F838E83023049F4112393
S113128049F0115080E007C080E005C080E003C051
S113129080E001C080E01F5F1E8FDF91CF911F911E
S11312A00F910895FC0140A14423A9F050E0268148
S11312B03781240F351F378326838481958128172E
S11312C0390720F08081918197838683CB016681E1
S11312D077810C943A3108951F93CF93DF93EC01F7
S11312E00FB6F8940F921AA10BC08B89882351F082
S11312F0CE0143960E941E1581110E94F4161150CE
S113130011169CF38FEF8AA30F900FBE0FB6F894BB
S11313100F9219A10BC08885882351F0CE0108963D
S11313200E941E1581110E94F416115011169CF38F
S11313308FEF89A30F900FBEDF91CF911F91089576
S1131340CF93DF93EC010FB6F8940F92E881F98103
S11313508F8D28A190E030E0829FA001839F500DE3
S1131360929F500D11244E0F5F1F5D834C831E8E80
S1131370FB83EA830197289FA001299F500D389F82
S1131380500D1124CF01840F951F9F838E838FEFFF
S113139089A38AA361110BC08885882371F0CE01CB
S11313A008960E941E15882341F03ADE06C0CE013D
S11313B0089668DDCE01439665DD0F900FBE81E08F
S11313C0DF91CF9108950F931F93F801611103C02A
S11313D01183008302C051834083878F60A361E03F
S11313E0CF01AEDF1F910F910895DF92EF92FF922C
S11313F00F931F93CF93DF93F82EE62ED42E869F60
S1131400C0011124839658DCEC01009741F08C0153
S11314102D2DAC014D5D5F4F6E2D8F2DD4DFCE0190
S1131420DF91CF911F910F91FF90EF90DF9008957E
S1131430CF92DF92EF92FF920F931F93CF93DF939C
S1131440CDB7DEB729970FB6F894DEBF0FBECDBF78
S11314507C016B012E833F834887598710E00FB6C8
S1131460F8940F92F701968D878D981710F002303B
S1131470B1F4402FB601C701B6DEF7019389992371
S113148041F0C70143960E941E15882321F0C8DD50
S113149002C08111C5DD0F900FBE81E04CC08E816A
S11314A09F81A885B985892B8A2B8B2B21F40F90DA
S11314B00FBE80E040C0111105C0CE0101960E940C
S11314C07D1611E00F900FBE15D70FB6F8940F924A
S11314D0F70181A18F3F09F411A2F70182A18F3F87
S11314E009F412A20F900FBEBE016A5F7F4FCE01B6
S11314F001960E948E16811119C0C70166DE8823E9
S113150081F04E815F8168857985C70108960E94C4
S11315107B14C701E1DE0E94BA128111A0CF80DDE5
S11315209ECFC701D9DE0E94BA1299CFC701D4DE7B
S11315300E94BA1280E029960FB6F894DEBF0FBE5F
S1131540CDBFDF91CF911F910F91FF90EF90DF906E
S1131550CF9008950F93009769F0FC0115821482CF
S113156011821082168200E020E030E0A90160E0E0
S113157070E05EDF0F910895CF93DF93482F60E012
S113158081E033DFEC01E6DFCE01DF91CF910895F6
S1131590EF92FF920F931F93CF93DF938A01FC0185
S11315A0568D378D531710F02230F9F4422F7801FD
S11315B0EC011AA18E8DCE0116DE1F3F81F48B89BA
S11315C08823A9F0CE0143960E941E15882389F032
S11315D0E114F10481F081E0F70180830DC0FF2460
S11315E0F394F10EFAA281E007C080E005C081E027
S11315F003C081E001C081E0DF91CF911F910F9181
S1131600FF90EF900895CF92DF92EF92FF920F93A5
S11316101F93CF93DF93CDB7DEB729970FB6F89416
S1131620DEBF0FBECDBF8C016B012E833F83488785
S11316305987E12C0FB6F8940F92F801F68CFF202D
S113164099F0B601C8012EDEFA94F801F68E808571
S1131650882331F0C80108960E941E158111E0DC30
S11316600F900FBE81E04FC08E819F81A885B98500
S1131670892B8A2B8B2B21F40F900FBE80E043C063
S1131680E11006C0CE0101960E947D16EE24E3947B
S11316900F900FBE2FD60FB6F8940F92F80181A1C8
S11316A08F3F09F411A2F80182A18F3F09F412A21D
S11316B00F900FBEBE016A5F7F4FCE0101960E945C
S11316C08E16811117C0C80173DD882379F04E810D
S11316D05F8168857985C80143960E947B14C8019F
S11316E0FBDD48D78111A6CF9BDCA4CFC801F4DD74
S11316F041D7A0CFC801F0DD3DD7C80159DD88230B
S113170009F498CF80E029960FB6F894DEBF0FBE97
S1131710CDBFDF91CF911F910F91FF90EF90DF909C
S1131720CF900895CF93DF93EC010FB6F8940F9206
S113173089A18F3F09F419A28AA18F3F09F41AA243
S11317400F900FBE8E8D811104C0CE0143960E946E
S1131750DC14CE01C1DDDF91CF910895FC014481F9
S1131760558122813381240F351F80819181B901F4
S1131770681B790BCB016417750710F0841B950B5C
S113178008950F93FC018FE0DF011D928A95E9F71C
S113179075876487558344833783268306870F912F
S11317A00895AF92BF92CF92DF92EF92FF920F9380
S11317B01F93CF93DF936C015B017A01FC01C2811B
S11317C0D381048115810C1B1D0B4017510708F4AC
S11317D08A01F60184859585A801B5018C0F9D1FAA
S11317E00E943A310E151F0558F4A701401B510BF6
S11317F0B501600F711FF601848595850E943A3109
S1131800CE018E0D9F1DF601248135818217930729
S113181010F0821B930BF60193838283C701DF913F
S1131820CF911F910F91FF90EF90DF90CF90BF90D9
S1131830AF900895CF92DF92EF92FF920F931F9390
S1131840CF93DF931F921F92CDB7DEB77C016B015C
S11318505A83498321153105C1F0FC01868580FD39
S113186008C04217530708F49A013A83298381E098
S11318700FC02017310758F042E050E0BE016F5FFF
S11318807F4FC7018EDF81E003C080E001C080E0AC
S1131890882331F049815A81B601C70182DF02C031
S11318A080E090E00F900F90DF91CF911F910F9106
S11318B0FF90EF90DF90CF900895AF92BF92CF92B8
S11318C0DF92EF92FF920F931F93CF93DF937C01EC
S11318D05B01E9014217530708F4EA01209781F1FB
S11318E0F7010081118184819581801B910B6E0128
S11318F08C179D0708F46C01F70164857585600FEA
S1131900711FA601C5010E943A31CC16DD0658F4B8
S1131910AE014C195D09F70164857585C5018C0D0F
S11319209D1D0E943A310C0F1D1FF7018481958182
S11319300817190710F0081B190BF701118300830E
S1131940CE01DF91CF911F910F91FF90EF90DF9027
S1131950CF90BF90AF9008956F927F928F929F9295
S1131960AF92BF92CF92DF92EF92FF920F931F93A9
S1131970CF93DF931F921F92CDB7DEB76C014B015B
S11319805A01790101151105B1F0FC0160807180E3
S1131990A801BE016F5F7F4F90DF89819A81E01AB1
S11319A0F10AA816B90630F4F60171826082A12CFE
S11319B0B12C01C05C019701A501B401C6017DDF12
S11319C00F900F90DF91CF911F910F91FF90EF90A7
S11319D0DF90CF90BF90AF909F908F907F906F904B
S11319E00895CF92DF92EF92FF920F93CF93DF93FC
S11319F0EC016B01413011F401E001C000E0C114BD
S1131A00D10419F4CC24C394D12CCE014096C81728
S1131A10D90720F4219650D97C0102C0E12CF12C85
S1131A20E114F10439F09601AE01B701615F7F4F13
S1131A30C701A7DEC701DF91CF910F91FF90EF900F
S1131A40DF90CF9008950F930FB6F8940F92FC0196
S1131A5020853185232B71F422853385232B61F472
S1131A60268137814481558164857585068589DEA3
S1131A7081E003C080E001C080E00F900FBE0F91B1
S1131A800895FC012481358180819181820F931F07
S1131A9042815381841B950B01978217930710F0A1
S1131AA0821B930B08952F923F924F925F926F92F5
S1131AB07F928F929F92AF92BF92CF92DF92EF92DA
S1131AC0FF920F931F93CF93DF93CDB7DEB72B977E
S1131AD00FB6F894DEBF0FBECDBF4C017B876A877B
S1131AE01A010E831F8328873987FC01848195811D
S1131AF00197268520FF0CC02A01F2E04F0E511CED
S1131B008415950558F41E821F821886198606C00E
S1131B108417950710F02A0101C02C018E819F8142
S1131B20A885B985892B8A2B8B2B09F438C0CE0163
S1131B3001960E9467160FB6F8940F92C401A1DFB4
S1131B403C018415950540F560E080E090E00E943A
S1131B50501A0E94F816F401938782870F900FBEE3
S1131B60AE80BF80C884D984E12CF12C00E010E061
S1131B70980140E050E0BA0180E00E949017F4011F
S1131B8013861286BE016A5F7F4FCE0101960E94C2
S1131B908E16882381F205C00F900FBE02C0612CFF
S1131BA0712C6114710419F4C4016BDF3C018201CE
S1131BB09301A1016A857B85C4013CDE6C01892BFC
S1131BC0E9F0C401CBDDF401268137818217930744
S1131BD0A8F090D3F40180859185892B71F08085DC
S1131BE09185E12CF12C00E020E030E0A90160E0D7
S1131BF00E943718F40111861086BCD4C6012B96B6
S1131C000FB6F894DEBF0FBECDBFDF91CF911F9109
S1131C100F91FF90EF90DF90CF90BF90AF909F9087
S1131C208F907F906F905F904F903F902F9008958A
S1131C30AF92BF92CF92DF92EF92FF920F931F93D6
S1131C40CF93DF93EC017B015A0169018E8580FFFC
S1131C5004C08A010E5F1F4F01C08A01CE0111DF4B
S1131C609C01A501B701CE01E5DD5C01892BC1F022
S1131C70CE0174DD2E813F818217930788F0888519
S1131C809985892B69F088859985E12CF12C00E0F0
S1131C9020E030E0A90160E00E942E191986188620
S1131CA0C501DF91CF911F910F91FF90EF90DF90CD
S1131CB0CF90BF90AF9008954F925F926F927F92B2
S1131CC08F929F92AF92BF92CF92DF92EF92FF9248
S1131CD00F931F93CF93DF93EC012B013A0158012B
S1131CE069018E8580FF05C06894882481F8912C51
S1131CF002C0812C912CA114B104C104D10441F17E
S1131D000FB6F8940F92CE0129DD7C01881699064E
S1131D1048F060E080E090E00E94501A0E94F816BB
S1131D20998788870F900FBE8E149F04A0F0E12C32
S1131D30F12C00E010E0980140E050E0BA0180E0AE
S1131D400E94901719861886CE0108DD7C0103C015
S1131D50CE0104DD7C018E149F04E8F48401970114
S1131D60A301B201CE01F8DD6C01892BB1F0C2D21E
S1131D708A859B85892B69F08A859B85E12CF12CCA
S1131D8000E020E030E0A90160E00E9437181B86E3
S1131D901A86F0D302C0C12CD12CC601DF91CF9199
S1131DA01F910F91FF90EF90DF90CF90BF90AF9075
S1131DB09F908F907F906F905F904F900895E091E7
S1131DC03F11F0914011808181110CC08FEF9FEF82
S1131DD0DC018093091190930A11A0930B11B09325
S1131DE00C110895E0913F11F09140110780F085A6
S1131DF0E02D80819181A281B38180930911909318
S1131E000A11A0930B11B0930C110895CF93DF9393
S1131E10EC018B8D9C8D0E940507CE010E94050765
S1131E20DF91CF9108954F925F926F927F928F923C
S1131E309F92AF92BF92CF92DF92EF92FF920F9355
S1131E40CF93DF932C015B014A013901E60165EA76
S1131E5070E08B8D9C8D0E9443318B8D9C8D21E095
S1131E60821A9108880E991EA114B10489F415C030
S1131E70822F90E0F501E80FF91F3081DE01A80FF1
S1131E80B91F5D963C938081882329F02F5F01C0A0
S1131E9020E0203168F31CA601C01D8E0A3008F032
S1131EA009E00A8F0DA71EA6CE0102960E945307D1
S1131EB0CE010E960E945307DB87CA878AE090E022
S1131EC0A0E0B0E0801B9109A109B1098E879F872A
S1131ED0A88BB98BDF8BCE8B84E0FE01BF96DF012C
S1131EE01D928A95E9F71BAAA301B201C4014FD838
S1131EF099838883E114F10419F0F701D183C08335
S1131F00DF91CF910F91FF90EF90DF90CF90BF9032
S1131F10AF909F908F907F906F905F904F900895B7
S1131F20CF93C0E009C02BE0C29FC0011124895A9D
S1131F309E4E0E944207CF5FCA30A8F38CE491E121
S1131F400E94420781E491E10E94420782E391E109
S1131F500E94420787E291E10E9442078BE191E1EE
S1131F600E9442078CE491E19093401180933F11C9
S1131F7081E491E190933E1180933D11CF910895B6
S1131F80CF93DF93EC010FB6F8940F9280911A115E
S1131F908F5F80931A118091C5119091C611892B7E
S1131FA051F4D093C611C093C51180911A11813098
S1131FB091F4B6DF10C08091141181110CC0E0912E
S1131FC0C511F091C611928D8A8D891720F0D09396
S1131FD0C611C093C51180910D118F5F80930D11AF
S1131FE0EA8D809115118E1710F4E09315118BE092
S1131FF08E9FF0011124E95AFE4E0180F281E02DFA
S1132000FF83EE832681378139872887A681B781AC
S11320109E012E5F3F4F15963C932E931497378362
S11320202683EA8D8E9FF0011124E95AFE4EFD8726
S1132030EC8780818F5F80830F900FBE8091141195
S1132040882351F0E091C511F091C611928D8A8DCB
S1132050981710F40E941008DF91CF910895CF9340
S1132060DF931BC00FB6F8940F92E0912E11F091FC
S11320702F11C085D185CE0102960E9494078091CC
S11320801A11815080931A118091261181508093E6
S113209026110F900FBECE01B9DE80912611811159
S11320A0E1CFDF91CF9108958F929F92AF92BF922B
S11320B0CF92DF92EF92FF92CF93DF936B017C017B
S11320C0C42F8090161190901711A0901811B09001
S11320D019118091C5119091C61102960E9494071E
S11320E08FEFC816D806E806F806B1F5CC23A1F19F
S11320F0EBE1F1E1A181B281C091C511D091C6118A
S1132100BF83AE83C091C511D091C61116968D912F
S11321109C911797998788871696CD91DC9117978C
S11321208091C5119091C61102969D838C838091F4
S1132130C5119091C611029617969C938E9316978B
S1132140A091C511B091C6111D96FC93EE931C97F6
S113215080818F5F80833FC0C80CD91CEA1CFB1CA4
S1132160E091C511F091C611C282D382E482F58256
S1132170C814D904EA04FB0468F46091C511709191
S1132180C61180913D1190913E116E5F7F4F0E9468
S1132190570721C06091C5117091C61180913F11FC
S11321A0909140116E5F7F4F0E94570780910911F3
S11321B090910A11A0910B11B0910C11C816D90677
S11321C0EA06FB0640F4C0920911D0920A11E0928B
S11321D00B11F0920C11DF91CF91FF90EF90DF90F3
S11321E0CF90BF90AF909F908F9008952F923F9281
S11321F04F925F926F927F928F929F92AF92BF9213
S1132200CF92DF92EF92FF920F93CF93DF933C0133
S11322101B014A012901CA010E945C066C01892B39
S113222071F084E390E00E945C06EC01892B19F0C4
S1132230DC8ECB8E06C0C6010E94050702C0C0E03A
S1132240D0E0209761F0A12CB12C6E019201A40181
S1132250B101C301E8DDCE0193DE81E001C08FEF5F
S1132260DF91CF910F91FF90EF90DF90CF90BF90CF
S1132270AF909F908F907F906F905F904F903F9022
S11322802F900895EF92FF920F930F2EF7E0EF2E09
S1132290F1E1FF2EF02D00E020E030E040EC50E0D2
S11322A062E474E08EE491E0A1DF813011F40E94D5
S11322B0F41A8130C9F4F8948FEF9FEFDC01809316
S11322C0091190930A11A0930B11B0930C1181E0A2
S11322D08093141110921611109217111092181164
S11322E0109219110E94DE07809106020F91FF904F
S11322F0EF900895809106118F5F809306110895E1
S11323000FB6F8940F926091161170911711809185
S11323101811909119110F900FBE0895CF92DF926A
S1132320EF92FF92CF93DF9380910611811105C143
S1132330C0901611D0901711E0901811F090191157
S11323408FEFC81AD80AE80AF80AC0921611D09278
S11323501711E0921811F0921911C114D104E1047B
S1132360F104B1F480913F119091401120913D11FD
S113237030913E113093401120933F1190933E11C0
S113238080933D1180910E118F5F80930E1117DDA4
S11323908091091190910A11A0910B11B0910C1127
S11323A0C816D906EA06FB0620F480E0B2C081E034
S11323B001C080E0E0913F11F091401190819111B2
S11323C00CC04FEF5FEFBA014093091150930A110B
S11323D060930B1170930C119CC0E0913F11F0912C
S11323E040110780F085E02D0084F185E02D4281C5
S11323F0538164817581C416D506E606F70648F450
S11324004093091150930A1160930B1170930C11AE
S113241080C0A485B585C681D781208531853F8359
S11324202E83C085D185268137813D832C831196E7
S11324304D915C9112979F012E5F3F4F42175307B6
S113244031F44085518512965C934E93119715860D
S113245014869C9191509C93A08DB18D109709F195
S1132460C289D389448955895F834E83C489D589B8
S1132470428953895D834C8311966D917C911297A7
S1132480AF01425F5F4F6417750731F44489558982
S113249012965C934E931197118E108E9C919150CD
S11324A09C93A28D909115119A1710F4A093151175
S11324B09BE09A9FD0011124A95ABE4E11960D900B
S11324C0BC91A02DB783A68316964D915C91179766
S11324D0518740871696CD91DC9117973D832C83C5
S11324E017963C932E931697A28D9A9FD001112490
S11324F0A95ABE4EB587A4879C919F5F9C93228D59
S1132500E091C511F091C611928D291708F04FCFB3
S113251051CFE091C511F091C611E28D9BE0E99F86
S1132520F0011124E95AFE4E9081923008F081E0C6
S113253090910F11911116C016C0809110119091B5
S11325401111A0911211B09113110196A11DB11D89
S11325508093101190931111A0931211B093131141
S113256080E001C081E0DF91CF91FF90EF90DF9098
S1132570CF900895CF92DF92EF92FF92CF93DF93A3
S11325800FB6F8940F928091061181508093061132
S1132590809106118111BEC080911A11811188C0E9
S11325A0BCC0E0913911F0913A110084F185E02D1D
S11325B0A08DB18DC289D389848995899F838E83A7
S11325C0C489D589828993899D838C8311962D91A1
S11325D03C911297CF010E962817390731F484895C
S11325E0958912969C938E931197118E108E8C91CF
S11325F081508C93A485B585C681D78180859185CA
S11326009F838E83C085D185868197819D838C83AA
S113261011968D919C9112979F012E5F3F4F8217C7
S1132620930731F48085918512969C938E9311972C
S1132630158614868C9181508C93A28D80911511EE
S11326408A1710F4A09315118BE08A9FD0011124EE
S1132650A95ABE4E11960D90BC91A02DB783A683A6
S113266016964D915C911797518740871696CD9198
S1132670DC9117973D832C8317963C932E931697E2
S1132680A28D8A9FD0011124A95ABE4EB587A48772
S11326908C918F5F8C93928DA091C511B091C611CE
S11326A05A968C91981730F081E080930F1102C0F4
S11326B0E0E0F0E080913211811173CFEF2B09F04B
S11326C07EDBC0901011D0901111E0901211F090A7
S11326D01311C114D104E104F104A1F01FDE882315
S11326E019F081E080930F1181E0C81AD108E10844
S11326F0F108A1F7109210111092111110921211F9
S11327001092131180910F11882331F00E94100848
S113271081E003C080E001C080E00F900FBEDF9134
S1132720CF91FF90EF90DF90CF9008958F929F927A
S1132730AF92BF92CF92DF92EF92FF921F93CF930B
S1132740DF93EC016A017B01D5DD80901611909036
S11327501711A0901811B090191188819981AA813C
S1132760BB81AC01BD014C0D5D1D6E1D7F1D881626
S11327709906AA06BB0660F4481759076A077B073F
S113278098F484169506A606B70680F010E013C0E8
S1132790481759076A077B0758F084169506A6065A
S11327A0B70640F010E007C010E005C011E003C018
S11327B011E001C011E0488359836A837B831123AC
S11327C041F0CB01BA01681979098A099B0940E0F3
S11327D06BDCD0DE811102C00E941008812FDF91D2
S11327E0CF911F91FF90EF90DF90CF90BF90AF906B
S11327F09F908F900895CF92DF92EF92FF926B019A
S11328007C01672B682B692B39F074DD40E0C7012C
S1132810B6014ADCAFDE01C080E0811102C00E9433
S11328201008FF90EF90DF90CF90089580910611EB
S1132830882321F081E080930F11089510920F11E5
S1132840E091C511F091C61120813181E091C5114B
S1132850F091C611838D948D8217930760F0609177
S1132860C5117091C611635E7F4F8091C51190911F
S1132870C6110E94821D8091151101C08150282F1C
S113288030E09BE0929FF001939FF00D1124E95AF0
S1132890FE4E9081992391F39BE0929FA001939F18
S11328A0500D1124DF010180F281E02D0480F581B7
S11328B0E02D1296FC93EE931197465A5E4EE41760
S11328C0F50729F444815581FD01528341839BE03E
S11328D0929FF001939FF00D1124E95AFE4E01805E
S11328E0F281E02D208531853093C6112093C511E6
S11328F0809315110895CF92DF92EF92FF926A01AF
S11329007B016091C5117091C611625F7F4F0E9477
S1132910570741E0C701B601C7DBFF90EF90DF9096
S1132920CF9008950F931F93CF93DF93FC01A09151
S1132930C511B091C61170681E964D935D936D9349
S11329407C935197A181B281C091C511D091C611D8
S1132950BB8BAA8BC091C511D091C61116968D91CF
S11329609C9117979D8B8C8B1696CD91DC91179724
S11329708091C5119091C6110E969D838C83809190
S1132980C5119091C6110E9617969C938E93169727
S1132990A091C511B091C6115996FC93EE93589726
S11329A080818F5F808341E0C901B8017DDBDF91C5
S11329B0CF911F910F910895CF93DF93FC01CB0129
S11329C0BA01A181B281C091C511D091C611BB8B4E
S11329D0AA8BC091C511D091C61116964D915C91E8
S11329E017975D8B4C8B1696CD91DC911797409180
S11329F0C5115091C611425F5F4F5D834C83409176
S1132A00C5115091C611425F5F4F17965C934E9368
S1132A101697A091C511B091C6115996FC93EE93E7
S1132A20589730813F5F3083222319F06FEF7FEF97
S1132A30CB01422F39DBDF91CF910895CF93DF9300
S1132A40DC011796ED91FC9118970084F185E02D37
S1132A50A08DB18DC289D389848995899F838E8302
S1132A60C489D589828993899D838C8311968D919C
S1132A709C9112979F01225F3F4F8217930731F475
S1132A808489958912969C938E931197118E108E3A
S1132A908C9181508C9380910611811152C0A48530
S1132AA0B585C681D781808591859F838E83C085B6
S1132AB0D185868197819D838C8311968D919C917C
S1132AC012979F012E5F3F4F8217930731F4808541
S1132AD0918512969C938E931197158614868C91EA
S1132AE081508C93A28D809115118A1710F4A093B4
S1132AF015118BE08A9FD0011124A95ABE4E11965C
S1132B000D90BC91A02DB783A68316964D915C9130
S1132B101797518740871696CD91DC9117973D837F
S1132B202C8317963C932E931697A28D8A9FD001DF
S1132B301124A95ABE4EB587A4878C918F5F8C93BC
S1132B401CC042E351E1DA011196CD91DC91129758
S1132B50D38BC28B8E819F81958B848B8E819F8139
S1132B60DC0115963C932E9314973F832E83518F4B
S1132B70408FDA018C918F5F8C93928DE091C51117
S1132B80F091C611828D891720F481E080930F1192
S1132B9001C080E0DF91CF910895CF93DF93DC01F2
S1132BA070684D935D936D937C9313971896ED9194
S1132BB0FC9119971A964D915C911B9714968D91DF
S1132BC09C91159716962D913C911797EC013F8394
S1132BD02E8316968D919C91179714962D913C9166
S1132BE01597EC013D832C83EA0189819A81A8170A
S1132BF0B90731F416968D919C9117979A8389831E
S1132C001B961C921E921A97DA018C9181508C9318
S1132C10A485B585C681D781808591859F838E8360
S1132C20C085D185868197819D838C8311968D91F2
S1132C309C9112979F012E5F3F4F8217930731F4A7
S1132C408085918512969C938E9311971586148690
S1132C508C9181508C93A28D809115118A1710F458
S1132C60A09315118BE08A9FD0011124A95ABE4E5E
S1132C7011960D90BC91A02DB783A68316964D9105
S1132C805C911797518740871696CD91DC911797E1
S1132C903D832C8317963C932E931697A28D8A9F7F
S1132CA0D0011124A95ABE4EB587A4878C918F5F99
S1132CB08C93928DE091C511F091C611828D891784
S1132CC018F481E080930F11DF91CF9108950FB62E
S1132CD0F8940F9220910E11FC012083409116115B
S1132CE050911711609118117091191141835283F9
S1132CF0638374830F900FBE089520910E11FC011D
S1132D002083409116115091171160911811709100
S1132D101911418352836383748308958F929F9220
S1132D20AF92BF92CF92DF92EF92FF920F931F93D5
S1132D30CF93DF93FB010FB6F8940F92C090161156
S1132D40D0901711E0901811F0901911DC01119630
S1132D500D911D912D913C91149746015701801AB4
S1132D60910AA20AB30A40815181628173814F3F63
S1132D70BFEF5B076B077B0739F1EC01B881A091CA
S1132D800E11BA1759F0C016D106E206F30630F058
S1132D90108211821282138281E017C08416950674
S1132DA0A606B70658F4481959096A097B094083ED
S1132DB0518362837383A1DF80E007C01082118294
S1132DC01282138281E001C080E00F900FBEDF9178
S1132DD0CF911F910F91FF90EF90DF90CF90BF9014
S1132DE0AF909F908F90089581E080930F11089584
S1132DF08091C5119091C611089580911411882372
S1132E0031F080910611811104C082E0089581E0BF
S1132E10089580E008950F931F93CF93DF93FC01EF
S1132E20892B09F449C086A5815086A7228D95A5D2
S1132E30291709F443C0811143C0EF018F010E5FCC
S1132E401F4FC8010E949407EDA5EA8F8AE090E025
S1132E50A0E0B0E08E1B9109A109B1098E879F877C
S1132E60A88BB98B809115118E1710F4E09315116E
S1132E708BE08E9FF0011124E95AFE4E0180F2810D
S1132E80E02DFF83EE832681378139872887A68149
S1132E90B78115961C930E93149717830683EA8DB6
S1132EA08E9FF0011124E95AFE4EFD87EC87808144
S1132EB08F5F808381E005C080E003C080E001C0B3
S1132EC080E0DF91CF911F910F910895CF92DF920F
S1132ED0EF92FF92E091C511F091C6116685778556
S1132EE080899189E091C511F091C611A091C51115
S1132EF0B091C6115A962C910F2EFAE0CF2ED12CF8
S1132F00E12CF12CF02DC21AD108E108F108C68693
S1132F10D786E08AF18AFF90EF90DF90CF900895F2
S1132F204F925F926F927F92AF92BF92CF92DF9255
S1132F30EF92FF920F931F93CF93DF9328013901F0
S1132F400FB6F8940F92E091C511F091C611C82FF5
S1132F50D0E0EC0FFD1F83A9823071F1E091C5111F
S1132F60F091C611CE01880F991F880F991FE80FA1
S1132F70F91F87A590A9A1A9B2A94095509560957C
S1132F807095482359236A237B2347A750AB61AB31
S1132F9072ABE091C511F091C611EC0FFD1F81E0F9
S1132FA083ABA114B104C104D10431F041E0C601E2
S1132FB0B5017AD80E9410080F900FBE0FB6F8948E
S1132FC00F92E114F104A1F0E091C511F091C61142
S1132FD0CE01880F991F880F991FE80FF91F87A545
S1132FE090A9A1A9B2A9F70180839183A283B38395
S1132FF0E091C511F091C611EC0FFD1F83A9823039
S1133000E9F4E091C511F091C611CE01880F991F22
S1133010880F991FE80FF91F87A590A9A1A9B2A944
S11330204094509460947094482259226A227B22DE
S113303047A650AA61AA72AA81E001C080E020914B
S1133040C5113091C611C20FD31F1BAA0F900FBE1A
S1133050DF91CF911F910F91FF90EF90DF90CF9070
S1133060BF90AF907F906F905F904F9008958F9234
S11330709F92AF92BF92EF92FF920F93CF93DF9301
S1133080DC010FB6F8940F92E114F10489F0E62FF5
S1133090F0E0EE0FFF1FEE0FFF1FE80FF91F87A4EC
S11330A090A8A1A8B2A8F70180829182A282B382DB
S11330B070E0FD01E60FF71F83A992E093AB0230A5
S11330C001F118F4013031F04DC0033079F10430CE
S11330D0D1F148C0660F771F660F771FFD01E60F19
S11330E0F71F87A490A8A1A8B2A8BA01A9014829EA
S11330F059296A297B2947A750AB61AB72AB01E020
S113310034C0660F771F660F771FFD01E60FF71FA8
S113311047A550A961A972A94F5F5F4F6F4F7F4FB9
S113312047A750AB61AB72AB01E01FC0660F771FBE
S1133130660F771FFD01E60FF71F27A730AB41ABE2
S113314052AB01E012C0823079F0660F771F660F30
S1133150771FFD01E60FF71F27A730AB41AB52AB3A
S113316001E003C001E001C000E0813009F069C062
S11331701C96ED91FC911D971696CD91DC911797B5
S113318018968D919C9119979F838E831896CD9153
S1133190DC91199716968D919C9117979D838C833A
S11331A0818192819D012E5F3F4F8217930731F4F5
S11331B018968D919C911997928381831D961C92E8
S11331C01E921C978081815080835A96EC915A9765
S11331D0809115118E1710F4E09315118BE08E9FDA
S11331E0F0011124E95AFE4E0180F281E02D179678
S11331F0FC93EE9316974681578119965C934E93F0
S11332001897C681D7813D832C83378326835A96AA
S1133210EC915A978E9FF0011124E95AFE4E1D96A7
S1133220FC93EE931C9780818F5F80835A969C91C8
S1133230E091C511F091C611828D891710F40E9496
S113324010080F900FBE802FDF91CF910F91FF9048
S1133250EF90BF90AF909F908F9008958F929F9220
S1133260AF92BF92CF92DF92EF92FF920F93CF93E0
S1133270DF93DC01E114F10489F0E62FF0E0EE0FB6
S1133280FF1FEE0FFF1FE80FF91F87A490A8A1A846
S1133290B2A8F70180829182A282B38270E0FD011C
S11332A0E60FF71F93A982E083AB023001F118F413
S11332B0013031F04DC0033079F10430D1F148C010
S11332C0660F771F660F771FFD01E60FF71F87A4B0
S11332D090A8A1A8B2A8BA01A901482959296A2924
S11332E07B2947A750AB61AB72AB81E034C0660F5A
S11332F0771F660F771FFD01E60FF71F47A550A93B
S113330061A972A94F5F5F4F6F4F7F4F47A750ABC3
S113331061AB72AB81E01FC0660F771F660F771F2A
S1133320FD01E60FF71F27A730AB41AB52AB81E09D
S113333012C0923079F0660F771F660F771FFD0178
S1133340E60FF71F27A730AB41AB52AB81E003C0B8
S113335081E001C080E0913009F096C0909106119F
S113336091115FC01C96ED91FC911D971696CD911D
S1133370DC91179718962D913C9119973F832E83D2
S11333801896CD91DC91199716962D913C9117972B
S11333903D832C83418152819D012E5F3F4F421713
S11333A0530731F418964D915C91199752834183D8
S11333B01D961C921E921C979081915090835A9650
S11333C0EC915A97909115119E1710F4E0931511F2
S11333D09BE09E9FF0011124E95AFE4E0180F28188
S11333E0E02D1796FC93EE93169746815781199614
S11333F05C934E931897C681D7813D832C83378382
S113340026835A96EC915A979E9FF0011124E95A0B
S1133410FE4E1D96FC93EE931C9790819F5F9083C4
S113342021C062E371E1FB01C181D2815396DC9337
S1133430CE9352972E813F8155963C932E93549769
S11334404E815F819D01225F3F4FFA0135832483C2
S11334503F832E8359967C936E935897FB019081FA
S11334609F5F90835A962C91E091C511F091C611FB
S1133470928D921748F4C114D10419F091E0F60129
S1133480908391E090930F11DF91CF910F91FF9072
S1133490EF90DF90CF90BF90AF909F908F90089562
S11334A0009721F48091C5119091C6110FB6F8943C
S11334B00F9270E0FC01E60FF71F23A9223031F4CC
S11334C0FC01E60FF71F13AA81E001C080E00F9012
S11334D00FBE0895DC01E091D111F091D2118081E9
S11334E091E0811190E09C93911108C00780F085D0
S11334F0E02D6081718182819381089560E070E0A4
S1133500CB010895CF92DF92EF92FF920F931F9316
S1133510FC014283538364837583938782870417F2
S1133520150726073707C0F00C191D092E093F0996
S113353086859785A089B189081719072A073B074B
S113354000F5BF016E5F7F4F8091CF119091D01134
S11335500E94570780E018C00C151D052E053F0575
S113356028F44C155D056E057F0568F4BF016E5F98
S11335707F4F8091D1119091D2110E94570780E022
S113358003C081E001C081E01F910F91FF90EF9093
S1133590DF90CF9008950FB6F8940F928091CD11DB
S11335A09091CE11892BE9F48EED91E10E944207AE
S11335B083ED91E10E9442078EED91E19093D21147
S11335C08093D11183ED91E19093D0118093CF1129
S11335D040E067E08AE00E94F5099093CE11809361
S11335E0CD110F900FBE0895EF92FF920F93D3DF8A
S11335F08091CD119091CE11892B91F00F2EFBEC7F
S1133600EF2EF1E1FF2EF02D03E020E030E040EC5E
S113361050E067E474E088E591E00E94F61001C090
S113362080E00F91FF90EF9008958F929F92AF9258
S1133630BF92CF92DF92EF92FF920F931F93CF939B
S1133640DF93CDB7DEB727970FB6F894DEBF0FBE72
S1133650CDBFE091CD11F091CE11309781F1698306
S11336602A833B834C835D839F838E836630F4F48B
S1133670C4DB823069F400E0A7019601BE016F5FEC
S11336807F4F8091CD119091CE110E94180A18C0DD
S113369000E020E030E0A901BE016F5F7F4F809120
S11336A0CD119091CE110E94180A0AC020E0A80101
S11336B0BE016F5F7F4FCF010E94C80A01C080E046
S11336C027960FB6F894DEBF0FBECDBFDF91CF9122
S11336D01F910F91FF90EF90DF90CF90BF90AF902C
S11336E09F908F9008958F929F92AF92BF92CF92A6
S11336F0DF92EF92FF920F931F93CF93DF933BC020
S11337000780F085E02D80809180A280B380C08501
S1133710D1858E010E5F1F4FC8010E949407EC896A
S1133720FD89CE0119958E8982FF25C08E859F85DE
S1133730A889B989880D991DAA1DBB1D88169906EB
S1133740AA06BB0670F48A839B83AC83BD83DB87A4
S1133750CA87B8018091D1119091D2110E94570764
S11337600AC0C12CD12C760100E010E0A50194011F
S113377060E0CE015ADFE091D111F091D211808145
S11337808111BECF8091CF119091D0119093D2111D
S11337908093D111F093D011E093CF11DF91CF91A9
S11337A01F910F91FF90EF90DF90CF90BF90AF905B
S11337B09F908F900895CF92DF92EF92FF92CF93D4
S11337C0DF93EC010E9480116B017C018091C71191
S11337D09091C811A091C911B091CA11C816D90607
S11337E0EA06FB0620F47FDF81E0888301C01882AB
S11337F0C092C711D092C811E092C911F092CA11B7
S1133800C701B601DF91CF91FF90EF90DF90CF9089
S113381008954F925F926F927F928F929F92AF9290
S1133820BF92CF92DF92EF92FF920F931F93CF93A9
S1133830DF934B015C0129013A01E091D111F09130
S1133840D2110780F085E02DC085D185CE01029686
S11338500E9494078E8982FF1BC04E855F8568890C
S11338607989480D591D6A1D7B1D750164019301F9
S11338708201CE0147DE882369F0C12CD12C760168
S113388000E010E0A501940160E0CE01CEDE02C0AC
S11338908E7F8E8BEC89FD89CE011995DF91CF91B6
S11338A01F910F91FF90EF90DF90CF90BF90AF905A
S11338B09F908F907F906F905F904F9008958F921C
S11338C09F92AF92BF92CF92DF92EF92FF921F939B
S11338D0CF93DF931F92CDB7DEB76B017C01142F1A
S11338E00E947A11CE01019666DF4B015C01898149
S11338F081112DC011110DC08C149D04AE04BF04A0
S113390040F00E94BA12A5019401C701B60181DFFB
S113391020C0112341F0E091CF11F091D0118081AA
S113392011E0811110E0B701A601481959096A098B
S11339307B09212F8091CD119091CE110E94920B81
S11339400E94BA12811105C00E94100802C00E9490
S1133950BA120F90DF91CF911F91FF90EF90DF90FB
S1133960CF90BF90AF909F908F900895AF92BF92E9
S1133970CF92DF92EF92FF920F931F93CF93DF9337
S1133980CDB7DEB728970FB6F894DEBF0FBECDBF14
S113399082C0898188230CF47EC0AE80BF80D501AB
S11339A01C968D919C911D97892B21F0C50102963F
S11339B00E949407CE010896FEDE8B019C01E981EA
S11339C00E2E000CFF0BEA30F10508F064C08827C6
S11339D0EE58FF4F8F4F0C941B2FF50186898160A1
S11339E0868BCA80DB80EC80FD80468557856089A4
S11339F071894C0D5D1D6E1D7F1DC50183DD8823FE
S1133A0009F449C0D5015496ED91FC915597C5012F
S1133A101995F501868982FF3EC04A815B816C81DC
S1133A207D8186859785A089B1899A01AB01280F8C
S1133A30391F4A1F5B1FC12CD12C760100E010E016
S1133A4060E0C501F2DD27C0D50156968C915697EA
S1133A508E7F56968C931FC0F50186898160868B74
S1133A604A815B816C817D8146875787608B718B2E
S1133A70400F511F621F731F68017901C50142DDA8
S1133A800AC0F501868981FD04C0C5010E940507AD
S1133A9002C08E7F868B20E030E0A901BE016F5FFB
S1133AA07F4F8091CD119091CE110E94030B811113
S1133AB070CF28960FB6F894DEBF0FBECDBFDF914E
S1133AC0CF911F910F91FF90EF90DF90CF90BF9017
S1133AD0AF900895089584B1806884B985B18068F1
S1133AE085B9089583B1806883B90895F4DF2FEF11
S1133AF080E792E0215080409040E1F700C0000050
S1133B00F1DFF5CFE8DF2FEF87EA91E6215080401F
S1133B109040E1F700C00000E5DFF5CF6091E911C6
S1133B207091EA1121E030E040E050E083E090E061
S1133B300E94B3029093101380930F136091E911C4
S1133B407091EA1122E030E040E050E083E090E040
S1133B500E940102909314138093131308950F93FA
S1133B608091111390911213892B89F481E00E94A2
S1133B70BC0A9093121380931113009741F000E054
S1133B8020E030E0A90160E070E00E94180AC6DF7E
S1133B90409113135091141360910F1370911013EB
S1133BA084E090E00E946B040F9108950E94A804A1
S1133BB09093EA118093E91180E00E94DF2860E08D
S1133BC070E081E043D3CBCF0895F0DF0E9442112F
S1133BD0FFCF04D06894B11150C0089533D088F059
S1133BE09F5790F0B92F9927B751A0F0D1F0660FE5
S1133BF0771F881F991F1AF0BA95C9F712C0B13000
S1133C0081F03AD0B1E0089537C0672F782F882724
S1133C10B85F39F0B93FCCF3869577956795B3953E
S1133C20D9F73EF490958095709561957F4F8F4FAD
S1133C309F4F089557FD9058440F551F59F05F3F0B
S1133C4071F04795880F97FB991F61F09F3F79F0BA
S1133C5087950895121613061406551FF2CF46953C
S1133C60F1DF08C0161617061806991FF1CF8695BE
S1133C707105610508940895E894BB2766277727A2
S1133C80CB0197F90895FA01DC01AA0FBB1F9B0130
S1133C90AC01BF5728F422273327442750781FC08C
S1133CA0B75188F4AB2F0024469537952795011C0E
S1133CB0A395D2F3002069F0220F331F441FB3955C
S1133CC0DAF30DD076C061307105A0E88A07B946F1
S1133CD030F49B01AC0166277727882790783096CB
S1133CE021F0208331834283538308950BD0DDC0B8
S1133CF0CED028F0D3D018F0952309F0BFC0C4C0AB
S1133D001124BBCF97DFA0F3959FD1F3950F50E01B
S1133D10551F629FF001729FBB27F00DB11D639F79
S1133D20AA27F00DB11DAA1F649F6627B00DA11D1F
S1133D30661F829F2227B00DA11D621F739FB00DC5
S1133D40A11D621F839FA00D611D221F749F332735
S1133D50A00D611D231F849F600D211D822F762FCE
S1133D606A2F11249F5750408AF0E1F088234AF0CB
S1133D70EE0FFF1FBB1F661F771F881F9150504017
S1133D80A9F79E3F510570F079C077CF5F3FECF300
S1133D90983EDCF3869577956795B795F795E79503
S1133DA09F5FC1F7FE2B880F911D9695879597F914
S1133DB008955058BB27AA270ED077C068D030F09A
S1133DC06DD020F031F49F3F11F41EF45DC00EF469
S1133DD0E095E7FB53C0E92F2DDF80F3BA176207A4
S1133DE073078407950718F071F49EF545CF0EF418
S1133DF0E0950B2EBA2FA02D0B01B90190010C01F7
S1133E00CA01A0011124FF27591B99F0593F50F40E
S1133E10503E68F11A16F040A22F232F342F442766
S1133E20585FF3CF469537952795A795F04053955E
S1133E30C9F77EF41F16BA0B620B730B840BBAF02E
S1133E409150A1F0FF0FBB1F661F771F881FC2F799
S1133E500EC0BA0F621F731F841F48F487957795AD
S1133E606795B795F7959E3F08F0B3CF9395880F64
S1133E7008F09927EE0F97958795089597F99F670E
S1133E8080E870E060E008959FEF80EC08950024DE
S1133E900A941616170618060906089500240A94AB
S1133EA012161306140605060895092E0394000C31
S1133EB011F4882352F0BB0F40F4BF2B11F460FFC0
S1133EC004C06F5F7F4F8F4F9F4F08956530F1F4AB
S1133ED0FA0180818F7390E0982F88272181822BAB
S1133EE090930A02809309028281F0E48F9FC001BB
S1133EF01124FA01238126952695822B909308029A
S1133F008093070281E08093EB110895643051F0AF
S1133F1080E090E4909308028093070290930A0251
S1133F208093090208950F931F9306E61FE120E092
S1133F3034E244EF50E060E087E20E941929909354
S1133F40ED118093EC1121E0892B09F020E0822F00
S1133F501F910F9108958091EC119091ED110097AC
S1133F6059F040E060E070E00E946A29843031F446
S1133F701092EB1180E0089582E0089583E00895A3
S1133F808091EC119091ED11009739F064E00E945A
S1133F90B629853021F083E0089582E0089580E019
S1133FA008956091090270910A0280E090E00E94F5
S1133FB0BC2E20E030E048EC52E498DE20E038EFFC
S1133FC04FE756E40C944B2E0895EBDF20E030E0ED
S1133FD040E251E48BDE02DECB01089560910702DA
S1133FE07091080280E090E00E94BC2E20E030E056
S1133FF045E253E47BDE20E038EF4FE756E40E94CD
S11340004B2E20E030E040E252E4D3CE08950F93EB
S11340101F93CF93DF931F921F92CDB7DEB78C010E
S113402019822DC0E0912512EC3250F481E08E0FFC
S113403080932512F0E0E95AFD4E8A81808302C004
S1134040109225128A818A30D1F44091251250E0D1
S1134050FA01EB5AFD4E1082415051099E012F5F27
S11340603F4F67E572E180912812909129120E94D6
S1134070180E898181110E94100810922512BE0128
S11340806E5F7F4FC80105D6882361F20F900F90B1
S1134090DF91CF911F910F9108950F931F93CF93A9
S11340A0DF938C01EB0180912812909129120E94D8
S11340B0230DB8018EEE91E10E947A31209779F0B8
S11340C0EEEEF1E101900020E9F7319780E290E013
S11340D091838083BE018EEE91E10E946F31EEEEFA
S11340E0F1E1DF010D900020E9F711978DE09AE0EE
S11340F011969C938E9312961C9201900020E9F7DE
S11341003197EE5EF141AE2F8EEE91E1AC016A2F54
S113411080912A1290912B1267D5811111C008E267
S113412015E020E030E04DE250E061EB72E1809177
S11341302812909129120E945C0E81EB92E102C038
S113414080E090E0DF91CF911F910F9108952F921D
S11341503F924F925F926F927F928F929F92AF9213
S1134160BF92CF92DF92EF92FF920F931F93CF9360
S1134170DF935C01FC0101900020E9F731976F01A6
S1134180C81AD90A5C2C0F2EF8EE8F2EF6E09F2E5B
S1134190F02DE12CF12C4C2C3701F401018112811A
S11341A0E80109900020E9F72197C01BD10B3C2EB0
S11341B0F9E0CF16D10458F0F4012080FEE02F126C
S11341C006C0B801C5010E944A31892B09F5442D66
S11341D0351408F44C2F50E0B801C5010E94813118
S11341E0892B49F4F301EE0FFF1FE60DF71DE8518B
S11341F0F94F20800DC08FEFE81AF80AE3E08E0E25
S1134200911CF1E1EF16F10439F66894222424F8A4
S1134210822DDF91CF911F910F91FF90EF90DF904E
S1134220CF90BF90AF909F908F907F906F905F9052
S11342304F903F902F90089530DF89CF089580915B
S11342402812909129120C94230D08958F929F9215
S1134250AF92CF92EF920F931F93CF93C82F8B01FE
S113426041E060E070E088EC90E00E94F10C9093F3
S113427029128093281210932712009326120F2ECE
S1134280F7E08F2EF0E29F2EF02D6894AA24A6F872
S11342906894CC24C6F8E12C00E023E040E051EE21
S11342A060E070E08C2FD2D390932B1280932A126B
S11342B0E7E0F1E0808180618083CF911F910F91CD
S11342C0EF90CF90AF909F908F900895882331F016
S11342D0E8E0F1E080818F7E80830895E8E0F1E0FA
S11342E0808180618083089560E070E08EE694E0D0
S11342F0D4DEE1EBF2E101900020E9F73197E15BD4
S1134300F24181E0759708F080E00895CF93DF9340
S1134310EC0160E070E08FE794E0BFDEE1EBF2E1F6
S113432001900020E9F7E25CF24139F461EB72E1BB
S1134330CE010E947A3180E002C0188281E0DF91D0
S1134340CF910895FC0101900020E9F79F012151CC
S113435031092817390729F4BC018DEA94E06CCFA0
S1134360089589E00895FC0101900020E9F79F0178
S1134370215131092817390729F4BC018CEB94E049
S11343805BCF089589E00895FC0101900020E9F7CE
S11343909F01215231092817390729F4BC018BECFC
S11343A094E04ACF089589E0089560E070E08AE0DF
S11343B095E042CF08950F931F93E82FF0E0EE0F9E
S11343C0FF1FEC51F94F6081718183E195E034DF87
S11343D0811114C008E215E020E030E04DE250E025
S11343E061EB72E180912812909129120E945C0E77
S11343F0882321F081EB92E1AADE03C081EB92E1F4
S1134400A6DE1F910F9108950F931F93CF93DF930F
S11344101F92CDB7DEB7DB0111969C9111979531B0
S113442008F0B4C0992381F160E070E0272F30E0F8
S1134430462F50E0FD01E40FF51F928192959F7085
S11344409A3010F0995C01C0905DF901EE5BFD4E6D
S113445090832F5F3F4FFD01E40FF51F92819F7002
S1134460492F50E04A30510514F0995C01C0905D29
S1134470F901EE5BFD4E90837E5F6F5F11969C9118
S11344801197691798F201C070E0E72FF0E0EE5B36
S1134490FD4E10824C91811103C08CE195E002C065
S11344A08EE195E022E432E13F932F931F924F93E4
S11344B09F938F9382E295E09F938F9384E892E198
S11344C09F938F930E94233260E070E084E892E12E
S11344D0B3DE0FB6F894DEBF0FBECDBF811159C055
S11344E008E215E020E030E04DE250E061EB72E1DB
S11344F080912812909129120E945C0E882309F45D
S113450047C081EB92E123DE8E3009F042C087E0A0
S113451089838091261290912712892BA9F1BE01DB
S11345206F5F7F4F81EB92E168D180932C12E98118
S1134530F0E0EF54FD4EDF010D900020E9F71197F4
S1134540AE1BBF0BAA2391F0BB27CD0101979C01A1
S113455012F42F5F3F4F3595279520932D12AF010D
S11345604F5F5F4F64E18EE292E173D101E010E0AE
S113457020E030E046E150E06CE272E180912612E6
S1134580909127120E94530D8EE003C084E101C074
S113459080E00F90DF91CF911F910F9108958130AA
S11345A019F062E375E002C06BE076E086E395E023
S11345B043CE08959F938F9387E695E09F938F93BF
S11345C084E892E19F938F930E94233260E070E02D
S11345D084E892E131DE0F900F900F900F900F90CE
S11345E00F9008952F923F924F925F926F927F9215
S11345F08F929F92AF92BF92CF92DF92EF92FF92EF
S11346000F931F93CF93DF93CDB7DEB7A0970FB669
S1134610F894DEBF0FBECDBF64E975E080EA95E093
S11346203CDD95DD8111A3C080E2E2E2F2E0DE012F
S1134630119601900D928A95E1F79E012F5F3F4FED
S11346406901E12CF12C0F2EFCEAAF2EF5E0BF2E10
S1134650F02D04E812E10F2EF5EC4F2EF5E05F2E5D
S1134660F02D0F2EFCED8F2EF5E09F2EF02D0F2E4A
S1134670F6EF6F2EF5E07F2EF02D3E2C2F2CFF92BF
S1134680EF92BF92AF921F930F930E94233260E088
S113469070E0C80102DD5BDD0F900F900F900F906A
S11346A00F900F90811163C032E03E15E8F4F601DB
S11346B083818F9382818F9381818F9380818F9364
S11346C0FF92EF925F924F921F930F930E942332B7
S11346D060E070E0C801E1DC3ADD0FB6F894DEBFBB
S11346E00FBECDBF811143C02F923F929F928F92F4
S11346F01F930F930E94233260E070E0C801CDDC69
S113470026DD0F900F900F900F900F900F90811156
S11347102EC02F923F927F926F921F930F930E940D
S1134720233260E070E0C801B8DC11DD0F900F9017
S11347300F900F900F900F90811119C03FEFE31A63
S1134740F30A84E0C80ED11C98E0E916F10409F0DC
S113475094CF60E070E08EE096E09FDCF8DC81119D
S113476006C060E070E08FE196E097DCF0DCA09694
S11347700FB6F894DEBF0FBECDBFDF91CF911F916E
S11347800F91FF90EF90DF90CF90BF90AF909F90EC
S11347908F907F906F905F904F903F902F900895EF
S11347A0EF92FF920F931F93CF93DF93EC018B0152
S11347B07A0181E0F4DE81110DC0CE01D4DD8111D6
S11347C009C0C801E1DD811105C0C701BBDD81114C
S11347D001C0EBDDDF91CF911F910F91FF90EF901E
S11347E0089590E0FC01EE0FFF1F8E0F9F1FFC0148
S11347F0E851F94F818192810895DC01009729F1F4
S1134800FB012081FC0101900020E9F73197E81BAE
S1134810F90B822F90E0E817F907C8F080E008C090
S1134820880F382F330F330F830F8053890F2F5F77
S1134830FD01E20FF11D908130ED390F3A3010F493
S11348409111EECFFB012083089580E0089580E06C
S113485008950F931F93CF93DF93DC01EA01209710
S1134860E1F1FA0101900020E9F73197E41BF50B1F
S1134870329710F532C08D01040F151F30E0AE01E0
S1134880420F531FFA019081913428F09753592F06
S11348905295507F03C0592F5295507F2C0F3D1FC6
S11348A0F9019181913410F0975301C09053950F01
S11348B0F80190838F5F01C080E0282F220F482FDA
S11348C050E0FE0101900020E9F73197EC1BFD0B4D
S11348D04E175F0710F48613CECFDF91CF911F914F
S11348E00F9108958091E112860F8093E1129091C7
S11348F0E412913079F028F09230A9F0933019F154
S113490008956F3F09F048C01092E11281E080934E
S1134910E4120895663809F03FC01092E01282E074
S11349208093E4120895E091E01281E08E0F809369
S1134930E012F0E0E252FD4E6083823069F583E0DC
S11349408093E41208959091E01221E0290F2093BE
S1134950E012963009F581110EC0EEEDF2E180818E
S113496090E0982F88272181820F911D9093E61261
S11349708093E51204C01092E6121092E512109290
S1134980E412E091E212F091E312309729F0809161
S1134990E5129091E612199508958F929F92AF9225
S11349A0CF92EF920F930F2EF2E78F2EF4E29F2E09
S11349B0F02D6894AA24A4F86894CC24C4F8E12CBB
S11349C000E023E040E855E260E070E03FD09093DF
S11349D0E8128093E7120F91EF90CF90AF909F90E1
S11349E08F9008959093E3128093E2120895CF93E9
S11349F0DF93CDB7DEB729970FB6F894DEBF0FBEAD
S1134A00CDBF89E0E2E4F2E09E012F5F3F4FD90180
S1134A1001900D928A95E1F71092E6121092E51238
S1134A208091E7129091E812009731F0422F532FB2
S1134A3069E0DAD080E001C082E029960FB6F894EC
S1134A40DEBF0FBECDBFDF91CF9108952F923F926D
S1134A504F925F926F927F928F929F92AF92CF927A
S1134A60EF92FF920F931F93CF93DF93CDB7DEB7EF
S1134A70F82E2A013B0188E090E00E94322F8C013D
S1134A808F2D90E0FC01EE0FFF1FE751FD4E1183C7
S1134A9000830115110509F46AC0880F991FFC01F0
S1134AA0E55FFD4F80819181D8018D939C938C2D7E
S1134AB090E0880F991F880F991F0E94322F1C01C4
S1134AC086E090E00E94322F7C014C2DB1013ED54E
S1134AD0F801F582E4828A2D90E0880F991F880FEF
S1134AE0991F0E94322F1C0186E090E00E94322F11
S1134AF07C014A2DB1012AD5D8011396FC92EE927D
S1134B00129717969C928E921697FFB6F894ED9191
S1134B10FC91119736978081826080838D909C9060
S1134B20C301B2010E94BC2E20E030E040E051E419
S1134B30DDD89B01AC0160E074E284E79BE40E9451
S1134B404B2E20E030E040E85FE333D947D8F4014E
S1134B5032976083D801ED91FC911197359788E9DC
S1134B608083ED91FC91349786E08083FFBEC80179
S1134B70DF91CF911F910F91FF90EF90CF90AF9065
S1134B809F908F907F906F905F904F903F902F9069
S1134B900895CF93DF93DC01892B01F11296ED91F7
S1134BA0FC911397938182812581981B92238481A0
S1134BB09817B1F0838126952823C081D181C20F33
S1134BC0D11D68838F5F958189238383ED91FC9147
S1134BD0359780818062808380E003C081E001C0DA
S1134BE082E0DF91CF910895EF92FF920F931F938C
S1134BF0CF93DF937C01009709F441C0DC01129646
S1134C00ED91FC91139793818281981B8581982360
S1134C108481891B8617A8F1662341F1842F952F7F
S1134C20DC016150462F50E04F5F5F4F480F591F22
S1134C30E701EA81FB81938182812581981B92237C
S1134C408481981779F08C9193812695292360812A
S1134C5071818B01020F111DE80188839F5F85819B
S1134C60982393831196A417B50711F7D701ED91F3
S1134C70FC91359780818062808380E003C081E06D
S1134C8001C082E0DF91CF911F910F91FF90EF90CF
S1134C9008950097D1F0DC011496ED91FC911597DD
S1134CA093818281981799F09281858186958923D1
S1134CB0A081B181A80FB11D8C91DB018C939F5F02
S1134CC085819823928380E0089581E0089583E0AC
S1134CD008951F920F920FB60F9211240BB60F92E4
S1134CE02F933F934F935F936F937F938F939F93F0
S1134CF0AF93BF93CF93DF93EF93FF93A091E91208
S1134D00B091EA12109711F16091C6001496ED91DA
S1134D10FC911597938182812581981B922384812C
S1134D20981761F0838126952823C081D181C20F11
S1134D30D11D68838F5F9581892383831696ED91B6
S1134D40FC911797309711F0CD011995FF91EF91D0
S1134D50DF91CF91BF91AF919F918F917F916F918F
S1134D605F914F913F912F910F900BBE0F900FBE0B
S1134D700F901F9018951F920F920FB60F92112447
S1134D800BB60F922F938F939F93AF93BF93EF9391
S1134D90FF93E091E912F091EA123097B9F00280A2
S1134DA0F381E02D938182819817B1F092818581FE
S1134DB0282F26952923A081B181A20FB11D2C9102
S1134DC09F5F892382832093C6000BC0E1ECF0E04F
S1134DD080818F7D808305C0E1ECF0E080818F7D50
S1134DE08083FF91EF91BF91AF919F918F912F910C
S1134DF00F900BBE0F900FBE0F901F9018951F922F
S1134E000F920FB60F9211240BB60F922F933F936C
S1134E104F935F936F937F938F939F93AF93BF93BE
S1134E20CF93DF93EF93FF93A091EB12B091EC1229
S1134E30109711F16091CE001496ED91FC911597A5
S1134E40938182812581981B92238481981761F034
S1134E50838126952823C081D181C20FD11D688307
S1134E608F5F9581892383831696ED91FC91179723
S1134E70309711F0CD011995FF91EF91DF91CF910A
S1134E80BF91AF919F918F917F916F915F914F915E
S1134E903F912F910F900BBE0F900FBE0F901F905C
S1134EA018951F920F920FB60F9211240BB60F9202
S1134EB02F938F939F93AF93BF93EF93FF93E091BF
S1134EC0EB12F091EC123097B9F00280F381E02DEF
S1134ED0938182819817B1F092818581282F26953C
S1134EE02923A081B181A20FB11D2C919F5F892339
S1134EF082832093CE000BC0E9ECF0E080818F7DAB
S1134F00808305C0E9ECF0E080818F7D8083FF9190
S1134F10EF91BF91AF919F918F912F910F900BBE05
S1134F200F900FBE0F901F9018951F920F920FB6FF
S1134F300F9211240BB60F922F933F934F935F93CD
S1134F406F937F938F939F93AF93BF93CF93DF938D
S1134F50EF93FF93A091ED12B091EE12109711F11F
S1134F606091D6001496ED91FC91159793818281FE
S1134F702581981B92238481981761F0838126955B
S1134F802823C081D181C20FD11D68838F5F958191
S1134F90892383831696ED91FC911797309711F02E
S1134FA0CD011995FF91EF91DF91CF91BF91AF9111
S1134FB09F918F917F916F915F914F913F912F912D
S1134FC00F900BBE0F900FBE0F901F9018951F925D
S1134FD00F920FB60F9211240BB60F922F938F934B
S1134FE09F93AF93BF93EF93FF93E091ED12F091F2
S1134FF0EE123097B9F00280F381E02D9381828123
S11350009817B1F092818581282F26952923A081B4
S1135010B181A20FB11D2C919F5F892382832093BC
S1135020D6000BC0E1EDF0E080818F7D808305C068
S1135030E1EDF0E080818F7D8083FF91EF91BF915E
S1135040AF919F918F912F910F900BBE0F900FBE38
S11350500F901F9018951F920F920FB60F92112464
S11350600BB60F922F933F934F935F936F937F935E
S11350708F939F93AF93BF93CF93DF93EF93FF935C
S1135080A091EF12B091F012109711F160913601D6
S11350901496ED91FC911597938182812581981B3B
S11350A092238481981761F0838126952823C081F7
S11350B0D181C20FD11D68838F5F9581892383833A
S11350C01696ED91FC911797309711F0CD01199533
S11350D0FF91EF91DF91CF91BF91AF919F918F910C
S11350E07F916F915F914F913F912F910F900BBEE4
S11350F00F900FBE0F901F9018951F920F920FB62E
S11351000F9211240BB60F922F938F939F93AF930B
S1135110BF93EF93FF93E091EF12F091F012309769
S1135120B9F00280F381E02D938182819817B1F068
S113513092818581282F26952923A081B181A20FF0
S1135140B11D2C919F5F89238283209336010BC06C
S1135150E1E3F1E080818F7D808305C0E1E3F1E04C
S113516080818F7D8083FF91EF91BF91AF919F915B
S11351708F912F910F900BBE0F900FBE0F901F9029
S11351801895CF93DF931F92CDB7DEB7BE016F5F43
S11351907F4F8091F1129091F2127BDD8111F6CF55
S11351A0898190E00F90DF91CF910895682F8091CD
S11351B0F1129091F212EDDC80E090E008958F926C
S11351C09F92AF92CF92EF920F93812C912C68947F
S11351D0AA24A7F86894CC24C7F8E12C00E023E0C3
S11351E040E051EE60E070E031DC9093F212809385
S11351F0F112E9E1F3E183E192E091838083938307
S113520082830F91EF90CF90AF909F908F900895ED
S11352108091011381110CC08CE08093B8008FEF52
S11352208093BB0084E08093BC0081E080930113F1
S11352300895AF92BF92CF92DF92EF92FF920F93B5
S11352401F93CF93DF93A82EB62E69017A0184E0D1
S113525090E008D6EC01892B61F1A88281E0B812B4
S113526012C0C701B60120EA36E841E050E0C1D5DA
S1135270DA01C9014097A109B109B695A795979597
S11352808795898311C0C701B60120E83AE146E059
S113529050E0AFD5DA01C9014097A109B109B6952B
S11352A0A7959795879589831B830A838C2F9D2FB8
S11352B002C080E090E0DF91CF911F910F91FF90A9
S11352C0EF90DF90CF90BF90AF9008958091BC0095
S11352D081700895FF920F931F93CF93DF930097EC
S11352E0D1F14A30D0F5F42E8B01EC01EFDF8111BE
S11352F036C08091F4129091F512C817D90741F085
S113530087DF89818093B800D093F512C093F4129B
S113531081E08F0D8093F6128881880F8093F712B5
S1135320FF2089F0F801A8EFB2E14FEF4F0D642F91
S113533070E0CB010196B801680F791F81918D93BC
S1135340E617F707D9F788EF8093210285EA80935F
S1135350BC0084E005C086E003C087E001C082E0B1
S1135360DF91CF911F910F91FF9008951F93CF93D9
S1135370DF93009729F16B3028F5162FEC01A6DF97
S1135380811122C08091F4129091F512C817D907A7
S113539041F03EDF89818093B800D093F512C09329
S11353A0F4121093F6128881880F81608093F712AB
S11353B088EF8093210285EA8093BC0085E005C0D4
S11353C086E003C087E001C082E0DF91CF911F91A6
S11353D008951F920F920FB60F9211240BB60F92DD
S11353E02F933F934F935F936F937F938F939F93E9
S11353F0AF93BF93EF93FF93E091B9008E2F90E0AA
S1135400FC013897E135F10508F075C08827E458A8
S1135410FF4F8F4F10C51092F312E091F312809159
S1135420F612E81770F481E08E0F8093F312F0E027
S1135430E950FD4E80818093BB0085E88093BC00D9
S113544072C084E98093BC008091F4129091F512AB
S1135450DC011296ED91FC911397309709F463C027
S113546020E040E050E064E019955DC0E091F31263
S113547081E08E0F8093F3128091BB00F0E0E9503D
S1135480FD4E80838091B900803411F41092F312A0
S11354902091F31230E08091F61290E001972817E2
S11354A0390724F485EC8093BC003DC085E88093E3
S11354B0BC0039C08091BB00E091F312F0E0E950E8
S11354C0FD4E808384E98093BC008091F412909116
S11354D0F512DC011296ED91FC911397309719F1B6
S11354E02091F61247EF52E165E019951CC085EA58
S11354F08093BC0018C08091B9008093210284E09D
S11355008093BC008091F4129091F512DC01129604
S1135510ED91FC911397309731F020E040E050E09A
S1135520609121021995FF91EF91BF91AF919F91E5
S11355308F917F916F915F914F913F912F910F9038
S11355400BBE0F900FBE0F901F901895FC014111D8
S113555001C0A9D5842F90E09C01215031098223F8
S11355609323892B09F09FD5413808F09CD51282EA
S113557013824483440F415045837183608380E0E8
S113558090E008952F923F924F925F926F927F9294
S11355908F929F92AF92BF92CF92DF92EF92FF923F
S11355A00F931F93CF93DF93CDB7DEB760970FB6FA
S11355B0F894DEBF0FBECDBF7C011B016A01FC0164
S11355C017821682838181FF2AC39E012F5F3F4F7A
S11355D03901F7019381F10193FD859193FF819145
S11355E01F01882309F417C3853239F493FD85918B
S11355F093FF81911F01853231F4B70190E0A4D665
S113560056016501E6CF10E0512C912CFFE1F9150C
S1135610D8F08B3279F038F4803279F08332A1F407
S1135620F92DF0612EC08D3261F0803369F4292D9B
S113563021602DC0392D3260932E892D8460982EDF
S11356402AC0E92DE86015C097FC2DC020ED280F75
S11356502A3088F496FE06C03AE0139F200D1124E8
S1135660122F19C08AE0589E200D1124522EE92DC4
S1135670E0629E2E10C08E3231F496FCCCC2F92D1D
S1135680F0649F2E08C08C3621F4292D2068922EB8
S113569002C0883641F4F10193FD859193FF819115
S11356A01F018111B3CF9BEB980F933020F4992DF8
S11356B09061805E07C09BE9980F933008F059C150
S11356C0992D9F7E96FF16E09F73992E853619F4C7
S11356D09064992E08C0863621F4392F3068932EB1
S11356E002C01111115097FE07C01C3350F444241A
S11356F04394410E27E00BC0183038F027E017E040
S113570005C027E09CE3492E02C0212F412C5601FD
S113571084E0A80EB11CF6016081718182819381BD
S1135720042DA301C4D46C01F981FC87F0FF02C0ED
S1135730F3FF06C091FC06C092FE06C000E205C05D
S11357400DE203C00BE201C000E08C858C7019F0FF
S1135750011143C280C297FE10C04C0CFC85F4FFBB
S113576004C08A81813309F44A94141474F528E03E
S1135770241578F588E0482E2CC096FC2AC0812F89
S113578090E08C159D059CF03CEFC3163FEFD306CB
S113579074F0892D8068982E0AC0E2E0F0E0EC0FE6
S11357A0FD1FE10FF11D8081803319F41150111197
S11357B0F4CF97FE0EC044244394410E812F90E011
S11357C0C816D9062CF41C1904C04424439401C0FF
S11357D010E097FE06C01C141D0434F4C6010196A3
S11357E005C085E090E002C081E090E001110196DF
S11357F0112331F0212F30E02F5F3F4F820F931F91
S1135800252D30E08217930714F4581A01C0512C47
S1135810892D897041F4552031F0B70180E290E080
S113582093D55A94F8CF002321F0B701802F90E04C
S11358308BD593FC08C0552031F0B70180E390E08C
S113584083D55A94F8CF97FE4AC04601D7FE02C0CA
S1135850812C912CC60188199909F301E80FF91FCD
S1135860FE87ED87960124193109388B2F87012F84
S113587010E01195019511093FEF8316930621F469
S1135880B7018EE290E060D5C814D9044CF08F853E
S113589098898815990524F4ED85FE85818101C0D8
S11358A080E3F1E08F1A91082D853E852F5F3F4FED
S11358B03E872D878016910624F0B70190E044D5E9
S11358C0DBCFC814D90441F49A81963320F495337C
S11358D019F43C8534FF81E3B70190E048C08A8124
S11358E0813319F09C859F7E9C87B70190E02CD56D
S11358F0111105C094FC16C085E690E015C0B701EF
S11359008EE290E021D51E5F82E001E0080FF301F2
S1135910E80FF11D8081B70190E016D5802F0113A7
S1135920F4CFE8CF85E490E0B7010ED5D7FC06C0EC
S1135930C114D10441F4EC85E4FF05C0D194C194B1
S1135940D1088DE201C08BE2B70190E0FDD480E381
S11359502AE0C216D1042CF08F5FFAE0CF1AD108E6
S1135960F7CFB70190E0F0D4B701C601C096ECD4EC
S113597049C1833631F0833779F0833509F052C059
S11359801FC0560132E0A30EB11CF6018081898349
S113599001E010E0630111C05601F2E0AF0EB11C4A
S11359A0F601C080D18096FE03C0612F70E002C072
S11359B06FEF7FEFC601BDD48C01F92DFF7713C0C3
S11359C0560122E0A20EB11CF601C080D18096FEE1
S11359D003C0612F70E002C06FEF7FEFC6013FD4B8
S11359E08C01F92DF0689F2EF3FD18C0852D90E0F1
S11359F00817190798F4B70180E290E0A5D45A94E7
S1135A00F5CFF60197FC859197FE81916F01B7015F
S1135A1090E09AD451105A940150110901151105BE
S1135A2081F7F0C0843611F0893659F5560197FE96
S1135A3009C024E0A20EB11CF6016081718182814B
S1135A4093810AC0F2E0AF0EB11CF601608171814E
S1135A50072E000C880B990BF92DFF769F2E97FFCC
S1135A6009C090958095709561957F4F8F4F9F4F9A
S1135A70F0689F2E2AE030E0A30113D5C82EC61883
S1135A803EC0092D853721F40F7E2AE030E01DC089
S1135A90097F8F3691F018F4883559F0BCC08037EF
S1135AA019F0883711F0B7C0006104FF09C0046021
S1135AB007C094FE08C0066006C028E030E005C0B8
S1135AC020E130E002C020E132E0560107FF09C0C6
S1135AD084E0A80EB11CF6016081718182819381FA
S1135AE008C0F2E0AF0EB11CF6016081718180E064
S1135AF090E0A301D6D4C82EC6180F77902E96FE38
S1135B000BC0092D0E7FC11650F494FE0AC092FCFE
S1135B1008C0092D0E7E05C0DC2C092D03C0DC2C29
S1135B2001C0D12E04FF0DC0FE01EC0DF11D8081DA
S1135B30803311F4097E09C002FF06C0D394D394C4
S1135B4004C0802F867809F0D39403FD10C000FFB1
S1135B5006C01C2DD51478F4150D1D190CC0D514D0
S1135B6050F4B70180E290E0EFD3D394F8CFD5148A
S1135B7010F45D1801C0512C04FF0FC0B70180E37D
S1135B8090E0E2D302FF16C001FD03C088E790E075
S1135B9002C088E590E0B7010CC0802F867851F0F0
S1135BA001FF02C08BE201C080E207FD8DE2B70174
S1135BB090E0CAD3C11630F4B70180E390E0C4D3B7
S1135BC01150F8CFCA94F301EC0DF11D8081B70197
S1135BD090E0BAD3C110F6CF15C0F4E0F51550F536
S1135BE084E0581A93FE1EC0011125C02C8523FFA2
S1135BF027C00AE911E0392D3071932EF801849100
S1135C00811121C0552009F4FCCCB70180E290E059
S1135C109BD35A94F7CFF7018681978123C08FEFE6
S1135C209FEF20C0B70180E290E08ED35A945110C8
S1135C30F9CFDACF512CB701802F90E085D3D6CF9E
S1135C400EE911E0D8CF91108052B70190E07CD3D7
S1135C500F5F1F4FD3CF23E0251510F483E0C1CF8E
S1135C60512CC4CF60960FB6F894DEBF0FBECDBFE3
S1135C70DF91CF911F910F91FF90EF90DF90CF9024
S1135C80BF90AF909F908F907F906F905F904F9058
S1135C903F902F90089512D00C94551F0E944E1FD0
S1135CA058F00E94471F40F029F45F3F29F00C94FC
S1135CB03E1F51110C943D1E0C94441F0E941A1E49
S1135CC068F39923B1F3552391F3951B550BBB2727
S1135CD0AA2762177307840738F09F5F5F4F220F6C
S1135CE0331F441FAA1FA9F335D00E2E3AF0E0E863
