:1000000067C1000086C1000084C1000082C10000F9
:1000100080C100007EC100007CC100007AC10000E8
:1000200078C1000076C1000074C1000072C10000F8
:100030000C94B70A6EC100006CC100006AC10000D8
:1000400068C1000066C1000064C1000062C1000018
:1000500060C100005EC100005CC100005AC1000028
:1000600058C100000C94492A0C949B2A52C10000EC
:1000700050C100004EC100004CC100004AC1000048
:1000800048C1000046C1000044C1000042C1000058
:100090000C94DF2A0C94312B3CC100000C94712F7E
:1000A00038C1000036C1000034C1000032C1000078
:1000B00030C100002EC100002CC100002AC1000088
:1000C00028C1000026C1000024C100000C94752B3B
:1000D0000C94C72B1EC100000C940B2C0C945D2CAF
:1000E00018C10000912091209120C820D020E52047
:1000F00091209120C820D020932F0330033003306B
:100100000330033003300330932F033003300330C8
:100110000330033003300330952F033003300330B6
:100120000330033003300330033003300330033037
:100130000330033003300330952F03300330033096
:100140000330033003300330033003300330033017
:100150000330033003300330FF2F0330033003300C
:100160000330033003300330CA2F03300330033031
:1001700003300330033003300330033003300330E7
:100180000330033003300330BE2F0330033003301D
:100190000330033003300330E22F6E616E00696E6E
:1001A000660000407A10F35A00A0724E1809001041
:1001B000A5D4E80000E87648170000E40B540200DC
:1001C00000CA9A3B000000E1F50500008096980007
:1001D000000040420F000000A08601000000102730
:1001E00000000000E80300000000640000000000C0
:1001F0000A00000000000100000000002C76D888F2
:10020000DC674F0823DFC1DFAE59E1B1B796E5E304
:10021000E453C63AE651997696E8E6C28426EB891D
:100220008C9B62ED407C6FFCEFBC9C9F40F2BAA5BA
:100230006FA5F490055A2AF75C936B6CF9676DC152
:100240001BFCE0E40D47FEF520E6B500D0ED902E56
:100250000300943577050080841E080000204E0AB4
:10026000000000C80C333333330F986E12831141F2
:10027000EF8D2114893BE65516CFFEE6DB18D184BD
:100280004B381BF77C1D901DA4BBE42420328472E4
:100290005E228100C9F124ECA1E53D270E94D21223
:1002A00080913B13823010F00E94F1090E940E21D0
:1002B000F5CFCF93DF931F92CDB7DEB7CE01019676
:1002C0000E940E1E49810E9403200E945A20F6CFF0
:1002D00011241FBECFEFD1E2DEBFCDBF00E00CBFC7
:1002E00018E0A0E0B2E0E6EFF0E700E00BBF02C0EC
:1002F00007900D92AA3EB107D9F725E1AAEEB8E022
:1003000001C01D92A531B207E1F70E94C5210C94EE
:10031000793876CE9093F6148093F5140895CF93A0
:10032000DF9300D01F92CDB7DEB75C010E9423148B
:1003300069837A838B839C8340EE53E060E070E0B6
:10034000CE0101960E9439164091F7145091F8148D
:100350006091F9147091FA14CC24CA94DC2C7601C3
:1003600001E020E08091FD149091FE14E5D40E94FC
:10037000D7288093F4148111DFCF8091FB149091E2
:10038000FC140097C9F24AE050E060E070E00E947F
:10039000830D813021F58091F5149091F614F501CB
:1003A000918380838091F6148F938091F5148F93BD
:1003B0008FE692E09F938F930E94AA3700E020E09F
:1003C00030E0A90160E070E08091FB149091FC1492
:1003D0000E94090C0F900F900F900F90ADCF86E701
:1003E00092E09F938F930E94AA370F900F90A4CF13
:1003F000FC01808191810895EF92FF920F93CF933A
:10040000DF93082FEB014091F7145091F81460919D
:10041000F9147091FA148091FD149091FE142CD56A
:10042000E12CF12C9E0144E251E067E972E08FE893
:1004300091E00E9499138FE992E00E94BD37DF910D
:10044000CF910F91FF90EF9008958F929F92AF926E
:10045000BF92CF92DF92EF92FF920F931F93CF93B1
:10046000DF937C016B0149015A0182E090E00E9418
:10047000FC34EC01892BF9F019821882D092FE1419
:10048000C092FD148092F7149092F814A092F9147F
:10049000B092FA141093FC140093FB1483E00E94B2
:1004A000AD288AE891E00E94D228BE01C701A4DFEE
:1004B0008C2F9D2F02C080E090E0DF91CF911F91A3
:1004C0000F91FF90EF90DF90CF90BF90AF909F90F3
:1004D0008F900895EF92FF920F93CF93DF93082FA1
:1004E000EB018FEA92E09F938F930E94AA37E12C51
:1004F000F12C9E0148E851E06AEB72E08AEB92E051
:100500000E9499130F900F90DF91CF910F91FF9060
:10051000EF9008950F931F93CF93DF93EC0184ED39
:1005200092E09F938F930E94AA370FEF1FEF9801DD
:1005300046E150E06AEE78E0CE010E94FE10EAEE5D
:10054000F8E0918180811F929F931F928F938FED8E
:1005500092E09F938F930E94AA378DB79EB708961B
:100560000FB6F8949EBF0FBE8DBFDF91CF911F9144
:100570000F910895EC01CE01CDDFFDCF0F931F93B6
:10058000CF93DF9300D000D0CDB7DEB7813009F034
:100590007CC08B01CE0101960E94A32D81110FC05A
:1005A0008A818F9389818F9380E193E09F938F93CA
:1005B0000E94AA370F900F900F900F9006C08330C3
:1005C00021F480E293E00E94BD37CE0101960E94A3
:1005D000772D81110FC08A818F9389818F938BE54D
:1005E00093E09F938F930E94AA370F900F900F90E4
:1005F0000F9006C0833021F48DE693E00E94BD3752
:10060000CE0101960E94952D81110FC08A818F9392
:1006100089818F9381EA93E09F938F930E94AA37F9
:100620000F900F900F900F9006C0833021F484EB51
:1006300093E00E94BD37CE0103960E94B12D811137
:100640001EC06B817C818D819E810E94CE21F8012C
:10065000718360838E818F938D818F938C818F9333
:100660008B818F9389EE93E09F938F930E94AA379B
:100670000F900F900F900F900F900F9006C0833047
:1006800021F485EF93E00E94BD3726960FB6F894CB
:10069000DEBF0FBECDBFDF91CF911F910F910895A7
:1006A0008F929F92AF92BF92EF92FF920F931F9300
:1006B000CF93DF937B0149015A0162E070E081E052
:1006C00090E00E94E234EC01892B09F11982188232
:1006D0008092F7149092F814A092F914B092FA1440
:1006E000F092FE14E092FD141093FC140093FB149E
:1006F0008EEB92E00E94472D811104C085E294E0C8
:100700000E94BD370E94622D8C2F9D2F02C080E079
:1007100090E0DF91CF911F910F91FF90EF90BF90EC
:10072000AF909F908F900895FC01808191810895F2
:100730000F93CF93DF932091FB143091FC1421157C
:10074000310549F1EC014AE050E060E070E0C90198
:100750000E94830D8130B9F40E94CE23688379838F
:100760008A839B830E94C5239D838C8300E020E0C5
:1007700030E0A90160E070E08091FB149091FC14DE
:100780000E94090C08C086E792E09F938F930E9415
:10079000AA370F900F90DF91CF910F910895CF93CB
:1007A000DF9300D01F92CDB7DEB75C010E94231407
:1007B00069837A838B839C8342EA53E060E070E034
:1007C000CE0101960E9439160E948B23882321F0C6
:1007D00089E494E00E94BD374091F7145091F814D9
:1007E0006091F9147091FA14CC24CA94DC2C76012F
:1007F00001E020E08091FD149091FE149DD264E010
:1008000070E080E090E00E949E160E94A02360E0CD
:1008100070E0CB010E949E16C5018ADFCDCFEF921A
:10082000FF920F93CF93DF93EC01062F4091F714C3
:100830005091F8146091F9147091FA148091FD149C
:100840009091FE1419D3E12CF12C9E0140EC50E064
:1008500063E674E08FEC93E00E949913DF91CF91EF
:100860000F91FF90EF9008958F929F92AF92BF9259
:10087000CF92DF92EF92FF920F931F93CF93DF936C
:100880007C016B0149015A0186E090E00E94FC3432
:10089000EC01892B21F1188219821A821B821D8298
:1008A0001C82D092FE14C092FD148092F714909294
:1008B000F814A092F914B092FA141093FC14009357
:1008C000FB140E947323811104C084E794E00E940A
:1008D000BD37B701CE01A3DF8C2F9D2F02C080E072
:1008E00090E0DF91CF911F910F91FF90EF90DF90FB
:1008F000CF90BF90AF909F908F900895FC01608142
:100900007181828193810895FC018481958108958C
:100910000F931F93CF93DF93CDB7DEB764970FB6D6
:10092000F894DEBF0FBECDBF0E9454250E94D12790
:100930009F938F938DE894E09F938F930E94AA37A3
:100940000E94D2260E94D1279F938F9380EA94E041
:100950009F938F930E94AA378E010F5F1F4FC8018C
:100960000E9466250E94D1271F930F939F938F9318
:1009700089EB94E09F938F930E94AA37C8010E944D
:1009800082250E94D1279F938F931F930F938DEC05
:1009900094E09F938F930E94AA37A80162EE74E0BF
:1009A00083E095E00E94B0270E94D1279F938F9308
:1009B0001F930F9382EE94E09F938F9383E095E0D3
:1009C0009F938F9384E195E09F938F930E94AA3722
:1009D0000E94B5250E94D1279F938F938AE495E0CA
:1009E0009F938F930E94AA370FB6F894DEBF0FBE75
:1009F000CDBF81E00E94AF260E94D1279F938F93A5
:100A000089E595E09F938F930E94AA3784EF91E048
:100A10000E94BA260E94D1279F938F9381E08F93E3
:100A200084EF8F938AE795E09F938F930E94AA3774
:100A30000FB6F894DEBF0FBECDBF1AE080E00E9473
:100A4000BB25082F0E94D1279F938F931F921F933E
:100A50008AE995E09F938F930E94AA370F900F9099
:100A60000F900F900F900F90083041F066E371E007
:100A700080E090E00E949E16115001F7083011F0BE
:100A8000B0D4FECF64960FB6F894DEBF0FBECDBFD4
:100A9000DF91CF911F910F910895CF93DF93CDB741
:100AA000DEB728970FB6F894DEBF0FBECDBF81E04A
:100AB0000E94462562E070E080E090E00E949E1671
:100AC00080E00E94462566E970E080E090E00E94A8
:100AD0009E160E94FF241CDF0E94231469837A83E0
:100AE0008B839C8344E457E060E070E0CE01019684
:100AF0000E943916E0E0F9E085E0818381E080839F
:100B00008091FB149091FC14009709F44EC04AE0C8
:100B100050E060E070E0F7D78130A1F580910315D7
:100B200090910415EBDE362E872E982E192F80918A
:100B3000031590910415E8DE9C01ADECBCEC0E941D
:100B4000D3347C01F694E794F694E794F694E79412
:100B500080910115909102154BDCB82EA92E809141
:100B6000FF1490910015E0DDD82EC92E00E020E0A2
:100B700030E0A90160E070E08091FB149091FC14DA
:100B800048D61DC086E792E09F938F930E94AA37B4
:100B90000F900F90D12CC12CB12CA12CE12CF12C59
:100BA000312C812C912C10E00AC0D12CC12CB12CFD
:100BB000A12CE12CF12C312C812C912C10E01D82E8
:100BC0001E821F821886AE014B5F5F4F632D782D0A
:100BD000892D912F0E94232220E030E048EC52E43E
:100BE0000E9456222B013C011F939F928F923F92AD
:100BF0008AEB95E09F938F930E94AA376D817E8147
:100C00008F8198850E94C92100E019E0F801628374
:100C1000C301B2010E94C921F8016383FF92EF92E0
:100C200084EC95E09F938F930E94AA37F801E482A9
:100C3000AF92BF9282ED95E09F938F930E94AA3767
:100C4000F801A582B682CF92DF928BED95E09F935B
:100C50008F930E94AA37F801C782D086B80180E03E
:100C60000E94E4250E94D1279F938F938EEE95E0FA
:100C70009F938F930E94AA370FB6F894DEBF0FBEE2
:100C8000CDBF30CFEF92FF920F931F937093041557
:100C90006093031550930215409301153093FC1493
:100CA0002093FB14109300150093FF14E12CF12CFA
:100CB000082F20E030E048E851E063E076E08DE482
:100CC00095E00E9499131F910F91FF90EF90089566
:100CD0000F9301110CC0DC01CB0182239323A423C9
:100CE000B523892B8A2B8B2B79F480E010C0DC0193
:100CF000CB0182239323A423B523281739074A075E
:100D00005B0721F080E003C081E001C081E00F912A
:100D10000895CF93DF938FE090E0AFD1EC0100977F
:100D200039F0FC011192119211921192CF018BD2E4
:100D3000CE01DF91CF9108952F923F924F925F9213
:100D40006F927F928F929F92AF92BF92CF92DF92DB
:100D5000EF92FF920F931F93CF93DF93EC014A0121
:100D60005B01622E702E0E941D14288039804A80FB
:100D70005B80A5019401C201B101AADF8823A1F023
:100D8000662089F1D501C40180959095A095B09514
:100D900082219321A421B52188839983AA83BB83CF
:100DA000C12CD12C760122C0C114D104E104F1047C
:100DB000E9F0611004C040E050E0BA0104C040E036
:100DC00050E060E071E071107460482959296A2987
:100DD0007B2997018601CE0104960E943517212CAC
:100DE000312C210103C0C12CD12C76010E945D154C
:100DF000CD28CE28CF2859F1811101C0F2D20E940E
:100E0000F71A6B017C0191FD1FC00FB6F8940F9289
:100E1000C880D980EA80FB80072DA5019401C70115
:100E2000B60156DF882371F0662061F080949094BB
:100E3000A094B0948C209D20AE20BF2088829982FF
:100E4000AA82BB820F900FBE160127015524C20152
:100E5000B101DF91CF911F910F91FF90EF90DF9043
:100E6000CF90BF90AF909F908F907F906F905F904A
:100E70004F903F902F9008954F925F926F927F9284
:100E8000AF92BF92CF92DF92EF92FF920F931F9398
:100E9000CF93DF93EC016A017B018C01095F1F4F47
:100EA0000E941D14EB85FC8588819981AA81BB81F4
:100EB000C82AD92AEA2AFB2AC882D982EA82FB8276
:100EC000C12CD12C76013DC0A480B5808081918158
:100ED000A281B381AC01BD017727B2FD0EC048806D
:100EE00059806A807B8044225522662277224528D9
:100EF0004628472889F420E012C0488059806A803B
:100F00007B804422552266227722441555056605CA
:100F1000770521F020E003C021E001C021E0222379
:100F200071F0B0FF04C0C42AD52AE62AF72A488106
:100F300059816A817B817260CF010E947018EA2D0D
:100F4000FB2DE017F10709F0BFCFC094D094E094D7
:100F5000F09488819981AA81BB81C822D922EA2292
:100F6000FB22C882D982EA82FB820E945D156881D9
:100F700079818A819B81DF91CF911F910F91FF90A1
:100F8000EF90DF90CF90BF90AF907F906F905F9089
:100F90004F900895E2E2F9E0A6E2B9E0B183A083C0
:100FA00013821282E6EEF2E1F0932109E093200928
:100FB000138212821182108280EC99E013969C9326
:100FC0008E931297ED93FC9390931D0980931C09C7
:100FD00090931F0980931E0980E090E89093170971
:100FE000809316090895CF93DF93EC01A2E2B9E054
:100FF00001C0DF01ED91FC911197EC17FD07C8F3DB
:1010000012968D919C9113979D01280F391FC2173D
:10101000D30749F42A813B81820F931F13969C9337
:101020008E931297ED018A819B819E01280F391FB3
:10103000E217F307C1F42091200930912109E2174A
:10104000F30771F022813381820F931F9B838A8380
:10105000ED91FC911197808191819983888305C0DE
:101060003983288302C0F983E883CA17DB0711F0AC
:10107000CD93DC93DF91CF910895EF92FF920F9380
:101080001F93CF93DF938C010E941D148091200940
:1010900090912109892B09F47DDF809116099091A7
:1010A000170980239123892B09F076C001151105BA
:1010B00049F0C80104960817190718F000E010E07D
:1010C00001C08C010115110509F469C080911E0948
:1010D00090911F098017910708F464C0C0912209FC
:1010E000D0912309E2E2F9E002C0FE01EC018A811D
:1010F0009B818017910720F4888199810097A9F737
:101100008091200990912109C817D90709F44DC091
:10111000E080F18084E0E80EF11C88819981918360
:1011200080832A813B81201B310B2930310548F017
:10113000CE01800F911FFC01338322831B830A831E
:1011400052DF2A813B8180911E0990911F09821BE9
:10115000930B90931F0980931E0940911C09509195
:101160001D098417950720F490931D0980931C098D
:101170008091160990911709282B392B3B832A83DC
:101180001982188280911A0990911B0901969093F7
:101190001B0980931A090BC0E12CF12C08C0E12C2B
:1011A000F12C05C0E12CF12C02C0E12CF12C0E94A5
:1011B0005D15E114F10411F40E941A21C701DF91B9
:1011C000CF911F910F91FF90EF9008950F931F9370
:1011D000CF93DF93009791F1EC0124974A815B81D3
:1011E0002091160930911709BA0162237323672BE6
:1011F00029F168817981672B09F5209530952423A1
:1012000035233B832A830E941D148A819B81209170
:101210001E0930911F09820F931F90931F0980931D
:101220001E09CE01E0DE80911809909119090196FE
:1012300090931909809318090E945D15DF91CF9151
:101240001F910F910895FC010396928381834FEFC4
:101250005FEFBA01438354836583768390878783E6
:101260009287818710820895FC0113861286089563
:101270000F931F93CF93DF93EB01088119812A818C
:101280003B810F3F4FEF14072407340721F4FC0183
:10129000A185B28511C0DC01139601C0DF0114964F
:1012A000ED91FC9115974081518162817381041702
:1012B00015072607370790F71496ED91FC911597BF
:1012C000FD83EC83D783C683BF83AE831596DC93FF
:1012D000CE9314979B878A87FC0120812F5F208300
:1012E000DF91CF911F910F910895CF93DF93FC0170
:1012F000A285B385C481D581868197819F838E83A2
:10130000C681D781848195819D838C8311968D912F
:101310009C911297E817F90731F48681978112960C
:101320009C938E931197138612868C9181508C9387
:101330008C91DF91CF910895A89590EC88E10FB63C
:10134000F894A895809360000FBE90936000089574
:10135000FC0160833197708331971082319710823E
:10136000319720E82083319710823197108231978E
:101370001082779740833197508386970895DCDFFA
:10138000A091A913B091AA13CD91CDBFDD91DEBF7D
:10139000FF91EF91DF91CF91BF91AF919F918F918D
:1013A0007F916F915F914F913F912F911F910F917D
:1013B000FF90EF90DF90CF90BF90AF909F908F9075
:1013C0007F906F905F904F903F902F901F900F9065
:1013D0000CBE0F900BBE0F900FBE0F90089581E0D2
:1013E00008950F920FB6F8940F920BB60F920CB6A9
:1013F0000F921F9211242F923F924F925F926F9201
:101400007F928F929F92AF92BF92CF92DF92EF9294
:10141000FF920F931F932F933F934F935F936F937D
:101420007F938F939F93AF93BF93CF93DF93EF936C
:10143000FF93A091A913B091AA130DB60D920EB609
:101440000D920E94B916A091A913B091AA13CD9143
:10145000CDBFDD91DEBFFF91EF91DF91CF91BF91C5
:10146000AF919F918F917F916F915F914F913F913C
:101470002F911F910F91FF90EF90DF90CF90BF9031
:10148000AF909F908F907F906F905F904F903F9024
:101490002F901F900F900CBE0F900BBE0F900FBEA1
:1014A0000F9008950F920FB6F8940F920BB60F920B
:1014B0000CB60F921F9211242F923F924F925F927F
:1014C0006F927F928F929F92AF92BF92CF92DF9254
:1014D000EF92FF920F931F932F933F934F935F933E
:1014E0006F937F938F939F93AF93BF93CF93DF932C
:1014F000EF93FF93A091A913B091AA130DB60D928B
:101500000EB60D9213BE0E94311481110E94B916BD
:10151000A091A913B091AA13CD91CDBFDD91DEBFEB
:10152000FF91EF91DF91CF91BF91AF919F918F91FB
:101530007F916F915F914F913F912F911F910F91EB
:10154000FF90EF90DF90CF90BF90AF909F908F90E3
:101550007F906F905F904F903F902F901F900F90D3
:101560000CBE0F900BBE0F900FBE0F9008959ADF28
:101570001895DC0153962C915397222341F05A96EB
:10158000ED91FC915B9790818AE0891B089580E042
:1015900008950FB6F8940F92FC01868D811102C058
:1015A00081E001C080E00F900FBE08950FB6F8945F
:1015B0000F92FC01268D878D281302C081E001C0A7
:1015C00080E00F900FBE08950F931F93CF93DF938A
:1015D000EC01042F1E8D48A141110CC08881998116
:1015E000892B09F042C08C819D810E94351A1D8291
:1015F0001C8242C0011117C050E08A819B810E9469
:10160000043728A18A819B81820F911D9B838A8345
:101610002C813D818217930750F1888199819B83AA
:101620008A8380E029C050E08E819F810E94043728
:1016300088A190E09195819591092E813F81280F95
:10164000391F3F832E83488159812417350730F491
:101650002C813D81820F931F9F838E83023049F43A
:10166000112349F0115080E007C080E005C080E000
:1016700003C080E001C080E01F5F1E8FDF91CF912B
:101680001F910F910895FC0140A14423A9F050E05F
:1016900026813781240F351F3783268384819581E6
:1016A0002817390720F08081918197838683CB01A9
:1016B000668177810C94043708951F93CF93DF934D
:1016C000EC010FB6F8940F921AA10BC08B898823F6
:1016D00051F0CE0143960E94C11781110E949719C3
:1016E000115011169CF38FEF8AA30F900FBE0FB607
:1016F000F8940F9219A10BC08885882351F0CE0170
:1017000008960E94C11781110E9497191150111655
:101710009CF38FEF89A30F900FBEDF91CF911F91A4
:101720000895CF93DF93EC010FB6F8940F92E88100
:10173000F9818F8D28A190E030E0829FA001839FE6
:10174000500D929F500D11244E0F5F1F5D834C83EF
:101750001E8EFB83EA830197289FA001299F500DCD
:10176000389F500D1124CF01840F951F9F838E83C6
:101770008FEF89A38AA361110BC08885882371F03C
:10178000CE0108960E94C117882341F02ADE06C0C8
:10179000CE01089658DDCE01439655DD0F900FBE61
:1017A00081E0DF91CF9108950F931F93F8016111AC
:1017B00003C01183008302C051834083878F60A3DD
:1017C00061E0CF01AEDF1F910F910895DF92EF929C
:1017D000FF920F931F93CF93DF93F82EE62ED42E14
:1017E000869FC0011124839648DCEC01009741F0EC
:1017F0008C012D2DAC014D5D5F4F6E2D8F2DD4DFF3
:10180000CE01DF91CF911F910F91FF90EF90DF906C
:101810000895CF92DF92EF92FF920F931F93CF9391
:10182000DF93CDB7DEB729970FB6F894DEBF0FBEB2
:10183000CDBF7C016B012E833F834887598710E021
:101840000FB6F8940F92F701968D878D981710F0C8
:101850000230B1F4402FB601C701B6DEF70193891B
:10186000992341F0C70143960E94C117882321F0B4
:10187000B8DD02C08111B5DD0F900FBE81E04CC014
:101880008E819F81A885B985892B8A2B8B2B21F48A
:101890000F900FBE80E040C0111105C0CE0101962F
:1018A0000E94201911E00F900FBEC7D70FB6F89411
:1018B0000F92F70181A18F3F09F411A2F70182A1D4
:1018C0008F3F09F412A20F900FBEBE016A5F7F4FD7
:1018D000CE0101960E943119811119C0C70166DE3F
:1018E000882381F04E815F8168857985C7010896DC
:1018F0000E941E17C701E1DE0E945D158111A0CF75
:1019000070DD9ECFC701D9DE0E945D1599CFC7015A
:10191000D4DE0E945D1580E029960FB6F894DEBFF4
:101920000FBECDBFDF91CF911F910F91FF90EF9030
:10193000DF90CF9008950F93009769F0FC01158216
:10194000148211821082168200E020E030E0A901AA
:1019500060E070E05EDF0F910895CF93DF93482F32
:1019600060E081E033DFEC01E6DFCE01DF91CF9173
:101970000895EF92FF920F931F93CF93DF938A0105
:10198000FC01568D378D531710F02230F9F4422F99
:101990007801EC011AA18E8DCE0116DE1F3F81F475
:1019A0008B898823A9F0CE0143960E94C117882312
:1019B00089F0E114F10481F081E0F70180830DC02A
:1019C000FF24F394F10EFAA281E007C080E005C085
:1019D00081E003C081E001C081E0DF91CF911F91E0
:1019E0000F91FF90EF900895CF92DF92EF92FF92C8
:1019F0000F931F93CF93DF93CDB7DEB729970FB621
:101A0000F894DEBF0FBECDBF8C016B012E833F83E8
:101A100048875987E12C0FB6F8940F92F801F68C9D
:101A2000FF2099F0B601C8012EDEFA94F801F68E77
:101A30008085882331F0C80108960E94C117811162
:101A4000D0DC0F900FBE81E04FC08E819F81A885B2
:101A5000B985892B8A2B8B2B21F40F900FBE80E048
:101A600043C0E11006C0CE0101960E942019EE2469
:101A7000E3940F900FBEE1D60FB6F8940F92F801E1
:101A800081A18F3F09F411A2F80182A18F3F09F4CF
:101A900012A20F900FBEBE016A5F7F4FCE0101966A
:101AA0000E943119811117C0C80173DD882379F0B4
:101AB0004E815F8168857985C80143960E941E1713
:101AC000C801FBDDFAD78111A6CF8BDCA4CFC801FA
:101AD000F4DDF3D7A0CFC801F0DDEFD7C80159DDA1
:101AE000882309F498CF80E029960FB6F894DEBFDA
:101AF0000FBECDBFDF91CF911F910F91FF90EF905F
:101B0000DF90CF900895EF92FF920F931F93CF93A2
:101B1000DF93CDB7DEB729970FB6F894DEBF0FBEBF
:101B2000CDBF8C014E835F8368877987E12CF12CD0
:101B30000FB6F8940F92F801868D8823C9F0815072
:101B4000868F80819181892B29F40E94211BF801C5
:101B500095838483F8018085882331F0C801089635
:101B60000E94C11781113DDC0F900FBE81E06FC054
:101B70008E819F81A885B985892B8A2B8B2B21F497
:101B80000F900FBE80E063C0F11006C0CE01019639
:101B90000E942019FF24F3940F900FBE4ED60FB66B
:101BA000F8940F92F80181A18F3F09F411A2F80176
:101BB00082A18F3F09F412A20F900FBEBE016A5F8F
:101BC0007F4FCE0101960E943119811126C0C801B4
:101BD000E0DC8823F1F0F80180819181892B51F4B8
:101BE0000FB6F8940F92848195810E94AE19E82E69
:101BF0000F900FBE4E815F8168857985C80143963D
:101C00000E941E17C80159DD58D7811191CFE9DB19
:101C10008FCFC80152DD51D78BCFC8014EDD4DD7D4
:101C2000C801B7DC882309F483CFEE2079F00FB622
:101C3000F8940F92C8019DDC682FF801848195818A
:101C40000E94901A0F900FBE80E001C080E029969C
:101C50000FB6F894DEBF0FBECDBFDF91CF911F91BD
:101C60000F91FF90EF900895CF93DF93EC010FB6A3
:101C7000F8940F9289A18F3F09F419A28AA18F3F8E
:101C800009F41AA20F900FBE8E8D811104C0CE01EF
:101C900043960E947F17CE0110DDDF91CF9108950A
:101CA000FC014481558122813381240F351F8081BD
:101CB0009181B901681B790BCB016417750710F08E
:101CC000841B950B08950F93FC018FE0DF011D929B
:101CD0008A95E9F77587648755834483378326831C
:101CE00006870F910895AF92BF92CF92DF92EF9245
:101CF000FF920F931F93CF93DF936C015B017A01E7
:101D0000FC01C281D381048115810C1B1D0B40177E
:101D1000510708F48A01F60184859585A801B5016B
:101D20008C0F9D1F0E9404370E151F0558F4A70144
:101D3000401B510BB501600F711FF601848595851D
:101D40000E940437CE018E0D9F1DF601248135813E
:101D50008217930710F0821B930BF6019383828303
:101D6000C701DF91CF911F910F91FF90EF90DF900E
:101D7000CF90BF90AF900895CF92DF92EF92FF92F5
:101D80000F931F93CF93DF931F921F92CDB7DEB7B0
:101D90007C016B015A83498321153105C1F0FC0197
:101DA000868580FD08C04217530708F49A013A83DC
:101DB000298381E00FC02017310758F042E050E03E
:101DC000BE016F5F7F4FC7018EDF81E003C080E0FF
:101DD00001C080E0882331F049815A81B601C701F2
:101DE00082DF02C080E090E00F900F90DF91CF91F2
:101DF0001F910F91FF90EF90DF90CF900895AF92D9
:101E0000BF92CF92DF92EF92FF920F931F93CF93E7
:101E1000DF937C015B01E9014217530708F4EA01F3
:101E2000209781F1F7010081118184819581801BC8
:101E3000910B6E018C179D0708F46C01F701648506
:101E40007585600F711FA601C5010E940437CC166D
:101E5000DD0658F4AE014C195D09F70164857585FE
:101E6000C5018C0D9D1D0E9404370C0F1D1FF7012D
:101E7000848195810817190710F0081B190BF701C9
:101E800011830083CE01DF91CF911F910F91FF90BD
:101E9000EF90DF90CF90BF90AF9008956F927F92B8
:101EA0008F929F92AF92BF92CF92DF92EF92FF926A
:101EB0000F931F93CF93DF931F921F92CDB7DEB77F
:101EC0006C014B015A01790101151105B1F0FC01BA
:101ED00060807180A801BE016F5F7F4F90DF8981B4
:101EE0009A81E01AF10AA816B90630F4F601718257
:101EF0006082A12CB12C01C05C019701A501B40145
:101F0000C6017DDF0F900F90DF91CF911F910F9150
:101F1000FF90EF90DF90CF90BF90AF909F908F9009
:101F20007F906F900895CF92DF92EF92FF920F9380
:101F3000CF93DF93EC016B01413011F401E001C05C
:101F400000E0C114D10419F4CC24C394D12CCE01E7
:101F50004096C817D90720F421968FD87C0102C07B
:101F6000E12CF12CE114F10439F09601AE01B70136
:101F7000615F7F4FC701A7DEC701DF91CF910F914E
:101F8000FF90EF90DF90CF9008950F930FB6F894E5
:101F90000F92FC0120853185232B71F42285338536
:101FA000232B61F4268137814481558164857585B1
:101FB000068589DE81E003C080E001C080E00F90EB
:101FC0000FBE0F910895FC0124813581808191819C
:101FD000820F931F42815381841B950B01978217B7
:101FE000930710F0821B930B08952F923F924F920C
:101FF0005F926F927F928F929F92AF92BF92CF9299
:10200000DF92EF92FF920F931F93CF93DF93CDB7A1
:10201000DEB72B970FB6F894DEBF0FBECDBF4C01D5
:102020007B876A871A010E831F8328873987FC0103
:10203000848195810197268520FF0CC02A01F2E05A
:102040004F0E511C8415950558F41E821F82188668
:10205000198606C08417950710F02A0101C02C01CB
:102060008E819F81A885B985892B8A2B8B2B09F4BA
:1020700038C0CE0101960E940A190FB6F8940F924B
:10208000C401A1DF3C018415950540F560E080E0C6
:1020900090E00E94F41D0E949B19F40193878287AF
:1020A0000F900FBEAE80BF80C884D984E12CF12C84
:1020B00000E010E0980140E050E0BA0180E00E94AA
:1020C000331BF40113861286BE016A5F7F4FCE0177
:1020D00001960E943119882381F205C00F900FBE2E
:1020E00002C0612C712C6114710419F4C4016BDFFE
:1020F0003C0182019301A1016A857B85C4013CDE1C
:102100006C01892BE9F0C401CBDDF4012681378114
:1021100082179307A8F091D3F40180859185892BCC
:1021200071F080859185E12CF12C00E020E030E019
:10213000A90160E00E94DB1BF40111861086BDD46A
:10214000C6012B960FB6F894DEBF0FBECDBFDF9150
:10215000CF911F910F91FF90EF90DF90CF90BF90A4
:10216000AF909F908F907F906F905F904F903F9037
:102170002F900895AF92BF92CF92DF92EF92FF928D
:102180000F931F93CF93DF93EC017B015A016901F9
:102190008E8580FF04C08A010E5F1F4F01C08A0137
:1021A000CE0111DF9C01A501B701CE01E5DD5C0187
:1021B000892BC1F0CE0174DD2E813F8182179307F8
:1021C00088F088859985892B69F088859985E12C27
:1021D000F12C00E020E030E0A90160E00E94D21C78
:1021E00019861886C501DF91CF911F910F91FF903D
:1021F000EF90DF90CF90BF90AF9008954F925F9295
:102200006F927F928F929F92AF92BF92CF92DF9206
:10221000EF92FF920F931F93CF93DF93EC012B016B
:102220003A01580169018E8580FF05C068948824B1
:1022300081F8912C02C0812C912CA114B104C1040D
:10224000D10441F10FB6F8940F92CE0129DD7C0143
:102250008816990648F060E080E090E00E94F41D46
:102260000E949B19998788870F900FBE8E149F0438
:10227000A0F0E12CF12C00E010E0980140E050E0EB
:10228000BA0180E00E94331B19861886CE0108DD52
:102290007C0103C0CE0104DD7C018E149F04E8F4B0
:1022A00084019701A301B201CE01F8DD6C01892BF5
:1022B000B1F0C3D28A859B85892B69F08A859B857D
:1022C000E12CF12C00E020E030E0A90160E00E9468
:1022D000DB1B1B861A86F1D302C0C12CD12CC60190
:1022E000DF91CF911F910F91FF90EF90DF90CF90F2
:1022F000BF90AF909F908F907F906F905F904F9026
:102300000895E0912313F0912413808181110CC072
:102310008FEF9FEFDC018093ED129093EE12A0936C
:10232000EF12B093F0120895E0912313F09124136B
:102330000780F085E02D80819181A281B381809317
:10234000ED129093EE12A093EF12B093F012089555
:10235000CF93DF93EC018B8D9C8D0E94E608CE011C
:102360000E94E608DF91CF9108954F925F926F929D
:102370007F928F929F92AF92BF92CF92DF92EF9215
:10238000FF920F93CF93DF932C015B014A01390138
:10239000E60165EA70E08B8D9C8D0E940D378B8D78
:1023A0009C8D21E0821A9108880E991EA114B10417
:1023B00089F415C0822F90E0F501E80FF91F3081F4
:1023C000DE01A80FB91F5D963C938081882329F018
:1023D0002F5F01C020E0203168F31CA601C01D8ED4
:1023E0000A3008F009E00A8F0DA71EA6CE0102965A
:1023F0000E943409CE010E960E943409DB87CA87F9
:102400008AE090E0A0E0B0E0801B9109A109B10949
:102410008E879F87A88BB98BDF8BCE8B84E0FE01E4
:10242000BF96DF011D928A95E9F71BAAA301B201AD
:10243000C4010E94A80999838883E114F10419F06A
:10244000F701D183C083DF91CF910F91FF90EF907F
:10245000DF90CF90BF90AF909F908F907F906F90C4
:102460005F904F900895CF93C0E009C02BE0C29FCA
:10247000C0011124855C9C4E0E942309CF5FCA30A5
:10248000A8F380E393E10E94230985E293E10E948F
:10249000230986E193E10E9423098BE093E10E94E6
:1024A00023098FEF92E10E94230980E393E1909347
:1024B00024138093231385E293E190932213809356
:1024C0002113CF910895CF93DF93EC010FB6F894C9
:1024D0000F928091FE128F5F8093FE128091A9135C
:1024E0009091AA13892B51F4D093AA13C093A913E6
:1024F0008091FE12813091F4B6DF10C08091F81205
:1025000081110CC0E091A913F091AA13928D8A8DCC
:10251000891720F0D093AA13C093A9138091F112C8
:102520008F5F8093F112EA8D8091F9128E1710F46B
:10253000E093F9128BE08E9FF0011124E55CFC4ED4
:102540000180F281E02DFF83EE8326813781398778
:102550002887A681B7819E012E5F3F4F15963C9339
:102560002E93149737832683EA8D8E9FF0011124D2
:10257000E55CFC4EFD87EC8780818F5F80830F9048
:102580000FBE8091F812882351F0E091A913F091C9
:10259000AA13928D8A8D981710F40E94F109DF9189
:1025A000CF910895CF93DF931BC00FB6F8940F928D
:1025B000E0911213F0911313C085D185CE010296DC
:1025C0000E9475098091FE1281508093FE128091C5
:1025D0000A13815080930A130F900FBECE01B8DE0C
:1025E00080910A138111E1CFDF91CF9108958F92ED
:1025F0009F92AF92BF92CF92DF92EF92FF92CF93D2
:10260000DF936B017C01C42F8090FA129090FB1233
:10261000A090FC12B090FD128091A9139091AA1382
:1026200002960E9475098FEFC816D806E806F806CC
:10263000B1F5CC23A1F1EFEFF2E1A181B281C0911C
:10264000A913D091AA13BF83AE83C091A913D091CF
:10265000AA1316968D919C9117979987888716963D
:10266000CD91DC9117978091A9139091AA130296AE
:102670009D838C838091A9139091AA13029617963B
:102680009C938E931697A091A913B091AA131D96AF
:10269000FC93EE931C9780818F5F80833FC0C80CB2
:1026A000D91CEA1CFB1CE091A913F091AA13C28269
:1026B000D382E482F582C814D904EA04FB0468F4E6
:1026C0006091A9137091AA13809121139091221304
:1026D0006E5F7F4F0E94380921C06091A9137091ED
:1026E000AA1380912313909124136E5F7F4F0E9451
:1026F00038098091ED129091EE12A091EF12B091F5
:10270000F012C816D906EA06FB0640F4C092ED1294
:10271000D092EE12E092EF12F092F012DF91CF9190
:10272000FF90EF90DF90CF90BF90AF909F908F90F1
:1027300008952F923F924F925F926F927F928F9265
:102740009F92AF92BF92CF92DF92EF92FF920F9340
:10275000CF93DF933C011B014A012901CA010E946A
:102760003D086C01892B71F084E390E00E943D08E4
:10277000EC01892B19F0DC8ECB8E06C0C6010E94BD
:10278000E60802C0C0E0D0E0209761F0A12CB12C97
:102790006E019201A401B101C301E7DDCE0193DE18
:1027A00081E001C08FEFDF91CF910F91FF90EF900B
:1027B000DF90CF90BF90AF909F908F907F906F9061
:1027C0005F904F903F902F900895EF92FF920F935C
:1027D0000F2EFBEEEF2EF2E1FF2EF02D00E020E0B9
:1027E00030E040EC50E060E176E08EE491E0A1DF83
:1027F000813011F40E94981E8130C9F4F8948FEF53
:102800009FEFDC018093ED129093EE12A093EF12F4
:10281000B093F01281E08093F8121092FA121092A5
:10282000FB121092FC121092FD120E94BF098091BF
:1028300006020F91FF90EF9008958091EA128F5F4A
:102840008093EA1208950FB6F8940F926091FA12ED
:102850007091FB128091FC129091FD120F900FBEAF
:102860000895CF92DF92EF92FF92CF93DF93809102
:10287000EA12811105C1C090FA12D090FB12E090CB
:10288000FC12F090FD128FEFC81AD80AE80AF80A75
:10289000C092FA12D092FB12E092FC12F092FD125A
:1028A000C114D104E104F104B1F480912313909197
:1028B0002413209121133091221330932413209359
:1028C000231390932213809321138091F2128F5F30
:1028D0008093F21216DD8091ED129091EE12A0918C
:1028E000EF12B091F012C816D906EA06FB0620F4E2
:1028F00080E0B2C081E001C080E0E0912313F0915C
:102900002413908191110CC04FEF5FEFBA014093F7
:10291000ED125093EE126093EF127093F0129CC080
:10292000E0912313F09124130780F085E02D0084BB
:10293000F185E02D4281538164817581C416D506ED
:10294000E606F70648F44093ED125093EE126093BA
:10295000EF127093F01280C0A485B585C681D7812F
:10296000208531853F832E83C085D185268137819F
:102970003D832C8311964D915C9112979F012E5FA0
:102980003F4F4217530731F44085518512965C93AF
:102990004E931197158614869C9191509C93A08D0F
:1029A000B18D109709F1C289D389448955895F8314
:1029B0004E83C489D589428953895D834C8311969E
:1029C0006D917C911297AF01425F5F4F641775075D
:1029D00031F44489558912965C934E931197118E68
:1029E000108E9C9191509C93A28D9091F9129A1700
:1029F00010F4A093F9129BE09A9FD0011124A55CDA
:102A0000BC4E11960D90BC91A02DB783A68316964F
:102A10004D915C911797518740871696CD91DC9127
:102A200017973D832C8317963C932E931697A28D70
:102A30009A9FD0011124A55CBC4EB587A4879C91B8
:102A40009F5F9C93228DE091A913F091AA13928D20
:102A5000291708F04FCF51CFE091A913F091AA1395
:102A6000E28D9BE0E99FF0011124E55CFC4E908132
:102A7000923008F081E09091F312911116C016C0C7
:102A80008091F4129091F512A091F612B091F71284
:102A90000196A11DB11D8093F4129093F512A0939D
:102AA000F612B093F71280E001C081E0DF91CF9180
:102AB000FF90EF90DF90CF900895CF92DF92EF924A
:102AC000FF92CF93DF930FB6F8940F928091EA12A2
:102AD00081508093EA128091EA128111BEC08091E8
:102AE000FE12811188C0BCC0E0911D13F0911E132D
:102AF0000084F185E02DA08DB18DC289D3898489B0
:102B000095899F838E83C489D589828993899D8382
:102B10008C8311962D913C911297CF010E96281718
:102B2000390731F48489958912969C938E93119775
:102B3000118E108E8C9181508C93A485B585C681A1
:102B4000D781808591859F838E83C085D18586813D
:102B500097819D838C8311968D919C9112979F01F3
:102B60002E5F3F4F8217930731F48085918512962F
:102B70009C938E931197158614868C9181508C931B
:102B8000A28D8091F9128A1710F4A093F9128BE0AC
:102B90008A9FD0011124A55CBC4E11960D90BC916A
:102BA000A02DB783A68316964D915C9117975187F8
:102BB00040871696CD91DC9117973D832C8317960D
:102BC0003C932E931697A28D8A9FD0011124A55C69
:102BD000BC4EB587A4878C918F5F8C93928DA0910A
:102BE000A913B091AA135A968C91981730F081E0EE
:102BF0008093F31202C0E0E0F0E08091161381119F
:102C000073CFEF2B09F07DDBC090F412D090F5125A
:102C1000E090F612F090F712C114D104E104F1042F
:102C2000A1F01FDE882319F081E08093F31281E088
:102C3000C81AD108E108F108A1F71092F412109215
:102C4000F5121092F6121092F7128091F312882367
:102C500031F00E94F10981E003C080E001C080E012
:102C60000F900FBEDF91CF91FF90EF90DF90CF904C
:102C700008958F929F92AF92BF92CF92DF92EF9280
:102C8000FF921F93CF93DF93EC016A017B01D5DDA7
:102C90008090FA129090FB12A090FC12B090FD125E
:102CA00088819981AA81BB81AC01BD014C0D5D1D5C
:102CB0006E1D7F1D88169906AA06BB0660F448178C
:102CC00059076A077B0798F484169506A606B70687
:102CD00080F010E013C0481759076A077B0758F0C7
:102CE00084169506A606B70640F010E007C010E06F
:102CF00005C011E003C011E001C011E04883598311
:102D00006A837B83112341F0CB01BA0168197909E9
:102D10008A099B0940E06BDCD0DE811102C00E9471
:102D2000F109812FDF91CF911F91FF90EF90DF90FC
:102D3000CF90BF90AF909F908F900895CF92DF92E9
:102D4000EF92FF926B017C01672B682B692B39F0A6
:102D500074DD40E0C701B6014ADCAFDE01C080E0AF
:102D6000811102C00E94F109FF90EF90DF90CF9097
:102D700008958091EA12882321F081E08093F31274
:102D800008951092F312E091A913F091AA132081F3
:102D90003181E091A913F091AA13838D948D82174C
:102DA000930760F06091A9137091AA13635E7F4F3F
:102DB0008091A9139091AA130E9426218091F91263
:102DC00001C08150282F30E09BE0929FF001939F3B
:102DD000F00D1124E55CFC4E9081992391F39BE06A
:102DE000929FA001939F500D1124DF010180F28179
:102DF000E02D0480F581E02D1296FC93EE9311975F
:102E0000425C5C4EE417F50729F444815581FD01CD
:102E1000528341839BE0929FF001939FF00D112418
:102E2000E55CFC4E0180F281E02D208531853093F8
:102E3000AA132093A9138093F9120895CF92DF92D9
:102E4000EF92FF926A017B016091A9137091AA131E
:102E5000625F7F4F0E94380941E0C701B601C7DBBE
:102E6000FF90EF90DF90CF9008950F931F93CF9333
:102E7000DF93FC01A091A913B091AA1370681E966C
:102E80004D935D936D937C935197A181B281C091D5
:102E9000A913D091AA13BB8BAA8BC091A913D0916F
:102EA000AA1316968D919C9117979D8B8C8B1696D5
:102EB000CD91DC9117978091A9139091AA130E964A
:102EC0009D838C838091A9139091AA130E961796D7
:102ED0009C938E931697A091A913B091AA1359961B
:102EE000FC93EE93589780818F5F808341E0C90106
:102EF000B8017DDBDF91CF911F910F910895CF93A2
:102F0000DF93FC01CB01BA01A181B281C091A91369
:102F1000D091AA13BB8BAA8BC091A913D091AA13ED
:102F200016964D915C9117975D8B4C8B1696CD91B3
:102F3000DC9117974091A9135091AA13425F5F4FFC
:102F40005D834C834091A9135091AA13425F5F4F58
:102F500017965C934E931697A091A913B091AA135C
:102F60005996FC93EE93589730813F5F308322232C
:102F700019F06FEF7FEFCB01422F39DBDF91CF915B
:102F80000895CF93DF93DC011796ED91FC9118978C
:102F90000084F185E02DA08DB18DC289D38984890B
:102FA00095899F838E83C489D589828993899D83DE
:102FB0008C8311968D919C9112979F01225F3F4FB8
:102FC0008217930731F48489958912969C938E9386
:102FD0001197118E108E8C9181508C938091EA12F2
:102FE000811152C0A485B585C681D7818085918520
:102FF0009F838E83C085D185868197819D838C83B5
:1030000011968D919C9112979F012E5F3F4F8217D1
:10301000930731F48085918512969C938E93119736
:10302000158614868C9181508C93A28D8091F91213
:103030008A1710F4A093F9128BE08A9FD001112413
:10304000A55CBC4E11960D90BC91A02DB783A683B4
:1030500016964D915C911797518740871696CD91A2
:10306000DC9117973D832C8317963C932E931697EC
:10307000A28D8A9FD0011124A55CBC4EB587A48780
:103080008C918F5F8C931CC046E153E1DA0111965D
:10309000CD91DC911297D38BC28B8E819F81958BC2
:1030A000848B8E819F81DC0115963C932E9314971F
:1030B0003F832E83518F408FDA018C918F5F8C93E9
:1030C000928DE091A913F091AA13828D891720F4B3
:1030D00081E08093F31201C080E0DF91CF910895E9
:1030E000CF93DF93DC0170684D935D936D937C9378
:1030F00013971896ED91FC9119971A964D915C9142
:103100001B9714968D919C91159716962D913C9135
:103110001797EC013F832E8316968D919C911797FC
:1031200014962D913C911597EC013D832C83EA0177
:1031300089819A81A817B90731F416968D919C91CF
:1031400017979A8389831B961C921E921A97DA010D
:103150008C9181508C93A485B585C681D78180855B
:1031600091859F838E83C085D185868197819D833C
:103170008C8311968D919C9112979F012E5F3F4FEA
:103180008217930731F48085918512969C938E93D4
:103190001197158614868C9181508C93A28D809105
:1031A000F9128A1710F4A093F9128BE08A9FD001CC
:1031B0001124A55CBC4E11960D90BC91A02DB78337
:1031C000A68316964D915C91179751874087169666
:1031D000CD91DC9117973D832C8317963C932E93CA
:1031E0001697A28D8A9FD0011124A55CBC4EB5878D
:1031F000A4878C918F5F8C93928DE091A913F091AD
:10320000AA13828D891718F481E08093F312DF915D
:10321000CF9108950FB6F8940F922091F212FC010D
:1032200020834091FA125091FB126091FC12709130
:10323000FD1241835283638374830F900FBE089500
:103240002091F212FC0120834091FA125091FB125E
:103250006091FC127091FD124183528363837483E9
:1032600008958F929F92AF92BF92CF92DF92EF928A
:10327000FF920F931F93CF93DF93FB010FB6F89448
:103280000F92C090FA12D090FB12E090FC12F090D6
:10329000FD12DC0111960D911D912D913C91149719
:1032A00046015701801A910AA20AB30A408151814E
:1032B000628173814F3FBFEF5B076B077B0739F17B
:1032C000EC01B881A091F212BA1759F0C016D106DC
:1032D000E206F30630F0108211821282138281E03E
:1032E00017C084169506A606B70658F4481959095A
:1032F0006A097B094083518362837383A1DF80E085
:1033000007C0108211821282138281E001C080E026
:103310000F900FBEDF91CF911F910F91FF90EF9013
:10332000DF90CF90BF90AF909F908F90089581E0F5
:103330008093F31208958091A9139091AA13089590
:103340008091F812882331F08091EA12811104C033
:1033500082E0089581E0089580E008950F931F931F
:10336000CF93DF93FC01892B09F477C0828DA09164
:10337000A913B091AA135A969C91891708F063C0BB
:103380004685578560897189772394F0A091A913A8
:10339000B091AA135A969C914AE050E060E070E028
:1033A000491B51096109710946875787608B718BE9
:1033B000248535854BE0849FC0011124855C9C4E9B
:1033C00028173907B9F5EF018F010E5F1F4FC801AC
:1033D0000E947509E091A913F091AA13E28DEA8F7A
:1033E0008091F9128E1710F4E093F9128BE08E9F02
:1033F000F0011124E55CFC4E0180F281E02DFF8399
:10340000EE832681378139872887A681B781159673
:103410001C930E93149717830683EA8D8E9FF001F9
:103420001124E55CFC4EFD87EC8780818F5F8083F3
:1034300081E016C0A091A913B091AA135A968C915D
:10344000828F81E00DC095A5E091A913F091AA1398
:10345000828D981720F080E003C080E001C081E0F9
:10346000DF91CF911F910F9108950F931F93CF93E9
:10347000DF93FC01892B09F449C086A5815086A7FA
:10348000228D95A5291709F443C0811143C0EF018E
:103490008F010E5F1F4FC8010E947509EDA5EA8FCD
:1034A0008AE090E0A0E0B0E08E1B9109A109B1098B
:1034B0008E879F87A88BB98B8091F9128E1710F495
:1034C000E093F9128BE08E9FF0011124E55CFC4E35
:1034D0000180F281E02DFF83EE83268137813987D9
:1034E0002887A681B78115961C930E93149717838E
:1034F0000683EA8D8E9FF0011124E55CFC4EFD876A
:10350000EC8780818F5F808381E005C080E003C00D
:1035100080E001C080E0DF91CF911F910F9108956D
:103520000F931F93CF93DF93FC01892B09F45AC0AB
:1035300085A5861708F4862F928D891709F452C045
:1035400026A5213009F04EC0828F468557856089B7
:103550007189772364F04AE050E060E070E0481B36
:1035600051096109710946875787608B718B2485E2
:1035700035854BE0949FC0011124855C9C4E281733
:10358000390781F5EF018F010E5F1F4FC8010E94BF
:103590007509EA8D8091F9128E1710F4E093F912F3
:1035A0008BE08E9FF0011124E55CFC4E0180F281DE
:1035B000E02DFF83EE832681378139872887A68116
:1035C000B78115961C930E93149717830683EA8D83
:1035D0008E9FF0011124E55CFC4EFD87EC87808115
:1035E0008F5F8083DF91CF911F910F910895CF92CC
:1035F000DF92EF92FF92E091A913F091AA136685F2
:10360000778580899189E091A913F091AA13A091FF
:10361000A913B091AA135A962C910F2EFAE0CF2E2F
:10362000D12CE12CF12CF02DC21AD108E108F108BF
:10363000C686D786E08AF18AFF90EF90DF90CF9020
:1036400008958091A9139091AA13892B39F0E091E4
:10365000A913F091AA1386A58F5F86A78091A9135D
:103660009091AA1308954F925F926F927F92AF92BA
:10367000BF92CF92DF92EF92FF920F931F93CF935F
:10368000DF93280139010FB6F8940F92E091A91346
:10369000F091AA13C82FD0E0EC0FFD1F83A9823050
:1036A00079F1E091A913F091AA13CE01880F991F27
:1036B000880F991FE80FF91F87A590A9A1A9B2A9A2
:1036C0004095509560957095482359236A237B2334
:1036D00047A750AB61AB72ABE091A913F091AA136D
:1036E000EC0FFD1F81E083ABA114B104C104D10430
:1036F00039F041E0C601B5010E94F7120E94F109BC
:103700000F900FBE0FB6F8940F92E114F104A1F0E0
:10371000E091A913F091AA13CE01880F991F880F89
:10372000991FE80FF91F87A590A9A1A9B2A9F701D0
:1037300080839183A283B383E091A913F091AA13AC
:10374000EC0FFD1F83A98230E9F4E091A913F091F9
:10375000AA13CE01880F991F880F991FE80FF91F30
:1037600087A590A9A1A9B2A940945094609470949F
:10377000482259226A227B2247A650AA61AA72AA2D
:1037800081E001C080E02091A9133091AA13C20FFB
:10379000D31F1BAA0F900FBEDF91CF911F910F91E6
:1037A000FF90EF90DF90CF90BF90AF907F906F90A1
:1037B0005F904F9008958F929F92AF92BF92EF9239
:1037C000FF920F93CF93DF93DC010FB6F8940F9223
:1037D000E114F10489F0E62FF0E0EE0FFF1FEE0F89
:1037E000FF1FE80FF91F87A490A8A1A8B2A8F701AE
:1037F00080829182A282B38270E0FD01E60FF71F02
:1038000083A992E093AB023001F118F4013031F05A
:103810004DC0033079F10430D1F148C0660F771FF5
:10382000660F771FFD01E60FF71F87A490A8A1A8D8
:10383000B2A8BA01A901482959296A297B2947A7B1
:1038400050AB61AB72AB01E034C0660F771F660FFF
:10385000771FFD01E60FF71F47A550A961A972A9BF
:103860004F5F5F4F6F4F7F4F47A750AB61AB72AB5E
:1038700001E01FC0660F771F660F771FFD01E60F7F
:10388000F71F27A730AB41AB52AB01E012C082302B
:1038900079F0660F771F660F771FFD01E60FF71FA0
:1038A00027A730AB41AB52AB01E003C001E001C040
:1038B00000E0813009F069C01C96ED91FC911D97E4
:1038C0001696CD91DC91179718968D919C9119972A
:1038D0009F838E831896CD91DC91199716968D91C2
:1038E0009C9117979D838C83818192819D012E5F8E
:1038F0003F4F8217930731F418968D919C91199739
:10390000928381831D961C921E921C978081815008
:1039100080835A96EC915A978091F9128E1710F481
:10392000E093F9128BE08E9FF0011124E55CFC4ED0
:103930000180F281E02D1796FC93EE931697468155
:10394000578119965C934E931897C681D7813D8312
:103950002C83378326835A96EC915A978E9FF001D9
:103960001124E55CFC4E1D96FC93EE931C97808120
:103970008F5F80835A969C91E091A913F091AA13CE
:10398000828D891710F40E94F1090F900FBE802FCD
:10399000DF91CF910F91FF90EF90BF90AF909F90EC
:1039A0008F9008958F929F92AF92BF92CF92DF92A5
:1039B000EF92FF920F93CF93DF93DC01E114F104B8
:1039C00089F0E62FF0E0EE0FFF1FEE0FFF1FE80F6C
:1039D000F91F87A490A8A1A8B2A8F70180829182BC
:1039E000A282B38270E0FD01E60FF71F93A982E087
:1039F00083AB023001F118F4013031F04DC00330D7
:103A000079F10430D1F148C0660F771F660F771F38
:103A1000FD01E60FF71F87A490A8A1A8B2A8BA01DC
:103A2000A901482959296A297B2947A750AB61ABCD
:103A300072AB81E034C0660F771F660F771FFD0100
:103A4000E60FF71F47A550A961A972A94F5F5F4F05
:103A50006F4F7F4F47A750AB61AB72AB81E01FC088
:103A6000660F771F660F771FFD01E60FF71F27A769
:103A700030AB41AB52AB81E012C0923079F0660FAF
:103A8000771F660F771FFD01E60FF71F27A730ABE3
:103A900041AB52AB81E003C081E001C080E09130D6
:103AA00009F096C09091EA1291115FC01C96ED91B9
:103AB000FC911D971696CD91DC91179718962D9134
:103AC0003C9119973F832E831896CD91DC911997DD
:103AD00016962D913C9117973D832C8341815281FD
:103AE0009D012E5F3F4F4217530731F418964D91B9
:103AF0005C911997528341831D961C921E921C97CC
:103B00009081915090835A96EC915A979091F91226
:103B10009E1710F4E093F9129BE09E9FF001112490
:103B2000E55CFC4E0180F281E02D1796FC93EE934C
:103B300016974681578119965C934E931897C681C4
:103B4000D7813D832C83378326835A96EC915A97ED
:103B50009E9FF0011124E55CFC4E1D96FC93EE93B4
:103B60001C9790819F5F908321C066E173E1FB0108
:103B7000C181D2815396DC93CE9352972E813F819F
:103B800055963C932E9354974E815F819D01225F01
:103B90003F4FFA01358324833F832E8359967C93CC
:103BA0006E935897FB0190819F5F90835A962C915A
:103BB000E091A913F091AA13928D921748F4C114C1
:103BC000D10419F091E0F601908391E09093F31203
:103BD000DF91CF910F91FF90EF90DF90CF90BF904A
:103BE000AF909F908F900895009721F48091A91332
:103BF0009091AA130FB6F8940F9270E0FC01E60FB3
:103C0000F71F23A9223031F4FC01E60FF71F13AA96
:103C100081E001C080E00F900FBE0895DC01E091CB
:103C2000B513F091B613808191E0811190E09C93DF
:103C3000911108C00780F085E02D6081718182813B
:103C40009381089560E070E0CB010895CF92DF92F8
:103C5000EF92FF920F931F93FC014283538364837F
:103C60007583938782870417150726073707C0F0E7
:103C70000C191D092E093F0986859785A089B189F0
:103C8000081719072A073B0700F5BF016E5F7F4F32
:103C90008091B3139091B4130E94380980E018C04A
:103CA0000C151D052E053F0528F44C155D056E0508
:103CB0007F0568F4BF016E5F7F4F8091B5139091CF
:103CC000B6130E94380980E003C081E001C081E0A2
:103CD0001F910F91FF90EF90DF90CF9008950FB656
:103CE000F8940F928091B1139091B213892BE9F45B
:103CF00082EC93E10E94230987EB93E10E94230960
:103D000082EC93E19093B6138093B51387EB93E124
:103D10009093B4138093B31340E067E08AE00E946D
:103D2000E60B9093B2138093B1130F900FBE0895DA
:103D3000EF92FF920F93D3DF8091B1139091B21362
:103D4000892B91F00F2EFFEAEF2EF3E1FF2EF02DDD
:103D500003E020E030E040EC50E065E176E089E50A
:103D600091E00E94991301C080E00F91FF90EF90C5
:103D700008958F929F92AF92BF92CF92DF92EF926F
:103D8000FF920F931F93CF93DF93CDB7DEB72797A3
:103D90000FB6F894DEBF0FBECDBFE091B113F09126
:103DA000B213309781F169832A833B834C835D830F
:103DB0009F838E836630F4F4C3DA823069F400E0C6
:103DC000A7019601BE016F5F7F4F8091B113909163
:103DD000B2130E94090C18C000E020E030E0A901F5
:103DE000BE016F5F7F4F8091B1139091B2130E941B
:103DF000090C0AC020E0A801BE016F5F7F4FCF0110
:103E00000E94B90C01C080E027960FB6F894DEBF7F
:103E10000FBECDBFDF91CF911F910F91FF90EF901B
:103E2000DF90CF90BF90AF909F908F9008958F922A
:103E30009F92AF92BF92CF92DF92EF92FF920F9339
:103E40001F93CF93DF933BC00780F085E02D8080E8
:103E50009180A280B380C085D1858E010E5F1F4FF7
:103E6000C8010E947509EC89FD89CE0119958E89DA
:103E700082FF25C08E859F85A889B989880D991DE7
:103E8000AA1DBB1D88169906AA06BB0670F48A8374
:103E90009B83AC83BD83DB87CA87B8018091B51350
:103EA0009091B6130E9438090AC0C12CD12C76011A
:103EB00000E010E0A501940160E0CE015ADFE0913E
:103EC000B513F091B61380818111BECF8091B313E9
:103ED0009091B4139093B6138093B513F093B413E9
:103EE000E093B313DF91CF911F910F91FF90EF906B
:103EF000DF90CF90BF90AF909F908F900895CF921A
:103F0000DF92EF92FF92CF93DF93EC010E94231494
:103F10006B017C018091AB139091AC13A091AD1318
:103F2000B091AE13C816D906EA06FB0620F47FDF6F
:103F300081E0888301C01882C092AB13D092AC1389
:103F4000E092AD13F092AE13C701B601DF91CF91AD
:103F5000FF90EF90DF90CF9008954F925F926F9215
:103F60007F928F929F92AF92BF92CF92DF92EF9209
:103F7000FF920F931F93CF93DF934B015C012901B5
:103F80003A01E091B513F091B6130780F085E02D6A
:103F9000C085D185CE0102960E9475098E8982FF67
:103FA0001BC04E855F8568897989480D591D6A1D3A
:103FB0007B1D7501640193018201CE0147DE8823D8
:103FC00069F0C12CD12C760100E010E0A50194012C
:103FD00060E0CE01CEDE02C08E7F8E8BEC89FD8943
:103FE000CE011995DF91CF911F910F91FF90EF9026
:103FF000DF90CF90BF90AF909F908F907F906F9009
:104000005F904F9008958F929F92AF92BF92CF9200
:10401000DF92EF92FF921F93CF93DF931F92CDB762
:10402000DEB76B017C01142F0E941D14CE01019696
:1040300066DF4B015C01898181112DC011110DC01A
:104040008C149D04AE04BF0440F00E945D15A501D0
:104050009401C701B60181DF20C0112341F0E09136
:10406000B313F091B413808111E0811110E0B70116
:10407000A601481959096A097B09212F8091B113BA
:104080009091B2130E94340E0E945D15811105C0FB
:104090000E94F10902C00E945D150F90DF91CF913F
:1040A0001F91FF90EF90DF90CF90BF90AF909F90C7
:1040B0008F900895AF92BF92CF92DF92EF92FF92CE
:1040C0000F931F93CF93DF93CDB7DEB728970FB62B
:1040D000F894DEBF0FBECDBF82C0898188230CF467
:1040E0007EC0AE80BF80D5011C968D919C911D979E
:1040F000892B21F0C50102960E947509CE01089610
:10410000FEDE8B019C01E9810E2E000CFF0BEA30D4
:10411000F10508F064C08827EE58FF4F8F4F0C94CC
:10412000CB34F50186898160868BCA80DB80EC8088
:10413000FD8046855785608971894C0D5D1D6E1D1A
:104140007F1DC50183DD882309F449C0D50154963C
:10415000ED91FC915597C5011995F501868982FF6E
:104160003EC04A815B816C817D8186859785A0896F
:10417000B1899A01AB01280F391F4A1F5B1FC12C5F
:10418000D12C760100E010E060E0C501F2DD27C02F
:10419000D50156968C9156978E7F56968C931FC05C
:1041A000F50186898160868B4A815B816C817D8186
:1041B00046875787608B718B400F511F621F731F9B
:1041C00068017901C50142DD0AC0F501868981FDDA
:1041D00004C0C5010E94E60802C08E7F868B20E0E5
:1041E00030E0A901BE016F5F7F4F8091B1139091C4
:1041F000B2130E94F40C811170CF28960FB6F89478
:10420000DEBF0FBECDBFDF91CF911F910F91FF9009
:10421000EF90DF90CF90BF90AF900895089584B154
:10422000806884B985B1806885B9089583B1806854
:1042300083B90895F4DF2FEF80E792E021508040AA
:104240009040E1F700C00000F1DFF5CFE8DF2FEF8D
:1042500087EA91E6215080409040E1F700C00000DD
:10426000E5DFF5CF0F931F930091FB141091FC1421
:104270006091CF137091D01321E030E040E050E026
:1042800083E090E00E943404909306158093051516
:104290000091FB141091FC146091CF137091D01316
:1042A00024E030E040E050E084E090E00E945003E1
:1042B00090930815809307150091FB141091FC143E
:1042C0006091CF137091D01322E030E040E050E0D5
:1042D00083E090E00E94250290930A1580930915CF
:1042E0001F910F9108950F931F938091FB1490914C
:1042F000FC14892B89F481E00E94AD0C9093FC148E
:104300008093FB14009741F000E020E030E0A90129
:1043100060E070E00E94090CA5DF6091CD13709100
:10432000CE1383E090E00E946A020091071510917D
:1043300008152091FB143091FC14409109155091FF
:104340000A15609105157091061582E090E00E94B3
:1043500042061F910F9108950E9489069093D013F1
:104360008093CF1380E00E94BF2C41E060E070E0BA
:1043700086E190E00E94930F9093CE138093CD132B
:10438000BC0181E043D3AFCF0895E6DF0E94E5137F
:10439000FFCF04D06894B11150C0089533D088F095
:1043A0009F5790F0B92F9927B751A0F0D1F0660F21
:1043B000771F881F991F1AF0BA95C9F712C0B1303C
:1043C00081F03AD0B1E0089537C0672F782F882761
:1043D000B85F39F0B93FCCF3869577956795B3957B
:1043E000D9F73EF490958095709561957F4F8F4FEA
:1043F0009F4F089557FD9058440F551F59F05F3F48
:1044000071F04795880F97FB991F61F09F3F79F0F6
:1044100087950895121613061406551FF2CF469578
:10442000F1DF08C0161617061806991FF1CF8695FA
:104430007105610508940895E894BB2766277727DE
:10444000CB0197F90895FA01DC01AA0FBB1F9B016C
:10445000AC01BF5728F422273327442750781FC0C8
:10446000B75188F4AB2F0024469537952795011C4A
:10447000A395D2F3002069F0220F331F441FB39598
:10448000DAF30DD076C061307105A0E88A07B9462D
:1044900030F49B01AC016627772788279078309607
:1044A00021F0208331834283538308950BD0DDC0F4
:1044B000CED028F0D3D018F0952309F0BFC0C4C0E7
:1044C0001124BBCF97DFA0F3959FD1F3950F50E058
:1044D000551F629FF001729FBB27F00DB11D639FB6
:1044E000AA27F00DB11DAA1F649F6627B00DA11D5C
:1044F000661F829F2227B00DA11D621F739FB00D02
:10450000A11D621F839FA00D611D221F749F332771
:10451000A00D611D231F849F600D211D822F762F0A
:104520006A2F11249F5750408AF0E1F088234AF007
:10453000EE0FFF1FBB1F661F771F881F9150504053
:10454000A9F79E3F510570F079C077CF5F3FECF33C
:10455000983EDCF3869577956795B795F795E7953F
:104560009F5FC1F7FE2B880F911D9695879597F950
:1045700008955058BB27AA270ED077C068D030F0D6
:104580006DD020F031F49F3F11F41EF45DC00EF4A5
:10459000E095E7FB53C0E92F2DDF80F3BA176207E0
:1045A00073078407950718F071F49EF545CF0EF454
:1045B000E0950B2EBA2FA02D0B01B90190010C0133
:1045C000CA01A0011124FF27591B99F0593F50F44B
:1045D000503E68F11A16F040A22F232F342F4427A3
:1045E000585FF3CF469537952795A795F04053959B
:1045F000C9F77EF41F16BA0B620B730B840BBAF06B
:104600009150A1F0FF0FBB1F661F771F881FC2F7D5
:104610000EC0BA0F621F731F841F48F487957795E9
:104620006795B795F7959E3F08F0B3CF9395880FA0
:1046300008F09927EE0F97958795089597F99F674A
:1046400080E870E060E008959FEF80EC089500241A
:104650000A941616170618060906089500240A94E7
:1046600012161306140605060895092E0394000C6D
:1046700011F4882352F0BB0F40F4BF2B11F460FFFC
:1046800004C06F5F7F4F8F4F9F4F08956530F1F4E7
:10469000FA0180818F7390E0982F88272181822BE7
:1046A00090930A02809309028281F0E48F9FC001F7
:1046B0001124FA01238126952695822B90930802D6
:1046C0008093070281E08093D1130895643051F004
:1046D00080E090E4909308028093070290930A028E
:1046E0008093090208950F931F9306E413E220E0DC
:1046F00034E244EF50E060E087E20E94A12E909304
:10470000D3138093D21321E0892B09F020E0822F6C
:104710001F910F9108958091D2139091D313009718
:1047200059F040E060E070E00E94F22E843031F4F5
:104730001092D11380E0089582E0089583E00895F7
:104740008091D2139091D313009739F064E00E94C6
:104750003E2F853021F083E0089582E0089580E0C7
:1047600008956091090270910A0280E090E00E9431
:10477000443420E030E048EC52E498DE20E038EFAA
:104780004FE756E40C94D3330895EBDF20E030E09C
:1047900040E251E48BDE02DECB0108956091070216
:1047A0007091080280E090E00E94443420E030E004
:1047B00045E253E47BDE20E038EF4FE756E40E9409
:1047C000D33320E030E040E252E4D3CE08950F939B
:1047D0001F93CF93DF931F921F92CDB7DEB78C014B
:1047E00019822DC0E0910B14EC3250F481E08E0F51
:1047F00080930B14F0E0E35CFB4E8A81808302C05F
:1048000010920B148A818A30D1F440910B1450E03D
:10481000FA01E55CFB4E1082415051099E012F5F69
:104820003F4F6DE374E180910E1490910F140E943C
:10483000BA10898181110E94F10910920B14BE01F6
:104840006E5F7F4FC80105D6882361F20F900F90ED
:10485000DF91CF911F910F9108950F931F93CF93E5
:10486000DF938C01EB0180910E1490910F140E9444
:10487000C50FB80184ED93E10E944437209779F089
:10488000E4EDF3E101900020E9F7319780E290E058
:1048900091838083BE0184ED93E10E943937E4ED7A
:1048A000F3E1DF010D900020E9F711978DE09AE028
:1048B00011969C938E9312961C9201900020E9F71A
:1048C0003197E45DF341AE2F84ED93E1AC016A2FA3
:1048D000809110149091111467D5811111C008E2D4
:1048E00015E020E030E04DE250E067E974E18091AE
:1048F0000E1490910F140E94FE1087E994E102C0FB
:1049000080E090E0DF91CF911F910F9108952F9259
:104910003F924F925F926F927F928F929F92AF924F
:10492000BF92CF92DF92EF92FF920F931F93CF939C
:10493000DF935C01FC0101900020E9F731976F01E2
:10494000C81AD90A5C2C0F2EF6EB8F2EF8E09F2E9A
:10495000F02DE12CF12C4C2C3701F4010181128156
:10496000E80109900020E9F72197C01BD10B3C2EEC
:10497000F9E0CF16D10458F0F4012080FEE02F12A8
:1049800006C0B801C5010E941437892B09F5442DD2
:10499000351408F44C2F50E0B801C5010E944B3784
:1049A000892B49F4F301EE0FFF1FE60DF71DEA54C2
:1049B000F74F20800DC08FEFE81AF80AE3E08E0E63
:1049C000911CF1E1EF16F10439F66894222424F8E1
:1049D000822DDF91CF911F910F91FF90EF90DF908B
:1049E000CF90BF90AF909F908F907F906F905F908F
:1049F0004F903F902F90089530DF89CF0895809198
:104A00000E1490910F140C94C50F08958F929F92DD
:104A1000AF92CF92EF920F931F93CF93C82F8B013A
:104A200041E060E070E088EC90E00E94930F90938A
:104A30000F1480930E1410930D1400930C140F2E6A
:104A4000F7EE8F2EF3E29F2EF02D6894AA24A6F89D
:104A50006894CC24C6F8E12C00E023E040E051EE5D
:104A600060E070E08C2FD2D39093111480931014D7
:104A7000E7E0F1E0808180618083CF911F910F9109
:104A8000EF90CF90AF909F908F900895882331F052
:104A9000E8E0F1E080818F7E80830895E8E0F1E036
:104AA000808180618083089560E070E08CE396E00F
:104AB000D4DEE7E9F4E101900020E9F73197E75906
:104AC000F44181E0759708F080E00895CF93DF937B
:104AD000EC0160E070E08DE496E0BFDEE7E9F4E130
:104AE00001900020E9F7E85AF44139F467E974E1EC
:104AF000CE010E94443780E002C0188281E0DF913D
:104B0000CF910895FC0101900020E9F79F01215108
:104B100031092817390729F4BC018BE796E06CCFDF
:104B2000089589E00895FC0101900020E9F79F01B4
:104B3000215131092817390729F4BC018AE896E088
:104B40005BCF089589E00895FC0101900020E9F70A
:104B50009F01215231092817390729F4BC0189E93D
:104B600096E04ACF089589E0089560E070E088ED0E
:104B700096E042CF08950F931F93E82FF0E0EE0FD9
:104B8000FF1FEE54F74F6081718181EE96E034DFB4
:104B9000811114C008E215E020E030E04DE250E061
:104BA00067E974E180910E1490910F140E94FE1039
:104BB000882321F087E994E1AADE03C087E994E124
:104BC000A6DE1F910F9108950F931F93CF93DF934C
:104BD0001F92CDB7DEB7DB0111969C9111979531ED
:104BE00008F0B4C0992381F160E070E0272F30E035
:104BF000462F50E0FD01E40FF51F928192959F70C2
:104C00009A3010F0995C01C0905DF901E85DFB4EAF
:104C100090832F5F3F4FFD01E40FF51F92819F703E
:104C2000492F50E04A30510514F0995C01C0905D65
:104C3000F901E85DFB4E90837E5F6F5F11969C915A
:104C40001197691798F201C070E0E72FF0E0E85D76
:104C5000FB4E10824C91811103C08AEE96E002C097
:104C60008CEE96E028E234E13F932F931F924F930E
:104C70009F938F9380EF96E09F938F938AE694E1C2
:104C80009F938F930E94ED3760E070E08AE694E195
:104C9000B3DE0FB6F894DEBF0FBECDBF811159C091
:104CA00008E215E020E030E04DE250E067E974E111
:104CB00080910E1490910F140E94FE10882309F425
:104CC00047C087E994E123DE8E3009F042C087E0D7
:104CD000898380910C1490910D14892BA9F1BE0148
:104CE0006F5F7F4F87E994E168D180931214E98167
:104CF000F0E0E956FB4EDF010D900020E9F7119737
:104D0000AE1BBF0BAA2391F0BB27CD0101979C01DD
:104D100012F42F5F3F4F3595279520931314AF0161
:104D20004F5F5F4F64E184E194E173D101E010E0F3
:104D300020E030E046E150E062E174E180910C1443
:104D400090910D140E94F50F8EE003C084E101C024
:104D500080E00F90DF91CF911F910F9108958130E6
:104D600019F060E077E002C069ED77E084E097E059
:104D700043CE08959F938F9385E397E09F938F93FE
:104D80008AE694E19F938F930E94ED3760E070E094
:104D90008AE694E131DE0F900F900F900F900F9004
:104DA0000F9008952F923F924F925F926F927F9251
:104DB0008F929F92AF92BF92CF92DF92EF92FF922B
:104DC0000F931F93CF93DF93CDB7DEB7A0970FB6A6
:104DD000F894DEBF0FBECDBF62E677E08EE697E0C7
:104DE0003CDD95DD8111A3C080E2E2E2F2E0DE016C
:104DF000119601900D928A95E1F79E012F5F3F4F2A
:104E00006901E12CF12C0F2EFAE7AF2EF7E0BF2E4F
:104E1000F02D0AE614E10F2EF3E94F2EF7E05F2E96
:104E2000F02D0F2EFAEA8F2EF7E09F2EF02D0F2E89
:104E3000F4EC6F2EF7E07F2EF02D3E2C2F2CFF92FE
:104E4000EF92BF92AF921F930F930E94ED3760E0F5
:104E500070E0C80102DD5BDD0F900F900F900F90A6
:104E60000F900F90811163C032E03E15E8F4F60117
:104E700083818F9382818F9381818F9380818F93A0
:104E8000FF92EF925F924F921F930F930E94ED3724
:104E900060E070E0C801E1DC3ADD0FB6F894DEBFF7
:104EA0000FBECDBF811143C02F923F929F928F9230
:104EB0001F930F930E94ED3760E070E0C801CDDCD6
:104EC00026DD0F900F900F900F900F900F90811193
:104ED0002EC02F923F927F926F921F930F930E944A
:104EE000ED3760E070E0C801B8DC11DD0F900F9085
:104EF0000F900F900F900F90811119C03FEFE31AA0
:104F0000F30A84E0C80ED11C98E0E916F10409F018
:104F100094CF60E070E08CED97E09FDCF8DC8111CD
:104F200006C060E070E08DEE97E097DCF0DCA096C4
:104F30000FB6F894DEBF0FBECDBFDF91CF911F91AA
:104F40000F91FF90EF90DF90CF90BF90AF909F9028
:104F50008F907F906F905F904F903F902F9008952B
:104F6000EF92FF920F931F93CF93DF93EC018B018E
:104F70007A0181E0F4DE81110DC0CE01D4DD811112
:104F800009C0C801E1DD811105C0C701BBDD811188
:104F900001C0EBDDDF91CF911F910F91FF90EF905A
:104FA000089590E0FC01EE0FFF1F8E0F9F1FFC0184
:104FB000EA54F74F818192810895DC01009729F12D
:104FC000FB012081FC0101900020E9F73197E81BEB
:104FD000F90B822F90E0E817F907C8F080E008C0CD
:104FE000880F382F330F330F830F8053890F2F5FB4
:104FF000FD01E20FF11D908130ED390F3A3010F4D0
:105000009111EECFFB012083089580E0089580E0A8
:1050100008950F931F93CF93DF93DC01EA0120974C
:10502000E1F1FA0101900020E9F73197E41BF50B5B
:10503000329710F532C08D01040F151F30E0AE011C
:10504000420F531FFA019081913428F09753592F42
:105050005295507F03C0592F5295507F2C0F3D1F02
:10506000F9019181913410F0975301C09053950F3D
:10507000F80190838F5F01C080E0282F220F482F16
:1050800050E0FE0101900020E9F73197EC1BFD0B89
:105090004E175F0710F48613CECFDF91CF911F918B
:1050A0000F9108958091C714860F8093C714909133
:1050B000CA14913079F028F09230A9F0933019F1A8
:1050C00008956F3F09F048C01092C71481E08093A3
:1050D000CA140895663809F03FC01092C61482E0E1
:1050E0008093CA140895E091C61481E08E0F8093D6
:1050F000C614F0E0EC53FB4E6083823069F583E028
:105100008093CA1408959091C61421E0290F20932A
:10511000C614963009F581110EC0E4ECF4E18081EB
:1051200090E0982F88272181820F911D9093CC14B5
:105130008093CB1404C01092CC141092CB14109214
:10514000CA14E091C814F091C914309729F08091E5
:10515000CB149091CC14199508958F929F92AF9291
:10516000CF92EF920F930F2EF2E58F2EF8E29F2E43
:10517000F02D6894AA24A4F86894CC24C4F8E12CF7
:1051800000E023E040E855E260E070E03FD090931B
:10519000CE148093CD140F91EF90CF90AF909F904D
:1051A0008F9008959093C9148093C8140895CF9355
:1051B000DF93CDB7DEB729970FB6F894DEBF0FBEE9
:1051C000CDBF89E0E2E4F2E09E012F5F3F4FD901BD
:1051D00001900D928A95E1F71092CC141092CB14A5
:1051E0008091CD149091CE14009731F0422F532F1F
:1051F00069E0DAD080E001C082E029960FB6F89429
:10520000DEBF0FBECDBFDF91CF9108952F923F92A9
:105210004F925F926F927F928F929F92AF92CF92B6
:10522000EF92FF920F931F93CF93DF93CDB7DEB72B
:10523000F82E2A013B0188E090E00E94FC348C01AA
:105240008F2D90E0FC01EE0FFF1FE153FB4E118309
:1052500000830115110509F46AC0880F991FFC012C
:10526000E55FFD4F80819181D8018D939C938C2DBA
:1052700090E0880F991F880F991F0E94FC341C0131
:1052800086E090E00E94FC347C014C2DB101E6D612
:10529000F801F582E4828A2D90E0880F991F880F2B
:1052A000991F0E94FC341C0186E090E00E94FC34AF
:1052B0007C014A2DB101D2D6D8011396FC92EE9210
:1052C000129717969C928E921697FFB6F894ED91CE
:1052D000FC91119736978081826080838D909C909D
:1052E000C301B2010E94443420E030E040E051E4C8
:1052F000DDD89B01AC0160E074E284E79BE40E948E
:10530000D33320E030E040E85FE333D947D8F401FD
:1053100032976083D801ED91FC911197359788E918
:105320008083ED91FC91349786E08083FFBEC801B5
:10533000DF91CF911F910F91FF90EF90CF90AF90A1
:105340009F908F907F906F905F904F903F902F90A5
:105350000895CF93DF93DC01892B01F11296ED9133
:10536000FC911397938182812581981B92238481DC
:105370009817B1F0838126952823C081D181C20F6F
:10538000D11D68838F5F958189238383ED91FC9183
:10539000359780818062808380E003C081E001C016
:1053A00082E0DF91CF910895EF92FF920F931F93C8
:1053B000CF93DF937C01009709F441C0DC01129682
:1053C000ED91FC91139793818281981B858198239D
:1053D0008481891B8617A8F1662341F1842F952FBC
:1053E000DC016150462F50E04F5F5F4F480F591F5F
:1053F000E701EA81FB81938182812581981B9223B9
:105400008481981779F08C91938126952923608166
:1054100071818B01020F111DE80188839F5F8581D7
:10542000982393831196A417B50711F7D701ED912F
:10543000FC91359780818062808380E003C081E0A9
:1054400001C082E0DF91CF911F910F91FF90EF900B
:1054500008950097D1F0DC011496ED91FC91159719
:1054600093818281981799F092818581869589230D
:10547000A081B181A80FB11D8C91DB018C939F5F3E
:1054800085819823928380E0089581E0089583E0E8
:1054900008951F920F920FB60F9211240BB60F9220
:1054A0002F933F934F935F936F937F938F939F932C
:1054B000AF93BF93CF93DF93EF93FF93A091CF145C
:1054C000B091D014109711F16091C6001496ED912F
:1054D000FC911597938182812581981B9223848169
:1054E000981761F0838126952823C081D181C20F4E
:1054F000D11D68838F5F9581892383831696ED91F3
:10550000FC911797309711F0CD011995FF91EF910C
:10551000DF91CF91BF91AF919F918F917F916F91CB
:105520005F914F913F912F910F900BBE0F900FBE47
:105530000F901F9018951F920F920FB60F92112483
:105540000BB60F922F938F939F93AF93BF93EF93CD
:10555000FF93E091CF14F091D0143097B9F002800E
:10556000F381E02D938182819817B1F0928185813A
:10557000282F26952923A081B181A20FB11D2C913E
:105580009F5F892382832093C6000BC0E1ECF0E08B
:1055900080818F7D808305C0E1ECF0E080818F7D8C
:1055A0008083FF91EF91BF91AF919F918F912F9148
:1055B0000F900BBE0F900FBE0F901F9018951F926B
:1055C0000F920FB60F9211240BB60F922F933F93A9
:1055D0004F935F936F937F938F939F93AF93BF93FB
:1055E000CF93DF93EF93FF93A091D114B091D21496
:1055F000109711F16091CE001496ED91FC911597E2
:10560000938182812581981B92238481981761F070
:10561000838126952823C081D181C20FD11D688343
:105620008F5F9581892383831696ED91FC9117975F
:10563000309711F0CD011995FF91EF91DF91CF9146
:10564000BF91AF919F918F917F916F915F914F919A
:105650003F912F910F900BBE0F900FBE0F901F9098
:1056600018951F920F920FB60F9211240BB60F923E
:105670002F938F939F93AF93BF93EF93FF93E091FB
:10568000D114F091D2143097B9F00280F381E02D5B
:10569000938182819817B1F092818581282F269578
:1056A0002923A081B181A20FB11D2C919F5F892375
:1056B00082832093CE000BC0E9ECF0E080818F7DE7
:1056C000808305C0E9ECF0E080818F7D8083FF91CD
:1056D000EF91BF91AF919F918F912F910F900BBE42
:1056E0000F900FBE0F901F9018951F920F920FB63C
:1056F0000F9211240BB60F922F933F934F935F930A
:105700006F937F938F939F93AF93BF93CF93DF93C9
:10571000EF93FF93A091D314B091D414109711F18B
:105720006091D6001496ED91FC911597938182813A
:105730002581981B92238481981761F08381269597
:105740002823C081D181C20FD11D68838F5F9581CD
:10575000892383831696ED91FC911797309711F06A
:10576000CD011995FF91EF91DF91CF91BF91AF914D
:105770009F918F917F916F915F914F913F912F9169
:105780000F900BBE0F900FBE0F901F9018951F9299
:105790000F920FB60F9211240BB60F922F938F9387
:1057A0009F93AF93BF93EF93FF93E091D314F09146
:1057B000D4143097B9F00280F381E02D9381828177
:1057C0009817B1F092818581282F26952923A081F1
:1057D000B181A20FB11D2C919F5F892382832093F9
:1057E000D6000BC0E1EDF0E080818F7D808305C0A5
:1057F000E1EDF0E080818F7D8083FF91EF91BF919B
:10580000AF919F918F912F910F900BBE0F900FBE74
:105810000F901F9018951F920F920FB60F921124A0
:105820000BB60F922F933F934F935F936F937F939A
:105830008F939F93AF93BF93CF93DF93EF93FF9398
:10584000A091D514B091D614109711F16091360142
:105850001496ED91FC911597938182812581981B77
:1058600092238481981761F0838126952823C08133
:10587000D181C20FD11D68838F5F95818923838376
:105880001696ED91FC911797309711F0CD0119956F
:10589000FF91EF91DF91CF91BF91AF919F918F9148
:1058A0007F916F915F914F913F912F910F900BBE20
:1058B0000F900FBE0F901F9018951F920F920FB66A
:1058C0000F9211240BB60F922F938F939F93AF9348
:1058D000BF93EF93FF93E091D514F091D6143097D6
:1058E000B9F00280F381E02D938182819817B1F0A5
:1058F00092818581282F26952923A081B181A20F2D
:10590000B11D2C919F5F89238283209336010BC0A8
:10591000E1E3F1E080818F7D808305C0E1E3F1E088
:1059200080818F7D8083FF91EF91BF91AF919F9197
:105930008F912F910F900BBE0F900FBE0F901F9065
:105940001895CF93DF931F92CDB7DEB7BE016F5F7F
:105950007F4F8091D7149091D8147BDD8111F6CFC1
:10596000898190E00F90DF91CF910895682F809109
:10597000D7149091D814EDDC80E090E008958F92D8
:105980009F92AF92CF92EF920F93812C912C6894BB
:10599000AA24A7F86894CC24C7F8E12C00E023E0FF
:1059A00040E051EE60E070E031DC9093D8148093D9
:1059B000D714EFE0F5E183E192E091838083938354
:1059C00082830F91EF90CF90AF909F908F9008952A
:1059D000E091E114F091E214309709F019950895DF
:1059E0006450623008F03BC02091E014223079F01E
:1059F00018F4213031F030C0233081F02430A1F090
:105A00002BC022E02093E01461E038C20895FA012F
:105A100080818093DD1482E0DBCF089524E0209321
:105A2000E01464E02BC20895FA01818190E0982F80
:105A300088272081822B9093DC148093DB14838150
:105A400090E0982F88272281822B9093DA148093FC
:105A5000D91481E0BDCF089580E0BACF08951092A7
:105A6000E01486E0B5CF08952091E3143091E4145A
:105A70002115310541F0462FBC01C901B3D1823057
:105A800021F080E0089587E0089585E008950F9360
:105A90001F939093E2148093E11400EF1CE220E046
:105AA00034E244EF50E060E089E24BD19093E4149B
:105AB0008093E314892B11F080E001C088E01F91EE
:105AC0000F910895CF93DF931F921F92CDB7DEB74A
:105AD00080EA898383E08A831092E01462E0CE0139
