S00B0000496F542E737265630D
S113000066C1000085C1000083C1000081C10000F9
S11300107FC100007DC100007BC1000079C10000E8
S113002077C1000075C1000073C1000071C10000F8
S1130030B4C700006DC100006BC1000069C10000BD
S113004067C1000065C1000063C1000061C1000018
S11300505FC100005DC100005BC1000059C1000028
S113006057C100000C941A240C946C2451C1000054
S11300704FC100004DC100004BC1000049C1000048
S113008047C1000045C1000043C1000041C1000058
S11300900C94B0240C9402253BC100000C949A27C4
S11300A037C1000035C1000033C1000031C1000078
S11300B02FC100002DC100002BC1000029C1000088
S11300C027C1000025C1000023C100000C9446256F
S11300D00C9498251DC100000C94DC250C942E264C
S11300E017C10000E41BE41BE41B1B1C231C381C6D
S11300F0E41BE41B1B1C231CBC272C282C282C28A9
S11301002C282C282C282C28BC272C282C282C28BC
S11301102C282C282C282C28BE272C282C282C28AA
S11301202C282C282C282C282C282C282C282C282B
S11301302C282C282C282C28BE272C282C282C288A
S11301402C282C282C282C282C282C282C282C280B
S11301502C282C282C282C2828282C282C282C28FF
S11301602C282C282C282C28F3272C282C282C2825
S11301702C282C282C282C282C282C282C282C28DB
S11301802C282C282C282C28E7272C282C282C2811
S11301902C282C282C282C280B286E616E00696EC4
S11301A0660000407A10F35A00A0724E180900103D
S11301B0A5D4E80000E87648170000E40B540200D8
S11301C000CA9A3B000000E1F50500008096980003
S11301D0000040420F000000A0860100000010272C
S11301E000000000E80300000000640000000000BC
S11301F00A00000000000100000000002C76D888EE
S1130200DC674F0823DFC1DFAE59E1B1B796E5E300
S1130210E453C63AE651997696E8E6C28426EB8919
S11302208C9B62ED407C6FFCEFBC9C9F40F2BAA5B6
S11302306FA5F490055A2AF75C936B6CF9676DC14E
S11302401BFCE0E40D47FEF520E6B500D0ED902E52
S11302500300943577050080841E080000204E0AB0
S1130260000000C80C333333330F986E12831141EE
S1130270EF8D2114893BE65516CFFEE6DB18D184B9
S11302804B381BF77C1D901DA4BBE42420328472E0
S11302905E228100C9F124ECA1E53D270E94260FCE
S11302A08091EF10823008F0B2D50E94611CF6CF25
S11302B0CF93DF931F92CDB7DEB7CE0101960E9494
S11302C0611949810E94561B0E94AD1BF6CF11246F
S11302D01FBECFEFD1E2DEBFCDBF00E00CBF16E002
S11302E0A0E0B2E0EEE7F1E600E00BBF02C0079049
S11302F00D92A43BB107D9F722E1A4EBB6E001C00B
S11303001D92A53AB207E1F70E94C81C0C94BD30B7
S113031077CECF93DF93EC010E94511E262F372F07
S1130320462F572F682F792F488359836A837B83FD
S11303309F938F933F932F9382E492E09F938F93A5
S11303400E94EE2F0F900F900F900F900F900F9030
S1130350DF91CF910895CF93DF9300D01F92CDB753
S1130360DEB75C010E94771069837A838B839C8358
S113037042EA53E060E070E0CE0101960E948D12E3
S11303800E942B1E882321F087E492E00E94013012
S113039040918F125091901260919112709192122B
S11303A0CC24CA94DC2C760101E020E080919312E5
S11303B090919412D7D164E070E080E090E00E94C4
S11303C0F2120E94401E60E070E0CB010E94F21223
S11303D0C5019FDFCDCFEF92FF920F93CF93DF93B1
S11303E0EC01062F40918F1250919012609191125E
S11303F070919212809193129091941253D2E12CA5
S1130400F12C9E0140EC50E061E672E08BEA91E051
S11304100E94ED0FDF91CF910F91FF90EF9008951F
S1130420AF92BF92CF92DF92EF92FF920F931F93FE
S1130430CF93DF938C015B0169017A0184E090E042
S11304400E94402DEC01892BF1F0188219821A8246
S11304501B82B0929412A0929312C0928F12D092E7
S11304609012E0929112F09292120E94131E811146
S113047004C082E792E00E940130B801CE01ABDFF4
S11304808C2F9D2F02C080E090E0DF91CF911F91CF
S11304900F91FF90EF90DF90CF90BF90AF900895B1
S11304A0FC01608171818281938108950F931F9370
S11304B0CF93DF93CDB7DEB764970FB6F894DEBF62
S11304C00FBECDBF0E94D81F0E9455229F938F93C9
S11304D08BE892E09F938F930E94EE2F0E94562107
S11304E00E9455229F938F938EE992E09F938F935E
S11304F00E94EE2F8E010F5F1F4FC8010E94EA1F5A
S11305000E9455221F930F939F938F9387EB92E042
S11305109F938F930E94EE2FC8010E9406200E9491
S113052055229F938F931F930F938BEC92E09F938D
S11305308F930E94EE2FA80160EE72E081E093E0B9
S11305400E9434220E9455229F938F931F930F93EE
S113055080EE92E09F938F9381E093E09F938F933B
S113056082E193E09F938F930E94EE2F0E943920A3
S11305700E9455229F938F9388E493E09F938F93D7
S11305800E94EE2F0FB6F894DEBF0FBECDBF81E000
S11305900E9433210E9455229F938F9387E593E015
S11305A09F938F930E94EE2F84EF91E00E943E214F
S11305B00E9455229F938F9381E08F9384EF8F93B2
S11305C088E793E09F938F930E94EE2F0FB6F894E1
S11305D0DEBF0FBECDBF1AE080E00E943F20082F8F
S11305E00E9455229F938F931F921F9388E993E053
S11305F09F938F930E94EE2F0F900F900F900F9068
S11306000F900F90083041F066E371E080E090E0D5
S11306100E94F212115001F7083011F0F8D3FECF06
S113062064960FB6F894DEBF0FBECDBFDF91CF91B5
S11306301F910F9108950F931F93CF93DF931F92F0
S11306401F92CDB7DEB781E00E94CA1F62E070E05E
S113065080E090E00E94F21280E00E94CA1F66E9E6
S113066070E080E090E00E94F2120E94831F1EDF7F
S113067004EB16E082E0F801818381E080830E942C
S1130680771080919512909196120ADFAE014F5F18
S11306905F4F0E94261D0E94CC1C8981F801828331
S11306A06383B80180E00E9468200E9455229F93D2
S11306B08F9388EB93E09F938F930E94EE2F0F907C
S11306C00F900F900F900F900F90DF91CF911F918B
S11306D00F910895EF92FF920F93E12CF12C082FC4
S11306E020E030E048E851E06DEC73E08BE193E00A
S11306F00E94ED0F0F91FF90EF9008950F93011159
S11307000CC0DC01CB0182239323A423B523892BC2
S11307108A2B8B2B79F480E010C0DC01CB0182237F
S11307209323A423B523281739074A075B0721F02D
S113073080E003C081E001C081E00F910895CF9370
S1130740DF938FE090E0AFD1EC01009739F0FC012A
S11307501192119211921192CF018BD2CE01DF919D
S1130760CF9108952F923F924F925F926F927F9212
S11307708F929F92AF92BF92CF92DF92EF92FF92AD
S11307800F931F93CF93DF93EC014A015B01622E19
S1130790702E0E947110288039804A805B80A501E8
S11307A09401C201B101AADF8823A1F0662089F176
S11307B0D501C40180959095A095B095822193218F
S11307C0A421B52188839983AA83BB83C12CD12C0E
S11307D0760122C0C114D104E104F104E9F06110EE
S11307E004C040E050E0BA0104C040E050E060E0E2
S11307F071E071107460482959296A297B2997018D
S11308008601CE0104960E948913212C312C2101EA
S113081003C0C12CD12C76010E94B111CD28CE2861
S1130820CF2859F1811101C0F2D20E945D166B01EB
S11308307C0191FD1FC00FB6F8940F92C880D98037
S1130840EA80FB80072DA5019401C701B60156DF9C
S1130850882371F0662061F080949094A094B09401
S11308608C209D20AE20BF2088829982AA82BB82E0
S11308700F900FBE160127015524C201B101DF916B
S1130880CF911F910F91FF90EF90DF90CF90BF9089
S1130890AF909F908F907F906F905F904F903F901C
S11308A02F9008954F925F926F927F92AF92BF9272
S11308B0CF92DF92EF92FF920F931F93CF93DF9328
S11308C0EC016A017B018C01095F1F4F0E947110CA
S11308D0EB85FC8588819981AA81BB81C82AD92AA4
S11308E0EA2AFB2AC882D982EA82FB82C12CD12C53
S11308F076013DC0A480B58080819181A281B381BD
S1130900AC01BD017727B2FD0EC0488059806A80D2
S11309107B80442255226622772245284628472890
S113092089F420E012C0488059806A807B80442288
S1130930552266227722441555056605770521F070
S113094020E003C021E001C021E0222371F0B0FFC8
S113095004C0C42AD52AE62AF72A488159816A8123
S11309607B817260CF010E94C414EA2DFB2DE01735
S1130970F10709F0BFCFC094D094E094F09488813B
S11309809981AA81BB81C822D922EA22FB22C8828A
S1130990D982EA82FB820E94B111688179818A81BD
S11309A09B81DF91CF911F910F91FF90EF90DF908A
S11309B0CF90BF90AF907F906F905F904F900895CD
S11309C0E6EDF6E0AAEDB6E0B183A08313821282CD
S11309D0EAE9F0E1F093D506E093D406138212829B
S11309E01182108280EC99E013969C938E93129757
S11309F0ED93FC939093D1068093D0069093D30605
S1130A008093D20680E090E89093CB068093CA0648
S1130A100895CF93DF93EC01A6EDB6E001C0DF01AA
S1130A20ED91FC911197EC17FD07C8F312968D9187
S1130A309C9113979D01280F391FC217D30749F4BE
S1130A402A813B81820F931F13969C938E93129756
S1130A50ED018A819B819E01280F391FE217F3075C
S1130A60C1F42091D4063091D506E217F30771F052
S1130A7022813381820F931F9B838A83ED91FC91A2
S1130A801197808191819983888305C03983288354
S1130A9002C0F983E883CA17DB0711F0CD93DC9316
S1130AA0DF91CF910895EF92FF920F931F93CF930D
S1130AB0DF938C010E9471108091D4069091D50629
S1130AC0892B09F47DDF8091CA069091CB0680239F
S1130AD09123892B09F076C00115110549F0C8014D
S1130AE004960817190718F000E010E001C08C0103
S1130AF00115110509F469C08091D2069091D306BD
S1130B008017910708F464C0C091D606D091D70627
S1130B10E6EDF6E002C0FE01EC018A819B818017BC
S1130B20910720F4888199810097A9F78091D406D0
S1130B309091D506C817D90709F44DC0E080F1801B
S1130B4084E0E80EF11C88819981918380832A8155
S1130B503B81201B310B2930310548F0CE01800F39
S1130B60911FFC01338322831B830A8352DF2A8172
S1130B703B818091D2069091D306821B930B909374
S1130B80D3068093D2064091D0065091D1068417A3
S1130B90950720F49093D1068093D0068091CA06DD
S1130BA09091CB06282B392B3B832A8319821882F8
S1130BB08091CE069091CF0601969093CF068093B4
S1130BC0CE060BC0E12CF12C08C0E12CF12C05C0A1
S1130BD0E12CF12C02C0E12CF12C0E94B111E114A2
S1130BE0F10411F40E946D1CC701DF91CF911F9194
S1130BF00F91FF90EF9008950F931F93CF93DF937E
S1130C00009791F1EC0124974A815B812091CA06F7
S1130C103091CB06BA0162237323672B29F16881D3
S1130C207981672B09F520953095242335233B835F
S1130C302A830E9471108A819B812091D20630916F
S1130C40D306820F931F9093D3068093D206CE01CE
S1130C50E0DE8091CC069091CD0601969093CD066E
S1130C608093CC060E94B111DF91CF911F910F9117
S1130C700895FC010396928381834FEF5FEFBA01DD
S1130C8043835483658376839087878392878187A0
S1130C9010820895FC011386128608950F931F9302
S1130CA0CF93DF93EB01088119812A813B810F3FA8
S1130CB04FEF14072407340721F4FC01A185B28502
S1130CC011C0DC01139601C0DF011496ED91FC9173
S1130CD01597408151816281738104171507260796
S1130CE0370790F71496ED91FC911597FD83EC83EB
S1130CF0D783C683BF83AE831596DC93CE931497B4
S1130D009B878A87FC0120812F5F2083DF91CF910D
S1130D101F910F910895CF93DF93FC01A285B385B2
S1130D20C481D581868197819F838E83C681D78133
S1130D30848195819D838C8311968D919C911297CA
S1130D40E817F90731F48681978112969C938E9364
S1130D501197138612868C9181508C938C91DF911C
S1130D60CF910895A89590EC88E10FB6F894A895D2
S1130D70809360000FBE909360000895FC0160832F
S1130D80319770833197108231971082319720E820
S1130D902083319710823197108231971082779790
S1130DA040833197508386970895DCDFA0915D11CD
S1130DB0B0915E11CD91CDBFDD91DEBFFF91EF917A
S1130DC0DF91CF91BF91AF919F918F917F916F915F
S1130DD05F914F913F912F911F910F91FF90EF9051
S1130DE0DF90CF90BF90AF909F908F907F906F9047
S1130DF05F904F903F902F901F900F900CBE0F90DC
S1130E000BBE0F900FBE0F90089581E008950F92CE
S1130E100FB6F8940F920BB60F920CB60F921F9266
S1130E2011242F923F924F925F926F927F928F92F2
S1130E309F92AF92BF92CF92DF92EF92FF920F9365
S1130E401F932F933F934F935F936F937F938F934E
S1130E509F93AF93BF93CF93DF93EF93FF93A091AF
S1130E605D11B0915E110DB60D920EB60D920E94F9
S1130E700D13A0915D11B0915E11CD91CDBFDD91A7
S1130E80DEBFFF91EF91DF91CF91BF91AF919F9121
S1130E908F917F916F915F914F913F912F911F910E
S1130EA00F91FF90EF90DF90CF90BF90AF909F9005
S1130EB08F907F906F905F904F903F902F901F90F6
S1130EC00F900CBE0F900BBE0F900FBE0F900895A5
S1130ED00F920FB6F8940F920BB60F920CB60F92B6
S1130EE01F9211242F923F924F925F926F927F92A2
S1130EF08F929F92AF92BF92CF92DF92EF92FF9226
S1130F000F931F932F933F934F935F936F937F930D
S1130F108F939F93AF93BF93CF93DF93EF93FF93FD
S1130F20A0915D11B0915E110DB60D920EB60D92A9
S1130F3013BE0E94851081110E940D13A0915D11B2
S1130F40B0915E11CD91CDBFDD91DEBFFF91EF91E8
S1130F50DF91CF91BF91AF919F918F917F916F91CD
S1130F605F914F913F912F911F910F91FF90EF90BF
S1130F70DF90CF90BF90AF909F908F907F906F90B5
S1130F805F904F903F902F901F900F900CBE0F904A
S1130F900BBE0F900FBE0F9008959ADF18950FB6F1
S1130FA0F8940F92FC01868D811102C081E001C08A
S1130FB080E00F900FBE08950FB6F8940F92FC01D5
S1130FC0268D878D281302C081E001C080E00F9038
S1130FD00FBE08950F931F93CF93DF93EC01042F5B
S1130FE01E8D48A141110CC088819981892B09F07B
S1130FF042C08C819D810E9402161D821C8242C0C7
S1131000011117C050E08A819B810E94482F28A1BA
S11310108A819B81820F911D9B838A832C813D81D0
S11310208217930750F1888199819B838A8380E09A
S113103029C050E08E819F810E94482F88A190E0B2
S11310409195819591092E813F81280F391F3F8306
S11310502E83488159812417350730F42C813D8132
S1131060820F931F9F838E83023049F4112349F02A
S1131070115080E007C080E005C080E003C080E03C
S113108001C080E01F5F1E8FDF91CF911F910F91F0
S11310900895FC0140A14423A9F050E02681378142
S11310A0240F351F378326838481958128173907B8
S11310B020F08081918197838683CB01668177813B
S11310C00C94482F08951F93CF93DF93EC010FB630
S11310D0F8940F921AA10BC08B89882351F0CE018A
S11310E043960E94151481110E94EB15115011169C
S11310F09CF38FEF8AA30F900FBE0FB6F8940F9254
S113110019A10BC08885882351F0CE0108960E944E
S1131110151481110E94EB15115011169CF38FEFD9
S113112089A30F900FBEDF91CF911F910895CF93A4
S1131130DF93EC010FB6F8940F92E881F9818F8D5B
S113114028A190E030E0829FA001839F500D929FE0
S1131150500D11244E0F5F1F5D834C831E8EFB8345
S1131160EA830197289FA001299F500D389F500DB5
S11311701124CF01840F951F9F838E838FEF89A342
S11311808AA361110BC08885882371F0CE0108966B
S11311900E941514882341F03ADE06C0CE01089659
S11311A068DDCE01439665DD0F900FBE81E0DF91CF
S11311B0CF9108950F931F93F801611103C0118318
S11311C0008302C051834083878F60A361E0CF0115
S11311D0AEDF1F910F910895DF92EF92FF920F936C
S11311E01F93CF93DF93F82EE62ED42E869FC00153
S11311F01124839658DCEC01009741F08C012D2DCD
S1131200AC014D5D5F4F6E2D8F2DD4DFCE01DF918C
S1131210CF911F910F91FF90EF90DF900895CF929F
S1131220DF92EF92FF920F931F93CF93DF93CDB78B
S1131230DEB729970FB6F894DEBF0FBECDBF7C0191
S11312406B012E833F834887598710E00FB6F894CB
S11312500F92F701968D878D981710F00230B1F434
S1131260402FB601C701B6DEF7019389992341F0F7
S1131270C70143960E941514882321F0C8DD02C0DB
S11312808111C5DD0F900FBE81E04CC08E819F811E
S1131290A885B985892B8A2B8B2B21F40F900FBE3F
S11312A080E040C0111105C0CE0101960E94741562
S11312B011E00F900FBE15D70FB6F8940F92F701F7
S11312C081A18F3F09F411A2F70182A18F3F09F494
S11312D012A20F900FBEBE016A5F7F4FCE0101962E
S11312E00E948515811119C0C70166DE882381F02B
S11312F04E815F8168857985C70108960E947213C3
S1131300C701E1DE0E94B1118111A0CF80DD9ECF23
S1131310C701D9DE0E94B11199CFC701D4DE0E9462
S1131320B11180E029960FB6F894DEBF0FBECDBF91
S1131330DF91CF911F910F91FF90EF90DF90CF90AD
S113134008950F93009769F0FC01158214821182AD
S11313501082168200E020E030E0A90160E070E035
S11313605EDF0F910895CF93DF93482F60E081E013
S113137033DFEC01E6DFCE01DF91CF910895EF92E8
S1131380FF920F931F93CF93DF938A01FC01568D35
S1131390378D531710F02230F9F4422F7801EC0105
S11313A01AA18E8DCE0116DE1F3F81F48B8988230E
S11313B0A9F0CE0143960E941514882389F0E11404
S11313C0F10481F081E0F70180830DC0FF24F394E0
S11313D0F10EFAA281E007C080E005C081E003C0FD
S11313E081E001C081E0DF91CF911F910F91FF90C7
S11313F0EF900895CF92DF92EF92FF920F931F9395
S1131400CF93DF93CDB7DEB729970FB6F894DEBF3D
S11314100FBECDBF8C016B012E833F834887598754
S1131420E12C0FB6F8940F92F801F68CFF2099F096
S1131430B601C8012EDEFA94F801F68E8085882361
S113144031F0C80108960E9415148111E0DC0F9058
S11314500FBE81E04FC08E819F81A885B985892BFD
S11314608A2B8B2B21F40F900FBE80E043C0E11038
S113147006C0CE0101960E947415EE24E3940F90E9
S11314800FBE2FD60FB6F8940F92F80181A18F3FAB
S113149009F411A2F80182A18F3F09F412A20F905E
S11314A00FBEBE016A5F7F4FCE0101960E94851573
S11314B0811117C0C80173DD882379F04E815F81E3
S11314C068857985C80143960E947213C801FBDDC3
S11314D048D78111A6CF9BDCA4CFC801F4DD41D746
S11314E0A0CFC801F0DD3DD7C80159DD882309F438
S11314F098CF80E029960FB6F894DEBF0FBECDBF1B
S1131500DF91CF911F910F91FF90EF90DF90CF90DB
S11315100895CF93DF93EC010FB6F8940F9289A14D
S11315208F3F09F419A28AA18F3F09F41AA20F90E0
S11315300FBE8E8D811104C0CE0143960E94D31339
S1131540CE01C1DDDF91CF910895FC014481558125
S113155022813381240F351F80819181B901681B59
S1131560790BCB016417750710F0841B950B089554
S11315700F93FC018FE0DF011D928A95E9F77587CF
S11315806487558344833783268306870F910895A0
S1131590AF92BF92CF92DF92EF92FF920F931F937D
S11315A0CF93DF936C015B017A01FC01C281D3818B
S11315B0048115810C1B1D0B4017510708F48A0187
S11315C0F60184859585A801B5018C0F9D1F0E94A5
S11315D0482F0E151F0558F4A701401B510BB501E8
S11315E0600F711FF601848595850E94482FCE01F6
S11315F08E0D9F1DF601248135818217930710F00B
S1131600821B930BF60193838283C701DF91CF91F1
S11316101F910F91FF90EF90DF90CF90BF90AF900C
S11316200895CF92DF92EF92FF920F931F93CF937F
S1131630DF931F921F92CDB7DEB77C016B015A83F3
S1131640498321153105C1F0FC01868580FD08C060
S11316504217530708F49A013A83298381E00FC0A3
S11316602017310758F042E050E0BE016F5F7F4F12
S1131670C7018EDF81E003C080E001C080E08823E1
S113168031F049815A81B601C70182DF02C080E08E
S113169090E00F900F90DF91CF911F910F91FF90E9
S11316A0EF90DF90CF900895AF92BF92CF92DF92E8
S11316B0EF92FF920F931F93CF93DF937C015B0113
S11316C0E9014217530708F4EA01209781F1F70171
S11316D00081118184819581801B910B6E018C178F
S11316E09D0708F46C01F70164857585600F711F0F
S11316F0A601C5010E94482FCC16DD0658F4AE01A0
S11317004C195D09F70164857585C5018C0D9D1D16
S11317100E94482F0C0F1D1FF70184819581081723
S1131720190710F0081B190BF70111830083CE0170
S1131730DF91CF911F910F91FF90EF90DF90CF90A9
S1131740BF90AF9008956F927F928F929F92AF92C5
S1131750BF92CF92DF92EF92FF920F931F93CF939A
S1131760DF931F921F92CDB7DEB76C014B015A0174
S1131770790101151105B1F0FC0160807180A801A7
S1131780BE016F5F7F4F90DF89819A81E01AF10A71
S1131790A816B90630F4F60171826082A12CB12C2E
S11317A001C05C019701A501B401C6017DDF0F9062
S11317B00F90DF91CF911F910F91FF90EF90DF90E9
S11317C0CF90BF90AF909F908F907F906F9008952F
S11317D0CF92DF92EF92FF920F93CF93DF93EC01BE
S11317E06B01413011F401E001C000E0C114D104E7
S11317F019F4CC24C394D12CCE014096C817D90730
S113180020F4219650D97C0102C0E12CF12CE11482
S1131810F10439F09601AE01B701615F7F4FC70152
S1131820A7DEC701DF91CF910F91FF90EF90DF907A
S1131830CF9008950F930FB6F8940F92FC01208572
S11318403185232B71F422853385232B61F4268182
S113185037814481558164857585068589DE81E0FB
S113186003C080E001C080E00F900FBE0F91089587
S1131870FC012481358180819181820F931F4281F3
S11318805381841B950B01978217930710F0821BD9
S1131890930B08952F923F924F925F926F927F9293
S11318A08F929F92AF92BF92CF92DF92EF92FF926C
S11318B00F931F93CF93DF93CDB7DEB72B970FB65C
S11318C0F894DEBF0FBECDBF4C017B876A871A0137
S11318D00E831F8328873987FC01848195810197B2
S11318E0268520FF0CC02A01F2E04F0E511C8415FE
S11318F0950558F41E821F821886198606C084171F
S1131900950710F02A0101C02C018E819F81A885C2
S1131910B985892B8A2B8B2B09F438C0CE0101960B
S11319200E945E150FB6F8940F92C401A1DF3C012A
S11319308415950540F560E080E090E00E94471929
S11319400E94EF15F401938782870F900FBEAE803B
S1131950BF80C884D984E12CF12C00E010E0980108
S113196040E050E0BA0180E00E948716F40113863B
S11319701286BE016A5F7F4FCE0101960E948515D3
S1131980882381F205C00F900FBE02C0612C712C18
S11319906114710419F4C4016BDF3C0182019301E9
S11319A0A1016A857B85C4013CDE6C01892BE9F0C9
S11319B0C401CBDDF4012681378182179307A8F097
S11319C090D3F40180859185892B71F08085918570
S11319D0E12CF12C00E020E030E0A90160E00E945D
S11319E02E17F40111861086BCD4C6012B960FB6AF
S11319F0F894DEBF0FBECDBFDF91CF911F910F9141
S1131A00FF90EF90DF90CF90BF90AF909F908F901A
S1131A107F906F905F904F903F902F900895AF927A
S1131A20BF92CF92DF92EF92FF920F931F93CF93C7
S1131A30DF93EC017B015A0169018E8580FF04C0AC
S1131A408A010E5F1F4F01C08A01CE0111DF9C0184
S1131A50A501B701CE01E5DD5C01892BC1F0CE0102
S1131A6074DD2E813F818217930788F088859985DC
S1131A70892B69F088859985E12CF12C00E020E020
S1131A8030E0A90160E00E94251819861886C50176
S1131A90DF91CF911F910F91FF90EF90DF90CF9046
S1131AA0BF90AF9008954F925F926F927F928F9202
S1131AB09F92AF92BF92CF92DF92EF92FF920F93D9
S1131AC01F93CF93DF93EC012B013A015801690175
S1131AD08E8580FF05C06894882481F8912C02C00B
S1131AE0812C912CA114B104C104D10441F10FB68D
S1131AF0F8940F92CE0129DD7C018816990648F0EE
S1131B0060E080E090E00E9447190E94EF159987F9
S1131B1088870F900FBE8E149F04A0F0E12CF12C47
S1131B2000E010E0980140E050E0BA0180E00E943B
S1131B30871619861886CE0108DD7C0103C0CE0104
S1131B4004DD7C018E149F04E8F484019701A30151
S1131B50B201CE01F8DD6C01892BB1F0C2D28A85C5
S1131B609B85892B69F08A859B85E12CF12C00E00B
S1131B7020E030E0A90160E00E942E171B861A863F
S1131B80F0D302C0C12CD12CC601DF91CF911F919B
S1131B900F91FF90EF90DF90CF90BF90AF909F9008
S1131BA08F907F906F905F904F900895E091D71041
S1131BB0F091D810808181110CC08FEF9FEFDC0170
S1131BC08093A1109093A210A093A310B093A4109B
S1131BD00895E091D710F091D8100780F085E02D9A
S1131BE080819181A281B3818093A1109093A210EE
S1131BF0A093A310B093A4100895CF93DF93EC01A6
S1131C008B8D9C8D0E94FC05CE010E94FC05DF910A
S1131C10CF9108954F925F926F927F928F929F928D
S1131C20AF92BF92CF92DF92EF92FF920F93CF9336
S1131C30DF932C015B014A013901E60165EA70E09A
S1131C408B8D9C8D0E94512F8B8D9C8D21E0821A4F
S1131C509108880E991EA114B10489F415C0822F2D
S1131C6090E0F501E80FF91F3081DE01A80FB91FDC
S1131C705D963C938081882329F02F5F01C020E08A
S1131C80203168F31CA601C01D8E0A3008F009E05B
S1131C900A8F0DA71EA6CE0102960E944A06CE0107
S1131CA00E960E944A06DB87CA878AE090E0A0E08D
S1131CB0B0E0801B9109A109B1098E879F87A88B89
S1131CC0B98BDF8BCE8B84E0FE01BF96DF011D92C2
S1131CD08A95E9F71BAAA301B201C4014FD89983DD
S1131CE08883E114F10419F0F701D183C083DF91F3
S1131CF0CF910F91FF90EF90DF90CF90BF90AF9076
S1131D009F908F907F906F905F904F900895CF93A6
S1131D10C0E009C02BE0C29FC001112481519F4E35
S1131D200E943906CF5FCA30A8F384EE90E10E9486
S1131D30390689ED90E10E9439068AEC90E10E940F
S1131D4039068FEB90E10E94390683EB90E10E9403
S1131D50390684EE90E19093D8108093D71089EDE2
S1131D6090E19093D6108093D510CF910895CF939E
S1131D70DF93EC010FB6F8940F928091B2108F5F4D
S1131D808093B21080915D1190915E11892B51F472
S1131D90D0935E11C0935D118091B210813091F4A3
S1131DA0B6DF10C08091AC1081110CC0E0915D11C0
S1131DB0F0915E11928D8A8D891720F0D0935E1177
S1131DC0C0935D118091A5108F5F8093A510EA8D5B
S1131DD08091AD108E1710F4E093AD108BE08E9FC0
S1131DE0F0011124E151FF4E0180F281E02DFF83C7
S1131DF0EE832681378139872887A681B7819E01A2
S1131E002E5F3F4F15963C932E931497378326836A
S1131E10EA8D8E9FF0011124E151FF4EFD87EC877E
S1131E2080818F5F80830F900FBE8091AC108823D8
S1131E3051F0E0915D11F0915E11928D8A8D9817A9
S1131E4010F40E940707DF91CF910895CF93DF9399
S1131E501BC00FB6F8940F92E091C610F091C71012
S1131E60C085D185CE0102960E948B068091B21066
S1131E7081508093B2108091BE1081508093BE1027
S1131E800F900FBECE01B9DE8091BE108111E1CF5B
S1131E90DF91CF9108958F929F92AF92BF92CF928C
S1131EA0DF92EF92FF92CF93DF936B017C01C42FFB
S1131EB08090AE109090AF10A090B010B090B11080
S1131EC080915D1190915E1102960E948B068FEFB6
S1131ED0C816D806E806F806B1F5CC23A1F1E3EB61
S1131EE0F0E1A181B281C0915D11D0915E11BF83F7
S1131EF0AE83C0915D11D0915E1116968D919C9127
S1131F001797998788871696CD91DC9117978091BA
S1131F105D1190915E1102969D838C8380915D1179
S1131F2090915E11029617969C938E931697A091AA
S1131F305D11B0915E111D96FC93EE931C97808108
S1131F408F5F80833FC0C80CD91CEA1CFB1CE09146
S1131F505D11F0915E11C282D382E482F582C814CD
S1131F60D904EA04FB0468F460915D1170915E1178
S1131F708091D5109091D6106E5F7F4F0E944E06CF
S1131F8021C060915D1170915E118091D710909184
S1131F90D8106E5F7F4F0E944E068091A1109091E1
S1131FA0A210A091A310B091A410C816D906EA06F5
S1131FB0FB0640F4C092A110D092A210E092A310AC
S1131FC0F092A410DF91CF91FF90EF90DF90CF902B
S1131FD0BF90AF909F908F9008952F923F924F9211
S1131FE05F926F927F928F929F92AF92BF92CF92A5
S1131FF0DF92EF92FF920F93CF93DF933C011B018B
S11320004A012901CA010E9453056C01892B71F010
S113201084E390E00E945305EC01892B19F0DC8ED7
S1132020CB8E06C0C6010E94FC0502C0C0E0D0E011
S1132030209761F0A12CB12C6E019201A401B10191
S1132040C301E8DDCE0193DE81E001C08FEFDF91B3
S1132050CF910F91FF90EF90DF90CF90BF90AF9012
S11320609F908F907F906F905F904F903F902F90B4
S11320700895EF92FF920F930F2EFFE9EF2EF0E1F8
S1132080FF2EF02D00E020E030E040EC50E06AED5F
S113209073E08EE491E0A1DF813011F40E94EB192A
S11320A08130C9F4F8948FEF9FEFDC018093A11085
S11320B09093A210A093A310B093A41081E08093F6
S11320C0AC101092AE101092AF101092B01010928B
S11320D0B1100E94D506809106020F91FF90EF90F7
S11320E0089580919E108F5F80939E1008950FB67F
S11320F0F8940F926091AE107091AF108091B0106F
S11321009091B1100F900FBE0895CF92DF92EF928D
S1132110FF92CF93DF9380919E10811105C1C090EF
S1132120AE10D090AF10E090B010F090B1108FEFDF
S1132130C81AD80AE80AF80AC092AE10D092AF10B2
S1132140E092B010F092B110C114D104E104F10492
S1132150B1F48091D7109091D8102091D51030917E
S1132160D6103093D8102093D7109093D610809324
S1132170D5108091A6108F5F8093A61017DD8091F3
S1132180A1109091A210A091A310B091A410C81610
S1132190D906EA06FB0620F480E0B2C081E001C063
S11321A080E0E091D710F091D810908191110CC08B
S11321B04FEF5FEFBA014093A1105093A2106093C8
S11321C0A3107093A4109CC0E091D710F091D81084
S11321D00780F085E02D0084F185E02D4281538154
S11321E064817581C416D506E606F70648F4409363
S11321F0A1105093A2106093A3107093A41080C0F8
S1132200A485B585C681D781208531853F832E83FA
S1132210C085D185268137813D832C8311964D91CC
S11322205C9112979F012E5F3F4F4217530731F481
S11322304085518512965C934E93119715861486AA
S11322409C9191509C93A08DB18D109709F1C289F6
S1132250D389448955895F834E83C489D58942894A
S113226053895D834C8311966D917C911297AF01D4
S1132270425F5F4F6417750731F44489558912969C
S11322805C934E931197118E108E9C9191509C9358
S1132290A28D9091AD109A1710F4A093AD109BE00D
S11322A09A9FD0011124A151BF4E11960D90BC915B
S11322B0A02DB783A68316964D915C9117975187ED
S11322C040871696CD91DC9117973D832C83179602
S11322D03C932E931697A28D9A9FD0011124A1515D
S11322E0BF4EB587A4879C919F5F9C93228DE091FC
S11322F05D11F0915E11928D291708F04FCF51CFE7
S1132300E0915D11F0915E11E28D9BE0E99FF00197
S11323101124E151FF4E9081923008F081E09091B8
S1132320A710911116C016C08091A8109091A91001
S1132330A091AA10B091AB100196A11DB11D80937C
S1132340A8109093A910A093AA10B093AB1080E0AA
S113235001C081E0DF91CF91FF90EF90DF90CF90AB
S11323600895CF92DF92EF92FF92CF93DF930FB64F
S1132370F8940F9280919E10815080939E108091CA
S11323809E108111BEC08091B210811188C0BCC062
S1132390E091D110F091D2100084F185E02DA08D50
S11323A0B18DC289D389848995899F838E83C48999
S11323B0D589828993899D838C8311962D913C9133
S11323C01297CF010E962817390731F4848995891D
S11323D012969C938E931197118E108E8C9181502E
S11323E08C93A485B585C681D781808591859F838B
S11323F08E83C085D185868197819D838C83119638
S11324008D919C9112979F012E5F3F4F82179307E6
S113241031F48085918512969C938E93119715863D
S113242014868C9181508C93A28D8091AD108A1763
S113243010F4A093AD108BE08A9FD0011124A15118
S1132440BF4E11960D90BC91A02DB783A68316960E
S11324504D915C911797518740871696CD91DC91E9
S113246017973D832C8317963C932E931697A28D32
S11324708A9FD0011124A151BF4EB587A4878C91A6
S11324808F5F8C93928DA0915D11B0915E115A96DD
S11324908C91981730F081E08093A71002C0E0E09F
S11324A0F0E08091CA10811173CFEF2B09F07EDB2D
S11324B0C090A810D090A910E090AA10F090AB1092
S11324C0C114D104E104F104A1F01FDE882319F042
S11324D081E08093A71081E0C81AD108E108F108CF
S11324E0A1F71092A8101092A9101092AA1010929D
S11324F0AB108091A710882331F00E94070781E078
S113250003C080E001C080E00F900FBEDF91CF9147
S1132510FF90EF90DF90CF9008958F929F92AF92AB
S1132520BF92CF92DF92EF92FF921F93CF93DF93EC
S1132530EC016A017B01D5DD8090AE109090AF1064
S1132540A090B010B090B11088819981AA81BB810C
S1132550AC01BD014C0D5D1D6E1D7F1D88169906D5
S1132560AA06BB0660F4481759076A077B0798F464
S113257084169506A606B70680F010E013C0481727
S113258059076A077B0758F084169506A606B7060E
S113259040F010E007C010E005C011E003C011E0F6
S11325A001C011E0488359836A837B83112341F07E
S11325B0CB01BA01681979098A099B0940E06BDCEF
S11325C0D0DE811102C00E940707812FDF91CF91D5
S11325D01F91FF90EF90DF90CF90BF90AF909F90AE
S11325E08F900895CF92DF92EF92FF926B017C015E
S11325F0672B682B692B39F074DD40E0C701B60105
S11326004ADCAFDE01C080E0811102C00E940707EE
S1132610FF90EF90DF90CF90089580919E108823D3
S113262021F081E08093A71008951092A710E09103
S11326305D11F0915E1120813181E0915D11F09185
S11326405E11838D948D8217930760F060915D1104
S113265070915E11635E7F4F80915D1190915E1168
S11326600E94791C8091AD1001C08150282F30E068
S11326709BE0929FF001939FF00D1124E151FF4ED6
S11326809081992391F39BE0929FA001939F500D19
S11326901124DF010180F281E02D0480F581E02D19
S11326A01296FC93EE9311974E505F4EE417F50784
S11326B029F444815581FD01528341839BE0929F1B
S11326C0F001939FF00D1124E151FF4E0180F2813E
S11326D0E02D2085318530935E1120935D11809328
S11326E0AD100895CF92DF92EF92FF926A017B01C1
S11326F060915D1170915E11625F7F4F0E944E0682
S113270041E0C701B601C7DBFF90EF90DF90CF90A7
S113271008950F931F93CF93DF93FC01A0915D1154
S1132720B0915E1170681E964D935D936D937C938A
S11327305197A181B281C0915D11D0915E11BB8B83
S1132740AA8BC0915D11D0915E1116968D919C91CA
S113275017979D8B8C8B1696CD91DC911797809152
S11327605D1190915E110E969D838C8380915D1115
S113277090915E110E9617969C938E931697A09146
S11327805D11B0915E115996FC93EE935897808138
S11327908F5F808341E0C901B8017DDBDF91CF9178
S11327A01F910F910895CF93DF93FC01CB01BA01E0
S11327B0A181B281C0915D11D0915E11BB8BAA8BB6
S11327C0C0915D11D0915E1116964D915C91179751
S11327D05D8B4C8B1696CD91DC91179740915D11D2
S11327E050915E11425F5F4F5D834C8340915D1158
S11327F050915E11425F5F4F17965C934E9316970C
S1132800A0915D11B0915E115996FC93EE93589787
S113281030813F5F3083222319F06FEF7FEFCB01CC
S1132820422F39DBDF91CF910895CF93DF93DC0101
S11328301796ED91FC9118970084F185E02DA08DF9
S1132840B18DC289D389848995899F838E83C489F4
S1132850D589828993899D838C8311968D919C91CE
S113286012979F01225F3F4F8217930731F48489A7
S1132870958912969C938E931197118E108E8C913C
S113288081508C9380919E10811152C0A485B5858E
S1132890C681D781808591859F838E83C085D185AC
S11328A0868197819D838C8311968D919C9112973B
S11328B09F012E5F3F4F8217930731F480859185E6
S11328C012969C938E931197158614868C91815041
S11328D08C93A28D8091AD108A1710F4A093AD1043
S11328E08BE08A9FD0011124A151BF4E11960D9007
S11328F0BC91A02DB783A68316964D915C91179732
S1132900518740871696CD91DC9117973D832C8390
S113291017963C932E931697A28D8A9FD00111246B
S1132920A151BF4EB587A4878C918F5F8C931CC037
S11329304AEC50E1DA011196CD91DC911297D38BD8
S1132940C28B8E819F81958B848B8E819F81DC01CC
S113295015963C932E9314973F832E83518F408F6B
S1132960DA018C918F5F8C93928DE0915D11F091DF
S11329705E11828D891720F481E08093A71001C035
S113298080E0DF91CF910895CF93DF93DC017068ED
S11329904D935D936D937C9313971896ED91FC91F1
S11329A019971A964D915C911B9714968D919C9151
S11329B0159716962D913C911797EC013F832E8322
S11329C016968D919C91179714962D913C9115977D
S11329D0EC013D832C83EA0189819A81A817B90708
S11329E031F416968D919C9117979A8389831B963F
S11329F01C921E921A97DA018C9181508C93A485B3
S1132A00B585C681D781808591859F838E83C08556
S1132A10D185868197819D838C8311968D919C911C
S1132A2012979F012E5F3F4F8217930731F48085E1
S1132A30918512969C938E931197158614868C918A
S1132A4081508C93A28D8091AD108A1710F4A093BD
S1132A50AD108BE08A9FD0011124A151BF4E119675
S1132A600D90BC91A02DB783A68316964D915C91D1
S1132A701797518740871696CD91DC9117973D8320
S1132A802C8317963C932E931697A28D8A9FD00180
S1132A901124A151BF4EB587A4878C918F5F8C936D
S1132AA0928DE0915D11F0915E11828D891718F479
S1132AB081E08093A710DF91CF9108950FB6F89429
S1132AC00F922091A610FC0120834091AE105091EA
S1132AD0AF106091B0107091B11041835283638341
S1132AE074830F900FBE08952091A610FC012083DB
S1132AF04091AE105091AF106091B0107091B11030
S1132B00418352836383748308958F929F92AF921B
S1132B10BF92CF92DF92EF92FF920F931F93CF93C6
S1132B20DF93FB010FB6F8940F92C090AE10D090D3
S1132B30AF10E090B010F090B110DC0111960D913F
S1132B401D912D913C91149746015701801A910AC9
S1132B50A20AB30A40815181628173814F3FBFEF62
S1132B605B076B077B0739F1EC01B881A091A610D4
S1132B70BA1759F0C016D106E206F30630F01082F7
S1132B8011821282138281E017C084169506A6066C
S1132B90B70658F4481959096A097B0940835183D7
S1132BA062837383A1DF80E007C0108211821282E6
S1132BB0138281E001C080E00F900FBEDF91CF91BE
S1132BC01F910F91FF90EF90DF90CF90BF90AF9047
S1132BD09F908F90089581E08093A710089580912D
S1132BE05D1190915E1108958091AC10882331F0AD
S1132BF080919E10811104C082E0089581E00895BF
S1132C0080E008950F931F93CF93DF93FC01892BEA
S1132C1009F449C086A5815086A7228D95A5291758
S1132C2009F443C0811143C0EF018F010E5F1F4FB0
S1132C30C8010E948B06EDA5EA8F8AE090E0A0E02F
S1132C40B0E08E1B9109A109B1098E879F87A88BDB
S1132C50B98B8091AD108E1710F4E093AD108BE01A
S1132C608E9FF0011124E151FF4E0180F281E02D8D
S1132C70FF83EE832681378139872887A681B78130
S1132C8015961C930E93149717830683EA8D8E9FD3
S1132C90F0011124E151FF4EFD87EC8780818F5FA5
S1132CA0808381E005C080E003C080E001C080E053
S1132CB0DF91CF911F910F910895CF92DF92EF9200
S1132CC0FF92E0915D11F0915E11668577858089B0
S1132CD09189E0915D11F0915E11A0915D11B09127
S1132CE05E115A962C910F2EFAE0CF2ED12CE12CA6
S1132CF0F12CF02DC21AD108E108F108C686D78656
S1132D00E08AF18AFF90EF90DF90CF9008954F9280
S1132D105F926F927F92AF92BF92CF92DF92EF92C7
S1132D20FF920F931F93CF93DF93280139010FB6BE
S1132D30F8940F92E0915D11F0915E11C82FD0E0EC
S1132D40EC0FFD1F83A9823071F1E0915D11F091C8
S1132D505E11CE01880F991F880F991FE80FF91F84
S1132D6087A590A9A1A9B2A94095509560957095A1
S1132D70482359236A237B2347A750AB61AB72AB2B
S1132D80E0915D11F0915E11EC0FFD1F81E083ABCA
S1132D90A114B104C104D10431F041E0C601B5016C
S1132DA07AD80E9407070F900FBE0FB6F8940F92BF
S1132DB0E114F104A1F0E0915D11F0915E11CE01F6
S1132DC0880F991F880F991FE80FF91F87A590A9ED
S1132DD0A1A9B2A9F70180839183A283B383E0916F
S1132DE05D11F0915E11EC0FFD1F83A98230E9F4AF
S1132DF0E0915D11F0915E11CE01880F991F880F4B
S1132E00991FE80FF91F87A590A9A1A9B2A9409419
S1132E10509460947094482259226A227B2247A6D7
S1132E2050AA61AA72AA81E001C080E020915D11DC
S1132E3030915E11C20FD31F1BAA0F900FBEDF91FA
S1132E40CF911F910F91FF90EF90DF90CF90BF90A3
S1132E50AF907F906F905F904F9008958F929F9264
S1132E60AF92BF92EF92FF920F93CF93DF93DC0167
S1132E700FB6F8940F92E114F10489F0E62FF0E014
S1132E80EE0FFF1FEE0FFF1FE80FF91F87A490A896
S1132E90A1A8B2A8F70180829182A282B38270E0D5
S1132EA0FD01E60FF71F83A992E093AB023001F115
S1132EB018F4013031F04DC0033079F10430D1F110
S1132EC048C0660F771F660F771FFD01E60FF71FD7
S1132ED087A490A8A1A8B2A8BA01A9014829592990
S1132EE06A297B2947A750AB61AB72AB01E034C0C0
S1132EF0660F771F660F771FFD01E60FF71F47A5C3
S1132F0050A961A972A94F5F5F4F6F4F7F4F47A7C9
S1132F1050AB61AB72AB01E01FC0660F771F660F49
S1132F20771FFD01E60FF71F27A730AB41AB52AB6C
S1132F3001E012C0823079F0660F771F660F771FA9
S1132F40FD01E60FF71F27A730AB41AB52AB01E001
S1132F5003C001E001C000E0813009F069C01C96A3
S1132F60ED91FC911D971696CD91DC9117971896CB
S1132F708D919C9119979F838E831896CD91DC91A6
S1132F80199716968D919C9117979D838C838181B7
S1132F9092819D012E5F3F4F8217930731F418965B
S1132FA08D919C911997928381831D961C921E92F8
S1132FB01C978081815080835A96EC915A97809116
S1132FC0AD108E1710F4E093AD108BE08E9FF001DE
S1132FD01124E151FF4E0180F281E02D1796FC93FC
S1132FE0EE9316974681578119965C934E931897E2
S1132FF0C681D7813D832C83378326835A96EC91EF
S11330005A978E9FF0011124E151FF4E1D96FC93B7
S1133010EE931C9780818F5F80835A969C91E091F8
S11330205D11F0915E11828D891710F40E940707DB
S11330300F900FBE802FDF91CF910F91FF90EF90F3
S1133040BF90AF909F908F9008958F929F92AF9270
S1133050BF92CF92DF92EF92FF920F93CF93DF93C1
S1133060DC01E114F10489F0E62FF0E0EE0FFF1F1C
S1133070EE0FFF1FE80FF91F87A490A8A1A8B2A81C
S1133080F70180829182A282B38270E0FD01E60F93
S1133090F71F93A982E083AB023001F118F40130E9
S11330A031F04DC0033079F10430D1F148C0660FDE
S11330B0771F660F771FFD01E60FF71F87A490A8FF
S11330C0A1A8B2A8BA01A901482959296A297B29CA
S11330D047A750AB61AB72AB81E034C0660F771F7A
S11330E0660F771FFD01E60FF71F47A550A961A9D9
S11330F072A94F5F5F4F6F4F7F4F47A750AB61ABD4
S113310072AB81E01FC0660F771F660F771FFD014A
S1133110E60FF71F27A730AB41AB52AB81E012C0DB
S1133120923079F0660F771F660F771FFD01E60F67
S1133130F71F27A730AB41AB52AB81E003C081E05E
S113314001C080E0913009F096C090919E109111D9
S11331505FC01C96ED91FC911D971696CD91DC9164
S1133160179718962D913C9119973F832E831896A3
S1133170CD91DC91199716962D913C9117973D832B
S11331802C83418152819D012E5F3F4F421753078B
S113319031F418964D915C911997528341831D9691
S11331A01C921E921C979081915090835A96EC9198
S11331B05A979091AD109E1710F4E093AD109BE0D8
S11331C09E9FF0011124E151FF4E0180F281E02D18
S11331D01796FC93EE9316974681578119965C9344
S11331E04E931897C681D7813D832C8337832683DA
S11331F05A96EC915A979E9FF0011124E151FF4E8B
S11332001D96FC93EE931C9790819F5F908321C041
S11332106AEC70E1FB01C181D2815396DC93CE93B9
S113322052972E813F8155963C932E9354974E810D
S11332305F819D01225F3F4FFA01358324833F83E1
S11332402E8359967C936E935897FB0190819F5FD0
S113325090835A962C91E0915D11F0915E11928DBC
S1133260921748F4C114D10419F091E0F601908347
S113327091E09093A710DF91CF910F91FF90EF9081
S1133280DF90CF90BF90AF909F908F90089500975C
S113329021F480915D1190915E110FB6F8940F9214
S11332A070E0FC01E60FF71F23A9223031F4FC0182
S11332B0E60FF71F13AA81E001C080E00F900FBE54
S11332C00895DC01E0916911F0916A11808191E027
S11332D0811190E09C93911108C00780F085E02D46
S11332E06081718182819381089560E070E0CB01F7
S11332F00895CF92DF92EF92FF920F931F93FC01F8
S113330042835383648375839387828704171507E5
S113331026073707C0F00C191D092E093F098685B9
S11333209785A089B189081719072A073B0700F573
S1133330BF016E5F7F4F80916711909168110E9469
S11333404E0680E018C00C151D052E053F0528F417
S11333504C155D056E057F0568F4BF016E5F7F4FF8
S11333608091691190916A110E944E0680E003C019
S113337081E001C081E01F910F91FF90EF90DF90F9
S1133380CF9008950FB6F8940F92809165119091A3
S11333906611892BE9F486E791E10E9439068BE6F0
S11333A091E10E94390686E791E190936A11809336
S11333B069118BE691E1909368118093671140E065
S11333C067E08AE00E94EC0890936611809365118F
S11333D00F900FBE0895EF92FF920F93D3DF809169
S11333E0651190916611892B91F00F2EF3E6EF2E63
S11333F0F1E1FF2EF02D03E020E030E040EC50E05E
S11334006FED73E088E591E00E94ED0F01C080E06C
S11334100F91FF90EF9008958F929F92AF92BF9279
S1133420CF92DF92EF92FF920F931F93CF93DF938C
S1133430CDB7DEB727970FB6F894DEBF0FBECDBF6A
S1133440E0916511F0916611309781F169832A83C7
S11334503B834C835D839F838E836630F4F4C4DBAB
S1133460823069F400E0A7019601BE016F5F7F4FCF
S113347080916511909166110E940F0918C000E0B7
S113348020E030E0A901BE016F5F7F4F809165119C
S1133490909166110E940F090AC020E0A801BE01A4
S11334A06F5F7F4FCF010E94BF0901C080E0279664
S11334B00FB6F894DEBF0FBECDBFDF91CF911F9141
S11334C00F91FF90EF90DF90CF90BF90AF909F90BF
S11334D08F9008958F929F92AF92BF92CF92DF9276
S11334E0EF92FF920F931F93CF93DF933BC007801C
S11334F0F085E02D80809180A280B380C085D18545
S11335008E010E5F1F4FC8010E948B06EC89FD8956
S1133510CE0119958E8982FF25C08E859F85A88945
S1133520B989880D991DAA1DBB1D88169906AA067E
S1133530BB0670F48A839B83AC83BD83DB87CA8715
S1133540B8018091691190916A110E944E060AC0D7
S1133550C12CD12C760100E010E0A501940160E0BB
S1133560CE015ADFE0916911F0916A1180818111D5
S1133570BECF809167119091681190936A118093E6
S11335806911F0936811E0936711DF91CF911F9156
S11335900F91FF90EF90DF90CF90BF90AF909F90EE
S11335A08F900895CF92DF92EF92FF92CF93DF93A3
S11335B0EC010E9477106B017C0180915F11909166
S11335C06011A0916111B0916211C816D906EA0682
S11335D0FB0620F47FDF81E0888301C01882C0925B
S11335E05F11D0926011E0926111F0926211C701F3
S11335F0B601DF91CF91FF90EF90DF90CF900895C7
S11336004F925F926F927F928F929F92AF92BF92EE
S1133610CF92DF92EF92FF920F931F93CF93DF939A
S11336204B015C0129013A01E0916911F0916A11A1
S11336300780F085E02DC085D185CE0102960E94D9
S11336408B068E8982FF1BC04E855F8568897989C8
S1133650480D591D6A1D7B1D75016401930182018A
S1133660CE0147DE882369F0C12CD12C760100E01D
S113367010E0A501940160E0CE01CEDE02C08E7F91
S11336808E8BEC89FD89CE011995DF91CF911F9125
S11336900F91FF90EF90DF90CF90BF90AF909F90ED
S11336A08F907F906F905F904F9008958F929F922C
S11336B0AF92BF92CF92DF92EF92FF921F93CF937C
S11336C0DF931F92CDB7DEB76B017C01142F0E94EC
S11336D07110CE01019666DF4B015C018981811175
S11336E02DC011110DC08C149D04AE04BF0440F014
S11336F00E94B111A5019401C701B60181DF20C068
S1133700112341F0E0916711F0916811808111E07B
S1133710811110E0B701A601481959096A097B090A
S1133720212F80916511909166110E94890A0E944F
S1133730B111811105C00E94070702C00E94B11196
S11337400F90DF91CF911F91FF90EF90DF90CF907A
S1133750BF90AF909F908F900895AF92BF92CF92F9
S1133760DF92EF92FF920F931F93CF93DF93CDB726
S1133770DEB728970FB6F894DEBF0FBECDBF82C068
S1133780898188230CF47EC0AE80BF80D5011C964D
S11337908D919C911D97892B21F0C50102960E9461
S11337A08B06CE010896FEDE8B019C01E9810E2E6C
S11337B0000CFF0BEA30F10508F064C08827EE58CE
S11337C0FF4F8F4F0C94382DF50186898160868BCD
S11337D0CA80DB80EC80FD804685578560897189CD
S11337E04C0D5D1D6E1D7F1DC50183DD882309F40D
S11337F049C0D5015496ED91FC915597C501199591
S1133800F501868982FF3EC04A815B816C817D819E
S113381086859785A089B1899A01AB01280F391F44
S11338204A1F5B1FC12CD12C760100E010E060E040
S1133830C501F2DD27C0D50156968C9156978E7F2F
S113384056968C931FC0F50186898160868B4A81C8
S11338505B816C817D8146875787608B718B400FBC
S1133860511F621F731F68017901C50142DD0AC03F
S1133870F501868981FD04C0C5010E94FC0502C0D2
S11338808E7F868B20E030E0A901BE016F5F7F4F01
S113389080916511909166110E94FA09811170CF8F
S11338A028960FB6F894DEBF0FBECDBFDF91CF913F
S11338B01F910F91FF90EF90DF90CF90BF90AF904A
S11338C00895089584B1806884B985B1806885B904
S11338D0089583B1806883B90895F4DF2FEF80E7FA
S11338E092E0215080409040E1F700C00000F1DFF9
S11338F0F5CFE8DF2FEF87EA91E621508040904032
S1133900E1F700C00000E5DFF5CF6091811170910F
S1133910821121E030E040E050E083E090E00E943A
S11339201002909398128093971208950F938091A8
S1133930991290919A12892B89F481E00E94B3091B
S113394090939A1280939912009741F000E020E03E
S113395030E0A90160E070E00E940F09D6DF6091B9
S113396097127091981284E090E00E946A030F917C
S113397008950E949F03909382118093811180E0A7
S11339800E94902660E070E081E0C4D2CFCF089519
S1133990F0DF0E943910FFCF04D06894B11150C0F9
S11339A0089533D088F09F5790F0B92F9927B751D5
S11339B0A0F0D1F0660F771F881F991F1AF0BA95EF
S11339C0C9F712C0B13081F03AD0B1E0089537C0E0
S11339D0672F782F8827B85F39F0B93FCCF38695E5
S11339E077956795B395D9F73EF490958095709542
S11339F061957F4F8F4F9F4F089557FD9058440F07
S1133A00551F59F05F3F71F04795880F97FB991F39
S1133A1061F09F3F79F087950895121613061406F6
S1133A20551FF2CF4695F1DF08C016161706180683
S1133A30991FF1CF86957105610508940895E8945E
S1133A40BB2766277727CB0197F90895FA01DC0194
S1133A50AA0FBB1F9B01AC01BF5728F422273327B1
S1133A60442750781FC0B75188F4AB2F00244695E3
S1133A7037952795011CA395D2F3002069F0220FF6
S1133A80331F441FB395DAF30DD013C061307105B1
S1133A90A0E88A07B94630F49B01AC016627772772
S1133AA088279078309621F0208331834283538392
S1133AB008955058BB27AA270ED077C068D030F09D
S1133AC06DD020F031F49F3F11F41EF45DC00EF46C
S1133AD0E095E7FB53C0E92F90DF80F3BA17620744
S1133AE073078407950718F071F49EF5A8CF0EF4B8
S1133AF0E0950B2EBA2FA02D0B01B90190010C01FA
S1133B00CA01A0011124FF27591B99F0593F50F411
S1133B10503E68F11A16F040A22F232F342F442769
S1133B20585FF3CF469537952795A795F040539561
S1133B30C9F77EF41F16BA0B620B730B840BBAF031
S1133B409150A1F0FF0FBB1F661F771F881FC2F79C
S1133B500EC0BA0F621F731F841F48F487957795B0
S1133B606795B795F7959E3F08F0B3CF9395880F67
S1133B7008F09927EE0F97958795089597F99F6711
S1133B8080E870E060E008959FEF80EC08950024E1
S1133B900A941616170618060906089500240A94AE
S1133BA012161306140605060895092E0394000C34
S1133BB011F4882352F0BB0F40F4BF2B11F460FFC3
S1133BC004C06F5F7F4F8F4F9F4F08956530F1F4AE
S1133BD0FA0180818F7390E0982F88272181822BAE
S1133BE090930A02809309028281F0E48F9FC001BE
S1133BF01124FA01238126952695822B909308029D
S1133C008093070281E0809383110895643051F01A
S1133C1080E090E4909308028093070290930A0254
S1133C208093090208950F931F9306EE1DE120E08F
S1133C3034E244EF50E060E087E20E94CA269093A9
S1133C4085118093841121E0892B09F020E0822FD3
S1133C501F910F910895809184119091851100977F
S1133C6059F040E060E070E00E941B27843031F49A
S1133C701092831180E0089582E0089583E008950E
S1133C808091841190918511009739F064E00E942D
S1133C906727853021F083E0089582E0089580E06D
S1133CA00895609107027091080280E090E00E94FC
S1133CB06D2C20E030E045E253E40E94AA2C20E081
S1133CC038EF4FE756E40E94FC2B20E030E040E25E
S1133CD052E4EFCE08950F931F93CF93DF931F9277
S1133CE01F92CDB7DEB78C0119822DC0E091BD11B2
S1133CF0EC3250F481E08E0F8093BD11F0E0E1517D
S1133D00FE4E8A81808302C01092BD118A818A305E
S1133D10D1F44091BD1150E0FA01E351FE4E1082FE
S1133D20415051099E012F5F3F4F6FEE71E1809129
S1133D30C0119091C1110E940F0D898181110E94BF
S1133D4007071092BD11BE016E5F7F4FC80152D5A7
S1133D50882361F20F900F90DF91CF911F910F9103
S1133D6008950F931F93CF93DF938C01EB01809100
S1133D70C0119091C1110E941A0CB80186E891E11A
S1133D800E94882F209779F0E6E8F1E10190002065
S1133D90E9F7319780E290E091838083BE0186E861
S1133DA091E10E947D2FE6E8F1E1DF010D90002012
S1133DB0E9F711978DE09AE011969C938E931296F1
S1133DC01C9201900020E9F73197E658F141AE2F9B
S1133DD086E891E1AC016A2F8091C2119091C311E0
S1133DE0B4D4811111C008E215E020E030E04DE2C6
S1133DF050E069E472E18091C0119091C1110E9478
S1133E00530D89E492E102C080E090E0DF91CF910C
S1133E101F910F9108952F923F924F925F926F924C
S1133E207F928F929F92AF92BF92CF92DF92EF9246
S1133E30FF920F931F93CF93DF935C01FC010190DA
S1133E400020E9F731976F01C81AD90A5C2C0F2EAC
S1133E50F0E88F2EF6E09F2EF02DE12CF12C4C2C67
S1133E603701F40101811281E80109900020E9F78A
S1133E702197C01BD10B3C2EF9E0CF16D10458F08A
S1133E80F4012080FEE02F1206C0B801C5010E9493
S1133E90582F892B09F5442D351408F44C2F50E084
S1133EA0B801C5010E948F2F892B49F4F301EE0F4D
S1133EB0FF1FE60DF71DE058F94F20800DC08FEF6E
S1133EC0E81AF80AE3E08E0E911CF1E1EF16F10412
S1133ED039F66894222424F8822DDF91CF911F9122
S1133EE00F91FF90EF90DF90CF90BF90AF909F9095
S1133EF08F907F906F905F904F903F902F90089598
S1133F0030DF89CF08958091C0119091C1110C9434
S1133F101A0C08958F929F92AF92CF92EF920F93C3
S1133F201F93CF93C82F8B0141E060E070E088ECD1
S1133F3090E00E94E80B9093C1118093C0111093FC
S1133F40BF110093BE110F2EFBE68F2EFEE19F2EB4
S1133F50F02D6894AA24A6F86894CC24C6F8E12C21
S1133F6000E023E040E051EE60E070E08C2F1ED3CF
S1133F709093C3118093C211E7E0F1E080818061E6
S1133F808083CF911F910F91EF90CF90AF909F902E
S1133F908F900895882331F0E8E0F1E080818F7EEE
S1133FA080830895E8E0F1E0808180618083089552
S1133FB060E070E086E094E0D4DEE9E4F2E10190B0
S1133FC00020E9F73197E954F24181E0759708F050
S1133FD080E00895CF93DF93EC0160E070E087E127
S1133FE094E0BFDEE9E4F2E101900020E9F7EA554C
S1133FF0F24139F469E472E1CE010E94882F80E035
S113400002C0188281E0DF91CF910895FC010190F4
S11340100020E9F79F01215131092817390729F4B4
S1134020BC0185E494E06CCF089589E00895FC0117
S113403001900020E9F79F01215131092817390720
S113404029F4BC0184E594E05BCF089589E00895E8
S1134050FC0101900020E9F79F0121523109281742
S1134060390729F4BC0183E694E04ACF089589E036
S1134070089560E070E082EA94E042CF08950F93DF
S11340801F93E82FF0E0EE0FFF1FE458F94F608113
S113409071818BEA94E034DF811114C008E215E0E9
S11340A020E030E04DE250E069E472E18091C0111B
S11340B09091C1110E94530D882321F089E492E16B
S11340C0AADE03C089E492E1A6DE1F910F91089550
S11340D00F931F93CF93DF931F92CDB7DEB7DB010E
S11340E011969C911197953108F0B4C0992381F1F0
S11340F060E070E0272F30E0462F50E0FD01E40F30
S1134100F51F928192959F709A3010F0995C01C0CE
S1134110905DF901E652FE4E90832F5F3F4FFD0103
S1134120E40FF51F92819F70492F50E04A305105EA
S113413014F0995C01C0905DF901E652FE4E908343
S11341407E5F6F5F11969C911197691798F201C079
S113415070E0E72FF0E0E652FE4E10824C918111A0
S113416003C084EB94E002C086EB94E02AED31E1D5
S11341703F932F931F924F939F938F938AEB94E0D7
S11341809F938F938CE192E19F938F930E943130A0
S113419060E070E08CE192E1B3DE0FB6F894DEBF2C
S11341A00FBECDBF811159C008E215E020E030E018
S11341B04DE250E069E472E18091C0119091C11127
S11341C00E94530D882309F447C089E492E123DE59
S11341D08E3009F042C087E089838091BE119091AE
S11341E0BF11892BA9F1BE016F5F7F4F89E492E172
S11341F068D18093C411E981F0E0E75BFD4EDF01F3
S11342000D900020E9F71197AE1BBF0BAA2391F084
S1134210BB27CD0101979C0112F42F5F3F4F3595C9
S113422027952093C511AF014F5F5F4F64E186EC82
S113423091E173D101E010E020E030E046E150E08C
S113424064EC71E18091BE119091BF110E944A0CFF
S11342508EE003C084E101C080E00F90DF91CF9134
S11342601F910F910895813019F06AEC74E002C037
S113427063EA75E08EEC94E043CE08959F938F93A8
S11342808FEF94E09F938F938CE192E19F938F93B0
S11342900E94313060E070E08CE192E131DE0F90F9
S11342A00F900F900F900F900F9008952F923F92C0
S11342B04F925F926F927F928F929F92AF92BF9232
S11342C0CF92DF92EF92FF920F931F93CF93DF93DE
S11342D0CDB7DEB7A0970FB6F894DEBF0FBECDBF43
S11342E06CE275E088E395E03CDD95DD8111A3C0C7
S11342F080E2E2E2F2E0DE01119601900D928A95ED
S1134300E1F79E012F5F3F4F6901E12CF12C0F2E45
S1134310F4E4AF2EF5E0BF2EF02D0CE112E10F2EE8
S1134320FDE54F2EF5E05F2EF02D0F2EF4E78F2ED6
S1134330F5E09F2EF02D0F2EFEE86F2EF5E07F2E78
S1134340F02D3E2C2F2CFF92EF92BF92AF921F9331
S11343500F930E94313060E070E0C80102DD5BDD44
S11343600F900F900F900F900F900F90811163C0DA
S113437032E03E15E8F4F60183818F9382818F93B6
S113438081818F9380818F93FF92EF925F924F92FE
S11343901F930F930E94313060E070E0C801E1DCAC
S11343A03ADD0FB6F894DEBF0FBECDBF811143C016
S11343B02F923F929F928F921F930F930E943130BE
S11343C060E070E0C801CDDC26DD0F900F900F9007
S11343D00F900F900F9081112EC02F923F927F92D9
S11343E06F921F930F930E94313060E070E0C80118
S11343F0B8DC11DD0F900F900F900F900F900F907D
S1134400811119C03FEFE31AF30A84E0C80ED11CEE
S113441098E0E916F10409F094CF60E070E086EAD0
S113442095E09FDCF8DC811106C060E070E087EB6A
S113443095E097DCF0DCA0960FB6F894DEBF0FBED3
S1134440CDBFDF91CF911F910F91FF90EF90DF903F
S1134450CF90BF90AF909F908F907F906F905F9020
S11344604F903F902F900895EF92FF920F931F93D8
S1134470CF93DF93EC018B017A0181E0F4DE8111AB
S11344800DC0CE01D4DD811109C0C801E1DD811167
S113449005C0C701BBDD811101C0EBDDDF91CF9108
S11344A01F910F91FF90EF90089590E0FC01EE0FA3
S11344B0FF1F8E0F9F1FFC01E058F94F81819281ED
S11344C00895DC01009729F1FB012081FC01019092
S11344D00020E9F73197E81BF90B822F90E0E817E9
S11344E0F907C8F080E008C0880F382F330F330F66
S11344F0830F8053890F2F5FFD01E20FF11D90811F
S113450030ED390F3A3010F49111EECFFB012083D6
S1134510089580E0089580E008950F931F93CF934A
S1134520DF93DC01EA012097E1F1FA010190002018
S1134530E9F73197E41BF50B329710F532C08D0182
S1134540040F151F30E0AE01420F531FFA01908192
S1134550913428F09753592F5295507F03C0592F07
S11345605295507F2C0F3D1FF9019181913410F029
S1134570975301C09053950FF80190838F5F01C04A
S113458080E0282F220F482F50E0FE0101900020E8
S1134590E9F73197EC1BFD0B4E175F0710F48613F8
S11345A0CECFDF91CF911F910F9108952F923F921B
S11345B04F925F926F927F928F929F92AF92CF921F
S11345C0EF92FF920F931F93CF93DF93CDB7DEB794
S11345D0F82E2A013B0188E090E00E94402D8C01D6
S11345E08F2D90E0FC01EE0FFF1FEA58FD4E118362
S11345F000830115110509F46BC0880F991FFC0194
S1134600E55FFD4F80819181D8018D939C938C2D22
S113461090E0880F991F880F991F0E94402D1C015C
S113462086E090E00E94402D7C014C2DB1013FD5E5
S1134630F801F582E4828A2D90E0880F991F880F93
S1134640991F0E94402D1C0186E090E00E94402D9D
S11346507C014A2DB1012BD5D8011396FC92EE9220
S1134660129717969C928E921697FFB6F894ED9136
S1134670FC91119736978081826080838D909C9005
S1134680C301B2010E946D2C20E030E040E051E40F
S11346900E94AA2C9B01AC0160E074E284E79BE4D5
S11346A00E94FC2B20E030E040E85FE302DA79D995
S11346B0F40132976083D801ED91FC9111973597FD
S11346C088E98083ED91FC91349786E08083FFBE76
S11346D0C801DF91CF911F910F91FF90EF90CF9080
S11346E0AF909F908F907F906F905F904F903F908E
S11346F02F900895CF93DF93DC01892B01F112965B
S1134700ED91FC911397938182812581981B9223CB
S113471084819817B1F0838126952823C081D181A3
S1134720C20FD11D68838F5F958189238383ED91A7
S1134730FC91359780818062808380E003C081E0B2
S113474001C082E0DF91CF910895EF92FF920F9321
S11347501F93CF93DF937C01009709F441C0DC01E0
S11347601296ED91FC91139793818281981B858118
S113477098238481891B8617A8F1662341F1842F2D
S1134780952FDC016150462F50E04F5F5F4F480F7B
S1134790591FE701EA81FB81938182812581981B5E
S11347A092238481981779F08C91938126952923FB
S11347B0608171818B01020F111DE80188839F5F65
S11347C08581982393831196A417B50711F7D70110
S11347D0ED91FC91359780818062808380E003C0F5
S11347E081E001C082E0DF91CF911F910F91FF9092
S11347F0EF9008950097D1F0DC011496ED91FC91AF
S1134800159793818281981799F092818581869575
S11348108923A081B181A80FB11D8C91DB018C93F8
S11348209F5F85819823928380E0089581E00895B5
S113483083E008951F920F920FB60F9211240BB6C6
S11348400F922F933F934F935F936F937F938F9325
S11348509F93AF93BF93CF93DF93EF93FF93A09175
S11348607612B0917712109711F16091C6001496E8
S1134870ED91FC911597938182812581981B922358
S11348808481981761F0838126952823C081D18182
S1134890C20FD11D68838F5F958189238383169608
S11348A0ED91FC911797309711F0CD011995FF9177
S11348B0EF91DF91CF91BF91AF919F918F917F91B4
S11348C06F915F914F913F912F910F900BBE0F907D
S11348D00FBE0F901F9018951F920F920FB60F9254
S11348E011240BB60F922F938F939F93AF93BF9383
S11348F0EF93FF93E0917612F09177123097B9F02D
S11349000280F381E02D938182819817B1F0928126
S11349108581282F26952923A081B181A20FB11D5D
S11349202C919F5F892382832093C6000BC0E1EC06
S1134930F0E080818F7D808305C0E1ECF0E0808130
S11349408F7D8083FF91EF91BF91AF919F918F9164
S11349502F910F900BBE0F900FBE0F901F901895C4
S11349601F920F920FB60F9211240BB60F922F9332
S11349703F934F935F936F937F938F939F93AF93E3
S1134980BF93CF93DF93EF93FF93A0917812B091ED
S11349907912109711F16091CE001496ED91FC916B
S11349A01597938182812581981B9223848198177E
S11349B061F0838126952823C081D181C20FD11D46
S11349C068838F5F9581892383831696ED91FC918B
S11349D01797309711F0CD011995FF91EF91DF9161
S11349E0CF91BF91AF919F918F917F916F915F9183
S11349F04F913F912F910F900BBE0F900FBE0F90D0
S1134A001F9018951F920F920FB60F9211240BB698
S1134A100F922F938F939F93AF93BF93EF93FF9333
S1134A20E0917812F09179123097B9F00280F38115
S1134A30E02D938182819817B1F092818581282F8E
S1134A4026952923A081B181A20FB11D2C919F5FCE
S1134A50892382832093CE000BC0E9ECF0E08081AF
S1134A608F7D808305C0E9ECF0E080818F7D8083B9
S1134A70FF91EF91BF91AF919F918F912F910F90E3
S1134A800BBE0F900FBE0F901F9018951F920F92A0
S1134A900FB60F9211240BB60F922F933F934F939F
S1134AA05F936F937F938F939F93AF93BF93CF93B2
S1134AB0DF93EF93FF93A0917A12B0917B1210973A
S1134AC011F16091D6001496ED91FC9115979381A4
S1134AD082812581981B92238481981761F08381B8
S1134AE026952823C081D181C20FD11D68838F5F91
S1134AF09581892383831696ED91FC9117973097BE
S1134B0011F0CD011995FF91EF91DF91CF91BF91F4
S1134B10AF919F918F917F916F915F914F913F9151
S1134B202F910F900BBE0F900FBE0F901F901895F2
S1134B301F920F920FB60F9211240BB60F922F9360
S1134B408F939F93AF93BF93EF93FF93E0917A1268
S1134B50F0917B123097B9F00280F381E02D9381BC
S1134B6082819817B1F092818581282F2695292377
S1134B70A081B181A20FB11D2C919F5F89238283F3
S1134B802093D6000BC0E1EDF0E080818F7D80831F
S1134B9005C0E1EDF0E080818F7D8083FF91EF918E
S1134BA0BF91AF919F918F912F910F900BBE0F905A
S1134BB00FBE0F901F9018951F920F920FB60F9271
S1134BC011240BB60F922F933F934F935F936F93E0
S1134BD07F938F939F93AF93BF93CF93DF93EF9381
S1134BE0FF93A0917C12B0917D12109711F1609106
S1134BF036011496ED91FC9115979381828125815C
S1134C00981B92238481981761F083812695282329
S1134C10C081D181C20FD11D68838F5F95818923A3
S1134C2083831696ED91FC911797309711F0CD017F
S1134C301995FF91EF91DF91CF91BF91AF919F9122
S1134C408F917F916F915F914F913F912F910F9031
S1134C500BBE0F900FBE0F901F9018951F920F92CE
S1134C600FB60F9211240BB60F922F938F939F932D
S1134C70AF93BF93EF93FF93E0917C12F0917D1279
S1134C803097B9F00280F381E02D938182819817E7
S1134C90B1F092818581282F26952923A081B181A5
S1134CA0A20FB11D2C919F5F89238283209336012B
S1134CB00BC0E1E3F1E080818F7D808305C0E1E3F7
S1134CC0F1E080818F7D8083FF91EF91BF91AF915F
S1134CD09F918F912F910F900BBE0F900FBE0F904D
S1134CE01F901895CF93DF931F92CDB7DEB7BE0107
S1134CF06F5F7F4F80917E1290917F127BDD8111D7
S1134D00F6CF898190E00F90DF91CF910895682FBD
S1134D1080917E1290917F12EDDC80E090E0089506
S1134D208F929F92AF92CF92EF920F93812C912CFE
S1134D306894AA24A7F86894CC24C7F8E12C00E06E
S1134D4023E040E051EE60E070E030DC90937F12AD
S1134D5080937E12EFE9F2E183E192E09183808314
S1134D60938382830F91EF90CF90AF909F908F9019
S1134D70089580918E1281110CC08CE08093B8004C
S1134D808FEF8093BB0084E08093BC0081E080932C
S1134D908E120895AF92BF92CF92DF92EF92FF925C
S1134DA00F931F93CF93DF93A82EB62E69017A0138
S1134DB084E090E065D6EC01892B61F1A88281E062
S1134DC0B81212C0C701B60120EA36E841E050E04B
S1134DD02DD6DA01C9014097A109B109B695A79565
S1134DE097958795898311C0C701B60120E83AE1F8
S1134DF046E050E01BD6DA01C9014097A109B10988
S1134E00B695A7959795879589831B830A838C2FDD
S1134E109D2F02C080E090E0DF91CF911F910F9110
S1134E20FF90EF90DF90CF90BF90AF900895809166
S1134E30BC0081700895FF920F931F93CF93DF936B
S1134E400097D1F14A30D0F5F42E8B01EC01EFDF5D
S1134E50811136C08091811290918212C817D907AE
S1134E6041F087DF89818093B800D0938212C09388
S1134E70811281E08F0D809383128881880F809343
S1134E808412FF2089F0F801A5E8B2E14FEF4F0D3D
S1134E90642F70E0CB010196B801680F791F8191EE
S1134EA08D93E617F707D9F788EF8093210285EAF7
S1134EB08093BC0084E005C086E003C087E001C0A5
S1134EC082E0DF91CF911F910F91FF9008951F937E
S1134ED0CF93DF93009729F16B3028F5162FEC015F
S1134EE0A6DF811122C08091811290918212C8178D
S1134EF0D90741F03EDF89818093B800D0938212B4
S1134F00C0938112109383128881880F81608093EB
S1134F10841288EF8093210285EA8093BC0085E0A7
S1134F2005C086E003C087E001C082E0DF91CF9135
S1134F301F9108951F920F920FB60F9211240BB672
S1134F400F922F933F934F935F936F937F938F931E
S1134F509F93AF93BF93EF93FF93E091B9008E2F8C
S1134F6090E0FC013897E135F10508F075C0882719
S1134F70E458FF4F8F4F7CC510928012E09180124D
S1134F8080918312E81770F481E08E0F8093801271
S1134F90F0E0EC57FD4E80818093BB0085E8809360
S1134FA0BC0072C084E98093BC008091811290910E
S1134FB08212DC011296ED91FC911397309709F45B
S1134FC063C020E040E050E064E019955DC0E091EA
S1134FD0801281E08E0F809380128091BB00F0E0FC
S1134FE0EC57FD4E80838091B900803411F4109207
S1134FF080122091801230E08091831290E001971A
S11350002817390724F485EC8093BC003DC085E85B
S11350108093BC0039C08091BB00E0918012F0E025
S1135020EC57FD4E808384E98093BC00809181120B
S113503090918212DC011296ED91FC9113973097B6
S113504019F12091831244E852E165E019951CC0DE
S113505085EA8093BC0018C08091B9008093210236
S113506084E08093BC008091811290918212DC01D3
S11350701296ED91FC911397309731F020E040E0C7
S113508050E0609121021995FF91EF91BF91AF918A
S11350909F918F917F916F915F914F913F912F914C
S11350A00F900BBE0F900FBE0F901F901895FC0130
S11350B0411101C006D6842F90E09C012150310992
S11350C082239323892B09F0FCD5413808F0F9D5C4
S11350D0128213824483440F415045837183608359
S11350E080E090E008952F923F924F925F926F92EA
S11350F07F928F929F92AF92BF92CF92DF92EF9264
S1135100FF920F931F93CF93DF93CDB7DEB76097D2
S11351100FB6F894DEBF0FBECDBF7C011B016A0140
S1135120FC0117821682838181FF2AC39E012F5FAF
S11351303F4F3901F7019381F10193FD859193FF6D
S113514081911F01882309F417C3853239F493FD33
S1135150859193FF81911F01853231F4B70190E06D
S113516001D756016501E6CF10E0512C912CFFE1E7
S1135170F915D8F08B3279F038F4803279F0833233
S1135180A1F4F92DF0612EC08D3261F0803369F401
S1135190292D21602DC0392D3260932E892D8460F4
S11351A0982E2AC0E92DE86015C097FC2DC020ED8B
S11351B0280F2A3088F496FE06C03AE0139F200D8B
S11351C01124122F19C08AE0589E200D1124522E4A
S11351D0E92DE0629E2E10C08E3231F496FCCCC2D2
S11351E0F92DF0649F2E08C08C3621F4292D2068F7
S11351F0922E02C0883641F4F10193FD859193FF0C
S113520081911F018111B3CF9BEB980F933020F450
S1135210992D9061805E07C09BE9980F933008F048
S113522059C1992D9F7E96FF16E09F73992E85365E
S113523019F49064992E08C0863621F4392F306809
S1135240932E02C01111115097FE07C01C3350F465
S113525044244394410E27E00BC0183038F027E073
S113526017E005C027E09CE3492E02C0212F412C02
S1135270560184E0A80EB11CF6016081718182811F
S11352809381042DA30121D56C01F981FC87F0FFE2
S113529002C0F3FF06C091FC06C092FE06C000E205
S11352A005C00DE203C00BE201C000E08C858C70E8
S11352B019F0011143C280C297FE10C04C0CFC854A
S11352C0F4FF04C08A81813309F44A94141474F5F8
S11352D028E0241578F588E0482E2CC096FC2AC0D6
S11352E0812F90E08C159D059CF03CEFC3163FEF99
S11352F0D30674F0892D8068982E0AC0E2E0F0E0AD
S1135300EC0FFD1FE10FF11D8081803319F4115062
S11353101111F4CF97FE0EC044244394410E812F03
S113532090E0C816D9062CF41C1904C044244394F4
S113533001C010E097FE06C01C141D0434F4C6011D
S1135340019605C085E090E002C081E090E0011183
S11353500196112331F0212F30E02F5F3F4F820F50
S1135360931F252D30E08217930714F4581A01C0B7
S1135370512C892D897041F4552031F0B70180E218
S113538090E0F0D55A94F8CF002321F0B701802F94
S113539090E0E8D593FC08C0552031F0B70180E3D4
S11353A090E0E0D55A94F8CF97FE4AC04601D7FE64
S11353B002C0812C912CC60188199909F301E80FC8
S11353C0F91FFE87ED87960124193109388B2F8741
S11353D0012F10E01195019511093FEF83169306F3
S11353E021F4B7018EE290E0BDD5C814D9044CF085
S11353F08F8598898815990524F4ED85FE8581812A
S113540001C080E3F1E08F1A91082D853E852F5F5E
S11354103F4F3E872D878016910624F0B70190E018
S1135420A1D5DBCFC814D90441F49A81963320F472
S1135430953319F43C8534FF81E3B70190E048C00B
S11354408A81813319F09C859F7E9C87B70190E007
S113545089D5111105C094FC16C085E690E015C0ED
S1135460B7018EE290E07ED51E5F82E001E0080F76
S1135470F301E80FF11D8081B70190E073D5802F0F
S11354800113F4CFE8CF85E490E0B7016BD5D7FCE6
S113549006C0C114D10441F4EC85E4FF05C0D194E5
S11354A0C194D1088DE201C08BE2B70190E05AD5D6
S11354B080E32AE0C216D1042CF08F5FFAE0CF1A01
S11354C0D108F7CFB70190E04DD5B701C601C0961A
S11354D049D549C1833631F0833779F0833509F0F2
S11354E052C01FC0560132E0A30EB11CF6018081E8
S11354F0898301E010E0630111C05601F2E0AF0EB0
S1135500B11CF601C080D18096FE03C0612F70E00B
S113551002C06FEF7FEFC6011AD58C01F92DFF771A
S113552013C0560122E0A20EB11CF601C080D18046
S113553096FE03C0612F70E002C06FEF7FEFC601DB
S11355409CD48C01F92DF0689F2EF3FD18C0852D95
S113555090E00817190798F4B70180E290E002D5AB
S11355605A94F5CFF60197FC859197FE81916F01CE
S1135570B70190E0F7D451105A9401501109011564
S1135580110581F7F0C0843611F0893659F55601BA
S113559097FE09C024E0A20EB11CF601608171815E
S11355A0828193810AC0F2E0AF0EB11CF6016081E2
S11355B07181072E000C880B990BF92DFF769F2E15
S11355C097FF09C090958095709561957F4F8F4F97
S11355D09F4FF0689F2E2AE030E0A30170D5C82EBB
S11355E0C6183EC0092D853721F40F7E2AE030E02D
S11355F01DC0097F8F3691F018F4883559F0BCC06E
S1135600803719F0883711F0B7C0006104FF09C072
S1135610046007C094FE08C0066006C028E030E0BD
S113562005C020E130E002C020E132E0560107FF6E
S113563009C084E0A80EB11CF601608171818281E9
S1135640938108C0F2E0AF0EB11CF6016081718154
S113565080E090E0A30133D5C82EC6180F77902EB2
S113566096FE0BC0092D0E7FC11650F494FE0AC09D
S113567092FC08C0092D0E7E05C0DC2C092D03C048
S1135680DC2C01C0D12E04FF0DC0FE01EC0DF11D78
S11356908081803311F4097E09C002FF06C0D394CF
S11356A0D39404C0802F867809F0D39403FD10C0EE
S11356B000FF06C01C2DD51478F4150D1D190CC05F
S11356C0D51450F4B70180E290E04CD4D394F8CFD1
S11356D0D51410F45D1801C0512C04FF0FC0B7019C
S11356E080E390E03FD402FF16C001FD03C088E7C9
S11356F090E002C088E590E0B7010CC0802F867866
S113570051F001FF02C08BE201C080E207FD8DE28F
S1135710B70190E027D4C11630F4B70180E390E0DC
S113572021D41150F8CFCA94F301EC0DF11D8081FE
S1135730B70190E017D4C110F6CF15C0F4E0F51509
S113574050F584E0581A93FE1EC0011125C02C8523
S113575023FF27C00AE911E0392D3071932EF80197
S11357608491811121C0552009F4FCCCB70180E259
S113577090E0F8D35A94F7CFF7018681978123C03C
S11357808FEF9FEF20C0B70180E290E0EBD35A94F3
S11357905110F9CFDACF512CB701802F90E0E2D32A
S11357A0D6CF0EE911E0D8CF91108052B70190E026
S11357B0D9D30F5F1F4FD3CF23E0251510F483E017
S11357C0C1CF512CC4CF60960FB6F894DEBF0FBE84
S11357D0CDBFDF91CF911F910F91FF90EF90DF909C
S11357E0CF90BF90AF909F908F907F906F905F907D
S11357F04F903F902F90089512D00C94D51D0E9485
S1135800CE1D58F00E94C71D40F029F45F3F29F0D7
S11358100C94BE1D51110C94201D0C94C41D0E94A7
S1135820FD1C68F39923B1F3552391F3951B550B94
S1135830BB27AA2762177307840738F09F5F5F4F5F
S1135840220F331F441FAA1FA9F335D00E2E3AF09E
S1135850E0E832D091505040E695001CCAF72BD0B6
S1135860FE2F29D0660F771F881FBB1F2617370707
S11358704807AB07B0E809F0BB0B802DBF01FF2739
S113588093585F4F3AF09E3F510578F00C94BE1D3B
S11358900C94201D5F3FE4F3983ED4F386957795EE
S11358A06795B795F7959F5FC9F7880F911D9695F2
S11358B0879597F90895E1E0660F771F881FBB1F4E
S11358C0621773078407BA0720F0621B730B840BFB
S11358D0BA0BEE1F88F7E0950895E89409C097FB8A
S11358E03EF490958095709561957F4F8F4F9F4FB3
S11358F09923A9F0F92F96E9BB279395F6958795F7
S113590077956795B795F111F8CFFAF4BB0F11F4B9
S113591060FF1BC06F5F7F4F8F4F9F4F16C0882360
S113592011F096E911C0772321F09EE8872F762F96
S113593005C0662371F096E8862F70E060E02AF0D7
S11359409A95660F771F881FDAF7880F96958795C3
S113595097F9089511D00C94D51D0E94C71D38F0F5
S11359600E94CE1D20F0952311F00C94BE1D0C94C2
S1135970C41D11240C94201D0E94FD1C70F3959FDE
S1135980C1F3950F50E0551F629FF001729FBB2732
S1135990F00DB11D639FAA27F00DB11DAA1F649FCE
S11359A06627B00DA11D661F829F2227B00DA11D81
S11359B0621F739FB00DA11D621F839FA00D611D07
S11359C0221F749F3327A00D611D231F849F600D28
S11359D0211D822F762F6A2F11249F5750409AF051
S11359E0F1F088234AF0EE0FFF1FBB1F661F771FDD
S11359F0881F91505040A9F79E3F510580F00C94A8
S1135A00BE1D0C94201D5F3FE4F3983ED4F38695AD
S1135A1077956795B795F795E7959F5FC1F7FE2B47
S1135A20880F911D9695879597F90895A1E21A2EEE
S1135A30AA1BBB1BFD010DC0AA1FBB1FEE1FFF1F2E
S1135A40A217B307E407F50720F0A21BB30BE40B7E
S1135A50F50B661F771F881F991F1A9469F76095C5
S1135A607095809590959B01AC01BD01CF0108957F
S1135A70EE0FFF1F881F8BBF0790F691E02D19943E
S1135A800F931F93CF93DF938230910510F482E03C
S1135A9090E0E0919D12F0919E1220E030E0A0E0B1
S1135AA0B0E0309719F14081518102811381481788
S1135AB05907C8F08417950769F4109731F01296C6
S1135AC00C93129713961C9327C000939D12109366
S1135AD09E1222C02115310519F04217530718F4FC
S1135AE09A01BD01EF01DF01F801DBCF211531057A
S1135AF0F9F0281B390B2430310580F48A819B810D
S1135B006115710521F0FB019383828304C0909396
S1135B109E1280939D12FE01329644C0FE01E20F54
S1135B20F31F8193919322503109398328833AC01A
S1135B3020919B1230919C12232B41F4209102025C
S1135B403091030230939C1220939B122091000207
S1135B50309101022115310541F42DB73EB7409132
S1135B60040250910502241B350BE0919B12F09125
S1135B709C12E217F307A0F42E1B3F0B28173907DA
S1135B8078F0AC014E5F5F4F2417350748F04E0F95
S1135B905F1F50939C1240939B128193919302C078
S1135BA0E0E0F0E0CF01DF91CF911F910F910895D4
S1135BB0CF93DF93009709F481C0FC0132971382DD
S1135BC01282A0919D12B0919E12109781F42081AF
S1135BD03181820F931F20919B1230919C122817C0
S1135BE0390751F5F0939C12E0939B1267C0ED01C5
S1135BF020E030E0CE17DF0740F44A815B819E014C
S1135C0041155105F1F0EA01F5CFD383C2834081F8
S1135C105181840F951FC817D90759F48881998138
S1135C20840F951F0296918380838A819B8193833D
S1135C3082832115310529F4F0939E12E0939D127D
S1135C403DC0E901FB83EA8349915991C40FD51FF3
S1135C50EC17FD0761F480819181840F951F0296F2
S1135C60E90199838883828193819B838A83E0E01D
S1135C70F0E012968D919C911397009719F0FD0115
S1135C80DC01F7CF8D919C9111979D012E5F3F4FC1
S1135C90820F931F20919B1230919C122817390771
S1135CA069F4309729F410929E1210929D1202C04A
S1135CB013821282B0939C12A0939B12DF91CF9116
S1135CC0089581E090E0F89458C2283008F027E065
S1135CD03327DA01990F311D87FD91600096610524
S1135CE0710539F432602E5F3D9330E32A95E1F774
