S00B0000496F542E737265630D
S113000067C1000086C1000084C1000082C10000F5
S113001080C100007EC100007CC100007AC10000E4
S113002078C1000076C1000074C1000072C10000F4
S11300300C948F0B6EC100006CC100006AC10000FB
S113004068C1000066C1000064C1000062C1000014
S113005060C100005EC100005CC100005AC1000024
S113006058C100000C94322B0C94842B52C1000014
S113007050C100004EC100004CC100004AC1000044
S113008048C1000046C1000044C1000042C1000054
S11300900C94C82B0C941A2C3CC100000C943230E4
S11300A038C1000036C1000034C1000032C1000074
S11300B030C100002EC100002CC100002AC1000084
S11300C028C1000026C1000024C100000C945E2C4D
S11300D00C94B02C1EC100000C94F42C0C94462DEE
S11300E018C10000692169216921A021A821BD212D
S11300F069216921A021A8215430C430C430C430FE
S1130100C430C430C430C4305430C430C430C430BB
S1130110C430C430C430C4305630C430C430C430A9
S1130120C430C430C430C430C430C430C430C4302B
S1130130C430C430C430C4305630C430C430C43089
S1130140C430C430C430C430C430C430C430C4300B
S1130150C430C430C430C430C030C430C430C430FF
S1130160C430C430C430C4308B30C430C430C43024
S1130170C430C430C430C430C430C430C430C430DB
S1130180C430C430C430C4307F30C430C430C43010
S1130190C430C430C430C430A3306E616E00696EA4
S11301A0660000407A10F35A00A0724E180900103D
S11301B0A5D4E80000E87648170000E40B540200D8
S11301C000CA9A3B000000E1F50500008096980003
S11301D0000040420F000000A0860100000010272C
S11301E000000000E80300000000640000000000BC
S11301F00A00000000000100000000002C76D888EE
S1130200DC674F0823DFC1DFAE59E1B1B796E5E300
S1130210E453C63AE651997696E8E6C28426EB8919
S11302208C9B62ED407C6FFCEFBC9C9F40F2BAA5B6
S11302306FA5F490055A2AF75C936B6CF9676DC14E
S11302401BFCE0E40D47FEF520E6B500D0ED902E52
S11302500300943577050080841E080000204E0AB0
S1130260000000C80C333333330F986E12831141EE
S1130270EF8D2114893BE65516CFFEE6DB18D184B9
S11302804B381BF77C1D901DA4BBE42420328472E0
S11302905E228100C9F124ECA1E53D270E94AA1346
S11302A080919913823010F00E94C90A0E94E621BD
S11302B0F5CFCF93DF931F92CDB7DEB7CE01019672
S11302C00E94E61E49810E94DB200E943221F6CF63
S11302D011241FBECFEFD1E2DEBFCDBF00E00CBFC3
S11302E017E0A0E0B2E0E6E8F2E700E00BBF02C0EE
S11302F007900D92A235B107D9F725E1A2E5B7E041
S113030001C01D92A537B207E1F70E947A220C942E
S1130310413976CE90935415809353150895CF9315
S1130320DF9300D01F92CDB7DEB70E94FB14698320
S11303307A838B839C8340EE53E060E070E0CE01CF
S113034001960E94111740915515509156156091D0
S1130350571570915815CC24CA94DC2C760101E011
S113036020E08091591590915A15BED500915515EC
S1130370109156152091571530915815DC01CB0179
S113038080239123A223B323081719072A073B07C5
S113039091F60E948C29809352158111CCCFCBD237
S11303A0CACFEF92FF920F93CF93DF93082FEB0105
S11303B040915515509156156091571570915815E7
S11303C08091591590915A152FD6E12CF12C9E014C
S11303D044E251E06FE672E08FE891E00E9471140C
S11303E0DF91CF910F91FF90EF900895AF92BF925C
S11303F0CF92DF92EF92FF920F931F93CF93DF93ED
S11304008C015B0169017A0182E090E00E94BD35B4
S1130410EC01892BD9F019821882B0925A15A09256
S11304205915C0925515D0925615E0925715F09271
S1130430581583E00E9462298AE891E00E94872986
S1130440BE01C801AEDF8C2F9D2F02C080E090E07A
S1130450DF91CF911F910F91FF90EF90DF90CF909C
S1130460BF90AF900895FC018081918108952091FF
S1130470531530915415FC01318320830895EF9274
S1130480FF920F93CF93DF93082FEB0187E792E05E
S11304909F938F930E946B38E12CF12C9E0148E8C6
S11304A051E062E872E084E992E00E9471140F90D6
S11304B00F90DF91CF910F91FF90EF9008950F93DC
S11304C01F93CF93DF930FEF1FEF980146E150E0A6
S11304D062E577E00E94D611C2E5D7E09981888170
S11304E01F929F931F928F938CE992E09F938F9317
S11304F00E946B3889810F900F900F900F900F908E
S11305000F90813061F480915407813021F46CE9BB
S11305100E94BB2904C064E681E00E94BB29DF91EC
S1130520CF911F910F910895EC01CE01C8DFFDCF4B
S1130530CF93DF9300D01F92CDB7DEB7813071F532
S1130540CE0101960E94722E81111FC069817A81A9
S11305508B819C810E948322709369076093680752
S113056043D28C818F938B818F938A818F938981DE
S11305708F938DEC92E09F938F93F2D00F900F9016
S11305800F900F900F900F9009C0833039F489EDCC
S113059092E09F938F93E4D00F900F900F900F9061
S11305A00F900F90DF91CF910895EF92FF920F93E8
S11305B0CF93DF93082FEB014091551550915615B9
S11305C060915715709158158091591590915A154D
S11305D02BD5E12CF12C9E0148E851E06AE073E050
S11305E08EE793E00E947114DF91CF910F91FF90F9
S11305F0EF9008958F929F92AF92BF92EF92FF92E5
S11306001F93CF93DF93182F7B0149015A0162E0B6
S113061070E081E090E00E94A335EC01892B19F190
S1130620198218828092551590925615A0925715EA
S1130630B0925815F0925A15E092591588E992E053
S11306400E94302E811107C085E193E09F938F9320
S113065087D00F900F900E944B2EBE01812FA5DFF3
S11306608C2F9D2F02C080E090E0DF91CF911F91ED
S1130670FF90EF90BF90AF909F908F900895CF928E
S1130680DF92EF92FF920F931F93CF93DF93EC01CE
S11306904091551550915615609157157091581504
S11306A0CC24CA94DC2C760101E020E08091591519
S11306B090915A1519D40091551510915615209101
S11306C0571530915815DC01CB0180239123A223C7
S11306D0B323081719072A073B0739F40E94602E31
S11306E0811103C0BE0181E023DFDF91CF911F910F
S11306F00F91FF90EF90DF90CF900895CF93DF9309
S113070000D01F92CDB7DEB78C010E94FB14698321
S11307107A838B839C8342EA53E060E070E0CE01ED
S113072001960E941117C801AADFF5CFFC01808150
S1130730918108952091680730916907FC01318304
S11307402083089580915B1590915C15892B39F471
S113075081E00E94850D90935C1580935B1508954C
S11307600F93CF93DF93CDB7DEB74CE251E060E057
S113077070E080915B1590915C150E945B0E813056
S113078099F4BE01675F7F4F8F8198850E94DC38A2
S113079000E020E030E0A90160E070E080915B15AA
S11307A090915C150E94E10CDF91CF910F91089517
S11307B0EF92FF920F931F93CF93DF937C018B01F2
S11307C0EA018091631590916415892B39F481E0D5
S11307D00E94850D9093641580936315F0925E15C5
S11307E0E0925D151093601500935F15D093621528
S11307F0C0936115DF91CF911F910F91FF90EF90FE
S113080008950F934CE251E060E070E0809163152D
S1130810909164150E945B0E813091F480915D1576
S113082090915E15FFD100E020E030E0A90160E086
S113083070E080916315909164150E94E10C07C0EB
S11308408EE293E09F938F938BDF0F900F900F9125
S113085008950F93CF93DF934CE251E060E070E092
S113086080916315909164150E945B0E8130B1F400
S113087080915D1590915E15D1D1D82FC92F00E0DC
S113088020E030E0A90160E070E080916315909170
S113089064150E94E10C8D2F9C2F09C08EE293E019
S11308A09F938F935DDF0F900F9080E090E0DF9136
S11308B0CF910F910895FF920F931F93CF93DF93DE
S11308C04CE251E060E070E0809163159091641512
S11308D00E945B0E8130D1F480915D1590915E157C
S11308E097D1F62E172FD82FC92F00E020E030E043
S11308F0A90160E070E080916315909164150E94F5
S1130900E10C5F2D412F3D2F2C2F0BC08EE293E085
S11309109F938F9325DF0F900F9050E040E030E0DD
S113092020E0652F742F832F922FDF91CF911F9199
S11309300F91FF9008950F934CE251E060E070E056
S113094080916315909164150E945B0E813091F43F
S113095080915F15909160158ADD00E020E030E021
S1130960A90160E070E080916315909164150E9484
S1130970E10C07C08EE293E09F938F93F1DE0F901A
S11309800F900F9108950F93CF93DF934CE251E0B2
S113099060E070E080916315909164150E945B0E95
S11309A08130A9F480915F15909160155CDDD82F9A
S11309B0C92F00E020E030E0A90160E070E0809100
S11309C0631590916415FDD78D2F9C2F09C08EE27D
S11309D093E09F938F93C4DE0F900F9080E090E09C
S11309E0DF91CF910F9108950F934CE251E060E0B5
S11309F070E080916315909164150E945B0E8130C4
S1130A0089F4809161159091621594DE00E020E0F4
S1130A1030E0A90160E070E0809163159091641565
S1130A20D0D707C08EE293E09F938F9399DE0F9007
S1130A300F900F9108950F93CF93DF934CE251E001
S1130A4060E070E080916315909164150E945B0EE4
S1130A508130A9F4809161159091621567DED82FD9
S1130A60C92F00E020E030E0A90160E070E080914F
S1130A70631590916415A5D78D2F9C2F09C08EE224
S1130A8093E09F938F936CDE0F900F9080E090E043
S1130A90DF91CF910F910895EF92FF920F93CF932F
S1130AA0DF93EC01062F4091551550915615609136
S1130AB05715709158158091591590915A15B4D2C3
S1130AC0E12CF12C9E0140EC50E06FE473E085EBE7
S1130AD095E00E947114DF91CF910F91FF90EF90F8
S1130AE00895AF92BF92CF92DF92EF92FF920F934D
S1130AF01F93CF93DF938C015B0169017A0186E038
S1130B0090E00E94BD35EC01892B01F11882198215
S1130B101A821B821D821C82B0925A15A09259150A
S1130B20C0925515D0925615E0925715F09258156B
S1130B300E942824811104C080E693E00E947E383C
S1130B40B801CE01A9DF8C2F9D2F02C080E090E078
S1130B50DF91CF911F910F91FF90EF90DF90CF9095
S1130B60BF90AF9008954DCE0895CF93DF9300D0FA
S1130B701F92CDB7DEB75C010E94FB1469837A83B0
S1130B808B839C8342EA53E060E070E0CE010196DF
S1130B900E9411170E944024882321F089E793E0E2
S1130BA00E947E3840915515509156156091571505
S1130BB070915815CC24CA94DC2C760101E020E015
S1130BC08091591590915A158FD16B017C0164E085
S1130BD070E080E090E00E94761780915515909126
S1130BE05615A0915715B0915815C822D922EA225A
S1130BF0FB228C159D05AE05BF0521F60E945524E8
S1130C0060E070E0CB010E947617C501ACDFBACF7B
S1130C10FC0160817181828193810895FC0184814A
S1130C2095810895CF93DF93EC010E948324688318
S1130C3079838A839B830E947A249C01ADECBCEC6B
S1130C400E94943596958795969587959695879560
S1130C509D838C83DF91CF9108950F931F93CF933E
S1130C60DF93CDB7DEB764970FB6F894DEBF0FBE3F
S1130C70CDBF0E9409260E948727CE0101960E94BB
S1130C801B26CE0101960E943726AE014F5F5F4FAF
S1130C9063E973E084EB93E00E9465280E946A266E
S1130CA081E00E94642784EF91E00E946F271AE09C
S1130CB080E00E947026082F0E9486289F938F93BD
S1130CC01F921F9385EC93E09F938F9349DD0F90C0
S1130CD00F900F900F900F900F90083041F066E343
S1130CE071E080E090E00E947617115009F7083017
S1130CF041F485EE93E09F938F9332DD0F900F9034
S1130D0002C047D4FECF64960FB6F894DEBF0FBE80
S1130D10CDBFDF91CF911F910F910895CF93DF93B2
S1130D20CDB7DEB728970FB6F894DEBF0FBECDBFA0
S1130D3081E00E94FB2562E070E080E090E00E9488
S1130D40761780E00E94FB2566E970E080E090E081
S1130D500E9476170E94B42580DF0E94FB146983E9
S1130D607A838B839C8344E457E060E070E0CE0197
S1130D7001960E9411170AE617E087E0F8018183C3
S1130D8081E0808398DD362E872EA82E992E61DD92
S1130D90B82E292EF8DDD82EC92E4DDEF82EE92ED8
S1130DA01D821E821F821886AE014B5F5F4F632D2A
S1130DB0782D8A2D992D0E94D82220E030E048EC2D
S1130DC052E40E940B232B013C019F92AF928F921D
S1130DD03F9284E194E09F938F93C2DC6D817E8186
S1130DE08F8198850E947E22F8016283C301B2013B
S1130DF00E947E22F80163832F92BF928EE194E0D9
S1130E009F938F93ADDCF801B482CF92DF928CE292
S1130E1094E09F938F93A4DCF801C582D682EF926D
S1130E20FF9285E394E09F938F939ADCF801E78225
S1130E30F086B80180E00E9499260E9486289F933C
S1130E408F9387E494E09F938F938ADC0FB6F89492
S1130E50DEBF0FBECDBF87CFEF92FF920F93E12C81
S1130E60F12C082F20E030E048E851E06CE574E014
S1130E708EE896E00E9471140F91FF90EF90089510
S1130E800F9301110CC0DC01CB0182239323A42313
S1130E90B523892B8A2B8B2B79F480E010C0DC01DD
S1130EA0CB0182239323A423B523281739074A07A8
S1130EB05B0721F080E003C081E001C081E00F9175
S1130EC00895CF93DF938FE090E0AFD1EC010097CA
S1130ED039F0FC011192119211921192CF018BD22F
S1130EE0CE01DF91CF9108952F923F924F925F925E
S1130EF06F927F928F929F92AF92BF92CF92DF9226
S1130F00EF92FF920F931F93CF93DF93EC014A016B
S1130F105B01622E702E0E94F514288039804A806D
S1130F205B80A5019401C201B101AADF8823A1F06D
S1130F30662089F1D501C40180959095A095B0955E
S1130F4082219321A421B52188839983AA83BB8319
S1130F50C12CD12C760122C0C114D104E104F104C6
S1130F60E9F0611004C040E050E0BA0104C040E080
S1130F7050E060E071E071107460482959296A29D1
S1130F807B2997018601CE0104960E940D18212C1D
S1130F90312C210103C0C12CD12C76010E943516BD
S1130FA0CD28CE28CF2859F1811101C0F2D20E9458
S1130FB0CF1B6B017C0191FD1FC00FB6F8940F92FB
S1130FC0C880D980EA80FB80072DA5019401C70160
S1130FD0B60156DF882371F0662061F08094909406
S1130FE0A094B0948C209D20AE20BF20888299824A
S1130FF0AA82BB820F900FBE160127015524C2019D
S1131000B101DF91CF911F910F91FF90EF90DF908D
S1131010CF90BF90AF909F908F907F906F905F9094
S11310204F903F902F9008954F925F926F927F92CE
S1131030AF92BF92CF92DF92EF92FF920F931F93E2
S1131040CF93DF93EC016A017B018C01095F1F4F91
S11310500E94F514EB85FC8588819981AA81BB8166
S1131060C82AD92AEA2AFB2AC882D982EA82FB82C0
S1131070C12CD12C76013DC0A480B58080819181A2
S1131080A281B381AC01BD017727B2FD0EC04880B7
S113109059806A807B804422552266227722452823
S11310A04628472889F420E012C0488059806A8085
S11310B07B80442255226622772244155505660515
S11310C0770521F020E003C021E001C021E02223C4
S11310D071F0B0FF04C0C42AD52AE62AF72A488151
S11310E059816A817B817260CF010E944819EA2D7F
S11310F0FB2DE017F10709F0BFCFC094D094E09422
S1131100F09488819981AA81BB81C822D922EA22DC
S1131110FB22C882D982EA82FB820E94351668814A
S113112079818A819B81DF91CF911F910F91FF90EB
S1131130EF90DF90CF90BF90AF907F906F905F90D3
S11311404F900895ECE8F7E0A0E9B7E0B183A083FD
S113115013821282E4E4F3E1F0938B07E0938A07AD
S1131160138212821182108284EB9BE013969C936B
S11311708E931297ED93FC93909387078093860741
S1131180909389078093880780E090E89093810783
S1131190809380070895CF93DF93EC01ACE8B7E028
S11311A001C0DF01ED91FC911197EC17FD07C8F325
S11311B012968D919C9113979D01280F391FC21788
S11311C0D30749F42A813B81820F931F13969C9382
S11311D08E931297ED018A819B819E01280F391FFE
S11311E0E217F307C1F420918A0730918B07E217C5
S11311F0F30771F022813381820F931F9B838A83CB
S1131200ED91FC911197808191819983888305C028
S11312103983288302C0F983E883CA17DB0711F0F6
S1131220CD93DC93DF91CF910895EF92FF920F93CA
S11312301F93CF93DF938C010E94F51480918A074A
S113124090918B07892B09F47DDF80918007909121
S1131250810780239123892B09F076C0011511059C
S113126049F0C80104960817190718F000E010E0C7
S113127001C08C010115110509F469C0809188072A
S1131280909189078017910708F464C0C0918C0776
S1131290D0918D07ECE8F7E002C0FE01EC018A81F1
S11312A09B818017910720F4888199810097A9F781
S11312B080918A0790918B07C817D90709F44DC00C
S11312C0E080F18084E0E80EF11C888199819183AB
S11312D080832A813B81201B310B2930310548F062
S11312E0CE01800F911FFC01338322831B830A8369
S11312F052DF2A813B818091880790918907821B64
S1131300930B9093890780938807409186075091A7
S113131087078417950720F490938707809386079F
S11313208091800790918107282B392B3B832A8356
S11313301982188280918407909185070196909371
S11313408507809384070BC0E12CF12C08C0E12CA5
S1131350F12C05C0E12CF12C02C0E12CF12C0E94EF
S11313603516E114F10411F40E94F221C701DF9152
S1131370CF911F910F91FF90EF9008950F931F93BA
S1131380CF93DF93009791F1EC0124974A815B811D
S11313902091800730918107BA0162237323672B60
S11313A029F168817981672B09F5209530952423EB
S11313B035233B832A830E94F5148A819B812091E3
S11313C0880730918907820F931F90938907809330
S11313D08807CE01E0DE8091820790918307019611
S11313E090938307809382070E943516DF91CF91F3
S11313F01F910F910895FC010396928381834FEF0F
S11314005FEFBA0143835483658376839087878330
S11314109287818710820895FC01138612860895AD
S11314200F931F93CF93DF93EB01088119812A81D6
S11314303B810F3F4FEF14072407340721F4FC01CD
S1131440A185B28511C0DC01139601C0DF01149699
S1131450ED91FC911597408151816281738104174C
S113146015072607370790F71496ED91FC91159709
S1131470FD83EC83D783C683BF83AE831596DC9349
S1131480CE9314979B878A87FC0120812F5F20834A
S1131490DF91CF911F910F910895CF93DF93FC01BA
S11314A0A285B385C481D581868197819F838E83EC
S11314B0C681D781848195819D838C8311968D917A
S11314C09C911297E817F90731F486819781129657
S11314D09C938E931197138612868C9181508C93D2
S11314E08C91DF91CF910895A89590EC88E10FB687
S11314F0F894A895809360000FBE909360000895BF
S1131500FC01608331977083319710823197108288
S1131510319720E8208331971082319710823197D8
S11315201082779740833197508386970895DCDF44
S1131530A0910714B0910814CD91CDBFDD91DEBF09
S1131540FF91EF91DF91CF91BF91AF919F918F91D7
S11315507F916F915F914F913F912F911F910F91C7
S1131560FF90EF90DF90CF90BF90AF909F908F90BF
S11315707F906F905F904F903F902F901F900F90AF
S11315800CBE0F900BBE0F900FBE0F90089581E01C
S113159008950F920FB6F8940F920BB60F920CB6F3
S11315A00F921F9211242F923F924F925F926F924B
S11315B07F928F929F92AF92BF92CF92DF92EF92DF
S11315C0FF920F931F932F933F934F935F936F93C8
S11315D07F938F939F93AF93BF93CF93DF93EF93B7
S11315E0FF93A0910714B09108140DB60D920EB696
S11315F00D920E949117A0910714B0910814CD91F7
S1131600CDBFDD91DEBFFF91EF91DF91CF91BF910F
S1131610AF919F918F917F916F915F914F913F9186
S11316202F911F910F91FF90EF90DF90CF90BF907B
S1131630AF909F908F907F906F905F904F903F906E
S11316402F901F900F900CBE0F900BBE0F900FBEEB
S11316500F9008950F920FB6F8940F920BB60F9255
S11316600CB60F921F9211242F923F924F925F92C9
S11316706F927F928F929F92AF92BF92CF92DF929E
S1131680EF92FF920F931F932F933F934F935F9388
S11316906F937F938F939F93AF93BF93CF93DF9376
S11316A0EF93FF93A0910714B09108140DB60D9217
S11316B00EB60D9213BE0E94091581110E94911756
S11316C0A0910714B0910814CD91CDBFDD91DEBF78
S11316D0FF91EF91DF91CF91BF91AF919F918F9146
S11316E07F916F915F914F913F912F911F910F9136
S11316F0FF90EF90DF90CF90BF90AF909F908F902E
S11317007F906F905F904F903F902F901F900F901D
S11317100CBE0F900BBE0F900FBE0F9008959ADF72
S11317201895DC0153962C915397222341F05A9635
S1131730ED91FC915B9790818AE0891B089580E08C
S113174008950FB6F8940F92FC01868D811102C0A2
S113175081E001C080E00F900FBE08950FB6F894A9
S11317600F92FC01268D878D281302C081E001C0F1
S113177080E00F900FBE08950F931F93CF93DF93D4
S1131780EC01042F1E8D48A141110CC08881998160
S1131790892B09F042C08C819D810E940D1B1D8202
S11317A01C8242C0011117C050E08A819B810E94B3
S11317B0C53728A18A819B81820F911D9B838A83CF
S11317C02C813D818217930750F1888199819B83F5
S11317D08A8380E029C050E08E819F810E94C537B2
S11317E088A190E09195819591092E813F81280FE0
S11317F0391F3F832E83488159812417350730F4DC
S11318002C813D81820F931F9F838E83023049F484
S1131810112349F0115080E007C080E005C080E04A
S113182003C080E001C080E01F5F1E8FDF91CF9175
S11318301F910F910895FC0140A14423A9F050E0A9
S113184026813781240F351F378326838481958130
S11318502817390720F08081918197838683CB01F3
S1131860668177810C94C53708951F93CF93DF93D6
S1131870EC010FB6F8940F921AA10BC08B89882340
S113188051F0CE0143960E94991881110E946F1A5B
S1131890115011169CF38FEF8AA30F900FBE0FB651
S11318A0F8940F9219A10BC08885882351F0CE01BA
S11318B008960E94991881110E946F1A11501116EE
S11318C09CF38FEF89A30F900FBEDF91CF911F91EF
S11318D00895CF93DF93EC010FB6F8940F92E8814B
S11318E0F9818F8D28A190E030E0829FA001839F31
S11318F0500D929F500D11244E0F5F1F5D834C833A
S11319001E8EFB83EA830197289FA001299F500D17
S1131910389F500D1124CF01840F951F9F838E8310
S11319208FEF89A38AA361110BC08885882371F086
S1131930CE0108960E949918882341F02ADE06C039
S1131940CE01089658DDCE01439655DD0F900FBEAB
S113195081E0DF91CF9108950F931F93F8016111F6
S113196003C01183008302C051834083878F60A327
S113197061E0CF01AEDF1F910F910895DF92EF92E6
S1131980FF920F931F93CF93DF93F82EE62ED42E5E
S1131990869FC0011124839648DCEC01009741F036
S11319A08C012D2DAC014D5D5F4F6E2D8F2DD4DF3D
S11319B0CE01DF91CF911F910F91FF90EF90DF90B7
S11319C00895CF92DF92EF92FF920F931F93CF93DC
S11319D0DF93CDB7DEB729970FB6F894DEBF0FBEFD
S11319E0CDBF7C016B012E833F834887598710E06C
S11319F00FB6F8940F92F701968D878D981710F013
S1131A000230B1F4402FB601C701B6DEF701938965
S1131A10992341F0C70143960E949918882321F025
S1131A20B8DD02C08111B5DD0F900FBE81E04CC05E
S1131A308E819F81A885B985892B8A2B8B2B21F4D4
S1131A400F900FBE80E040C0111105C0CE01019679
S1131A500E94F81911E00F900FBEC7D70FB6F89483
S1131A600F92F70181A18F3F09F411A2F70182A11E
S1131A708F3F09F412A20F900FBEBE016A5F7F4F21
S1131A80CE0101960E94091A811119C0C70166DEB0
S1131A90882381F04E815F8168857985C701089626
S1131AA00E94F617C701E1DE0E9435168111A0CF0E
S1131AB070DD9ECFC701D9DE0E94351699CFC701CC
S1131AC0D4DE0E94351680E029960FB6F894DEBF66
S1131AD00FBECDBFDF91CF911F910F91FF90EF907B
S1131AE0DF90CF9008950F93009769F0FC01158261
S1131AF0148211821082168200E020E030E0A901F5
S1131B0060E070E05EDF0F910895CF93DF93482F7C
S1131B1060E081E033DFEC01E6DFCE01DF91CF91BD
S1131B200895EF92FF920F931F93CF93DF938A014F
S1131B30FC01568D378D531710F02230F9F4422FE3
S1131B407801EC011AA18E8DCE0116DE1F3F81F4BF
S1131B508B898823A9F0CE0143960E949918882383
S1131B6089F0E114F10481F081E0F70180830DC074
S1131B70FF24F394F10EFAA281E007C080E005C0CF
S1131B8081E003C081E001C081E0DF91CF911F912A
S1131B900F91FF90EF900895CF92DF92EF92FF9212
S1131BA00F931F93CF93DF93CDB7DEB729970FB66B
S1131BB0F894DEBF0FBECDBF8C016B012E833F8333
S1131BC048875987E12C0FB6F8940F92F801F68CE8
S1131BD0FF2099F0B601C8012EDEFA94F801F68EC2
S1131BE08085882331F0C80108960E9499188111D4
S1131BF0D0DC0F900FBE81E04FC08E819F81A885FD
S1131C00B985892B8A2B8B2B21F40F900FBE80E092
S1131C1043C0E11006C0CE0101960E94F819EE24DB
S1131C20E3940F900FBEE1D60FB6F8940F92F8012B
S1131C3081A18F3F09F411A2F80182A18F3F09F419
S1131C4012A20F900FBEBE016A5F7F4FCE010196B4
S1131C500E94091A811117C0C80173DD882379F025
S1131C604E815F8168857985C80143960E94F61785
S1131C70C801FBDDFAD78111A6CF8BDCA4CFC80144
S1131C80F4DDF3D7A0CFC801F0DDEFD7C80159DDEB
S1131C90882309F498CF80E029960FB6F894DEBF24
S1131CA00FBECDBFDF91CF911F910F91FF90EF90A9
S1131CB0DF90CF900895EF92FF920F931F93CF93ED
S1131CC0DF93CDB7DEB729970FB6F894DEBF0FBE0A
S1131CD0CDBF8C014E835F8368877987E12CF12C1B
S1131CE00FB6F8940F92F801868D8823C9F08150BD
S1131CF0868F80819181892B29F40E94F91BF80138
S1131D0095838483F8018085882331F0C80108967F
S1131D100E94991881113DDC0F900FBE81E06FC0C5
S1131D208E819F81A885B985892B8A2B8B2B21F4E1
S1131D300F900FBE80E063C0F11006C0CE01019683
S1131D400E94F819FF24F3940F900FBE4ED60FB6DD
S1131D50F8940F92F80181A18F3F09F411A2F801C0
S1131D6082A18F3F09F412A20F900FBEBE016A5FD9
S1131D707F4FCE0101960E94091A811126C0C80125
S1131D80E0DC8823F1F0F80180819181892B51F402
S1131D900FB6F8940F92848195810E94861AE82EDA
S1131DA00F900FBE4E815F8168857985C801439687
S1131DB00E94F617C80159DD58D7811191CFE9DB8C
S1131DC08FCFC80152DD51D78BCFC8014EDD4DD71F
S1131DD0C801B7DC882309F483CFEE2079F00FB66D
S1131DE0F8940F92C8019DDC682FF80184819581D5
S1131DF00E94681B0F900FBE80E001C080E029960E
S1131E000FB6F894DEBF0FBECDBFDF91CF911F9107
S1131E100F91FF90EF900895CF93DF93EC010FB6ED
S1131E20F8940F9289A18F3F09F419A28AA18F3FD8
S1131E3009F41AA20F900FBE8E8D811104C0CE0139
S1131E4043960E945718CE0110DDDF91CF9108957B
S1131E50FC014481558122813381240F351F808107
S1131E609181B901681B790BCB016417750710F0D8
S1131E70841B950B08950F93FC018FE0DF011D92E5
S1131E808A95E9F775876487558344833783268366
S1131E9006870F910895AF92BF92CF92DF92EF928F
S1131EA0FF920F931F93CF93DF936C015B017A0131
S1131EB0FC01C281D381048115810C1B1D0B4017C9
S1131EC0510708F48A01F60184859585A801B501B6
S1131ED08C0F9D1F0E94C5370E151F0558F4A701CE
S1131EE0401B510BB501600F711FF6018485958568
S1131EF00E94C537CE018E0D9F1DF60124813581C8
S1131F008217930710F0821B930BF601938382834D
S1131F10C701DF91CF911F910F91FF90EF90DF9058
S1131F20CF90BF90AF900895CF92DF92EF92FF923F
S1131F300F931F93CF93DF931F921F92CDB7DEB7FA
S1131F407C016B015A83498321153105C1F0FC01E1
S1131F50868580FD08C04217530708F49A013A8326
S1131F60298381E00FC02017310758F042E050E088
S1131F70BE016F5F7F4FC7018EDF81E003C080E049
S1131F8001C080E0882331F049815A81B601C7013C
S1131F9082DF02C080E090E00F900F90DF91CF913C
S1131FA01F910F91FF90EF90DF90CF900895AF9223
S1131FB0BF92CF92DF92EF92FF920F931F93CF9332
S1131FC0DF937C015B01E9014217530708F4EA013E
S1131FD0209781F1F7010081118184819581801B13
S1131FE0910B6E018C179D0708F46C01F701648551
S1131FF07585600F711FA601C5010E94C537CC16F7
S1132000DD0658F4AE014C195D09F7016485758548
S1132010C5018C0D9D1D0E94C5370C0F1D1FF701B6
S1132020848195810817190710F0081B190BF70113
S113203011830083CE01DF91CF911F910F91FF9007
S1132040EF90DF90CF90BF90AF9008956F927F9202
S11320508F929F92AF92BF92CF92DF92EF92FF92B4
S11320600F931F93CF93DF931F921F92CDB7DEB7C9
S11320706C014B015A01790101151105B1F0FC0104
S113208060807180A801BE016F5F7F4F90DF8981FE
S11320909A81E01AF10AA816B90630F4F6017182A1
S11320A06082A12CB12C01C05C019701A501B4018F
S11320B0C6017DDF0F900F90DF91CF911F910F919B
S11320C0FF90EF90DF90CF90BF90AF909F908F9054
S11320D07F906F900895CF92DF92EF92FF920F93CB
S11320E0CF93DF93EC016B01413011F401E001C0A7
S11320F000E0C114D10419F4CC24C394D12CCE0132
S11321004096C817D90720F421968FD87C0102C0C5
S1132110E12CF12CE114F10439F09601AE01B70180
S1132120615F7F4FC701A7DEC701DF91CF910F9198
S1132130FF90EF90DF90CF9008950F930FB6F8942F
S11321400F92FC0120853185232B71F42285338580
S1132150232B61F4268137814481558164857585FB
S1132160068589DE81E003C080E001C080E00F9035
S11321700FBE0F910895FC012481358180819181E6
S1132180820F931F42815381841B950B0197821701
S1132190930710F0821B930B08952F923F924F9256
S11321A05F926F927F928F929F92AF92BF92CF92E3
S11321B0DF92EF92FF920F931F93CF93DF93CDB7EC
S11321C0DEB72B970FB6F894DEBF0FBECDBF4C0120
S11321D07B876A871A010E831F8328873987FC014E
S11321E0848195810197268520FF0CC02A01F2E0A5
S11321F04F0E511C8415950558F41E821F821886B3
S1132200198606C08417950710F02A0101C02C0115
S11322108E819F81A885B985892B8A2B8B2B09F404
S113222038C0CE0101960E94E2190FB6F8940F92BD
S1132230C401A1DF3C018415950540F560E080E010
S113224090E00E94CC1E0E94731AF4019387828747
S11322500F900FBEAE80BF80C884D984E12CF12CCE
S113226000E010E0980140E050E0BA0180E00E94F4
S11322700B1CF40113861286BE016A5F7F4FCE01E8
S113228001960E94091A882381F205C00F900FBE9F
S113229002C0612C712C6114710419F4C4016BDF48
S11322A03C0182019301A1016A857B85C4013CDE66
S11322B06C01892BE9F0C401CBDDF401268137815F
S11322C082179307A8F091D3F40180859185892B17
S11322D071F080859185E12CF12C00E020E030E064
S11322E0A90160E00E94B31CF40111861086BDD4DC
S11322F0C6012B960FB6F894DEBF0FBECDBFDF919B
S1132300CF911F910F91FF90EF90DF90CF90BF90EE
S1132310AF909F908F907F906F905F904F903F9081
S11323202F900895AF92BF92CF92DF92EF92FF92D7
S11323300F931F93CF93DF93EC017B015A01690143
S11323408E8580FF04C08A010E5F1F4F01C08A0181
S1132350CE0111DF9C01A501B701CE01E5DD5C01D1
S1132360892BC1F0CE0174DD2E813F818217930742
S113237088F088859985892B69F088859985E12C71
S1132380F12C00E020E030E0A90160E00E94AA1DE9
S113239019861886C501DF91CF911F910F91FF9087
S11323A0EF90DF90CF90BF90AF9008954F925F92DF
S11323B06F927F928F929F92AF92BF92CF92DF9251
S11323C0EF92FF920F931F93CF93DF93EC012B01B6
S11323D03A01580169018E8580FF05C068948824FC
S11323E081F8912C02C0812C912CA114B104C10458
S11323F0D10441F10FB6F8940F92CE0129DD7C018E
S11324008816990648F060E080E090E00E94CC1EB7
S11324100E94731A998788870F900FBE8E149F04A9
S1132420A0F0E12CF12C00E010E0980140E050E035
S1132430BA0180E00E940B1C19861886CE0108DDC3
S11324407C0103C0CE0104DD7C018E149F04E8F4FA
S113245084019701A301B201CE01F8DD6C01892B3F
S1132460B1F0C3D28A859B85892B69F08A859B85C7
S1132470E12CF12C00E020E030E0A90160E00E94B2
S1132480B31C1B861A86F1D302C0C12CD12CC60101
S1132490DF91CF911F910F91FF90EF90DF90CF903C
S11324A0BF90AF909F908F907F906F905F904F9070
S11324B00895E0918113F0918213808181110CC001
S11324C08FEF9FEFDC0180934B1390934C13A093F9
S11324D04D13B0934E130895E0918113F09182133C
S11324E00780F085E02D80819181A281B381809362
S11324F04B1390934C13A0934D13B0934E13089524
S1132500CF93DF93EC018B8D9C8D0E94BE09CE018D
S11325100E94BE09DF91CF9108954F925F926F920E
S11325207F928F929F92AF92BF92CF92DF92EF925F
S1132530FF920F93CF93DF932C015B014A01390182
S1132540E60165EA70E08B8D9C8D0E94CE378B8D01
S11325509C8D21E0821A9108880E991EA114B10461
S113256089F415C0822F90E0F501E80FF91F30813E
S1132570DE01A80FB91F5D963C938081882329F062
S11325802F5F01C020E0203168F31CA601C01D8E1E
S11325900A3008F009E00A8F0DA71EA6CE010296A4
S11325A00E940C0ACE010E960E940C0ADB87CA8791
S11325B08AE090E0A0E0B0E0801B9109A109B10994
S11325C08E879F87A88BB98BDF8BCE8B84E0FE012F
S11325D0BF96DF011D928A95E9F71BAAA301B201F8
S11325E0C4010E94800A99838883E114F10419F0DC
S11325F0F701D183C083DF91CF910F91FF90EF90CA
S1132600DF90CF90BF90AF909F908F907F906F900E
S11326105F904F900895CF93C0E009C02BE0C29F14
S1132620C001112487569C4E0E94FB09CF5FCA301B
S1132630A8F38EE893E10E94FB0983E893E10E94EA
S1132640FB0984E793E10E94FB0989E693E10E9478
S1132650FB098DE593E10E94FB098EE893E19093D9
S113266082138093811383E893E190938013809382
S11326707F13CF910895CF93DF93EC010FB6F894B5
S11326800F9280915C138F5F80935C138091071489
S113269090910814892B51F4D0930814C093071413
S11326A080915C13813091F4B6DF10C08091561391
S11326B081110CC0E0910714F0910814928D8A8D59
S11326C0891720F0D0930814C093071480914F13F6
S11326D08F5F80934F13EA8D809157138E1710F4F8
S11326E0E09357138BE08E9FF0011124E756FC4EC4
S11326F00180F281E02DFF83EE83268137813987C3
S11327002887A681B7819E012E5F3F4F15963C9383
S11327102E93149737832683EA8D8E9FF00111241C
S1132720E756FC4EFD87EC8780818F5F80830F9096
S11327300FBE80915613882351F0E0910714F09155
S11327400814928D8A8D981710F40E94C90ADF919B
S1132750CF910895CF93DF931BC00FB6F8940F92D7
S1132760E0917013F0917113C085D185CE0102966A
S11327700E944D0A80915C13815080935C13809178
S113278068138150809368130F900FBECE01B8DE9A
S1132790809168138111E1CFDF91CF9108958F92D9
S11327A09F92AF92BF92CF92DF92EF92FF92CF931C
S11327B0DF936B017C01C42F8090581390905913C0
S11327C0A0905A13B0905B13809107149091081451
S11327D002960E944D0A8FEFC816D806E806F8063E
S11327E0B1F5CC23A1F1EDE5F3E1A181B281C09172
S11327F00714D0910814BF83AE83C0910714D091FD
S1132800081416968D919C91179799878887169628
S1132810CD91DC911797809107149091081402963A
S11328209D838C83809107149091081402961796C7
S11328309C938E931697A0910714B09108141D963B
S1132840FC93EE931C9780818F5F80833FC0C80CFC
S1132850D91CEA1CFB1CE0910714F0910814C282F5
S1132860D382E482F582C814D904EA04FB0468F430
S1132870609107147091081480917F1390918013D4
S11328806E5F7F4F0E94100A21C0609107147091FF
S1132890081480918113909182136E5F7F4F0E9480
S11328A0100A80914B1390914C13A0914D13B09149
S11328B04E13C816D906EA06FB0640F4C0924B1321
S11328C0D0924C13E0924D13F0924E13DF91CF91BE
S11328D0FF90EF90DF90CF90BF90AF909F908F903C
S11328E008952F923F924F925F926F927F928F92B0
S11328F09F92AF92BF92CF92DF92EF92FF920F938B
S1132900CF93DF933C011B014A012901CA010E94B4
S113291015096C01892B71F084E390E00E9415097C
S1132920EC01892B19F0DC8ECB8E06C0C6010E9407
S1132930BE0902C0C0E0D0E0209761F0A12CB12C08
S11329406E019201A401B101C301E7DDCE0193DE62
S113295081E001C08FEFDF91CF910F91FF90EF9055
S1132960DF90CF90BF90AF909F908F907F906F90AB
S11329705F904F903F902F900895EF92FF920F93A6
S11329800F2EF9E4EF2EF3E1FF2EF02D00E020E00E
S113299030E040EC50E069E674E08EE491E0A1DFC1
S11329A0813011F40E94701F8130C9F4F8948FEFC4
S11329B09FEFDC0180934B1390934C13A0934D1322
S11329C0B0934E1381E080935613109258131092D3
S11329D0591310925A1310925B130E94970A809114
S11329E006020F91FF90EF900895809148138F5F36
S11329F08093481308950FB6F8940F92609158137A
S1132A007091591380915A1390915B130F900FBEDC
S1132A100895CF92DF92EF92FF92CF93DF9380914C
S1132A204813811105C1C0905813D0905913E090F8
S1132A305A13F0905B138FEFC81AD80AE80AF80A01
S1132A40C0925813D0925913E0925A13F0925B1328
S1132A50C114D104E104F104B1F480918113909183
S1132A60821320917F13309180133093821320932B
S1132A7081139093801380937F13809150138F5F01
S1132A808093501316DD80914B1390914C13A091B9
S1132A904D13B0914E13C816D906EA06FB0620F46E
S1132AA080E0B2C081E001C080E0E0918113F09148
S1132AB08213908191110CC04FEF5FEFBA014093E4
S1132AC04B1350934C1360934D1370934E139CC04F
S1132AD0E0918113F09182130780F085E02D00844A
S1132AE0F185E02D4281538164817581C416D50638
S1132AF0E606F70648F440934B1350934C13609347
S1132B004D1370934E1380C0A485B585C681D781BB
S1132B10208531853F832E83C085D18526813781E9
S1132B203D832C8311964D915C9112979F012E5FEA
S1132B303F4F4217530731F44085518512965C93F9
S1132B404E931197158614869C9191509C93A08D59
S1132B50B18D109709F1C289D389448955895F835E
S1132B604E83C489D589428953895D834C831196E8
S1132B706D917C911297AF01425F5F4F64177507A7
S1132B8031F44489558912965C934E931197118EB2
S1132B90108E9C9191509C93A28D909157139A17EB
S1132BA010F4A09357139BE09A9FD0011124A756C9
S1132BB0BC4E11960D90BC91A02DB783A68316969A
S1132BC04D915C911797518740871696CD91DC9172
S1132BD017973D832C8317963C932E931697A28DBB
S1132BE09A9FD0011124A756BC4EB587A4879C9107
S1132BF09F5F9C93228DE0910714F0910814928DAD
S1132C00291708F04FCF51CFE0910714F091081421
S1132C10E28D9BE0E99FF0011124E756FC4E908180
S1132C20923008F081E090915113911116C016C0B2
S1132C308091521390915313A0915413B091551352
S1132C400196A11DB11D8093521390935313A09329
S1132C505413B093551380E001C081E0DF91CF910C
S1132C60FF90EF90DF90CF900895CF92DF92EF9294
S1132C70FF92CF93DF930FB6F8940F92809148138D
S1132C80815080934813809148138111BEC0809174
S1132C905C13811188C0BCC0E0917B13F0917C135C
S1132CA00084F185E02DA08DB18DC289D3898489FA
S1132CB095899F838E83C489D589828993899D83CD
S1132CC08C8311962D913C911297CF010E96281763
S1132CD0390731F48489958912969C938E931197C0
S1132CE0118E108E8C9181508C93A485B585C681EC
S1132CF0D781808591859F838E83C085D185868188
S1132D0097819D838C8311968D919C9112979F013D
S1132D102E5F3F4F8217930731F480859185129679
S1132D209C938E931197158614868C9181508C9365
S1132D30A28D809157138A1710F4A09357138BE038
S1132D408A9FD0011124A756BC4E11960D90BC91B8
S1132D50A02DB783A68316964D915C911797518742
S1132D6040871696CD91DC9117973D832C83179657
S1132D703C932E931697A28D8A9FD0011124A756B7
S1132D80BC4EB587A4878C918F5F8C93928DA09154
S1132D900714B09108145A968C91981730F081E07A
S1132DA08093511302C0E0E0F0E08091741381112C
S1132DB073CFEF2B09F07DDBC0905213D0905313E7
S1132DC0E0905413F0905513C114D104E104F104BC
S1132DD0A1F01FDE882319F081E08093511381E074
S1132DE0C81AD108E108F108A1F710925213109201
S1132DF05313109254131092551380915113882336
S1132E0031F00E94C90A81E003C080E001C080E083
S1132E100F900FBEDF91CF91FF90EF90DF90CF9096
S1132E2008958F929F92AF92BF92CF92DF92EF92CA
S1132E30FF921F93CF93DF93EC016A017B01D5DDF1
S1132E408090581390905913A0905A13B0905B132C
S1132E5088819981AA81BB81AC01BD014C0D5D1DA6
S1132E606E1D7F1D88169906AA06BB0660F44817D6
S1132E7059076A077B0798F484169506A606B706D1
S1132E8080F010E013C0481759076A077B0758F011
S1132E9084169506A606B70640F010E007C010E0B9
S1132EA005C011E003C011E001C011E0488359835B
S1132EB06A837B83112341F0CB01BA016819790934
S1132EC08A099B0940E06BDCD0DE811102C00E94BC
S1132ED0C90A812FDF91CF911F91FF90EF90DF906E
S1132EE0CF90BF90AF909F908F900895CF92DF9234
S1132EF0EF92FF926B017C01672B682B692B39F0F1
S1132F0074DD40E0C701B6014ADCAFDE01C080E0F9
S1132F10811102C00E94C90AFF90EF90DF90CF9008
S1132F20089580914813882321F081E08093511300
S1132F30089510925113E0910714F0910814208120
S1132F403181E0910714F0910814838D948D8217D8
S1132F50930760F06091071470910814635E7F4FCB
S1132F6080910714909108140E94FE2180915713B8
S1132F7001C08150282F30E09BE0929FF001939F85
S1132F80F00D1124E756FC4E9081992391F39BE0B8
S1132F90929FA001939F500D1124DF010180F281C3
S1132FA0E02D0480F581E02D1296FC93EE931197A9
S1132FB044565C4EE417F50729F444815581FD011C
S1132FC0528341839BE0929FF001939FF00D112463
S1132FD0E756FC4E0180F281E02D20853185309347
S1132FE0081420930714809357130895CF92DF9207
S1132FF0EF92FF926A017B016091071470910814AB
S1133000625F7F4F0E94100A41E0C701B601C7DB2F
S1133010FF90EF90DF90CF9008950F931F93CF937D
S1133020DF93FC01A0910714B091081470681E96F8
S11330304D935D936D937C935197A181B281C0911F
S11330400714D0910814BB8BAA8BC0910714D0919C
S1133050081416968D919C9117979D8B8C8B1696C0
S1133060CD91DC91179780910714909108140E96D6
S11330709D838C8380910714909108140E96179663
S11330809C938E931697A0910714B09108145996A7
S1133090FC93EE93589780818F5F808341E0C90150
S11330A0B8017DDBDF91CF911F910F910895CF93EC
S11330B0DF93FC01CB01BA01A181B281C091071455
S11330C0D0910814BB8BAA8BC0910714D09108141B
S11330D016964D915C9117975D8B4C8B1696CD91FE
S11330E0DC9117974091071450910814425F5F4F89
S11330F05D834C834091071450910814425F5F4FE5
S113310017965C934E931697A0910714B0910814E8
S11331105996FC93EE93589730813F5F3083222376
S113312019F06FEF7FEFCB01422F39DBDF91CF91A5
S11331300895CF93DF93DC011796ED91FC911897D6
S11331400084F185E02DA08DB18DC289D389848955
S113315095899F838E83C489D589828993899D8328
S11331608C8311968D919C9112979F01225F3F4F02
S11331708217930731F48489958912969C938E93D0
S11331801197118E108E8C9181508C9380914813DD
S1133190811152C0A485B585C681D781808591856A
S11331A09F838E83C085D185868197819D838C83FF
S11331B011968D919C9112979F012E5F3F4F82171C
S11331C0930731F48085918512969C938E93119781
S11331D0158614868C9181508C93A28D80915713FF
S11331E08A1710F4A09357138BE08A9FD0011124FF
S11331F0A756BC4E11960D90BC91A02DB783A68303
S113320016964D915C911797518740871696CD91EC
S1133210DC9117973D832C8317963C932E93169736
S1133220A28D8A9FD0011124A756BC4EB587A487CE
S11332308C918F5F8C931CC044E753E1DA011196A3
S1133240CD91DC911297D38BC28B8E819F81958B0C
S1133250848B8E819F81DC0115963C932E93149769
S11332603F832E83518F408FDA018C918F5F8C9333
S1133270928DE0910714F0910814828D891720F43F
S113328081E08093511301C080E0DF91CF910895D4
S1133290CF93DF93DC0170684D935D936D937C93C2
S11332A013971896ED91FC9119971A964D915C918C
S11332B01B9714968D919C91159716962D913C9180
S11332C01797EC013F832E8316968D919C91179747
S11332D014962D913C911597EC013D832C83EA01C2
S11332E089819A81A817B90731F416968D919C911A
S11332F017979A8389831B961C921E921A97DA0158
S11333008C9181508C93A485B585C681D7818085A5
S113331091859F838E83C085D185868197819D8386
S11333208C8311968D919C9112979F012E5F3F4F34
S11333308217930731F48085918512969C938E931E
S11333401197158614868C9181508C93A28D80914F
S113335057138A1710F4A09357138BE08A9FD00158
S11333601124A756BC4E11960D90BC91A02DB78385
S1133370A68316964D915C911797518740871696B0
S1133380CD91DC9117973D832C8317963C932E9314
S11333901697A28D8A9FD0011124A756BC4EB587DB
S11333A0A4878C918F5F8C93928DE0910714F09198
S11333B00814828D891718F481E080935113DF91EA
S11333C0CF9108950FB6F8940F9220915013FC01F9
S11333D02083409158135091591360915A1370915E
S11333E05B1341835283638374830F900FBE0895EC
S11333F020915013FC01208340915813509159138C
S113340060915A1370915B13418352836383748375
S113341008958F929F92AF92BF92CF92DF92EF92D4
S1133420FF920F931F93CF93DF93FB010FB6F89492
S11334300F92C0905813D0905913E0905A13F09003
S11334405B13DC0111960D911D912D913C91149704
S113345046015701801A910AA20AB30A4081518198
S1133460628173814F3FBFEF5B076B077B0739F1C5
S1133470EC01B881A0915013BA1759F0C016D106C7
S1133480E206F30630F0108211821282138281E088
S113349017C084169506A606B70658F448195909A4
S11334A06A097B094083518362837383A1DF80E0CF
S11334B007C0108211821282138281E001C080E071
S11334C00F900FBEDF91CF911F910F91FF90EF905E
S11334D0DF90CF90BF90AF909F908F90089581E040
S11334E080935113089580910714909108140895BE
S11334F080915613882331F080914813811104C0C0
S113350082E0089581E0089580E008950F931F9369
S1133510CF93DF93FC01892B09F477C0828DA091AE
S11335200714B09108145A969C91891708F063C047
S11335304685578560897189772394F0A091071493
S1133540B09108145A969C914AE050E060E070E013
S1133550491B51096109710946875787608B718B33
S1133560248535854BE0849FC001112487569C4EE9
S113357028173907B9F5EF018F010E5F1F4FC801F6
S11335800E944D0AE0910714F0910814E28DEA8F2D
S1133590809157138E1710F4E09357138BE08E9F8E
S11335A0F0011124E756FC4E0180F281E02DFF83E7
S11335B0EE832681378139872887A681B7811596BE
S11335C01C930E93149717830683EA8D8E9FF00144
S11335D01124E756FC4EFD87EC8780818F5F808342
S11335E081E016C0A0910714B09108145A968C91EA
S11335F0828F81E00DC095A5E0910714F091081425
S1133600828D981720F080E003C080E001C081E043
S1133610DF91CF911F910F9108950F931F93CF9333
S1133620DF93FC01892B09F449C086A5815086A744
S1133630228D95A5291709F443C0811143C0EF01D8
S11336408F010E5F1F4FC8010E944D0AEDA5EA8F3E
S11336508AE090E0A0E0B0E08E1B9109A109B109D5
S11336608E879F87A88BB98B809157138E1710F480
S1133670E09357138BE08E9FF0011124E756FC4E24
S11336800180F281E02DFF83EE8326813781398723
S11336902887A681B78115961C930E9314971783D8
S11336A00683EA8D8E9FF0011124E756FC4EFD87B8
S11336B0EC8780818F5F808381E005C080E003C058
S11336C080E001C080E0DF91CF911F910F910895B8
S11336D00F931F93CF93DF93FC01892B09F45AC0F6
S11336E085A5861708F4862F928D891709F452C090
S11336F026A5213009F04EC0828F46855785608902
S11337007189772364F04AE050E060E070E0481B80
S113371051096109710946875787608B718B24852C
S113372035854BE0949FC001112487569C4E281781
S1133730390781F5EF018F010E5F1F4FC8010E9409
S11337404D0AEA8D809157138E1710F4E0935713A6
S11337508BE08E9FF0011124E756FC4E0180F2812C
S1133760E02DFF83EE832681378139872887A68160
S1133770B78115961C930E93149717830683EA8DCD
S11337808E9FF0011124E756FC4EFD87EC87808163
S11337908F5F8083DF91CF911F910F910895CF9216
S11337A0DF92EF92FF92E0910714F091081466857E
S11337B0778580899189E0910714F0910814A0918C
S11337C00714B09108145A962C910F2EFAE0CF2EBC
S11337D0D12CE12CF12CF02DC21AD108E108F1080A
S11337E0C686D786E08AF18AFF90EF90DF90CF906B
S11337F008958091071490910814892B39F0E09171
S11338000714F091081486A58F5F86A7809107148A
S11338109091081408954F925F926F927F92AF92A5
S1133820BF92CF92DF92EF92FF920F931F93CF93A9
S1133830DF93280139010FB6F8940F92E091071431
S1133840F0910814C82FD0E0EC0FFD1F83A982303B
S113385079F1E0910714F0910814CE01880F991FB3
S1133860880F991FE80FF91F87A590A9A1A9B2A9EC
S11338704095509560957095482359236A237B237E
S113388047A750AB61AB72ABE0910714F0910814F9
S1133890EC0FFD1F81E083ABA114B104C104D1047A
S11338A039F041E0C601B5010E94CF130E94C90A54
S11338B00F900FBE0FB6F8940F92E114F104A1F02B
S11338C0E0910714F0910814CE01880F991F880F16
S11338D0991FE80FF91F87A590A9A1A9B2A9F7011B
S11338E080839183A283B383E0910714F091081439
S11338F0EC0FFD1F83A98230E9F4E0910714F091E5
S11339000814CE01880F991F880F991FE80FF91F1B
S113391087A590A9A1A9B2A94094509460947094E9
S1133920482259226A227B2247A650AA61AA72AA77
S113393081E001C080E02091071430910814C20F87
S1133940D31F1BAA0F900FBEDF91CF911F910F9130
S1133950FF90EF90DF90CF90BF90AF907F906F90EB
S11339605F904F9008958F929F92AF92BF92EF9283
S1133970FF920F93CF93DF93DC010FB6F8940F926D
S1133980E114F10489F0E62FF0E0EE0FFF1FEE0FD3
S1133990FF1FE80FF91F87A490A8A1A8B2A8F701F8
S11339A080829182A282B38270E0FD01E60FF71F4C
S11339B083A992E093AB023001F118F4013031F0A5
S11339C04DC0033079F10430D1F148C0660F771F40
S11339D0660F771FFD01E60FF71F87A490A8A1A823
S11339E0B2A8BA01A901482959296A297B2947A7FC
S11339F050AB61AB72AB01E034C0660F771F660F4A
S1133A00771FFD01E60FF71F47A550A961A972A909
S1133A104F5F5F4F6F4F7F4F47A750AB61AB72ABA8
S1133A2001E01FC0660F771F660F771FFD01E60FC9
S1133A30F71F27A730AB41AB52AB01E012C0823075
S1133A4079F0660F771F660F771FFD01E60FF71FEA
S1133A5027A730AB41AB52AB01E003C001E001C08A
S1133A6000E0813009F069C01C96ED91FC911D972E
S1133A701696CD91DC91179718968D919C91199774
S1133A809F838E831896CD91DC91199716968D910C
S1133A909C9117979D838C83818192819D012E5FD8
S1133AA03F4F8217930731F418968D919C91199783
S1133AB0928381831D961C921E921C978081815053
S1133AC080835A96EC915A97809157138E1710F46D
S1133AD0E09357138BE08E9FF0011124E756FC4EC0
S1133AE00180F281E02D1796FC93EE9316974681A0
S1133AF0578119965C934E931897C681D7813D835D
S1133B002C83378326835A96EC915A978E9FF00123
S1133B101124E756FC4E1D96FC93EE931C9780816E
S1133B208F5F80835A969C91E0910714F09108145A
S1133B30828D891710F40E94C90A0F900FBE802F3E
S1133B40DF91CF910F91FF90EF90BF90AF909F9036
S1133B508F9008958F929F92AF92BF92CF92DF92EF
S1133B60EF92FF920F93CF93DF93DC01E114F10402
S1133B7089F0E62FF0E0EE0FFF1FEE0FFF1FE80FB6
S1133B80F91F87A490A8A1A8B2A8F7018082918206
S1133B90A282B38270E0FD01E60FF71F93A982E0D1
S1133BA083AB023001F118F4013031F04DC0033021
S1133BB079F10430D1F148C0660F771F660F771F83
S1133BC0FD01E60FF71F87A490A8A1A8B2A8BA0127
S1133BD0A901482959296A297B2947A750AB61AB18
S1133BE072AB81E034C0660F771F660F771FFD014B
S1133BF0E60FF71F47A550A961A972A94F5F5F4F50
S1133C006F4F7F4F47A750AB61AB72AB81E01FC0D2
S1133C10660F771F660F771FFD01E60FF71F27A7B3
S1133C2030AB41AB52AB81E012C0923079F0660FF9
S1133C30771F660F771FFD01E60FF71F27A730AB2D
S1133C4041AB52AB81E003C081E001C080E0913020
S1133C5009F096C09091481391115FC01C96ED91A4
S1133C60FC911D971696CD91DC91179718962D917E
S1133C703C9119973F832E831896CD91DC91199727
S1133C8016962D913C9117973D832C834181528147
S1133C909D012E5F3F4F4217530731F418964D9103
S1133CA05C911997528341831D961C921E921C9716
S1133CB09081915090835A96EC915A979091571312
S1133CC09E1710F4E09357139BE09E9FF00111247C
S1133CD0E756FC4E0180F281E02D1796FC93EE939B
S1133CE016974681578119965C934E931897C6810F
S1133CF0D7813D832C83378326835A96EC915A9738
S1133D009E9FF0011124E756FC4E1D96FC93EE9302
S1133D101C9790819F5F908321C064E773E1FB014E
S1133D20C181D2815396DC93CE9352972E813F81E9
S1133D3055963C932E9354974E815F819D01225F4B
S1133D403F4FFA01358324833F832E8359967C9316
S1133D506E935897FB0190819F5F90835A962C91A4
S1133D60E0910714F0910814928D921748F4C1144D
S1133D70D10419F091E0F601908391E090935113EE
S1133D80DF91CF910F91FF90EF90DF90CF90BF9094
S1133D90AF909F908F900895009721F4809107141D
S1133DA0909108140FB6F8940F9270E0FC01E60F9E
S1133DB0F71F23A9223031F4FC01E60FF71F13AAE1
S1133DC081E001C080E00F900FBE0895DC01E09116
S1133DD01314F0911414808191E0811190E09C936C
S1133DE0911108C00780F085E02D60817181828186
S1133DF09381089560E070E0CB010895CF92DF9243
S1133E00EF92FF920F931F93FC01428353836483C9
S1133E107583938782870417150726073707C0F031
S1133E200C191D092E093F0986859785A089B1893A
S1133E30081719072A073B0700F5BF016E5F7F4F7C
S1133E4080911114909112140E94100A80E018C0FD
S1133E500C151D052E053F0528F44C155D056E0552
S1133E607F0568F4BF016E5F7F4F809113149091BA
S1133E7014140E94100A80E003C081E001C081E0B4
S1133E801F910F91FF90EF90DF90CF9008950FB6A0
S1133E90F8940F9280910F1490911014892BE9F4E7
S1133EA080E294E10E94FB0985E194E10E94FB0910
S1133EB080E294E1909314148093131485E194E1C7
S1133EC0909312148093111440E067E08AE00E94FA
S1133ED0BE0C9093101480930F140F900FBE08958E
S1133EE0EF92FF920F93D3DF80910F1490911014EF
S1133EF0892B91F00F2EFDE0EF2EF4E1FF2EF02D33
S1133F0003E020E030E040EC50E06EE674E089E548
S1133F1091E00E94711401C080E00F91FF90EF9036
S1133F2008958F929F92AF92BF92CF92DF92EF92B9
S1133F30FF920F931F93CF93DF93CDB7DEB72797ED
S1133F400FB6F894DEBF0FBECDBFE0910F14F09111
S1133F501014309781F169832A833B834C835D83FA
S1133F609F838E836630F4F4C3DA823069F400E010
S1133F70A7019601BE016F5F7F4F80910F1490914E
S1133F8010140E94E10C18C000E020E030E0A90108
S1133F90BE016F5F7F4F80910F14909110140E94A7
S1133FA0E10C0AC020E0A801BE016F5F7F4FCF0182
S1133FB00E94910D01C080E027960FB6F894DEBFF1
S1133FC00FBECDBFDF91CF911F910F91FF90EF9066
S1133FD0DF90CF90BF90AF909F908F9008958F9275
S1133FE09F92AF92BF92CF92DF92EF92FF920F9384
S1133FF01F93CF93DF933BC00780F085E02D808033
S11340009180A280B380C085D1858E010E5F1F4F41
S1134010C8010E944D0AEC89FD89CE0119958E894B
S113402082FF25C08E859F85A889B989880D991D31
S1134030AA1DBB1D88169906AA06BB0670F48A83BE
S11340409B83AC83BD83DB87CA87B801809113143B
S1134050909114140E94100A0AC0C12CD12C76012C
S113406000E010E0A501940160E0CE015ADFE09188
S11340701314F091141480818111BECF8091111416
S1134080909112149093141480931314F0931214B7
S1134090E0931114DF91CF911F910F91FF90EF9056
S11340A0DF90CF90BF90AF909F908F900895CF9264
S11340B0DF92EF92FF92CF93DF93EC010E94FB1407
S11340C06B017C018091091490910A14A0910B1446
S11340D0B0910C14C816D906EA06FB0620F47FDF5B
S11340E081E0888301C01882C0920914D0920A1416
S11340F0E0920B14F0920C14C701B601DF91CF913A
S1134100FF90EF90DF90CF9008954F925F926F925F
S11341107F928F929F92AF92BF92CF92DF92EF9253
S1134120FF920F931F93CF93DF934B015C012901FF
S11341303A01E0911314F09114140780F085E02DF6
S1134140C085D185CE0102960E944D0A8E8982FFD8
S11341501BC04E855F8568897989480D591D6A1D84
S11341607B1D7501640193018201CE0147DE882322
S113417069F0C12CD12C760100E010E0A501940176
S113418060E0CE01CEDE02C08E7F8E8BEC89FD898D
S1134190CE011995DF91CF911F910F91FF90EF9070
S11341A0DF90CF90BF90AF909F908F907F906F9053
S11341B05F904F9008958F929F92AF92BF92CF924B
S11341C0DF92EF92FF921F93CF93DF931F92CDB7AD
S11341D0DEB76B017C01142F0E94F514CE01019609
S11341E066DF4B015C01898181112DC011110DC065
S11341F08C149D04AE04BF0440F00E943516A50142
S11342009401C701B60181DF20C0112341F0E09180
S11342101114F0911214808111E0811110E0B701A2
S1134220A601481959096A097B09212F80910F14A5
S1134230909110140E940C0F0E943516811105C034
S11342400E94C90A02C00E9435160F90DF91CF91D7
S11342501F91FF90EF90DF90CF90BF90AF909F9011
S11342608F900895AF92BF92CF92DF92EF92FF9218
S11342700F931F93CF93DF93CDB7DEB728970FB675
S1134280F894DEBF0FBECDBF82C0898188230CF4B1
S11342907EC0AE80BF80D5011C968D919C911D97E8
S11342A0892B21F0C50102960E944D0ACE01089681
S11342B0FEDE8B019C01E9810E2E000CFF0BEA301F
S11342C0F10508F064C08827EE58FF4F8F4F0C9417
S11342D08C35F50186898160868BCA80DB80EC8011
S11342E0FD8046855785608971894C0D5D1D6E1D65
S11342F07F1DC50183DD882309F449C0D501549687
S1134300ED91FC915597C5011995F501868982FFB8
S11343103EC04A815B816C817D8186859785A089B9
S1134320B1899A01AB01280F391F4A1F5B1FC12CA9
S1134330D12C760100E010E060E0C501F2DD27C079
S1134340D50156968C9156978E7F56968C931FC0A6
S1134350F50186898160868B4A815B816C817D81D0
S113436046875787608B718B400F511F621F731FE5
S113437068017901C50142DD0AC0F501868981FD24
S113438004C0C5010E94BE0902C08E7F868B20E056
S113439030E0A901BE016F5F7F4F80910F149091AF
S11343A010140E94CC0D811170CF28960FB6F8948A
S11343B0DEBF0FBECDBFDF91CF911F910F91FF9054
S11343C0EF90DF90CF90BF90AF900895089584B19F
S11343D0806884B985B1806885B9089583B180689F
S11343E083B90895F4DF2FEF80E792E021508040F5
S11343F09040E1F700C00000F1DFF5CFE8DF2FEFD8
S113440087EA91E6215080409040E1F700C0000027
S1134410E5DFF5CF60912D1470912E1421E030E08A
S113442040E050E083E090E00E94710590936615AF
S11344308093651560912D1470912E1422E030E064
S113444040E050E083E090E00E94F60190936A150A
S11344508093691560912D1470912E1424E030E03E
S113446040E050E083E00E94FA0290936815809344
S1134470671508950E94A20386E794E09F938F93A3
S11344800E94B003C7DF4091671550916815609191
S1134490691570916A1580916515909166150E9451
S11344A0D80360912B1470912C1484E090E00E9446
S11344B03F0282E090E00E942C070F900F90089535
S11344C00E94610790932E1480932D1480E00E9423
S11344D0A82D69D741E060E070E08CE290E00E9492
S11344E06B1090932C1480932B14BC0181E043D364
S11344F0C1CF0895E5DF0E94BD14FFCF04D06894B6
S1134500B11150C0089533D088F09F5790F0B92F5F
S11345109927B751A0F0D1F0660F771F881F991F14
S11345201AF0BA95C9F712C0B13081F03AD0B1E0AF
S1134530089537C0672F782F8827B85F39F0B93FBF
S1134540CCF3869577956795B395D9F73EF4909516
S11345508095709561957F4F8F4F9F4F089557FDBC
S11345609058440F551F59F05F3F71F04795880FDD
S113457097FB991F61F09F3F79F087950895121674
S113458013061406551FF2CF4695F1DF08C0161620
S113459017061806991FF1CF8695710561050894D1
S11345A00895E894BB2766277727CB0197F90895E8
S11345B0FA01DC01AA0FBB1F9B01AC01BF5728F411
S11345C022273327442750781FC0B75188F4AB2FD4
S11345D00024469537952795011CA395D2F3002016
S11345E069F0220F331F441FB395DAF30DD076C060
S11345F061307105A0E88A07B94630F49B01AC012B
S11346006627772788279078309621F02083318396
S11346104283538308950BD0DDC0CED028F0D3D08D
S113462018F0952309F0BFC0C4C01124BBCF97DF95
S1134630A0F3959FD1F3950F50E0551F629FF001B1
S1134640729FBB27F00DB11D639FAA27F00DB11D0A
S1134650AA1F649F6627B00DA11D661F829F222793
S1134660B00DA11D621F739FB00DA11D621F839F1A
S1134670A00D611D221F749F3327A00D611D231FF0
S1134680849F600D211D822F762F6A2F11249F573E
S113469050408AF0E1F088234AF0EE0FFF1FBB1F61
S11346A0661F771F881F91505040A9F79E3F510500
S11346B070F079C077CF5F3FECF3983EDCF38695DA
S11346C077956795B795F795E7959F5FC1F7FE2BAB
S11346D0880F911D9695879597F908955058BB2793
S11346E0AA270ED077C068D030F06DD020F031F416
S11346F09F3F11F41EF45DC00EF4E095E7FB53C038
S1134700E92F2DDF80F3BA17620773078407950733
S113471018F071F49EF545CF0EF4E0950B2EBA2FE8
S1134720A02D0B01B90190010C01CA01A0011124B3
S1134730FF27591B99F0593F50F4503E68F11A165F
S1134740F040A22F232F342F4427585FF3CF4695F0
S113475037952795A795F0405395C9F77EF41F1612
S1134760BA0B620B730B840BBAF09150A1F0FF0FDC
S1134770BB1F661F771F881FC2F70EC0BA0F621FC8
S1134780731F841F48F4879577956795B795F795B8
S11347909E3F08F0B3CF9395880F08F09927EE0F4A
S11347A097958795089597F99F6780E870E060E092
S11347B008959FEF80EC089500240A9416161706B6
S11347C018060906089500240A94121613061406FE
S11347D005060895092E0394000C11F4882352F061
S11347E0BB0F40F4BF2B11F460FF04C06F5F7F4F19
S11347F08F4F9F4F08956530F1F4FA0180818F73D4
S113480090E0982F88272181822B90930A0280932D
S113481009028281F0E48F9FC0011124FA012381EF
S113482026952695822B909308028093070281E0B7
S113483080932F140895643051F080E090E49093B5
S113484008028093070290930A0280930902089554
S11348500F931F930BEF13E220E034E244EF50E098
S113486060E087E20E94622F9093311480933014A9
S113487021E0892B09F020E0822F1F910F910895E8
S11348808091301490913114009759F040E060E029
S113489070E00E94B32F843031F410922F1480E022
S11348A0089582E0089583E00895809130149091F2
S11348B03114009739F064E00E94FF2F853021F015
S11348C083E0089582E0089580E0089560910902EC
S11348D070910A0280E090E00E94053520E030E00B
S11348E048EC52E498DE20E038EF4FE756E40C94AD
S11348F094340895EBDF20E030E040E251E48BDEB5
S113490002DECB010895609107027091080280E0F5
S113491090E00E94053520E030E045E253E47BDE80
S113492020E038EF4FE756E40E94943420E030E072
S113493040E252E4D3CE08950F931F93CF93DF93B5
S11349401F921F92CDB7DEB78C0119822DC0E09162
S11349506914EC3250F481E08E0F80936914F0E016
S1134960E556FB4E8A81808302C0109269148A81C5
S11349708A30D1F44091691450E0FA01E756FB4EB5
S11349801082415051099E012F5F3F4F6BE974E142
S113499080916C1490916D140E94921189818111FF
S11349A00E94C90A10926914BE016E5F7F4FC8014C
S11349B039D6882361F20F900F90DF91CF911F9128
S11349C00F9108950F931F93CF93DF938C01EB0105
S11349D080916C1490916D140E949D10B80182E333
S11349E094E10E940538209779F0E2E3F4E1019024
S11349F00020E9F7319780E290E091838083BE0143
S1134A0082E394E10E94FA37E2E3F4E1DF010D90DE
S1134A100020E9F711978DE09AE011969C938E930C
S1134A2012961C9201900020E9F73197E253F44169
S1134A30AE2F82E394E1AC016A2F80916E149091C1
S1134A406F149BD5811111C008E215E020E030E01D
S1134A504DE250E065EF74E180916C1490916D1417
S1134A600E94D61185EF94E102C080E090E0DF91CE
S1134A70CF911F910F9108952F923F924F925F9281
S1134A806F927F928F929F92AF92BF92CF92DF925A
S1134A90EF92FF920F931F93CF93DF935C01FC017E
S1134AA001900020E9F731976F01C81AD90A5C2CEC
S1134AB00F2EFEE18F2EF7E09F2EF02DE12CF12C2E
S1134AC04C2C3701F40101811281E8010990002086
S1134AD0E9F72197C01BD10B3C2EF9E0CF16D10486
S1134AE058F0F4012080FEE02F1206C0B801C50181
S1134AF00E94D537892B09F5442D351408F44C2F21
S1134B0050E0B801C5010E940C38892B49F4F30127
S1134B10EE0FFF1FE60DF71DE25EF84F20800DC07B
S1134B208FEFE81AF80AE3E08E0E911CF1E1EF161C
S1134B30F10439F66894222424F8822DDF91CF9170
S1134B401F910F91FF90EF90DF90CF90BF90AF90A7
S1134B509F908F907F906F905F904F903F902F9099
S1134B60089530DF89CF089580916C1490916D146D
S1134B700C949D1008958F929F92AF92CF92EF92D2
S1134B800F931F93CF93C82F8B0141E060E070E037
S1134B9088EC90E00E946B1090936D1480936C14D9
S1134BA010936B1400936A140F2EFCE98F2EF4E219
S1134BB09F2EF02D6894AA24A6F86894CC24C6F8F5
S1134BC0E12C00E023E040E051EE60E070E08C2F47
S1134BD006D490936F1480936E14E7E0F1E0808123
S1134BE080618083CF911F910F91EF90CF90AF9010
S1134BF09F908F900895882331F0E8E0F1E0808160
S1134C008F7E80830895E8E0F1E080818061808375
S1134C10089560E070E084EA94E0D4DEE5EFF4E126
S1134C2001900020E9F73197E55FF44181E0759741
S1134C3008F080E00895CF93DF93EC0160E070E02A
S1134C4085EB94E0BFDEE5EFF4E101900020E9F7A5
S1134C50E650F54139F465EF74E1CE010E94053860
S1134C6080E002C0188281E0DF91CF910895FC01B9
S1134C7001900020E9F79F012151310928173907D4
S1134C8029F4BC0183EE94E06CCF089589E0089583
S1134C90FC0101900020E9F79F01215131092817F7
S1134CA0390729F4BC0182EF94E05BCF089589E0D1
S1134CB00895FC0101900020E9F79F012152310978
S1134CC02817390729F4BC0181E095E04ACF0895FB
S1134CD089E0089560E070E080E495E042CF0895B3
S1134CE00F931F93E82FF0E0EE0FFF1FE65EF84FDF
S1134CF06081718189E495E034DF811114C008E298
S1134D0015E020E030E04DE250E065EF74E1809181
S1134D106C1490916D140E94D611882321F085EFB4
S1134D2094E1AADE03C085EF94E1A6DE1F910F9102
S1134D3008950F931F93CF93DF931F92CDB7DEB7E0
S1134D40DB0111969C911197953108F0B4C0992319
S1134D5081F160E070E0272F30E0462F50E0FD0144
S1134D60E40FF51F928192959F709A3010F0995C30
S1134D7001C0905DF901EA57FB4E90832F5F3F4FCE
S1134D80FD01E40FF51F92819F70492F50E04A30D6
S1134D90510514F0995C01C0905DF901EA57FB4E8E
S1134DA090837E5F6F5F11969C911197691798F2BB
S1134DB001C070E0E72FF0E0EA57FB4E10824C91FF
S1134DC0811103C082E595E002C084E595E026E800
S1134DD034E13F932F931F924F939F938F9388E5D2
S1134DE095E09F938F9388EC94E19F938F930E9417
S1134DF0AE3860E070E088EC94E1B3DE0FB6F8946E
S1134E00DEBF0FBECDBF811159C008E215E020E01E
S1134E1030E04DE250E065EF74E180916C149091C4
S1134E206D140E94D611882309F447C085EF94E1DC
S1134E3023DE8E3009F042C087E0898380916A14B2
S1134E4090916B14892BA9F1BE016F5F7F4F85EFA1
S1134E5094E168D180937014E981F0E0EB50FB4E4B
S1134E60DF010D900020E9F71197AE1BBF0BAA23B9
S1134E7091F0BB27CD0101979C0112F42F5F3F4FA6
S1134E803595279520937114AF014F5F5F4F64E10F
S1134E9082E794E173D101E010E020E030E046E1E4
S1134EA050E060E774E180916A1490916B140E9461
S1134EB0CD108EE003C084E101C080E00F90DF914B
S1134EC0CF911F910F910895813019F068E675E034
S1134ED002C061E476E08CE695E043CE08959F93AA
S1134EE08F938DE995E09F938F9388EC94E19F9342
S1134EF08F930E94AE3860E070E088EC94E131DE7C
S1134F000F900F900F900F900F900F9008952F9285
S1134F103F924F925F926F927F928F929F92AF9245
S1134F20BF92CF92DF92EF92FF920F931F93CF9392
S1134F30DF93CDB7DEB7A0970FB6F894DEBF0FBEF0
S1134F40CDBF6AEC75E086ED95E03CDD95DD811121
S1134F50A3C080E2E2E2F2E0DE01119601900D923C
S1134F608A95E1F79E012F5F3F4F6901E12CF12CF7
S1134F700F2EF2EEAF2EF5E0BF2EF02D08EC14E16B
S1134F800F2EFBEF4F2EF5E05F2EF02D0F2EF2E1EA
S1134F908F2EF6E09F2EF02D0F2EFCE26F2EF6E002
S1134FA07F2EF02D3E2C2F2CFF92EF92BF92AF92CA
S1134FB01F930F930E94AE3860E070E0C80102DDD9
S1134FC05BDD0F900F900F900F900F900F90811159
S1134FD063C032E03E15E8F4F60183818F93828149
S1134FE08F9381818F9380818F93FF92EF925F9251
S1134FF04F921F930F930E94AE3860E070E0C80197
S1135000E1DC3ADD0FB6F894DEBF0FBECDBF8111EF
S113501043C02F923F929F928F921F930F930E94AF
S1135020AE3860E070E0C801CDDC26DD0F900F9053
S11350300F900F900F900F9081112EC02F923F92DE
S11350407F926F921F930F930E94AE3860E070E0DE
S1135050C801B8DC11DD0F900F900F900F900F90E6
S11350600F90811119C03FEFE31AF30A84E0C80ED0
S1135070D11C98E0E916F10409F094CF60E070E0E7
S113508084E496E09FDCF8DC811106C060E070E007
S113509085E596E097DCF0DCA0960FB6F894DEBFC9
S11350A00FBECDBFDF91CF911F910F91FF90EF9075
S11350B0DF90CF90BF90AF909F908F907F906F9034
S11350C05F904F903F902F900895EF92FF920F932F
S11350D01F93CF93DF93EC018B017A0181E0F4DE1F
S11350E081110DC0CE01D4DD811109C0C801E1DDFB
S11350F0811105C0C701BBDD811101C0EBDDDF916A
S1135100CF911F910F91FF90EF90089590E0FC01D3
S1135110EE0FFF1F8E0F9F1FFC01E25EF84F81818F
S113512092810895DC01009729F1FB012081FC01A3
S113513001900020E9F73197E81BF90B822F90E0EA
S1135140E817F907C8F080E008C0880F382F330F3C
S1135150330F830F8053890F2F5FFD01E20FF11D81
S1135160908130ED390F3A3010F49111EECFFB01FC
S11351702083089580E0089580E008950F931F939D
S1135180CF93DF93DC01EA012097E1F1FA0101906A
S11351900020E9F73197E41BF50B329710F532C084
S11351A08D01040F151F30E0AE01420F531FFA01A9
S11351B09081913428F09753592F5295507F03C012
S11351C0592F5295507F2C0F3D1FF9019181913435
S11351D010F0975301C09053950FF80190838F5F9F
S11351E001C080E0282F220F482F50E0FE010190DB
S11351F00020E9F73197EC1BFD0B4E175F0710F405
S11352008613CECFDF91CF911F910F910895809196
S11352102515860F8093251590912815913079F0E6
S113522028F09230A9F0933019F108956F3F09F0F6
S113523048C01092251581E080932815089566389A
S113524009F03FC01092241582E080932815089538
S1135250E091241581E08E0F80932415F0E0EE5D3B
S1135260FA4E6083823069F583E0809328150895AF
S11352709091241521E0290F20932415963009F5E7
S113528081110EC0E2E2F5E1808190E0982F882739
S11352902181820F911D90932A158093291504C0B2
S11352A010922A151092291510922815E0912615AE
S11352B0F0912715309729F08091291590912A159E
S11352C0199508958F929F92AF92CF92EF920F9378
S11352D00F2EF7E08F2EF9E29F2EF02D6894AA246A
S11352E0A4F86894CC24C4F8E12C00E023E040E85E
S11352F055E260E070E073D090932C1580932B15E9
S11353000F91EF90CF90AF909F908F9008959093CE
S11353102715809326150895CF93DF93CDB7DEB775
S113532029970FB6F894DEBF0FBECDBF89E0E2E443
S1135330F2E09E012F5F3F4FD90101900D928A95B3
S1135340E1F710922A151092291580912B1590914E
S11353502C15009731F0422F532F69E00ED180E0D5
S113536001C082E029960FB6F894DEBF0FBECDBF10
S1135370DF91CF91089565360CF064E66C390CF436
S11353806CE996EF6902B00111246854744F8111DD
S113539005C07093290160932801089570932B012F
S11353A060932A010895EAE0F1E0808188618083B6
S11353B08FE39CE9909327018093260160E080E0CD
S11353C0DADF60E081E0D7DFE0E2F1E08081826A49
S11353D08083E1E2F1E080818A61808308952F92E5
S11353E03F924F925F926F927F928F929F92AF9271
S11353F0CF92EF92FF920F931F93CF93DF93CDB78A
S1135400DEB7F82E2A013B0188E090E00E94BD350A
S11354108C018F2D90E0FC01EE0FFF1FE35DFA4E2F
S1135420118300830115110509F46AC0880F991FBF
S1135430FC01E55FFD4F80819181D8018D939C93A0
S11354408C2D90E0880F991F880F991F0E94BD35FD
S11354501C0186E090E00E94BD357C014C2DB10119
S1135460BED6F801F582E4828A2D90E0880F991F58
S1135470880F991F0E94BD351C0186E090E00E94B0
S1135480BD357C014A2DB101AAD6D8011396FC92F0
S1135490EE92129717969C928E921697FFB6F894F6
S11354A0ED91FC91119736978081826080838D9075
S11354B09C90C301B2010E94053520E030E040E039
S11354C051E4A9D89B01AC0160E074E284E79BE459
S11354D00E94943420E030E040E85FE3FFD813D822
S11354E0F40132976083D801ED91FC9111973597BF
S11354F088E98083ED91FC91349786E08083FFBE38
S1135500C801DF91CF911F910F91FF90EF90CF9041
S1135510AF909F908F907F906F905F904F903F904F
S11355202F900895CF93DF93DC01892B01F112961C
S1135530ED91FC911397938182812581981B92238D
S113554084819817B1F0838126952823C081D18165
S1135550C20FD11D68838F5F958189238383ED9169
S1135560FC91359780818062808380E003C081E074
S113557001C082E0DF91CF910895EF92FF920F93E3
S11355801F93CF93DF937C01009709F441C0DC01A2
S11355901296ED91FC91139793818281981B8581DA
S11355A098238481891B8617A8F1662341F1842FEF
S11355B0952FDC016150462F50E04F5F5F4F480F3D
S11355C0591FE701EA81FB81938182812581981B20
S11355D092238481981779F08C91938126952923BD
S11355E0608171818B01020F111DE80188839F5F27
S11355F08581982393831196A417B50711F7D701D2
S1135600ED91FC91359780818062808380E003C0B6
S113561081E001C082E0DF91CF911F910F91FF9053
S1135620EF9008950097D1F0DC011496ED91FC9170
S1135630159793818281981799F092818581869537
S11356408923A081B181A80FB11D8C91DB018C93BA
S11356509F5F85819823928380E0089581E0089577
S113566083E008951F920F920FB60F9211240BB688
S11356700F922F933F934F935F936F937F938F93E7
S11356809F93AF93BF93CF93DF93EF93FF93A09137
S11356902D15B0912E15109711F16091C600149636
S11356A0ED91FC911597938182812581981B92231A
S11356B08481981761F0838126952823C081D18144
S11356C0C20FD11D68838F5F9581892383831696CA
S11356D0ED91FC911797309711F0CD011995FF9139
S11356E0EF91DF91CF91BF91AF919F918F917F9176
S11356F06F915F914F913F912F910F900BBE0F903F
S11357000FBE0F901F9018951F920F920FB60F9215
S113571011240BB60F922F938F939F93AF93BF9344
S1135720EF93FF93E0912D15F0912E153097B9F07A
S11357300280F381E02D938182819817B1F09281E8
S11357408581282F26952923A081B181A20FB11D1F
S11357502C919F5F892382832093C6000BC0E1ECC8
S1135760F0E080818F7D808305C0E1ECF0E08081F2
S11357708F7D8083FF91EF91BF91AF919F918F9126
S11357802F910F900BBE0F900FBE0F901F90189586
S11357901F920F920FB60F9211240BB60F922F93F4
S11357A03F934F935F936F937F938F939F93AF93A5
S11357B0BF93CF93DF93EF93FF93A0912F15B091F5
S11357C03015109711F16091CE001496ED91FC9173
S11357D01597938182812581981B92238481981740
S11357E061F0838126952823C081D181C20FD11D08
S11357F068838F5F9581892383831696ED91FC914D
S11358001797309711F0CD011995FF91EF91DF9122
S1135810CF91BF91AF919F918F917F916F915F9144
S11358204F913F912F910F900BBE0F900FBE0F9091
S11358301F9018951F920F920FB60F9211240BB65A
S11358400F922F938F939F93AF93BF93EF93FF93F5
S1135850E0912F15F09130153097B9F00280F38163
S1135860E02D938182819817B1F092818581282F50
S113587026952923A081B181A20FB11D2C919F5F90
S1135880892382832093CE000BC0E9ECF0E0808171
S11358908F7D808305C0E9ECF0E080818F7D80837B
S11358A0FF91EF91BF91AF919F918F912F910F90A5
S11358B00BBE0F900FBE0F901F9018951F920F9262
S11358C00FB60F9211240BB60F922F933F934F9361
S11358D05F936F937F938F939F93AF93BF93CF9374
S11358E0DF93EF93FF93A0913115B0913215109788
S11358F011F16091D6001496ED91FC911597938166
S113590082812581981B92238481981761F0838179
S113591026952823C081D181C20FD11D68838F5F52
S11359209581892383831696ED91FC91179730977F
S113593011F0CD011995FF91EF91DF91CF91BF91B6
S1135940AF919F918F917F916F915F914F913F9113
S11359502F910F900BBE0F900FBE0F901F901895B4
S11359601F920F920FB60F9211240BB60F922F9322
S11359708F939F93AF93BF93EF93FF93E091311570
S1135980F09132153097B9F00280F381E02D9381C4
S113599082819817B1F092818581282F2695292339
S11359A0A081B181A20FB11D2C919F5F89238283B5
S11359B02093D6000BC0E1EDF0E080818F7D8083E1
S11359C005C0E1EDF0E080818F7D8083FF91EF9150
S11359D0BF91AF919F918F912F910F900BBE0F901C
S11359E00FBE0F901F9018951F920F920FB60F9233
S11359F011240BB60F922F933F934F935F936F93A2
S1135A007F938F939F93AF93BF93CF93DF93EF9342
S1135A10FF93A0913315B0913415109711F1609153
S1135A2036011496ED91FC9115979381828125811D
S1135A30981B92238481981761F0838126952823EB
S1135A40C081D181C20FD11D68838F5F9581892365
S1135A5083831696ED91FC911797309711F0CD0141
S1135A601995FF91EF91DF91CF91BF91AF919F91E4
S1135A708F917F916F915F914F913F912F910F90F3
S1135A800BBE0F900FBE0F901F9018951F920F9290
S1135A900FB60F9211240BB60F922F938F939F93EF
S1135AA0AF93BF93EF93FF93E0913315F0913415C7
S1135AB03097B9F00280F381E02D938182819817A9
S1135AC0B1F092818581282F26952923A081B18167
S1135AD0A20FB11D2C919F5F8923828320933601ED
S1135AE00BC0E1E3F1E080818F7D808305C0E1E3B9
S1135AF0F1E080818F7D8083FF91EF91BF91AF9121
S1135B009F918F912F910F900BBE0F900FBE0F900E
S1135B101F901895CF93DF931F92CDB7DEB7BE01C8
S1135B206F5F7F4F80913515909136157BDD811124
S1135B30F6CF898190E00F90DF91CF910895682F7F
S1135B408091351590913615EDDC80E090E0089554
S1135B508F929F92AF92CF92EF920F93812C912CC0
S1135B606894AA24A7F86894CC24C7F8E12C00E030
S1135B7023E040E051EE60E070E031DC90933615B4
S1135B8080933515EFE6F5E183E192E0918380831C
S1135B90938382830F91EF90CF90AF909F908F90DB
S1135BA00895E0913F15F0914015309709F019954B
S1135BB008956450623008F03BC020913E152230B5
S1135BC079F018F4213031F030C0233081F02430E2
S1135BD0A1F02BC022E020933E1561E010C208958D
S1135BE0FA01808180933B1582E0DBCF089524E0A5
S1135BF020933E1564E003C20895FA01818190E088
S1135C00982F88272081822B90933A1580933915F9
S1135C10838190E0982F88272281822B90933815D6
S1135C208093371581E0BDCF089580E0BACF089501
S1135C3010923E1586E0B5CF08952091411530911C
S1135C4042152115310541F0462FBC01C9018BD104
S1135C50823021F080E0089587E0089585E008957A
S1135C600F931F939093401580933F1509ED1DE208
S1135C7020E034E244EF50E060E089E223D19093E5
S1135C80421580934115892B11F080E001C088E012
S1135C901F910F910895CF93DF931F921F92CDB759
S1135CA0DEB780EA898383E08A8310923E1562E03E
S1135CB0CE010196C2DF0F900F90DF91CF9108952E
S1135CC0CF93DF931F92CDB7DEB784EB898383E054
S1135CD080933E1561E0CE010196AFDF0F90DF9116
S1135CE0CF9108952F923F924F925F926F927F923D
