:10000000A6C10000C5C10000C3C10000C1C10000FD
:10001000BFC10000BDC10000BBC10000B9C10000EC
:10002000B7C10000B5C10000B3C10000B1C10000FC
:100030009AC40000ADC10000ABC10000A9C100001E
:10004000A7C10000A5C10000A3C10000A1C100001C
:100050009FC100000C9414149BC1000099C10000C2
:100060000C94301A0C940C160C945E1691C100007E
:100070008FC100008DC100008BC1000089C100004C
:1000800087C1000085C1000083C1000081C100005C
:100090000C94A2160C94F4167BC100000C94AF1BB8
:1000A00077C1000075C1000073C1000071C100007C
:1000B0006FC100006DC100006BC1000069C100008C
:1000C00067C1000065C1000063C100000C943817CF
:1000D0000C948A175DC100000C94CE170C94201864
:1000E00057C100006C116C116C11A311AB11C01140
:1000F0006C116C11A311AB11D11B411C411C411C93
:10010000411C411C411C411CD11B411C411C411C78
:10011000411C411C411C411CD31B411C411C411C66
:10012000411C411C411C411C411C411C411C411CE7
:10013000411C411C411C411CD31B411C411C411C46
:10014000411C411C411C411C411C411C411C411CC7
:10015000411C411C411C411C3D1C411C411C411CBB
:10016000411C411C411C411C081C411C411C411CE0
:10017000411C411C411C411C411C411C411C411C97
:10018000411C411C411C411CFC1B411C411C411CCD
:10019000411C411C411C411C201C07634236B79B7B
:1001A000D8A71A39685618AEBAAB558C1D3CB7CCD7
:1001B0005763BD6DEDFD753EF6177231BF0000004F
:1001C000803F08000000BE922449123EABAAAA2A32
:1001D000BECDCCCC4C3E00000080BEABAAAAAA3E4D
:1001E00000000000BF000000803F00000000000889
:1001F0004178D3BB4387D1133D190E3CC3BD428226
:10020000AD2B3E68EC8276BED98FE1A93E4C80EFE3
:10021000FFBE01C4FF7F3F00000000006E616E0062
:10022000696E660000407A10F35A00A0724E1809F9
:100230000010A5D4E80000E87648170000E40B544D
:10024000020000CA9A3B000000E1F505000080961C
:100250009800000040420F000000A086010000004E
:10026000102700000000E803000000006400000008
:1002700000000A00000000000100000000002C76D1
:10028000D888DC674F0823DFC1DFAE59E1B1B796EC
:10029000E5E3E453C63AE651997696E8E6C2842649
:1002A000EB898C9B62ED407C6FFCEFBC9C9F40F225
:1002B000BAA56FA5F490055A2AF75C936B6CF967A1
:1002C0006DC11BFCE0E40D47FEF520E6B500D0ED66
:1002D000902E0300943577050080841E08000020CE
:1002E0004E0A000000C80C333333330F986E12836C
:1002F0001141EF8D2114893BE65516CFFEE6DB1840
:10030000D1844B381BF77C1D901DA4BBE424203204
:1003100084725E228100C9F124ECA1E53D2731D72A
:100320008091D90C823008F059D20E94E911F7CFA0
:10033000CF93DF931F92CDB7DEB7CE0101960E9417
:10034000EF0E49810E94E2100E943511F6CF112470
:100350001FBECFEFD1E2DEBFCDBF00E00CBF12E089
:10036000A0E0B2E0E6EBFDE400E00BBF02C00790C6
:100370000D92A43BB107D9F72DE0A4EBB2E001C088
:100380001D92AA3CB207E1F70E9490120C94D92664
:1003900037CEE0ECF2E0A4ECB2E0B183A0831382AC
:1003A0001282E4E8FCE0F093BF02E093BE02138205
:1003B00012821182108280EC99E013969C938E93A6
:1003C0001297ED93FC939093BB028093BA029093A3
:1003D000BD028093BC0280E090E89093B5028093C8
:1003E000B4020895CF93DF93EC01A0ECB2E001C01A
:1003F000DF01ED91FC911197EC17FD07C8F3129600
:100400008D919C9113979D01280F391FC217D30717
:1004100049F42A813B81820F931F13969C938E93FC
:100420001297ED018A819B819E01280F391FE217E7
:10043000F307C1F42091BE023091BF02E217F30727
:1004400071F022813381820F931F9B838A83ED9108
:10045000FC911197808191819983888305C03983AC
:10046000288302C0F983E883CA17DB0711F0CD9314
:10047000DC93DF91CF910895EF92FF920F931F933A
:10048000CF93DF938C01BFD78091BE029091BF02C2
:10049000892B09F47EDF8091B4029091B50280230C
:1004A0009123892B09F076C00115110549F0C80187
:1004B00004960817190718F000E010E001C08C013D
:1004C0000115110509F469C08091BC029091BD022B
:1004D0008017910708F464C0C091C002D091C10296
:1004E000E0ECF2E002C0FE01EC018A819B81801702
:1004F000910720F4888199810097A9F78091BE0225
:100500009091BF02C817D90709F44DC0E080F1806F
:1005100084E0E80EF11C88819981918380832A818F
:100520003B81201B310B2930310548F0CE01800F73
:10053000911FFC01338322831B830A8353DF2A81AB
:100540003B818091BC029091BD02821B930B9093E2
:10055000BD028093BC024091BA025091BB02841745
:10056000950720F49093BB028093BA028091B40265
:100570009091B502282B392B3B832A83198218824C
:100580008091B8029091B90201969093B90280933C
:10059000B8020BC0E12CF12C08C0E12CF12C05C0F5
:1005A000E12CF12C02C0E12CF12C0E94430BE11450
:1005B000F10411F40E94F511C701DF91CF911F9151
:1005C0000F91FF90EF9008950F931F93CF93DF93B8
:1005D000009789F1EC0124974A815B812091B40254
:1005E0003091B502BA0162237323672B21F1688130
:1005F0007981672B01F520953095242335233B83A2
:100600002A8301D78A819B812091BC023091BD024F
:10061000820F931F9093BD028093BC02CE01E2DE55
:100620008091B6029091B70201969093B7028093A1
:10063000B6020E94430BDF91CF911F910F91089555
:10064000FC010396928381834FEF5FEFBA014383EE
:10065000548365837683908787839287818710820E
:100660000895FC011386128608950F931F93CF936C
:10067000DF93EB01088119812A813B810F3F4FEF06
:1006800014072407340721F4FC01A185B28511C0A9
:10069000DC01139601C0DF011496ED91FC911597D2
:1006A000408151816281738104171507260737073E
:1006B00090F71496ED91FC911597FD83EC83D78309
:1006C000C683BF83AE831596DC93CE9314979B8726
:1006D0008A87FC0120812F5F2083DF91CF911F91BA
:1006E0000F910895CF93DF93FC01A285B385C48158
:1006F000D581868197819F838E83C681D7818481AE
:1007000095819D838C8311968D919C911297E8170A
:10071000F90731F48681978112969C938E931197F5
:10072000138612868C9181508C938C91DF91CF919E
:100730000895A89590EC88E10FB6F894A895809359
:1007400060000FBE909360000895FC0160833197B4
:1007500070833197108231971082319720E820837F
:1007600031971082319710823197108277974083AA
:100770003197508386970895DCDFA091470DB091A3
:10078000480DCD91CDBFDD91DEBFFF91EF91DF919F
:10079000CF91BF91AF919F918F917F916F915F9119
:1007A0004F913F912F911F910F91FF90EF90DF900C
:1007B000CF90BF90AF909F908F907F906F905F9001
:1007C0004F903F902F901F900F900CBE0F900BBE3C
:1007D0000F900FBE0F90089581E008950F920FB60D
:1007E000F8940F920BB60F920CB60F921F92112431
:1007F0002F923F924F925F926F927F928F929F9231
:10080000AF92BF92CF92DF92EF92FF920F931F931E
:100810002F933F934F935F936F937F938F939F9308
:10082000AF93BF93CF93DF93EF93FF93A091470DC7
:10083000B091480D0DB60D920EB60D920E949F0C10
:10084000A091470DB091480DCD91CDBFDD91DEBF98
:10085000FF91EF91DF91CF91BF91AF919F918F91D8
:100860007F916F915F914F913F912F911F910F91C8
:10087000FF90EF90DF90CF90BF90AF909F908F90C0
:100880007F906F905F904F903F902F901F900F90B0
:100890000CBE0F900BBE0F900FBE0F9008950F92DD
:1008A0000FB6F8940F920BB60F920CB60F921F92E0
:1008B00011242F923F924F925F926F927F928F926C
:1008C0009F92AF92BF92CF92DF92EF92FF920F93DF
:1008D0001F932F933F934F935F936F937F938F93C8
:1008E0009F93AF93BF93CF93DF93EF93FF93A09129
:1008F000470DB091480D0DB60D920EB60D9213BE78
:1009000096D581110E949F0CA091470DB091480D82
:10091000CD91CDBFDD91DEBFFF91EF91DF91CF9102
:10092000BF91AF919F918F917F916F915F914F9107
:100930003F912F911F910F91FF90EF90DF90CF90FB
:10094000BF90AF909F908F907F906F905F904F90EF
:100950003F902F901F900F900CBE0F900BBE0F90EA
:100960000FBE0F9008959BDF18950FB6F8940F9265
:10097000FC01868D811102C081E001C080E00F90F2
:100980000FBE08950FB6F8940F92FC01268D878D47
:10099000281302C081E001C080E00F900FBE0895CF
:1009A0000F931F93CF93DF93EC01042F1E8D48A16B
:1009B00041110CC088819981892B09F042C08C813A
:1009C0009D810E94940E1D821C8242C0011117C09D
:1009D00050E08A819B810E94E02528A18A819B8129
:1009E000820F911D9B838A832C813D8182179307FF
:1009F00050F1888199819B838A8380E029C050E0EF
:100A00008E819F810E94E02588A190E0919581953B
:100A100091092E813F81280F391F3F832E83488102
:100A200059812417350730F42C813D81820F931FA3
:100A30009F838E83023049F4112349F0115080E0E6
:100A400007C080E005C080E003C080E001C080E016
:100A50001F5F1E8FDF91CF911F910F910895FC01B1
:100A600040A14423A9F050E026813781240F351F8F
:100A700037832683848195812817390720F0808168
:100A8000918197838683CB01668177810C94E025E1
:100A900008951F93CF93DF93EC010FB6F8940F9254
:100AA0001AA10BC08B89882351F0CE0143960E9476
:100AB0005C0D81110E94820E115011169CF38FEF74
:100AC0008AA30F900FBE0FB6F8940F9219A10AC017
:100AD0008885882349F0CE010896EED781110E94BF
:100AE000820E11501116A4F38FEF89A30F900FBE41
:100AF000DF91CF911F910895CF93DF93EC010FB653
:100B0000F8940F92E881F9818F8D28A190E030E070
:100B1000829FA001839F500D929F500D11244E0F74
:100B20005F1F5D834C831E8EFB83EA830197289FA2
:100B3000A001299F500D389F500D1124CF01840F23
:100B4000951F9F838E838FEF89A38AA361110AC0AB
:100B50008885882369F0CE010896AED7882341F0B6
:100B60003DDE06C0CE0108966BDDCE01439668DD02
:100B70000F900FBE81E0DF91CF9108950F931F93E7
:100B8000F801611103C01183008302C051834083C7
:100B9000878F60A361E0CF01AFDF1F910F910895B0
:100BA000DF92EF92FF920F931F93CF93DF93F82E74
:100BB000E62ED42E869FC001112483965DDCEC01C5
:100BC000009741F08C012D2DAC014D5D5F4F6E2DD6
:100BD0008F2DD4DFCE01DF91CF911F910F91FF9028
:100BE000EF90DF900895CF92DF92EF92FF920F93F4
:100BF0001F93CF93DF93CDB7DEB729970FB6F89445
:100C0000DEBF0FBECDBF7C016B012E833F834887C3
:100C1000598710E00FB6F8940F92F701968D878DE3
:100C2000981710F00230A9F4402FB601C701B8DEC2
:100C3000F7019389992339F0C70143963DD788235B
:100C400021F0CCDD02C08111C9DD0F900FBE81E023
:100C500046C08E819F81A885B985892B8A2B8B2BD5
:100C600021F40F900FBE80E03AC0111104C0CE01F4
:100C70000196D1D711E00F900FBEC5D30FB6F894EF
:100C80000F92F70181A18F3F09F411A2F70182A110
:100C90008F3F09F412A20F900FBEBE016A5F7F4F13
:100CA000CE010196C9D7811116C0C7016BDE88231A
:100CB00071F04E815F8168857985C7010896A3D65A
:100CC000C701E7DEE0D48111A5CF88DDA3CFC7013E
:100CD000E0DED9D49FCFC701DCDED5D480E02996F1
:100CE0000FB6F894DEBF0FBECDBFDF91CF911F913D
:100CF0000F91FF90EF90DF90CF9008950F930097A2
:100D000069F0FC011582148211821082168200E0C3
:100D100020E030E0A90160E070E065DF0F91089508
:100D2000CF93DF93482F60E081E03ADFEC01E6DF0C
:100D3000CE01DF91CF910895EF92FF920F931F9311
:100D4000CF93DF938A01FC01568D378D531710F036
:100D50002230F1F4422F7801EC011AA18E8DCE01E0
:100D60001FDE1F3F79F48B898823A1F0CE014396C3
:100D7000A3D6882389F0E114F10481F081E0F70122
:100D800080830DC0FF24F394F10EFAA281E007C026
:100D900080E005C081E003C081E001C081E0DF9117
:100DA000CF911F910F91FF90EF900895CF92DF9216
:100DB000EF92FF920F931F93CF93DF93CDB7DEB7E0
:100DC00029970FB6F894DEBF0FBECDBF8C016B0123
:100DD0002E833F8348875987E12C0FB6F8940F92F2
:100DE000F801F68CFF2091F0B601C80138DEFA94C4
:100DF000F801F68E8085882329F0C80108965CD614
:100E00008111ECDC0F900FBE81E04CC08E819F8180
:100E1000A885B985892B8A2B8B2B21F40F900FBEC7
:100E200080E040C0E11005C0CE010196F4D6EE246A
:100E3000E3940F900FBEE7D20FB6F8940F92F8012B
:100E400081A18F3F09F411A2F80182A18F3F09F41B
:100E500012A20F900FBEBE016A5F7F4FCE010196B6
:100E6000EBD6811116C0C80180DD882371F04E8158
:100E70005F8168857985C8014396C5D5C80109DEBB
:100E800002D48111AACFAADCA8CFC80102DEFBD30D
:100E9000A4CFC801FEDDF7D3C80167DD882309F4BC
:100EA0009CCF80E029960FB6F894DEBF0FBECDBF71
:100EB000DF91CF911F910F91FF90EF90DF90CF9036
:100EC0000895CF93DF93EC010FB6F8940F9289A1A8
:100ED0008F3F09F419A28AA18F3F09F41AA20F903B
:100EE0000FBE8E8D811103C0CE014396A3D5CE01D6
:100EF000D0DDDF91CF910895E091C10CF091C20C4B
:100F0000808181110CC08FEF9FEFDC0180938B0CEF
:100F100090938C0CA0938D0CB0938E0C0895E0915F
:100F2000C10CF091C20C0780F085E02D8081918189
:100F3000A281B38180938B0C90938C0CA0938D0C29
:100F4000B0938E0C0895CF93DF93EC018B8D9C8D25
:100F50003BDBCE0139DBDF91CF9108954F925F9259
:100F60006F927F928F929F92AF92BF92CF92DF92B9
:100F7000EF92FF920F93CF93DF932C015B014A0115
:100F80003901E60165EA70E08B8D9C8D0E94E925B0
:100F90008B8D9C8D21E0821A9108880E991EA114D8
:100FA000B10489F415C0822F90E0F501E80FF91F14
:100FB0003081DE01A80FB91F5D963C9380818823A4
:100FC00029F02F5F01C020E0203168F31CA601C08A
:100FD0001D8E0A3008F009E00A8F0DA71EA6CE016B
:100FE00002963FDBCE010E963CDBDB87CA878AE0A8
:100FF00090E0A0E0B0E0801B9109A109B1098E87C3
:101000009F87A88BB98BDF8BCE8B84E0FE01BF96C8
:10101000DF011D928A95E9F71BAAA301B201C40161
:1010200094DB99838883E114F10419F0F701D183EB
:10103000C083DF91CF910F91FF90EF90DF90CF9021
:10104000BF90AF909F908F907F906F905F904F90E8
:101050000895CF93C0E008C02BE0C29FC0011124C7
:101060008752934FEDDACF5FCA30B0F38EEC9CE03D
:10107000E7DA83EC9CE0E4DA84EB9CE0E1DA89EAED
:101080009CE0DEDA8DE99CE0DBDA8EEC9CE090936C
:10109000C20C8093C10C83EC9CE09093C00C8093B5
:1010A000BF0CCF910895CF93DF93EC010FB6F89466
:1010B0000F9280919C0C8F5F80939C0C8091470DC8
:1010C0009091480D892B51F4D093480DC093470D52
:1010D00080919C0C813091F4BCDF10C08091960C03
:1010E00081110CC0E091470DF091480D928D8A8DD1
:1010F000891720F0D093480DC093470D80918F0C35
:101100008F5F80938F0CEA8D8091970C8E1710F46F
:10111000E093970C8BE08E9FF0011124E752F34F80
:101120000180F281E02DFF83EE83268137813987AC
:101130002887A681B7819E012E5F3F4F15963C936D
:101140002E93149737832683EA8D8E9FF001112406
:10115000E752F34FFD87EC8780818F5F80830F908C
:101160000FBE8091960C882349F0E091470DF091D5
:10117000480D928D8A8D981708F430DBDF91CF915E
:101180000895CF93DF931AC00FB6F8940F92E091B1
:10119000B00CF091B10CC085D185CE010296A2DAD7
:1011A00080919C0C815080939C0C8091A80C815064
:1011B0008093A80C0F900FBECE01C5DE8091A80CC5
:1011C0008111E2CFDF91CF9108958F929F92AF92DC
:1011D000BF92CF92DF92EF92FF92CF93DF936B019A
:1011E0007C01C42F8090980C9090990CA0909A0C40
:1011F000B0909B0C8091470D9091480D029672DA49
:101200008FEFC816D806E806F806B1F5CC23A1F191
:10121000EDE9FCE0A181B281C091470DD091480D6C
:10122000BF83AE83C091470DD091480D16968D9126
:101230009C911797998788871696CD91DC9117977F
:101240008091470D9091480D02969D838C838091EB
:10125000470D9091480D029617969C938E93169782
:10126000A091470DB091480D1D96FC93EE931C97ED
:1012700080818F5F80833DC0C80CD91CEA1CFB1C99
:10128000E091470DF091480DC282D382E482F5824D
:10129000C814D904EA04FB0460F46091470D70910E
:1012A000480D8091BF0C9091C00C6E5F7F4FDDD9CF
:1012B00020C06091470D7091480D8091C10C9091B4
:1012C000C20C6E5F7F4FD1D980918B0C90918C0CAA
:1012D000A0918D0CB0918E0CC816D906EA06FB06BB
:1012E00040F4C0928B0CD0928C0CE0928D0CF0925A
:1012F0008E0CDF91CF91FF90EF90DF90CF90BF9059
:10130000AF909F908F9008952F923F924F925F924F
:101310006F927F928F929F92AF92BF92CF92DF9205
:10132000EF92FF920F93CF93DF933C011B014A0191
:101330002901CA01A1D86C01892B61F084E390E0F6
:101340009BD8EC01892B19F0DC8ECB8E05C0C60131
:101350003BD902C0C0E0D0E0209761F0A12CB12CB5
:101360006E019201A401B101C301F8DDCE019BDE43
:1013700081E001C08FEFDF91CF910F91FF90EF904F
:10138000DF90CF90BF90AF909F908F907F906F90A5
:101390005F904F903F902F900895EF92FF920F93A0
:1013A0000F2EF9E8EF2EFCE0FF2EF02D00E020E0FC
:1013B00030E040EC50E062E272E08FE891E0A4DFC0
:1013C000813009F496D58130C1F4F8948FEF9FEF06
:1013D000DC0180938B0C90938C0CA0938D0CB093BC
:1013E0008E0C81E08093960C1092980C1092990CC0
:1013F00010929A0C10929B0CBFD9809106020F910B
:10140000FF90EF9008958091880C8F5F8093880CF7
:1014100008950FB6F8940F926091980C7091990C02
:1014200080919A0C90919B0C0F900FBE0895CF92D3
:10143000DF92EF92FF92CF93DF938091880C81111E
:1014400005C1C090980CD090990CE0909A0CF09047
:101450009B0C8FEFC81AD80AE80AF80AC092980CB9
:10146000D092990CE0929A0CF0929B0CC114D1048A
:10147000E104F104B1F48091C10C9091C20C20916F
:10148000BF0C3091C00C3093C20C2093C10C9093D0
:10149000C00C8093BF0C8091900C8F5F8093900C58
:1014A0002BDD80918B0C90918C0CA0918D0CB091C8
:1014B0008E0CC816D906EA06FB0620F480E0B2C0FE
:1014C00081E001C080E0E091C10CF091C20C9081FC
:1014D00091110CC04FEF5FEFBA0140938B0C50930A
:1014E0008C0C60938D0C70938E0C9CC0E091C10CA1
:1014F000F091C20C0780F085E02D0084F185E02D8D
:101500004281538164817581C416D506E606F706CB
:1015100048F440938B0C50938C0C60938D0C70931B
:101520008E0C80C0A485B585C681D7812085318584
:101530003F832E83C085D185268137813D832C83CF
:1015400011964D915C9112979F012E5F3F4F42176C
:10155000530731F44085518512965C934E93119751
:10156000158614869C9191509C93A08DB18D1097F7
:1015700009F1C289D389448955895F834E83C4891F
:10158000D589428953895D834C8311966D917C91F5
:101590001297AF01425F5F4F6417750731F44489BA
:1015A000558912965C934E931197118E108E9C91D3
:1015B00091509C93A28D9091970C9A1710F4A09340
:1015C000970C9BE09A9FD0011124A752B34F11961C
:1015D0000D90BC91A02DB783A68316964D915C917A
:1015E0001797518740871696CD91DC9117973D83C9
:1015F0002C8317963C932E931697A28D9A9FD00119
:101600001124A752B34FB587A4879C919F5F9C93E9
:10161000228DE091470DF091480D928D291708F029
:101620004FCF51CFE091470DF091480DE28D9BE0F7
:10163000E99FF0011124E752F34F9081923008F0B6
:1016400081E09091910C911116C016C08091920C7E
:101650009091930CA091940CB091950C0196A11DC2
:10166000B11D8093920C9093930CA093940CB09323
:10167000950C80E001C081E0DF91CF91FF90EF9069
:10168000DF90CF900895CF92DF92EF92FF92CF93A9
:10169000DF930FB6F8940F928091880C815080935D
:1016A000880C8091880C8111BEC080919C0C8111A6
:1016B00088C0BCC0E091BB0CF091BC0C0084F185EB
:1016C000E02DA08DB18DC289D389848995899F83AE
:1016D0008E83C489D589828993899D838C83119651
:1016E0002D913C911297CF010E962817390731F4AE
:1016F0008489958912969C938E931197118E108EE2
:101700008C9181508C93A485B585C681D7818085C5
:1017100091859F838E83C085D185868197819D83A6
:101720008C8311968D919C9112979F012E5F3F4F54
:101730008217930731F48085918512969C938E933E
:101740001197158614868C9181508C93A28D80916F
:10175000970C8A1710F4A093970C8BE08A9FD00106
:101760001124A752B34F11960D90BC91A02DB783B1
:10177000A68316964D915C911797518740871696D0
:10178000CD91DC9117973D832C8317963C932E9334
:101790001697A28D8A9FD0011124A752B34FB58707
:1017A000A4878C918F5F8C93928DA091470DB091FF
:1017B000480D5A968C91981730F081E08093910CE7
:1017C00002C0E0E0F0E08091B40C811173CFEF2B08
:1017D00009F092DBC090920CD090930CE090940CA6
:1017E000F090950CC114D104E104F104A1F01FDEC6
:1017F000882319F081E08093910C81E0C81AD10808
:10180000E108F108A1F71092920C1092930C10923B
:10181000940C1092950C8091910C882331F00E94C9
:10182000EE0381E003C080E001C080E00F900FBEB6
:10183000DF91CF91FF90EF90DF90CF9008958F923E
:101840009F92AF92BF92CF92DF92EF92FF921F933F
:10185000CF93DF93EC016A017B01D5DD8090980C7A
:101860009090990CA0909A0CB0909B0C88819981D3
:10187000AA81BB81AC01BD014C0D5D1D6E1D7F1D9C
:1018800088169906AA06BB0660F4481759076A0726
:101890007B0798F484169506A606B70680F010E03C
:1018A00013C0481759076A077B0758F08416950636
:1018B000A606B70640F010E007C010E005C011E032
:1018C00003C011E001C011E0488359836A837B8320
:1018D000112341F0CB01BA01681979098A099B09E2
:1018E00040E073DCD0DE811102C00E94EE03812F44
:1018F000DF91CF911F91FF90EF90DF90CF90BF903D
:10190000AF909F908F900895CF92DF92EF92FF92C9
:101910006B017C01672B682B692B39F074DD40E08B
:10192000C701B60152DCAFDE01C080E0811102C008
:101930000E94EE03FF90EF90DF90CF90089580918A
:10194000880C882321F081E08093910C08951092F7
:10195000910CE091470DF091480D20813181E0918B
:10196000470DF091480D838D948D8217930758F0A1
:101970006091470D7091480D635E7F4F8091470DD8
:101980009091480D3ED58091970C01C08150282F31
:1019900030E09BE0929FF001939FF00D1124E752FD
:1019A000F34F9081992391F39BE0929FA001939F25
:1019B000500D1124DF010180F281E02D0480F581BA
:1019C000E02D1296FC93EE9311974452534FE41777
:1019D000F50729F444815581FD01528341839BE041
:1019E000929FF001939FF00D1124E752F34F018075
:1019F000F281E02D208531853093480D2093470DED
:101A00008093970C0895CF92DF92EF92FF926A0134
:101A10007B016091470D7091480D625F7F4F0E947E
:101A2000350341E0C701B601D0DBFF90EF90DF90B6
:101A3000CF900895CF93DF93FC01CB01BA01A18130
:101A4000B281C091470DD091480DBB8BAA8BC0913C
:101A5000470DD091480D16964D915C9117975D8B6F
:101A60004C8B1696CD91DC9117974091470D509174
:101A7000480D425F5F4F5D834C834091470D50910D
:101A8000480D425F5F4F17965C934E931697A09157
:101A9000470DB091480D5996FC93EE9358973081BD
:101AA0003F5F3083222319F06FEF7FEFCB01422F8E
:101AB0008CDBDF91CF910895CF93DF93DC011796F4
:101AC000ED91FC9118970084F185E02DA08DB18DEA
:101AD000C289D389848995899F838E83C489D58956
:101AE000828993899D838C8311968D919C91129705
:101AF0009F01225F3F4F8217930731F484899589B4
:101B000012969C938E931197118E108E8C9181500A
:101B10008C938091880C811152C0A485B585C681B3
:101B2000D781808591859F838E83C085D18586816D
:101B300097819D838C8311968D919C9112979F0123
:101B40002E5F3F4F8217930731F48085918512965F
:101B50009C938E931197158614868C9181508C934B
:101B6000A28D8091970C8A1710F4A093970C8BE0AC
:101B70008A9FD0011124A752B34F11960D90BC91AA
:101B8000A02DB783A68316964D915C911797518728
:101B900040871696CD91DC9117973D832C8317963D
:101BA0003C932E931697A28D8A9FD0011124A752A1
:101BB000B34FB587A4878C918F5F8C931CC044EB87
:101BC0005CE0DA011196CD91DC911297D38BC28B38
:101BD0008E819F81958B848B8E819F81DC011596F0
:101BE0003C932E9314973F832E83518F408FDA01BD
:101BF0008C918F5F8C93928DE091470DF091480D01
:101C0000828D891720F481E08093910C01C080E0DF
:101C1000DF91CF9108952091900CFC012083409199
:101C2000980C5091990C60919A0C70919B0C418387
:101C300052836383748308958F929F92AF92BF9271
:101C4000CF92DF92EF92FF920F931F93CF93DF9388
:101C5000FB010FB6F8940F92C090980CD090990C9D
:101C6000E0909A0CF0909B0CDC0111960D911D9167
:101C70002D913C91149746015701801A910AA20AAE
:101C8000B30A40815181628173814F3FBFEF5B078F
:101C90006B077B0739F1EC01B881A091900CBA1762
:101CA00059F0C016D106E206F30630F01082118218
:101CB0001282138281E017C084169506A606B70625
:101CC00058F4481959096A097B0940835183628392
:101CD0007383A1DF80E007C0108211821282138219
:101CE00081E001C080E00F900FBEDF91CF911F9186
:101CF0000F91FF90EF90DF90CF90BF90AF909F90AB
:101D00008F90089581E08093910C08958091960CB6
:101D1000882331F08091880C811104C082E00895FD
:101D200081E0089580E008950F931F93CF93DF9390
:101D3000FC01892B09F449C086A5815086A7228D14
:101D400095A5291709F443C0811143C0EF018F0104
:101D50000E5F1F4FC8010E947203EDA5EA8F8AE053
:101D600090E0A0E0B0E08E1B9109A109B1098E8737
:101D70009F87A88BB98B8091970C8E1710F4E093F6
:101D8000970C8BE08E9FF0011124E752F34F0180F6
:101D9000F281E02DFF83EE83268137813987288702
:101DA000A681B78115961C930E931497178306830B
:101DB000EA8D8E9FF0011124E752F34FFD87EC87E7
:101DC00080818F5F808381E005C080E003C080E078
:101DD00001C080E0DF91CF911F910F910895DC0148
:101DE000E091530DF091540D808191E0811190E0CC
:101DF0009C93911108C00780F085E02D608171816E
:101E000082819381089560E070E0CB010895CF92C4
:101E1000DF92EF92FF920F931F93FC014283538353
:101E2000648375839387828704171507260737070E
:101E3000C0F00C191D092E093F0986859785A089D8
:101E4000B189081719072A073B0700F5BF016E5F24
:101E50007F4F8091510D9091520D0E94350380E08B
:101E600018C00C151D052E053F0528F44C155D0501
:101E70006E057F0568F4BF016E5F7F4F8091530D43
:101E80009091540D0E94350380E003C081E001C0B1
:101E900081E01F910F91FF90EF90DF90CF90089518
:101EA0000FB6F8940F9280914F0D9091500D892BA1
:101EB000E9F480E69DE00E94200385E59DE00E9414
:101EC000200380E69DE09093540D8093530D85E5AB
:101ED0009DE09093520D8093510D40E067E08AE0C1
:101EE0000E94D0059093500D80934F0D0F900FBE20
:101EF0000895EF92FF920F93D3DF80914F0D909151
:101F0000500D892B89F00F2EFDE4EF2EFDE0FF2E02
:101F1000F02D03E020E030E040EC50E067E272E0BA
:101F200088E991E0F1D901C080E00F91FF90EF9036
:101F300008958F929F92AF92BF92CF92DF92EF92CD
:101F4000FF920F931F93CF93DF93CDB7DEB7279701
:101F50000FB6F894DEBF0FBECDBFE0914F0DF091EC
:101F6000500D309781F169832A833B834C835D83D5
:101F70009F838E836630F4F4C9DE823069F400E01A
:101F8000A7019601BE016F5F7F4F80914F0D909129
:101F9000500D0E94F30518C000E020E030E0A901D8
:101FA000BE016F5F7F4F80914F0D9091500D0E9449
:101FB000F3050AC020E0A801BE016F5F7F4FCF018B
:101FC0000E949C0601C080E027960FB6F894DEBF01
:101FD0000FBECDBFDF91CF911F910F91FF90EF907A
:101FE000DF90CF90BF90AF909F908F9008958F9289
:101FF0009F92AF92BF92CF92DF92EF92FF920F9398
:102000001F93CF93DF933BC00780F085E02D808046
:102010009180A280B380C085D1858E010E5F1F4F55
:10202000C8010E947203EC89FD89CE0119958E8941
:1020300082FF25C08E859F85A889B989880D991D45
:10204000AA1DBB1D88169906AA06BB0670F48A83D2
:102050009B83AC83BD83DB87CA87B8018091530D16
:102060009091540D0E9435030AC0C12CD12C7601E9
:1020700000E010E0A501940160E0CE015ADFE0919C
:10208000530DF091540D80818111BECF8091510D7F
:102090009091520D9093540D8093530DF093520DE7
:1020A000E093510DDF91CF911F910F91FF90EF9031
:1020B000DF90CF90BF90AF909F908F900895CF9278
:1020C000DF92EF92FF92CF93DF93EC01A2D96B01E5
:1020D0007C018091490D90914A0DA0914B0DB091DA
:1020E0004C0DC816D906EA06FB0620F480DF81E015
:1020F000888301C01882C092490DD0924A0DE092A7
:102100004B0DF0924C0DC701B601DF91CF91FF90BE
:10211000EF90DF90CF9008954F925F926F927F92F1
:102120008F929F92AF92BF92CF92DF92EF92FF92E7
:102130000F931F93CF93DF934B015C0129013A0169
:10214000E091530DF091540D0780F085E02DC0858E
:10215000D185CE0102960E9472038E8982FF1BC038
:102160004E855F8568897989480D591D6A1D7B1DDB
:102170007501640193018201CE0149DE882369F073
:10218000C12CD12C760100E010E0A501940160E0A3
:10219000CE01CFDE02C08E7F8E8BEC89FD89CE0111
:1021A0001995DF91CF911F910F91FF90EF90DF90E4
:1021B000CF90BF90AF909F908F907F906F905F90E7
:1021C0004F9008958F929F92AF92BF92CF92DF92DD
:1021D000EF92FF921F93CF93DF931F92CDB7DEB79D
:1021E0006B017C01142F0FD9CE01019668DF4B01E2
:1021F0005C01898181112BC011110CC08C149D04CC
:10220000AE04BF0438F03FDAA5019401C701B6015E
:1022100083DF1EC0112341F0E091510DF091520D6A
:10222000808111E0811110E0B701A6014819590918
:102230006A097B09212F80914F0D9091500D0E94CA
:10224000610721DA811104C00E94EE0301C01BDA8C
:102250000F90DF91CF911F91FF90EF90DF90CF9083
:10226000BF90AF909F908F900895AF92BF92CF9202
:10227000DF92EF92FF920F931F93CF93DF93CDB72F
:10228000DEB728970FB6F894DEBF0FBECDBF82C071
:10229000898188230CF47EC0AE80BF80D5011C9656
:1022A0008D919C911D97892B21F0C50102960E946A
:1022B0007203CE01089603DF8B019C01E9810E2E8B
:1022C000000CFF0BEA30F10508F064C08827EE58D7
:1022D000FF4F8F4F0C94A223F50186898160868B76
:1022E000CA80DB80EC80FD804685578560897189D6
:1022F0004C0D5D1D6E1D7F1DC50189DD882309F410
:1023000049C0D5015496ED91FC915597C501199599
:10231000F501868982FF3EC04A815B816C817D81A7
:1023200086859785A089B1899A01AB01280F391F4D
:102330004A1F5B1FC12CD12C760100E010E060E049
:10234000C501F7DD27C0D50156968C9156978E7F33
:1023500056968C931FC0F50186898160868B4A81D1
:102360005B816C817D8146875787608B718B400FC5
:10237000511F621F731F68017901C50148DD0AC042
:10238000F501868981FD04C0C5010E94E40202C0F6
:102390008E7F868B20E030E0A901BE016F5F7F4F0A
:1023A00080914F0D9091500D0E94D606811170CFF3
:1023B00028960FB6F894DEBF0FBECDBFDF91CF9148
:1023C0001F910F91FF90EF90DF90CF90BF90AF9053
:1023D0000895089584B1806884B985B1806885B90D
:1023E000089583B1806883B90895F4DF2FEF80E703
:1023F00092E0215080409040E1F700C00000F1DF02
:10240000F5CFE8DF2FEF87EA91E62150804090403A
:10241000E1F700C00000E5DFF5CFCF93DF9300D0F8
:102420001F92CDB7DEB70E94090A69837A838B8336
:102430009C834FE150E060E070E0CE010196FFD94F
:10244000A7D2882321F08FE292E00E944B2663E01E
:1024500070E080E090E058DAAFD260E070E0CB014D
:1024600053DACFD2E62EF72E082F192F9F938F9392
:102470007F936F9380E592E09F938F930E9437261E
:1024800041E06E2D7F2D802F912FDCD0A5D25FD023
:102490001F926F9383E592E09F938F930E9437265C
:1024A0006EE370E080E090E02FDA82B1805882B96C
:1024B0000FB6F894DEBF0FBECDBFBBCFEF92FF9239
:1024C0000F938091BE0D9091BF0D892B89F481E00F
:1024D0000E9490069093BF0D8093BE0D009741F02F
:1024E00000E020E030E0A90160E070E00E94F30528
:1024F000E12CF12C03E020E030E040EC50E066E518
:1025000072E08DE092E10E9484090F91FF90EF90BC
:10251000089581B1816881B980E0F4D5CFCF089565
:10252000F8DF82E692E09F938F930E94372619D2BC
:102530000F900F90882321F083E792E00E944B26B2
:1025400080E090E034D128D10E94CD09FFCF33D074
:1025500088F09F5790F0B92F9927B751A0F0D1F08C
:10256000660F771F881F991F1AF0BA95C9F712C016
:10257000B13081F03AD0B1E0089537C0672F782F9D
:102580008827B85F39F0B93FCCF386957795679582
:10259000B395D9F73EF490958095709561957F4FEE
:1025A0008F4F9F4F089557FD9058440F551F59F076
:1025B0005F3F71F04795880F97FB991F61F09F3F30
:1025C00079F087950895121613061406551FF2CF59
:1025D0004695F1DF08C0161617061806991FF1CFA9
:1025E00086957105610508940895E894BB276627D0
:1025F0007727CB0197F9089581B38F6081BB289825
:10260000289A21B381E090E000909B0D02C0880FD2
:10261000991F0A94E2F78095822381BBE0916B0DAC
:10262000F0916C0D309709F0199508959FB7F894C3
:10263000E7E9FDE010828EE981838AE0828383836B
:102640009FBF0895BF92CF92DF92EF92FF920F93B8
:102650001F93CF93DF936B017C01B42E10926E0D0C
:1026600083E0841798F1642F70E080E090E00E948E
:10267000F1209B01AC0160E070E080E291E40E94F7
:102680001122A70196010E94AB2120E030E040E03A
:102690005FE30E9419200E942E210E94EA20AB01D4
:1026A000772364F444275527461B570B21E0483E07
:1026B00083E058070CF420E011E00CC021E0403129
:1026C00087E258070CF420E010E004C040E050E03E
:1026D00021E010E00FB7F894222311F0A7DF51C0DA
:1026E000CBE9DDE00F2EF7E9CF2EFDE0DF2EF02D58
:1026F0000F2EFAE0EF2EF12CF02DCA01B7010E9447
:102700006D23FC01E456FD4F80818A93462F572F9D
:10271000CC15DD0591F743E050E04B195109141633
:102720001506F4F48091970D8C3F49F060E019C0D4
:10273000FC01E956F24F30813C3F21F012C080E0AD
:1027400090E020E0FC01E956F24F1082622F2F5FEB
:10275000822F022E000C990B841795074CF301C0B1
:1027600060E0112331F0E62FF0E0E956F24F82E00D
:102770008083BB2031F0FA01E956F24F80818160FD
:1027800080830FBFDF91CF911F910F91FF90EF904A
:10279000DF90CF90BF90089585B5856085BD089581
:1027A00085B5887F85BD81B38F6081BB08958F9289
:1027B000AF92CF92EF920F931F93CF93DF93EC01E1
:1027C00080B38F6080BB81B38F6081BB209A8CEF18
:1027D00092E19F938F93812CA12CC12CE12C00E0DE
:1027E00010E020E240E063E080E1EED490939D0DA4
:1027F00080939C0D89E187BD84B5826084BDEEE63F
:10280000F0E0808182608083CBDFD0936C0DC09339
:102810006B0D0F900F90DF91CF911F910F91EF9063
:10282000CF90AF908F9008951F920F920FB60F9296
:1028300011240BB60F922F933F934F935F936F9397
:102840007F938F939F93AF93BF93EF93FF93809169
:102850006E0D882369F120916F0D3091700D253F29
:1028600091E0390738F42F5F3F4F3093700D20937C
:102870006F0D1EC01092700D10926F0DE0916D0DD6
:102880002E2F30E090E004972817390714F4EF5FFB
:1028900001C0E0E0E0936D0DF0E0EF58F24FA7E9E2
:1028A000BDE02BE93DE081918D93A217B307D9F7E5
:1028B00080919B0D90E0019683709078992324F489
:1028C00001978C6F9F6F019680939B0D9927FC0158
:1028D000E956F24F6081609580919C0D90919D0D1D
:1028E0004AD5FF91EF91BF91AF919F918F917F91C9
:1028F0006F915F914F913F912F910F900BBE0F9071
:102900000FBE0F901F9018956530F1F4FA01808189
:102910008F7390E0982F88272181822B90930A0251
:10292000809309028281F0E48F9FC0011124FA0193
:10293000238126952695822B909308028093070287
:1029400081E080939E0D0895643051F080E090E422
:10295000909308028093070290930A0280930902E1
:1029600008950F931F9304E814E120E034E244EF4C
:1029700050E060E087E220D69093A00D80939F0DF9
:1029800021E0892B09F020E0822F1F910F910895FB
:1029900080919F0D9091A00D009751F040E060E074
:1029A00070E05ED6843031F410929E0D80E0089580
:1029B00082E0089583E0089580919F0D9091A00D8D
:1029C000009731F064E098D6853021F083E00895D7
:1029D00082E0089580E008956091090270910A02F2
:1029E00080E090E00E94F12020E030E048EC52E4EA
:1029F0000E94AB2120E038EF4FE756E40C947F2093
:102A00000895609107027091080280E090E00E94B2
:102A1000F12020E030E045E253E40E94AB2120E0C9
:102A200038EF4FE756E40E947F2020E030E040E29C
:102A300052E40C94182008952F923F924F925F9287
:102A40006F927F928F929F92AF92CF92EF92FF926E
:102A50000F931F93CF93DF93CDB7DEB7F82E2A01E4
:102A60003B0188E090E00E94D8238C018F2D90E0FC
:102A7000FC01EE0FFF1FEF55F24F1183008301158C
:102A8000110509F46CC0880F991FFC01E55FFD4F2B
:102A900080819181D8018D939C938C2D90E0880F3B
:102AA000991F880F991F0E94D8231C0186E090E08F
:102AB0000E94D8237C014C2DB1010ED7F801F5827C
:102AC000E4828A2D90E0880F991F880F991F0E9439
:102AD000D8231C0186E090E00E94D8237C014A2D77
:102AE000B101FAD6D8011396FC92EE92129717967E
:102AF0009C928E921697FFB6F894ED91FC911197E7
:102B000036978081826080838D909C90C301B20152
:102B10000E94F12020E030E040E051E40E94AB212F
:102B20009B01AC0160E074E284E79BE40E947F209B
:102B300020E030E040E85FE30E94182008DDF40167
:102B400032976083D801ED91FC911197359788E910
:102B50008083ED91FC91349786E08083FFBEC801AD
:102B6000DF91CF911F910F91FF90EF90CF90AF9099
:102B70009F908F907F906F905F904F903F902F909D
:102B80000895CF93DF93DC01892B01F11296ED912B
:102B9000FC911397938182812581981B92238481D4
:102BA0009817B1F0838126952823C081D181C20F67
:102BB000D11D68838F5F958189238383ED91FC917B
:102BC000359780818062808380E003C081E001C00E
:102BD00082E0DF91CF9108950097D1F0DC01149647
:102BE000ED91FC91159793818281981799F09281CC
:102BF000858186958923A081B181A80FB11D8C9113
:102C0000DB018C939F5F85819823928380E00895F8
:102C100081E0089583E008951F920F920FB60F92FE
:102C200011240BB60F922F933F934F935F936F93A3
:102C30007F938F939F93AF93BF93CF93DF93EF9344
:102C4000FF93A091A10DB091A20D109711F1609189
:102C5000C6001496ED91FC91159793818281258190
:102C6000981B92238481981761F0838126952823ED
:102C7000C081D181C20FD11D68838F5F9581892367
:102C800083831696ED91FC911797309711F0CD0143
:102C90001995FF91EF91DF91CF91BF91AF919F91E6
:102CA0008F917F916F915F914F913F912F910F90F5
:102CB0000BBE0F900FBE0F901F9018951F920F9292
:102CC0000FB60F9211240BB60F922F938F939F93F1
:102CD000AF93BF93EF93FF93E091A10DF091A20DFD
:102CE0003097B9F00280F381E02D938182819817AB
:102CF000B1F092818581282F26952923A081B18169
:102D0000A20FB11D2C919F5F892382832093C6005F
:102D10000BC0E1ECF0E080818F7D808305C0E1ECA9
:102D2000F0E080818F7D8083FF91EF91BF91AF9123
:102D30009F918F912F910F900BBE0F900FBE0F9010
:102D40001F9018951F920F920FB60F9211240BB679
:102D50000F922F933F934F935F936F937F938F9334
:102D60009F93AF93BF93CF93DF93EF93FF93A09184
:102D7000A30DB091A40D109711F16091CE0014969F
:102D8000ED91FC911597938182812581981B922367
:102D90008481981761F0838126952823C081D18191
:102DA000C20FD11D68838F5F958189238383169617
:102DB000ED91FC911797309711F0CD011995FF9186
:102DC000EF91DF91CF91BF91AF919F918F917F91C3
:102DD0006F915F914F913F912F910F900BBE0F908C
:102DE0000FBE0F901F9018951F920F920FB60F9263
:102DF00011240BB60F922F938F939F93AF93BF9392
:102E0000EF93FF93E091A30DF091A40D3097B9F0EB
:102E10000280F381E02D938182819817B1F0928135
:102E20008581282F26952923A081B181A20FB11D6C
:102E30002C919F5F892382832093CE000BC0E9EC05
:102E4000F0E080818F7D808305C0E9ECF0E0808137
:102E50008F7D8083FF91EF91BF91AF919F918F9173
:102E60002F910F900BBE0F900FBE0F901F901895D3
:102E70001F920F920FB60F9211240BB60F922F9341
:102E80003F934F935F936F937F938F939F93AF93F2
:102E9000BF93CF93DF93EF93FF93A091A50DB091D4
:102EA000A60D109711F16091D6001496ED91FC914A
:102EB0001597938182812581981B9223848198178D
:102EC00061F0838126952823C081D181C20FD11D55
:102ED00068838F5F9581892383831696ED91FC919A
:102EE0001797309711F0CD011995FF91EF91DF9170
:102EF000CF91BF91AF919F918F917F916F915F9192
:102F00004F913F912F910F900BBE0F900FBE0F90DE
:102F10001F9018951F920F920FB60F9211240BB6A7
:102F20000F922F938F939F93AF93BF93EF93FF9342
:102F3000E091A50DF091A60D3097B9F00280F381D4
:102F4000E02D938182819817B1F092818581282F9D
:102F500026952923A081B181A20FB11D2C919F5FDD
:102F6000892382832093D6000BC0E1EDF0E08081BD
:102F70008F7D808305C0E1EDF0E080818F7D8083CF
:102F8000FF91EF91BF91AF919F918F912F910F90F2
:102F90000BBE0F900FBE0F901F9018951F920F92AF
:102FA0000FB60F9211240BB60F922F933F934F93AE
:102FB0005F936F937F938F939F93AF93BF93CF93C1
:102FC000DF93EF93FF93A091A70DB091A80D1097F9
:102FD00011F1609136011496ED91FC911597938152
:102FE00082812581981B92238481981761F08381C7
:102FF00026952823C081D181C20FD11D68838F5FA0
:103000009581892383831696ED91FC9117973097CC
:1030100011F0CD011995FF91EF91DF91CF91BF9103
:10302000AF919F918F917F916F915F914F913F9160
:103030002F910F900BBE0F900FBE0F901F90189501
:103040001F920F920FB60F9211240BB60F922F936F
:103050008F939F93AF93BF93EF93FF93E091A70D4F
:10306000F091A80D3097B9F00280F381E02D9381A3
:1030700082819817B1F092818581282F2695292386
:10308000A081B181A20FB11D2C919F5F8923828302
:10309000209336010BC0E1E3F1E080818F7D8083D6
:1030A00005C0E1E3F1E080818F7D8083FF91EF91A6
:1030B000BF91AF919F918F912F910F900BBE0F9069
:1030C0000FBE0F901F901895CF93DF931F92CDB72F
:1030D000DEB7BE016F5F7F4F8091A90D9091AA0D61
:1030E0007BDD8111F6CF898190E00F90DF91CF9148
:1030F0000895682F8091A90D9091AA0D42DD80E07E
:1031000090E008958F929F92AF92CF92EF920F939B
:10311000812C912C6894AA24A7F86894CC24C7F831
:10312000E12C00E023E040E051EE60E070E084DC60
:103130009093AA0D8093A90DE4ECFDE083E192E069
:1031400091838083938382830F91EF90CF90AF9090
:103150009F908F900895E091AC0DF091AD0D309758
:10316000F9F0A081B1811097D9F02381213069F461
:103170004C9121E030E0028002C0220F331F0A94FC
:10318000E2F7209524232C930BC04C9121E030E0F2
:10319000028002C0220F331F0A94E2F7242B2C93E3
:1031A0009093AD0D8093AC0D009769F01092AE0D29
:1031B0002CB52F732CBDFC0124812CBD85818DBDC8
:1031C0008CB580648CBD08954F925F926F927F9210
:1031D0008F929F92AF92BF92CF92DF92EF92FF9227
:1031E0000F931F93CF93DF93CDB7DEB7982EB62EF4
:1031F000D42EF22E8091AB0D811106C084B1876070
:1032000084B981E08093AB0D8CE090E00E94D823DC
:103210003C01DC0111961C930E931296EC921297CE
:103220001396CC9213978D2D880F880FF82AEB2DCB
:10323000F0E0E455FD4F8081982A8F2D892914965E
:103240008C93B3E0BB1518F481E0F3018583A110E2
:1032500006C0D30119961C921E92189714C06A2DAD
:1032600070E084E090E00E94BE232C0161E070E0F9
:1032700086E090E00E94BE236C014A2DB2012CD35F
:10328000F301D186C086811006C0D30117961C9227
:103290001E92169714C0682D70E084E090E00E94A2
:1032A000BE235C0161E070E086E090E00E94BE23F6
:1032B0006C01482DB50110D3F301D782C6828C89E9
:1032C0009D89D3011B969C938E931A970115110526
:1032D00059F0F801229181E090E002C0880F991F17
:1032E000EA94E2F7822B80832FB7F8944091AC0DDB
:1032F0005091AD0D7092AD0D6092AC0DD301ED917A
:10330000FC911197309701F113968C9113978130AE
:1033100071F4308181E090E012960C9002C0880F29
:10332000991F0A94E2F78095832380830DC0308132
:1033300081E090E0D30112960C9002C0880F991F93
:103340000A94E2F7832B80835093AD0D4093AC0D2C
:103350002FBFC301DF91CF911F910F91FF90EF908D
:10336000DF90CF90BF90AF909F908F907F906F90A5
:103370005F904F9008951F93CF93DF93009709F4C8
:103380006AC0162FEC018091AC0D9091AD0DC8175D
:10339000D90711F0CE01DFDE8FB72FB7F8948091F7
:1033A000AE0D811131C081E08093AE0DA091AC0DC6
:1033B000B091AD0DED91FC9111973097F9F0139606
:1033C0008C911397813069F4308181E090E01296FE
:1033D0000C9002C0880F991F0A94E2F7832B808318
:1033E0000DC0308181E090E012960C9002C0880FF1
:1033F000991F0A94E2F78095832380838CB58068B7
:103400008CBD1EBD80E025C0EE81FF813097E1F0CC
:103410003481838142819581841B89233817B1F0DF
:1034200083814281841B8923381791F0838196958B
:103430009823A081B181A90FB11D1C938F5F958145
:103440008923838380E005C082E003C081E001C05E
:1034500080E02FBF01C083E0DF91CF911F910895DD
:103460001F920F920FB60F9211240BB60F922F934B
:103470003F934F935F936F937F938F939F93AF93FC
:10348000BF93CF93DF93EF93FF936EB5A091AC0DF5
:10349000B091AD0D1896ED91FC9119973097A1F070
:1034A000838122819581821B89232481821761F087
:1034B000838196959823C081D181C90FD11D6883DE
:1034C0008F5F9581892383831696ED91FC911797E1
:1034D000309799F093818281981779F09281858154
:1034E000282F26952923A081B181A20FB11D2C91EF
:1034F0009F5F892382832EBD2DC08CB58F778CBDB5
:103500001092AE0DA091AC0DB091AD0DED91FC916E
:1035100011973097F9F013968C911397813071F4CD
:10352000208181E090E012960C9002C0880F991FD4
:103530000A94E2F78095822380830CC0208181E089
:1035400090E012960C9002C0880F991F0A94E2F73F
:10355000822B80838091AC0D9091AD0DDC011A9689
:10356000ED91FC911B97309709F01995FF91EF9120
:10357000DF91CF91BF91AF919F918F917F916F918B
:103580005F914F913F912F910F900BBE0F900FBE07
:103590000F901F9018958091BD0D81110CC08CE08B
:1035A0008093B8008FEF8093BB0084E08093BC00D1
:1035B00081E08093BD0D0895AF92BF92CF92DF92CC
:1035C000EF92FF920F931F93CF93DF93A82EB62E07
:1035D00069017A0184E090E00E94D823EC01892BF4
:1035E00071F1A88281E0B81213C0C701B60120EAC8
:1035F00036E841E050E00E948023DA01C90140979B
:10360000A109B109B695A79597958795898312C0A9
:10361000C701B60120E83AE146E050E00E9480236D
:10362000DA01C9014097A109B109B695A795979507
:10363000879589831B830A838C2F9D2F02C080E08E
:1036400090E0DF91CF911F910F91FF90EF90DF906D
:10365000CF90BF90AF9008958091BC008170089585
:10366000FF920F931F93CF93DF930097D1F14A30CE
:10367000D0F5F42E8B01EC01EFDF811136C0809183
:10368000B00D9091B10DC817D90741F084DF898141
:103690008093B800D093B10DC093B00D81E08F0D31
:1036A0008093B20D8881880F8093B30DFF2089F03D
:1036B000F801A4EBBDE04FEF4F0D642F70E0CB019C
:1036C0000196B801680F791F81918D93E617F7076E
:1036D000D9F788EF8093210285EA8093BC0084E0CB
:1036E00005C086E003C087E001C082E0DF91CF9192
:1036F0001F910F91FF9008951F93CF93DF93009731
:1037000029F16B3028F5162FEC01A6DF811122C0BC
:103710008091B00D9091B10DC817D90741F03BDFF2
:1037200089818093B800D093B10DC093B00D1093F0
:10373000B20D8881880F81608093B30D88EF8093EC
:10374000210285EA8093BC0085E005C086E003C0C5
:1037500087E001C082E0DF91CF911F9108951F9211
:103760000F920FB60F9211240BB60F922F933F9327
:103770004F935F936F937F938F939F93AF93BF9379
:10378000EF93FF93E091B9008E2F90E0FC01389702
:10379000E135F10508F075C08827E458FF4F8F4FD9
:1037A000D1C71092AF0DE091AF0D8091B20DE81727
:1037B00070F481E08E0F8093AF0DF0E0ED54F24F86
:1037C00080818093BB0085E88093BC0072C084E94F
:1037D0008093BC008091B00D9091B10DDC011296E8
:1037E000ED91FC911397309709F463C020E040E01D
:1037F00050E064E019955DC0E091AF0D81E08E0F5F
:103800008093AF0D8091BB00F0E0ED54F24F8083C8
:103810008091B900803411F41092AF0D2091AF0D5A
:1038200030E08091B20D90E001972817390724F419
:1038300085EC8093BC003DC085E88093BC0039C016
:103840008091BB00E091AF0DF0E0ED54F24F80832A
:1038500084E98093BC008091B00D9091B10DDC01A2
:103860001296ED91FC911397309719F12091B20DBA
:1038700043EB5DE065E019951CC085EA8093BC00D0
:1038800018C08091B9008093210284E08093BC002D
:103890008091B00D9091B10DDC011296ED91FC91EB
:1038A0001397309731F020E040E050E06091210222
:1038B0001995FF91EF91BF91AF919F918F917F915A
:1038C0006F915F914F913F912F910F900BBE0F9091
:1038D0000FBE0F901F901895FC01411102C00E946D
:1038E000F924842F90E09C012150310982239323F5
:1038F000892B11F00E94F924413810F00E94F9241C
:10390000128213824483440F415045837183608344
:1039100080E090E008952F923F924F925F926F92D5
:103920007F928F929F92AF92BF92CF92DF92EF924F
:10393000FF920F931F93CF93DF93CDB7DEB76097BE
:103940000FB6F894DEBF0FBECDBF7C011B016A012C
:10395000FC0117821682838181FF2EC39E012F5F97
:103960003F4F3901F7019381F10193FD859193FF59
:1039700081911F01882309F41BC3853239F493FD1B
:10398000859193FF81911F01853239F4B70190E051
:103990000E94FB2556016501E5CF10E0512C912CCA
:1039A000FFE1F915D8F08B3279F038F4803279F0F4
:1039B0008332A1F4F92DF0612EC08D3261F0803395
:1039C00069F4292D21602DC0392D3260932E892D67
:1039D0008460982E2AC0E92DE86015C097FC2DC0A0
:1039E00020ED280F2A3088F496FE06C03AE0139F97
:1039F000200D1124122F19C08AE0589E200D112489
:103A0000522EE92DE0629E2E10C08E3231F496FCCB
:103A1000CFC2F92DF0649F2E08C08C3621F4292DD9
:103A20002068922E02C0883641F4F10193FD859101
:103A300093FF81911F018111B3CF9BEB980F9330BE
:103A400020F4992D9061805E07C09BE9980F933018
:103A500008F05CC1992D9F7E96FF16E09F73992E0A
:103A6000853619F49064992E08C0863621F4392FD2
:103A70003068932E02C01111115097FE07C01C33FD
:103A800050F444244394410E27E00BC0183038F022
:103A900027E017E005C027E09CE3492E02C0212F54
:103AA000412C560184E0A80EB11CF60160817181A1
:103AB00082819381042DA301A0D76C01F981FC8739
:103AC000F0FF02C0F3FF06C091FC06C092FE06C0E4
:103AD00000E205C00DE203C00BE201C000E08C85EE
:103AE0008C7019F0011146C283C297FE10C04C0CB5
:103AF000FC85F4FF04C08A81813309F44A941414CC
:103B000074F528E0241578F588E0482E2CC096FC42
:103B10002AC0812F90E08C159D059CF03CEFC316C8
:103B20003FEFD30674F0892D8068982E0AC0E2E03A
:103B3000F0E0EC0FFD1FE10FF11D8081803319F4DF
:103B400011501111F4CF97FE0EC044244394410E3E
:103B5000812F90E0C816D9062CF41C1904C0442407
:103B6000439401C010E097FE06C01C141D0434F4F9
:103B7000C601019605C085E090E002C081E090E0BA
:103B800001110196112331F0212F30E02F5F3F4FBB
:103B9000820F931F252D30E08217930714F4581AD3
:103BA00001C0512C892D897049F4552039F0B70195
:103BB00080E290E00E94FB255A94F7CF002329F081
:103BC000B701802F90E00E94FB2593FC09C055208F
:103BD00039F0B70180E390E00E94FB255A94F7CFBB
:103BE00097FE4AC04601D7FE02C0812C912CC60127
:103BF00088199909F301E80FF91FFE87ED879601EF
:103C000024193109388B2F87012F10E01195019568
:103C100011093FEF8316930621F4B7018EE290E07D
:103C2000EAD7C814D9044CF08F859889881599056E
:103C300024F4ED85FE85818101C080E3F1E08F1AD7
:103C400091082D853E852F5F3F4F3E872D8780163B
:103C5000910624F0B70190E0CED7DBCFC814D90489
:103C600041F49A81963320F4953319F43C8534FF5E
:103C700081E3B70190E048C08A81813319F09C85C7
:103C80009F7E9C87B70190E0B6D7111105C094FCC8
:103C900016C085E690E015C0B7018EE290E0ABD784
:103CA0001E5F82E001E0080FF301E80FF11D808143
:103CB000B70190E0A0D7802F0113F4CFE8CF85E4BF
:103CC00090E0B70198D7D7FC06C0C114D10441F4E5
:103CD000EC85E4FF05C0D194C194D1088DE201C008
:103CE0008BE2B70190E087D780E32AE0C216D104C7
:103CF0002CF08F5FFAE0CF1AD108F7CFB70190E030
:103D00007AD7B701C601C09676D749C1833631F05C
:103D1000833779F0833509F052C01FC0560132E075
:103D2000A30EB11CF6018081898301E010E06301DC
:103D300011C05601F2E0AF0EB11CF601C080D18077
:103D400096FE03C0612F70E002C06FEF7FEFC601E7
:103D500047D78C01F92DFF7713C0560122E0A20E40
:103D6000B11CF601C080D18096FE03C0612F70E0C7
:103D700002C06FEF7FEFC60118D78C01F92DF068F4
:103D80009F2EF3FD18C0852D90E00817190798F4B1
:103D9000B70180E290E02FD75A94F5CFF60197FC57
:103DA000859197FE81916F01B70190E024D7511062
:103DB0005A94015011090115110581F7F0C084369C
:103DC00011F0893659F5560197FE09C024E0A20E7C
:103DD000B11CF60160817181828193810AC0F2E099
:103DE000AF0EB11CF60160817181072E000C880BAB
:103DF000990BF92DFF769F2E97FF09C0909580951E
:103E0000709561957F4F8F4F9F4FF0689F2E2AE0EE
:103E100030E0A30170D7C82EC6183EC0092D8537E3
:103E200021F40F7E2AE030E01DC0097F8F3691F02B
:103E300018F4883559F0BCC0803719F0883711F074
:103E4000B7C0006104FF09C0046007C094FE08C049
:103E5000066006C028E030E005C020E130E002C086
:103E600020E132E0560107FF09C084E0A80EB11C32
:103E7000F601608171818281938108C0F2E0AF0E0A
:103E8000B11CF6016081718180E090E0A30133D71D
:103E9000C82EC6180F77902E96FE0BC0092D0E7FE8
:103EA000C11650F494FE0AC092FC08C0092D0E7E83
:103EB00005C0DC2C092D03C0DC2C01C0D12E04FF71
:103EC0000DC0FE01EC0DF11D8081803311F4097EDF
:103ED00009C002FF06C0D394D39404C0802F867813
:103EE00009F0D39403FD10C000FF06C01C2DD514AB
:103EF00078F4150D1D190CC0D51450F4B70180E2EB
:103F000090E079D6D394F8CFD51410F45D1801C0A1
:103F1000512C04FF0FC0B70180E390E06CD602FF84
:103F200016C001FD03C088E790E002C088E590E07C
:103F3000B7010CC0802F867851F001FF02C08BE2E0
:103F400001C080E207FD8DE2B70190E054D6C116B2
:103F500030F4B70180E390E04ED61150F8CFCA9408
:103F6000F301EC0DF11D8081B70190E044D6C11042
:103F7000F6CF15C0F4E0F51550F584E0581A93FE1D
:103F80001EC0011125C02C8523FF27C00CE112E0C3
:103F9000392D3071932EF8018491811121C0552063
:103FA00009F4F9CCB70180E290E025D65A94F7CF16
:103FB000F7018681978123C08FEF9FEF20C0B70163
:103FC00080E290E018D65A945110F9CFDACF512CF4
:103FD000B701802F90E00FD6D6CF00E212E0D8CF05
:103FE00091108052B70190E006D60F5F1F4FD3CFDC
:103FF00023E0251510F483E0C1CF512CC4CF609687
:104000000FB6F894DEBF0FBECDBFDF91CF911F91E9
:104010000F91FF90EF90DF90CF90BF90AF909F9067
:104020008F907F906F905F904F903F902F9008956A
:104030005058BB27AA270ED065C156D130F05BD1AE
:1040400020F031F49F3F11F41EF44BC10EF4E095C3
:10405000E7FB18C1E92F0E94D31278F3BA17620761
:1040600073078407950720F079F4A6F50C94F512F0
:104070000EF4E0950B2EBA2FA02D0B01B901900183
:104080000C01CA01A0011124FF27591B99F0593FC7
:1040900050F4503E68F11A16F040A22F232F342F0F
:1040A0004427585FF3CF469537952795A795F0405D
:1040B0005395C9F77EF41F16BA0B620B730B840B72
:1040C000BAF09150A1F0FF0FBB1F661F771F881F2A
:1040D000C2F70EC0BA0F621F731F841F48F4879582
:1040E00077956795B795F7959E3F08F0B1CF939573
:1040F000880F08F09927EE0F9795879508950DD0B2
:1041000001C1F9D048F0F0D038F021F45F3F21F040
:10411000B9C051110C94F612E4C00E94D31288F376
:104120009923B9F35523A1F3951B550BBB27AA2758
:1041300062177307840738F09F5F5F4F220F331FAA
:10414000441FAA1FA9F334D00E2E3AF0E0E831D074
:1041500091505040E695001CCAF72AD0FE2F28D077
:10416000660F771F881FBB1F261737074807AB0747
:10417000B0E809F0BB0B802DBF01FF2793585F4FBC
:1041800032F09E3F510570F07DC00C94F6125F3FF7
:10419000E4F3983ED4F3869577956795B795F795B0
:1041A0009F5FC9F7880F911D9695879597F9089598
:1041B000E1E0660F771F881FBB1F62177307840734
:1041C000BA0720F0621B730B840BBA0BEE1F88F743
:1041D000E09508950E94A7126894B1110C94F6120C
:1041E0000895E89409C097FB3EF4909580957095EA
:1041F00061957F4F8F4F9F4F9923A9F0F92F96E933
:10420000BB279395F695879577956795B795F111A7
:10421000F8CFFAF4BB0F11F460FF1BC06F5F7F4F44
:104220008F4F9F4F16C0882311F096E911C0772356
:1042300021F09EE8872F762F05C0662371F096E85F
:10424000862F70E060E02AF09A95660F771F881F2E
:10425000DAF7880F9695879597F9089564D088F0D6
:104260009F3748F4911116F00C94F61260E070E05C
:1042700080E89FEB089526F41B16611D711D811DBA
:1042800007C021C097F99F6780E870E060E008955B
:10429000882371F4772321F09850872B762F07C05D
:1042A000662311F499270DC09051862B70E060E0D1
:1042B0002AF09A95660F771F881FDAF7880F969570
:1042C000879597F908959F3F31F0915020F4879595
:1042D00077956795B795880F911D9695879597F96E
:1042E00008959FEF80EC089500240A94161617068F
:1042F00018060906089500240A94121613061406D7
:1043000005060895092E0394000C11F4882352F039
:10431000BB0F40F4BF2B11F460FF04C06F5F7F4FF1
:104320008F4F9F4F08950E94DB12A0F0BEE7B91790
:1043300088F4BB279F3860F41616B11D672F782FBD
:104340008827985FF7CF869577956795B11D9395E8
:104350009639C8F308950CD0D5CFC6DF28F0CBDF4F
:1043600018F0952309F08ECFBCCF11240C94F612CF
:104370000E94D31290F3959FC1F3950F50E0551F03
:10438000629FF001729FBB27F00DB11D639FAA27AA
:10439000F00DB11DAA1F649F6627B00DA11D661FF9
:1043A000829F2227B00DA11D621F739FB00DA11D1A
:1043B000621F839FA00D611D221F749F3327A00DD4
:1043C000611D231F849F600D211D822F762F6A2F70
:1043D00011249F57504092F0E9F088234AF0EE0FE5
:1043E000FF1FBB1F661F771F881F91505040A9F702
:1043F0009E3F510578F046CF0C94F6125F3FE4F3F0
:10440000983ED4F3869577956795B795F795E79598
:104410009F5FC1F7FE2B880F911D9695879597F9A1
:104420000895FA01EE0FFF1F30962105310599F12D
:104430006115710561F48038BFE39B0749F1689409
:104440009038810561F08038BFEF9B0741F09923D8
:1044500042F5FF3FE1053105210511F1E89408948B
:10446000E795D901AA2329F4AB2FBE2FF85FD0F32B
:1044700010C0FF5F70F4A695E0F7F73950F019F01F
:10448000FF3A38F49F779F930CD00F9007FC905819
:1044900008953EF026CF60E070E080E89FE3089545
:1044A0004FE79F775F934F933F932F93A2D02F9126
:1044B0003F914F915F914FDF06C021F40EF0E2CEA5
:1044C0000C94F5120ECF0E94DB12B8F39638B0F7B9
:1044D00007F80F92E8942BE33AEA48EB5FE74BDFEB
:1044E0000F920F920F924DB75EB70F92C3D0EAE9C9
:1044F000F1E016D04F915F91EF91FF91E595EE1F9E
:10450000FF1F49F0FE57E0684427EE0F441FFA955D
:10451000E1F74195550B32D00F9007FE26C0089564
:10452000DF93CF931F930F93FF92EF92DF927B0164
:104530008C01689405C0DA2EEF011ADFFE01E894C1
:10454000A5912591359145915591AEF3EF0182DD0D
:10455000FE019701A801DA9479F7DF90EF90FF90C0
:104560000F911F91CF91DF9108959B01AC0160E005
:1045700070E080E89FE3C3CD85CEA5CE0E94DB121C
:10458000E0F39923D1F3940F511DB3F391505040B0
:1045900094F059F0882332F0660F771F881F9150EE
:1045A0005040C1F79E3F51053CF7880F911D9695ED
:1045B000879597F908955F3FACF0983E9CF0BB2734
:1045C000869577956795B79508F4B1609395C1F78F
:1045D000BB0F58F711F460FFE8CF6F5F7F4F8F4F2D
:1045E0009F4FE3CF0C94F6120EF06DCE7ACE689406
:1045F00049CE0E94DB12C0F39923C9F3BEF3DF93C7
:10460000CF931F930F93FF92C92FDD2788232AF0A2
:104610002197660F771F881FDAF720E030E040E827
:104620005FEB9FE3883920F0803E30F021968F7752
:1046300000DDE2ECF1E003C0FCDCEFEEF1E070DF66
:104640008B01BE01EC01FB2E6F5771097595771F29
:10465000880B990BC8DD28E132E741E35FE388DE90
:10466000AF2D9801AE01FF900F911F91CF91DF9177
:10467000F1DC48CEFA01DC01AA0FBB1F9B01AC01A3
:10468000BF5728F422273327442750781FC0B7513B
:1046900088F4AB2F0024469537952795011CA395E8
:1046A000D2F3002069F0220F331F441FB395DAF3D1
:1046B0000DD0BECC61307105A0E88A07B94630F450
:1046C0009B01AC016627772788279078309621F0E8
:1046D0002083318342835383089597FB072E16F47A
:1046E000009406D077FD08D035D007FC05D03EF405
:1046F000909581959F4F0895709561957F4F08958E
:10470000A1E21A2EAA1BBB1BFD010DC0AA1FBB1FD5
:10471000EE1FFF1FA217B307E407F50720F0A21B47
:10472000B30BE40BF50B661F771F881F991F1A94B4
:1047300069F760957095809590959B01AC01BD01DE
:10474000CF010895EE0FFF1F881F8BBF0790F691D2
:10475000E02D1994AA1BBB1B51E107C0AA1FBB1F68
:10476000A617B70710F0A61BB70B881F991F5A95FD
:10477000A9F780959095BC01CD0108950F931F93E3
:10478000CF93DF93869F8001879F100D969F100D1A
:104790001124C8010DD0EC01009721F0A80160E0C0
:1047A00070E017D2CE01DF91CF911F910F91089544
:1047B0000F931F93CF93DF938230910510F482E023
:1047C00090E0E091C20DF091C30D20E030E0A0E058
:1047D000B0E0309719F1408151810281138148176F
:1047E0005907C8F08417950769F4109731F01296AD
:1047F0000C93129713961C9327C00093C20D10932D
:10480000C30D22C02115310519F04217530718F4C2
:104810009A01BD01EF01DF01F801DBCF2115310560
:10482000F9F0281B390B2430310580F48A819B81F3
:104830006115710521F0FB019383828304C090937D
:10484000C30D8093C20DFE01329644C0FE01E20FFB
:10485000F31F8193919322503109398328833AC001
:104860002091C00D3091C10D232B41F42091020203
:10487000309103023093C10D2093C00D20910002AE
:10488000309101022115310541F42DB73EB7409119
:10489000040250910502241B350BE091C00DF091EC
:1048A000C10DE217F307A0F42E1B3F0B28173907A1
:1048B00078F0AC014E5F5F4F2417350748F04E0F7C
:1048C0005F1F5093C10D4093C00D8193919302C01F
:1048D000E0E0F0E0CF01DF91CF911F910F910895BB
:1048E000CF93DF93009709F481C0FC0132971382C4
:1048F0001282A091C20DB091C30D109781F4208156
:104900003181820F931F2091C00D3091C10D281766
:10491000390751F5F093C10DE093C00D67C0ED016B
:1049200020E030E0CE17DF0740F44A815B819E0132
:1049300041155105F1F0EA01F5CFD383C2834081DF
:104940005181840F951FC817D90759F4888199811F
:10495000840F951F0296918380838A819B81938324
:1049600082832115310529F4F093C30DE093C20D24
:104970003DC0E901FB83EA8349915991C40FD51FDA
:10498000EC17FD0761F480819181840F951F0296D9
:10499000E90199838883828193819B838A83E0E004
:1049A000F0E012968D919C911397009719F0FD01FC
:1049B000DC01F7CF8D919C9111979D012E5F3F4FA8
:1049C000820F931F2091C00D3091C10D2817390718
:1049D00069F4309729F41092C30D1092C20D02C0F1
:1049E00013821282B093C10DA093C00DDF91CF91BD
:1049F000089581E090E0F894DCC1283008F027E0C9
:104A00003327DA01990F311D87FD9160009661050A
:104A1000710539F432602E5F3D9330E32A95E1F75A
:104A200008959F3F30F080387105610509F03C5FC3
:104A30003C5F3D93913008F08068911DDF93CF93E8
:104A40001F930F93FF92EF92192F987F9695E92F5E
:104A500096959695E90FFF27E258FD4F9927332742
:104A6000EE24FF24A701E70105900894079428F499
:104A7000360FE71EF81E491F511D660F771F881F4E
:104A8000991F0694A1F70590079428F4E70EF81EE5
:104A9000491F561FC11D770F881F991F661F069457
:104AA000A1F70590079428F4F80E491F561FC71F59
:104AB000D11D880F991F661F771F0694A1F70590D7
:104AC000079420F4490F561FC71FD81F990F661F60
:104AD000771F881F0694A9F784911095177041F0ED
:104AE000D695C79557954795F794E7941A95C1F7CA
:104AF000E4E2F2E0689415901591359165919591F5
:104B000005907FE27395E118F10A430B560BC90B30
:104B1000D009C0F7E10CF11E431F561FC91FD01D5D
:104B20007EF4703311F48A95E6CFE894015030F0AA
:104B3000080F0AF40027021708F4202F2395022FEC
:104B40007A3328F079E37D932A95E9F710C07D93B5
:104B50002A9589F606949795679537951795179432
:104B6000E118F10A430B560BC90BD00998F02395B5
:104B70007E9173957A3308F070E37C932013B8F735
:104B80007E9170617D9330F0839571E37D9370E346
:104B90002A95E1F71124EF90FF900F911F91CF918B
:104BA000DF91992787FD90950895FC01059061504C
:104BB00070400110D8F7809590958E0F9F1F089533
:104BC000FB01DC0102C001900D9241505040D8F72A
:104BD0000895DC0101C06D9341505040E0F7089505
:104BE000FC016150704001900110D8F780959095BC
:104BF0008E0F9F1F08950F931F93CF93DF93FB0199
:104C0000238121FD03C08FEF9FEF2CC022FF16C030
:104C100046815781248135814217530744F4A0818E
:104C2000B1819D012F5F3F4F318320838C9326817B
:104C300037812F5F3F4F3783268314C08B01EC01F0
:104C4000FB010084F185E02D1995892BE1F6D8014F
:104C500016968D919C911797019617969C938E931B
:104C60001697CE01DF91CF911F910F910895CF93A9
:104C7000DF93CDB7DEB7AE014A5F5F4FFA016191B6
:104C80007191AF018091C60D9091C70D0E948B1C50
:104C9000DF91CF9108950F931F93CF93DF93E0910E
:104CA000C60DF091C70D238121FF1BC08C01D0E000
:104CB000C0E0F80181918F016091C60D7091C70D20
:104CC000DB011896ED91FC911997882331F0199525
:104CD000892B79F3DFEFCFEFECCF8AE01995892BA1
:104CE00019F08FEF9FEF02C08D2F9C2FDF91CF9196
:104CF0001F910F910895FA01AA27283051F1203110
:104D000081F1E8946F936E7F6E5F7F4F8F4F9F4F5F
:104D1000AF4FB1E03ED0B4E03CD0670F781F891FA1
:104D20009A1FA11D680F791F8A1F911DA11D6A0F6F
:104D3000711D811D911DA11D20D009F468943F9122
:104D40002AE0269F11243019305D3193DEF6CF0121
:104D50000895462F4770405D4193B3E00FD0C9F7E7
:104D6000F6CF462F4F70405D4A3318F0495D31FD54
:104D70004052419302D0A9F7EACFB4E0A6959795A7
:104D8000879577956795BA95C9F70097610571057D
:104D900008959B01AC010A2E0694579547953795C7
:104DA0002795BA95C9F7620F731F841F951FA01D21
:064DB0000895F894FFCF06
:104DB6000000CA0D20000900400040C600CE00D603
:104DC6000036010000000300000000791864180096
:104DD60000F849444C4500546D72205376630045F3
:104DE60072726F72207768696C652077616B696E85
:104DF60067207570207468652073656E736F720026
:104E06002566002564005461736B20332054656D5C
:104E1600700050726F6772616D2073746172746591
:104E2600642E0048756D69646974792654656D70E1
:104E3600657261747572652073656E736F72206931
:104E46006E697469616C697A65642E00FC60DAF2D9
:104E560066B6BEE0FEE6EE3E1A7A9E8E00010203BC
:044E66000001020045
:00000001FF
