:1000000066C1000085C1000083C1000081C10000FD
:100010007FC100007DC100007BC1000079C10000EC
:1000200077C1000075C1000073C1000071C10000FC
:100030000C94C0096DC100006BC1000069C10000D3
:1000400067C1000065C1000063C1000061C100001C
:100050005FC100005DC100005BC1000059C100002C
:1000600057C100000C9438290C948A2951C1000012
:100070004FC100004DC100004BC1000049C100004C
:1000800047C1000045C1000043C1000041C100005C
:100090000C94CE290C94202A3BC100000C94B82C5F
:1000A00037C1000035C1000033C1000031C100007C
:1000B0002FC100002DC100002BC1000029C100008C
:1000C00027C1000025C1000023C100000C94642A50
:1000D0000C94B62A1DC100000C94FA2A0C944C2BE7
:1000E00017C100009A1F9A1F9A1FD11FD91FEE1F18
:1000F0009A1F9A1FD11FD91FDA2C4A2D4A2D4A2D3B
:100100004A2D4A2D4A2D4A2DDA2C4A2D4A2D4A2DA8
:100110004A2D4A2D4A2D4A2DDC2C4A2D4A2D4A2D96
:100120004A2D4A2D4A2D4A2D4A2D4A2D4A2D4A2D17
:100130004A2D4A2D4A2D4A2DDC2C4A2D4A2D4A2D76
:100140004A2D4A2D4A2D4A2D4A2D4A2D4A2D4A2DF7
:100150004A2D4A2D4A2D4A2D462D4A2D4A2D4A2DEB
:100160004A2D4A2D4A2D4A2D112D4A2D4A2D4A2D10
:100170004A2D4A2D4A2D4A2D4A2D4A2D4A2D4A2DC7
:100180004A2D4A2D4A2D4A2D052D4A2D4A2D4A2DFC
:100190004A2D4A2D4A2D4A2D292D6E616E00696E19
:1001A000660000407A10F35A00A0724E1809001041
:1001B000A5D4E80000E87648170000E40B540200DC
:1001C00000CA9A3B000000E1F50500008096980007
:1001D000000040420F000000A08601000000102730
:1001E00000000000E80300000000640000000000C0
:1001F0000A00000000000100000000002C76D888F2
:10020000DC674F0823DFC1DFAE59E1B1B796E5E304
:10021000E453C63AE651997696E8E6C28426EB891D
:100220008C9B62ED407C6FFCEFBC9C9F40F2BAA5BA
:100230006FA5F490055A2AF75C936B6CF9676DC152
:100240001BFCE0E40D47FEF520E6B500D0ED902E56
:100250000300943577050080841E080000204E0AB4
:10026000000000C80C333333330F986E12831141F2
:10027000EF8D2114893BE65516CFFEE6DB18D184BD
:100280004B381BF77C1D901DA4BBE42420328472E4
:100290005E228100C9F124ECA1E53D270E94DB111B
:1002A0008091EF11823008F0A5D70E941720F6CF79
:1002B000CF93DF931F92CDB7DEB7CE0101960E9498
:1002C000171D49810E940C1F0E94631FF6CF112445
:1002D0001FBECFEFD1E2DEBFCDBF00E00CBF17E005
:1002E000A0E0B2E0E0E0FBE600E00BBF02C0079058
:1002F0000D92AE39B107D9F723E1AEE9B7E001C0FD
:100300001D92A93BB207E1F70E94B4200C947E3500
:1003100077CE90939E1380939D130895CF93DF9390
:1003200000D01F92CDB7DEB75C010E942C13698309
:100330007A838B839C8340EE53E060E070E0CE01D3
:1003400001960E94421540919F135091A013609115
:10035000A1137091A213CC24CA94DC2C760101E085
:1003600020E08091A5139091A613EFD30E94C62799
:1003700080939C138111DFCF8091A3139091A413DC
:100380000097C9F24AE050E060E070E00E948C0CF7
:10039000813021F580919D1390919E13F5019183F9
:1003A000808380919E138F9380919D138F938FE60E
:1003B00092E09F938F930E94AF3400E020E030E002
:1003C000A90160E070E08091A3139091A4130E94B2
:1003D000120B0F900F900F900F90ADCF86E792E029
:1003E0009F938F930E94AF340F900F90A4CFFC0186
:1003F000808191810895EF92FF920F93CF93DF93C5
:10040000082FEB0140919F135091A0136091A1130D
:100410007091A2138091A5139091A61336D4E12C6C
:10042000F12C9E0144E251E067E972E08EE891E030
:100430000E94A2128FE992E00E94C234DF91CF9114
:100440000F91FF90EF9008958F929F92AF92BF927D
:10045000CF92DF92EF92FF920F931F93CF93DF9390
:100460007C016B0149015A0182E090E00E94013257
:10047000EC01892BF9F019821882D092A613C09250
:10048000A51380929F139092A013A092A113B092F3
:10049000A2131093A4130093A31383E00E949C273C
:1004A00089E891E00E94C127BE01C701A4DF8C2F1B
:1004B0009D2F02C080E090E0DF91CF911F910F91BE
:1004C000FF90EF90DF90CF90BF90AF909F908F9074
:1004D0000895EF92FF920F93CF93DF93082FEB01D4
:1004E0008FEA92E09F938F930E94AF34E12CF12C1E
:1004F0009E0148E851E06AEB72E089EB92E00E94CD
:10050000A2120F900F90DF91CF910F91FF90EF907B
:1005100008950F931F93CF93DF93EC0184ED92E046
:100520009F938F930E94AF340FEF1FEF980146E126
:1005300050E06EE977E0CE010E940710EEE9F7E0A7
:10054000918180811F929F931F928F938FED92E0F4
:100550009F938F930E94AF348DB79EB708960FB6C6
:10056000F8949EBF0FBE8DBFDF91CF911F910F9169
:100570000895EC01CE01CDDFFDCF0F93CF93DF9334
:100580002091A3133091A4132115310549F1EC01F9
:100590004AE050E060E070E0C9010E948C0C8130BC
:1005A000B9F40E94BD22688379838A839B830E9469
:1005B000B4229D838C8300E020E030E0A90160E05C
:1005C00070E08091A3139091A4130E94120B08C0B5
:1005D00086E792E09F938F930E94AF340F900F9025
:1005E000DF91CF910F910895CF93DF9300D01F92A9
:1005F000CDB7DEB75C010E942C1369837A838B83AD
:100600009C8342EA53E060E070E0CE0101960E94D4
:1006100042150E947A22882321F080E193E00E9413
:10062000C23440919F135091A0136091A113709117
:10063000A213CC24CA94DC2C760101E020E0809146
:10064000A5139091A61381D264E070E080E090E061
:100650000E94A7150E948F2260E070E0CB010E94EB
:10066000A715C5018ADFCDCFEF92FF920F93CF93ED
:10067000DF93EC01062F40919F135091A0136091DE
:10068000A1137091A2138091A5139091A613FDD28E
:10069000E12CF12C9E0140EC50E06AE273E084EF23
:1006A00092E00E94A212DF91CF910F91FF90EF9004
:1006B00008958F929F92AF92BF92CF92DF92EF9266
:1006C000FF920F931F93CF93DF937C016B0149013E
:1006D0005A0186E090E00E940132EC01892B21F161
:1006E000188219821A821B821D821C82D092A61344
:1006F000C092A51380929F139092A013A092A11371
:10070000B092A2131093A4130093A3130E94622229
:10071000811104C08BE393E00E94C234B701CE0183
:10072000A3DF8C2F9D2F02C080E090E0DF91CF915E
:100730001F910F91FF90EF90DF90CF90BF90AF90FF
:100740009F908F900895FC016081718182819381D7
:100750000895FC018481958108950F931F93CF9391
:10076000DF93CDB7DEB764970FB6F894DEBF0FBE48
:10077000CDBF0E9443240E94C0269F938F9384E59F
:1007800093E09F938F930E94AF340E94C1250E94F3
:10079000C0269F938F9387E693E09F938F930E9449
:1007A000AF348E010F5F1F4FC8010E9455240E9475
:1007B000C0261F930F939F938F9380E893E09F939E
:1007C0008F930E94AF34C8010E9471240E94C026FA
:1007D0009F938F931F930F9384E993E09F938F933D
:1007E0000E94AF34A80169EA73E08AEC93E00E94AA
:1007F0009F260E94C0269F938F931F930F9389EA91
:1008000093E09F938F938AEC93E09F938F938BED6C
:1008100093E09F938F930E94AF340E94A4240E9480
:10082000C0269F938F9381E194E09F938F930E94C2
:10083000AF340FB6F894DEBF0FBECDBF81E00E948B
:100840009E250E94C0269F938F9380E294E09F9301
:100850008F930E94AF3484EF91E00E94A9250E94FB
:10086000C0269F938F9381E08F9384EF8F9381E4D1
:1008700094E09F938F930E94AF340FB6F894DEBF3D
:100880000FBECDBF1AE080E00E94AA24082F0E946C
:10089000C0269F938F931F921F9381E694E09F93AE
:1008A0008F930E94AF340F900F900F900F900F9086
:1008B0000F90083041F066E371E080E090E00E9424
:1008C000A715115001F7083011F094D4FECF6496AB
:1008D0000FB6F894DEBF0FBECDBFDF91CF911F9151
:1008E0000F910895CF93DF93CDB7DEB728970FB65A
:1008F000F894DEBF0FBECDBF81E00E94352462E0D8
:1009000070E080E090E00E94A71580E00E9435240E
:1009100066E970E080E090E00E94A7150E94EE2357
:100920001CDF0E942C1369837A838B839C8344E4AD
:1009300057E060E070E0CE0101960E944215E4EBC2
:10094000F7E085E0818381E080838091A31390911B
:10095000A413009709F445C04AE050E060E070E05D
:10096000DBD7813069F58091A9139091AA13EBDE52
:10097000962E172FB82EA92E8091A9139091AA1305
:10098000E8DE9C01ADECBCEC0E94F2317C01F694F7
:10099000E794F694E794F694E7948091A7139091E6
:1009A000A81325DDD82EC92E00E020E030E0A901F3
:1009B00060E070E08091A3139091A41333D619C026
:1009C00086E792E09F938F930E94AF340F900F9031
:1009D000D12CC12CE12CF12C912C10E0B12CA12CAC
:1009E00008C0D12CC12CE12CF12C912C10E0B12CA1
:1009F000A12C1D821E821F821886AE014B5F5F4FA5
:100A0000692D712F8B2D9A2D0E94122120E030E04C
:100A100048EC52E40E9445212B013C01AF92BF9269
:100A20001F939F9281E894E09F938F930E94AF342D
:100A30006D817E818F8198850E94B82004EB17E03C
:100A4000F8016283C301B2010E94B820F8016383F8
:100A5000FF92EF928BE894E09F938F930E94AF34C4
:100A6000F801E482CF92DF9289E994E09F938F931B
:100A70000E94AF34F801C582D682B80180E00E949E
:100A8000D3240E94C0269F938F9382EA94E09F9381
:100A90008F930E94AF340FB6F894DEBF0FBECDBF68
:100AA00046CFEF92FF920F937093AA136093A9130E
:100AB0005093A8134093A7133093A4132093A31328
:100AC000E12CF12C082F20E030E048E851E067EB02
:100AD00074E082E794E00E94A2120F91FF90EF90E1
:100AE00008950F9301110CC0DC01CB0182239323E5
:100AF000A423B523892B8A2B8B2B79F480E010C09B
:100B0000DC01CB0182239323A423B52328173907C3
:100B10004A075B0721F080E003C081E001C081E06B
:100B20000F910895CF93DF938FE090E0AFD1EC0168
:100B3000009739F0FC011192119211921192CF019C
:100B40008BD2CE01DF91CF9108952F923F924F9299
:100B50005F926F927F928F929F92AF92BF92CF924D
:100B6000DF92EF92FF920F931F93CF93DF93EC01ED
:100B70004A015B01622E702E0E9426132880398064
:100B80004A805B80A5019401C201B101AADF8823DC
:100B9000A1F0662089F1D501C40180959095A095BA
:100BA000B09582219321A421B52188839983AA83BA
:100BB000BB83C12CD12C760122C0C114D104E10425
:100BC000F104E9F0611004C040E050E0BA0104C053
:100BD00040E050E060E071E07110746048295929EC
:100BE0006A297B2997018601CE0104960E943E1650
:100BF000212C312C210103C0C12CD12C76010E9463
:100C00006614CD28CE28CF2859F1811101C0F2D227
:100C10000E94001A6B017C0191FD1FC00FB6F89471
:100C20000F92C880D980EA80FB80072DA50194012E
:100C3000C701B60156DF882371F0662061F0809409
:100C40009094A094B0948C209D20AE20BF208882E8
:100C50009982AA82BB820F900FBE160127015524EC
:100C6000C201B101DF91CF911F910F91FF90EF90E1
:100C7000DF90CF90BF90AF909F908F907F906F90BC
:100C80005F904F903F902F9008954F925F926F9298
:100C90007F92AF92BF92CF92DF92EF92FF920F932B
:100CA0001F93CF93DF93EC016A017B018C01095FF5
:100CB0001F4F0E942613EB85FC8588819981AA81AC
:100CC000BB81C82AD92AEA2AFB2AC882D982EA82A9
:100CD000FB82C12CD12C76013DC0A480B5808081DF
:100CE0009181A281B381AC01BD017727B2FD0EC015
:100CF000488059806A807B80442255226622772270
:100D000045284628472889F420E012C048805980A9
:100D10006A807B804422552266227722441555053D
:100D20006605770521F020E003C021E001C021E045
:100D3000222371F0B0FF04C0C42AD52AE62AF72A7C
:100D4000488159816A817B817260CF010E94791745
:100D5000EA2DFB2DE017F10709F0BFCFC094D09426
:100D6000E094F09488819981AA81BB81C822D9221C
:100D7000EA22FB22C882D982EA82FB820E946614A0
:100D8000688179818A819B81DF91CF911F910F9139
:100D9000FF90EF90DF90CF90BF90AF907F906F90DB
:100DA0005F904F900895E6EDF7E0AAEDB7E0B183CC
:100DB000A08313821282EAE9F1E1F093D507E09370
:100DC000D407138212821182108280EC99E013966C
:100DD0009C938E931297ED93FC939093D1078093FD
:100DE000D0079093D3078093D20780E090E8909348
:100DF000CB078093CA070895CF93DF93EC01A6ED4C
:100E0000B7E001C0DF01ED91FC911197EC17FD07F0
:100E1000C8F312968D919C9113979D01280F391F4D
:100E2000C217D30749F42A813B81820F931F13967F
:100E30009C938E931297ED018A819B819E01280FCE
:100E4000391FE217F307C1F42091D4073091D50779
:100E5000E217F30771F022813381820F931F9B8386
:100E60008A83ED91FC911197808191819983888388
:100E700005C03983288302C0F983E883CA17DB07DA
:100E800011F0CD93DC93DF91CF910895EF92FF9213
:100E90000F931F93CF93DF938C010E9426138091B1
:100EA000D4079091D507892B09F47DDF8091CA077B
:100EB0009091CB0780239123892B09F076C00115EF
:100EC000110549F0C80104960817190718F000E049
:100ED00010E001C08C010115110509F469C0809171
:100EE000D2079091D3078017910708F464C0C0918E
:100EF000D607D091D707E6EDF7E002C0FE01EC017E
:100F00008A819B818017910720F4888199810097BD
:100F1000A9F78091D4079091D507C817D90709F48C
:100F20004DC0E080F18084E0E80EF11C8881998159
:100F3000918380832A813B81201B310B293031052D
:100F400048F0CE01800F911FFC01338322831B8365
:100F50000A8352DF2A813B818091D2079091D30787
:100F6000821B930B9093D3078093D2074091D007B5
:100F70005091D1078417950720F49093D10780935F
:100F8000D0078091CA079091CB07282B392B3B8340
:100F90002A83198218828091CE079091CF070196FB
:100FA0009093CF078093CE070BC0E12CF12C08C0A3
:100FB000E12CF12C05C0E12CF12C02C0E12CF12C2C
:100FC0000E946614E114F10411F40E942320C70169
:100FD000DF91CF911F910F91FF90EF9008950F93A4
:100FE0001F93CF93DF93009791F1EC0124974A81EF
:100FF0005B812091CA073091CB07BA01622373232A
:10100000672B29F168817981672B09F52095309547
:10101000242335233B832A830E9426138A819B81C4
:101020002091D2073091D307820F931F9093D3075B
:101030008093D207CE01E0DE8091CC079091CD075E
:1010400001969093CD078093CC070E946614DF91A0
:10105000CF911F910F910895FC0103969283818394
:101060004FEF5FEFBA0143835483658376839087A4
:1010700087839287818710820895FC0113861286E8
:1010800008950F931F93CF93DF93EB01088119818C
:101090002A813B810F3F4FEF14072407340721F4C7
:1010A000FC01A185B28511C0DC01139601C0DF01EE
:1010B0001496ED91FC911597408151816281738165
:1010C000041715072607370790F71496ED91FC9142
:1010D0001597FD83EC83D783C683BF83AE831596B4
:1010E000DC93CE9314979B878A87FC0120812F5F26
:1010F0002083DF91CF911F910F910895CF93DF93BC
:10110000FC01A285B385C481D581868197819F83A7
:101110008E83C681D781848195819D838C8311962E
:101120008D919C911297E817F90731F48681978188
:1011300012969C938E931197138612868C918150F0
:101140008C938C91DF91CF910895A89590EC88E1D4
:101150000FB6F894A895809360000FBE909360003E
:101160000895FC0160833197708331971082319725
:101170001082319720E820833197108231971082B6
:1011800031971082779740833197508386970895DF
:10119000DCDFA0915D12B0915E12CD91CDBFDD91EB
:1011A000DEBFFF91EF91DF91CF91BF91AF919F9102
:1011B0008F917F916F915F914F913F912F911F91EF
:1011C0000F91FF90EF90DF90CF90BF90AF909F90E6
:1011D0008F907F906F905F904F903F902F901F90D7
:1011E0000F900CBE0F900BBE0F900FBE0F90089586
:1011F00081E008950F920FB6F8940F920BB60F92FC
:101200000CB60F921F9211242F923F924F925F9231
:101210006F927F928F929F92AF92BF92CF92DF9206
:10122000EF92FF920F931F932F933F934F935F93F0
:101230006F937F938F939F93AF93BF93CF93DF93DE
:10124000EF93FF93A0915D12B0915E120DB60D92D7
:101250000EB60D920E94C215A0915D12B0915E1261
:10126000CD91CDBFDD91DEBFFF91EF91DF91CF91A9
:10127000BF91AF919F918F917F916F915F914F91AE
:101280003F912F911F910F91FF90EF90DF90CF90A2
:10129000BF90AF909F908F907F906F905F904F9096
:1012A0003F902F901F900F900CBE0F900BBE0F9091
:1012B0000FBE0F9008950F920FB6F8940F920BB6D1
:1012C0000F920CB60F921F9211242F923F924F92C1
:1012D0005F926F927F928F929F92AF92BF92CF92C6
:1012E000DF92EF92FF920F931F932F933F934F93B1
:1012F0005F936F937F938F939F93AF93BF93CF939E
:10130000DF93EF93FF93A0915D12B0915E120DB643
:101310000D920EB60D9213BE0E943A1381110E94D7
:10132000C215A0915D12B0915E12CD91CDBFDD913D
:10133000DEBFFF91EF91DF91CF91BF91AF919F9170
:101340008F917F916F915F914F913F912F911F915D
:101350000F91FF90EF90DF90CF90BF90AF909F9054
:101360008F907F906F905F904F903F902F901F9045
:101370000F900CBE0F900BBE0F900FBE0F900895F4
:101380009ADF1895DC0153962C915397222341F054
:101390005A96ED91FC915B9790818AE0891B0895A4
:1013A00080E008950FB6F8940F92FC01868D8111AC
:1013B00002C081E001C080E00F900FBE08950FB61B
:1013C000F8940F92FC01268D878D281302C081E0CE
:1013D00001C080E00F900FBE08950F931F93CF932D
:1013E000DF93EC01042F1E8D48A141110CC08881B0
:1013F0009981892B09F042C08C819D810E943E1900
:101400001D821C8242C0011117C050E08A819B815D
:101410000E94093428A18A819B81820F911D9B83A0
:101420008A832C813D818217930750F188819981AD
:101430009B838A8380E029C050E08E819F810E9437
:10144000093488A190E09195819591092E813F8181
:10145000280F391F3F832E83488159812417350770
:1014600030F42C813D81820F931F9F838E83023045
:1014700049F4112349F0115080E007C080E005C015
:1014800080E003C080E001C080E01F5F1E8FDF911D
:10149000CF911F910F910895FC0140A14423A9F021
:1014A00050E026813781240F351F378326838481BE
:1014B00095812817390720F0808191819783868351
:1014C000CB01668177810C94093408951F93CF93E3
:1014D000DF93EC010FB6F8940F921AA10BC08B8921
:1014E000882351F0CE0143960E94CA1681110E94B2
:1014F000A018115011169CF38FEF8AA30F900FBE06
:101500000FB6F8940F9219A10BC08885882351F06B
:10151000CE0108960E94CA1681110E94A01811508F
:1015200011169CF38FEF89A30F900FBEDF91CF911F
:101530001F910895CF93DF93EC010FB6F8940F92AB
:10154000E881F9818F8D28A190E030E0829FA00191
:10155000839F500D929F500D11244E0F5F1F5D838E
:101560004C831E8EFB83EA830197289FA001299F4D
:10157000500D389F500D1124CF01840F951F9F836C
:101580008E838FEF89A38AA361110BC0888588237E
:1015900071F0CE0108960E94CA16882341F02ADE17
:1015A00006C0CE01089658DDCE01439655DD0F905A
:1015B0000FBE81E0DF91CF9108950F931F93F80143
:1015C000611103C01183008302C051834083878F60
:1015D00060A361E0CF01AEDF1F910F910895DF920C
:1015E000EF92FF920F931F93CF93DF93F82EE62E87
:1015F000D42E869FC0011124839648DCEC0100970D
:1016000041F08C012D2DAC014D5D5F4F6E2D8F2D66
:10161000D4DFCE01DF91CF911F910F91FF90EF901A
:10162000DF900895CF92DF92EF92FF920F931F9376
:10163000CF93DF93CDB7DEB729970FB6F894DEBF0F
:101640000FBECDBF7C016B012E833F834887598736
:1016500010E00FB6F8940F92F701968D878D9817CA
:1016600010F00230B1F4402FB601C701B6DEF70129
:101670009389992341F0C70143960E94CA16882393
:1016800021F0B8DD02C08111B5DD0F900FBE81E001
:101690004CC08E819F81A885B985892B8A2B8B2B85
:1016A00021F40F900FBE80E040C0111105C0CE01A3
:1016B00001960E94291811E00F900FBEC7D70FB6F0
:1016C000F8940F92F70181A18F3F09F411A2F7015D
:1016D00082A18F3F09F412A20F900FBEBE016A5F74
:1016E0007F4FCE0101960E943A18811119C0C7019F
:1016F00066DE882381F04E815F8168857985C70128
:1017000008960E942716C701E1DE0E946614811127
:10171000A0CF70DD9ECFC701D9DE0E94661499CF9D
:10172000C701D4DE0E94661480E029960FB6F894B3
:10173000DEBF0FBECDBFDF91CF911F910F91FF9004
:10174000EF90DF90CF9008950F93009769F0FC0120
:101750001582148211821082168200E020E030E0AF
:10176000A90160E070E05EDF0F910895CF93DF93F1
:10177000482F60E081E033DFEC01E6DFCE01DF914E
:10178000CF910895EF92FF920F931F93CF93DF9322
:101790008A01FC01568D378D531710F02230F9F471
:1017A000422F7801EC011AA18E8DCE0116DE1F3F6B
:1017B00081F48B898823A9F0CE0143960E94CA1632
:1017C000882389F0E114F10481F081E0F70180833E
:1017D0000DC0FF24F394F10EFAA281E007C080E06F
:1017E00005C081E003C081E001C081E0DF91CF91BD
:1017F0001F910F91FF90EF900895CF92DF92EF929B
:10180000FF920F931F93CF93DF93CDB7DEB7299746
:101810000FB6F894DEBF0FBECDBF8C016B012E83D7
:101820003F8348875987E12C0FB6F8940F92F8014F
:10183000F68CFF2099F0B601C8012EDEFA94F8016B
:10184000F68E8085882331F0C80108960E94CA165A
:101850008111D0DC0F900FBE81E04FC08E819F813F
:10186000A885B985892B8A2B8B2B21F40F900FBE6D
:1018700080E043C0E11006C0CE0101960E94291805
:10188000EE24E3940F900FBEE1D60FB6F8940F92BA
:10189000F80181A18F3F09F411A2F80182A18F3FC5
:1018A00009F412A20F900FBEBE016A5F7F4FCE01F6
:1018B00001960E943A18811117C0C80173DD882370
:1018C00079F04E815F8168857985C80143960E94D1
:1018D0002716C801FBDDFAD78111A6CF8BDCA4CF78
:1018E000C801F4DDF3D7A0CFC801F0DDEFD7C80100
:1018F00059DD882309F498CF80E029960FB6F89433
:10190000DEBF0FBECDBFDF91CF911F910F91FF9032
:10191000EF90DF90CF900895EF92FF920F931F9377
:10192000CF93DF93CDB7DEB729970FB6F894DEBF1C
:101930000FBECDBF8C014E835F8368877987E12C12
:10194000F12C0FB6F8940F92F801868D8823C9F018
:101950008150868F80819181892B29F40E942A1AD7
:10196000F80195838483F8018085882331F0C801CC
:1019700008960E94CA1681113DDC0F900FBE81E0CF
:101980006FC08E819F81A885B985892B8A2B8B2B6F
:1019900021F40F900FBE80E063C0F11006C0CE01AD
:1019A00001960E942918FF24F3940F900FBE4ED683
:1019B0000FB6F8940F92F80181A18F3F09F411A29C
:1019C000F80182A18F3F09F412A20F900FBEBE0151
:1019D0006A5F7F4FCE0101960E943A18811126C09E
:1019E000C801E0DC8823F1F0F80180819181892B26
:1019F00051F40FB6F8940F92848195810E94B71824
:101A0000E82E0F900FBE4E815F8168857985C801F1
:101A100043960E942716C80159DD58D7811191CFEE
:101A2000E9DB8FCFC80152DD51D78BCFC8014EDD26
:101A30004DD7C801B7DC882309F483CFEE2079F0B5
:101A40000FB6F8940F92C8019DDC682FF8018481CD
:101A500095810E9499190F900FBE80E001C080E02F
:101A600029960FB6F894DEBF0FBECDBFDF91CF91A0
:101A70001F910F91FF90EF900895CF93DF93EC01AA
:101A80000FB6F8940F9289A18F3F09F419A28AA189
:101A90008F3F09F41AA20F900FBE8E8D811104C0E2
:101AA000CE0143960E948816CE0110DDDF91CF91C2
:101AB0000895FC014481558122813381240F351F13
:101AC00080819181B901681B790BCB01641775077F
:101AD00010F0841B950B08950F93FC018FE0DF013C
:101AE0001D928A95E9F77587648755834483378308
:101AF000268306870F910895AF92BF92CF92DF920F
:101B0000EF92FF920F931F93CF93DF936C015B01D2
:101B10007A01FC01C281D381048115810C1B1D0B4C
:101B20004017510708F48A01F60184859585A801BC
:101B3000B5018C0F9D1F0E9409340E151F0558F426
:101B4000A701401B510BB501600F711FF601848581
:101B500095850E940934CE018E0D9F1DF6012481CA
:101B600035818217930710F0821B930BF601938344
:101B70008283C701DF91CF911F910F91FF90EF906A
:101B8000DF90CF90BF90AF900895CF92DF92EF9209
:101B9000FF920F931F93CF93DF931F921F92CDB7A6
:101BA000DEB77C016B015A83498321153105C1F0F1
:101BB000FC01868580FD08C04217530708F49A018E
:101BC0003A83298381E00FC02017310758F042E0A3
:101BD00050E0BE016F5F7F4FC7018EDF81E003C021
:101BE00080E001C080E0882331F049815A81B6014C
:101BF000C70182DF02C080E090E00F900F90DF917C
:101C0000CF911F910F91FF90EF90DF90CF900895AB
:101C1000AF92BF92CF92DF92EF92FF920F931F93FA
:101C2000CF93DF937C015B01E9014217530708F46E
:101C3000EA01209781F1F70100811181848195816A
:101C4000801B910B6E018C179D0708F46C01F70146
:101C500064857585600F711FA601C5010E94093456
:101C6000CC16DD0658F4AE014C195D09F701648508
:101C70007585C5018C0D9D1D0E9409340C0F1D1F1B
:101C8000F701848195810817190710F0081B190BBB
:101C9000F70111830083CE01DF91CF911F910F9146
:101CA000FF90EF90DF90CF90BF90AF9008956F922C
:101CB0007F928F929F92AF92BF92CF92DF92EF92DC
:101CC000FF920F931F93CF93DF931F921F92CDB775
:101CD000DEB76C014B015A01790101151105B1F014
:101CE000FC0160807180A801BE016F5F7F4F90DFB3
:101CF00089819A81E01AF10AA816B90630F4F60132
:101D000071826082A12CB12C01C05C019701A501F8
:101D1000B401C6017DDF0F900F90DF91CF911F912D
:101D20000F91FF90EF90DF90CF90BF90AF909F907A
:101D30008F907F906F900895CF92DF92EF92FF92F5
:101D40000F93CF93DF93EC016B01413011F401E06D
:101D500001C000E0C114D10419F4CC24C394D12CE7
:101D6000CE014096C817D90720F421968FD87C0160
:101D700002C0E12CF12CE114F10439F09601AE011E
:101D8000B701615F7F4FC701A7DEC701DF91CF9128
:101D90000F91FF90EF90DF90CF9008950F930FB6C3
:101DA000F8940F92FC0120853185232B71F4228554
:101DB0003385232B61F426813781448155816485E5
:101DC0007585068589DE81E003C080E001C080E082
:101DD0000F900FBE0F910895FC0124813581808101
:101DE0009181820F931F42815381841B950B019730
:101DF0008217930710F0821B930B08952F923F9246
:101E00004F925F926F927F928F929F92AF92BF920A
:101E1000CF92DF92EF92FF920F931F93CF93DF93B6
:101E2000CDB7DEB72B970FB6F894DEBF0FBECDBF90
:101E30004C017B876A871A010E831F8328873987A5
:101E4000FC01848195810197268520FF0CC02A0121
:101E5000F2E04F0E511C8415950558F41E821F8226
:101E60001886198606C08417950710F02A0101C04C
:101E70002C018E819F81A885B985892B8A2B8B2B7C
:101E800009F438C0CE0101960E9413180FB6F894D9
:101E90000F92C401A1DF3C018415950540F560E077
:101EA00080E090E00E94FD1C0E94A418F40193873A
:101EB00082870F900FBEAE80BF80C884D984E12C8A
:101EC000F12C00E010E0980140E050E0BA0180E021
:101ED0000E943C1AF40113861286BE016A5F7F4F8E
:101EE000CE0101960E943A18882381F205C00F9016
:101EF0000FBE02C0612C712C6114710419F4C4016D
:101F00006BDF3C0182019301A1016A857B85C401DD
:101F10003CDE6C01892BE9F0C401CBDDF4012681A4
:101F2000378182179307A8F091D3F40180859185BA
:101F3000892B71F080859185E12CF12C00E020E067
:101F400030E0A90160E00E94E41AF40111861086D5
:101F5000BDD4C6012B960FB6F894DEBF0FBECDBF21
:101F6000DF91CF911F910F91FF90EF90DF90CF9075
:101F7000BF90AF909F908F907F906F905F904F90A9
:101F80003F902F900895AF92BF92CF92DF92EF9241
:101F9000FF920F931F93CF93DF93EC017B015A01C4
:101FA00069018E8580FF04C08A010E5F1F4F01C04A
:101FB0008A01CE0111DF9C01A501B701CE01E5DD4B
:101FC0005C01892BC1F0CE0174DD2E813F81821727
:101FD000930788F088859985892B69F0888599858C
:101FE000E12CF12C00E020E030E0A90160E00E944B
:101FF000DB1B19861886C501DF91CF911F910F91C8
:10200000FF90EF90DF90CF90BF90AF9008954F92E8
:102010005F926F927F928F929F92AF92BF92CF9278
:10202000DF92EF92FF920F931F93CF93DF93EC0118
:102030002B013A01580169018E8580FF05C0689423
:10204000882481F8912C02C0812C912CA114B10418
:10205000C104D10441F10FB6F8940F92CE0129DDED
:102060007C018816990648F060E080E090E00E94CC
:10207000FD1C0E94A418998788870F900FBE8E14AC
:102080009F04A0F0E12CF12C00E010E0980140E06A
:1020900050E0BA0180E00E943C1A19861886CE01F1
:1020A00008DD7C0103C0CE0104DD7C018E149F0499
:1020B000E8F484019701A301B201CE01F8DD6C01BF
:1020C000892BB1F0C3D28A859B85892B69F08A85DB
:1020D0009B85E12CF12C00E020E030E0A90160E0DC
:1020E0000E94E41A1B861A86F1D302C0C12CD12C9F
:1020F000C601DF91CF911F910F91FF90EF90DF907C
:10210000CF90BF90AF909F908F907F906F905F9097
:102110004F900895E091D711F091D81180818111ED
:102120000CC08FEF9FEFDC018093A1119093A2115F
:10213000A093A311B093A4110895E091D711F09149
:10214000D8110780F085E02D80819181A281B38133
:102150008093A1119093A211A093A311B093A41105
:102160000895CF93DF93EC018B8D9C8D0E94EF0738
:10217000CE010E94EF07DF91CF9108954F925F92B9
:102180006F927F928F929F92AF92BF92CF92DF9287
:10219000EF92FF920F93CF93DF932C015B014A01E3
:1021A0003901E60165EA70E08B8D9C8D0E94123446
:1021B0008B8D9C8D21E0821A9108880E991EA114A6
:1021C000B10489F415C0822F90E0F501E80FF91FE2
:1021D0003081DE01A80FB91F5D963C938081882372
:1021E00029F02F5F01C020E0203168F31CA601C058
:1021F0001D8E0A3008F009E00A8F0DA71EA6CE0139
:1022000002960E943D08CE010E960E943D08DB8793
:10221000CA878AE090E0A0E0B0E0801B9109A109A4
:10222000B1098E879F87A88BB98BDF8BCE8B84E01B
:10223000FE01BF96DF011D928A95E9F71BAAA30153
:10224000B201C4010E94B10899838883E114F104AA
:1022500019F0F701D183C083DF91CF910F91FF90E7
:10226000EF90DF90CF90BF90AF909F908F907F9036
:102270006F905F904F900895CF93C0E009C02BE01E
:10228000C29FC001112481519E4E0E942C08CF5F35
:10229000CA30A8F384EE91E10E942C0889ED91E107
:1022A0000E942C088AEC91E10E942C088FEB91E1AE
:1022B0000E942C0883EB91E10E942C0884EE91E1AE
:1022C0009093D8118093D71189ED91E19093D61115
:1022D0008093D511CF910895CF93DF93EC010FB682
:1022E000F8940F928091B2118F5F8093B211809118
:1022F0005D1290915E12892B51F4D0935E12C093BF
:102300005D128091B211813091F4B6DF10C08091DE
:10231000AC1181110CC0E0915D12F0915E12928DB2
:102320008A8D891720F0D0935E12C0935D12809140
:10233000A5118F5F8093A511EA8D8091AD118E1745
:1023400010F4E093AD118BE08E9FF0011124E15168
:10235000FE4E0180F281E02DFF83EE8326813781DE
:1023600039872887A681B7819E012E5F3F4F15963A
:102370003C932E93149737832683EA8D8E9FF0012A
:102380001124E151FE4EFD87EC8780818F5F8083B1
:102390000F900FBE8091AC11882351F0E0915D1237
:1023A000F0915E12928D8A8D981710F40E94FA08AF
:1023B000DF91CF910895CF93DF931BC00FB6F894B0
:1023C0000F92E091C611F091C711C085D185CE0161
:1023D00002960E947E088091B21181508093B211C2
:1023E0008091BE1181508093BE110F900FBECE011F
:1023F000B8DE8091BE118111E1CFDF91CF910895B8
:102400008F929F92AF92BF92CF92DF92EF92FF9204
:10241000CF93DF936B017C01C42F8090AE1190901D
:10242000AF11A090B011B090B11180915D12909158
:102430005E1202960E947E088FEFC816D806E80644
:10244000F806B1F5CC23A1F1E3EBF1E1A181B28172
:10245000C0915D12D0915E12BF83AE83C0915D12B8
:10246000D0915E1216968D919C91179799878887C7
:102470001696CD91DC91179780915D1290915E1226
:1024800002969D838C8380915D1290915E120296DC
:1024900017969C938E931697A0915D12B0915E1241
:1024A0001D96FC93EE931C9780818F5F80833FC0C5
:1024B000C80CD91CEA1CFB1CE0915D12F0915E1265
:1024C000C282D382E482F582C814D904EA04FB04F0
:1024D00068F460915D1270915E128091D5119091B7
:1024E000D6116E5F7F4F0E94410821C060915D123E
:1024F00070915E128091D7119091D8116E5F7F4FCD
:102500000E9441088091A1119091A211A091A31164
:10251000B091A411C816D906EA06FB0640F4C09291
:10252000A111D092A211E092A311F092A411DF9117
:10253000CF91FF90EF90DF90CF90BF90AF909F90A2
:102540008F9008952F923F924F925F926F927F9259
:102550008F929F92AF92BF92CF92DF92EF92FF92B3
:102560000F93CF93DF933C011B014A012901CA015C
:102570000E9446076C01892B71F084E390E00E9471
:102580004607EC01892B19F0DC8ECB8E06C0C60104
:102590000E94EF0702C0C0E0D0E0209761F0A12CBC
:1025A000B12C6E019201A401B101C301E7DDCE019E
:1025B00093DE81E001C08FEFDF91CF910F91FF900B
:1025C000EF90DF90CF90BF90AF909F908F907F90D3
:1025D0006F905F904F903F902F900895EF92FF92F1
:1025E0000F930F2EFFE9EF2EF1E1FF2EF02D00E00B
:1025F00020E030E040EC50E064EC74E08EE491E0E8
:10260000A1DF813011F40E94A11D8130C9F4F8943A
:102610008FEF9FEFDC018093A1119093A211A09303
:10262000A311B093A41181E08093AC111092AE116C
:102630001092AF111092B0111092B1110E94C808FF
:10264000809106020F91FF90EF90089580919E1166
:102650008F5F80939E1108950FB6F8940F9260914A
:10266000AE117091AF118091B0119091B1110F9096
:102670000FBE0895CF92DF92EF92FF92CF93DF9338
:1026800080919E11811105C1C090AE11D090AF1103
:10269000E090B011F090B1118FEFC81AD80AE80A93
:1026A000F80AC092AE11D092AF11E092B011F09240
:1026B000B111C114D104E104F104B1F48091D71136
:1026C0009091D8112091D5113091D6113093D81115
:1026D0002093D7119093D6118093D5118091A61194
:1026E0008F5F8093A61116DD8091A1119091A211A8
:1026F000A091A311B091A411C816D906EA06FB0651
:1027000020F480E0B2C081E001C080E0E091D71108
:10271000F091D811908191110CC04FEF5FEFBA0189
:102720004093A1115093A2116093A3117093A4112F
:102730009CC0E091D711F091D8110780F085E02D71
:102740000084F185E02D4281538164817581C41636
:10275000D506E606F70648F44093A1115093A2115E
:102760006093A3117093A41180C0A485B585C68120
:10277000D781208531853F832E83C085D1852681F1
:1027800037813D832C8311964D915C9112979F0167
:102790002E5F3F4F4217530731F440855185129603
:1027A0005C934E931197158614869C9191509C933F
:1027B000A08DB18D109709F1C289D38944895589BB
:1027C0005F834E83C489D589428953895D834C8355
:1027D00011966D917C911297AF01425F5F4F641724
:1027E000750731F44489558912965C934E9311977D
:1027F000118E108E9C9191509C93A28D9091AD1151
:102800009A1710F4A093AD119BE09A9FD001112468
:10281000A151BE4E11960D90BC91A02DB783A683F9
:1028200016964D915C911797518740871696CD91DA
:10283000DC9117973D832C8317963C932E93169724
:10284000A28D9A9FD0011124A151BE4EB587A487B5
:102850009C919F5F9C93228DE0915D12F0915E129E
:10286000928D291708F04FCF51CFE0915D12F09172
:102870005E12E28D9BE0E99FF0011124E151FE4ED2
:102880009081923008F081E09091A711911116C0CB
:1028900016C08091A8119091A911A091AA11B09190
:1028A000AB110196A11DB11D8093A8119093A911A0
:1028B000A093AA11B093AB1180E001C081E0DF9139
:1028C000CF91FF90EF90DF90CF900895CF92DF925D
:1028D000EF92FF92CF93DF930FB6F8940F9280910F
:1028E0009E11815080939E1180919E118111BEC0D6
:1028F0008091B211811188C0BCC0E091D111F091DA
:10290000D2110084F185E02DA08DB18DC289D389CB
:10291000848995899F838E83C489D5898289938987
:102920009D838C8311962D913C911297CF010E9629
:102930002817390731F48489958912969C938E93D0
:102940001197118E108E8C9181508C93A485B58532
:10295000C681D781808591859F838E83C085D185EF
:10296000868197819D838C8311968D919C9112977E
:102970009F012E5F3F4F8217930731F48085918529
:1029800012969C938E931197158614868C91815084
:102990008C93A28D8091AD118A1710F4A093AD1184
:1029A0008BE08A9FD0011124A151BE4E11960D904B
:1029B000BC91A02DB783A68316964D915C91179775
:1029C000518740871696CD91DC9117973D832C83D4
:1029D00017963C932E931697A28D8A9FD0011124AF
:1029E000A151BE4EB587A4878C918F5F8C93928D39
:1029F000A0915D12B0915E125A968C91981730F0AA
:102A000081E08093A71102C0E0E0F0E08091CA115C
:102A1000811173CFEF2B09F07DDBC090A811D0900E
:102A2000A911E090AA11F090AB11C114D104E104F6
:102A3000F104A1F01FDE882319F081E08093A71133
:102A400081E0C81AD108E108F108A1F71092A81195
:102A50001092A9111092AA111092AB118091A71196
:102A6000882331F00E94FA0881E003C080E001C0B1
:102A700080E00F900FBEDF91CF91FF90EF90DF903D
:102A8000CF9008958F929F92AF92BF92CF92DF9294
:102A9000EF92FF921F93CF93DF93EC016A017B01CA
:102AA000D5DD8090AE119090AF11A090B011B09094
:102AB000B11188819981AA81BB81AC01BD014C0D06
:102AC0005D1D6E1D7F1D88169906AA06BB0660F463
:102AD000481759076A077B0798F484169506A606D7
:102AE000B70680F010E013C0481759076A077B0744
:102AF00058F084169506A606B70640F010E007C009
:102B000010E005C011E003C011E001C011E04883EE
:102B100059836A837B83112341F0CB01BA01681981
:102B200079098A099B0940E06BDCD0DE811102C083
:102B30000E94FA08812FDF91CF911F91FF90EF90B3
:102B4000DF90CF90BF90AF909F908F900895CF92DD
:102B5000DF92EF92FF926B017C01672B682B692B50
:102B600039F074DD40E0C701B6014ADCAFDE01C0D8
:102B700080E0811102C00E94FA08FF90EF90DF9080
:102B8000CF90089580919E11882321F081E0809359
:102B9000A71108951092A711E0915D12F0915E12B5
:102BA00020813181E0915D12F0915E12838D948DD0
:102BB0008217930760F060915D1270915E12635E00
:102BC0007F4F80915D1290915E120E942F20809124
:102BD000AD1101C08150282F30E09BE0929FF001A1
:102BE000939FF00D1124E151FE4E9081992391F3B2
:102BF0009BE0929FA001939F500D1124DF01018063
:102C0000F281E02D0480F581E02D1296FC93EE9385
:102C100011974E505E4EE417F50729F44481558113
:102C2000FD01528341839BE0929FF001939FF00D41
:102C30001124E151FE4E0180F281E02D2085318585
:102C400030935E1220935D128093AD110895CF9260
:102C5000DF92EF92FF926A017B0160915D127091A9
:102C60005E12625F7F4F0E94410841E0C701B601DA
:102C7000C7DBFF90EF90DF90CF9008950F931F93E5
:102C8000CF93DF93FC01A0915D12B0915E1270684A
:102C90001E964D935D936D937C935197A181B28164
:102CA000C0915D12D0915E12BB8BAA8BC0915D1258
:102CB000D0915E1216968D919C9117979D8B8C8B5F
:102CC0001696CD91DC91179780915D1290915E12CE
:102CD0000E969D838C8380915D1290915E120E966C
:102CE00017969C938E931697A0915D12B0915E12E9
:102CF0005996FC93EE93589780818F5F808341E0D3
:102D0000C901B8017DDBDF91CF911F910F9108952B
:102D1000CF93DF93FC01CB01BA01A181B281C091B5
:102D20005D12D0915E12BB8BAA8BC0915D12D091C7
:102D30005E1216964D915C9117975D8B4C8B169693
:102D4000CD91DC91179740915D1250915E12425FD8
:102D50005F4F5D834C8340915D1250915E12425FE4
:102D60005F4F17965C934E931697A0915D12B091AA
:102D70005E125996FC93EE93589730813F5F3083F3
:102D8000222319F06FEF7FEFCB01422F39DBDF9168
:102D9000CF910895CF93DF93DC011796ED91FC91CD
:102DA00018970084F185E02DA08DB18DC289D3895B
:102DB000848995899F838E83C489D58982899389E3
:102DC0009D838C8311968D919C9112979F01225F18
:102DD0003F4F8217930731F48489958912969C930B
:102DE0008E931197118E108E8C9181508C938091BF
:102DF0009E11811152C0A485B585C681D781808579
:102E000091859F838E83C085D185868197819D839F
:102E10008C8311968D919C9112979F012E5F3F4F4D
:102E20008217930731F48085918512969C938E9337
:102E30001197158614868C9181508C93A28D809168
:102E4000AD118A1710F4A093AD118BE08A9FD001C9
:102E50001124A151BE4E11960D90BC91A02DB783A7
:102E6000A68316964D915C911797518740871696C9
:102E7000CD91DC9117973D832C8317963C932E932D
:102E80001697A28D8A9FD0011124A151BE4EB587FD
:102E9000A4878C918F5F8C931CC04AEC51E1DA01BE
:102EA0001196CD91DC911297D38BC28B8E819F812D
:102EB000958B848B8E819F81DC0115963C932E939C
:102EC00014973F832E83518F408FDA018C918F5F4F
:102ED0008C93928DE0915D12F0915E12828D891734
:102EE00020F481E08093A71101C080E0DF91CF91B1
:102EF0000895CF93DF93DC0170684D935D936D93DC
:102F00007C9313971896ED91FC9119971A964D9111
:102F10005C911B9714968D919C91159716962D9107
:102F20003C911797EC013F832E8316968D919C91CF
:102F3000179714962D913C911597EC013D832C83A6
:102F4000EA0189819A81A817B90731F416968D9103
:102F50009C9117979A8389831B961C921E921A97AD
:102F6000DA018C9181508C93A485B585C681D78177
:102F7000808591859F838E83C085D1858681978149
:102F80009D838C8311968D919C9112979F012E5F4A
:102F90003F4F8217930731F48085918512969C9359
:102FA0008E931197158614868C9181508C93A28DE7
:102FB0008091AD118A1710F4A093AD118BE08A9F18
:102FC000D0011124A151BE4E11960D90BC91A02D9F
:102FD000B783A68316964D915C91179751874087CA
:102FE0001696CD91DC9117973D832C8317963C93D1
:102FF0002E931697A28D8A9FD0011124A151BE4E07
:10300000B587A4878C918F5F8C93928DE0915D1230
:10301000F0915E12828D891718F481E08093A711D8
:10302000DF91CF9108950FB6F8940F922091A611D9
:10303000FC0120834091AE115091AF116091B0110D
:103040007091B11141835283638374830F900FBEDB
:1030500008952091A611FC0120834091AE1150915A
:10306000AF116091B0117091B111418352836383AC
:10307000748308958F929F92AF92BF92CF92DF9206
:10308000EF92FF920F931F93CF93DF93FB010FB645
:10309000F8940F92C090AE11D090AF11E090B011A3
:1030A000F090B111DC0111960D911D912D913C9183
:1030B000149746015701801A910AA20AB30A408167
:1030C0005181628173814F3FBFEF5B076B077B07C5
:1030D00039F1EC01B881A091A611BA1759F0C016C8
:1030E000D106E206F30630F01082118212821382BA
:1030F00081E017C084169506A606B70658F448194D
:1031000059096A097B094083518362837383A1DF74
:1031100080E007C0108211821282138281E001C018
:1031200080E00F900FBEDF91CF911F910F91FF9024
:10313000EF90DF90CF90BF90AF909F908F900895C9
:1031400081E08093A711089580915D1290915E12A5
:1031500008958091AC11882331F080919E118111E6
:1031600004C082E0089581E0089580E008950F93FF
:103170001F93CF93DF93FC01892B09F477C0828DD5
:10318000A0915D12B0915E125A969C91891708F039
:1031900063C04685578560897189772394F0A09133
:1031A0005D12B0915E125A969C914AE050E060E048
:1031B00070E0491B51096109710946875787608B87
:1031C000718B248535854BE0849FC001112481518A
:1031D0009E4E28173907B9F5EF018F010E5F1F4F7B
:1031E000C8010E947E08E0915D12F0915E12E28DAE
:1031F000EA8F8091AD118E1710F4E093AD118BE042
:103200008E9FF0011124E151FE4E0180F281E02DEC
:10321000FF83EE832681378139872887A681B7818E
:1032200015961C930E93149717830683EA8D8E9F31
:10323000F0011124E151FE4EFD87EC8780818F5F04
:10324000808381E016C0A0915D12B0915E125A9603
:103250008C91828F81E00DC095A5E0915D12F09177
:103260005E12828D981720F080E003C080E001C0DC
:1032700081E0DF91CF911F910F9108950F931F93DC
:10328000CF93DF93FC01892B09F449C086A58150B7
:1032900086A7228D95A5291709F443C0811143C043
:1032A000EF018F010E5F1F4FC8010E947E08EDA540
:1032B000EA8F8AE090E0A0E0B0E08E1B9109A109BE
:1032C000B1098E879F87A88BB98B8091AD118E171E
:1032D00010F4E093AD118BE08E9FF0011124E151C9
:1032E000FE4E0180F281E02DFF83EE83268137813F
:1032F00039872887A681B78115961C930E9314975A
:1033000017830683EA8D8E9FF0011124E151FE4E52
:10331000FD87EC8780818F5F808381E005C080E03E
:1033200003C080E001C080E0DF91CF911F910F9139
:1033300008950F931F93CF93DF93FC01892B09F41A
:103340005AC085A5861708F4862F928D891709F42F
:1033500052C026A5213009F04EC0828F4685578580
:1033600060897189772364F04AE050E060E070E0A2
:10337000481B51096109710946875787608B718B1A
:10338000248535854BE0949FC001112481519E4EC8
:103390002817390781F5EF018F010E5F1F4FC80114
:1033A0000E947E08EA8D8091AD118E1710F4E09393
:1033B000AD118BE08E9FF0011124E151FE4E018092
:1033C000F281E02DFF83EE832681378139872887BC
:1033D000A681B78115961C930E93149717830683C5
:1033E000EA8D8E9FF0011124E151FE4EFD87EC879E
:1033F00080818F5F8083DF91CF911F910F9108951E
:10340000CF92DF92EF92FF92E0915D12F0915E1207
:103410006685778580899189E0915D12F0915E12D1
:10342000A0915D12B0915E125A962C910F2EFAE087
:10343000CF2ED12CE12CF12CF02DC21AD108E108AD
:10344000F108C686D786E08AF18AFF90EF90DF9078
:10345000CF90089580915D1290915E12892B39F082
:10346000E0915D12F0915E1286A58F5F86A7809134
:103470005D1290915E1208954F925F926F927F92CB
:10348000AF92BF92CF92DF92EF92FF920F931F9372
:10349000CF93DF93280139010FB6F8940F92E09192
:1034A0005D12F0915E12C82FD0E0EC0FFD1F83A9D2
:1034B000823079F1E0915D12F0915E12CE01880FB9
:1034C000991F880F991FE80FF91F87A590A9A1A937
:1034D000B2A94095509560957095482359236A2369
:1034E0007B2347A750AB61AB72ABE0915D12F091CB
:1034F0005E12EC0FFD1F81E083ABA114B104C10487
:10350000D10439F041E0C601B5010E9400120E94C9
:10351000FA080F900FBE0FB6F8940F92E114F10461
:10352000A1F0E0915D12F0915E12CE01880F991F1B
:10353000880F991FE80FF91F87A590A9A1A9B2A923
:10354000F70180839183A283B383E0915D12F091B0
:103550005E12EC0FFD1F83A98230E9F4E0915D1249
:10356000F0915E12CE01880F991F880F991FE80F06
:10357000F91F87A590A9A1A9B2A94094509460947D
:103580007094482259226A227B2247A650AA61AA37
:1035900072AA81E001C080E020915D1230915E123C
:1035A000C20FD31F1BAA0F900FBEDF91CF911F91A7
:1035B0000F91FF90EF90DF90CF90BF90AF907F90F2
:1035C0006F905F904F9008958F929F92AF92BF92AD
:1035D000EF92FF920F93CF93DF93DC010FB6F89435
:1035E0000F92E114F10489F0E62FF0E0EE0FFF1FD7
:1035F000EE0FFF1FE80FF91F87A490A8A1A8B2A89B
:10360000F70180829182A282B38270E0FD01E60F11
:10361000F71F83A992E093AB023001F118F4013057
:1036200031F04DC0033079F10430D1F148C0660F5C
:10363000771F660F771FFD01E60FF71F87A490A87D
:10364000A1A8B2A8BA01A901482959296A297B2948
:1036500047A750AB61AB72AB01E034C0660F771F78
:10366000660F771FFD01E60FF71F47A550A961A957
:1036700072A94F5F5F4F6F4F7F4F47A750AB61AB52
:1036800072AB01E01FC0660F771F660F771FFD0149
:10369000E60FF71F27A730AB41AB52AB01E012C0DA
:1036A000823079F0660F771F660F771FFD01E60FF6
:1036B000F71F27A730AB41AB52AB01E003C001E0DD
:1036C00001C000E0813009F069C01C96ED91FC91C9
:1036D0001D971696CD91DC91179718968D919C9118
:1036E00019979F838E831896CD91DC911997169622
:1036F0008D919C9117979D838C83818192819D01EF
:103700002E5F3F4F8217930731F418968D919C914D
:103710001997928381831D961C921E921C9780811B
:10372000815080835A96EC915A978091AD118E17F3
:1037300010F4E093AD118BE08E9FF0011124E15164
:10374000FE4E0180F281E02D1796FC93EE931697C2
:103750004681578119965C934E931897C681D781FD
:103760003D832C83378326835A96EC915A978E9FFC
:10377000F0011124E151FE4E1D96FC93EE931C972F
:1037800080818F5F80835A969C91E0915D12F091C9
:103790005E12828D891710F40E94FA080F900FBEF6
:1037A000802FDF91CF910F91FF90EF90BF90AF905E
:1037B0009F908F9008958F929F92AF92BF92CF92D9
:1037C000DF92EF92FF920F93CF93DF93DC01E1142E
:1037D000F10489F0E62FF0E0EE0FFF1FEE0FFF1F60
:1037E000E80FF91F87A490A8A1A8B2A8F7018082CA
:1037F0009182A282B38270E0FD01E60FF71F93A9C8
:1038000082E083AB023001F118F4013031F04DC099
:10381000033079F10430D1F148C0660F771F660F8D
:10382000771FFD01E60FF71F87A490A8A1A8B2A8F3
:10383000BA01A901482959296A297B2947A750AB10
:1038400061AB72AB81E034C0660F771F660F771FE4
:10385000FD01E60FF71F47A550A961A972A94F5FA7
:103860005F4F6F4F7F4F47A750AB61AB72AB81E0AB
:103870001FC0660F771F660F771FFD01E60FF71F4A
:1038800027A730AB41AB52AB81E012C0923079F048
:10389000660F771F660F771FFD01E60FF71F27A73B
:1038A00030AB41AB52AB81E003C081E001C080E0AE
:1038B000913009F096C090919E1191115FC01C96B5
:1038C000ED91FC911D971696CD91DC911797189666
:1038D0002D913C9119973F832E831896CD91DC91C1
:1038E000199716962D913C9117973D832C83418112
:1038F00052819D012E5F3F4F4217530731F41896B6
:103900004D915C911997528341831D961C921E9292
:103910001C979081915090835A96EC915A97909170
:10392000AD119E1710F4E093AD119BE09E9FF00146
:103930001124E151FE4E0180F281E02D1796FC9397
:10394000EE9316974681578119965C934E9318977C
:10395000C681D7813D832C83378326835A96EC9189
:103960005A979E9FF0011124E151FE4E1D96FC9343
:10397000EE931C9790819F5F908321C06AEC71E168
:10398000FB01C181D2815396DC93CE9352972E8155
:103990003F8155963C932E9354974E815F819D01B4
:1039A000225F3F4FFA01358324833F832E8359964C
:1039B0007C936E935897FB0190819F5F90835A96FA
:1039C0002C91E0915D12F0915E12928D921748F465
:1039D000C114D10419F091E0F601908391E0909325
:1039E000A711DF91CF910F91FF90EF90DF90CF90D3
:1039F000BF90AF909F908F900895009721F4809191
:103A00005D1290915E120FB6F8940F9270E0FC0177
:103A1000E60FF71F23A9223031F4FC01E60FF71F50
:103A200013AA81E001C080E00F900FBE0895DC0171
:103A3000E0916912F0916A12808191E0811190E029
:103A40009C93911108C00780F085E02D6081718101
:103A500082819381089560E070E0CB010895CF9258
:103A6000DF92EF92FF920F931F93FC0142835383E7
:103A700064837583938782870417150726073707A2
:103A8000C0F00C191D092E093F0986859785A0896C
:103A9000B189081719072A073B0700F5BF016E5FB8
:103AA0007F4F80916712909168120E94410880E0D8
:103AB00018C00C151D052E053F0528F44C155D0595
:103AC0006E057F0568F4BF016E5F7F4F80916912BC
:103AD00090916A120E94410880E003C081E001C019
:103AE00081E01F910F91FF90EF90DF90CF900895AC
:103AF0000FB6F8940F928091651290916612892BFF
:103B0000E9F486E792E10E942C088BE692E10E949C
:103B10002C0886E792E190936A12809369128BE6F3
:103B200092E1909368128093671240E067E08AE028
:103B30000E94EF0A90936612809365120F900FBE59
:103B40000895EF92FF920F93D3DF809165129091C9
:103B50006612892B91F00F2EF3E6EF2EF2E1FF2E85
:103B6000F02D03E020E030E040EC50E069EC74E040
:103B700088E591E00E94A21201C080E00F91FF90C1
:103B8000EF9008958F929F92AF92BF92CF92DF9263
:103B9000EF92FF920F931F93CF93DF93CDB7DEB7D2
:103BA00027970FB6F894DEBF0FBECDBFE091651228
:103BB000F0916612309781F169832A833B834C83AD
:103BC0005D839F838E836630F4F4C3DA823069F4B8
:103BD00000E0A7019601BE016F5F7F4F80916512E3
:103BE000909166120E94120B18C000E020E030E0B5
:103BF000A901BE016F5F7F4F80916512909166129F
:103C00000E94120B0AC020E0A801BE016F5F7F4F27
:103C1000CF010E94C20B01C080E027960FB6F89436
:103C2000DEBF0FBECDBFDF91CF911F910F91FF90EF
:103C3000EF90DF90CF90BF90AF909F908F900895BE
:103C40008F929F92AF92BF92CF92DF92EF92FF92AC
:103C50000F931F93CF93DF933BC00780F085E02D38
:103C600080809180A280B380C085D1858E010E5F57
:103C70001F4FC8010E947E08EC89FD89CE0119956D
:103C80008E8982FF25C08E859F85A889B989880D78
:103C9000991DAA1DBB1D88169906AA06BB0670F4BD
:103CA0008A839B83AC83BD83DB87CA87B8018091FD
:103CB000691290916A120E9441080AC0C12CD12C4D
:103CC000760100E010E0A501940160E0CE015ADF2A
:103CD000E0916912F0916A1280818111BECF8091CA
:103CE00067129091681290936A1280936912F09310
:103CF0006812E0936712DF91CF911F910F91FF90AF
:103D0000EF90DF90CF90BF90AF909F908F900895ED
:103D1000CF92DF92EF92FF92CF93DF93EC010E945C
:103D20002C136B017C0180915F1290916012A09125
:103D30006112B0916212C816D906EA06FB0620F499
:103D40007FDF81E0888301C01882C0925F12D09229
:103D50006012E0926112F0926212C701B601DF9127
:103D6000CF91FF90EF90DF90CF9008954F925F92A8
:103D70006F927F928F929F92AF92BF92CF92DF927B
:103D8000EF92FF920F931F93CF93DF934B015C0150
:103D900029013A01E0916912F0916A120780F085D9
:103DA000E02DC085D185CE0102960E947E088E89C5
:103DB00082FF1BC04E855F8568897989480D591D32
:103DC0006A1D7B1D7501640193018201CE0147DEEE
:103DD000882369F0C12CD12C760100E010E0A50108
:103DE000940160E0CE01CEDE02C08E7F8E8BEC8926
:103DF000FD89CE011995DF91CF911F910F91FF9011
:103E0000EF90DF90CF90BF90AF909F908F907F907A
:103E10006F905F904F9008958F929F92AF92BF9254
:103E2000CF92DF92EF92FF921F93CF93DF931F9277
:103E3000CDB7DEB76B017C01142F0E942613CE0193
:103E4000019666DF4B015C01898181112DC0111142
:103E50000DC08C149D04AE04BF0440F00E94661493
:103E6000A5019401C701B60181DF20C0112341F0F3
:103E7000E0916712F0916812808111E0811110E0E9
:103E8000B701A601481959096A097B09212F8091B8
:103E90006512909166120E943D0D0E946614811178
:103EA00005C00E94FA0802C00E9466140F90DF91BC
:103EB000CF911F91FF90EF90DF90CF90BF90AF9088
:103EC0009F908F900895AF92BF92CF92DF92EF9222
:103ED000FF920F931F93CF93DF93CDB7DEB7289751
:103EE0000FB6F894DEBF0FBECDBF82C08981882394
:103EF0000CF47EC0AE80BF80D5011C968D919C9144
:103F00001D97892B21F0C50102960E947E08CE01E3
:103F10000896FEDE8B019C01E9810E2E000CFF0B42
:103F2000EA30F10508F064C08827EE58FF4F8F4F44
:103F30000C94EA31F50186898160868BCA80DB802A
:103F4000EC80FD8046855785608971894C0D5D1D2B
:103F50006E1D7F1DC50183DD882309F449C0D5018D
:103F60005496ED91FC915597C5011995F5018689F7
:103F700082FF3EC04A815B816C817D818685978509
:103F8000A089B1899A01AB01280F391F4A1F5B1F15
:103F9000C12CD12C760100E010E060E0C501F2DD1B
:103FA00027C0D50156968C9156978E7F56968C9346
:103FB0001FC0F50186898160868B4A815B816C8197
:103FC0007D8146875787608B718B400F511F621F21
:103FD000731F68017901C50142DD0AC0F5018689B8
:103FE00081FD04C0C5010E94EF0702C08E7F868B51
:103FF00020E030E0A901BE016F5F7F4F8091651224
:10400000909166120E94FD0B811170CF28960FB619
:10401000F894DEBF0FBECDBFDF91CF911F910F91FE
:10402000FF90EF90DF90CF90BF90AF9008950895EC
:1040300084B1806884B985B1806885B9089583B1F9
:10404000806883B90895F4DF2FEF80E792E0215074
:1040500080409040E1F700C00000F1DFF5CFE8DFDD
:104060002FEF87EA91E6215080409040E1F700C0B1
:104070000000E5DFF5CF0F931F930091A31310917C
:10408000A413609183127091841221E030E040E02B
:1040900050E083E090E00E9459039093AC1380932A
:1040A000AB130091A3131091A4136091831270912C
:1040B000841222E030E040E050E083E090E00E9493
:1040C00024029093AE138093AD131F910F91089526
:1040D0000F938091A3139091A413892B89F481E00D
:1040E0000E94B60B9093A4138093A313009741F002
:1040F00000E020E030E0A90160E070E00E94120BD7
:10410000BADF609181127091821283E090E00E9488
:1041100069022091A3133091A4134091AD135091E3
:10412000AE136091AB137091AC1382E090E00E94EB
:1041300051050F9108950E949205909384128093E7
:10414000831280E00E94AE2B41E060E070E086E1E7
:1041500090E00E949C0E9093821280938112BC0189
:1041600081E043D3B5CF0895E6DF0E94EE12FFCF82
:1041700004D06894B11150C0089533D088F09F578F
:1041800090F0B92F9927B751A0F0D1F0660F771FA3
:10419000881F991F1AF0BA95C9F712C0B13081F083
:1041A0003AD0B1E0089537C0672F782F8827B85FDD
:1041B00039F0B93FCCF3869577956795B395D9F7E4
:1041C0003EF490958095709561957F4F8F4F9F4FEE
:1041D000089557FD9058440F551F59F05F3F71F0F7
:1041E0004795880F97FB991F61F09F3F79F087955E
:1041F0000895121613061406551FF2CF4695F1DFE7
:1042000008C0161617061806991FF1CF8695710576
:10421000610508940895E894BB2766277727CB01AA
:1042200097F90895FA01DC01AA0FBB1F9B01AC01AD
:10423000BF5728F422273327442750781FC0B7518F
:1042400088F4AB2F0024469537952795011CA3953C
:10425000D2F3002069F0220F331F441FB395DAF325
:104260000DD076C061307105A0E88A07B94630F4F8
:104270009B01AC016627772788279078309621F03C
:10428000208331834283538308950BD0DDC0CED089
:1042900028F0D3D018F0952309F0BFC0C4C0112472
:1042A000BBCF97DFA0F3959FD1F3950F50E0551F3B
:1042B000629FF001729FBB27F00DB11D639FAA277B
:1042C000F00DB11DAA1F649F6627B00DA11D661FCA
:1042D000829F2227B00DA11D621F739FB00DA11DEB
:1042E000621F839FA00D611D221F749F3327A00DA5
:1042F000611D231F849F600D211D822F762F6A2F41
:1043000011249F5750408AF0E1F088234AF0EE0FC5
:10431000FF1FBB1F661F771F881F91505040A9F7D2
:104320009E3F510570F079C077CF5F3FECF3983E28
:10433000DCF3869577956795B795F795E7959F5F39
:10434000C1F7FE2B880F911D9695879597F90895D3
:104350005058BB27AA270ED077C068D030F06DD058
:1043600020F031F49F3F11F41EF45DC00EF4E0958F
:10437000E7FB53C0E92F2DDF80F3BA1762077307FD
:104380008407950718F071F49EF545CF0EF4E0957B
:104390000B2EBA2FA02D0B01B90190010C01CA01FF
:1043A000A0011124FF27591B99F0593F50F4503EAA
:1043B00068F11A16F040A22F232F342F4427585F9C
:1043C000F3CF469537952795A795F0405395C9F7B4
:1043D0007EF41F16BA0B620B730B840BBAF091506C
:1043E000A1F0FF0FBB1F661F771F881FC2F70EC00B
:1043F000BA0F621F731F841F48F4879577956795DE
:10440000B795F7959E3F08F0B3CF9395880F08F0C6
:104410009927EE0F97958795089597F99F6780E8FC
:1044200070E060E008959FEF80EC089500240A9406
:104430001616170618060906089500240A9412167F
:104440001306140605060895092E0394000C11F4B2
:10445000882352F0BB0F40F4BF2B11F460FF04C05F
:104460006F5F7F4F8F4F9F4F08956530F1F4FA01D2
:1044700080818F7390E0982F88272181822B9093E1
:104480000A02809309028281F0E48F9FC001112407
:10449000FA01238126952695822B9093080280931A
:1044A000070281E0809385120895643051F080E026
:1044B00090E4909308028093070290930A028093FD
:1044C000090208950F931F9305E312E220E034E2FE
:1044D00044EF50E060E087E20E94E82B909387125F
:1044E0008093861221E0892B09F020E0822F1F9112
:1044F0000F9108958091861290918712009759F03C
:1045000040E060E070E00E94392C843031F4109279
:10451000851280E0089582E0089583E008958091F7
:10452000861290918712009739F064E00E94852CE2
:10453000853021F083E0089582E0089580E00895B9
:104540006091090270910A0280E090E00E948B3134
:1045500020E030E048EC52E498DE20E038EF4FE70E
:1045600056E40C941A310895EBDF20E030E040E28D
:1045700051E48BDE02DECB01089560910702709159
:10458000080280E090E00E948B3120E030E045E2BC
:1045900053E47BDE20E038EF4FE756E40E941A3107
:1045A00020E030E040E252E4D3CE08950F931F9311
:1045B000CF93DF931F921F92CDB7DEB78C01198284
:1045C0002DC0E091BF12EC3250F481E08E0F809349
:1045D000BF12F0E0EF50FD4E8A81808302C010923E
:1045E000BF128A818A30D1F44091BF1250E0FA01A3
:1045F000E151FD4E1082415051099E012F5F3F4F06
:1046000061EF72E18091C2129091C3120E94C30FB8
:10461000898181110E94FA081092BF12BE016E5F5B
:104620007F4FC80105D6882361F20F900F90DF916C
:10463000CF911F910F9108950F931F93CF93DF9305
:104640008C01EB018091C2129091C3120E94CE0E98
:10465000B80188E892E10E944934209779F0E8E8AF
:10466000F2E101900020E9F7319780E290E0918338
:104670008083BE0188E892E10E943E34E8E8F2E1DE
:10468000DF010D900020E9F711978DE09AE0119677
:104690009C938E9312961C9201900020E9F731971B
:1046A000E858F241AE2F88E892E1AC016A2F809180
:1046B000C4129091C51267D5811111C008E215E0AE
:1046C00020E030E04DE250E06BE473E18091C212F3
:1046D0009091C3120E9407108BE493E102C080E026
:1046E00090E0DF91CF911F910F9108952F923F920B
:1046F0004F925F926F927F928F929F92AF92BF92F2
:10470000CF92DF92EF92FF920F931F93CF93DF939D
:104710005C01FC0101900020E9F731976F01C81A94
:10472000D90A5C2C0F2EFAE68F2EF7E09F2EF02D83
:10473000E12CF12C4C2C3701F40101811281E801AC
:1047400009900020E9F72197C01BD10B3C2EF9E01E
:10475000CF16D10458F0F4012080FEE02F1206C0DD
:10476000B801C5010E941934892B09F5442D35146F
:1047700008F44C2F50E0B801C5010E945034892B39
:1047800049F4F301EE0FFF1FE60DF71DE659F84F50
:1047900020800DC08FEFE81AF80AE3E08E0E911C1E
:1047A000F1E1EF16F10439F66894222424F8822D01
:1047B000DF91CF911F910F91FF90EF90DF90CF90FD
:1047C000BF90AF909F908F907F906F905F904F9031
:1047D0003F902F90089530DF89CF08958091C212C5
:1047E0009091C3120C94CE0E08958F929F92AF9227
:1047F000CF92EF920F931F93CF93C82F8B0141E07D
:1048000060E070E088EC90E00E949C0E9093C312F0
:104810008093C2121093C1120093C0120F2EF6EDB6
:104820008F2EF2E29F2EF02D6894AA24A6F86894A9
:10483000CC24C6F8E12C00E023E040E051EE60E03B
:1048400070E08C2FD2D39093C5128093C412E7E00E
:10485000F1E0808180618083CF911F910F91EF9073
:10486000CF90AF909F908F900895882331F0E8E02B
:10487000F1E080818F7E80830895E8E0F1E080811F
:1048800080618083089560E070E080EF94E0D4DE82
:10489000EBE4F3E101900020E9F73197EB54F341A9
:1048A00081E0759708F080E00895CF93DF93EC01E5
:1048B00060E070E081E095E0BFDEEBE4F3E10190C1
:1048C0000020E9F7EC55F34139F46BE473E1CE01D4
:1048D0000E94493480E002C0188281E0DF91CF91CC
:1048E0000895FC0101900020E9F79F012151310951
:1048F0002817390729F4BC018FE295E06CCF0895A1
:1049000089E00895FC0101900020E9F79F01215101
:1049100031092817390729F4BC018EE395E05BCFF4
:10492000089589E00895FC0101900020E9F79F01B6
:10493000215231092817390729F4BC018DE495E08B
:104940004ACF089589E0089560E070E08CE895E032
:1049500042CF08950F931F93E82FF0E0EE0FFF1F53
:10496000EA59F84F6081718185E995E034DF811162
:1049700014C008E215E020E030E04DE250E06BE4C6
:1049800073E18091C2129091C3120E940710882394
:1049900021F08BE493E1AADE03C08BE493E1A6DE71
:1049A0001F910F9108950F931F93CF93DF931F9241
:1049B000CDB7DEB7DB0111969C911197953108F0C8
:1049C000B4C0992381F160E070E0272F30E0462FDA
:1049D00050E0FD01E40FF51F928192959F709A308F
:1049E00010F0995C01C0905DF901E452FD4E908396
:1049F0002F5F3F4FFD01E40FF51F92819F70492FFC
:104A000050E04A30510514F0995C01C0905DF90105
:104A1000E452FD4E90837E5F6F5F11969C911197DB
:104A2000691798F201C070E0E72FF0E0E452FD4E04
:104A300010824C91811103C08EE995E002C080EA9A
:104A400095E02CED32E13F932F931F924F939F936C
:104A50008F9384EA95E09F938F938EE193E19F93E8
:104A60008F930E94F23460E070E08EE193E1B3DE58
:104A70000FB6F894DEBF0FBECDBF811159C008E25A
:104A800015E020E030E04DE250E06BE473E180910E
:104A9000C2129091C3120E940710882309F447C0E4
:104AA0008BE493E123DE8E3009F042C087E08983F6
:104AB0008091C0129091C112892BA9F1BE016F5F44
:104AC0007F4F8BE493E168D18093C612E981F0E0D7
:104AD000E55BFC4EDF010D900020E9F71197AE1B5E
:104AE000BF0BAA2391F0BB27CD0101979C0112F4C3
:104AF0002F5F3F4F359527952093C712AF014F5F2A
:104B00005F4F64E188EC92E173D101E010E020E0B6
:104B100030E046E150E066EC72E18091C012909185
:104B2000C1120E94FE0E8EE003C084E101C080E04D
:104B30000F90DF91CF911F910F910895813019F05F
:104B400064EB75E002C06DE876E088EB95E043CE5B
:104B500008959F938F9389EE95E09F938F938EE1B5
:104B600093E19F938F930E94F23460E070E08EE1B6
:104B700093E131DE0F900F900F900F900F900F90F8
:104B800008952F923F924F925F926F927F928F92F1
:104B90009F92AF92BF92CF92DF92EF92FF920F93CC
:104BA0001F93CF93DF93CDB7DEB7A0970FB6F894DE
:104BB000DEBF0FBECDBF66E176E082E296E03CDD6F
:104BC00095DD8111A3C080E2E2E2F2E0DE01119600
:104BD00001900D928A95E1F79E012F5F3F4F690189
:104BE000E12CF12C0F2EFEE2AF2EF6E0BF2EF02DC1
:104BF0000EE113E10F2EF7E44F2EF6E05F2EF02DBD
:104C00000F2EFEE58F2EF6E09F2EF02D0F2EF8E7EB
:104C10006F2EF6E07F2EF02D3E2C2F2CFF92EF9280
:104C2000BF92AF921F930F930E94F23460E070E046
:104C3000C80102DD5BDD0F900F900F900F900F9079
:104C40000F90811163C032E03E15E8F4F6018381D4
:104C50008F9382818F9381818F9380818F93FF9235
:104C6000EF925F924F921F930F930E94F23460E095
:104C700070E0C801E1DC3ADD0FB6F894DEBF0FBE8C
:104C8000CDBF811143C02F923F929F928F921F936D
:104C90000F930E94F23460E070E0C801CDDC26DDA5
:104CA0000F900F900F900F900F900F9081112EC0CA
:104CB0002F923F927F926F921F930F930E94F23434
:104CC00060E070E0C801B8DC11DD0F900F900F902C
:104CD0000F900F900F90811119C03FEFE31AF30A64
:104CE00084E0C80ED11C98E0E916F10409F094CFD5
:104CF00060E070E080E996E09FDCF8DC811106C09E
:104D000060E070E081EA96E097DCF0DCA0960FB6F8
:104D1000F894DEBF0FBECDBFDF91CF911F910F91F1
:104D2000FF90EF90DF90CF90BF90AF909F908F90CB
:104D30007F906F905F904F903F902F900895EF92EB
:104D4000FF920F931F93CF93DF93EC018B017A01B6
:104D500081E0F4DE81110DC0CE01D4DD811109C0E6
:104D6000C801E1DD811105C0C701BBDD811101C0B2
:104D7000EBDDDF91CF911F910F91FF90EF900895A0
:104D800090E0FC01EE0FFF1F8E0F9F1FFC01E65904
:104D9000F84F818192810895DC01009729F1FB0190
:104DA0002081FC0101900020E9F73197E81BF90B05
:104DB000822F90E0E817F907C8F080E008C0880F5C
:104DC000382F330F330F830F8053890F2F5FFD016F
:104DD000E20FF11D908130ED390F3A3010F491114E
:104DE000EECFFB012083089580E0089580E00895D0
:104DF0000F931F93CF93DF93DC01EA012097E1F13A
:104E0000FA0101900020E9F73197E41BF50B329786
:104E100010F532C08D01040F151F30E0AE01420FB6
:104E2000531FFA019081913428F09753592F5295CE
:104E3000507F03C0592F5295507F2C0F3D1FF90111
:104E40009181913410F0975301C09053950FF80160
:104E500090838F5F01C080E0282F220F482F50E001
:104E6000FE0101900020E9F73197EC1BFD0B4E1776
:104E70005F0710F48613CECFDF91CF911F910F9172
:104E8000089580917B13860F80937B1390917E13FE
:104E9000913079F028F09230A9F0933019F108950B
:104EA0006F3F09F048C010927B1381E080937E131E
:104EB0000895663809F03FC010927A1382E080931B
:104EC0007E130895E0917A1381E08E0F80937A1318
:104ED000F0E0E858FC4E6083823069F583E080930F
:104EE0007E13089590917A1321E0290F20937A136D
:104EF000963009F581110EC0E8E7F3E1808190E07A
:104F0000982F88272181820F911D90938013809381
:104F10007F1304C01092801310927F1310927E139F
:104F2000E0917C13F0917D13309729F080917F13ED
:104F300090918013199508958F929F92AF92CF927E
:104F4000EF920F930F2EF1E48F2EF7E29F2EF02DAC
:104F50006894AA24A4F86894CC24C4F8E12C00E056
:104F600023E040E855E260E070E03FD09093821388
:104F7000809381130F91EF90CF90AF909F908F907F
:104F8000089590937D1380937C130895CF93DF93BE
:104F9000CDB7DEB729970FB6F894DEBF0FBECDBFF1
:104FA00089E0E2E4F2E09E012F5F3F4FD9010190DA
:104FB0000D928A95E1F71092801310927F138091E1
:104FC000811390918213009731F0422F532F69E0A3
:104FD000DAD080E001C082E029960FB6F894DEBFF7
:104FE0000FBECDBFDF91CF9108952F923F924F9288
:104FF0005F926F927F928F929F92AF92CF92EF9239
:10500000FF920F931F93CF93DF93CDB7DEB7F82EA8
:105010002A013B0188E090E00E9401328C018F2D33
:1050200090E0FC01EE0FFF1FED57FC4E1183008353
:105030000115110509F46AC0880F991FFC01E55F8D
:10504000FD4F80819181D8018D939C938C2D90E0B0
:10505000880F991F880F991F0E9401321C0186E05A
:1050600090E00E9401327C014C2DB1013ED5F80147
:10507000F582E4828A2D90E0880F991F880F991F8E
:105080000E9401321C0186E090E00E9401327C0106
:105090004A2DB1012AD5D8011396FC92EE921297AF
:1050A00017969C928E921697FFB6F894ED91FC910C
:1050B000119736978081826080838D909C90C30188
:1050C000B2010E948B3120E030E040E051E4DDD8B5
:1050D0009B01AC0160E074E284E79BE40E941A311A
:1050E00020E030E040E85FE333D947D8F40132975D
:1050F0006083D801ED91FC911197359788E9808301
:10510000ED91FC91349786E08083FFBEC801DF916A
:10511000CF911F910F91FF90EF90CF90AF909F9004
:105120008F907F906F905F904F903F902F90089559
:10513000CF93DF93DC01892B01F11296ED91FC9165
:105140001397938182812581981B922384819817DC
:10515000B1F0838126952823C081D181C20FD11D52
:1051600068838F5F958189238383ED91FC913597C7
:1051700080818062808380E003C081E001C082E0A2
:10518000DF91CF910895EF92FF920F931F93CF93EA
:10519000DF937C01009709F441C0DC011296ED9188
:1051A000FC91139793818281981B85819823848138
:1051B000891B8617A8F1662341F1842F952FDC0106
:1051C0006150462F50E04F5F5F4F480F591FE70176
:1051D000EA81FB81938182812581981B92238481BE
:1051E000981779F08C91938126952923608171819C
:1051F0008B01020F111DE80188839F5F8581982331
:1052000093831196A417B50711F7D701ED91FC917F
:10521000359780818062808380E003C081E001C097
:1052200082E0DF91CF911F910F91FF90EF90089551
:105230000097D1F0DC011496ED91FC9115979381C4
:105240008281981799F09281858186958923A08122
:10525000B181A80FB11D8C91DB018C939F5F85817B
:105260009823928380E0089581E0089583E0089573
:105270001F920F920FB60F9211240BB60F922F931D
:105280003F934F935F936F937F938F939F93AF93CE
:10529000BF93CF93DF93EF93FF93A0918313B091CC
:1052A0008413109711F16091C6001496ED91FC9152
:1052B0001597938182812581981B92238481981769
:1052C00061F0838126952823C081D181C20FD11D31
:1052D00068838F5F9581892383831696ED91FC9176
:1052E0001797309711F0CD011995FF91EF91DF914C
:1052F000CF91BF91AF919F918F917F916F915F916E
:105300004F913F912F910F900BBE0F900FBE0F90BA
:105310001F9018951F920F920FB60F9211240BB683
:105320000F922F938F939F93AF93BF93EF93FF931E
:10533000E0918313F09184133097B9F00280F381E8
:10534000E02D938182819817B1F092818581282F79
:1053500026952923A081B181A20FB11D2C919F5FB9
:10536000892382832093C6000BC0E1ECF0E08081AA
:105370008F7D808305C0E1ECF0E080818F7D8083AC
:10538000FF91EF91BF91AF919F918F912F910F90CE
:105390000BBE0F900FBE0F901F9018951F920F928B
:1053A0000FB60F9211240BB60F922F933F934F938A
:1053B0005F936F937F938F939F93AF93BF93CF939D
:1053C000DF93EF93FF93A0918513B091861310970D
:1053D00011F16091CE001496ED91FC911597938197
:1053E00082812581981B92238481981761F08381A3
:1053F00026952823C081D181C20FD11D68838F5F7C
:105400009581892383831696ED91FC9117973097A8
:1054100011F0CD011995FF91EF91DF91CF91BF91DF
:10542000AF919F918F917F916F915F914F913F913C
:105430002F910F900BBE0F900FBE0F901F901895DD
:105440001F920F920FB60F9211240BB60F922F934B
:105450008F939F93AF93BF93EF93FF93E091851347
:10546000F09186133097B9F00280F381E02D93819B
:1054700082819817B1F092818581282F2695292362
:10548000A081B181A20FB11D2C919F5F89238283DE
:105490002093CE000BC0E9ECF0E080818F7D80830B
:1054A00005C0E9ECF0E080818F7D8083FF91EF9172
:1054B000BF91AF919F918F912F910F900BBE0F9045
:1054C0000FBE0F901F9018951F920F920FB60F925C
:1054D00011240BB60F922F933F934F935F936F93CB
:1054E0007F938F939F93AF93BF93CF93DF93EF936C
:1054F000FF93A0918713B0918813109711F16091D9
:10550000D6001496ED91FC911597938182812581A7
:10551000981B92238481981761F083812695282314
:10552000C081D181C20FD11D68838F5F958189238E
:1055300083831696ED91FC911797309711F0CD016A
:105540001995FF91EF91DF91CF91BF91AF919F910D
:105550008F917F916F915F914F913F912F910F901C
:105560000BBE0F900FBE0F901F9018951F920F92B9
:105570000FB60F9211240BB60F922F938F939F9318
:10558000AF93BF93EF93FF93E0918713F09188134C
:105590003097B9F00280F381E02D938182819817D2
:1055A000B1F092818581282F26952923A081B18190
:1055B000A20FB11D2C919F5F892382832093D60077
:1055C0000BC0E1EDF0E080818F7D808305C0E1EDCF
:1055D000F0E080818F7D8083FF91EF91BF91AF914B
:1055E0009F918F912F910F900BBE0F900FBE0F9038
:1055F0001F9018951F920F920FB60F9211240BB6A1
:105600000F922F933F934F935F936F937F938F935B
:105610009F93AF93BF93CF93DF93EF93FF93A091AB
:105620008913B0918A13109711F160913601149685
:10563000ED91FC911597938182812581981B92238E
:105640008481981761F0838126952823C081D181B8
:10565000C20FD11D68838F5F95818923838316963E
:10566000ED91FC911797309711F0CD011995FF91AD
:10567000EF91DF91CF91BF91AF919F918F917F91EA
:105680006F915F914F913F912F910F900BBE0F90B3
:105690000FBE0F901F9018951F920F920FB60F928A
:1056A00011240BB60F922F938F939F93AF93BF93B9
:1056B000EF93FF93E0918913F0918A133097B9F03B
:1056C0000280F381E02D938182819817B1F092815D
:1056D0008581282F26952923A081B181A20FB11D94
:1056E0002C919F5F89238283209336010BC0E1E3D5
:1056F000F1E080818F7D808305C0E1E3F1E080816E
:105700008F7D8083FF91EF91BF91AF919F918F919A
:105710002F910F900BBE0F900FBE0F901F901895FA
:10572000CF93DF931F92CDB7DEB7BE016F5F7F4F80
:1057300080918B1390918C137BDD8111F6CF898141
:1057400090E00F90DF91CF910895682F80918B1397
:1057500090918C13EDDC80E090E008958F929F9201
:10576000AF92CF92EF920F93812C912C6894AA2440
:10577000A7F86894CC24C7F8E12C00E023E040E0CF
:1057800051EE60E070E031DC90938C1380938B13CA
:10579000E3EBF3E183E192E091838083938382835F
:1057A0000F91EF90CF90AF909F908F900895809140
:1057B0009B1381110CC08CE08093B8008FEF809315
:1057C000BB0084E08093BC0081E080939B1308952C
:1057D000AF92BF92CF92DF92EF92FF920F931F93FF
:1057E000CF93DF93A82EB62E69017A0184E090E072
:1057F00008D6EC01892B61F1A88281E0B81212C0B1
:10580000C701B60120EA36E841E050E0C1D5DA012F
:10581000C9014097A109B109B695A79597958795B4
:10582000898311C0C701B60120E83AE146E050E0A3
:10583000AFD5DA01C9014097A109B109B695A7957D
:105840009795879589831B830A838C2F9D2F02C090
:1058500080E090E0DF91CF911F910F91FF90EF904A
:10586000DF90CF90BF90AF9008958091BC00817081
:105870000895FF920F931F93CF93DF930097D1F179
:105880004A30D0F5F42E8B01EC01EFDF811136C0E8
:1058900080918E1390918F13C817D90741F087DF3D
:1058A00089818093B800D0938F13C0938E1381E0C9
:1058B0008F0D809390138881880F80939113FF2020
:1058C00089F0F801A2E9B3E14FEF4F0D642F70E0CA
:1058D000CB010196B801680F791F81918D93E6176E
:1058E000F707D9F788EF8093210285EA8093BC00FF
:1058F00084E005C086E003C087E001C082E0DF915C
:10590000CF911F910F91FF9008951F93CF93DF9335
:10591000009729F16B3028F5162FEC01A6DF8111D5
:1059200022C080918E1390918F13C817D90741F030
:105930003EDF89818093B800D0938F13C0938E137C
:10594000109390138881880F81608093911388EF62
:105950008093210285EA8093BC0085E005C086E043
:1059600003C087E001C082E0DF91CF911F910895CD
:105970001F920F920FB60F9211240BB60F922F9316
:105980003F934F935F936F937F938F939F93AF93C7
:10599000BF93EF93FF93E091B9008E2F90E0FC014D
:1059A0003897E135F10508F075C08827E458FF4FB6
:1059B0008F4F10C510928D13E0918D13809190132D
:1059C000E81770F481E08E0F80938D13F0E0EF56AE
:1059D000FC4E80818093BB0085E88093BC0072C040
:1059E00084E98093BC0080918E1390918F13DC0129
:1059F0001296ED91FC911397309709F463C020E063
:105A000040E050E064E019955DC0E0918D1381E0C5
:105A10008E0F80938D138091BB00F0E0EF56FC4E0B
:105A200080838091B900803411F410928D132091FD
:105A30008D1330E08091901390E00197281739077B
:105A400024F485EC8093BC003DC085E88093BC00C5
:105A500039C08091BB00E0918D13F0E0EF56FC4E11
:105A6000808384E98093BC0080918E1390918F1382
:105A7000DC011296ED91FC911397309719F120916A
:105A8000901341E953E165E019951CC085EA8093C4
:105A9000BC0018C08091B9008093210284E08093FB
:105AA000BC0080918E1390918F13DC011296ED91C2
:105AB000FC911397309731F020E040E050E0609186
:105AC00021021995FF91EF91BF91AF919F918F9115
:105AD0007F916F915F914F913F912F910F900BBEEE
