:1000000067C1000086C1000084C1000082C10000F9
:1000100080C100007EC100007CC100007AC10000E8
:1000200078C1000076C1000074C1000072C10000F8
:100030000C94B80B6EC100006CC100006AC10000D6
:1000400068C1000066C1000064C1000062C1000018
:1000500060C100005EC100005CC100005AC1000028
:1000600058C100000C949A2B0C94EC2B52C1000048
:1000700050C100004EC100004CC100004AC1000048
:1000800048C1000046C1000044C1000042C1000058
:100090000C94302C0C94822C3CC100000C949A30AF
:1000A00038C1000036C1000034C1000032C1000078
:1000B00030C100002EC100002CC100002AC1000088
:1000C00028C1000026C1000024C100000C94C62CE9
:1000D0000C94182D1EC100000C945C2D0C94AE2DB8
:1000E00018C10000922192219221C921D121E6213B
:1000F00092219221C921D121BC302C312C312C31BB
:100100002C312C312C312C31BC302C312C312C3178
:100110002C312C312C312C31BE302C312C312C3166
:100120002C312C312C312C312C312C312C312C31E7
:100130002C312C312C312C31BE302C312C312C3146
:100140002C312C312C312C312C312C312C312C31C7
:100150002C312C312C312C3128312C312C312C31BB
:100160002C312C312C312C31F3302C312C312C31E1
:100170002C312C312C312C312C312C312C312C3197
:100180002C312C312C312C31E7302C312C312C31CD
:100190002C312C312C312C310B316E616E00696E9B
:1001A000660000407A10F35A00A0724E1809001041
:1001B000A5D4E80000E87648170000E40B540200DC
:1001C00000CA9A3B000000E1F50500008096980007
:1001D000000040420F000000A08601000000102730
:1001E00000000000E80300000000640000000000C0
:1001F0000A00000000000100000000002C76D888F2
:10020000DC674F0823DFC1DFAE59E1B1B796E5E304
:10021000E453C63AE651997696E8E6C28426EB891D
:100220008C9B62ED407C6FFCEFBC9C9F40F2BAA5BA
:100230006FA5F490055A2AF75C936B6CF9676DC152
:100240001BFCE0E40D47FEF520E6B500D0ED902E56
:100250000300943577050080841E080000204E0AB4
:10026000000000C80C333333330F986E12831141F2
:10027000EF8D2114893BE65516CFFEE6DB18D184BD
:100280004B381BF77C1D901DA4BBE42420328472E4
:100290005E228100C9F124ECA1E53D270E94D31321
:1002A00080910714823010F00E94F20A0E940F22FF
:1002B000F5CFCF93DF931F92CDB7DEB7CE01019676
:1002C0000E940F1F49810E9404210E945B21F6CFEA
:1002D00011241FBECFEFD1E2DEBFCDBF00E00CBFC7
:1002E00017E0A0E0B2E0E4E9F2E700E00BBF02C0F3
:1002F00007900D92A63BB107D9F725E1A6EBB7E031
:1003000001C01D92AB3EB207E1F70E94B9220C94E6
:10031000483976CE9093C2158093C1150895CF9336
:10032000DF9300D01F92CDB7DEB78C010E94241559
:1003300069837A838B839C8340EE53E060E070E0B6
:10034000CE0101960E943A170E94F3298093C015AE
:100350008111F2CF8091C1159091C215F80191835E
:1003600080838091C1159091C21587D24091C315A9
:100370005091C4156091C5157091C6158091C7152F
:100380009091C8157AD6D8CFEF92FF920F939B0128
:10039000E12CF12C082F44E251E06FE672E08FE887
:1003A00091E00E949A140F91FF90EF900895AF9200
:1003B000BF92CF92DF92EF92FF920F931F93CF9352
:1003C000DF938C015B0169017A0182E090E00E9479
:1003D0000236EC01892B11F119821882B092C815EE
:1003E000A092C715C092C315D092C415E092C5154E
:1003F000F092C61583E00E94C92987E792E09F9397
:100400008F9355D18AE891E00E94EE29BE01C80180
:10041000BBDF0F900F908C2F9D2F02C080E090E0EB
:10042000DF91CF911F910F91FF90EF90DF90CF90D0
:10043000BF90AF900895EF92FF920F939B01E12C34
:10044000F12C082F48E851E06EE872E080E792E076
:100450000E949A140F91FF90EF9008950F931F93AD
:10046000CF93DF930FEF1FEF980146E150E066EB6B
:1004700077E00E94FF11C6EBD7E0998188811F9237
:100480009F931F928F9388EA92E09F938F930FD14F
:1004900089810F900F900F900F900F900F908130E7
:1004A000D1F48091B807813059F46CE90E94222A76
:1004B00089ED92E09F938F93FAD00F900F900BC02D
:1004C00064E681E00E94222A87EE92E09F938F9358
:1004D000EED00F900F90DF91CF911F910F91089563
:1004E000EC01CE01BBDFFDCF0F931F93CF93DF93C2
:1004F00000D01F92CDB7DEB7813099F58B01CE01C8
:1005000001960E94DA2E811123C069817A818B8144
:100510009C810E94C6227093CD076093CC07CB01CB
:1005200007D24091C3155091C4156091C5157091C3
:10053000C6158091C7159091C8159FD569817A819C
:100540008B819C810E94C622F8017183608309C05F
:10055000833039F485EF92E09F938F93A8D00F906A
:100560000F900F900F900F900F90DF91CF911F91F0
:100570000F910895EF92FF920F93CF93DF93082F7F
:10058000EB014091C3155091C4156091C515709150
:10059000C6158091C7159091C8156FD5E12CF12C27
:1005A0009E0148E851E066E273E081E393E00E9437
:1005B0009A14DF91CF910F91FF90EF9008958F9251
:1005C0009F92AF92BF92EF92FF921F93CF93DF93D0
:1005D000182F7B0149015A0162E070E081E090E050
:1005E0000E94E835EC01892B19F11982188280925A
:1005F000C3159092C415A092C515B092C615F0927D
:10060000C815E092C71584E792E00E94982E8111E8
:1006100007C081E393E09F938F9349D00F900F9091
:100620000E94B32EBE01812FA5DF8C2F9D2F02C00B
:1006300080E090E0DF91CF911F91FF90EF90BF900D
:10064000AF909F908F900895CF93DF93EC010E941D
:10065000C82E811103C0BE0181E046DFDF91CF913A
:100660000895CF93DF9300D01F92CDB7DEB78C01F2
:100670000E94241569837A838B839C8342EA53E02A
:1006800060E070E0CE0101960E943A17C801DCDFFD
:10069000F5CF8091C9159091CA15892B39F481E065
:1006A0000E94AE0D9093CA158093C91508950F93BB
:1006B000CF93DF93CDB7DEB74CE251E060E070E05E
:1006C0008091C9159091CA150E94840E8130B9F4A9
:1006D000BE01675F7F4F8F8198850E94E3388AE073
:1006E00090E00E94B03800E020E030E0A90160E036
:1006F00070E08091C9159091CA150E940A0DDF9192
:10070000CF910F9108958091CB159091CC15892BA5
:1007100039F481E00E94AE0D9093CC158093CB15F7
:100720000895CF92DF92EF92FF920F93CF93DF93D2
:100730006B017C01EA014CE251E060E070E08091E5
:10074000CB159091CC150E94840E8130C9F4C092D3
:10075000D407D092D507E092D607F092D707D0936E
:10076000D307C093D20700E020E030E0A90160E0A9
:1007700070E08091CB159091CC150E940A0D07C0B6
:100780008AE493E09F938F9392DF0F900F90DF9115
:10079000CF910F91FF90EF90DF90CF9008950F933E
:1007A000CF93DF934CE251E060E070E08091CB1595
:1007B0009091CC150E94840E813099F4D091D2078B
:1007C000C091D30700E020E030E0A90160E070E0D4
:1007D0008091CB159091CC150E940A0D8D2F9C2FE6
:1007E00009C08AE493E09F938F9361DF0F900F908D
:1007F00080E090E0DF91CF910F910895FF920F93E9
:100800001F93CF93DF934CE251E060E070E0809162
:10081000CB159091CC150E94840E8130C9F4F090D4
:10082000D4071091D507D091D607C091D70700E023
:1008300020E030E0A90160E070E08091CB1590915C
:10084000CC150E940A0D5F2D412F3D2F2C2F0BC080
:100850008AE493E09F938F932ADF0F900F9050E0EC
:1008600040E030E020E0652F742F832F922FDF913E
:10087000CF911F910F91FF9008950F93CF93DF9326
:10088000EC014CE251E060E070E08091CB1590917A
:10089000CC150E94840E813089F4D093D107C09387
:1008A000D00700E020E030E0A90160E070E0809136
:1008B000CB159091CC150E940A0D07C08AE493E0F5
:1008C0009F938F93F4DE0F900F90DF91CF910F9154
:1008D00008950F93CF93DF934CE251E060E070E016
:1008E0008091CB159091CC150E94840E813099F4A3
:1008F000D091D007C091D10700E020E030E0A901FD
:1009000060E070E08091CB159091CC150E940A0DAB
:100910008D2F9C2F09C08AE493E09F938F93C7DEAD
:100920000F900F9080E090E0DF91CF910F910895AC
:100930000F93CF93DF93EC014CE251E060E070E065
:100940008091CB159091CC150E94840E813089F452
:10095000D093CF07C093CE0700E020E030E0A9019C
:1009600060E070E08091CB159091CC150E940A0D4B
:1009700007C08AE493E09F938F9399DE0F900F90C6
:10098000DF91CF910F9108950F93CF93DF934CE2B6
:1009900051E060E070E08091CB159091CC150E9401
:1009A000840E813099F4D091CE07C091CF0700E03A
:1009B00020E030E0A90160E070E08091CB159091DB
:1009C000CC150E940A0D8D2F9C2F09C08AE493E05C
:1009D0009F938F936CDE0F900F9080E090E0DF91FB
:1009E000CF910F910895EF92FF920F93E12CF12C8C
:1009F000062F9C0140EC50E06BE673E089E795E040
:100A00000E949A140F91FF90EF900895AF92BF92B9
:100A1000CF92DF92EF92FF920F931F93CF93DF93CA
:100A20008C015B0169017A0186E090E00E94023648
:100A3000EC01892B19F1188219821A821B821D82FE
:100A40001C82B092C815A092C715C092C315D0924F
:100A5000C415E092C515F092C6150E948F2481112D
:100A600007C08CE793E09F938F9321DE0F900F9048
:100A7000B801CE01B8DF8C2F9D2F02C080E090E03E
:100A8000DF91CF911F910F91FF90EF90DF90CF906A
:100A9000BF90AF900895CF93DF93EC010E94EA24BA
:100AA000688379838A839B830E94E1249C01ADEC57
:100AB000BCEC0E94D935AC015695479556954795A3
:100AC000569547955D834C83688179818A819B81A6
:100AD00028DE4091C3155091C4156091C5157091E1
:100AE000C6158091C7159091C815C7D2DF91CF91D7
:100AF0000895CF93DF9300D01F92CDB7DEB78C015E
:100B00000E94241569837A838B839C8342EA53E095
:100B100060E070E0CE0101960E943A170E94A7247F
:100B2000882339F089EA93E09F938F93C0DD0F907B
:100B30000F9064E070E080E090E00E949F170E94B8
:100B4000BC2460E070E0CB010E949F17C801A3DFC6
:100B5000DDCF0F931F93CF93DF93CDB7DEB76497AD
:100B60000FB6F894DEBF0FBECDBF0E9470260E9464
:100B7000EE27CE0101960E948226CE0101960E94A8
:100B80009E26AE014F5F5F4F63EC73E084EE93E00F
:100B90000E94CC280E94D12681E00E94CB2784EFBE
:100BA00091E00E94D6271AE080E00E94D726082F05
:100BB0000E94ED289F938F931F921F9385EF93E0E0
:100BC0009F938F9374DD0F900F900F900F900F9065
:100BD0000F90083041F066E371E080E090E00E9401
:100BE0009F17115009F7083041F485E194E09F9375
:100BF0008F935DDD0F900F9002C0F4D4FECF64960A
:100C00000FB6F894DEBF0FBECDBFDF91CF911F911D
:100C10000F910895CF93DF93CDB7DEB728970FB626
:100C2000F894DEBF0FBECDBF0E94241569837A837E
:100C30008B839C8381E00E94622662E070E080E00A
:100C400090E00E949F1780E00E94622666E970E0B3
:100C500080E090E00E949F170E941B267ADF84E4C8
:100C600094E09F938F9323DD0F900F904CE652E01A
:100C700060E070E0CE0101960E943A17E8EDF7E0DF
:100C800087E0818381E080834091D7155091D8150A
:100C90006091D9157091DA158091CD159091CE158E
:100CA000A091CF15B091D015482359236A237B23F7
:100CB0008091D1159091D215A091D315B091D415F2
:100CC000482359236A237B23CC24CA94DC2C760145
:100CD00001E021E08091D5159091D6152ED18B01A0
:100CE0009C014091D7155091D8156091D9157091FC
:100CF000DA158091CD159091CE15A091CF15B091B8
:100D0000D01584239523A623B7234091D115509164
:100D1000D2156091D3157091D41584239523A62301
:100D2000B723B901A801482359236A237B238417D9
:100D30009507A607B70709F099CF60DDD62EC72E15
:100D4000B82EA92E2CDD8C01C4DD7C011DDE882E81
:100D5000992E20E030E0A9016D2D7C2D8B2D9A2D50
:100D60000E94BD22882331F00115110519F0E1140C
:100D7000F10499F4FF92EF921F930F93AF92BF92F9
:100D8000CF92DF928EE494E09F938F9390DC0FB626
:100D9000F894DEBF0FBECDBF69CF1D821E821F82B9
:100DA0001886AE014B5F5F4F6D2D7C2D8B2D9A2DDC
:100DB0000E943F2320E030E048EC52E40E9472237E
:100DC0002B013C01AF92BF92CF92DF9287E794E074
:100DD0009F938F936CDC6D817E818F8198850E94BB
:100DE000C1220F2EF8EDCF2EF7E0DF2EF02DF60109
:100DF0006283C301B2010E94C122F60163831F9383
:100E00000F9387E894E09F938F9351DCF60104835E
:100E1000FF92EF9284E994E09F938F9348DCF60170
:100E2000F582E6829F928F928CE994E09F938F9354
:100E30003EDCF60197828086B60180E00E940027A2
:100E40000E94ED289F938F938DEA94E09F938F9358
:100E50002EDC0FB6F894DEBF0FBECDBF07CFAF922A
:100E6000BF92CF92DF92EF92FF920F931F937093F6
:100E7000D6156093D5152093D7153093D815409388
:100E8000D9155093DA15E092CD15F092CE15009356
:100E9000CF151093D015A092D115B092D215C09253
:100EA000D315D092D415E12CF12C082F20E030E09E
:100EB00048E851E061EC74E08AE096E00E949A1400
:100EC0001F910F91FF90EF90DF90CF90BF90AF9068
:100ED00008950F9301110CC0DC01CB0182239323F1
:100EE000A423B523892B8A2B8B2B79F480E010C0A7
:100EF000DC01CB0182239323A423B52328173907D0
:100F00004A075B0721F080E003C081E001C081E077
:100F10000F910895CF93DF938FE090E0AFD1EC0174
:100F2000009739F0FC011192119211921192CF01A8
:100F30008BD2CE01DF91CF9108952F923F924F92A5
:100F40005F926F927F928F929F92AF92BF92CF9259
:100F5000DF92EF92FF920F931F93CF93DF93EC01F9
:100F60004A015B01622E702E0E941E152880398076
:100F70004A805B80A5019401C201B101AADF8823E8
:100F8000A1F0662089F1D501C40180959095A095C6
:100F9000B09582219321A421B52188839983AA83C6
:100FA000BB83C12CD12C760122C0C114D104E10431
:100FB000F104E9F0611004C040E050E0BA0104C05F
:100FC00040E050E060E071E07110746048295929F8
:100FD0006A297B2997018601CE0104960E94361862
:100FE000212C312C210103C0C12CD12C76010E946F
:100FF0005E16CD28CE28CF2859F1811101C0F2D23A
:101000000E94F81B6B017C0191FD1FC00FB6F89484
:101010000F92C880D980EA80FB80072DA50194013A
:10102000C701B60156DF882371F0662061F0809415
:101030009094A094B0948C209D20AE20BF208882F4
:101040009982AA82BB820F900FBE160127015524F8
:10105000C201B101DF91CF911F910F91FF90EF90ED
:10106000DF90CF90BF90AF909F908F907F906F90C8
:101070005F904F903F902F9008954F925F926F92A4
:101080007F92AF92BF92CF92DF92EF92FF920F9337
:101090001F93CF93DF93EC016A017B018C01095F01
:1010A0001F4F0E941E15EB85FC8588819981AA81BE
:1010B000BB81C82AD92AEA2AFB2AC882D982EA82B5
:1010C000FB82C12CD12C76013DC0A480B5808081EB
:1010D0009181A281B381AC01BD017727B2FD0EC021
:1010E000488059806A807B8044225522662277227C
:1010F00045284628472889F420E012C048805980B6
:101100006A807B8044225522662277224415550549
:101110006605770521F020E003C021E001C021E051
:10112000222371F0B0FF04C0C42AD52AE62AF72A88
:10113000488159816A817B817260CF010E94711957
:10114000EA2DFB2DE017F10709F0BFCFC094D09432
:10115000E094F09488819981AA81BB81C822D92228
:10116000EA22FB22C882D982EA82FB820E945E16B2
:10117000688179818A819B81DF91CF911F910F9145
:10118000FF90EF90DF90CF90BF90AF907F906F90E7
:101190005F904F900895EAEFF7E0AEEFB7E0B183CC
:1011A000A08313821282E2EBF3E1F093F907E0935C
:1011B000F807138212821182108284EB9BE013964F
:1011C0009C938E931297ED93FC939093F5078093E5
:1011D000F4079093F7078093F60780E090E89093E8
:1011E000EF078093EE070895CF93DF93EC01AAEF0A
:1011F000B7E001C0DF01ED91FC911197EC17FD07FD
:10120000C8F312968D919C9113979D01280F391F59
:10121000C217D30749F42A813B81820F931F13968B
:101220009C938E931297ED018A819B819E01280FDA
:10123000391FE217F307C1F42091F8073091F9073D
:10124000E217F30771F022813381820F931F9B8392
:101250008A83ED91FC911197808191819983888394
:1012600005C03983288302C0F983E883CA17DB07E6
:1012700011F0CD93DC93DF91CF910895EF92FF921F
:101280000F931F93CF93DF938C010E941E158091C3
:10129000F8079091F907892B09F47DDF8091EE071B
:1012A0009091EF0780239123892B09F076C00115D7
:1012B000110549F0C80104960817190718F000E055
:1012C00010E001C08C010115110509F469C080917D
:1012D000F6079091F7078017910708F464C0C09152
:1012E000FA07D091FB07EAEFF7E002C0FE01EC013C
:1012F0008A819B818017910720F4888199810097CA
:10130000A9F78091F8079091F907C817D90709F450
:101310004DC0E080F18084E0E80EF11C8881998165
:10132000918380832A813B81201B310B2930310539
:1013300048F0CE01800F911FFC01338322831B8371
:101340000A8352DF2A813B818091F6079091F7074B
:10135000821B930B9093F7078093F6074091F40755
:101360005091F5078417950720F49093F507809323
:10137000F4078091EE079091EF07282B392B3B83E0
:101380002A83198218828091F2079091F3070196BF
:101390009093F3078093F2070BC0E12CF12C08C067
:1013A000E12CF12C05C0E12CF12C02C0E12CF12C38
:1013B0000E945E16E114F10411F40E941B22C70181
:1013C000DF91CF911F910F91FF90EF9008950F93B0
:1013D0001F93CF93DF93009791F1EC0124974A81FB
:1013E0005B812091EE073091EF07BA0162237323EE
:1013F000672B29F168817981672B09F52095309554
:10140000242335233B832A830E941E158A819B81D6
:101410002091F6073091F707820F931F9093F707FB
:101420008093F607CE01E0DE8091F0079091F107FE
:1014300001969093F1078093F0070E945E16DF916A
:10144000CF911F910F910895FC01039692838183A0
:101450004FEF5FEFBA0143835483658376839087B0
:1014600087839287818710820895FC0113861286F4
:1014700008950F931F93CF93DF93EB010881198198
:101480002A813B810F3F4FEF14072407340721F4D3
:10149000FC01A185B28511C0DC01139601C0DF01FA
:1014A0001496ED91FC911597408151816281738171
:1014B000041715072607370790F71496ED91FC914E
:1014C0001597FD83EC83D783C683BF83AE831596C0
:1014D000DC93CE9314979B878A87FC0120812F5F32
:1014E0002083DF91CF911F910F910895CF93DF93C8
:1014F000FC01A285B385C481D581868197819F83B4
:101500008E83C681D781848195819D838C8311963A
:101510008D919C911297E817F90731F48681978194
:1015200012969C938E931197138612868C918150FC
:101530008C938C91DF91CF910895A89590EC88E1E0
:101540000FB6F894A895809360000FBE909360004A
:101550000895FC0160833197708331971082319731
:101560001082319720E820833197108231971082C2
:1015700031971082779740833197508386970895EB
:10158000DCDFA0917514B0917614CD91CDBFDD91C3
:10159000DEBFFF91EF91DF91CF91BF91AF919F910E
:1015A0008F917F916F915F914F913F912F911F91FB
:1015B0000F91FF90EF90DF90CF90BF90AF909F90F2
:1015C0008F907F906F905F904F903F902F901F90E3
:1015D0000F900CBE0F900BBE0F900FBE0F90089592
:1015E00081E008950F920FB6F8940F920BB60F9208
:1015F0000CB60F921F9211242F923F924F925F923E
:101600006F927F928F929F92AF92BF92CF92DF9212
:10161000EF92FF920F931F932F933F934F935F93FC
:101620006F937F938F939F93AF93BF93CF93DF93EA
:10163000EF93FF93A0917514B09176140DB60D92AF
:101640000EB60D920E94BA17A0917514B09176143F
:10165000CD91CDBFDD91DEBFFF91EF91DF91CF91B5
:10166000BF91AF919F918F917F916F915F914F91BA
:101670003F912F911F910F91FF90EF90DF90CF90AE
:10168000BF90AF909F908F907F906F905F904F90A2
:101690003F902F901F900F900CBE0F900BBE0F909D
:1016A0000FBE0F9008950F920FB6F8940F920BB6DD
:1016B0000F920CB60F921F9211242F923F924F92CD
:1016C0005F926F927F928F929F92AF92BF92CF92D2
:1016D000DF92EF92FF920F931F932F933F934F93BD
:1016E0005F936F937F938F939F93AF93BF93CF93AA
:1016F000DF93EF93FF93A0917514B09176140DB61C
:101700000D920EB60D9213BE0E94321581110E94E9
:10171000BA17A0917514B0917614CD91CDBFDD911B
:10172000DEBFFF91EF91DF91CF91BF91AF919F917C
:101730008F917F916F915F914F913F912F911F9169
:101740000F91FF90EF90DF90CF90BF90AF909F9060
:101750008F907F906F905F904F903F902F901F9051
:101760000F900CBE0F900BBE0F900FBE0F90089500
:101770009ADF1895DC0153962C915397222341F060
:101780005A96ED91FC915B9790818AE0891B0895B0
:1017900080E008950FB6F8940F92FC01868D8111B8
:1017A00002C081E001C080E00F900FBE08950FB627
:1017B000F8940F92FC01268D878D281302C081E0DA
:1017C00001C080E00F900FBE08950F931F93CF9339
:1017D000DF93EC01042F1E8D48A141110CC08881BC
:1017E0009981892B09F042C08C819D810E94361B12
:1017F0001D821C8242C0011117C050E08A819B816A
:101800000E940A3828A18A819B81820F911D9B83A7
:101810008A832C813D818217930750F188819981B9
:101820009B838A8380E029C050E08E819F810E9443
:101830000A3888A190E09195819591092E813F8188
:10184000280F391F3F832E8348815981241735077C
:1018500030F42C813D81820F931F9F838E83023051
:1018600049F4112349F0115080E007C080E005C021
:1018700080E003C080E001C080E01F5F1E8FDF9129
:10188000CF911F910F910895FC0140A14423A9F02D
:1018900050E026813781240F351F378326838481CA
:1018A00095812817390720F080819181978386835D
:1018B000CB01668177810C940A3808951F93CF93EA
:1018C000DF93EC010FB6F8940F921AA10BC08B892D
:1018D000882351F0CE0143960E94C21881110E94C4
:1018E000981A115011169CF38FEF8AA30F900FBE18
:1018F0000FB6F8940F9219A10BC08885882351F078
:10190000CE0108960E94C21881110E94981A1150A7
:1019100011169CF38FEF89A30F900FBEDF91CF912B
:101920001F910895CF93DF93EC010FB6F8940F92B7
:10193000E881F9818F8D28A190E030E0829FA0019D
:10194000839F500D929F500D11244E0F5F1F5D839A
:101950004C831E8EFB83EA830197289FA001299F59
:10196000500D389F500D1124CF01840F951F9F8378
:101970008E838FEF89A38AA361110BC0888588238A
:1019800071F0CE0108960E94C218882341F02ADE29
:1019900006C0CE01089658DDCE01439655DD0F9066
:1019A0000FBE81E0DF91CF9108950F931F93F8014F
:1019B000611103C01183008302C051834083878F6C
:1019C00060A361E0CF01AEDF1F910F910895DF9218
:1019D000EF92FF920F931F93CF93DF93F82EE62E93
:1019E000D42E869FC0011124839648DCEC01009719
:1019F00041F08C012D2DAC014D5D5F4F6E2D8F2D73
:101A0000D4DFCE01DF91CF911F910F91FF90EF9026
:101A1000DF900895CF92DF92EF92FF920F931F9382
:101A2000CF93DF93CDB7DEB729970FB6F894DEBF1B
:101A30000FBECDBF7C016B012E833F834887598742
:101A400010E00FB6F8940F92F701968D878D9817D6
:101A500010F00230B1F4402FB601C701B6DEF70135
:101A60009389992341F0C70143960E94C2188823A5
:101A700021F0B8DD02C08111B5DD0F900FBE81E00D
:101A80004CC08E819F81A885B985892B8A2B8B2B91
:101A900021F40F900FBE80E040C0111105C0CE01AF
:101AA00001960E94211A11E00F900FBEC7D70FB602
:101AB000F8940F92F70181A18F3F09F411A2F70169
:101AC00082A18F3F09F412A20F900FBEBE016A5F80
:101AD0007F4FCE0101960E94321A811119C0C701B1
:101AE00066DE882381F04E815F8168857985C70134
:101AF00008960E941F18C701E1DE0E945E16811140
:101B0000A0CF70DD9ECFC701D9DE0E945E1699CFAF
:101B1000C701D4DE0E945E1680E029960FB6F894C5
:101B2000DEBF0FBECDBFDF91CF911F910F91FF9010
:101B3000EF90DF90CF9008950F93009769F0FC012C
:101B40001582148211821082168200E020E030E0BB
:101B5000A90160E070E05EDF0F910895CF93DF93FD
:101B6000482F60E081E033DFEC01E6DFCE01DF915A
:101B7000CF910895EF92FF920F931F93CF93DF932E
:101B80008A01FC01568D378D531710F02230F9F47D
:101B9000422F7801EC011AA18E8DCE0116DE1F3F77
:101BA00081F48B898823A9F0CE0143960E94C21844
:101BB000882389F0E114F10481F081E0F70180834A
:101BC0000DC0FF24F394F10EFAA281E007C080E07B
:101BD00005C081E003C081E001C081E0DF91CF91C9
:101BE0001F910F91FF90EF900895CF92DF92EF92A7
:101BF000FF920F931F93CF93DF93CDB7DEB7299753
:101C00000FB6F894DEBF0FBECDBF8C016B012E83E3
:101C10003F8348875987E12C0FB6F8940F92F8015B
:101C2000F68CFF2099F0B601C8012EDEFA94F80177
:101C3000F68E8085882331F0C80108960E94C2186C
:101C40008111D0DC0F900FBE81E04FC08E819F814B
:101C5000A885B985892B8A2B8B2B21F40F900FBE79
:101C600080E043C0E11006C0CE0101960E94211A17
:101C7000EE24E3940F900FBEE1D60FB6F8940F92C6
:101C8000F80181A18F3F09F411A2F80182A18F3FD1
:101C900009F412A20F900FBEBE016A5F7F4FCE0102
:101CA00001960E94321A811117C0C80173DD882382
:101CB00079F04E815F8168857985C80143960E94DD
:101CC0001F18C801FBDDFAD78111A6CF8BDCA4CF8A
:101CD000C801F4DDF3D7A0CFC801F0DDEFD7C8010C
:101CE00059DD882309F498CF80E029960FB6F8943F
:101CF000DEBF0FBECDBFDF91CF911F910F91FF903F
:101D0000EF90DF90CF900895EF92FF920F931F9383
:101D1000CF93DF93CDB7DEB729970FB6F894DEBF28
:101D20000FBECDBF8C014E835F8368877987E12C1E
:101D3000F12C0FB6F8940F92F801868D8823C9F024
:101D40008150868F80819181892B29F40E94221CE9
:101D5000F80195838483F8018085882331F0C801D8
:101D600008960E94C21881113DDC0F900FBE81E0E1
:101D70006FC08E819F81A885B985892B8A2B8B2B7B
:101D800021F40F900FBE80E063C0F11006C0CE01B9
:101D900001960E94211AFF24F3940F900FBE4ED695
:101DA0000FB6F8940F92F80181A18F3F09F411A2A8
:101DB000F80182A18F3F09F412A20F900FBEBE015D
:101DC0006A5F7F4FCE0101960E94321A811126C0B0
:101DD000C801E0DC8823F1F0F80180819181892B32
:101DE00051F40FB6F8940F92848195810E94AF1A36
:101DF000E82E0F900FBE4E815F8168857985C801FE
:101E000043960E941F18C80159DD58D7811191CF00
:101E1000E9DB8FCFC80152DD51D78BCFC8014EDD32
:101E20004DD7C801B7DC882309F483CFEE2079F0C1
:101E30000FB6F8940F92C8019DDC682FF8018481D9
:101E400095810E94911B0F900FBE80E001C080E041
:101E500029960FB6F894DEBF0FBECDBFDF91CF91AC
:101E60001F910F91FF90EF900895CF93DF93EC01B6
:101E70000FB6F8940F9289A18F3F09F419A28AA195
:101E80008F3F09F41AA20F900FBE8E8D811104C0EE
:101E9000CE0143960E948018CE0110DDDF91CF91D4
:101EA0000895FC014481558122813381240F351F1F
:101EB00080819181B901681B790BCB01641775078B
:101EC00010F0841B950B08950F93FC018FE0DF0148
:101ED0001D928A95E9F77587648755834483378314
:101EE000268306870F910895AF92BF92CF92DF921B
:101EF000EF92FF920F931F93CF93DF936C015B01DF
:101F00007A01FC01C281D381048115810C1B1D0B58
:101F10004017510708F48A01F60184859585A801C8
:101F2000B5018C0F9D1F0E940A380E151F0558F42D
:101F3000A701401B510BB501600F711FF60184858D
:101F400095850E940A38CE018E0D9F1DF6012481D1
:101F500035818217930710F0821B930BF601938350
:101F60008283C701DF91CF911F910F91FF90EF9076
:101F7000DF90CF90BF90AF900895CF92DF92EF9215
:101F8000FF920F931F93CF93DF931F921F92CDB7B2
:101F9000DEB77C016B015A83498321153105C1F0FD
:101FA000FC01868580FD08C04217530708F49A019A
:101FB0003A83298381E00FC02017310758F042E0AF
:101FC00050E0BE016F5F7F4FC7018EDF81E003C02D
:101FD00080E001C080E0882331F049815A81B60158
:101FE000C70182DF02C080E090E00F900F90DF9188
:101FF000CF911F910F91FF90EF90DF90CF900895B8
:10200000AF92BF92CF92DF92EF92FF920F931F9306
:10201000CF93DF937C015B01E9014217530708F47A
:10202000EA01209781F1F701008111818481958176
:10203000801B910B6E018C179D0708F46C01F70152
:1020400064857585600F711FA601C5010E940A385D
:10205000CC16DD0658F4AE014C195D09F701648514
:102060007585C5018C0D9D1D0E940A380C0F1D1F22
:10207000F701848195810817190710F0081B190BC7
:10208000F70111830083CE01DF91CF911F910F9152
:10209000FF90EF90DF90CF90BF90AF9008956F9238
:1020A0007F928F929F92AF92BF92CF92DF92EF92E8
:1020B000FF920F931F93CF93DF931F921F92CDB781
:1020C000DEB76C014B015A01790101151105B1F020
:1020D000FC0160807180A801BE016F5F7F4F90DFBF
:1020E00089819A81E01AF10AA816B90630F4F6013E
:1020F00071826082A12CB12C01C05C019701A50105
:10210000B401C6017DDF0F900F90DF91CF911F9139
:102110000F91FF90EF90DF90CF90BF90AF909F9086
:102120008F907F906F900895CF92DF92EF92FF9201
:102130000F93CF93DF93EC016B01413011F401E079
:1021400001C000E0C114D10419F4CC24C394D12CF3
:10215000CE014096C817D90720F421968FD87C016C
:1021600002C0E12CF12CE114F10439F09601AE012A
:10217000B701615F7F4FC701A7DEC701DF91CF9134
:102180000F91FF90EF90DF90CF9008950F930FB6CF
:10219000F8940F92FC0120853185232B71F4228560
:1021A0003385232B61F426813781448155816485F1
:1021B0007585068589DE81E003C080E001C080E08E
:1021C0000F900FBE0F910895FC012481358180810D
:1021D0009181820F931F42815381841B950B01973C
:1021E0008217930710F0821B930B08952F923F9252
:1021F0004F925F926F927F928F929F92AF92BF9217
:10220000CF92DF92EF92FF920F931F93CF93DF93C2
:10221000CDB7DEB72B970FB6F894DEBF0FBECDBF9C
:102220004C017B876A871A010E831F8328873987B1
:10223000FC01848195810197268520FF0CC02A012D
:10224000F2E04F0E511C8415950558F41E821F8232
:102250001886198606C08417950710F02A0101C058
:102260002C018E819F81A885B985892B8A2B8B2B88
:1022700009F438C0CE0101960E940B1A0FB6F894EB
:102280000F92C401A1DF3C018415950540F560E083
:1022900080E090E00E94F51E0E949C1AF401938752
:1022A00082870F900FBEAE80BF80C884D984E12C96
:1022B000F12C00E010E0980140E050E0BA0180E02D
:1022C0000E94341CF40113861286BE016A5F7F4FA0
:1022D000CE0101960E94321A882381F205C00F9028
:1022E0000FBE02C0612C712C6114710419F4C40179
:1022F0006BDF3C0182019301A1016A857B85C401EA
:102300003CDE6C01892BE9F0C401CBDDF4012681B0
:10231000378182179307A8F091D3F40180859185C6
:10232000892B71F080859185E12CF12C00E020E073
:1023300030E0A90160E00E94DC1CF40111861086E7
:10234000BDD4C6012B960FB6F894DEBF0FBECDBF2D
:10235000DF91CF911F910F91FF90EF90DF90CF9081
:10236000BF90AF909F908F907F906F905F904F90B5
:102370003F902F900895AF92BF92CF92DF92EF924D
:10238000FF920F931F93CF93DF93EC017B015A01D0
:1023900069018E8580FF04C08A010E5F1F4F01C056
:1023A0008A01CE0111DF9C01A501B701CE01E5DD57
:1023B0005C01892BC1F0CE0174DD2E813F81821733
:1023C000930788F088859985892B69F08885998598
:1023D000E12CF12C00E020E030E0A90160E00E9457
:1023E000D31D19861886C501DF91CF911F910F91DA
:1023F000FF90EF90DF90CF90BF90AF9008954F92F5
:102400005F926F927F928F929F92AF92BF92CF9284
:10241000DF92EF92FF920F931F93CF93DF93EC0124
:102420002B013A01580169018E8580FF05C068942F
:10243000882481F8912C02C0812C912CA114B10424
:10244000C104D10441F10FB6F8940F92CE0129DDF9
:102450007C018816990648F060E080E090E00E94D8
:10246000F51E0E949C1A998788870F900FBE8E14C4
:102470009F04A0F0E12CF12C00E010E0980140E076
:1024800050E0BA0180E00E94341C19861886CE0103
:1024900008DD7C0103C0CE0104DD7C018E149F04A5
:1024A000E8F484019701A301B201CE01F8DD6C01CB
:1024B000892BB1F0C3D28A859B85892B69F08A85E7
:1024C0009B85E12CF12C00E020E030E0A90160E0E8
:1024D0000E94DC1C1B861A86F1D302C0C12CD12CB1
:1024E000C601DF91CF911F910F91FF90EF90DF9088
:1024F000CF90BF90AF909F908F907F906F905F90A4
:102500004F900895E091EF13F091F01380818111C5
:102510000CC08FEF9FEFDC018093B9139093BA1337
:10252000A093BB13B093BC130895E091EF13F09107
:10253000F0130780F085E02D80819181A281B38125
:102540008093B9139093BA13A093BB13B093BC13A9
:102550000895CF93DF93EC018B8D9C8D0E94E7094A
:10256000CE010E94E709DF91CF9108954F925F92CB
:102570006F927F928F929F92AF92BF92CF92DF9293
:10258000EF92FF920F93CF93DF932C015B014A01EF
:102590003901E60165EA70E08B8D9C8D0E9413384D
:1025A0008B8D9C8D21E0821A9108880E991EA114B2
:1025B000B10489F415C0822F90E0F501E80FF91FEE
:1025C0003081DE01A80FB91F5D963C93808188237E
:1025D00029F02F5F01C020E0203168F31CA601C064
:1025E0001D8E0A3008F009E00A8F0DA71EA6CE0145
:1025F00002960E94350ACE010E960E94350ADB87AC
:10260000CA878AE090E0A0E0B0E0801B9109A109B0
:10261000B1098E879F87A88BB98BDF8BCE8B84E027
:10262000FE01BF96DF011D928A95E9F71BAAA3015F
:10263000B201C4010E94A90A99838883E114F104BC
:1026400019F0F701D183C083DF91CF910F91FF90F3
:10265000EF90DF90CF90BF90AF909F908F907F9042
:102660006F905F904F900895CF93C0E009C02BE02A
:10267000C29FC0011124895F9B4E0E94240ACF5F34
:10268000CA30A8F38CEF93E10E94240A81EF93E112
:102690000E94240A82EE93E10E94240A87ED93E1CE
:1026A0000E94240A8BEC93E10E94240A8CEF93E1B0
:1026B0009093F0138093EF1381EF93E19093EE13D7
:1026C0008093ED13CF910895CF93DF93EC010FB674
:1026D000F8940F928091CA138F5F8093CA138091F0
:1026E000751490917614892B51F4D0937614C0937D
:1026F00075148091CA13813091F4B6DF10C08091B7
:10270000C41381110CC0E0917514F0917614928D70
:102710008A8D891720F0D0937614C0937514809118
:10272000BD138F5F8093BD13EA8D8091C5138E1703
:1027300010F4E093C5138BE08E9FF0011124E95F44
:10274000FB4E0180F281E02DFF83EE8326813781ED
:1027500039872887A681B7819E012E5F3F4F159646
:102760003C932E93149737832683EA8D8E9FF00136
:102770001124E95FFB4EFD87EC8780818F5F8083AA
:102780000F900FBE8091C413882351F0E09175140F
:10279000F0917614928D8A8D981710F40E94F20AA7
:1027A000DF91CF910895CF93DF931BC00FB6F894BC
:1027B0000F92E091DE13F091DF13C085D185CE0139
:1027C00002960E94760A8091CA1381508093CA13A0
:1027D0008091D61381508093D6130F900FBECE01F7
:1027E000B8DE8091D6138111E1CFDF91CF910895AA
:1027F0008F929F92AF92BF92CF92DF92EF92FF9211
:10280000CF93DF936B017C01C42F8090C61390900F
:10281000C713A090C813B090C913809175149091FC
:10282000761402960E94760A8FEFC816D806E8063C
:10283000F806B1F5CC23A1F1EBECF3E1A181B28173
:10284000C0917514D0917614BF83AE83C091751476
:10285000D091761416968D919C91179799878887B9
:102860001696CD91DC9117978091751490917614FE
:1028700002969D838C8380917514909176140296B4
:1028800017969C938E931697A0917514B091761419
:102890001D96FC93EE931C9780818F5F80833FC0D1
:1028A000C80CD91CEA1CFB1CE0917514F09176143D
:1028B000C282D382E482F582C814D904EA04FB04FC
:1028C00068F460917514709176148091ED13909175
:1028D000EE136E5F7F4F0E94390A21C0609175141C
:1028E000709176148091EF139091F0136E5F7F4F8B
:1028F0000E94390A8091B9139091BA13A091BB1329
:10290000B091BC13C816D906EA06FB0640F4C09283
:10291000B913D092BA13E092BB13F092BC13DF91BB
:10292000CF91FF90EF90DF90CF90BF90AF909F90AE
:102930008F9008952F923F924F925F926F927F9265
:102940008F929F92AF92BF92CF92DF92EF92FF92BF
:102950000F93CF93DF933C011B014A012901CA0168
:102960000E943E096C01892B71F084E390E00E9483
:102970003E09EC01892B19F0DC8ECB8E06C0C60116
:102980000E94E70902C0C0E0D0E0209761F0A12CCE
:10299000B12C6E019201A401B101C301E7DDCE01AA
:1029A00093DE81E001C08FEFDF91CF910F91FF9017
:1029B000EF90DF90CF90BF90AF909F908F907F90DF
:1029C0006F905F904F903F902F900895EF92FF92FD
:1029D0000F930F2EF7EBEF2EF3E1FF2EF02D00E01B
:1029E00020E030E040EC50E06EEC74E08EE491E0EA
:1029F000A1DF813011F40E94991F8130C9F4F8944D
:102A00008FEF9FEFDC018093B9139093BA13A093DB
:102A1000BB13B093BC1381E08093C4131092C61310
:102A20001092C7131092C8131092C9130E94C00AC3
:102A3000809106020F91FF90EF9008958091B61358
:102A40008F5F8093B61308950FB6F8940F9260913C
:102A5000C6137091C7138091C8139091C9130F903A
:102A60000FBE0895CF92DF92EF92FF92CF93DF9344
:102A70008091B613811105C1C090C613D090C713C1
:102A8000E090C813F090C9138FEFC81AD80AE80A6B
:102A9000F80AC092C613D092C713E092C813F092FE
:102AA000C913C114D104E104F104B1F48091EF130E
:102AB0009091F0132091ED133091EE133093F013B9
:102AC0002093EF139093EE138093ED138091BE1338
:102AD0008F5F8093BE1316DD8091B9139091BA1366
:102AE000A091BB13B091BC13C816D906EA06FB0629
:102AF00020F480E0B2C081E001C080E0E091EF13FB
:102B0000F091F013908191110CC04FEF5FEFBA017B
:102B10004093B9135093BA136093BB137093BC13D3
:102B20009CC0E091EF13F091F0130780F085E02D49
:102B30000084F185E02D4281538164817581C41642
:102B4000D506E606F70648F44093B9135093BA1336
:102B50006093BB137093BC1380C0A485B585C681F8
:102B6000D781208531853F832E83C085D1852681FD
:102B700037813D832C8311964D915C9112979F0173
:102B80002E5F3F4F4217530731F44085518512960F
:102B90005C934E931197158614869C9191509C934B
:102BA000A08DB18D109709F1C289D38944895589C7
:102BB0005F834E83C489D589428953895D834C8361
:102BC00011966D917C911297AF01425F5F4F641730
:102BD000750731F44489558912965C934E93119789
:102BE000118E108E9C9191509C93A28D9091C51343
:102BF0009A1710F4A093C5139BE09A9FD00111245B
:102C0000A95FBB4E11960D90BC91A02DB783A683F2
:102C100016964D915C911797518740871696CD91E6
:102C2000DC9117973D832C8317963C932E93169730
:102C3000A28D9A9FD0011124A95FBB4EB587A487AE
:102C40009C919F5F9C93228DE0917514F091761476
:102C5000928D291708F04FCF51CFE0917514F09164
:102C60007614E28D9BE0E99FF0011124E95FFB4EB1
:102C70009081923008F081E09091BF13911116C0BD
:102C800016C08091C0139091C113A091C213B0914E
:102C9000C3130196A11DB11D8093C0139093C1135E
:102CA000A093C213B093C31380E001C081E0DF9111
:102CB000CF91FF90EF90DF90CF900895CF92DF9269
:102CC000EF92FF92CF93DF930FB6F8940F9280911B
:102CD000B61381508093B6138091B6138111BEC094
:102CE0008091CA13811188C0BCC0E091E913F091B2
:102CF000EA130084F185E02DA08DB18DC289D389BE
:102D0000848995899F838E83C489D5898289938993
:102D10009D838C8311962D913C911297CF010E9635
:102D20002817390731F48489958912969C938E93DC
:102D30001197118E108E8C9181508C93A485B5853E
:102D4000C681D781808591859F838E83C085D185FB
:102D5000868197819D838C8311968D919C9112978A
:102D60009F012E5F3F4F8217930731F48085918535
:102D700012969C938E931197158614868C91815090
:102D80008C93A28D8091C5138A1710F4A093C5135C
:102D90008BE08A9FD0011124A95FBB4E11960D9044
:102DA000BC91A02DB783A68316964D915C91179781
:102DB000518740871696CD91DC9117973D832C83E0
:102DC00017963C932E931697A28D8A9FD0011124BB
:102DD000A95FBB4EB587A4878C918F5F8C93928D32
:102DE000A0917514B09176145A968C91981730F082
:102DF00081E08093BF1302C0E0E0F0E08091E21335
:102E0000811173CFEF2B09F07DDBC090C013D09000
:102E1000C113E090C213F090C313C114D104E104B4
:102E2000F104A1F01FDE882319F081E08093BF1325
:102E300081E0C81AD108E108F108A1F71092C01387
:102E40001092C1131092C2131092C3138091BF133A
:102E5000882331F00E94F20A81E003C080E001C0C3
:102E600080E00F900FBEDF91CF91FF90EF90DF9049
:102E7000CF9008958F929F92AF92BF92CF92DF92A0
:102E8000EF92FF921F93CF93DF93EC016A017B01D6
:102E9000D5DD8090C6139090C713A090C813B09052
:102EA000C91388819981AA81BB81AC01BD014C0DF8
:102EB0005D1D6E1D7F1D88169906AA06BB0660F46F
:102EC000481759076A077B0798F484169506A606E3
:102ED000B70680F010E013C0481759076A077B0750
:102EE00058F084169506A606B70640F010E007C015
:102EF00010E005C011E003C011E001C011E04883FB
:102F000059836A837B83112341F0CB01BA0168198D
:102F100079098A099B0940E06BDCD0DE811102C08F
:102F20000E94F20A812FDF91CF911F91FF90EF90C5
:102F3000DF90CF90BF90AF909F908F900895CF92E9
:102F4000DF92EF92FF926B017C01672B682B692B5C
:102F500039F074DD40E0C701B6014ADCAFDE01C0E4
:102F600080E0811102C00E94F20AFF90EF90DF9092
:102F7000CF9008958091B613882321F081E080934B
:102F8000BF1308951092BF13E0917514F091761459
:102F900020813181E0917514F0917614838D948DA8
:102FA0008217930760F06091751470917614635ED8
:102FB0007F4F80917514909176140E942722809102
:102FC000C51301C08150282F30E09BE0929FF00193
:102FD000939FF00D1124E95FFB4E9081992391F3AB
:102FE0009BE0929FA001939F500D1124DF0101806F
:102FF000F281E02D0480F581E02D1296FC93EE9392
:103000001197465F5B4EE417F50729F4448155811B
:10301000FD01528341839BE0929FF001939FF00D4D
:103020001124E95FFB4E0180F281E02D208531857E
:1030300030937614209375148093C5130895CF921E
:10304000DF92EF92FF926A017B016091751470919B
:103050007614625F7F4F0E94390A41E0C701B601D2
:10306000C7DBFF90EF90DF90CF9008950F931F93F1
:10307000CF93DF93FC01A0917514B0917614706822
:103080001E964D935D936D937C935197A181B28170
:10309000C0917514D0917614BB8BAA8BC091751416
:1030A000D091761416968D919C9117979D8B8C8B51
:1030B0001696CD91DC9117978091751490917614A6
:1030C0000E969D838C8380917514909176140E9644
:1030D00017969C938E931697A0917514B0917614C1
:1030E0005996FC93EE93589780818F5F808341E0DF
:1030F000C901B8017DDBDF91CF911F910F91089538
:10310000CF93DF93FC01CB01BA01A181B281C091C1
:103110007514D0917614BB8BAA8BC0917514D09185
:10312000761416964D915C9117975D8B4C8B169685
:10313000CD91DC9117974091751450917614425FB0
:103140005F4F5D834C834091751450917614425FBC
:103150005F4F17965C934E931697A0917514B0919C
:1031600076145996FC93EE93589730813F5F3083E5
:10317000222319F06FEF7FEFCB01422F39DBDF9174
:10318000CF910895CF93DF93DC011796ED91FC91D9
:1031900018970084F185E02DA08DB18DC289D38967
:1031A000848995899F838E83C489D58982899389EF
:1031B0009D838C8311968D919C9112979F01225F24
:1031C0003F4F8217930731F48489958912969C9317
:1031D0008E931197118E108E8C9181508C938091CB
:1031E000B613811152C0A485B585C681D78180856B
:1031F00091859F838E83C085D185868197819D83AC
:103200008C8311968D919C9112979F012E5F3F4F59
:103210008217930731F48085918512969C938E9343
:103220001197158614868C9181508C93A28D809174
:10323000C5138A1710F4A093C5138BE08A9FD001A1
:103240001124A95FBB4E11960D90BC91A02DB783A0
:10325000A68316964D915C911797518740871696D5
:10326000CD91DC9117973D832C8317963C932E9339
:103270001697A28D8A9FD0011124A95FBB4EB587F6
:10328000A4878C918F5F8C931CC042EE53E1DA01CE
:103290001196CD91DC911297D38BC28B8E819F8139
:1032A000958B848B8E819F81DC0115963C932E93A8
:1032B00014973F832E83518F408FDA018C918F5F5B
:1032C0008C93928DE0917514F0917614828D89170C
:1032D00020F481E08093BF1301C080E0DF91CF91A3
:1032E0000895CF93DF93DC0170684D935D936D93E8
:1032F0007C9313971896ED91FC9119971A964D911E
:103300005C911B9714968D919C91159716962D9113
:103310003C911797EC013F832E8316968D919C91DB
:10332000179714962D913C911597EC013D832C83B2
:10333000EA0189819A81A817B90731F416968D910F
:103340009C9117979A8389831B961C921E921A97B9
:10335000DA018C9181508C93A485B585C681D78183
:10336000808591859F838E83C085D1858681978155
:103370009D838C8311968D919C9112979F012E5F56
:103380003F4F8217930731F48085918512969C9365
:103390008E931197158614868C9181508C93A28DF3
:1033A0008091C5138A1710F4A093C5138BE08A9FF0
:1033B000D0011124A95FBB4E11960D90BC91A02D98
:1033C000B783A68316964D915C91179751874087D6
:1033D0001696CD91DC9117973D832C8317963C93DD
:1033E0002E931697A28D8A9FD0011124A95FBB4E00
:1033F000B587A4878C918F5F8C93928DE091751423
:10340000F0917614828D891718F481E08093BF13B0
:10341000DF91CF9108950FB6F8940F922091BE13CB
:10342000FC0120834091C6135091C7136091C813CB
:103430007091C91341835283638374830F900FBECD
:1034400008952091BE13FC0120834091C613509132
:10345000C7136091C8137091C9134183528363836A
:10346000748308958F929F92AF92BF92CF92DF9212
:10347000EF92FF920F931F93CF93DF93FB010FB651
:10348000F8940F92C090C613D090C713E090C81361
:10349000F090C913DC0111960D911D912D913C9175
:1034A000149746015701801A910AA20AB30A408173
:1034B0005181628173814F3FBFEF5B076B077B07D1
:1034C00039F1EC01B881A091BE13BA1759F0C016BA
:1034D000D106E206F30630F01082118212821382C6
:1034E00081E017C084169506A606B70658F4481959
:1034F00059096A097B094083518362837383A1DF81
:1035000080E007C0108211821282138281E001C024
:1035100080E00F900FBEDF91CF911F910F91FF9030
:10352000EF90DF90CF90BF90AF909F908F900895D5
:1035300081E08093BF130895809175149091761463
:1035400008958091C413882331F08091B6138111BE
:1035500004C082E0089581E0089580E008950F930B
:103560001F93CF93DF93FC01892B09F477C0828DE1
:10357000A0917514B09176145A969C91891708F011
:1035800063C04685578560897189772394F0A0913F
:103590007514B09176145A969C914AE050E060E020
:1035A00070E0491B51096109710946875787608B93
:1035B000718B248535854BE0849FC0011124895F80
:1035C0009B4E28173907B9F5EF018F010E5F1F4F8A
:1035D000C8010E94760AE0917514F0917614E28D8C
:1035E000EA8F8091C5138E1710F4E093C5138BE01A
:1035F0008E9FF0011124E95FFB4E0180F281E02DE6
:10360000FF83EE832681378139872887A681B7819A
:1036100015961C930E93149717830683EA8D8E9F3D
:10362000F0011124E95FFB4EFD87EC8780818F5FFD
:10363000808381E016C0A0917514B09176145A96DB
:103640008C91828F81E00DC095A5E0917514F09169
:103650007614828D981720F080E003C080E001C0CE
:1036600081E0DF91CF911F910F9108950F931F93E8
:10367000CF93DF93FC01892B09F449C086A58150C3
:1036800086A7228D95A5291709F443C0811143C04F
:10369000EF018F010E5F1F4FC8010E94760AEDA552
:1036A000EA8F8AE090E0A0E0B0E08E1B9109A109CA
:1036B000B1098E879F87A88BB98B8091C5138E1710
:1036C00010F4E093C5138BE08E9FF0011124E95FA5
:1036D000FB4E0180F281E02DFF83EE83268137814E
:1036E00039872887A681B78115961C930E93149766
:1036F00017830683EA8D8E9FF0011124E95FFB4E4C
:10370000FD87EC8780818F5F808381E005C080E04A
:1037100003C080E001C080E0DF91CF911F910F9145
:1037200008950F931F93CF93DF93FC01892B09F426
:103730005AC085A5861708F4862F928D891709F43B
:1037400052C026A5213009F04EC0828F468557858C
:1037500060897189772364F04AE050E060E070E0AE
:10376000481B51096109710946875787608B718B26
:10377000248535854BE0949FC0011124895F9B4EC1
:103780002817390781F5EF018F010E5F1F4FC80120
:103790000E94760AEA8D8091C5138E1710F4E0938B
:1037A000C5138BE08E9FF0011124E95FFB4E018071
:1037B000F281E02DFF83EE832681378139872887C8
:1037C000A681B78115961C930E93149717830683D1
:1037D000EA8D8E9FF0011124E95FFB4EFD87EC8797
:1037E00080818F5F8083DF91CF911F910F9108952A
:1037F000CF92DF92EF92FF92E0917514F0917614E0
:103800006685778580899189E0917514F0917614A9
:10381000A0917514B09176145A962C910F2EFAE05F
:10382000CF2ED12CE12CF12CF02DC21AD108E108B9
:10383000F108C686D786E08AF18AFF90EF90DF9084
:10384000CF9008958091751490917614892B39F05A
:10385000E0917514F091761486A58F5F86A780910C
:1038600075149091761408954F925F926F927F92A3
:10387000AF92BF92CF92DF92EF92FF920F931F937E
:10388000CF93DF93280139010FB6F8940F92E0919E
:103890007514F0917614C82FD0E0EC0FFD1F83A9AA
:1038A000823079F1E0917514F0917614CE01880F91
:1038B000991F880F991FE80FF91F87A590A9A1A943
:1038C000B2A94095509560957095482359236A2375
:1038D0007B2347A750AB61AB72ABE0917514F091BD
:1038E0007614EC0FFD1F81E083ABA114B104C10479
:1038F000D10439F041E0C601B5010E94F8130E94DD
:10390000F20A0F900FBE0FB6F8940F92E114F10473
:10391000A1F0E0917514F0917614CE01880F991FF3
:10392000880F991FE80FF91F87A590A9A1A9B2A92F
:10393000F70180839183A283B383E0917514F091A2
:103940007614EC0FFD1F83A98230E9F4E091751421
:10395000F0917614CE01880F991F880F991FE80FF8
:10396000F91F87A590A9A1A9B2A940945094609489
:103970007094482259226A227B2247A650AA61AA43
:1039800072AA81E001C080E0209175143091761414
:10399000C20FD31F1BAA0F900FBEDF91CF911F91B3
:1039A0000F91FF90EF90DF90CF90BF90AF907F90FE
:1039B0006F905F904F9008958F929F92AF92BF92B9
:1039C000EF92FF920F93CF93DF93DC010FB6F89441
:1039D0000F92E114F10489F0E62FF0E0EE0FFF1FE3
:1039E000EE0FFF1FE80FF91F87A490A8A1A8B2A8A7
:1039F000F70180829182A282B38270E0FD01E60F1E
:103A0000F71F83A992E093AB023001F118F4013063
:103A100031F04DC0033079F10430D1F148C0660F68
:103A2000771F660F771FFD01E60FF71F87A490A889
:103A3000A1A8B2A8BA01A901482959296A297B2954
:103A400047A750AB61AB72AB01E034C0660F771F84
:103A5000660F771FFD01E60FF71F47A550A961A963
:103A600072A94F5F5F4F6F4F7F4F47A750AB61AB5E
:103A700072AB01E01FC0660F771F660F771FFD0155
:103A8000E60FF71F27A730AB41AB52AB01E012C0E6
:103A9000823079F0660F771F660F771FFD01E60F02
:103AA000F71F27A730AB41AB52AB01E003C001E0E9
:103AB00001C000E0813009F069C01C96ED91FC91D5
:103AC0001D971696CD91DC91179718968D919C9124
:103AD00019979F838E831896CD91DC91199716962E
:103AE0008D919C9117979D838C83818192819D01FB
:103AF0002E5F3F4F8217930731F418968D919C915A
:103B00001997928381831D961C921E921C97808127
:103B1000815080835A96EC915A978091C5138E17E5
:103B200010F4E093C5138BE08E9FF0011124E95F40
:103B3000FB4E0180F281E02D1796FC93EE931697D1
:103B40004681578119965C934E931897C681D78109
:103B50003D832C83378326835A96EC915A978E9F08
:103B6000F0011124E95FFB4E1D96FC93EE931C9728
:103B700080818F5F80835A969C91E0917514F091BB
:103B80007614828D891710F40E94F20A0F900FBEEE
:103B9000802FDF91CF910F91FF90EF90BF90AF906A
:103BA0009F908F9008958F929F92AF92BF92CF92E5
:103BB000DF92EF92FF920F93CF93DF93DC01E1143A
:103BC000F10489F0E62FF0E0EE0FFF1FEE0FFF1F6C
:103BD000E80FF91F87A490A8A1A8B2A8F7018082D6
:103BE0009182A282B38270E0FD01E60FF71F93A9D4
:103BF00082E083AB023001F118F4013031F04DC0A6
:103C0000033079F10430D1F148C0660F771F660F99
:103C1000771FFD01E60FF71F87A490A8A1A8B2A8FF
:103C2000BA01A901482959296A297B2947A750AB1C
:103C300061AB72AB81E034C0660F771F660F771FF0
:103C4000FD01E60FF71F47A550A961A972A94F5FB3
:103C50005F4F6F4F7F4F47A750AB61AB72AB81E0B7
:103C60001FC0660F771F660F771FFD01E60FF71F56
:103C700027A730AB41AB52AB81E012C0923079F054
:103C8000660F771F660F771FFD01E60FF71F27A747
:103C900030AB41AB52AB81E003C081E001C080E0BA
:103CA000913009F096C09091B61391115FC01C96A7
:103CB000ED91FC911D971696CD91DC911797189672
:103CC0002D913C9119973F832E831896CD91DC91CD
:103CD000199716962D913C9117973D832C8341811E
:103CE00052819D012E5F3F4F4217530731F41896C2
:103CF0004D915C911997528341831D961C921E929F
:103D00001C979081915090835A96EC915A9790917C
:103D1000C5139E1710F4E093C5139BE09E9FF0011E
:103D20001124E95FFB4E0180F281E02D1796FC9390
:103D3000EE9316974681578119965C934E93189788
:103D4000C681D7813D832C83378326835A96EC9195
:103D50005A979E9FF0011124E95FFB4E1D96FC933C
:103D6000EE931C9790819F5F908321C062EE73E178
:103D7000FB01C181D2815396DC93CE9352972E8161
:103D80003F8155963C932E9354974E815F819D01C0
:103D9000225F3F4FFA01358324833F832E83599658
:103DA0007C936E935897FB0190819F5F90835A9606
:103DB0002C91E0917514F0917614928D921748F43D
:103DC000C114D10419F091E0F601908391E0909331
:103DD000BF13DF91CF910F91FF90EF90DF90CF90C5
:103DE000BF90AF909F908F900895009721F480919D
:103DF0007514909176140FB6F8940F9270E0FC0150
:103E0000E60FF71F23A9223031F4FC01E60FF71F5C
:103E100013AA81E001C080E00F900FBE0895DC017D
:103E2000E0918114F0918214808191E0811190E001
:103E30009C93911108C00780F085E02D608171810D
:103E400082819381089560E070E0CB010895CF9264
:103E5000DF92EF92FF920F931F93FC0142835383F3
:103E600064837583938782870417150726073707AE
:103E7000C0F00C191D092E093F0986859785A08978
:103E8000B189081719072A073B0700F5BF016E5FC4
:103E90007F4F80917F14909180140E94390A80E0B6
:103EA00018C00C151D052E053F0528F44C155D05A1
:103EB0006E057F0568F4BF016E5F7F4F80918114AE
:103EC000909182140E94390A80E003C081E001C011
:103ED00081E01F910F91FF90EF90DF90CF900895B8
:103EE0000FB6F8940F9280917D1490917E14892BD7
:103EF000E9F48EE894E10E94240A83E894E10E94A8
:103F0000240A8EE894E1909382148093811483E8CC
:103F100094E19093801480937F1440E067E08AE0FE
:103F20000E94E70C90937E1480937D140F900FBE37
:103F30000895EF92FF920F93D3DF80917D149091BB
:103F40007E14892B91F00F2EFBE7EF2EF4E1FF2E6C
:103F5000F02D03E020E030E040EC50E063ED74E051
:103F600089E591E00E949A1401C080E00F91FF90D2
:103F7000EF9008958F929F92AF92BF92CF92DF926F
:103F8000EF92FF920F931F93CF93DF93CDB7DEB7DE
:103F900027970FB6F894DEBF0FBECDBFE0917D141A
:103FA000F0917E14309781F169832A833B834C839F
:103FB0005D839F838E836630F4F4C3DA823069F4C4
:103FC00000E0A7019601BE016F5F7F4F80917D14D5
:103FD00090917E140E940A0D18C000E020E030E0AD
:103FE000A901BE016F5F7F4F80917D1490917E1477
:103FF0000E940A0D0AC020E0A801BE016F5F7F4F3A
:10400000CF010E94BA0D01C080E027960FB6F89448
:10401000DEBF0FBECDBFDF91CF911F910F91FF90FB
:10402000EF90DF90CF90BF90AF909F908F900895CA
:104030008F929F92AF92BF92CF92DF92EF92FF92B8
:104040000F931F93CF93DF933BC00780F085E02D44
:1040500080809180A280B380C085D1858E010E5F63
:104060001F4FC8010E94760AEC89FD89CE0119957F
:104070008E8982FF25C08E859F85A889B989880D84
:10408000991DAA1DBB1D88169906AA06BB0670F4C9
:104090008A839B83AC83BD83DB87CA87B801809109
:1040A0008114909182140E94390A0AC0C12CD12C2B
:1040B000760100E010E0A501940160E0CE015ADF36
:1040C000E0918114F091821480818111BECF8091A2
:1040D0007F14909180149093821480938114F093B4
:1040E0008014E0937F14DF91CF911F910F91FF9087
:1040F000EF90DF90CF90BF90AF909F908F900895FA
:10410000CF92DF92EF92FF92CF93DF93EC010E9468
:1041100024156B017C018091771490917814A09103
:104120007914B0917A14C816D906EA06FB0620F471
:104130007FDF81E0888301C01882C0927714D0921B
:104140007814E0927914F0927A14C701B601DF91E5
:10415000CF91FF90EF90DF90CF9008954F925F92B4
:104160006F927F928F929F92AF92BF92CF92DF9287
:10417000EF92FF920F931F93CF93DF934B015C015C
:1041800029013A01E0918114F09182140780F085B1
:10419000E02DC085D185CE0102960E94760A8E89D7
:1041A00082FF1BC04E855F8568897989480D591D3E
:1041B0006A1D7B1D7501640193018201CE0147DEFA
:1041C000882369F0C12CD12C760100E010E0A50114
:1041D000940160E0CE01CEDE02C08E7F8E8BEC8932
:1041E000FD89CE011995DF91CF911F910F91FF901D
:1041F000EF90DF90CF90BF90AF909F908F907F9087
:104200006F905F904F9008958F929F92AF92BF9260
:10421000CF92DF92EF92FF921F93CF93DF931F9283
:10422000CDB7DEB76B017C01142F0E941E15CE01A5
:10423000019666DF4B015C01898181112DC011114E
:104240000DC08C149D04AE04BF0440F00E945E16A5
:10425000A5019401C701B60181DF20C0112341F0FF
:10426000E0917F14F0918014808111E0811110E0C1
:10427000B701A601481959096A097B09212F8091C4
:104280007D1490917E140E94350F0E945E1681115C
:1042900005C00E94F20A02C00E945E160F90DF91D4
:1042A000CF911F91FF90EF90DF90CF90BF90AF9094
:1042B0009F908F900895AF92BF92CF92DF92EF922E
:1042C000FF920F931F93CF93DF93CDB7DEB728975D
:1042D0000FB6F894DEBF0FBECDBF82C089818823A0
:1042E0000CF47EC0AE80BF80D5011C968D919C9150
:1042F0001D97892B21F0C50102960E94760ACE01F6
:104300000896FEDE8B019C01E9810E2E000CFF0B4E
:10431000EA30F10508F064C08827EE58FF4F8F4F50
:104320000C94D135F50186898160868BCA80DB804B
:10433000EC80FD8046855785608971894C0D5D1D37
:104340006E1D7F1DC50183DD882309F449C0D50199
:104350005496ED91FC915597C5011995F501868903
:1043600082FF3EC04A815B816C817D818685978515
:10437000A089B1899A01AB01280F391F4A1F5B1F21
:10438000C12CD12C760100E010E060E0C501F2DD27
:1043900027C0D50156968C9156978E7F56968C9352
:1043A0001FC0F50186898160868B4A815B816C81A3
:1043B0007D8146875787608B718B400F511F621F2D
:1043C000731F68017901C50142DD0AC0F5018689C4
:1043D00081FD04C0C5010E94E70902C08E7F868B63
:1043E00020E030E0A901BE016F5F7F4F80917D1416
:1043F00090917E140E94F50D811170CF28960FB612
:10440000F894DEBF0FBECDBFDF91CF911F910F910A
:10441000FF90EF90DF90CF90BF90AF9008950895F8
:1044200084B1806884B985B1806885B9089583B105
:10443000806883B90895F4DF2FEF80E792E0215080
:1044400080409040E1F700C00000F1DFF5CFE8DFE9
:104450002FEF87EA91E6215080409040E1F700C0BD
:104460000000E5DFF5CF60919B1470919C1421E072
:1044700030E040E050E083E090E00E940605909339
:10448000DC158093DB1560919B1470919C1422E0E5
:1044900030E040E050E083E090E00E94D70190934C
:1044A000E0158093DF1560919B1470919C1424E0BB
:1044B00030E040E050E083E00E94DF029093DE15A0
:1044C0008093DD150895AF92BF92CF92DF92EF9265
:1044D000FF920F931F930E9449038BED94E09F93EB
:1044E0008F930E945703BFDF0E948303609199144A
:1044F00070919A1484E090E00E941B0260919B14DA
:1045000070919C14A12CB12C65016894A2F812E062
:10451000E12EF12C00E010E021E030E040E050E03E
:1045200082E090E00E942F070F900F901F910F9153
:10453000FF90EF90DF90CF90BF90AF9008950E94D2
:104540008A0790939C1480939B1480E00E94102E05
:1045500091D741E060E070E08CE290E00E9494101E
:1045600090939A1480939914BC0181E06BD3ABCFE4
:104570000895E5DF0E94E614FFCF34D008F481E00F
:10458000089504D06894B11174C0089557D088F08C
:104590009F5790F0B92F9927B751A0F0D1F0660F2F
:1045A000771F881F991F1AF0BA95C9F712C0B1304A
:1045B00081F05ED0B1E008955BC0672F782F882727
:1045C000B85F39F0B93FCCF3869577956795B39589
:1045D000D9F73EF490958095709561957F4F8F4FF8
:1045E0009F4F0895990F0008550FAA0BE0E8FEEFC2
:1045F00016161706E807F907C0F012161306E407A7
:10460000F50798F0621B730B840B950B39F40A269F
:1046100061F0232B242B252B21F408950A2609F47D
:10462000A140A6958FEF811D811D089557FD9058DB
:10463000440F551F59F05F3F71F04795880F97FB66
:10464000991F61F09F3F79F0879508951216130620
:104650001406551FF2CF4695F1DF08C0161617064F
:104660001806991FF1CF8695710561050894089584
:10467000E894BB2766277727CB0197F90895FA01BD
:10468000DC01AA0FBB1F9B01AC01BF5728F42227F6
:104690003327442750781FC0B75188F4AB2F00242C
:1046A000469537952795011CA395D2F3002069F014
:1046B000220F331F441FB395DAF30DD076C061305B
:1046C0007105A0E88A07B94630F49B01AC01662762
:1046D000772788279078309621F020833183428392
:1046E000538308950BD0DDC0CED028F0D3D018F07E
:1046F000952309F0BFC0C4C01124BBCF97DFA0F33E
:10470000959FD1F3950F50E0551F629FF001729F66
:10471000BB27F00DB11D639FAA27F00DB11DAA1F85
:10472000649F6627B00DA11D661F829F2227B00DD2
:10473000A11D621F739FB00DA11D621F839FA00D5D
:10474000611D221F749F3327A00D611D231F849FAD
:10475000600D211D822F762F6A2F11249F57504004
:104760008AF0E1F088234AF0EE0FFF1FBB1F661F9F
:10477000771F881F91505040A9F79E3F510570F058
:1047800079C077CF5F3FECF3983EDCF38695779561
:104790006795B795F795E7959F5FC1F7FE2B880F53
:1047A000911D9695879597F908955058BB27AA278C
:1047B0000ED077C068D030F06DD020F031F49F3F3C
:1047C00011F41EF45DC00EF4E095E7FB53C0E92F31
:1047D0002DDF80F3BA17620773078407950718F077
:1047E00071F49EF545CF0EF4E0950B2EBA2FA02D57
:1047F0000B01B90190010C01CA01A0011124FF278E
:10480000591B99F0593F50F4503E68F11A16F04088
:10481000A22F232F342F4427585FF3CF4695379587
:104820002795A795F0405395C9F77EF41F16BA0B4C
:10483000620B730B840BBAF09150A1F0FF0FBB1FFA
:10484000661F771F881FC2F70EC0BA0F621F731F43
:10485000841F48F4879577956795B795F7959E3FA0
:1048600008F0B3CF9395880F08F09927EE0F97952E
:104870008795089597F99F6780E870E060E0089554
:104880009FEF80EC089500240A9416161706180668
:104890000906089500240A94121613061406050644
:1048A0000895092E0394000C11F4882352F0BB0FD5
:1048B00040F4BF2B11F460FF04C06F5F7F4F8F4F38
:1048C0009F4F08956530F1F4FA0180818F7390E075
:1048D000982F88272181822B90930A0280930902C6
:1048E0008281F0E48F9FC0011124FA012381269573
:1048F0002695822B909308028093070281E0809393
:104900009D140895643051F080E090E49093080283
:104910008093070290930A028093090208950F93EF
:104920001F9302E614E220E034E244EF50E060E03E
:1049300087E20E94CA2F90939F1480939E1421E0D7
:10494000892B09F020E0822F1F910F91089580910B
:104950009E1490919F14009759F040E060E070E041
:104960000E941B30843031F410929D1480E0089531
:1049700082E0089583E0089580919E1490919F14A1
:10498000009739F064E00E946730853021F083E0C1
:10499000089582E0089580E0089560910902709181
:1049A0000A0280E090E00E946D3520E030E048ECA3
:1049B00052E498DE20E038EF4FE756E40C94FC34E4
:1049C0000895EBDF20E030E040E251E48BDEDEDDF5
:1049D000CB010895609107027091080280E090E099
:1049E0000E946D3520E030E045E253E47BDE20E0BC
:1049F00038EF4FE756E40E94FC3420E030E040E21C
:104A000052E4D3CE08950F931F93CF93DF931F9259
:104A10001F92CDB7DEB78C0119822DC0E091D7145B
:104A2000EC3250F481E08E0F8093D714F0E0E75F12
:104A3000FA4E8A81808302C01092D7148A818A300C
:104A4000D1F44091D71450E0FA01E95FFA4E108298
:104A5000415051099E012F5F3F4F69E075E1809100
:104A6000DA149091DB140E94BB11898181110E949C
:104A7000F20A1092D714BE016E5F7F4FC8013AD67A
:104A8000882361F20F900F90DF91CF911F910F91CA
:104A900008950F931F93CF93DF938C01EB018091C7
:104AA000DA149091DB140E94C610B80180EA94E1F8
:104AB0000E944A38209779F0E0EAF4E10190002062
:104AC000E9F7319780E290E091838083BE0180EA2C
:104AD00094E10E943F38E0EAF4E1DF010D9000200C
:104AE000E9F711978DE09AE011969C938E931296B8
:104AF0001C9201900020E9F73197E05AF441AE2F63
:104B000080EA94E1AC016A2F8091DC149091DD146D
:104B10009CD5811111C008E215E020E030E04DE2A3
:104B200050E063E675E18091DA149091DB140E9405
:104B3000FF1183E695E102C080E090E0DF91CF9124
:104B40001F910F9108952F923F924F925F926F9213
:104B50007F928F929F92AF92BF92CF92DF92EF920D
:104B6000FF920F931F93CF93DF935C01FC010190A1
:104B70000020E9F731976F01C81AD90A5C2C0F2E73
:104B8000F3E88F2EF7E09F2EF02DE12CF12C4C2C2A
:104B90003701F40101811281E80109900020E9F751
:104BA0002197C01BD10B3C2EF9E0CF16D10458F051
:104BB000F4012080FEE02F1206C0B801C5010E945A
:104BC0001A38892B09F5442D351408F44C2F50E080
:104BD000B801C5010E945138892B49F4F301EE0F49
:104BE000FF1FE60DF71DED57F84F20800DC08FEF2A
:104BF000E81AF80AE3E08E0E911CF1E1EF16F104D9
:104C000039F66894222424F8822DDF91CF911F91E8
:104C10000F91FF90EF90DF90CF90BF90AF909F905B
:104C20008F907F906F905F904F903F902F9008955E
:104C300030DF89CF08958091DA149091DB140C94C1
:104C4000C61008958F929F92AF92CF92EF920F93DA
:104C50001F93CF93C82F8B0141E060E070E088EC98
:104C600090E00E9494109093DB148093DA141093D8
:104C7000D9140093D8140F2EF3E08F2EF5E29F2E57
:104C8000F02D6894AA24A6F86894CC24C6F8E12CE8
:104C900000E023E040E051EE60E070E08C2F06D4AD
:104CA0009093DD148093DC14E7E0F1E08081806173
:104CB0008083CF911F910F91EF90CF90AF909F90F5
:104CC0008F900895882331F0E8E0F1E080818F7EB5
:104CD00080830895E8E0F1E0808180618083089519
:104CE00060E070E089E095E0D4DEE3E6F5E1019074
:104CF0000020E9F73197E356F54181E0759708F018
:104D000080E00895CF93DF93EC0160E070E08AE1EA
:104D100095E0BFDEE3E6F5E101900020E9F7E45716
:104D2000F54139F463E675E1CE010E944A3880E02E
:104D300002C0188281E0DF91CF910895FC010190BB
:104D40000020E9F79F01215131092817390729F47B
:104D5000BC0188E495E06CCF089589E00895FC01DA
:104D600001900020E9F79F012151310928173907E7
:104D700029F4BC0187E595E05BCF089589E00895AB
:104D8000FC0101900020E9F79F0121523109281709
:104D9000390729F4BC0186E695E04ACF089589E0F9
:104DA000089560E070E085EA95E042CF08950F93A2
:104DB0001F93E82FF0E0EE0FFF1FE158F84F6081DE
:104DC00071818EEA95E034DF811114C008E215E0AC
:104DD00020E030E04DE250E063E675E18091DA14C6
:104DE0009091DB140E94FF11882321F083E695E166
:104DF000AADE03C083E695E1A6DE1F910F91089518
:104E00000F931F93CF93DF931F92CDB7DEB7DB01D4
:104E100011969C911197953108F0B4C0992381F1B6
:104E200060E070E0272F30E0462F50E0FD01E40FF6
:104E3000F51F928192959F709A3010F0995C01C095
:104E4000905DF901EC50FB4E90832F5F3F4FFD01C9
:104E5000E40FF51F92819F70492F50E04A305105B1
:104E600014F0995C01C0905DF901EC50FB4E908309
:104E70007E5F6F5F11969C911197691798F201C040
:104E800070E0E72FF0E0EC50FB4E10824C91811166
:104E900003C087EB95E002C089EB95E024EF34E195
:104EA0003F932F931F924F939F938F938DEB95E09A
:104EB0009F938F9386E395E19F938F930E94B538DC
:104EC00060E070E086E395E1B3DE0FB6F894DEBFF4
:104ED0000FBECDBF811159C008E215E020E030E0DF
:104EE0004DE250E063E675E18091DA149091DB14B5
:104EF0000E94FF11882309F447C083E695E123DE71
:104F00008E3009F042C087E089838091D814909157
:104F1000D914892BA9F1BE016F5F7F4F83E695E11C
:104F200068D18093DE14E981F0E0ED59FA4EDF019B
:104F30000D900020E9F71197AE1BBF0BAA2391F04B
:104F4000BB27CD0101979C0112F42F5F3F4F359590
:104F500027952093DF14AF014F5F5F4F64E180EE30
:104F600094E173D101E010E020E030E046E150E050
:104F70006EED74E18091D8149091D9140E94F610CE
:104F80008EE003C084E101C080E00F90DF91CF91FB
:104F90001F910F910895813019F06DEC75E002C0FA
:104FA00066EA76E081ED95E043CE08959F938F9376
:104FB00082E096E09F938F9386E395E19F938F9392
:104FC0000E94B53860E070E086E395E131DE0F9035
:104FD0000F900F900F900F900F9008952F923F9287
:104FE0004F925F926F927F928F929F92AF92BF92F9
:104FF000CF92DF92EF92FF920F931F93CF93DF93A5
:10500000CDB7DEB7A0970FB6F894DEBF0FBECDBF09
:105010006FE276E08BE396E03CDD95DD8111A3C085
:1050200080E2E2E2F2E0DE01119601900D928A95B3
:10503000E1F79E012F5F3F4F6901E12CF12C0F2E0C
:10504000F7E4AF2EF6E0BF2EF02D06E315E10F2EAC
:10505000F0E64F2EF6E05F2EF02D0F2EF7E78F2EA5
:10506000F6E09F2EF02D0F2EF1E96F2EF6E07F2E49
:10507000F02D3E2C2F2CFF92EF92BF92AF921F93F8
:105080000F930E94B53860E070E0C80102DD5BDD7F
:105090000F900F900F900F900F900F90811163C0A1
:1050A00032E03E15E8F4F60183818F9382818F937D
:1050B00081818F9380818F93FF92EF925F924F92C5
:1050C0001F930F930E94B53860E070E0C801E1DCE7
:1050D0003ADD0FB6F894DEBF0FBECDBF811143C0DD
:1050E0002F923F929F928F921F930F930E94B538F9
:1050F00060E070E0C801CDDC26DD0F900F900F90CE
:105100000F900F900F9081112EC02F923F927F929F
:105110006F921F930F930E94B53860E070E0C80152
:10512000B8DC11DD0F900F900F900F900F900F9043
:10513000811119C03FEFE31AF30A84E0C80ED11CB5
:1051400098E0E916F10409F094CF60E070E089EA94
:1051500096E09FDCF8DC811106C060E070E08AEB2D
:1051600096E097DCF0DCA0960FB6F894DEBF0FBE99
:10517000CDBFDF91CF911F910F91FF90EF90DF9006
:10518000CF90BF90AF909F908F907F906F905F90E7
:105190004F903F902F900895EF92FF920F931F939F
:1051A000CF93DF93EC018B017A0181E0F4DE811172
:1051B0000DC0CE01D4DD811109C0C801E1DD81112E
:1051C00005C0C701BBDD811101C0EBDDDF91CF91CF
:1051D0001F910F91FF90EF90089590E0FC01EE0F6A
:1051E000FF1F8E0F9F1FFC01ED57F84F81819281A9
:1051F0000895DC01009729F1FB012081FC01019059
:105200000020E9F73197E81BF90B822F90E0E817AF
:10521000F907C8F080E008C0880F382F330F330F2C
:10522000830F8053890F2F5FFD01E20FF11D9081E5
:1052300030ED390F3A3010F49111EECFFB0120839D
:10524000089580E0089580E008950F931F93CF9311
:10525000DF93DC01EA012097E1F1FA0101900020DF
:10526000E9F73197E41BF50B329710F532C08D0149
:10527000040F151F30E0AE01420F531FFA01908159
:10528000913428F09753592F5295507F03C0592FCE
:105290005295507F2C0F3D1FF9019181913410F0F0
:1052A000975301C09053950FF80190838F5F01C011
:1052B00080E0282F220F482F50E0FE0101900020AF
:1052C000E9F73197EC1BFD0B4E175F0710F48613BF
:1052D000CECFDF91CF911F910F91089580919315BB
:1052E000860F8093931590919615913079F028F060
:1052F0009230A9F0933019F108956F3F09F048C03A
:105300001092931581E0809396150895663809F000
:105310003FC01092921582E0809396150895E09117
:10532000921581E08E0F80939215F0E0E057FA4ECF
:105330006083823069F583E080939615089590919B
:10534000921521E0290F20939215963009F58111CD
:105350000EC0E0E9F5E1808190E0982F8827218157
:10536000820F911D909398158093971504C0109209
:1053700098151092971510929615E0919415F0914A
:105380009515309729F0809197159091981519955A
:1053900008958F929F92AF92CF92EF920F930F2E1C
:1053A000FEE68F2EF9E29F2EF02D6894AA24A4F831
:1053B0006894CC24C4F8E12C00E023E040E855E2F6
:1053C00060E070E073D090939A15809399150F91D7
:1053D000EF90CF90AF909F908F90089590939515F8
:1053E000809394150895CF93DF93CDB7DEB72997B7
:1053F0000FB6F894DEBF0FBECDBF89E0E2E4F2E065
:105400009E012F5F3F4FD90101900D928A95E1F7E0
:1054100010929815109297158091991590919A1560
:10542000009731F0422F532F69E00FD180E001C087
:1054300082E029960FB6F894DEBF0FBECDBFDF9194
:10544000CF91089565360CF064E66C390CF46CE984
:1054500096EF6902B00111246854744F811105C0A0
:105460007093290160932801089570932B01609334
:105470002A010895EAE0F1E08081886180838FE36A
:105480009CE9909327018093260160E080E0DADFB9
:1054900060E081E0D7DFE0E2F1E08081826A808332
:1054A000E1E2F1E080818A61808308952F923F924A
:1054B0004F925F926F927F928F929F92AF92CF9214
:1054C000EF92FF920F931F93CF93DF93CDB7DEB789
:1054D000F82E2A013B0188E090E00E9402368C0100
:1054E0008F2D90E0FC01EE0FFF1FE556FA4E118361
:1054F00000830115110509F46BC0880F991FFC0189
:10550000E55FFD4F80819181D8018D939C938C2D17
:1055100090E0880F991F880F991F0E9402361C0186
:1055200086E090E00E9402367C014C2DB101BFD68E
:10553000F801F582E4828A2D90E0880F991F880F88
:10554000991F0E9402361C0186E090E00E940236FC
:105550007C014A2DB101ABD6D8011396FC92EE9294
:10556000129717969C928E921697FFB6F894ED912B
:10557000FC91119736978081826080838D909C90FA
:10558000C301B2010E946D3520E030E040E051E4FB
:10559000A9D89B01AC0160E074E284E79BE40E941F
:1055A000FC3420E030E040E85FE3FFD80E94C622F0
:1055B000F40132976083D801ED91FC9111973597F2
:1055C00088E98083ED91FC91349786E08083FFBE6B
:1055D000C801DF91CF911F910F91FF90EF90CF9075
:1055E000AF909F908F907F906F905F904F903F9083
:1055F0002F900895CF93DF93DC01892B01F1129650
:10560000ED91FC911397938182812581981B9223C0
:1056100084819817B1F0838126952823C081D18198
:10562000C20FD11D68838F5F958189238383ED919C
:10563000FC91359780818062808380E003C081E0A7
:1056400001C082E0DF91CF910895EF92FF920F9316
:105650001F93CF93DF937C01009709F441C0DC01D5
:105660001296ED91FC91139793818281981B85810D
:1056700098238481891B8617A8F1662341F1842F22
:10568000952FDC016150462F50E04F5F5F4F480F70
:10569000591FE701EA81FB81938182812581981B53
:1056A00092238481981779F08C91938126952923F0
:1056B000608171818B01020F111DE80188839F5F5A
:1056C0008581982393831196A417B50711F7D70105
:1056D000ED91FC91359780818062808380E003C0EA
:1056E00081E001C082E0DF91CF911F910F91FF9087
:1056F000EF9008950097D1F0DC011496ED91FC91A4
:10570000159793818281981799F09281858186956A
:105710008923A081B181A80FB11D8C91DB018C93ED
:105720009F5F85819823928380E0089581E00895AA
:1057300083E008951F920F920FB60F9211240BB6BB
:105740000F922F933F934F935F936F937F938F931A
:105750009F93AF93BF93CF93DF93EF93FF93A0916A
:105760009B15B0919C15109711F16091C60014968D
:10577000ED91FC911597938182812581981B92234D
:105780008481981761F0838126952823C081D18177
:10579000C20FD11D68838F5F9581892383831696FD
:1057A000ED91FC911797309711F0CD011995FF916C
:1057B000EF91DF91CF91BF91AF919F918F917F91A9
:1057C0006F915F914F913F912F910F900BBE0F9072
:1057D0000FBE0F901F9018951F920F920FB60F9249
:1057E00011240BB60F922F938F939F93AF93BF9378
:1057F000EF93FF93E0919B15F0919C153097B9F0D2
:105800000280F381E02D938182819817B1F092811B
:105810008581282F26952923A081B181A20FB11D52
:105820002C919F5F892382832093C6000BC0E1ECFB
:10583000F0E080818F7D808305C0E1ECF0E0808125
:105840008F7D8083FF91EF91BF91AF919F918F9159
:105850002F910F900BBE0F900FBE0F901F901895B9
:105860001F920F920FB60F9211240BB60F922F9327
:105870003F934F935F936F937F938F939F93AF93D8
:10588000BF93CF93DF93EF93FF93A0919D15B091BA
:105890009E15109711F16091CE001496ED91FC9138
:1058A0001597938182812581981B92238481981773
:1058B00061F0838126952823C081D181C20FD11D3B
:1058C00068838F5F9581892383831696ED91FC9180
:1058D0001797309711F0CD011995FF91EF91DF9156
:1058E000CF91BF91AF919F918F917F916F915F9178
:1058F0004F913F912F910F900BBE0F900FBE0F90C5
:105900001F9018951F920F920FB60F9211240BB68D
:105910000F922F938F939F93AF93BF93EF93FF9328
:10592000E0919D15F0919E153097B9F00280F381BA
:10593000E02D938182819817B1F092818581282F83
:1059400026952923A081B181A20FB11D2C919F5FC3
:10595000892382832093CE000BC0E9ECF0E08081A4
:105960008F7D808305C0E9ECF0E080818F7D8083AE
:10597000FF91EF91BF91AF919F918F912F910F90D8
:105980000BBE0F900FBE0F901F9018951F920F9295
:105990000FB60F9211240BB60F922F933F934F9394
:1059A0005F936F937F938F939F93AF93BF93CF93A7
:1059B000DF93EF93FF93A0919F15B091A0151097DF
:1059C00011F16091D6001496ED91FC911597938199
:1059D00082812581981B92238481981761F08381AD
:1059E00026952823C081D181C20FD11D68838F5F86
:1059F0009581892383831696ED91FC9117973097B3
:105A000011F0CD011995FF91EF91DF91CF91BF91E9
:105A1000AF919F918F917F916F915F914F913F9146
:105A20002F910F900BBE0F900FBE0F901F901895E7
:105A30001F920F920FB60F9211240BB60F922F9355
:105A40008F939F93AF93BF93EF93FF93E0919F1535
:105A5000F091A0153097B9F00280F381E02D938189
:105A600082819817B1F092818581282F269529236C
:105A7000A081B181A20FB11D2C919F5F89238283E8
:105A80002093D6000BC0E1EDF0E080818F7D808314
:105A900005C0E1EDF0E080818F7D8083FF91EF9183
:105AA000BF91AF919F918F912F910F900BBE0F904F
:105AB0000FBE0F901F9018951F920F920FB60F9266
:105AC00011240BB60F922F933F934F935F936F93D5
:105AD0007F938F939F93AF93BF93CF93DF93EF9376
