S00B0000496F542E737265630D
S113000067C1000086C1000084C1000082C10000F5
S113001080C100007EC100007CC100007AC10000E4
S113002078C1000076C1000074C1000072C10000F4
S11300300C94620B6EC100006CC100006AC1000028
S113004068C1000066C1000064C1000062C1000014
S113005060C100005EC100005CC100005AC1000024
S113006058C100000C94302B0C94822B52C1000018
S113007050C100004EC100004CC100004AC1000044
S113008048C1000046C1000044C1000042C1000054
S11300900C94C62B0C94182C3CC100000C943030EA
S11300A038C1000036C1000034C1000032C1000074
S11300B030C100002EC100002CC100002AC1000084
S11300C028C1000026C1000024C100000C945C2C4F
S11300D00C94AE2C1EC100000C94F22C0C94442DF4
S11300E018C100003C213C213C2173217B2190213B
S11300F03C213C2173217B215230C230C230C230BA
S1130100C230C230C230C2305230C230C230C230CB
S1130110C230C230C230C2305430C230C230C230B9
S1130120C230C230C230C230C230C230C230C2303B
S1130130C230C230C230C2305430C230C230C23099
S1130140C230C230C230C230C230C230C230C2301B
S1130150C230C230C230C230BE30C230C230C2300F
S1130160C230C230C230C2308930C230C230C23034
S1130170C230C230C230C230C230C230C230C230EB
S1130180C230C230C230C2307D30C230C230C23020
S1130190C230C230C230C230A1306E616E00696EAE
S11301A0660000407A10F35A00A0724E180900103D
S11301B0A5D4E80000E87648170000E40B540200D8
S11301C000CA9A3B000000E1F50500008096980003
S11301D0000040420F000000A0860100000010272C
S11301E000000000E80300000000640000000000BC
S11301F00A00000000000100000000002C76D888EE
S1130200DC674F0823DFC1DFAE59E1B1B796E5E300
S1130210E453C63AE651997696E8E6C28426EB8919
S11302208C9B62ED407C6FFCEFBC9C9F40F2BAA5B6
S11302306FA5F490055A2AF75C936B6CF9676DC14E
S11302401BFCE0E40D47FEF520E6B500D0ED902E52
S11302500300943577050080841E080000204E0AB0
S1130260000000C80C333333330F986E12831141EE
S1130270EF8D2114893BE65516CFFEE6DB18D184B9
S11302804B381BF77C1D901DA4BBE42420328472E0
S11302905E228100C9F124ECA1E53D270E947D1373
S11302A080916914823010F00E949C0A0E94B92146
S11302B0F5CFCF93DF931F92CDB7DEB7CE01019672
S11302C00E94B91E49810E94AE200E940521F6CFEA
S11302D011241FBECFEFD1E2DEBFCDBF00E00CBFC3
S11302E018E0A0E0B2E0E2E8F2E700E00BBF02C0F1
S11302F007900D92A432B107D9F726E1A4E2B8E041
S113030001C01D92A734B207E1F70E9478220C9431
S11303103F3976CE90932416809323160895CF9375
S1130320DF9300D01F92CDB7DEB75C010E94CE14DC
S113033069837A838B839C8340EE53E060E070E0B2
S1130340CE0101960E94E41640912516509126167E
S11303506091271670912816CC24CA94DC2C76015F
S113036001E020E080912B1690912C1690D50E94EC
S11303708A29809322168111DFCF809129169091CA
S11303802A160097C9F24AE050E060E070E00E944B
S11303902E0E813021F58091231690912416F501BB
S11303A091838083809124168F93809123168F9359
S11303B08FE692E09F938F930E94693800E020E0DB
S11303C030E0A90160E070E08091291690912A162E
S11303D00E94B40C0F900F900F900F90ADCF86E752
S11303E092E09F938F930E9469380F900F90A4CF4F
S11303F0FC01808191810895EF92FF920F93CF9336
S1130400DF93082FEB014091251650912616609139
S113041027167091281680912B1690912C16D7D5FB
S1130420E12CF12C9E0144E251E067E972E08FE88F
S113043091E00E944414DF91CF910F91FF90EF90CF
S113044008958F929F92AF92BF92CF92DF92EF92D4
S1130450FF920F931F93CF93DF937C016B014901AC
S11304605A0182E090E00E94BB35EC01892BF9F03F
S113047019821882D0922C16C0922B1680922516BF
S113048090922616A0922716B092281610932A1638
S11304900093291683E00E9460298AE891E00E9473
S11304A08529BE01C701A8DF8C2F9D2F02C080E0E3
S11304B090E0DF91CF911F910F91FF90EF90DF902B
S11304C0CF90BF90AF909F908F900895EF92FF923E
S11304D00F93CF93DF93082FEB018FE992E09F9363
S11304E08F930E946938E12CF12C9E0148E851E079
S11304F06AEA72E088EC92E00E9444140F900F9034
S1130500DF91CF910F91FF90EF9008950F931F9378
S1130510CF93DF93EC0184EC92E09F938F930E943E
S113052069386CE980E00E94B92964E680E00E94A1
S1130530B9296CE980E00E94B9298FEC92E09F937D
S11305408F930E9469380FEF1FEF980146E150E046
S113055064E278E0CE010E94A911E4E2F8E091811E
S113056080811F929F931F928F938AED92E09F93B5
S11305708F930E9469388DB79EB70A960FB6F89488
S11305809EBF0FBE8DBFDF91CF911F910F91089534
S1130590EC01CE01BBDFFDCF0F931F93CF93DF930D
S11305A000D01F92CDB7DEB7813059F58B01CE0153
S11305B001960E94702E81111EC069817A818B81FF
S11305C09C810E948122F801718360838C818F93C6
S11305D08B818F938A818F9389818F938BE093E0B2
S11305E09F938F930E9469380F900F900F900F90F4
S11305F00F900F9006C0833021F487E193E00E94AE
S11306007C380F900F900F900F90DF91CF911F9136
S11306100F910895EF92FF920F93CF93DF93082FDA
S1130620EB01409125165091261660912716709182
S1130630281680912B1690912C16C9D4E12CF12CFC
S11306409E0148E851E067E473E084EA93E00E9485
S11306504414DF91CF910F91FF90EF9008958F9202
S11306609F92AF92BF92CF92DF92FF920F931F930C
S1130670CF93DF93F82E6B0149015A0162E070E0D9
S113068081E090E00E94A135EC01892B29F11982C7
S113069018828092251690922616A0922716B09260
S11306A02816D0922C16C0922B1610932A1600935B
S11306B029168CEC92E00E942E2E811104C082E552
S11306C093E00E947C380E94492EBE018F2D90E059
S11306D0A1DF8C2F9D2F02C080E090E0DF91CF91AD
S11306E01F910F91FF90DF90CF90BF90AF909F909C
S11306F08F900895CF92DF92EF92FF920F93CF9352
S1130700DF93EC014091251650912616609127162F
S113071070912816CC24CA94DC2C760101E020E0E8
S113072080912B1690912C16B2D30E945E2E8111CB
S113073003C0BE0181E030DFDF91CF910F91FF90C4
S1130740EF90DF90CF900895CF93DF9300D01F9266
S1130750CDB7DEB78C010E94CE1469837A838B8374
S11307609C8342EA53E060E070E0CE0101960E946F
S1130770E416C801BFDFF5CFFC01808191810895A3
S113078080912D1690912E16892B39F481E00E94C8
S1130790580D90932E1680932D1608950F93CF9392
S11307A0DF93CDB7DEB74CE251E060E070E08091BA
S11307B02D1690912E160E942E0E813099F4BE01B2
S11307C0675F7F4F8F8198850E94DA3800E020E0D0
S11307D030E0A90160E070E080912D1690912E1612
S11307E00E94B40CDF91CF910F910895CF93DF93C2
S11307F0EC018091291690912A16892B39F481E015
S11308000E94580D90932A1680932916D09330167F
S1130810C0932F16DF91CF9108950F9380912916DD
S113082090912A16009711F14CE251E060E070E0DB
S11308300E942E0E813091F480912F1690913016E3
S1130840EFD000E020E030E0A90160E070E08091AA
S1130850291690912A160E94B40C08C086E792E0EB
S11308609F938F930E9469380F900F900F91089572
S11308708091291690912A160097B1F04CE251E02C
S113088060E070E00E942E0E813031F480912F16CA
S113089090913016C1C0089586E792E09F938F939C
S11308A00E9469380F900F900895B7CF0895CF93A1
S11308B0DF9300D01F92CDB7DEB75C010E94CE1447
S11308C069837A838B839C8342EA53E060E070E01F
S11308D0CE0101960E94E4160E943E24882321F052
S11308E08BE693E00E947C384091251650912616A1
S11308F06091271670912816CC24CA94DC2C7601BA
S113090001E020E080912B1690912C16C0D264E077
S113091070E080E090E00E9449170E94532460E058
S113092070E0CB010E944917C501BFDFCDCFEF9224
S1130930FF920F93CF93DF93EC01062F409125167E
S113094050912616609127167091281680912B16C7
S113095090912C163CD3E12CF12C9E0140EC50E0FC
S113096065E873E087E594E00E944414DF91CF9139
S11309700F91FF90EF9008958F929F92AF92BF9244
S1130980CF92DF92EF92FF920F931F93CF93DF9357
S11309907C016B0149015A0186E090E00E94BB355D
S11309A0EC01892B21F1188219821A821B821D8283
S11309B01C82D0922C16C0922B16809225169092EF
S11309C02616A0922716B092281610932A16009382
S11309D029160E942624811104C086E993E00E940E
S11309E07C38B701CE01A3DF8C2F9D2F02C080E09D
S11309F090E0DF91CF911F910F91FF90EF90DF90E6
S1130A00CF90BF90AF909F908F900895FC0160812C
S1130A107181828193810895FC0184819581089577
S1130A20CF93DF93EC010E948124688379838A83C6
S1130A309B830E9478249C01ADECBCEC0E9492350F
S1130A409695879596958795969587959D838C839E
S1130A50DF91CF9108950F931F93CF93DF93CDB779
S1130A60DEB764970FB6F894DEBF0FBECDBF0E9409
S1130A7007260E9484289F938F938FEA93E09F9385
S1130A808F930E9469380E9485270E9484289F932F
S1130A908F9382EC93E09F938F930E9469388E0129
S1130AA00F5F1F4FC8010E9419260E9484281F93BC
S1130AB00F939F938F938BED93E09F938F930E945B
S1130AC06938C8010E9435260E9484289F938F9319
S1130AD01F930F938FEE93E09F938F930E94693837
S1130AE0A80164E074E085E294E00E9463280E9417
S1130AF084289F938F931F930F9384E094E09F9394
S1130B008F9385E294E09F938F9386E394E09F9381
S1130B108F930E9469380E9468260E9484289F93BC
S1130B208F938CE694E09F938F930E9469380FB65D
S1130B30F894DEBF0FBECDBF81E00E9462270E9401
S1130B4084289F938F938BE794E09F938F930E94C5
S1130B50693884EF91E00E946D270E9484289F9356
S1130B608F9381E08F9384EF8F938CE994E09F932C
S1130B708F930E9469380FB6F894DEBF0FBECDBFC5
S1130B801AE080E00E946E26082F0E9484289F931A
S1130B908F931F921F938CEB94E09F938F930E94EB
S1130BA069380F900F900F900F900F900F900830AE
S1130BB041F066E371E080E090E00E944917115033
S1130BC001F7083011F0B8D4FECF64960FB6F8944C
S1130BD0DEBF0FBECDBFDF91CF911F910F9108955E
S1130BE0CF93DF93CDB7DEB728970FB6F894DEBF67
S1130BF00FBECDBF81E00E94F92562E070E080E085
S1130C0090E00E94491780E00E94F92566E970E0AF
S1130C1080E090E00E9449170E94B2251CDF0E94E8
S1130C20CE1469837A838B839C8344E457E060E029
S1130C3070E0CE0101960E94E416EAE3F8E087E052
S1130C40818381E080838091291690912A160097F0
S1130C5009F44EC04AE050E060E070E0FFD7813014
S1130C60A1F58091351690913616D0DE362E872E5A
S1130C70982E192F8091351690913616CDDE9C0151
S1130C80ADECBCEC0E9492357C01F694E794F694AA
S1130C90E794F694E7948091331690913416A8DB88
S1130CA0B82EA92E809131169091321665DDD82E7A
S1130CB0C92E00E020E030E0A90160E070E08091FE
S1130CC0291690912A1650D61DC086E792E09F936C
S1130CD08F930E9469380F900F90D12CC12CB12CA6
S1130CE0A12CE12CF12C312C812C912C10E00AC088
S1130CF0D12CC12CB12CA12CE12CF12C312C812C28
S1130D00912C10E0B5DD9F938F938CED94E09F932D
S1130D108F9344DD1D821E821F821886AE014B5FB5
S1130D205F4F632D782D892D912F0E94D62220E0CC
S1130D3030E048EC52E40E9409232B013C011F934C
S1130D409F928F923F9284EF94E09F938F930E949F
S1130D5069386D817E818F8198850E947C220AE3A7
S1130D6018E0F8016283C301B2010E947C22F801F9
S1130D706383FF92EF928EEF94E09F938F930E9490
S1130D806938F801E482AF92BF928CE095E09F93BA
S1130D908F930E946938F801A582B682CF92DF92C0
S1130DA085E195E09F938F930E946938F801C7828B
S1130DB0D086B80180E00E9497260E9484289F93E1
S1130DC08F9388E295E09F938F930E9469380FB6C2
S1130DD0F894DEBF0FBECDBF28CFEF92FF920F93E2
S1130DE01F937093361660933516509334164093C0
S1130DF0331630932A162093291610933216009333
S1130E003116E12CF12C082F20E030E048E851E0C5
S1130E106DE375E080EF95E00E9444141F910F91FB
S1130E20FF90EF9008950F9301110CC0DC01CB01EA
S1130E3082239323A423B523892B8A2B8B2B79F428
S1130E4080E010C0DC01CB0182239323A423B523CB
S1130E50281739074A075B0721F080E003C081E0C7
S1130E6001C081E00F910895CF93DF938FE090E06C
S1130E70AFD1EC01009739F0FC011192119211925B
S1130E801192CF018BD2CE01DF91CF9108952F9291
S1130E903F924F925F926F927F928F929F92AF9206
S1130EA0BF92CF92DF92EF92FF920F931F93CF9353
S1130EB0DF93EC014A015B01622E702E0E94C8147C
S1130EC0288039804A805B80A5019401C201B10168
S1130ED0AADF8823A1F0662089F1D501C401809599
S1130EE09095A095B09582219321A421B521888362
S1130EF09983AA83BB83C12CD12C760122C0C1144F
S1130F00D104E104F104E9F0611004C040E050E0D0
S1130F10BA0104C040E050E060E071E07110746018
S1130F20482959296A297B2997018601CE0104960B
S1130F300E94E017212C312C210103C0C12CD12C9B
S1130F4076010E940816CD28CE28CF2859F18111A8
S1130F5001C0F2D20E94A21B6B017C0191FD1FC053
S1130F600FB6F8940F92C880D980EA80FB80072DD1
S1130F70A5019401C701B60156DF882371F06620EC
S1130F8061F080949094A094B0948C209D20AE2025
S1130F90BF2088829982AA82BB820F900FBE16015D
S1130FA027015524C201B101DF91CF911F910F9107
S1130FB0FF90EF90DF90CF90BF90AF909F908F9075
S1130FC07F906F905F904F903F902F9008954F9235
S1130FD05F926F927F92AF92BF92CF92DF92EF9225
S1130FE0FF920F931F93CF93DF93EC016A017B0170
S1130FF08C01095F1F4F0E94C814EB85FC85888112
S11310009981AA81BB81C82AD92AEA2AFB2AC882E3
S1131010D982EA82FB82C12CD12C76013DC0A48006
S1131020B58080819181A281B381AC01BD01772714
S1131030B2FD0EC0488059806A807B8044225522CC
S11310406622772245284628472889F420E012C0E2
S1131050488059806A807B80442255226622772208
S1131060441555056605770521F020E003C021E00D
S113107001C021E0222371F0B0FF04C0C42AD52AA4
S1131080E62AF72A488159816A817B817260CF01FF
S11310900E941B19EA2DFB2DE017F10709F0BFCFC1
S11310A0C094D094E094F09488819981AA81BB8102
S11310B0C822D922EA22FB22C882D982EA82FB8290
S11310C00E940816688179818A819B81DF91CF9182
S11310D01F910F91FF90EF90DF90CF90BF90AF9052
S11310E07F906F905F904F900895ECE5F8E0A0E654
S11310F0B8E0B183A08313821282E4E1F4E1F093B7
S11311005B08E0935A08138212821182108284EBE6
S11311109BE013969C938E931297ED93FC9390937C
S1131120570880935608909359088093580880E094
S113113090E890935108809350080895CF93DF93DB
S1131140EC01ACE5B8E001C0DF01ED91FC91119731
S1131150EC17FD07C8F312968D919C9113979D018E
S1131160280F391FC217D30749F42A813B81820F04
S1131170931F13969C938E931297ED018A819B8102
S11311809E01280F391FE217F307C1F420915A0872
S113119030915B08E217F30771F022813381820FEB
S11311A0931F9B838A83ED91FC9111978081918198
S11311B09983888305C03983288302C0F983E8832F
S11311C0CA17DB0711F0CD93DC93DF91CF9108951B
S11311D0EF92FF920F931F93CF93DF938C010E94A2
S11311E0C81480915A0890915B08892B09F47DDF1B
S11311F0809150089091510880239123892B09F004
S113120076C00115110549F0C8010496081719079D
S113121018F000E010E001C08C010115110509F47B
S113122069C080915808909159088017910708F473
S113123064C0C0915C08D0915D08ECE5F8E002C0A0
S1131240FE01EC018A819B818017910720F488813B
S113125099810097A9F780915A0890915B08C81763
S1131260D90709F44DC0E080F18084E0E80EF11C58
S113127088819981918380832A813B81201B310B52
S11312802930310548F0CE01800F911FFC013383D2
S113129022831B830A8352DF2A813B818091580871
S11312A090915908821B930B909359088093580886
S11312B040915608509157088417950720F490934D
S11312C05708809356088091500890915108282B14
S11312D0392B3B832A831982188280915408909178
S11312E05508019690935508809354080BC0E12C3F
S11312F0F12C08C0E12CF12C05C0E12CF12C02C02A
S1131300E12CF12C0E940816E114F10411F40E945E
S1131310C521C701DF91CF911F910F91FF90EF90ED
S113132008950F931F93CF93DF93009791F1EC01EE
S113133024974A815B812091500830915108BA0169
S113134062237323672B29F168817981672B09F55F
S113135020953095242335233B832A830E94C81487
S11313608A819B812091580830915908820F931FDC
S11313709093590880935808CE01E0DE809152087A
S113138090915308019690935308809352080E94B9
S11313900816DF91CF911F910F910895FC010396D8
S11313A0928381834FEF5FEFBA0143835483658354
S11313B07683908787839287818710820895FC01C2
S11313C01386128608950F931F93CF93DF93EB0137
S11313D0088119812A813B810F3F4FEF14072407AD
S11313E0340721F4FC01A185B28511C0DC011396F8
S11313F001C0DF011496ED91FC9115974081518154
S113140062817381041715072607370790F714962E
S1131410ED91FC911597FD83EC83D783C683BF833D
S1131420AE831596DC93CE9314979B878A87FC0131
S113143020812F5F2083DF91CF911F910F91089519
S1131440CF93DF93FC01A285B385C481D5818681C6
S113145097819F838E83C681D781848195819D8363
S11314608C8311968D919C911297E817F90731F4AA
S11314708681978112969C938E9311971386128678
S11314808C9181508C938C91DF91CF910895A89584
S113149090EC88E10FB6F894A895809360000FBE95
S11314A0909360000895FC016083319770833197B5
S11314B0108231971082319720E82083319710826F
S11314C031971082319710827797408331975083F8
S11314D086970895DCDFA091D714B091D814CD91EC
S11314E0CDBFDD91DEBFFF91EF91DF91CF91BF9131
S11314F0AF919F918F917F916F915F914F913F91A8
S11315002F911F910F91FF90EF90DF90CF90BF909C
S1131510AF909F908F907F906F905F904F903F908F
S11315202F901F900F900CBE0F900BBE0F900FBE0C
S11315300F90089581E008950F920FB6F8940F92DA
S11315400BB60F920CB60F921F9211242F923F925A
S11315504F925F926F927F928F929F92AF92BF92BF
S1131560CF92DF92EF92FF920F931F932F933F93AB
S11315704F935F936F937F938F939F93AF93BF9397
S1131580CF93DF93EF93FF93A091D714B091D81426
S11315900DB60D920EB60D920E946417A091D71449
S11315A0B091D814CD91CDBFDD91DEBFFF91EF9105
S11315B0DF91CF91BF91AF919F918F917F916F9167
S11315C05F914F913F912F911F910F91FF90EF9059
S11315D0DF90CF90BF90AF909F908F907F906F904F
S11315E05F904F903F902F901F900F900CBE0F90E4
S11315F00BBE0F900FBE0F9008950F920FB6F89484
S11316000F920BB60F920CB60F921F9211242F92C9
S11316103F924F925F926F927F928F929F92AF927E
S1131620BF92CF92DF92EF92FF920F931F932F936B
S11316303F934F935F936F937F938F939F93AF9356
S1131640BF93CF93DF93EF93FF93A091D714B091FF
S1131650D8140DB60D920EB60D9213BE0E94DC1472
S113166081110E946417A091D714B091D814CD9120
S1131670CDBFDD91DEBFFF91EF91DF91CF91BF919F
S1131680AF919F918F917F916F915F914F913F9116
S11316902F911F910F91FF90EF90DF90CF90BF900B
S11316A0AF909F908F907F906F905F904F903F90FE
S11316B02F901F900F900CBE0F900BBE0F900FBE7B
S11316C00F9008959ADF1895DC0153962C91539747
S11316D0222341F05A96ED91FC915B9790818AE028
S11316E0891B089580E008950FB6F8940F92FC01C9
S11316F0868D811102C081E001C080E00F900FBE91
S113170008950FB6F8940F92FC01268D878D281347
S113171002C081E001C080E00F900FBE08950F93D6
S11317201F93CF93DF93EC01042F1E8D48A1411129
S11317300CC088819981892B09F042C08C819D81DC
S11317400E94E01A1D821C8242C0011117C050E0A1
S11317508A819B810E94C33728A18A819B81820F41
S1131760911D9B838A832C813D818217930750F1BD
S1131770888199819B838A8380E029C050E08E818F
S11317809F810E94C33788A190E09195819591092A
S11317902E813F81280F391F3F832E834881598131
S11317A02417350730F42C813D81820F931F9F83CA
S11317B08E83023049F4112349F0115080E007C0B0
S11317C080E005C080E003C080E001C080E01F5FCE
S11317D01E8FDF91CF911F910F910895FC0140A1BD
S11317E04423A9F050E026813781240F351F378325
S11317F02683848195812817390720F0808191817F
S113180097838683CB01668177810C94C3370895CF
S11318101F93CF93DF93EC010FB6F8940F921AA1A4
S11318200BC08B89882351F0CE0143960E946C181B
S113183081110E94421A115011169CF38FEF8AA352
S11318400F900FBE0FB6F8940F9219A10BC08885A4
S1131850882351F0CE0108960E946C1881110E94D1
S1131860421A115011169CF38FEF89A30F900FBEEB
S1131870DF91CF911F910895CF93DF93EC010FB6C1
S1131880F8940F92E881F9818F8D28A190E030E0DF
S1131890829FA001839F500D929F500D11244E0FE3
S11318A05F1F5D834C831E8EFB83EA830197289F11
S11318B0A001299F500D389F500D1124CF01840F92
S11318C0951F9F838E838FEF89A38AA361110BC019
S11318D08885882371F0CE0108960E946C188823AD
S11318E041F02ADE06C0CE01089658DDCE014396AB
S11318F055DD0F900FBE81E0DF91CF9108950F93D6
S11319001F93F801611103C01183008302C0518346
S11319104083878F60A361E0CF01AEDF1F910F91F9
S11319200895DF92EF92FF920F931F93CF93DF936B
S1131930F82EE62ED42E869FC0011124839648DC0F
S1131940EC01009741F08C012D2DAC014D5D5F4FF2
S11319506E2D8F2DD4DFCE01DF91CF911F910F918A
S1131960FF90EF90DF900895CF92DF92EF92FF9275
S11319700F931F93CF93DF93CDB7DEB729970FB69D
S1131980F894DEBF0FBECDBF7C016B012E833F8375
S11319904887598710E00FB6F8940F92F701968D97
S11319A0878D981710F00230B1F4402FB601C701AB
S11319B0B6DEF7019389992341F0C70143960E944B
S11319C06C18882321F0B8DD02C08111B5DD0F90B9
S11319D00FBE81E04CC08E819F81A885B985892B7B
S11319E08A2B8B2B21F40F900FBE80E040C0111185
S11319F005C0CE0101960E94CB1911E00F900FBED5
S1131A00C7D70FB6F8940F92F70181A18F3F09F45D
S1131A1011A2F70182A18F3F09F412A20F900FBE09
S1131A20BE016A5F7F4FCE0101960E94DC198111CD
S1131A3019C0C70166DE882381F04E815F81688505
S1131A407985C70108960E94C917C701E1DE0E9483
S1131A5008168111A0CF70DD9ECFC701D9DE0E9488
S1131A60081699CFC701D4DE0E94081680E0299693
S1131A700FB6F894DEBF0FBECDBFDF91CF911F919B
S1131A800F91FF90EF90DF90CF9008950F93009700
S1131A9069F0FC011582148211821082168200E022
S1131AA020E030E0A90160E070E05EDF0F9108956E
S1131AB0CF93DF93482F60E081E033DFEC01E6DF72
S1131AC0CE01DF91CF910895EF92FF920F931F9370
S1131AD0CF93DF938A01FC01568D378D531710F095
S1131AE02230F9F4422F7801EC011AA18E8DCE0137
S1131AF016DE1F3F81F48B898823A9F0CE0143961B
S1131B000E946C18882389F0E114F10481F081E0CB
S1131B10F70180830DC0FF24F394F10EFAA281E053
S1131B2007C080E005C081E003C081E001C081E01E
S1131B30DF91CF911F910F91FF90EF900895CF9275
S1131B40DF92EF92FF920F931F93CF93DF93CDB762
S1131B50DEB729970FB6F894DEBF0FBECDBF8C0158
S1131B606B012E833F8348875987E12C0FB6F89485
S1131B700F92F801F68CFF2099F0B601C8012EDE11
S1131B80FA94F801F68E8085882331F0C80108960E
S1131B900E946C188111D0DC0F900FBE81E04FC001
S1131BA08E819F81A885B985892B8A2B8B2B21F463
S1131BB00F900FBE80E043C0E11006C0CE01019635
S1131BC00E94CB19EE24E3940F900FBEE1D60FB61A
S1131BD0F8940F92F80181A18F3F09F411A2F80142
S1131BE082A18F3F09F412A20F900FBEBE016A5F5B
S1131BF07F4FCE0101960E94DC19811117C0C801E4
S1131C0073DD882379F04E815F8168857985C80109
S1131C1043960E94C917C801FBDDFAD78111A6CFEC
S1131C208BDCA4CFC801F4DDF3D7A0CFC801F0DD6D
S1131C30EFD7C80159DD882309F498CF80E02996AD
S1131C400FB6F894DEBF0FBECDBFDF91CF911F91C9
S1131C500F91FF90EF90DF90CF900895EF92FF9255
S1131C600F931F93CF93DF93CDB7DEB729970FB6AA
S1131C70F894DEBF0FBECDBF8C014E835F836887AF
S1131C807987E12CF12C0FB6F8940F92F801868D28
S1131C908823C9F08150868F80819181892B29F412
S1131CA00E94CC1BF80195838483F80180858823E6
S1131CB031F0C80108960E946C1881113DDC0F9028
S1131CC00FBE81E06FC08E819F81A885B985892B65
S1131CD08A2B8B2B21F40F900FBE80E063C0F11090
S1131CE006C0CE0101960E94CB19FF24F3940F90F5
S1131CF00FBE4ED60FB6F8940F92F80181A18F3F14
S1131D0009F411A2F80182A18F3F09F412A20F90E5
S1131D100FBEBE016A5F7F4FCE0101960E94DC199F
S1131D20811126C0C801E0DC8823F1F0F80180812C
S1131D309181892B51F40FB6F8940F928481958187
S1131D400E94591AE82E0F900FBE4E815F8168855C
S1131D507985C80143960E94C917C80159DD58D72F
S1131D60811191CFE9DB8FCFC80152DD51D78BCFE1
S1131D70C8014EDD4DD7C801B7DC882309F483CFF1
S1131D80EE2079F00FB6F8940F92C8019DDC682F0D
S1131D90F801848195810E943B1B0F900FBE80E067
S1131DA001C080E029960FB6F894DEBF0FBECDBF08
S1131DB0DF91CF911F910F91FF90EF900895CF93F2
S1131DC0DF93EC010FB6F8940F9289A18F3F09F4C9
S1131DD019A28AA18F3F09F41AA20F900FBE8E8D0B
S1131DE0811104C0CE0143960E942A18CE0110DD51
S1131DF0DF91CF910895FC01448155812281338183
S1131E00240F351F80819181B901681B790BCB01A7
S1131E106417750710F0841B950B08950F93FC014C
S1131E208FE0DF011D928A95E9F7758764875583F2
S1131E3044833783268306870F910895AF92BF9218
S1131E40CF92DF92EF92FF920F931F93CF93DF9382
S1131E506C015B017A01FC01C281D381048115818B
S1131E600C1B1D0B4017510708F48A01F6018485E9
S1131E709585A801B5018C0F9D1F0E94C3370E15CF
S1131E801F0558F4A701401B510BB501600F711FCA
S1131E90F601848595850E94C337CE018E0D9F1D62
S1131EA0F601248135818217930710F0821B930B6E
S1131EB0F60193838283C701DF91CF911F910F9124
S1131EC0FF90EF90DF90CF90BF90AF900895CF92A6
S1131ED0DF92EF92FF920F931F93CF93DF931F92A2
S1131EE01F92CDB7DEB77C016B015A83498321155C
S1131EF03105C1F0FC01868580FD08C042175307F7
S1131F0008F49A013A83298381E00FC0201731072E
S1131F1058F042E050E0BE016F5F7F4FC7018EDF93
S1131F2081E003C080E001C080E0882331F0498172
S1131F305A81B601C70182DF02C080E090E00F90B1
S1131F400F90DF91CF911F910F91FF90EF90DF9051
S1131F50CF900895AF92BF92CF92DF92EF92FF920B
S1131F600F931F93CF93DF937C015B01E901421729
S1131F70530708F4EA01209781F1F70100811181E8
S1131F8084819581801B910B6E018C179D0708F449
S1131F906C01F70164857585600F711FA601C50189
S1131FA00E94C337CC16DD0658F4AE014C195D0906
S1131FB0F70164857585C5018C0D9D1D0E94C3378D
S1131FC00C0F1D1FF701848195810817190710F064
S1131FD0081B190BF70111830083CE01DF91CF9108
S1131FE01F910F91FF90EF90DF90CF90BF90AF9033
S1131FF008956F927F928F929F92AF92BF92CF92E9
S1132000DF92EF92FF920F931F93CF93DF931F9270
S11320101F92CDB7DEB76C014B015A01790101154E
S11320201105B1F0FC0160807180A801BE016F5FF1
S11320307F4F90DF89819A81E01AF10AA816B906C8
S113204030F4F60171826082A12CB12C01C05C01D4
S11320509701A501B401C6017DDF0F900F90DF91B8
S1132060CF911F910F91FF90EF90DF90CF90BF9091
S1132070AF909F908F907F906F900895CF92DF9252
S1132080EF92FF920F93CF93DF93EC016B014130FA
S113209011F401E001C000E0C114D10419F4CC240E
S11320A0C394D12CCE014096C817D90720F42196A9
S11320B08FD87C0102C0E12CF12CE114F10439F039
S11320C09601AE01B701615F7F4FC701A7DEC7016B
S11320D0DF91CF910F91FF90EF90DF90CF90089513
S11320E00F930FB6F8940F92FC0120853185232BB2
S11320F071F422853385232B61F426813781448151
S1132100558164857585068589DE81E003C080E09C
S113211001C080E00F900FBE0F910895FC0124814F
S1132120358180819181820F931F42815381841B69
S1132130950B01978217930710F0821B930B089558
S11321402F923F924F925F926F927F928F929F92C3
S1132150AF92BF92CF92DF92EF92FF920F931F93B1
S1132160CF93DF93CDB7DEB72B970FB6F894DEBFCE
S11321700FBECDBF4C017B876A871A010E831F8374
S113218028873987FC01848195810197268520FF62
S11321900CC02A01F2E04F0E511C8415950558F429
S11321A01E821F821886198606C08417950710F0B0
S11321B02A0101C02C018E819F81A885B985892BB4
S11321C08A2B8B2B09F438C0CE0101960E94B519D5
S11321D00FB6F8940F92C401A1DF3C018415950554
S11321E040F560E080E090E00E949F1E0E94461A45
S11321F0F401938782870F900FBEAE80BF80C8849E
S1132200D984E12CF12C00E010E0980140E050E08A
S1132210BA0180E00E94DE1BF40113861286BE011F
S11322206A5F7F4FCE0101960E94DC19882381F2F8
S113223005C00F900FBE02C0612C712C6114710493
S113224019F4C4016BDF3C0182019301A1016A8589
S11322507B85C4013CDE6C01892BE9F0C401CBDD34
S1132260F4012681378182179307A8F091D3F401F2
S113227080859185892B71F080859185E12CF12CE5
S113228000E020E030E0A90160E00E94861CF40137
S113229011861086BDD4C6012B960FB6F894DEBF06
S11322A00FBECDBFDF91CF911F910F91FF90EF90A3
S11322B0DF90CF90BF90AF909F908F907F906F9062
S11322C05F904F903F902F900895AF92BF92CF921E
S11322D0DF92EF92FF920F931F93CF93DF93EC0162
S11322E07B015A0169018E8580FF04C08A010E5F5B
S11322F01F4F01C08A01CE0111DF9C01A501B70166
S1132300CE01E5DD5C01892BC1F0CE0174DD2E81A7
S11323103F818217930788F088859985892B69F016
S113232088859985E12CF12C00E020E030E0A901BA
S113233060E00E947D1D19861886C501DF91CF914A
S11323401F910F91FF90EF90DF90CF90BF90AF90CF
S113235008954F925F926F927F928F929F92AF9265
S1132360BF92CF92DF92EF92FF920F931F93CF937E
S1132370DF93EC012B013A01580169018E8580FF3E
S113238005C06894882481F8912C02C0812C912C7A
S1132390A114B104C104D10441F10FB6F8940F9211
S11323A0CE0129DD7C018816990648F060E080E0C2
S11323B090E00E949F1E0E94461A998788870F907A
S11323C00FBE8E149F04A0F0E12CF12C00E010E06D
S11323D0980140E050E0BA0180E00E94DE1B1986BB
S11323E01886CE0108DD7C0103C0CE0104DD7C012A
S11323F08E149F04E8F484019701A301B201CE0175
S1132400F8DD6C01892BB1F0C3D28A859B85892BB9
S113241069F08A859B85E12CF12C00E020E030E016
S1132420A90160E00E94861C1B861A86F1D302C0B3
S1132430C12CD12CC601DF91CF911F910F91FF9038
S1132440EF90DF90CF90BF90AF909F908F907F9050
S11324506F905F904F900895E0915114F091521451
S1132460808181110CC08FEF9FEFDC0180931B14DE
S113247090931C14A0931D14B0931E140895E0911E
S11324805114F09152140780F085E02D80819181E0
S1132490A281B38180931B1490931C14A0931D14E8
S11324A0B0931E140895CF93DF93EC018B8D9C8D14
S11324B00E949109CE010E949109DF91CF91089564
S11324C04F925F926F927F928F929F92AF92BF9240
S11324D0CF92DF92EF92FF920F93CF93DF932C0171
S11324E05B014A013901E60165EA70E08B8D9C8D40
S11324F00E94CC378B8D9C8D21E0821A9108880E26
S1132500991EA114B10489F415C0822F90E0F5013D
S1132510E80FF91F3081DE01A80FB91F5D963C93C7
S11325208081882329F02F5F01C020E0203168F3E7
S11325301CA601C01D8E0A3008F009E00A8F0DA701
S11325401EA6CE0102960E94DF09CE010E960E94BD
S1132550DF09DB87CA878AE090E0A0E0B0E0801B57
S11325609109A109B1098E879F87A88BB98BDF8B4D
S1132570CE8B84E0FE01BF96DF011D928A95E9F7B8
S11325801BAAA301B201C4010E94530A9983888340
S1132590E114F10419F0F701D183C083DF91CF91E5
S11325A00F91FF90EF90DF90CF90BF90AF909F90EE
S11325B08F907F906F905F904F900895CF93C0E07D
S11325C009C02BE0C29FC001112487599B4E0E9471
S11325D0CE09CF5FCA30A8F38EE594E10E94CE09FC
S11325E083E594E10E94CE0984E494E10E94CE093B
S11325F089E394E10E94CE098DE294E10E94CE0920
S11326008EE594E1909352148093511483E594E100
S11326109093501480934F14CF910895CF93DF93E8
S1132620EC010FB6F8940F9280912C148F5F809375
S11326302C148091D7149091D814892B51F4D093F1
S1132640D814C093D71480912C14813091F4B6DF40
S113265010C08091261481110CC0E091D714F09120
S1132660D814928D8A8D891720F0D093D814C093F2
S1132670D71480911F148F5F80931F14EA8D80916B
S113268027148E1710F4E09327148BE08E9FF0012B
S11326901124E759FB4E0180F281E02DFF83EE8384
S11326A02681378139872887A681B7819E012E5FCD
S11326B03F4F15963C932E93149737832683EA8DC8
S11326C08E9FF0011124E759FB4EFD87EC87808132
S11326D08F5F80830F900FBE80912614882351F062
S11326E0E091D714F091D814928D8A8D981710F434
S11326F00E949C0ADF91CF910895CF93DF931BC072
S11327000FB6F8940F92E0914014F0914114C085F3
S1132710D185CE0102960E94200A80912C1481500A
S113272080932C14809138148150809338140F9026
S11327300FBECE01B8DE809138148111E1CFDF9154
S1132740CF9108958F929F92AF92BF92CF92DF92D2
S1132750EF92FF92CF93DF936B017C01C42F8090A3
S1132760281490902914A0902A14B0902B148091CE
S1132770D7149091D81402960E94200A8FEFC8169D
S1132780D806E806F806B1F5CC23A1F1EDE2F4E1B0
S1132790A181B281C091D714D091D814BF83AE83E4
S11327A0C091D714D091D81416968D919C911797F7
S11327B0998788871696CD91DC9117978091D714C5
S11327C09091D81402969D838C838091D714909114
S11327D0D814029617969C938E931697A091D714AB
S11327E0B091D8141D96FC93EE931C9780818F5F53
S11327F080833FC0C80CD91CEA1CFB1CE091D71491
S1132800F091D814C282D382E482F582C814D90428
S1132810EA04FB0468F46091D7147091D814809191
S11328204F14909150146E5F7F4F0E94E30921C0B2
S11328306091D7147091D8148091511490915214CE
S11328406E5F7F4F0E94E30980911B1490911C14CA
S1132850A0911D14B0911E14C816D906EA06FB06F1
S113286040F4C0921B14D0921C14E0921D14F092F8
S11328701E14DF91CF91FF90EF90DF90CF90BF9027
S1132880AF909F908F9008952F923F924F925F92B6
S11328906F927F928F929F92AF92BF92CF92DF926C
S11328A0EF92FF920F93CF93DF933C011B014A01F8
S11328B02901CA010E94E8086C01892B71F084E3A4
S11328C090E00E94E808EC01892B19F0DC8ECB8E95
S11328D006C0C6010E94910902C0C0E0D0E0209762
S11328E061F0A12CB12C6E019201A401B101C301CC
S11328F0E7DDCE0193DE81E001C08FEFDF91CF9160
S11329000F91FF90EF90DF90CF90BF90AF909F908A
S11329108F907F906F905F904F903F902F9008958D
S1132920EF92FF920F930F2EF9E1EF2EF4E1FF2EB9
S1132930F02D00E020E030E040EC50E06AE475E087
S11329408EE491E0A1DF813011F40E94431F8130B5
S1132950C9F4F8948FEF9FEFDC0180931B149093DC
S11329601C14A0931D14B0931E1481E080932614AC
S1132970109228141092291410922A1410922B14D5
S11329800E946A0A809106020F91FF90EF900895C9
S1132990809118148F5F8093181408950FB6F894DB
S11329A00F92609128147091291480912A149091A7
S11329B02B140F900FBE0895CF92DF92EF92FF92E7
S11329C0CF93DF9380911814811105C1C09028140E
S11329D0D0902914E0902A14F0902B148FEFC81A89
S11329E0D80AE80AF80AC0922814D0922914E0926E
S11329F02A14F0922B14C114D104E104F104B1F4AB
S1132A00809151149091521420914F14309150148C
S1132A1030935214209351149093501480934F1474
S1132A20809120148F5F8093201416DD80911B14F5
S1132A3090911C14A0911D14B0911E14C816D906AF
S1132A40EA06FB0620F480E0B2C081E001C080E029
S1132A50E0915114F0915214908191110CC04FEFF8
S1132A605FEFBA0140931B1450931C1460931D1420
S1132A7070931E149CC0E0915114F091521407807D
S1132A80F085E02D0084F185E02D4281538164813D
S1132A907581C416D506E606F70648F440931B1460
S1132AA050931C1460931D1470931E1480C0A4854D
S1132AB0B585C681D781208531853F832E83C08526
S1132AC0D185268137813D832C8311964D915C916C
S1132AD012979F012E5F3F4F4217530731F44085F1
S1132AE0518512965C934E931197158614869C918A
S1132AF091509C93A08DB18D109709F1C289D3890F
S1132B00448955895F834E83C489D5894289538911
S1132B105D834C8311966D917C911297AF01425F56
S1132B205F4F6417750731F44489558912965C9395
S1132B304E931197118E108E9C9191509C93A28D5F
S1132B40909127149A1710F4A09327149BE09A9F4E
S1132B50D0011124A759BB4E11960D90BC91A02D04
S1132B60B783A68316964D915C911797518740873A
S1132B701696CD91DC9117973D832C8317963C9341
S1132B802E931697A28D9A9FD0011124A759BB4E5C
S1132B90B587A4879C919F5F9C93228DE091D71465
S1132BA0F091D814928D291708F04FCF51CFE091AE
S1132BB0D714F091D814E28D9BE0E99FF001112421
S1132BC0E759FB4E9081923008F081E090912114F6
S1132BD0911116C016C08091221490912314A091D3
S1132BE02414B09125140196A11DB11D80932214C3
S1132BF090932314A0932414B093251480E001C06F
S1132C0081E0DF91CF91FF90EF90DF90CF90089516
S1132C10CF92DF92EF92FF92CF93DF930FB6F894A7
S1132C200F92809118148150809318148091181475
S1132C308111BEC080912C14811188C0BCC0E09168
S1132C404B14F0914C140084F185E02DA08DB18DCE
S1132C50C289D389848995899F838E83C489D589C0
S1132C60828993899D838C8311962D913C9112972F
S1132C70CF010E962817390731F484899589129665
S1132C809C938E931197118E108E8C9181508C93FE
S1132C90A485B585C681D781808591859F838E83E0
S1132CA0C085D185868197819D838C8311968D9172
S1132CB09C9112979F012E5F3F4F8217930731F427
S1132CC08085918512969C938E9311971586148610
S1132CD08C9181508C93A28D809127148A1710F4C3
S1132CE0A09327148BE08A9FD0011124A759BB4ECF
S1132CF011960D90BC91A02DB783A68316964D9185
S1132D005C911797518740871696CD91DC91179760
S1132D103D832C8317963C932E931697A28D8A9FFE
S1132D20D0011124A759BB4EB587A4878C918F5F1E
S1132D308C93928DA091D714B091D8145A968C91FB
S1132D40981730F081E08093211402C0E0E0F0E0B5
S1132D5080914414811173CFEF2B09F07DDBC09077
S1132D602214D0902314E0902414F0902514C1145C
S1132D70D104E104F104A1F01FDE882319F081E0FD
S1132D808093211481E0C81AD108E108F108A1F761
S1132D9010922214109223141092241410922514C9
S1132DA080912114882331F00E949C0A81E003C0A1
S1132DB080E001C080E00F900FBEDF91CF91FF90C3
S1132DC0EF90DF90CF9008958F929F92AF92BF9231
S1132DD0CF92DF92EF92FF921F93CF93DF93EC0198
S1132DE06A017B01D5DD8090281490902914A0906D
S1132DF02A14B0902B1488819981AA81BB81AC01DB
S1132E00BD014C0D5D1D6E1D7F1D88169906AA0619
S1132E10BB0660F4481759076A077B0798F48416C1
S1132E209506A606B70680F010E013C048175907A8
S1132E306A077B0758F084169506A606B70640F085
S1132E4010E007C010E005C011E003C011E001C0AC
S1132E5011E0488359836A837B83112341F0CB01BA
S1132E60BA01681979098A099B0940E06BDCD0DE54
S1132E70811102C00E949C0A812FDF91CF911F9182
S1132E80FF90EF90DF90CF90BF90AF909F908F9086
S1132E900895CF92DF92EF92FF926B017C01672B32
S1132EA0682B692B39F074DD40E0C701B6014ADCB8
S1132EB0AFDE01C080E0811102C00E949C0AFF9035
S1132EC0EF90DF90CF90089580911814882321F01B
S1132ED081E080932114089510922114E091D71475
S1132EE0F091D81420813181E091D714F091D81455
S1132EF0838D948D8217930760F06091D71470913D
S1132F00D814635E7F4F8091D7149091D8140E9497
S1132F10D1218091271401C08150282F30E09BE0FB
S1132F20929FF001939FF00D1124E759FB4E90817D
S1132F30992391F39BE0929FA001939F500D11243C
S1132F40DF010180F281E02D0480F581E02D1296ED
S1132F50FC93EE93119744595B4EE417F50729F45B
S1132F6044815581FD01528341839BE0929FF0018E
S1132F70939FF00D1124E759FB4E0180F281E02D5F
S1132F80208531853093D8142093D7148093271447
S1132F900895CF92DF92EF92FF926A017B016091D4
S1132FA0D7147091D814625F7F4F0E94E30941E007
S1132FB0C701B601C7DBFF90EF90DF90CF90089573
S1132FC00F931F93CF93DF93FC01A091D714B0917B
S1132FD0D81470681E964D935D936D937C935197AE
S1132FE0A181B281C091D714D091D814BB8BAA8B84
S1132FF0C091D714D091D81416968D919C9117979F
S11330009D8B8C8B1696CD91DC9117978091D7145C
S11330109091D8140E969D838C838091D7149091AF
S1133020D8140E9617969C938E931697A091D71446
S1133030B091D8145996FC93EE93589780818F5F82
S1133040808341E0C901B8017DDBDF91CF911F91FD
S11330500F910895CF93DF93FC01CB01BA01A181B5
S1133060B281C091D714D091D814BB8BAA8BC091D4
S1133070D714D091D81416964D915C9117975D8B07
S11330804C8B1696CD91DC9117974091D7145091A3
S1133090D814425F5F4F5D834C834091D7145091A5
S11330A0D814425F5F4F17965C934E931697A09186
S11330B0D714B091D8145996FC93EE935897308155
S11330C03F5F3083222319F06FEF7FEFCB01422F54
S11330D039DBDF91CF910895CF93DF93DC0117960D
S11330E0ED91FC9118970084F185E02DA08DB18DB0
S11330F0C289D389848995899F838E83C489D5891C
S1133100828993899D838C8311968D919C911297CA
S11331109F01225F3F4F8217930731F48489958979
S113312012969C938E931197118E108E8C918150D0
S11331308C9380911814811152C0A485B585C681E1
S1133140D781808591859F838E83C085D185868133
S113315097819D838C8311968D919C9112979F01E9
S11331602E5F3F4F8217930731F480859185129625
S11331709C938E931197158614868C9181508C9311
S1133180A28D809127148A1710F4A09327148BE042
S11331908A9FD0011124A759BB4E11960D90BC9162
S11331A0A02DB783A68316964D915C9117975187EE
S11331B040871696CD91DC9117973D832C83179603
S11331C03C932E931697A28D8A9FD0011124A75960
S11331D0BB4EB587A4878C918F5F8C931CC044E44D
S11331E054E1DA011196CD91DC911297D38BC28B05
S11331F08E819F81958B848B8E819F81DC011596B6
S11332003C932E9314973F832E83518F408FDA0182
S11332108C918F5F8C93928DE091D714F091D81498
S1133220828D891720F481E08093211401C080E00D
S1133230DF91CF910895CF93DF93DC0170684D93B4
S11332405D936D937C9313971896ED91FC91199768
S11332501A964D915C911B9714968D919C9115979C
S113326016962D913C911797EC013F832E83169669
S11332708D919C91179714962D913C911597EC0183
S11332803D832C83EA0189819A81A817B90731F417
S113329016968D919C9117979A8389831B961C92FD
S11332A01E921A97DA018C9181508C93A485B5856E
S11332B0C681D781808591859F838E83C085D18582
S11332C0868197819D838C8311968D919C91129711
S11332D09F012E5F3F4F8217930731F480859185BC
S11332E012969C938E931197158614868C91815017
S11332F08C93A28D809127148A1710F4A09327141D
S11333008BE08A9FD0011124A759BB4E11960D90D2
S1133310BC91A02DB783A68316964D915C91179707
S1133320518740871696CD91DC9117973D832C8366
S113333017963C932E931697A28D8A9FD001112441
S1133340A759BB4EB587A4878C918F5F8C93928DC0
S1133350E091D714F091D814828D891718F481E084
S113336080932114DF91CF9108950FB6F8940F92B2
S113337020912014FC012083409128145091291499
S113338060912A1470912B14418352836383748354
S11333900F900FBE089520912014FC0120834091CA
S11333A028145091291460912A1470912B1441838C
S11333B052836383748308958F929F92AF92BF92D6
S11333C0CF92DF92EF92FF920F931F93CF93DF93ED
S11333D0FB010FB6F8940F92C0902814D0902914D2
S11333E0E0902A14F0902B14DC0111960D911D919C
S11333F02D913C91149746015701801A910AA20A13
S1133400B30A40815181628173814F3FBFEF5B07F3
S11334106B077B0739F1EC01B881A0912014BA172E
S113342059F0C016D106E206F30630F0108211827C
S11334301282138281E017C084169506A606B70689
S113344058F4481959096A097B09408351836283F6
S11334507383A1DF80E007C010821182128213827D
S113346081E001C080E00F900FBEDF91CF911F91EA
S11334700F91FF90EF90DF90CF90BF90AF909F900F
S11334808F90089581E08093211408958091D7143A
S11334909091D814089580912614882331F0809156
S11334A01814811104C082E0089581E0089580E039
S11334B008950F931F93CF93DF93FC01892B09F495
S11334C077C0828DA091D714B091D8145A969C914C
S11334D0891708F063C04685578560897189772309
S11334E094F0A091D714B091D8145A969C914AE0C4
S11334F050E060E070E0491B510961097109468799
S11335005787608B718B248535854BE0849FC00180
S1133510112487599B4E28173907B9F5EF018F01FC
S11335200E5F1F4FC8010E94200AE091D714F0914A
S1133530D814E28DEA8F809127148E1710F4E0934B
S113354027148BE08E9FF0011124E759FB4E018074
S1133550F281E02DFF83EE83268137813987288726
S1133560A681B78115961C930E931497178306832F
S1133570EA8D8E9FF0011124E759FB4EFD87EC87FD
S113358080818F5F808381E016C0A091D714B091B1
S1133590D8145A968C91828F81E00DC095A5E09144
S11335A0D714F091D814828D981720F080E003C0CE
S11335B080E001C081E0DF91CF911F910F910895C8
S11335C00F931F93CF93DF93FC01892B09F449C018
S11335D086A5815086A7228D95A5291709F443C095
S11335E0811143C0EF018F010E5F1F4FC8010E947C
S11335F0200AEDA5EA8F8AE090E0A0E0B0E08E1BFF
S11336009109A109B1098E879F87A88BB98B8091F5
S113361027148E1710F4E09327148BE08E9FF0018B
S11336201124E759FB4E0180F281E02DFF83EE83E4
S11336302681378139872887A681B78115961C93FF
S11336400E93149717830683EA8D8E9FF00111243D
S1133650E759FB4EFD87EC8780818F5F808381E093
S113366005C080E003C080E001C080E0DF91CF911D
S11336701F910F9108950F931F93CF93DF93FC0134
S1133680892B09F45AC085A5861708F4862F928DD4
S1133690891709F452C026A5213009F04EC0828F43
S11336A04685578560897189772364F04AE050E044
S11336B060E070E0481B510961097109468757872A
S11336C0608B718B248535854BE0949FC001112458
S11336D087599B4E2817390781F5EF018F010E5F3B
S11336E01F4FC8010E94200AEA8D809127148E176B
S11336F010F4E09327148BE08E9FF0011124E75916
S1133700FB4E0180F281E02DFF83EE832681378119
S113371039872887A681B78115961C930E93149731
S113372017830683EA8D8E9FF0011124E759FB4E1F
S1133730FD87EC8780818F5F8083DF91CF911F911C
S11337400F910895CF92DF92EF92FF92E091D714F8
S1133750F091D8146685778580899189E091D71492
S1133760F091D814A091D714B091D8145A962C91F2
S11337700F2EFAE0CF2ED12CE12CF12CF02DC21A11
S1133780D108E108F108C686D786E08AF18AFF905D
S1133790EF90DF90CF9008958091D7149091D81432
S11337A0892B39F0E091D714F091D81486A58F5F56
S11337B086A78091D7149091D81408954F925F9260
S11337C06F927F92AF92BF92CF92DF92EF92FF926D
S11337D00F931F93CF93DF93280139010FB6F89409
S11337E00F92E091D714F091D814C82FD0E0EC0FC9
S11337F0FD1F83A9823079F1E091D714F091D81498
S1133800CE01880F991F880F991FE80FF91F87A50C
S113381090A9A1A9B2A940955095609570954823A7
S113382059236A237B2347A750AB61AB72ABE0916A
S1133830D714F091D814EC0FFD1F81E083ABA114D1
S1133840B104C104D10439F041E0C601B5010E94BC
S1133850A2130E949C0A0F900FBE0FB6F8940F9209
S1133860E114F104A1F0E091D714F091D814CE0141
S1133870880F991F880F991FE80FF91F87A590A932
S1133880A1A9B2A9F70180839183A283B383E091B4
S1133890D714F091D814EC0FFD1F83A98230E9F4FA
S11338A0E091D714F091D814CE01880F991F880F96
S11338B0991FE80FF91F87A590A9A1A9B2A940945F
S11338C0509460947094482259226A227B2247A61D
S11338D050AA61AA72AA81E001C080E02091D714A5
S11338E03091D814C20FD31F1BAA0F900FBEDF91C3
S11338F0CF911F910F91FF90EF90DF90CF90BF90E9
S1133900AF907F906F905F904F9008958F929F92A9
S1133910AF92BF92EF92FF920F93CF93DF93DC01AC
S11339200FB6F8940F92E114F10489F0E62FF0E059
S1133930EE0FFF1FEE0FFF1FE80FF91F87A490A8DB
S1133940A1A8B2A8F70180829182A282B38270E01A
S1133950FD01E60FF71F83A992E093AB023001F15A
S113396018F4013031F04DC0033079F10430D1F155
S113397048C0660F771F660F771FFD01E60FF71F1C
S113398087A490A8A1A8B2A8BA01A90148295929D5
S11339906A297B2947A750AB61AB72AB01E034C005
S11339A0660F771F660F771FFD01E60FF71F47A508
S11339B050A961A972A94F5F5F4F6F4F7F4F47A70F
S11339C050AB61AB72AB01E01FC0660F771F660F8F
S11339D0771FFD01E60FF71F27A730AB41AB52ABB2
S11339E001E012C0823079F0660F771F660F771FEF
S11339F0FD01E60FF71F27A730AB41AB52AB01E047
S1133A0003C001E001C000E0813009F069C01C96E8
S1133A10ED91FC911D971696CD91DC911797189610
S1133A208D919C9119979F838E831896CD91DC91EB
S1133A30199716968D919C9117979D838C838181FC
S1133A4092819D012E5F3F4F8217930731F41896A0
S1133A508D919C911997928381831D961C921E923D
S1133A601C978081815080835A96EC915A9780915B
S1133A7027148E1710F4E09327148BE08E9FF00127
S1133A801124E759FB4E0180F281E02D1796FC9337
S1133A90EE9316974681578119965C934E93189727
S1133AA0C681D7813D832C83378326835A96EC9134
S1133AB05A978E9FF0011124E759FB4E1D96FC93F3
S1133AC0EE931C9780818F5F80835A969C91E0913E
S1133AD0D714F091D814828D891710F40E949C0A8F
S1133AE00F900FBE802FDF91CF910F91FF90EF9039
S1133AF0BF90AF909F908F9008958F929F92AF92B6
S1133B00BF92CF92DF92EF92FF920F93CF93DF9306
S1133B10DC01E114F10489F0E62FF0E0EE0FFF1F61
S1133B20EE0FFF1FE80FF91F87A490A8A1A8B2A861
S1133B30F70180829182A282B38270E0FD01E60FD8
S1133B40F71F93A982E083AB023001F118F401302E
S1133B5031F04DC0033079F10430D1F148C0660F23
S1133B60771F660F771FFD01E60FF71F87A490A844
S1133B70A1A8B2A8BA01A901482959296A297B290F
S1133B8047A750AB61AB72AB81E034C0660F771FBF
S1133B90660F771FFD01E60FF71F47A550A961A91E
S1133BA072A94F5F5F4F6F4F7F4F47A750AB61AB19
S1133BB072AB81E01FC0660F771F660F771FFD0190
S1133BC0E60FF71F27A730AB41AB52AB81E012C021
S1133BD0923079F0660F771F660F771FFD01E60FAD
S1133BE0F71F27A730AB41AB52AB81E003C081E0A4
S1133BF001C080E0913009F096C0909118149111A1
S1133C005FC01C96ED91FC911D971696CD91DC91A9
S1133C10179718962D913C9119973F832E831896E8
S1133C20CD91DC91199716962D913C9117973D8370
S1133C302C83418152819D012E5F3F4F42175307D0
S1133C4031F418964D915C911997528341831D96D6
S1133C501C921E921C979081915090835A96EC91DD
S1133C605A97909127149E1710F4E09327149BE021
S1133C709E9FF0011124E759FB4E0180F281E02D53
S1133C801796FC93EE9316974681578119965C9389
S1133C904E931897C681D7813D832C83378326831F
S1133CA05A96EC915A979E9FF0011124E759FB4EC6
S1133CB01D96FC93EE931C9790819F5F908321C087
S1133CC064E474E1FB01C181D2815396DC93CE9309
S1133CD052972E813F8155963C932E9354974E8153
S1133CE05F819D01225F3F4FFA01358324833F8327
S1133CF02E8359967C936E935897FB0190819F5F16
S1133D0090835A962C91E091D714F091D814928D07
S1133D10921748F4C114D10419F091E0F60190838C
S1133D2091E090932114DF91CF910F91FF90EF9048
S1133D30DF90CF90BF90AF909F908F9008950097A1
S1133D4021F48091D7149091D8140FB6F8940F925F
S1133D5070E0FC01E60FF71F23A9223031F4FC01C7
S1133D60E60FF71F13AA81E001C080E00F900FBE99
S1133D700895DC01E091E314F091E414808191E072
S1133D80811190E09C93911108C00780F085E02D8B
S1133D906081718182819381089560E070E0CB013C
S1133DA00895CF92DF92EF92FF920F931F93FC013D
S1133DB0428353836483758393878287041715072B
S1133DC026073707C0F00C191D092E093F098685FF
S1133DD09785A089B189081719072A073B0700F5B9
S1133DE0BF016E5F7F4F8091E1149091E2140E94B5
S1133DF0E30980E018C00C151D052E053F0528F4C5
S1133E004C155D056E057F0568F4BF016E5F7F4F3D
S1133E108091E3149091E4140E94E30980E003C0CC
S1133E2081E001C081E01F910F91FF90EF90DF903E
S1133E30CF9008950FB6F8940F928091DF1490916B
S1133E40E014892BE9F480EF94E10E94CE0985EE19
S1133E5094E10E94CE0980EF94E19093E41480935E
S1133E60E31485EE94E19093E2148093E11440E02E
S1133E7067E08AE00E94910C9093E0148093DF1431
S1133E800F900FBE0895EF92FF920F93D3DF8091AE
S1133E90DF149091E014892B91F00F2EFDEDEF2E9D
S1133EA0F4E1FF2EF02D03E020E030E040EC50E0A0
S1133EB06FE475E089E591E00E94441401C080E05C
S1133EC00F91FF90EF9008958F929F92AF92BF92BF
S1133ED0CF92DF92EF92FF920F931F93CF93DF93D2
S1133EE0CDB7DEB727970FB6F894DEBF0FBECDBFB0
S1133EF0E091DF14F091E014309781F169832A8313
S1133F003B834C835D839F838E836630F4F4C3DAF2
S1133F10823069F400E0A7019601BE016F5F7F4F14
S1133F208091DF149091E0140E94B40C18C000E05A
S1133F3020E030E0A901BE016F5F7F4F8091DF1464
S1133F409091E0140E94B40C0AC020E0A801BE01C4
S1133F506F5F7F4FCF010E94640D01C080E0279600
S1133F600FB6F894DEBF0FBECDBFDF91CF911F9186
S1133F700F91FF90EF90DF90CF90BF90AF909F9004
S1133F808F9008958F929F92AF92BF92CF92DF92BB
S1133F90EF92FF920F931F93CF93DF933BC0078061
S1133FA0F085E02D80809180A280B380C085D1858A
S1133FB08E010E5F1F4FC8010E94200AEC89FD8903
S1133FC0CE0119958E8982FF25C08E859F85A8898B
S1133FD0B989880D991DAA1DBB1D88169906AA06C4
S1133FE0BB0670F48A839B83AC83BD83DB87CA875B
S1133FF0B8018091E3149091E4140E94E3090AC08B
S1134000C12CD12C760100E010E0A501940160E000
S1134010CE015ADFE091E314F091E4148081811120
S1134020BECF8091E1149091E2149093E4148093B4
S1134030E314F093E214E093E114DF91CF911F9124
S11340400F91FF90EF90DF90CF90BF90AF909F9033
S11340508F900895CF92DF92EF92FF92CF93DF93E8
S1134060EC010E94CE146B017C018091D9149091D3
S1134070DA14A091DB14B091DC14C816D906EA0650
S1134080FB0620F47FDF81E0888301C01882C092A0
S1134090D914D092DA14E092DB14F092DC14C70144
S11340A0B601DF91CF91FF90EF90DF90CF9008950C
S11340B04F925F926F927F928F929F92AF92BF9234
S11340C0CF92DF92EF92FF920F931F93CF93DF93E0
S11340D04B015C0129013A01E091E314F091E414ED
S11340E00780F085E02DC085D185CE0102960E941F
S11340F0200A8E8982FF1BC04E855F856889798975
S1134100480D591D6A1D7B1D7501640193018201CF
S1134110CE0147DE882369F0C12CD12C760100E062
S113412010E0A501940160E0CE01CEDE02C08E7FD6
S11341308E8BEC89FD89CE011995DF91CF911F916A
S11341400F91FF90EF90DF90CF90BF90AF909F9032
S11341508F907F906F905F904F9008958F929F9271
S1134160AF92BF92CF92DF92EF92FF921F93CF93C1
S1134170DF931F92CDB7DEB76B017C01142F0E9431
S1134180C814CE01019666DF4B015C01898181115F
S11341902DC011110DC08C149D04AE04BF0440F059
S11341A00E940816A5019401C701B60181DF20C051
S11341B0112341F0E091E114F091E214808111E0C7
S11341C0811110E0B701A601481959096A097B0950
S11341D0212F8091DF149091E0140E94DF0E0E9441
S11341E00816811105C00E949C0A02C00E9408168C
S11341F00F90DF91CF911F91FF90EF90DF90CF90C0
S1134200BF90AF909F908F900895AF92BF92CF923E
S1134210DF92EF92FF920F931F93CF93DF93CDB76B
S1134220DEB728970FB6F894DEBF0FBECDBF82C0AD
S1134230898188230CF47EC0AE80BF80D5011C9692
S11342408D919C911D97892B21F0C50102960E94A6
S1134250200ACE010896FEDE8B019C01E9810E2E18
S1134260000CFF0BEA30F10508F064C08827EE5813
S1134270FF4F8F4F0C948A35F50186898160868BB8
S1134280CA80DB80EC80FD80468557856089718912
S11342904C0D5D1D6E1D7F1DC50183DD882309F452
S11342A049C0D5015496ED91FC915597C5011995D6
S11342B0F501868982FF3EC04A815B816C817D81E4
S11342C086859785A089B1899A01AB01280F391F8A
S11342D04A1F5B1FC12CD12C760100E010E060E086
S11342E0C501F2DD27C0D50156968C9156978E7F75
S11342F056968C931FC0F50186898160868B4A810E
S11343005B816C817D8146875787608B718B400F01
S1134310511F621F731F68017901C50142DD0AC084
S1134320F501868981FD04C0C5010E94910902C07E
S11343308E7F868B20E030E0A901BE016F5F7F4F46
S11343408091DF149091E0140E949F0D811170CF31
S113435028960FB6F894DEBF0FBECDBFDF91CF9184
S11343601F910F91FF90EF90DF90CF90BF90AF908F
S11343700895089584B1806884B985B1806885B949
S1134380089583B1806883B90895F4DF2FEF80E73F
S113439092E0215080409040E1F700C00000F1DF3E
S11343A0F5CFE8DF2FEF87EA91E621508040904077
S11343B0E1F700C00000E5DFF5CF0F931F930091F4
S11343C0291610912A166091FD147091FE1421E0B3
S11343D030E040E050E083E090E00E94BC04909321
S11343E03816809337160091291610912A16609179
S11343F0FD147091FE1424E030E040E050E083E0CE
S11344000E942F0390933A1680933916009129162F
S113441010912A166091FD147091FE1422E030E090
S113442040E050E083E090E00E94210290933C162B
S113443080933B161F910F9108950F931F938091C2
S1134440291690912A16892B89F481E00E94580D2F
S113445090932A1680932916009741F000E020E0FB
S113446030E0A90160E070E00E94B40C0E94C00337
S1134470A4DF80913716909138160E94F60360915C
S1134480FB147091FC1484E090E00E946602009199
S1134490391610913A162091291630912A16409116
S11344A03B1650913C16609137167091381682E095
S11344B090E00E94ED061F910F9108950E94340729
S11344C09093FE148093FD1480E00E94A62D69D77A
S11344D041E060E070E086E190E00E943E1090933D
S11344E0FC148093FB14BC0181E043D3A6CF089550
S11344F0E5DF0E949014FFCF04D06894B11150C03E
S1134500089533D088F09F5790F0B92F9927B75169
S1134510A0F0D1F0660F771F881F991F1AF0BA9583
S1134520C9F712C0B13081F03AD0B1E0089537C074
S1134530672F782F8827B85F39F0B93FCCF3869579
S113454077956795B395D9F73EF4909580957095D6
S113455061957F4F8F4F9F4F089557FD9058440F9B
S1134560551F59F05F3F71F04795880F97FB991FCE
S113457061F09F3F79F0879508951216130614068B
S1134580551FF2CF4695F1DF08C016161706180618
S1134590991FF1CF86957105610508940895E894F3
S11345A0BB2766277727CB0197F90895FA01DC0129
S11345B0AA0FBB1F9B01AC01BF5728F42227332746
S11345C0442750781FC0B75188F4AB2F0024469578
S11345D037952795011CA395D2F3002069F0220F8B
S11345E0331F441FB395DAF30DD076C061307105E3
S11345F0A0E88A07B94630F49B01AC016627772707
S113460088279078309621F0208331834283538326
S113461008950BD0DDC0CED028F0D3D018F0952368
S113462009F0BFC0C4C01124BBCF97DFA0F3959F8E
S1134630D1F3950F50E0551F629FF001729FBB2785
S1134640F00DB11D639FAA27F00DB11DAA1F649F31
S11346506627B00DA11D661F829F2227B00DA11DE4
S1134660621F739FB00DA11D621F839FA00D611D6A
S1134670221F749F3327A00D611D231F849F600D8B
S1134680211D822F762F6A2F11249F5750408AF0C4
S1134690E1F088234AF0EE0FFF1FBB1F661F771F50
S11346A0881F91505040A9F79E3F510570F079C082
S11346B077CF5F3FECF3983EDCF38695779567956B
S11346C0B795F795E7959F5FC1F7FE2B880F911D6E
S11346D09695879597F908955058BB27AA270ED029
S11346E077C068D030F06DD020F031F49F3F11F4E2
S11346F01EF45DC00EF4E095E7FB53C0E92F2DDFF7
S113470080F3BA17620773078407950718F071F4EA
S11347109EF545CF0EF4E0950B2EBA2FA02D0B017C
S1134720B90190010C01CA01A0011124FF27591BF2
S113473099F0593F50F4503E68F11A16F040A22FF8
S1134740232F342F4427585FF3CF46953795279569
S1134750A795F0405395C9F77EF41F16BA0B620B68
S1134760730B840BBAF09150A1F0FF0FBB1F661FAF
S1134770771F881FC2F70EC0BA0F621F731F841FF2
S113478048F4879577956795B795F7959E3F08F018
S1134790B3CF9395880F08F09927EE0F97958795D7
S11347A0089597F99F6780E870E060E008959FEFAF
S11347B080EC089500240A941616170618060906B4
S11347C0089500240A941216130614060506089583
S11347D0092E0394000C11F4882352F0BB0F40F40B
S11347E0BF2B11F460FF04C06F5F7F4F8F4F9F4F4B
S11347F008956530F1F4FA0180818F7390E0982F69
S113480088272181822B90930A0280930902828156
S1134810F0E48F9FC0011124FA0123812695269587
S1134820822B909308028093070281E08093FF1407
S11348300895643051F080E090E4909308028093EE
S1134840070290930A028093090208950F931F931D
S113485009EF13E220E034E244EF50E060E087E245
S11348600E94602F909301158093001521E0892BFD
S113487009F020E0822F1F910F9108958091001577
S113488090910115009759F040E060E070E00E94BB
S1134890B12F843031F41092FF1480E0089582E047
S11348A0089583E008958091001590910115009773
S11348B039F064E00E94FD2F853021F083E00895F3
S11348C082E0089580E008956091090270910A02DF
S11348D080E090E00E94033520E030E048EC52E4B0
S11348E098DE20E038EF4FE756E40C9492340895B4
S11348F0EBDF20E030E040E251E48BDE02DECB016E
S11349000895609107027091080280E090E00E948F
S1134910033520E030E045E253E47BDE20E038EF6D
S11349204FE756E40E94923420E030E040E252E443
S1134930D3CE08950F931F93CF93DF931F921F92AB
S1134940CDB7DEB78C0119822DC0E0913915EC3258
S113495050F481E08E0F80933915F0E0E559FA4E5A
S11349608A81808302C0109239158A818A30D1F4F9
S11349704091391550E0FA01E759FA4E108241503E
S113498051099E012F5F3F4F6BE675E180913C1505
S113499090913D150E946511898181110E949C0AA4
S11349A010923915BE016E5F7F4FC80139D6882336
S11349B061F20F900F90DF91CF911F910F910895A5
S11349C00F931F93CF93DF938C01EB0180913C15E0
S11349D090913D150E947010B80182E095E10E940B
S11349E00338209779F0E2E0F5E101900020E9F73F
S11349F0319780E290E091838083BE0182E095E16B
S1134A000E94F837E2E0F5E1DF010D900020E9F7BC
S1134A1011978DE09AE011969C938E9312961C92B6
S1134A2001900020E9F73197E250F541AE2F82E082
S1134A3095E1AC016A2F80913E1590913F159BD56D
S1134A40811111C008E215E020E030E04DE250E0B1
S1134A5065EC75E180913C1590913D150E94A9117A
S1134A6085EC95E102C080E090E0DF91CF911F9149
S1134A700F9108952F923F924F925F926F927F927F
S1134A808F929F92AF92BF92CF92DF92EF92FF925A
S1134A900F931F93CF93DF935C01FC0101900020DF
S1134AA0E9F731976F01C81AD90A5C2C0F2EF0EF81
S1134AB08F2EF7E09F2EF02DE12CF12C4C2C37019A
S1134AC0F40101811281E80109900020E9F721979E
S1134AD0C01BD10B3C2EF9E0CF16D10458F0F401E1
S1134AE02080FEE02F1206C0B801C5010E94D33712
S1134AF0892B09F5442D351408F44C2F50E0B801E6
S1134B00C5010E940A38892B49F4F301EE0FFF1FF7
S1134B10E60DF71DE051F84F20800DC08FEFE81A25
S1134B20F80AE3E08E0E911CF1E1EF16F10439F678
S1134B306894222424F8822DDF91CF911F910F9144
S1134B40FF90EF90DF90CF90BF90AF909F908F90A9
S1134B507F906F905F904F903F902F90089530DF3B
S1134B6089CF089580913C1590913D150C94701057
S1134B7008958F929F92AF92CF92EF920F931F93CB
S1134B80CF93C82F8B0141E060E070E088EC90E0A7
S1134B900E943E1090933D1580933C1510933B1555
S1134BA000933A150F2EFAE98F2EF4E29F2EF02D82
S1134BB06894AA24A6F86894CC24C6F8E12C00E0F2
S1134BC023E040E051EE60E070E08C2F06D4909337
S1134BD03F1580933E15E7E0F1E08081806180839A
S1134BE0CF911F910F91EF90CF90AF909F908F90A6
S1134BF00895882331F0E8E0F1E080818F7E80839E
S1134C000895E8E0F1E0808180618083089560E0A8
S1134C1070E086E795E0D4DEE5ECF5E10190002054
S1134C20E9F73197E55CF54181E0759708F080E09C
S1134C300895CF93DF93EC0160E070E087E895E09E
S1134C40BFDEE5ECF5E101900020E9F7E65DF54112
S1134C5039F465EC75E1CE010E94033880E002C0AE
S1134C60188281E0DF91CF910895FC01019000202A
S1134C70E9F79F01215131092817390729F4BC01AB
S1134C8085EB95E06CCF089589E00895FC010190CF
S1134C900020E9F79F01215131092817390729F428
S1134CA0BC0184EC95E05BCF089589E00895FC0194
S1134CB001900020E9F79F01215231092817390793
S1134CC029F4BC0183ED95E04ACF089589E0089565
S1134CD060E070E082E196E042CF08950F931F9365
S1134CE0E82FF0E0EE0FFF1FE451F84F608171816F
S1134CF08BE196E034DF811114C008E215E020E076
S1134D0030E04DE250E065EC75E180913C15909106
S1134D103D150E94A911882321F085EC95E1AADEB6
S1134D2003C085EC95E1A6DE1F910F9108950F93C2
S1134D301F93CF93DF931F92CDB7DEB7DB0111969C
S1134D409C911197953108F0B4C0992381F160E0EA
S1134D5070E0272F30E0462F50E0FD01E40FF51FEF
S1134D60928192959F709A3010F0995C01C0905D89
S1134D70F901EA5AFA4E90832F5F3F4FFD01E40F89
S1134D80F51F92819F70492F50E04A30510514F06D
S1134D90995C01C0905DF901EA5AFA4E90837E5FF6
S1134DA06F5F11969C911197691798F201C070E09A
S1134DB0E72FF0E0EA5AFA4E10824C91811103C0B9
S1134DC084E296E002C086E296E026E535E13F9370
S1134DD02F931F924F939F938F938AE296E09F9312
S1134DE08F9388E995E19F938F930E94AC3860E09C
S1134DF070E088E995E1B3DE0FB6F894DEBF0FBE2C
S1134E00CDBF811159C008E215E020E030E04DE249
S1134E1050E065EC75E180913C1590913D150E9440
S1134E20A911882309F447C085EC95E123DE8E306F
S1134E3009F042C087E0898380913A1590913B152F
S1134E40892BA9F1BE016F5F7F4F85EC95E168D195
S1134E5080934015E981F0E0EB53FA4EDF010D90A9
S1134E600020E9F71197AE1BBF0BAA2391F0BB27D3
S1134E70CD0101979C0112F42F5F3F4F3595279583
S1134E8020934115AF014F5F5F4F64E182E495E1E8
S1134E9073D101E010E020E030E046E150E060E44E
S1134EA075E180913A1590913B150E94A0108EE017
S1134EB003C084E101C080E00F90DF91CF911F9186
S1134EC00F910895813019F06AE376E002C063E13E
S1134ED077E08EE396E043CE08959F938F938FE619
S1134EE096E09F938F9388E995E19F938F930E9417
S1134EF0AC3860E070E088E995E131DE0F900F9006
S1134F000F900F900F900F9008952F923F924F9211
S1134F105F926F927F928F929F92AF92BF92CF9245
S1134F20DF92EF92FF920F931F93CF93DF93CDB74E
S1134F30DEB7A0970FB6F894DEBF0FBECDBF6CE905
S1134F4076E088EA96E03CDD95DD8111A3C080E23D
S1134F50E2E2F2E0DE01119601900D928A95E1F70A
S1134F609E012F5F3F4F6901E12CF12C0F2EF4EBD2
S1134F70AF2EF6E0BF2EF02D08E915E10F2EFDEC63
S1134F804F2EF6E05F2EF02D0F2EF4EE8F2EF6E06E
S1134F909F2EF02D0F2EFEEF6F2EF6E07F2EF02DBC
S1134FA03E2C2F2CFF92EF92BF92AF921F930F9340
S1134FB00E94AC3860E070E0C80102DD5BDD0F9058
S1134FC00F900F900F900F900F90811163C032E0FB
S1134FD03E15E8F4F60183818F9382818F9381815A
S1134FE08F9380818F93FF92EF925F924F921F93E2
S1134FF00F930E94AC3860E070E0C801E1DC3ADD58
S11350000FB6F894DEBF0FBECDBF811143C02F92FF
S11350103F929F928F921F930F930E94AC3860E04F
S113502070E0C801CDDC26DD0F900F900F900F903B
S11350300F900F9081112EC02F923F927F926F920A
S11350401F930F930E94AC3860E070E0C801B8DC95
S113505011DD0F900F900F900F900F900F90811112
S113506019C03FEFE31AF30A84E0C80ED11C98E09C
S1135070E916F10409F094CF60E070E086E197E06E
S11350809FDCF8DC811106C060E070E087E297E005
S113509097DCF0DCA0960FB6F894DEBF0FBECDBF50
S11350A0DF91CF911F910F91FF90EF90DF90CF9000
S11350B0BF90AF909F908F907F906F905F904F9034
S11350C03F902F900895EF92FF920F931F93CF93E9
S11350D0DF93EC018B017A0181E0F4DE81110DC0D4
S11350E0CE01D4DD811109C0C801E1DD811105C003
S11350F0C701BBDD811101C0EBDDDF91CF911F91B1
S11351000F91FF90EF90089590E0FC01EE0FFF1FC8
S11351108E0F9F1FFC01E051F84F81819281089509
S1135120DC01009729F1FB012081FC0101900020A2
S1135130E9F73197E81BF90B822F90E0E817F9079C
S1135140C8F080E008C0880F382F330F330F830F67
S11351508053890F2F5FFD01E20FF11D908130ED27
S1135160390F3A3010F49111EECFFB0120830895EA
S113517080E0089580E008950F931F93CF93DF9309
S1135180DC01EA012097E1F1FA0101900020E9F73E
S11351903197E41BF50B329710F532C08D01040FE3
S11351A0151F30E0AE01420F531FFA019081913474
S11351B028F09753592F5295507F03C0592F529579
S11351C0507F2C0F3D1FF9019181913410F09753BA
S11351D001C09053950FF80190838F5F01C080E068
S11351E0282F220F482F50E0FE0101900020E9F7FC
S11351F03197EC1BFD0B4E175F0710F48613CECFCF
S1135200DF91CF911F910F9108958091F515860F2D
S11352108093F5159091F815913079F028F092303B
S1135220A9F0933019F108956F3F09F048C0109226
S1135230F51581E08093F8150895663809F03FC0AC
S11352401092F41582E08093F8150895E091F41516
S113525081E08E0F8093F415F0E0EE50FA4E6083F7
S1135260823069F583E08093F81508959091F415E0
S113527021E0290F2093F415963009F581110EC011
S1135280E2EFF5E1808190E0982F88272181820F59
S1135290911D9093FA158093F91504C01092FA1594
S11352A01092F9151092F815E091F615F091F71592
S11352B0309729F08091F9159091FA151995089570
S11352C08F929F92AF92CF92EF920F930F2EF5E0B1
S11352D08F2EF9E29F2EF02D6894AA24A4F86894E6
S11352E0CC24C4F8E12C00E023E040E855E260E07F
S11352F070E073D09093FC158093FB150F91EF90A1
S1135300CF90AF909F908F9008959093F7158093CE
S1135310F6150895CF93DF93CDB7DEB729970FB66F
S1135320F894DEBF0FBECDBF89E0E2E4F2E09E0157
S11353302F5F3F4FD90101900D928A95E1F71092AA
S1135340FA151092F9158091FB159091FC150097B0
S113535031F0422F532F69E00ED180E001C082E08A
S113536029960FB6F894DEBF0FBECDBFDF91CF9163
S1135370089565360CF064E66C390CF46CE996EF2C
S11353806902B00111246854744F811105C07093EF
S1135390290160932801089570932B0160932A01D9
S11353A00895EAE0F1E08081886180838FE39CE9DD
S11353B0909327018093260160E080E0DADF60E0CB
S11353C081E0D7DFE0E2F1E08081826A8083E1E27C
S11353D0F1E080818A61808308952F923F924F92F9
S11353E05F926F927F928F929F92AF92CF92EF9241
S11353F0FF920F931F93CF93DF93CDB7DEB7F82EB1
S11354002A013B0188E090E00E94BB358C018F2D7E
S113541090E0FC01EE0FFF1FE350FA4E118300836E
S11354200115110509F46AC0880F991FFC01E55F95
S1135430FD4F80819181D8018D939C938C2D90E0B8
S1135440880F991F880F991F0E94BB351C0186E0A5
S113545090E00E94BB357C014C2DB101BED6F80111
S1135460F582E4828A2D90E0880F991F880F991F96
S11354700E94BB351C0186E090E00E94BB357C0194
S11354804A2DB101AAD6D8011396FC92EE92129736
S113549017969C928E921697FFB6F894ED91FC9114
S11354A0119736978081826080838D909C90C30190
S11354B0B2010E94033520E030E040E051E4A9D875
S11354C09B01AC0160E074E284E79BE40E949234A7
S11354D020E030E040E85FE3FFD813D8F4013297CE
S11354E06083D801ED91FC911197359788E9808309
S11354F0ED91FC91349786E08083FFBEC801DF9173
S1135500CF911F910F91FF90EF90CF90AF909F900C
S11355108F907F906F905F904F903F902F90089561
S1135520CF93DF93DC01892B01F11296ED91FC916D
S11355301397938182812581981B922384819817E4
S1135540B1F0838126952823C081D181C20FD11D5A
S113555068838F5F958189238383ED91FC913597CF
S113556080818062808380E003C081E001C082E0AA
S1135570DF91CF910895EF92FF920F931F93CF93F2
S1135580DF937C01009709F441C0DC011296ED9190
S1135590FC91139793818281981B85819823848140
S11355A0891B8617A8F1662341F1842F952FDC010E
S11355B06150462F50E04F5F5F4F480F591FE7017E
S11355C0EA81FB81938182812581981B92238481C6
S11355D0981779F08C9193812695292360817181A4
S11355E08B01020F111DE80188839F5F8581982339
S11355F093831196A417B50711F7D701ED91FC9188
S1135600359780818062808380E003C081E001C09F
S113561082E0DF91CF911F910F91FF90EF90089559
S11356200097D1F0DC011496ED91FC9115979381CC
S11356308281981799F09281858186958923A0812A
S1135640B181A80FB11D8C91DB018C939F5F858183
S11356509823928380E0089581E0089583E008957B
S11356601F920F920FB60F9211240BB60F922F9325
S11356703F934F935F936F937F938F939F93AF93D6
S1135680BF93CF93DF93EF93FF93A091FD15B09158
S1135690FE15109711F16091C6001496ED91FC91DE
S11356A01597938182812581981B92238481981771
S11356B061F0838126952823C081D181C20FD11D39
S11356C068838F5F9581892383831696ED91FC917E
S11356D01797309711F0CD011995FF91EF91DF9154
S11356E0CF91BF91AF919F918F917F916F915F9176
S11356F04F913F912F910F900BBE0F900FBE0F90C3
S11357001F9018951F920F920FB60F9211240BB68B
S11357100F922F938F939F93AF93BF93EF93FF9326
S1135720E091FD15F091FE153097B9F00280F381F8
S1135730E02D938182819817B1F092818581282F81
S113574026952923A081B181A20FB11D2C919F5FC1
S1135750892382832093C6000BC0E1ECF0E08081B2
S11357608F7D808305C0E1ECF0E080818F7D8083B4
S1135770FF91EF91BF91AF919F918F912F910F90D6
S11357800BBE0F900FBE0F901F9018951F920F9293
S11357900FB60F9211240BB60F922F933F934F9392
S11357A05F936F937F938F939F93AF93BF93CF93A5
S11357B0DF93EF93FF93A091FF15B091001610971C
S11357C011F16091CE001496ED91FC91159793819F
S11357D082812581981B92238481981761F08381AB
S11357E026952823C081D181C20FD11D68838F5F84
S11357F09581892383831696ED91FC9117973097B1
S113580011F0CD011995FF91EF91DF91CF91BF91E7
S1135810AF919F918F917F916F915F914F913F9144
S11358202F910F900BBE0F900FBE0F901F901895E5
S11358301F920F920FB60F9211240BB60F922F9353
S11358408F939F93AF93BF93EF93FF93E091FF15D3
S1135850F09100163097B9F00280F381E02D938126
S113586082819817B1F092818581282F269529236A
S1135870A081B181A20FB11D2C919F5F89238283E6
S11358802093CE000BC0E9ECF0E080818F7D808313
S113589005C0E9ECF0E080818F7D8083FF91EF917A
S11358A0BF91AF919F918F912F910F900BBE0F904D
S11358B00FBE0F901F9018951F920F920FB60F9264
S11358C011240BB60F922F933F934F935F936F93D3
S11358D07F938F939F93AF93BF93CF93DF93EF9374
S11358E0FF93A0910116B0910216109711F16091E7
S11358F0D6001496ED91FC911597938182812581B0
S1135900981B92238481981761F08381269528231C
S1135910C081D181C20FD11D68838F5F9581892396
S113592083831696ED91FC911797309711F0CD0172
S11359301995FF91EF91DF91CF91BF91AF919F9115
S11359408F917F916F915F914F913F912F910F9024
S11359500BBE0F900FBE0F901F9018951F920F92C1
S11359600FB60F9211240BB60F922F938F939F9320
S1135970AF93BF93EF93FF93E0910116F09102165A
S11359803097B9F00280F381E02D938182819817DA
S1135990B1F092818581282F26952923A081B18198
S11359A0A20FB11D2C919F5F892382832093D6007F
S11359B00BC0E1EDF0E080818F7D808305C0E1EDD7
S11359C0F0E080818F7D8083FF91EF91BF91AF9153
S11359D09F918F912F910F900BBE0F900FBE0F9040
S11359E01F9018951F920F920FB60F9211240BB6A9
S11359F00F922F933F934F935F936F937F938F9364
S1135A009F93AF93BF93CF93DF93EF93FF93A091B3
S1135A100316B0910416109711F160913601149693
S1135A20ED91FC911597938182812581981B922396
S1135A308481981761F0838126952823C081D181C0
S1135A40C20FD11D68838F5F958189238383169646
S1135A50ED91FC911797309711F0CD011995FF91B5
S1135A60EF91DF91CF91BF91AF919F918F917F91F2
S1135A706F915F914F913F912F910F900BBE0F90BB
S1135A800FBE0F901F9018951F920F920FB60F9292
S1135A9011240BB60F922F938F939F93AF93BF93C1
S1135AA0EF93FF93E0910316F09104163097B9F049
S1135AB00280F381E02D938182819817B1F0928165
S1135AC08581282F26952923A081B181A20FB11D9C
S1135AD02C919F5F89238283209336010BC0E1E3DD
S1135AE0F1E080818F7D808305C0E1E3F1E0808176
S1135AF08F7D8083FF91EF91BF91AF919F918F91A3
S1135B002F910F900BBE0F900FBE0F901F90189502
S1135B10CF93DF931F92CDB7DEB7BE016F5F7F4F88
S1135B2080910516909106167BDD8111F6CF89814F
S1135B3090E00F90DF91CF910895682F8091051622
S1135B4090910616EDDC80E090E008958F929F928C
S1135B50AF92CF92EF920F93812C912C6894AA2448
S1135B60A7F86894CC24C7F8E12C00E023E040E0D7
S1135B7051EE60E070E031DC9093061680930516D8
S1135B80E1E4F6E183E192E091838083938382836D
S1135B900F91EF90CF90AF909F908F900895E091E8
S1135BA00F16F0911016309709F019950895645066
S1135BB0623008F03BC020910E16223079F018F4C0
S1135BC0213031F030C0233081F02430A1F02BC0DB
S1135BD022E020930E1661E010C20895FA0180813C
S1135BE080930B1682E0DBCF089524E020930E16F9
S1135BF064E003C20895FA01818190E0982F882718
S1135C002081822B90930A1680930916838190E059
S1135C10982F88272281822B909308168093071649
S1135C2081E0BDCF089580E0BACF089510920E169A
S1135C3086E0B5CF089520911116309112162115E2
S1135C40310541F0462FBC01C9018BD1823021F0CE
S1135C5080E0089587E0089585E008950F931F93E9
S1135C609093101680930F1607ED1DE220E034E2A6
S1135C7044EF50E060E089E223D1909312168093C0
S1135C801116892B11F080E001C088E01F910F915B
S1135C900895CF93DF931F921F92CDB7DEB780EAAA
S1135CA0898383E08A8310920E1662E0CE01019606
S1135CB0C2DF0F900F90DF91CF910895CF93DF93C0
S1135CC01F92CDB7DEB784EB898383E080930E16F1
S1135CD061E0CE010196AFDF0F90DF91CF9108957F
S1135CE02F923F924F925F926F927F928F929F92E8
