:1000000067C1000086C1000084C1000082C10000F9
:1000100080C100007EC100007CC100007AC10000E8
:1000200078C1000076C1000074C1000072C10000F8
:100030000C946F0B6EC100006CC100006AC100001F
:1000400068C1000066C1000064C1000062C1000018
:1000500060C100005EC100005CC100005AC1000028
:1000600058C100000C94CF280C94212952C10000E3
:1000700050C100004EC100004CC100004AC1000048
:1000800048C1000046C1000044C1000042C1000058
:100090000C9465290C94B7293CC100000C94CB2D1D
:1000A00038C1000036C1000034C1000032C1000078
:1000B00030C100002EC100002CC100002AC1000088
:1000C00028C1000026C1000024C100000C94FB29B7
:1000D0000C944D2A1EC100000C94912A0C94E32A22
:1000E00018C100006C206C206C20A320AB20C02025
:1000F0006C206C20A320AB20ED2D5D2E5D2E5D2E9F
:100100005D2E5D2E5D2E5D2EED2D5D2E5D2E5D2E08
:100110005D2E5D2E5D2E5D2EEF2D5D2E5D2E5D2EF6
:100120005D2E5D2E5D2E5D2E5D2E5D2E5D2E5D2E77
:100130005D2E5D2E5D2E5D2EEF2D5D2E5D2E5D2ED6
:100140005D2E5D2E5D2E5D2E5D2E5D2E5D2E5D2E57
:100150005D2E5D2E5D2E5D2E592E5D2E5D2E5D2E4B
:100160005D2E5D2E5D2E5D2E242E5D2E5D2E5D2E70
:100170005D2E5D2E5D2E5D2E5D2E5D2E5D2E5D2E27
:100180005D2E5D2E5D2E5D2E182E5D2E5D2E5D2E5C
:100190005D2E5D2E5D2E5D2E3C2E6E616E00696EB5
:1001A000660000407A10F35A00A0724E1809001041
:1001B000A5D4E80000E87648170000E40B540200DC
:1001C00000CA9A3B000000E1F50500008096980007
:1001D000000040420F000000A08601000000102730
:1001E00000000000E80300000000640000000000C0
:1001F0000A00000000000100000000002C76D888F2
:10020000DC674F0823DFC1DFAE59E1B1B796E5E304
:10021000E453C63AE651997696E8E6C28426EB891D
:100220008C9B62ED407C6FFCEFBC9C9F40F2BAA5BA
:100230006FA5F490055A2AF75C936B6CF9676DC152
:100240001BFCE0E40D47FEF520E6B500D0ED902E56
:100250000300943577050080841E080000204E0AB4
:10026000000000C80C333333330F986E12831141F2
:10027000EF8D2114893BE65516CFFEE6DB18D184BD
:100280004B381BF77C1D901DA4BBE42420328472E4
:100290005E228100C9F124ECA1E53D270E94C31232
:1002A0008091D313823010F00E94A90A0E94E920A5
:1002B000F5CFCF93DF931F92CDB7DEB7CE01019676
:1002C0000E94E91D49810E94DE1F0E943520F6CF61
:1002D00011241FBECFEFD1E2DEBFCDBF00E00CBFC7
:1002E00017E0A0E0B2E0EEECFDE600E00BBF02C0DC
:1002F00007900D92A839B107D9F725E1A8E9B7E031
:1003000001C01D92AC38B207E1F70E9493210C9412
:10031000E53676CE90936315809362150895CF935A
:10032000DF9300D01F92CDB7DEB78C010E9414146A
:1003300069837A838B839C8340EE53E060E070E0B6
:10034000CE0101960E942A160E94282780936115EB
:100350008111F2CF8091621590916315F80191831C
:100360008083809162159091631587D240916415C6
:1003700050916515609166157091671580916815AB
:100380009091691531D6D8CFEF92FF920F939B01D0
:10039000E12CF12C082F44E251E06FE672E08FE887
:1003A00091E00E948A130F91FF90EF900895AF9211
:1003B000BF92CF92DF92EF92FF920F931F93CF9352
:1003C000DF938C015B0169017A0182E090E00E9479
:1003D0009F33EC01892B11F119821882B0926915B3
:1003E000A0926815C0926415D0926515E0926615CA
:1003F000F092671583E00E94FE2687E792E09F93C4
:100400008F9355D18AE891E00E942327BE01C8014D
:10041000BBDF0F900F908C2F9D2F02C080E090E0EB
:10042000DF91CF911F910F91FF90EF90DF90CF90D0
:10043000BF90AF900895EF92FF920F939B01E12C34
:10044000F12C082F48E851E06EE872E080E792E076
:100450000E948A130F91FF90EF9008950F931F93BE
:10046000CF93DF930FEF1FEF980146E150E068E96B
:1004700077E00E94F110C8E9D7E0998188811F9246
:100480009F931F928F9388EA92E09F938F930FD14F
:1004900089810F900F900F900F900F900F908130E7
:1004A000D1F480919A07813059F46CE90E94572762
:1004B00089ED92E09F938F93FAD00F900F900BC02D
:1004C00064E681E00E94572787EE92E09F938F9326
:1004D000EED00F900F90DF91CF911F910F91089563
:1004E000EC01CE01BBDFFDCF0F931F93CF93DF93C2
:1004F00000D01F92CDB7DEB7813099F58B01CE01C8
:1005000001960E940F2C811123C069817A818B8111
:100510009C810E949B217093AF076093AE07CB0133
:1005200007D24091641550916515609166157091E0
:100530006715809168159091691556D569817A8102
:100540008B819C810E949B21F8017183608309C08B
:10055000833039F485EF92E09F938F93A8D00F906A
:100560000F900F900F900F900F90DF91CF911F91F0
:100570000F910895EF92FF920F93CF93DF93082F7F
:10058000EB0140916415509165156091661570916D
:100590006715809168159091691526D5E12CF12C8D
:1005A0009E0148E851E066E273E081E393E00E9437
:1005B0008A13DF91CF910F91FF90EF9008958F9262
:1005C0009F92AF92BF92EF92FF921F93CF93DF93D0
:1005D000182F7B0149015A0162E070E081E090E050
:1005E0000E948533EC01892B19F1198218828092BF
:1005F000641590926515A0926615B0926715F092F9
:100600006915E092681584E792E00E94CD2B811174
:1006100007C081E393E09F938F9349D00F900F9091
:100620000E94E82BBE01812FA5DF8C2F9D2F02C0D9
:1006300080E090E0DF91CF911F91FF90EF90BF900D
:10064000AF909F908F900895CF93DF93EC010E941D
:10065000FD2B811103C0BE0181E046DFDF91CF9108
:100660000895CF93DF9300D01F92CDB7DEB78C01F2
:100670000E94141469837A838B839C8342EA53E03B
:1006800060E070E0CE0101960E942A16C801DCDF0E
:10069000F5CF80916A1590916B15892B39F481E023
:1006A0000E94650D90936B1580936A1508950F93C2
:1006B000CF93DF93CDB7DEB74CE251E060E070E05E
:1006C00080916A1590916B150E943B0E8130B9F4B0
:1006D000BE01675F7F4F8F8198850E9480368AE0D8
:1006E00090E00E944D3600E020E030E0A90160E09B
:1006F00070E080916A1590916B150E94C10CDF919A
:10070000CF910F91089580916C1590916D15892B63
:1007100039F481E00E94650D90936D1580936C15FE
:100720000895CF92DF92EF92FF920F93CF93DF93D2
:100730006B017C01EA014CE251E060E070E08091E5
:100740006C1590916D150E943B0E8130C9F4C092DA
:10075000B607D092B707E092B807F092B907D093E6
:10076000B507C093B40700E020E030E0A90160E0E5
:1007700070E080916C1590916D150E94C10C07C0BE
:100780008AE493E09F938F9392DF0F900F90DF9115
:10079000CF910F91FF90EF90DF90CF9008950F933E
:1007A000CF93DF934CE251E060E070E080916C15F4
:1007B00090916D150E943B0E813099F4D091B40751
:1007C000C091B50700E020E030E0A90160E070E0F2
:1007D00080916C1590916D150E94C10C8D2F9C2FEE
:1007E00009C08AE493E09F938F9361DF0F900F908D
:1007F00080E090E0DF91CF910F910895FF920F93E9
:100800001F93CF93DF934CE251E060E070E0809162
:100810006C1590916D150E943B0E8130C9F4F090DB
:10082000B6071091B707D091B807C091B90700E09B
:1008300020E030E0A90160E070E080916C159091BB
:100840006D150E94C10C5F2D412F3D2F2C2F0BC029
:100850008AE493E09F938F932ADF0F900F9050E0EC
:1008600040E030E020E0652F742F832F922FDF913E
:10087000CF911F910F91FF9008950F93CF93DF9326
:10088000EC014CE251E060E070E080916C159091D9
:100890006D150E943B0E813089F4D093B307C0934D
:1008A000B20700E020E030E0A90160E070E0809154
:1008B0006C1590916D150E94C10C07C08AE493E0FD
:1008C0009F938F93F4DE0F900F90DF91CF910F9154
:1008D00008950F93CF93DF934CE251E060E070E016
:1008E00080916C1590916D150E943B0E813099F4AA
:1008F000D091B207C091B30700E020E030E0A90139
:1009000060E070E080916C1590916D150E94C10CB3
:100910008D2F9C2F09C08AE493E09F938F93C7DEAD
:100920000F900F9080E090E0DF91CF910F910895AC
:100930000F93CF93DF93EC014CE251E060E070E065
:1009400080916C1590916D150E943B0E813089F459
:10095000D093B107C093B00700E020E030E0A901D8
:1009600060E070E080916C1590916D150E94C10C53
:1009700007C08AE493E09F938F9399DE0F900F90C6
:10098000DF91CF910F9108950F93CF93DF934CE2B6
:1009900051E060E070E080916C1590916D150E94BF
:1009A0003B0E813091F4D091B007C091B10700E0C7
:1009B00020E030E0A90160E070E080916C1590913A
:1009C0006D15DFD78D2F9C2F09C08AE493E09F938C
:1009D0008F936DDE0F900F9080E090E0DF91CF91CC
:1009E0000F910895EF92FF920F93E12CF12C062FB7
:1009F0009C0140EC50E06BE673E088E795E00E94D4
:100A00008A130F91FF90EF900895AF92BF92CF920B
:100A1000DF92EF92FF920F931F93CF93DF938C019E
:100A20005B0169017A0186E090E00E949F33EC014E
:100A3000892B19F1188219821A821B821D821C824D
:100A4000B0926915A0926815C0926415D092651590
:100A5000E0926615F09267150E940123811107C08C
:100A60008CE793E09F938F9322DE0F900F90B80155
:100A7000CE01B8DF8C2F9D2F02C080E090E0DF9187
:100A8000CF911F910F91FF90EF90DF90CF90BF908B
:100A9000AF900895CF93DF93EC010E945E236883AB
:100AA00079838A839B830E9454239C01ADECBCEC28
:100AB0000E947633AC0156954795569547955695C5
:100AC00047955D834C83688179818A819B8129DE8A
:100AD0004091641550916515609166157091671588
:100AE00080916815909169157FD2DF91CF9108951B
:100AF000CF93DF9300D01F92CDB7DEB78C010E9459
:100B0000141469837A838B839C8342EA53E060E008
:100B100070E0CE0101960E942A160E9419238823B4
:100B200039F089EA93E09F938F93C1DD0F900F9086
:100B300064E070E080E090E00E948F160E942E2317
:100B400060E070E0CB010E948F16C801A3DFDDCF0B
:100B50000F931F93CF93DF93CDB7DEB764970FB694
:100B6000F894DEBF0FBECDBF0E94E5240E949825F9
:100B7000CE0101960E94F724CE0101960E94132512
:100B8000AE014F5F5F4F63EC73E084EE93E00E9431
:100B900076260E94462581E00E94752584EF91E02B
:100BA0000E9480251AE080E00E944C25082F0E94B8
:100BB00097269F938F931F921F9385EF93E09F93A8
:100BC0008F9375DD0F900F900F900F900F900F90F7
:100BD000083041F066E371E080E090E00E948F16FB
:100BE000115009F7083041F485E194E09F938F9309
:100BF0005EDD0F900F9002C0ACD4FECF64960FB6AE
:100C0000F894DEBF0FBECDBFDF91CF911F910F9142
:100C10000895CF93DF9300D01F92CDB7DEB761E781
:100C200072E080E090E00E948F1681E00E94D7245D
:100C300062E070E080E090E00E948F1680E00E9409
:100C4000D72466E970E080E090E00E948F160E9451
:100C500090247EDF0E9414144091781550917915EC
:100C600060917A1570917B1580916E1590916F153A
:100C7000A0917015B0917115482359236A237B23E5
:100C80008091721590917315A0917415B09175159E
:100C9000482359236A237B23CC24CA94DC2C760175
:100CA00001E021E08091761590917715FDD08B01C0
:100CB0009C01409178155091791560917A15709149
:100CC0007B1580916E1590916F15A0917015B09164
:100CD000711584239523A623B72340917215509153
:100CE0007315609174157091751584239523A6234F
:100CF000B723B901A801482359236A237B2384170A
:100D00009507A607B70709F0A7CF78DDD62EC72E1F
:100D1000B82EA92E44DD8C01DCDD7C0135DE982E59
:100D2000892E20E030E0A9016D2D7C2D8B2D9A2D90
:100D30000E949721882331F00115110519F0E11463
:100D4000F10499F4FF92EF921F930F93AF92BF9229
:100D5000CF92DF9284E494E09F938F93A8DC0FB648
:100D6000F894DEBF0FBECDBF77CF19821A821B82E7
:100D70001C82AE014F5F5F4F6D2D7C2D8B2D9A2D08
:100D80000E941422AF92BF92CF92DF928DE694E040
:100D90009F938F938CDC1F930F938DE794E09F9329
:100DA0008F9385DCFF92EF928AE894E09F938F9374
:100DB0007EDC8F929F9282E994E09F938F9377DC01
:100DC0000FB6F894DEBF0FBECDBF46CFAF92BF9235
:100DD000CF92DF92EF92FF920F931F93709377154C
:100DE00060937615209378153093791540937A1592
:100DF00050937B15E0926E15F0926F15009370156D
:100E000010937115A0927215B0927315C09274155B
:100E1000D0927515E12CF12C082F20E030E048E845
:100E200051E063EA74E089E096E00E948A131F9122
:100E30000F91FF90EF90DF90CF90BF90AF9008950B
:100E40000F9301110CC0DC01CB0182239323A42357
:100E5000B523892B8A2B8B2B79F480E010C0DC0121
:100E6000CB0182239323A423B523281739074A07EC
:100E70005B0721F080E003C081E001C081E00F91B9
:100E80000895CF93DF938FE090E0AFD1EC0100970E
:100E900039F0FC011192119211921192CF018BD273
:100EA000CE01DF91CF9108952F923F924F925F92A2
:100EB0006F927F928F929F92AF92BF92CF92DF926A
:100EC000EF92FF920F931F93CF93DF93EC014A01B0
:100ED0005B01622E702E0E940E14288039804A8099
:100EE0005B80A5019401C201B101AADF8823A1F0B2
:100EF000662089F1D501C40180959095A095B095A3
:100F000082219321A421B52188839983AA83BB835D
:100F1000C12CD12C760122C0C114D104E104F1040A
:100F2000E9F0611004C040E050E0BA0104C040E0C4
:100F300050E060E071E071107460482959296A2915
:100F40007B2997018601CE0104960E942617212C49
:100F5000312C210103C0C12CD12C76010E944E15E9
:100F6000CD28CE28CF2859F1811101C0F2D20E949C
:100F7000D21A6B017C0191FD1FC00FB6F8940F923D
:100F8000C880D980EA80FB80072DA5019401C701A4
:100F9000B60156DF882371F0662061F0809490944A
:100FA000A094B0948C209D20AE20BF20888299828E
:100FB000AA82BB820F900FBE160127015524C201E1
:100FC000B101DF91CF911F910F91FF90EF90DF90D2
:100FD000CF90BF90AF909F908F907F906F905F90D9
:100FE0004F903F902F9008954F925F926F927F9213
:100FF000AF92BF92CF92DF92EF92FF920F931F9327
:10100000CF93DF93EC016A017B018C01095F1F4FD5
:101010000E940E14EB85FC8588819981AA81BB8191
:10102000C82AD92AEA2AFB2AC882D982EA82FB8204
:10103000C12CD12C76013DC0A480B58080819181E6
:10104000A281B381AC01BD017727B2FD0EC04880FB
:1010500059806A807B804422552266227722452867
:101060004628472889F420E012C0488059806A80C9
:101070007B80442255226622772244155505660559
:10108000770521F020E003C021E001C021E0222308
:1010900071F0B0FF04C0C42AD52AE62AF72A488195
:1010A00059816A817B817260CF010E946118EA2DAB
:1010B000FB2DE017F10709F0BFCFC094D094E09466
:1010C000F09488819981AA81BB81C822D922EA2221
:1010D000FB22C882D982EA82FB820E944E15688177
:1010E00079818A819B81DF91CF911F910F91FF9030
:1010F000EF90DF90CF90BF90AF907F906F905F9018
:101100004F900895E6ECF7E0AAECB7E0B183A08336
:1011100013821282EEE7F3E1F093C507E093C40770
:10112000138212821182108284EB9BE013969C93AF
:101130008E931297ED93FC939093C1078093C00711
:101140009093C3078093C20780E090E89093BB0719
:101150008093BA070895CF93DF93EC01A6ECB7E034
:1011600001C0DF01ED91FC911197EC17FD07C8F369
:1011700012968D919C9113979D01280F391FC217CC
:10118000D30749F42A813B81820F931F13969C93C6
:101190008E931297ED018A819B819E01280F391F42
:1011A000E217F307C1F42091C4073091C507E21795
:1011B000F30771F022813381820F931F9B838A830F
:1011C000ED91FC911197808191819983888305C06D
:1011D0003983288302C0F983E883CA17DB0711F03B
:1011E000CD93DC93DF91CF910895EF92FF920F930F
:1011F0001F93CF93DF938C010E940E148091C4073C
:101200009091C507892B09F47DDF8091BA079091F1
:10121000BB0780239123892B09F076C001151105A6
:1012200049F0C80104960817190718F000E010E00B
:1012300001C08C010115110509F469C08091C20734
:101240009091C3078017910708F464C0C091C60746
:10125000D091C707E6ECF7E002C0FE01EC018A81FD
:101260009B818017910720F4888199810097A9F7C5
:101270008091C4079091C507C817D90709F44DC0DC
:10128000E080F18084E0E80EF11C888199819183EF
:1012900080832A813B81201B310B2930310548F0A6
:1012A000CE01800F911FFC01338322831B830A83AD
:1012B00052DF2A813B818091C2079091C307821B34
:1012C000930B9093C3078093C2074091C00750913E
:1012D000C1078417950720F49093C1078093C00736
:1012E0008091BA079091BB07282B392B3B832A8327
:1012F000198218828091BE079091BF070196909342
:10130000BF078093BE070BC0E12CF12C08C0E12C75
:10131000F12C05C0E12CF12C02C0E12CF12C0E9433
:101320004E15E114F10411F40E94F520C701DF917C
:10133000CF911F910F91FF90EF9008950F931F93FE
:10134000CF93DF93009791F1EC0124974A815B8161
:101350002091BA073091BB07BA0162237323672B30
:1013600029F168817981672B09F52095309524232F
:1013700035233B832A830E940E148A819B8120910E
:10138000C2073091C307820F931F9093C3078093C6
:10139000C207CE01E0DE8091BC079091BD070196A7
:1013A0009093BD078093BC070E944E15DF91CF91AB
:1013B0001F910F910895FC010396928381834FEF53
:1013C0005FEFBA0143835483658376839087878375
:1013D0009287818710820895FC01138612860895F2
:1013E0000F931F93CF93DF93EB01088119812A811B
:1013F0003B810F3F4FEF14072407340721F4FC0112
:10140000A185B28511C0DC01139601C0DF011496DD
:10141000ED91FC9115974081518162817381041790
:1014200015072607370790F71496ED91FC9115974D
:10143000FD83EC83D783C683BF83AE831596DC938D
:10144000CE9314979B878A87FC0120812F5F20838E
:10145000DF91CF911F910F910895CF93DF93FC01FE
:10146000A285B385C481D581868197819F838E8330
:10147000C681D781848195819D838C8311968D91BE
:101480009C911297E817F90731F48681978112969B
:101490009C938E931197138612868C9181508C9316
:1014A0008C91DF91CF910895A89590EC88E10FB6CB
:1014B000F894A895809360000FBE90936000089503
:1014C000FC016083319770833197108231971082CD
:1014D000319720E82083319710823197108231971D
:1014E0001082779740833197508386970895DCDF89
:1014F000A0914114B0914214CD91CDBFDD91DEBFDA
:10150000FF91EF91DF91CF91BF91AF919F918F911B
:101510007F916F915F914F913F912F911F910F910B
:10152000FF90EF90DF90CF90BF90AF909F908F9003
:101530007F906F905F904F903F902F901F900F90F3
:101540000CBE0F900BBE0F900FBE0F90089581E060
:1015500008950F920FB6F8940F920BB60F920CB637
:101560000F921F9211242F923F924F925F926F928F
:101570007F928F929F92AF92BF92CF92DF92EF9223
:10158000FF920F931F932F933F934F935F936F930C
:101590007F938F939F93AF93BF93CF93DF93EF93FB
:1015A000FF93A0914114B09142140DB60D920EB666
:1015B0000D920E94AA16A0914114B0914214CD91AF
:1015C000CDBFDD91DEBFFF91EF91DF91CF91BF9154
:1015D000AF919F918F917F916F915F914F913F91CB
:1015E0002F911F910F91FF90EF90DF90CF90BF90C0
:1015F000AF909F908F907F906F905F904F903F90B3
:101600002F901F900F900CBE0F900BBE0F900FBE2F
:101610000F9008950F920FB6F8940F920BB60F9299
:101620000CB60F921F9211242F923F924F925F920D
:101630006F927F928F929F92AF92BF92CF92DF92E2
:10164000EF92FF920F931F932F933F934F935F93CC
:101650006F937F938F939F93AF93BF93CF93DF93BA
:10166000EF93FF93A0914114B09142140DB60D92E7
:101670000EB60D9213BE0E94221481110E94AA166A
:10168000A0914114B0914214CD91CDBFDD91DEBF48
:10169000FF91EF91DF91CF91BF91AF919F918F918A
:1016A0007F916F915F914F913F912F911F910F917A
:1016B000FF90EF90DF90CF90BF90AF909F908F9072
:1016C0007F906F905F904F903F902F901F900F9062
:1016D0000CBE0F900BBE0F900FBE0F9008959ADFB7
:1016E0001895DC0153962C915397222341F05A967A
:1016F000ED91FC915B9790818AE0891B089580E0D1
:1017000008950FB6F8940F92FC01868D811102C0E6
:1017100081E001C080E00F900FBE08950FB6F894ED
:101720000F92FC01268D878D281302C081E001C035
:1017300080E00F900FBE08950F931F93CF93DF9318
:10174000EC01042F1E8D48A141110CC088819981A4
:10175000892B09F042C08C819D810E94101A1D8244
:101760001C8242C0011117C050E08A819B810E94F7
:10177000A73528A18A819B81820F911D9B838A8333
:101780002C813D818217930750F1888199819B8339
:101790008A8380E029C050E08E819F810E94A73516
:1017A00088A190E09195819591092E813F81280F24
:1017B000391F3F832E83488159812417350730F420
:1017C0002C813D81820F931F9F838E83023049F4C9
:1017D000112349F0115080E007C080E005C080E08F
:1017E00003C080E001C080E01F5F1E8FDF91CF91BA
:1017F0001F910F910895FC0140A14423A9F050E0EE
:1018000026813781240F351F378326838481958174
:101810002817390720F08081918197838683CB0137
:10182000668177810C94A73508951F93CF93DF933A
:10183000EC010FB6F8940F921AA10BC08B89882384
:1018400051F0CE0143960E94B21781110E94721985
:10185000115011169CF38FEF8AA30F900FBE0FB695
:10186000F8940F9219A10BC08885882351F0CE01FE
:1018700008960E94B21781110E9472191150111618
:101880009CF38FEF89A30F900FBEDF91CF911F9133
:101890000895CF93DF93EC010FB6F8940F92E8818F
:1018A000F9818F8D28A190E030E0829FA001839F75
:1018B000500D929F500D11244E0F5F1F5D834C837E
:1018C0001E8EFB83EA830197289FA001299F500D5C
:1018D000389F500D1124CF01840F951F9F838E8355
:1018E0008FEF89A38AA361110BC08885882371F0CB
:1018F000CE0108960E94B217882341F02ADE06C066
:10190000CE01089658DDCE01439655DD0F900FBEEF
:1019100081E0DF91CF9108950F931F93F80161113A
:1019200003C01183008302C051834083878F60A36B
:1019300061E0CF01AEDF1F910F910895DF92EF922A
:10194000FF920F931F93CF93DF93F82EE62ED42EA2
:10195000869FC0011124839648DCEC01009741F07A
:101960008C012D2DAC014D5D5F4F6E2D8F2DD4DF81
:10197000CE01DF91CF911F910F91FF90EF90DF90FB
:101980000895CF92DF92EF92FF920F931F93CF9320
:10199000DF93CDB7DEB729970FB6F894DEBF0FBE41
:1019A000CDBF7C016B012E833F834887598710E0B0
:1019B0000FB6F8940F92F701968D878D981710F057
:1019C0000230B1F4402FB601C701B6DEF7019389AA
:1019D000992341F0C70143960E94B217882321F052
:1019E000B8DD02C08111B5DD0F900FBE81E04CC0A3
:1019F0008E819F81A885B985892B8A2B8B2B21F419
:101A00000F900FBE80E040C0111105C0CE010196BD
:101A10000E94FB1811E00F900FBE00D70FB6F8948C
:101A20000F92F70181A18F3F09F411A2F70182A162
:101A30008F3F09F412A20F900FBEBE016A5F7F4F65
:101A4000CE0101960E940C19811119C0C70166DEF2
:101A5000882381F04E815F8168857985C70108966A
:101A60000E940F17C701E1DE0E944E158111A0CF21
:101A700070DD9ECFC701D9DE0E944E1599CFC701F8
:101A8000D4DE0E944E1580E029960FB6F894DEBF92
:101A90000FBECDBFDF91CF911F910F91FF90EF90BF
:101AA000DF90CF9008950F93009769F0FC011582A5
:101AB000148211821082168200E020E030E0A90139
:101AC00060E070E05EDF0F910895CF93DF93482FC1
:101AD00060E081E033DFEC01E6DFCE01DF91CF9102
:101AE0000895EF92FF920F931F93CF93DF938A0194
:101AF000FC01568D378D531710F02230F9F4422F28
:101B00007801EC011AA18E8DCE0116DE1F3F81F403
:101B10008B898823A9F0CE0143960E94B2178823AF
:101B200089F0E114F10481F081E0F70180830DC0B8
:101B3000FF24F394F10EFAA281E007C080E005C013
:101B400081E003C081E001C081E0DF91CF911F916E
:101B50000F91FF90EF900895CF92DF92EF92FF9256
:101B60000F931F93CF93DF93CDB7DEB729970FB6AF
:101B7000F894DEBF0FBECDBF8C016B012E833F8377
:101B800048875987E12C0FB6F8940F92F801F68C2C
:101B9000FF2099F0B601C8012EDEFA94F801F68E06
:101BA0008085882331F0C80108960E94B217811100
:101BB000D0DC0F900FBE81E04FC08E819F81A88541
:101BC000B985892B8A2B8B2B21F40F900FBE80E0D7
:101BD00043C0E11006C0CE0101960E94FB18EE241E
:101BE000E3940F900FBE1AD60FB6F8940F92F80137
:101BF00081A18F3F09F411A2F80182A18F3F09F45E
:101C000012A20F900FBEBE016A5F7F4FCE010196F8
:101C10000E940C19811117C0C80173DD882379F067
:101C20004E815F8168857985C80143960E940F17B0
:101C3000C801FBDD33D78111A6CF8BDCA4CFC8014F
:101C4000F4DD2CD7A0CFC801F0DD28D7C80159DDBD
:101C5000882309F498CF80E029960FB6F894DEBF68
:101C60000FBECDBFDF91CF911F910F91FF90EF90ED
:101C7000DF90CF900895EF92FF920F931F93CF9331
:101C8000DF93CDB7DEB729970FB6F894DEBF0FBE4E
:101C9000CDBF8C014E835F8368877987E12CF12C5F
:101CA0000FB6F8940F92F801868D8823C9F0815001
:101CB000868F80819181892B29F40E94FC1AF8017A
:101CC00095838483F8018085882331F0C8010896C4
:101CD0000E94B21781113DDC0F900FBE81E06FC0F2
:101CE0008E819F81A885B985892B8A2B8B2B21F426
:101CF0000F900FBE80E063C0F11006C0CE010196C8
:101D00000E94FB18FF24F3940F900FBE87D50FB6E7
:101D1000F8940F92F80181A18F3F09F411A2F80104
:101D200082A18F3F09F412A20F900FBEBE016A5F1D
:101D30007F4FCE0101960E940C19811126C0C80167
:101D4000E0DC8823F1F0F80180819181892B51F446
:101D50000FB6F8940F92848195810E948919E82E1C
:101D60000F900FBE4E815F8168857985C8014396CB
:101D70000E940F17C80159DD91D6811191CFE9DB7F
:101D80008FCFC80152DD8AD68BCFC8014EDD86D6F3
:101D9000C801B7DC882309F483CFEE2079F00FB6B1
:101DA000F8940F92C8019DDC682FF8018481958119
:101DB0000E946B1A0F900FBE80E001C080E0299650
:101DC0000FB6F894DEBF0FBECDBFDF91CF911F914C
:101DD0000F91FF90EF900895CF93DF93EC010FB632
:101DE000F8940F9289A18F3F09F419A28AA18F3F1D
:101DF00009F41AA20F900FBE8E8D811104C0CE017E
:101E000043960E947017CE0110DDDF91CF910895A7
:101E1000FC014481558122813381240F351F80814B
:101E20009181B901681B790BCB016417750710F01C
:101E3000841B950B08950F93FC018FE0DF011D9229
:101E40008A95E9F7758764875583448337832683AA
:101E500006870F910895AF92BF92CF92DF92EF92D3
:101E6000FF920F931F93CF93DF936C015B017A0175
:101E7000FC01C281D381048115810C1B1D0B40170D
:101E8000510708F48A01F60184859585A801B501FA
:101E90008C0F9D1F0E94A7350E151F0558F4A70132
:101EA000401B510BB501600F711FF60184859585AC
:101EB0000E94A735CE018E0D9F1DF601248135812C
:101EC0008217930710F0821B930BF6019383828392
:101ED000C701DF91CF911F910F91FF90EF90DF909D
:101EE000CF90BF90AF900895CF92DF92EF92FF9284
:101EF0000F931F93CF93DF931F921F92CDB7DEB73F
:101F00007C016B015A83498321153105C1F0FC0125
:101F1000868580FD08C04217530708F49A013A836A
:101F2000298381E00FC02017310758F042E050E0CC
:101F3000BE016F5F7F4FC7018EDF81E003C080E08D
:101F400001C080E0882331F049815A81B601C70180
:101F500082DF02C080E090E00F900F90DF91CF9180
:101F60001F910F91FF90EF90DF90CF900895AF9267
:101F7000BF92CF92DF92EF92FF920F931F93CF9376
:101F8000DF937C015B01E9014217530708F4EA0182
:101F9000209781F1F7010081118184819581801B57
:101FA000910B6E018C179D0708F46C01F701648595
:101FB0007585600F711FA601C5010E94A735CC165B
:101FC000DD0658F4AE014C195D09F701648575858D
:101FD000C5018C0D9D1D0E94A7350C0F1D1FF7011B
:101FE000848195810817190710F0081B190BF70158
:101FF00011830083CE01DF91CF911F910F91FF904C
:10200000EF90DF90CF90BF90AF9008956F927F9246
:102010008F929F92AF92BF92CF92DF92EF92FF92F8
:102020000F931F93CF93DF931F921F92CDB7DEB70D
:102030006C014B015A01790101151105B1F0FC0148
:1020400060807180A801BE016F5F7F4F90DF898142
:102050009A81E01AF10AA816B90630F4F6017182E5
:102060006082A12CB12C01C05C019701A501B401D3
:10207000C6017DDF0F900F90DF91CF911F910F91DF
:10208000FF90EF90DF90CF90BF90AF909F908F9098
:102090007F906F900895CF92DF92EF92FF920F930F
:1020A000CF93DF93EC016B01413011F401E001C0EB
:1020B00000E0C114D10419F4CC24C394D12CCE0176
:1020C0004096C817D90720F421968FD87C0102C00A
:1020D000E12CF12CE114F10439F09601AE01B701C5
:1020E000615F7F4FC701A7DEC701DF91CF910F91DD
:1020F000FF90EF90DF90CF9008950F930FB6F89474
:102100000F92FC0120853185232B71F422853385C4
:10211000232B61F42681378144815581648575853F
:10212000068589DE81E003C080E001C080E00F9079
:102130000FBE0F910895FC0124813581808191812A
:10214000820F931F42815381841B950B0197821745
:10215000930710F0821B930B0895AF92BF92CF921A
:10216000DF92EF92FF920F931F93CF93DF93EC01D7
:102170007B015A0169018E8580FF04C08A010E5FD0
:102180001F4F01C08A01CE01D6DF9C01A501B70116
:10219000CE01AADE5C01892BC1F0CE0139DE2E8191
:1021A0003F818217930788F088859985892B69F08C
:1021B00088859985E12CF12C00E020E030E0A90130
:1021C00060E00E94AD1C19861886C501DF91CF9191
:1021D0001F910F91FF90EF90DF90CF90BF90AF9045
:1021E00008954F925F926F927F928F929F92AF92DB
:1021F000BF92CF92DF92EF92FF920F931F93CF93F4
:10220000DF93EC012B013A01580169018E8580FFB3
:1022100005C06894882481F8912C02C0812C912CEF
:10222000A114B104C104D10441F10FB6F8940F9286
:10223000CE01EEDD7C018816990648F060E080E072
:1022400090E00E94CF1D0E947619998788870F9091
:102250000FBE8E149F04A0F0E12CF12C00E010E0E2
:10226000980140E050E0BA0180E00E940E1B198600
:102270001886CE01CDDD7C0103C0CE01C9DD7C0115
:102280008E149F04E8F484019701A301B201CE01EA
:10229000BDDE6C01892BB1F0C1D28A859B85892B6B
:1022A00069F08A859B85E12CF12C00E020E030E08C
:1022B000A90160E00E94B61B1B861A86EFD302C0FC
:1022C000C12CD12CC601DF91CF911F910F91FF90AE
:1022D000EF90DF90CF90BF90AF909F908F907F90C6
:1022E0006F905F904F900895E091BB13F091BC13F5
:1022F000808181110CC08FEF9FEFDC0180938513EB
:1023000090938613A0938713B09388130895E09158
:10231000BB13F091BC130780F085E02D8081918183
:10232000A281B3818093851390938613A093871322
:10233000B09388130895CF93DF93EC018B8D9C8D20
:102340000E949E09CE010E949E09DF91CF910895BF
:102350004F925F926F927F928F929F92AF92BF92B5
:10236000CF92DF92EF92FF920F93CF93DF932C01E6
:102370005B014A013901E60165EA70E08B8D9C8DB5
:102380000E94B0358B8D9C8D21E0821A9108880EB9
:10239000991EA114B10489F415C0822F90E0F501B3
:1023A000E80FF91F3081DE01A80FB91F5D963C933D
:1023B0008081882329F02F5F01C020E0203168F35D
:1023C0001CA601C01D8E0A3008F009E00A8F0DA777
:1023D0001EA6CE01029600D8CE010E960E94EC09F0
:1023E000DB87CA878AE090E0A0E0B0E0801B91091B
:1023F000A109B1098E879F87A88BB98BDF8BCE8B04
:1024000084E0FE01BF96DF011D928A95E9F71BAAC1
:10241000A301B201C40154D899838883E114F10463
:1024200019F0F701D183C083DF91CF910F91FF9015
:10243000EF90DF90CF90BF90AF909F908F907F9064
:102440006F905F904F900895CF93C0E009C02BE04C
:10245000C29FC00111248D529C4E0E94DB09CF5FA8
:10246000CA30A8F388EC93E10E94DB098DEB93E17D
:102470000E94DB098EEA93E10E94DB0983EA93E183
:102480000E94DB0987E993E10E94DB0988EC93E174
:102490009093BC138093BB138DEB93E19093BA138D
:1024A0008093B913CF910895CF93DF93EC010FB6CA
:1024B000F8940F92809196138F5F8093961380917A
:1024C000411490914214892B51F4D0934214C0933B
:1024D000411480919613813091F4B6DF10C0809141
:1024E000901381110CC0E0914114F0914214928D2F
:1024F0008A8D891720F0D0934214C09341148091A3
:1025000089138F5F80938913EA8D809191138E17C1
:1025100010F4E09391138BE08E9FF0011124ED52A3
:10252000FC4E0180F281E02DFF83EE83268137810E
:1025300039872887A681B7819E012E5F3F4F159668
:102540003C932E93149737832683EA8D8E9FF00158
:102550001124ED52FC4EFD87EC8780818F5F8083D4
:102560000F900FBE80919013882351F0E091411499
:10257000F0914214928D8A8D981710F40E94A90A46
:10258000DF91CF910895CF93DF931BC00FB6F894DE
:102590000F92E091AA13F091AB13C085D185CE01C3
:1025A00002960E942D0A8091961381508093961373
:1025B0008091A21381508093A2130F900FBECE0181
:1025C000BADE8091A2138111E1CFDF91CF910895FE
:1025D0008F929F92AF92BF92CF92DF92EF92FF9233
:1025E000CF93DF936B017C01C42F80909213909066
:1025F0009313A0909413B0909513809141149091EF
:10260000421402960E942D0A8FEFC816D806E806DB
:10261000F806B1F5CC23A1F1E7E9F3E1A181B2819C
:10262000C0914114D0914214BF83AE83C091411434
:10263000D091421416968D919C911797998788870F
:102640001696CD91DC911797809141149091421488
:1026500002969D838C83809141149091421402963E
:1026600017969C938E931697A0914114B0914214A3
:102670001D96FC93EE931C9780818F5F80833FC0F3
:10268000C80CD91CEA1CFB1CE0914114F0914214C7
:10269000C282D382E482F582C814D904EA04FB041E
:1026A00068F460914114709142148091B913909133
:1026B000BA136E5F7F4F0E94F00921C060914114F0
:1026C000709142148091BB139091BC136E5F7F4F49
:1026D0000E94F0098091851390918613A091871331
:1026E000B0918813C816D906EA06FB0640F4C092DA
:1026F0008513D0928613E0928713F0928813DF91AE
:10270000CF91FF90EF90DF90CF90BF90AF909F90D0
:102710008F9008952F923F924F925F926F927F9287
:102720008F929F92AF92BF92CF92DF92EF92FF92E1
:102730000F93CF93DF933C011B014A012901CA018A
:102740000E94F5086C01892B71F084E390E00E94EF
:10275000F508EC01892B19F0DC8ECB8E06C0C60182
:102760000E949E0902C0C0E0D0E0209761F0A12C39
:10277000B12C6E019201A401B101C301E9DDCE01CA
:1027800093DE81E001C08FEFDF91CF910F91FF9039
:10279000EF90DF90CF90BF90AF909F908F907F9001
:1027A0006F905F904F903F902F900895EF92FF921F
:1027B0000F930F2EF3E8EF2EF3E1FF2EF02D00E044
:1027C00020E030E040EC50E060EB74E08EE491E01B
:1027D000A1DF813011F40E94731E8130C9F4F89496
:1027E0008FEF9FEFDC018093851390938613A09366
:1027F0008713B093881381E0809390131092921303
:102800001092931310929413109295130E94770ACA
:10281000809106020F91FF90EF90089580918213AE
:102820008F5F8093821308950FB6F8940F92609192
:1028300092137091931380919413909195130F902C
:102840000FBE0895CF92DF92EF92FF92CF93DF9366
:1028500080918213811105C1C0909213D09093137F
:10286000E0909413F09095138FEFC81AD80AE80AF5
:10287000F80AC0929213D0929313E0929413F092BC
:102880009513C114D104E104F104B1F48091BB1398
:102890009091BC132091B9133091BA133093BC13AB
:1028A0002093BB139093BA138093B91380918A132A
:1028B0008F5F80938A1318DD809185139091861322
:1028C000A0918713B0918813C816D906EA06FB06B3
:1028D00020F480E0B2C081E001C080E0E091BB1351
:1028E000F091BC13908191110CC04FEF5FEFBA01D2
:1028F00040938513509386136093871370938813C6
:102900009CC0E091BB13F091BC130780F085E02DD3
:102910000084F185E02D4281538164817581C41664
:10292000D506E606F70648F44093851350938613C0
:10293000609387137093881380C0A485B585C68182
:10294000D781208531853F832E83C085D18526811F
:1029500037813D832C8311964D915C9112979F0195
:102960002E5F3F4F4217530731F440855185129631
:102970005C934E931197158614869C9191509C936D
:10298000A08DB18D109709F1C289D38944895589E9
:102990005F834E83C489D589428953895D834C8383
:1029A00011966D917C911297AF01425F5F4F641752
:1029B000750731F44489558912965C934E931197AB
:1029C000118E108E9C9191509C93A28D9091911399
:1029D0009A1710F4A09391139BE09A9FD0011124B1
:1029E000AD52BC4E11960D90BC91A02DB783A6831D
:1029F00016964D915C911797518740871696CD9109
:102A0000DC9117973D832C8317963C932E93169752
:102A1000A28D9A9FD0011124AD52BC4EB587A487D8
:102A20009C919F5F9C93228DE0914114F091421400
:102A3000928D291708F04FCF51CFE0914114F091BA
:102A40004214E28D9BE0E99FF0011124ED52FC4E0F
:102A50009081923008F081E090918B13911116C013
:102A600016C080918C1390918D13A0918E13B0910C
:102A70008F130196A11DB11D80938C1390938D131C
:102A8000A0938E13B0938F1380E001C081E0DF919B
:102A9000CF91FF90EF90DF90CF900895CF92DF928B
:102AA000EF92FF92CF93DF930FB6F8940F9280913D
:102AB0008213815080938213809182138111BEC052
:102AC00080919613811188C0BCC0E091B513F0913C
:102AD000B6130084F185E02DA08DB18DC289D38914
:102AE000848995899F838E83C489D58982899389B6
:102AF0009D838C8311962D913C911297CF010E9658
:102B00002817390731F48489958912969C938E93FE
:102B10001197118E108E8C9181508C93A485B58560
:102B2000C681D781808591859F838E83C085D1851D
:102B3000868197819D838C8311968D919C911297AC
:102B40009F012E5F3F4F8217930731F48085918557
:102B500012969C938E931197158614868C918150B2
:102B60008C93A28D809191138A1710F4A0939113E6
:102B70008BE08A9FD0011124AD52BC4E11960D906E
:102B8000BC91A02DB783A68316964D915C911797A3
:102B9000518740871696CD91DC9117973D832C8302
:102BA00017963C932E931697A28D8A9FD0011124DD
:102BB000AD52BC4EB587A4878C918F5F8C93928D5C
:102BC000A0914114B09142145A968C91981730F00C
:102BD00081E080938B1302C0E0E0F0E08091AE13BF
:102BE000811173CFEF2B09F07FDBC0908C13D09055
:102BF0008D13E0908E13F0908F13C114D104E10473
:102C0000F104A1F01FDE882319F081E080938B137B
:102C100081E0C81AD108E108F108A1F710928C13DD
:102C200010928D1310928E1310928F1380918B132C
:102C3000882331F00E94A90A81E003C080E001C02E
:102C400080E00F900FBEDF91CF91FF90EF90DF906B
:102C5000CF9008958F929F92AF92BF92CF92DF92C2
:102C6000EF92FF921F93CF93DF93EC016A017B01F8
:102C7000D5DD8090921390909313A0909413B09010
:102C8000951388819981AA81BB81AC01BD014C0D4E
:102C90005D1D6E1D7F1D88169906AA06BB0660F491
:102CA000481759076A077B0798F484169506A60605
:102CB000B70680F010E013C0481759076A077B0772
:102CC00058F084169506A606B70640F010E007C037
:102CD00010E005C011E003C011E001C011E048831D
:102CE00059836A837B83112341F0CB01BA016819B0
:102CF00079098A099B0940E06BDCD0DE811102C0B2
:102D00000E94A90A812FDF91CF911F91FF90EF9030
:102D1000DF90CF90BF90AF909F908F900895CF920B
:102D2000DF92EF92FF926B017C01672B682B692B7E
:102D300039F074DD40E0C701B6014ADCAFDE01C006
:102D400080E0811102C00E94A90AFF90EF90DF90FD
:102D5000CF90089580918213882321F081E08093A1
:102D60008B13089510928B13E0914114F09142144B
:102D700020813181E0914114F0914214838D948D32
:102D80008217930760F06091411470914214635E62
:102D90007F4F80914114909142140E9401218091B3
:102DA000911301C08150282F30E09BE0929FF001E9
:102DB000939FF00D1124ED52FC4E9081992391F3D5
:102DC0009BE0929FA001939F500D1124DF01018091
:102DD000F281E02D0480F581E02D1296FC93EE93B4
:102DE00011974A525C4EE417F50729F44481558146
:102DF000FD01528341839BE0929FF001939FF00D70
:102E00001124ED52FC4E0180F281E02D20853185A8
:102E10003093421420934114809391130895CF92DC
:102E2000DF92EF92FF926A017B01609141147091F1
:102E30004214625F7F4F0E94F00941E0C701B60172
:102E4000C7DBFF90EF90DF90CF9008950F931F9313
:102E5000CF93DF93FC01A0914114B09142147068AC
:102E60001E964D935D936D937C935197A181B28192
:102E7000C0914114D0914214BB8BAA8BC0914114D4
:102E8000D091421416968D919C9117979D8B8C8BA7
:102E90001696CD91DC911797809141149091421430
:102EA0000E969D838C8380914114909142140E96CE
:102EB00017969C938E931697A0914114B09142144B
:102EC0005996FC93EE93589780818F5F808341E001
:102ED000C901B8017DDBDF91CF911F910F9108955A
:102EE000CF93DF93FC01CB01BA01A181B281C091E4
:102EF0004114D0914214BB8BAA8BC0914114D09144
:102F0000421416964D915C9117975D8B4C8B1696DB
:102F1000CD91DC9117974091411450914214425F3A
:102F20005F4F5D834C834091411450914214425F46
:102F30005F4F17965C934E931697A0914114B091F2
:102F400042145996FC93EE93589730813F5F30833B
:102F5000222319F06FEF7FEFCB01422F39DBDF9196
:102F6000CF910895CF93DF93DC011796ED91FC91FB
:102F700018970084F185E02DA08DB18DC289D38989
:102F8000848995899F838E83C489D5898289938911
:102F90009D838C8311968D919C9112979F01225F46
:102FA0003F4F8217930731F48489958912969C9339
:102FB0008E931197118E108E8C9181508C938091ED
:102FC0008213811152C0A485B585C681D7818085C1
:102FD00091859F838E83C085D185868197819D83CE
:102FE0008C8311968D919C9112979F012E5F3F4F7C
:102FF0008217930731F48085918512969C938E9366
:103000001197158614868C9181508C93A28D809196
:1030100091138A1710F4A09391138BE08A9FD0012B
:103020001124AD52BC4E11960D90BC91A02DB783CA
:10303000A68316964D915C911797518740871696F7
:10304000CD91DC9117973D832C8317963C932E935B
:103050001697A28D8A9FD0011124AD52BC4EB58720
:10306000A4878C918F5F8C931CC04EEA53E1DA01E8
:103070001196CD91DC911297D38BC28B8E819F815B
:10308000958B848B8E819F81DC0115963C932E93CA
:1030900014973F832E83518F408FDA018C918F5F7D
:1030A0008C93928DE0914114F0914214828D891796
:1030B00020F481E080938B1301C080E0DF91CF91F9
:1030C0000895CF93DF93DC0170684D935D936D930A
:1030D0007C9313971896ED91FC9119971A964D9140
:1030E0005C911B9714968D919C91159716962D9136
:1030F0003C911797EC013F832E8316968D919C91FE
:10310000179714962D913C911597EC013D832C83D4
:10311000EA0189819A81A817B90731F416968D9131
:103120009C9117979A8389831B961C921E921A97DB
:10313000DA018C9181508C93A485B585C681D781A5
:10314000808591859F838E83C085D1858681978177
:103150009D838C8311968D919C9112979F012E5F78
:103160003F4F8217930731F48085918512969C9387
:103170008E931197158614868C9181508C93A28D15
:10318000809191138A1710F4A09391138BE08A9F7A
:10319000D0011124AD52BC4E11960D90BC91A02DC2
:1031A000B783A68316964D915C91179751874087F8
:1031B0001696CD91DC9117973D832C8317963C93FF
:1031C0002E931697A28D8A9FD0011124AD52BC4E2A
:1031D000B587A4878C918F5F8C93928DE091411479
:1031E000F0914214828D891718F481E080938B133B
:1031F000DF91CF91089520918A13FC0120834091A3
:10320000921350919313609194137091951341838D
:1032100052836383748308958F929F92AF92BF927B
:10322000CF92DF92EF92FF920F931F93CF93DF9392
:10323000FB010FB6F8940F92C0909213D0909313A5
:10324000E0909413F0909513DC0111960D911D916F
:103250002D913C91149746015701801A910AA20AB8
:10326000B30A40815181628173814F3FBFEF5B0799
:103270006B077B0739F1EC01B881A0918A13BA176B
:1032800059F0C016D106E206F30630F01082118222
:103290001282138281E017C084169506A606B7062F
:1032A00058F4481959096A097B094083518362839C
:1032B0007383A1DF80E007C0108211821282138223
:1032C00081E001C080E00F900FBEDF91CF911F9190
:1032D0000F91FF90EF90DF90CF90BF90AF909F90B5
:1032E0008F90089581E080938B130895809141140D
:1032F00090914214089580919013882331F0809129
:103300008213811104C082E0089581E0089580E075
:1033100008950F931F93CF93DF93FC01892B09F43A
:1033200077C0828DA0914114B09142145A969C911D
:10333000891708F063C046855785608971897723AE
:1033400094F0A0914114B09142145A969C914AE095
:1033500050E060E070E0491B51096109710946873E
:103360005787608B718B248535854BE0849FC00126
:1033700011248D529C4E28173907B9F5EF018F01A2
:103380000E5F1F4FC8010E942D0AE0914114F09179
:103390004214E28DEA8F809191138E1710F4E0931E
:1033A00091138BE08E9FF0011124ED52FC4E0180B1
:1033B000F281E02DFF83EE832681378139872887CC
:1033C000A681B78115961C930E93149717830683D5
:1033D000EA8D8E9FF0011124ED52FC4EFD87EC87A3
:1033E00080818F5F808381E016C0A0914114B091ED
:1033F00042145A968C91828F81E00DC095A5E09180
:103400004114F0914214828D981720F080E003C09F
:1034100080E001C081E0DF91CF911F910F9108956D
:103420000F931F93CF93DF93FC01892B09F449C0BD
:1034300086A5815086A7228D95A5291709F443C03A
:10344000811143C0EF018F010E5F1F4FC8010E9421
:103450002D0AEDA5EA8F8AE090E0A0E0B0E08E1B97
:103460009109A109B1098E879F87A88BB98B80919B
:1034700091138E1710F4E09391138BE08E9FF0015F
:103480001124ED52FC4E0180F281E02DFF83EE838A
:103490002681378139872887A681B78115961C93A5
:1034A0000E93149717830683EA8D8E9FF0011124E3
:1034B000ED52FC4EFD87EC8780818F5F808381E039
:1034C00005C080E003C080E001C080E0DF91CF91C3
:1034D0001F910F9108950F931F93CF93DF93FC01DA
:1034E000892B09F45AC085A5861708F4862F928D7A
:1034F000891709F452C026A5213009F04EC0828FE9
:103500004685578560897189772364F04AE050E0E9
:1035100060E070E0481B51096109710946875787CF
:10352000608B718B248535854BE0949FC0011124FD
:103530008D529C4E2817390781F5EF018F010E5FE0
:103540001F4FC8010E942D0AEA8D809191138E179A
:1035500010F4E09391138BE08E9FF0011124ED5253
:10356000FC4E0180F281E02DFF83EE8326813781BE
:1035700039872887A681B78115961C930E931497D7
:1035800017830683EA8D8E9FF0011124ED52FC4EC5
:10359000FD87EC8780818F5F8083DF91CF911F91C2
:1035A0000F910895CF92DF92EF92FF92E091411434
:1035B000F09142146685778580899189E091411464
:1035C000F0914214A0914114B09142145A962C915A
:1035D0000F2EFAE0CF2ED12CE12CF12CF02DC21AB7
:1035E000D108E108F108C686D786E08AF18AFF9003
:1035F000EF90DF90CF900895809141149091421404
:10360000892B39F0E0914114F091421486A58F5F27
:1036100086A7809141149091421408954F925F9231
:103620006F927F92AF92BF92CF92DF92EF92FF9212
:103630000F931F93CF93DF93280139010FB6F894AE
:103640000F92E0914114F0914214C82FD0E0EC0F9A
:10365000FD1F83A9823079F1E0914114F091421469
:10366000CE01880F991F880F991FE80FF91F87A5B2
:1036700090A9A1A9B2A9409550956095709548234D
:1036800059236A237B2347A750AB61AB72ABE09110
:103690004114F0914214EC0FFD1F81E083ABA114A3
:1036A000B104C104D10439F041E0C601B5010E9462
:1036B000E8120E94A90A0F900FBE0FB6F8940F925D
:1036C000E114F104A1F0E0914114F0914214CE0113
:1036D000880F991F880F991FE80FF91F87A590A9D8
:1036E000A1A9B2A9F70180839183A283B383E0915A
:1036F0004114F0914214EC0FFD1F83A98230E9F4CC
:10370000E0914114F0914214CE01880F991F880F67
:10371000991FE80FF91F87A590A9A1A9B2A9409404
:10372000509460947094482259226A227B2247A6C2
:1037300050AA61AA72AA81E001C080E020914114E0
:1037400030914214C20FD31F1BAA0F900FBEDF91FE
:10375000CF911F910F91FF90EF90DF90CF90BF908E
:10376000AF907F906F905F904F9008958F929F924F
:10377000AF92BF92EF92FF920F93CF93DF93DC0152
:103780000FB6F8940F92E114F10489F0E62FF0E0FF
:10379000EE0FFF1FEE0FFF1FE80FF91F87A490A881
:1037A000A1A8B2A8F70180829182A282B38270E0C0
:1037B000FD01E60FF71F83A992E093AB023001F100
:1037C00018F4013031F04DC0033079F10430D1F1FB
:1037D00048C0660F771F660F771FFD01E60FF71FC2
:1037E00087A490A8A1A8B2A8BA01A901482959297B
:1037F0006A297B2947A750AB61AB72AB01E034C0AB
:10380000660F771F660F771FFD01E60FF71F47A5AD
:1038100050A961A972A94F5F5F4F6F4F7F4F47A7B4
:1038200050AB61AB72AB01E01FC0660F771F660F34
:10383000771FFD01E60FF71F27A730AB41AB52AB57
:1038400001E012C0823079F0660F771F660F771F94
:10385000FD01E60FF71F27A730AB41AB52AB01E0EC
:1038600003C001E001C000E0813009F069C01C968E
:10387000ED91FC911D971696CD91DC9117971896B6
:103880008D919C9119979F838E831896CD91DC9191
:10389000199716968D919C9117979D838C838181A2
:1038A00092819D012E5F3F4F8217930731F4189646
:1038B0008D919C911997928381831D961C921E92E3
:1038C0001C978081815080835A96EC915A97809101
:1038D00091138E1710F4E09391138BE08E9FF001FB
:1038E0001124ED52FC4E0180F281E02D1796FC93DD
:1038F000EE9316974681578119965C934E931897CD
:10390000C681D7813D832C83378326835A96EC91D9
:103910005A978E9FF0011124ED52FC4E1D96FC9398
:10392000EE931C9780818F5F80835A969C91E091E3
:103930004114F0914214828D891710F40E94A90A53
:103940000F900FBE802FDF91CF910F91FF90EF90DE
:10395000BF90AF909F908F9008958F929F92AF925B
:10396000BF92CF92DF92EF92FF920F93CF93DF93AC
:10397000DC01E114F10489F0E62FF0E0EE0FFF1F07
:10398000EE0FFF1FE80FF91F87A490A8A1A8B2A807
:10399000F70180829182A282B38270E0FD01E60F7E
:1039A000F71F93A982E083AB023001F118F40130D4
:1039B00031F04DC0033079F10430D1F148C0660FC9
:1039C000771F660F771FFD01E60FF71F87A490A8EA
:1039D000A1A8B2A8BA01A901482959296A297B29B5
:1039E00047A750AB61AB72AB81E034C0660F771F65
:1039F000660F771FFD01E60FF71F47A550A961A9C4
:103A000072A94F5F5F4F6F4F7F4F47A750AB61ABBE
:103A100072AB81E01FC0660F771F660F771FFD0135
:103A2000E60FF71F27A730AB41AB52AB81E012C0C6
:103A3000923079F0660F771F660F771FFD01E60F52
:103A4000F71F27A730AB41AB52AB81E003C081E049
:103A500001C080E0913009F096C0909182139111DD
:103A60005FC01C96ED91FC911D971696CD91DC914F
:103A7000179718962D913C9119973F832E8318968E
:103A8000CD91DC91199716962D913C9117973D8316
:103A90002C83418152819D012E5F3F4F4217530776
:103AA00031F418964D915C911997528341831D967C
:103AB0001C921E921C979081915090835A96EC9183
:103AC0005A97909191139E1710F4E09391139BE0F5
:103AD0009E9FF0011124ED52FC4E0180F281E02DF9
:103AE0001796FC93EE9316974681578119965C932F
:103AF0004E931897C681D7813D832C8337832683C5
:103B00005A96EC915A979E9FF0011124ED52FC4E6B
:103B10001D96FC93EE931C9790819F5F908321C02C
:103B20006EEA73E1FB01C181D2815396DC93CE939F
:103B300052972E813F8155963C932E9354974E81F8
:103B40005F819D01225F3F4FFA01358324833F83CC
:103B50002E8359967C936E935897FB0190819F5FBB
:103B600090835A962C91E0914114F0914214928DD9
:103B7000921748F4C114D10419F091E0F601908332
:103B800091E090938B13DF91CF910F91FF90EF9085
:103B9000DF90CF90BF90AF909F908F900895009747
:103BA00021F480914114909142140FB6F8940F9231
:103BB00070E0FC01E60FF71F23A9223031F4FC016D
:103BC000E60FF71F13AA81E001C080E00F900FBE3F
:103BD0000895DC01E0914D14F0914E14808191E044
:103BE000811190E09C93911108C00780F085E02D31
:103BF0006081718182819381089560E070E0CB01E2
:103C00000895CF92DF92EF92FF920F931F93FC01E2
:103C100042835383648375839387828704171507D0
:103C200026073707C0F00C191D092E093F098685A4
:103C30009785A089B189081719072A073B0700F55E
:103C4000BF016E5F7F4F80914B1490914C140E9486
:103C5000F00980E018C00C151D052E053F0528F45D
:103C60004C155D056E057F0568F4BF016E5F7F4FE3
:103C700080914D1490914E140E94F00980E003C091
:103C800081E001C081E01F910F91FF90EF90DF90E4
:103C9000CF9008950FB6F8940F92809149149091A7
:103CA0004A14892BE9F48AE594E10E94DB098FE448
:103CB00094E10E94DB098AE594E190934E1480938D
:103CC0004D148FE494E190934C1480934B1440E096
:103CD00067E08AE00E949E0C90934A1480934914F6
:103CE0000F900FBE0895EF92FF920F93D3DF809154
:103CF000491490914A14892B91F00F2EF7E4EF2E7E
:103D0000F4E1FF2EF02D03E020E030E040EC50E045
:103D100065EB74E089E591E00E948A1301C080E0C0
:103D20000F91FF90EF9008958F929F92AF92BF9264
:103D3000CF92DF92EF92FF920F931F93CF93DF9377
:103D4000CDB7DEB727970FB6F894DEBF0FBECDBF55
:103D5000E0914914F0914A14309781F169832A83E4
:103D60003B834C835D839F838E836630F4F4C3DA98
:103D7000823069F400E0A7019601BE016F5F7F4FBA
:103D80008091491490914A140E94C10C18C000E01F
:103D900020E030E0A901BE016F5F7F4F80914914A0
:103DA00090914A140E94C10C0AC020E0A801BE01F3
:103DB0006F5F7F4FCF010E94710D01C080E0279699
:103DC0000FB6F894DEBF0FBECDBFDF91CF911F912C
:103DD0000F91FF90EF90DF90CF90BF90AF909F90AA
:103DE0008F9008958F929F92AF92BF92CF92DF9261
:103DF000EF92FF920F931F93CF93DF933BC0078007
:103E0000F085E02D80809180A280B380C085D1852F
:103E10008E010E5F1F4FC8010E942D0AEC89FD899B
:103E2000CE0119958E8982FF25C08E859F85A88930
:103E3000B989880D991DAA1DBB1D88169906AA0669
:103E4000BB0670F48A839B83AC83BD83DB87CA8700
:103E5000B80180914D1490914E140E94F0090AC04F
:103E6000C12CD12C760100E010E0A501940160E0A6
:103E7000CE015ADFE0914D14F0914E1480818111F2
:103E8000BECF80914B1490914C1490934E1480931C
:103E90004D14F0934C14E0934B14DF91CF911F918C
:103EA0000F91FF90EF90DF90CF90BF90AF909F90D9
:103EB0008F900895CF92DF92EF92FF92CF93DF938E
:103EC000EC010E9414146B017C01809143149091C9
:103ED0004414A0914514B0914614C816D906EA06B8
:103EE000FB0620F47FDF81E0888301C01882C09246
:103EF0004314D0924414E0924514F0924614C70142
:103F0000B601DF91CF91FF90EF90DF90CF900895B1
:103F10004F925F926F927F928F929F92AF92BF92D9
:103F2000CF92DF92EF92FF920F931F93CF93DF9385
:103F30004B015C0129013A01E0914D14F0914E14BE
:103F40000780F085E02DC085D185CE0102960E94C4
:103F50002D0A8E8982FF1BC04E855F85688979890D
:103F6000480D591D6A1D7B1D750164019301820175
:103F7000CE0147DE882369F0C12CD12C760100E008
:103F800010E0A501940160E0CE01CEDE02C08E7F7C
:103F90008E8BEC89FD89CE011995DF91CF911F9110
:103FA0000F91FF90EF90DF90CF90BF90AF909F90D8
:103FB0008F907F906F905F904F9008958F929F9217
:103FC000AF92BF92CF92DF92EF92FF921F93CF9367
:103FD000DF931F92CDB7DEB76B017C01142F0E94D7
:103FE0000E14CE01019666DF4B015C0189818111BF
:103FF0002DC011110DC08C149D04AE04BF0440F0FF
:104000000E944E15A5019401C701B60181DF20C0B1
:10401000112341F0E0914B14F0914C14808111E098
:10402000811110E0B701A601481959096A097B09F5
:10403000212F8091491490914A140E94EC0E0E9405
:104040004E15811105C00E94A90A02C00E944E159A
:104050000F90DF91CF911F91FF90EF90DF90CF9065
:10406000BF90AF909F908F900895AF92BF92CF92E4
:10407000DF92EF92FF920F931F93CF93DF93CDB711
:10408000DEB728970FB6F894DEBF0FBECDBF82C053
:10409000898188230CF47EC0AE80BF80D5011C9638
:1040A0008D919C911D97892B21F0C50102960E944C
:1040B0002D0ACE010896FEDE8B019C01E9810E2EB1
:1040C000000CFF0BEA30F10508F064C08827EE58B9
:1040D000FF4F8F4F0C946E33F50186898160868B7C
:1040E000CA80DB80EC80FD804685578560897189B8
:1040F0004C0D5D1D6E1D7F1DC50183DD882309F4F8
:1041000049C0D5015496ED91FC915597C50119957B
:10411000F501868982FF3EC04A815B816C817D8189
:1041200086859785A089B1899A01AB01280F391F2F
:104130004A1F5B1FC12CD12C760100E010E060E02B
:10414000C501F2DD27C0D50156968C9156978E7F1A
:1041500056968C931FC0F50186898160868B4A81B3
:104160005B816C817D8146875787608B718B400FA7
:10417000511F621F731F68017901C50142DD0AC02A
:10418000F501868981FD04C0C5010E949E0902C017
:104190008E7F868B20E030E0A901BE016F5F7F4FEC
:1041A0008091491490914A140E94AC0D811170CFF6
:1041B00028960FB6F894DEBF0FBECDBFDF91CF912A
:1041C0001F910F91FF90EF90DF90CF90BF90AF9035
:1041D0000895089584B1806884B985B1806885B9EF
:1041E000089583B1806883B90895F4DF2FEF80E7E5
:1041F00092E0215080409040E1F700C00000F1DFE4
:10420000F5CFE8DF2FEF87EA91E62150804090401C
:10421000E1F700C00000E5DFF5CF60916714709111
:10422000681421E030E040E050E083E090E00E943C
:10423000050590937D1580937C15609167147091AE
:10424000681422E030E040E050E083E090E00E941B
:10425000D7019093811580938015609167147091B8
:10426000681424E030E040E050E083E00E94DF0288
:1042700090937F1580937E150895AF92BF92CF9251
:10428000DF92EF92FF920F931F930E9449038DEBF1
:1042900094E09F938F930E945703BFDF0E94830394
:1042A000609165147091661484E090E00E941B0296
:1042B0006091671470916814A12CB12C6501689409
:1042C000A2F812E0E12EF12C00E010E021E030E055
:1042D00040E050E082E090E00E94E6060F900F90F0
:1042E0001F910F91FF90EF90DF90CF90BF90AF9014
:1042F00008950E944107909368148093671480E0AA
:104300000E94452BECD541E060E070E08CE290E04B
:104310000E944B109093661480936514BC0181E059
:1043200006D3ABCF0895E5DF0E94D613FFCF2FD081
:1043300008F481E0089557D088F09F5790F0B92F86
:104340009927B751A0F0D1F0660F771F881F991FEA
:104350001AF0BA95C9F712C0B13081F05ED0B1E061
:1043600008955BC0672F782F8827B85F39F0B93F71
:10437000CCF3869577956795B395D9F73EF49095EC
:104380008095709561957F4F8F4F9F4F0895990F3E
:104390000008550FAA0BE0E8FEEF16161706E8070F
:1043A000F907C0F012161306E407F50798F0621B30
:1043B000730B840B950B39F40A2661F0232B242B05
:1043C000252B21F408950A2609F4A140A6958FEF24
:1043D000811D811D089557FD9058440F551F59F0B8
:1043E0005F3F71F04795880F97FB991F61F09F3FE2
:1043F00079F087950895121613061406551FF2CF0B
:104400004695F1DF08C0161617061806991FF1CF5A
:1044100086957105610508940895E894BB27662781
:104420007727CB0197F90895FA01DC01AA0FBB1F8A
:104430009B01AC01BF5728F422273327442750782B
:104440001FC0B75188F4AB2F0024469537952795A8
:10445000011CA395D2F3002069F0220F331F441FE3
:10446000B395DAF30DD013C061307105A0E88A0767
:10447000B94630F49B01AC016627772788279078EE
:10448000309621F02083318342835383089550581E
:10449000BB27AA270ED077C068D030F06DD020F0AF
:1044A00031F49F3F11F41EF45DC00EF4E095E7FB7C
:1044B00053C0E92F90DF80F3BA17620773078407B0
:1044C000950718F071F49EF5A8CF0EF4E0950B2E29
:1044D000BA2FA02D0B01B90190010C01CA01A00156
:1044E0001124FF27591B99F0593F50F4503E68F1B1
:1044F0001A16F040A22F232F342F4427585FF3CFF2
:10450000469537952795A795F0405395C9F77EF4C2
:104510001F16BA0B620B730B840BBAF09150A1F00B
:10452000FF0FBB1F661F771F881FC2F70EC0BA0F91
:10453000621F731F841F48F4879577956795B79519
:10454000F7959E3F08F0B3CF9395880F08F0992711
:10455000EE0F97958795089597F99F6780E870E02B
:1045600060E008959FEF80EC089500240A941616E9
:10457000170618060906089500240A941216130651
:10458000140605060895092E0394000C11F48823DF
:1045900052F0BB0F40F4BF2B11F460FF04C06F5FFB
:1045A0007F4F8F4F9F4F08956530F1F4FA0180815E
:1045B0008F7390E0982F88272181822B90930A0295
:1045C000809309028281F0E48F9FC0011124FA01D7
:1045D000238126952695822B9093080280930702CB
:1045E00081E0809369140895643051F080E090E494
:1045F000909308028093070290930A028093090225
:1046000008950F931F9304ED12E220E034E244EF8B
:1046100050E060E087E20E94FB2C90936B14809343
:104620006A1421E0892B09F020E0822F1F910F915D
:10463000089580916A1490916B14009759F040E0AE
:1046400060E070E00E944C2D843031F410926914C7
:1046500080E0089582E0089583E0089580916A14CF
:1046600090916B14009739F064E00E94982D85308A
:1046700021F083E0089582E0089580E0089560913C
:10468000090270910A0280E090E00E949E3220E0D0
:1046900030E048EC52E40E94E03220E038EF4FE78F
:1046A00056E40C942D320895EADF20E030E040E239
:1046B00051E40E94E0323FDECB0108956091070291
:1046C0007091080280E090E00E949E3220E030E08D
:1046D00045E253E40E94E03220E038EF4FE756E431
:1046E0000E942D3220E030E040E252E4D0CE089526
:1046F0000F931F93CF93DF931F921F92CDB7DEB717
:104700008C0119822DC0E091A314EC3250F481E0A9
:104710008E0F8093A314F0E0E655FB4E8A818083D0
:1047200002C01092A3148A818A30D1F44091A3145C
:1047300050E0FA01E855FB4E1082415051099E01AC
:104740002F5F3F4F6AEA74E18091A6149091A714FD
:104750000E94AD10898181110E94A90A1092A314B0
:10476000BE016E5F7F4FC801FAD4882361F20F90BB
:104770000F90DF91CF911F910F9108950F931F9389
:10478000CF93DF938C01EB018091A6149091A71435
:104790000E947D10B8018CE694E10E94E7352097D5
:1047A00079F0ECE6F4E101900020E9F7319780E23E
:1047B00090E091838083BE018CE694E10E94DC3519
:1047C000ECE6F4E1DF010D900020E9F711978DE0B0
:1047D0009AE011969C938E9312961C920190002061
:1047E000E9F73197EC56F441AE2F8CE694E1AC0139
:1047F0006A2F8091A8149091A9145CD4811111C0E2
:1048000008E215E020E030E04DE250E064E075E1C0
:104810008091A6149091A7140E94F11084E095E174
:1048200002C080E090E0DF91CF911F910F91089539
:104830002F923F924F925F926F927F928F929F92B0
:10484000AF92BF92CF92DF92EF92FF920F931F939E
:10485000CF93DF935C01FC0101900020E9F73197D1
:104860006F01C81AD90A5C2C0F2EF5E68F2EF7E0DF
:104870009F2EF02DE12CF12C4C2C3701F4010181FD
:104880001281E80109900020E9F72197C01BD10BA4
:104890003C2EF9E0CF16D10458F0F4012080FEE060
:1048A0002F1206C0B801C5010E94B735892B09F542
:1048B000442D351408F44C2F50E0B801C5010E9476
:1048C000EE35892B49F4F301EE0FFF1FE60DF71DBE
:1048D000EB59F84F20800DC08FEFE81AF80AE3E09B
:1048E0008E0E911CF1E1EF16F10439F66894222442
:1048F00024F8822DDF91CF911F910F91FF90EF90BF
:10490000DF90CF90BF90AF909F908F907F906F90EF
:104910005F904F903F902F90089530DF89CF08959A
:104920008091A6149091A7140C947D1008958F92F5
:104930009F92AF92CF92EF920F931F93CF93C82F76
:104940008B0141E060E070E088EC90E00E944B1049
:104950009093A7148093A6141093A5140093A41405
:104960000F2EF8E78F2EF3E29F2EF02D6894AA24E5
:10497000A6F86894CC24C6F8E12C00E023E040E0DF
:1049800051EE60E070E08C2FC6D29093A914809312
:10499000A814E7E0F1E0808180618083CF911F91CE
:1049A0000F91EF90CF90AF909F908F9008958823B4
:1049B00031F0E8E0F1E080818F7E80830895E8E0C7
:1049C000F1E0808180618083089560E070E08BEE8B
:1049D00094E0D4DEE4E0F5E101900020E9F73197BE
:1049E000E450F54181E0759708F080E00895CF9399
:1049F000DF93EC0160E070E08CEF94E0BFDEE4E078
:104A0000F5E101900020E9F7E551F54139F464E062
:104A100075E1CE010E94E73580E002C0188281E096
:104A2000DF91CF910895FC0101900020E9F79F01EB
:104A3000215131092817390729F4BC018AE295E090
:104A40006CCF089589E00895FC0101900020E9F7FA
:104A50009F01215131092817390729F4BC0189E345
:104A600095E05BCF089589E00895FC010190002056
:104A7000E9F79F01215231092817390729F4BC01B0
:104A800088E495E04ACF089589E0089560E070E0F9
:104A900087E895E042CF08950F931F93E82FF0E049
:104AA000EE0FFF1FEF59F84F6081718180E995E0AB
:104AB00034DF811114C008E215E020E030E04DE25F
:104AC00050E064E075E18091A6149091A7140E94D3
:104AD000F110882321F084E095E1AADE03C084E090
:104AE00095E1A6DE1F910F910895813019F06FEACC
:104AF00075E002C068E876E083EB95E00ECF08959C
:104B00009F938F9384EE95E09F938F9387ED94E12D
:104B10009F938F930E94523660E070E087ED94E19E
:104B2000FCDE0F900F900F900F900F900F90089554
:104B30002F923F924F925F926F927F928F929F92AD
:104B4000AF92BF92CF92DF92EF92FF920F931F939B
:104B5000CF93DF93CDB7DEB7A0970FB6F894DEBF43
:104B60000FBECDBF61E176E08DE196E007DE60DE4D
:104B70008111A3C080E2E2E2F2E0DE011196019031
:104B80000D928A95E1F79E012F5F3F4F6901E12C5D
:104B9000F12C0F2EF9E2AF2EF6E0BF2EF02D07ED2F
:104BA00014E10F2EF2E44F2EF6E05F2EF02D0F2EC3
:104BB000F9E58F2EF6E09F2EF02D0F2EF3E76F2EE6
:104BC000F6E07F2EF02D3E2C2F2CFF92EF92BF921D
:104BD000AF921F930F930E94523660E070E0C801BD
:104BE000CDDD26DE0F900F900F900F900F900F905D
:104BF000811163C032E03E15E8F4F60183818F93A2
:104C000082818F9381818F9380818F93FF92EF9226
:104C10005F924F921F930F930E94523660E070E0B4
:104C2000C801ACDD05DE0FB6F894DEBF0FBECDBF08
:104C3000811143C02F923F929F928F921F930F93A7
:104C40000E94523660E070E0C80198DDF1DD0F90FF
:104C50000F900F900F900F900F9081112EC02F92F8
:104C60003F927F926F921F930F930E94523660E0A3
:104C700070E0C80183DDDCDD0F900F900F900F9086
:104C80000F900F90811119C03FEFE31AF30A84E0EF
:104C9000C80ED11C98E0E916F10409F094CF60E049
:104CA00070E08BE896E06ADDC3DD811106C060E04C
:104CB00070E08CE996E062DDBBDDA0960FB6F8945B
:104CC000DEBF0FBECDBFDF91CF911F910F91FF903F
:104CD000EF90DF90CF90BF90AF909F908F907F909C
:104CE0006F905F904F903F902F900895EF92FF92BA
:104CF0000F931F93CF93DF93EC018B017A0181E037
:104D0000F4DE81110DC0CE019FDE811109C0C80102
:104D1000ACDE811105C0C70186DE811101C0B6DE9F
:104D2000DF91CF911F910F91FF90EF90089590E048
:104D3000FC01EE0FFF1F8E0F9F1FFC01EB59F84F78
:104D400081819281089580913415860F8093341566
:104D500090913715913079F028F09230A9F0933086
:104D600019F108956F3F09F048C01092341581E0A1
:104D7000809337150895663809F03FC010923315B7
:104D800082E0809337150895E091331581E08E0F0E
:104D900080933315F0E0EF5CFA4E6083823069F562
:104DA00083E08093371508959091331521E0290F02
:104DB00020933315963009F581110EC0E1E3F5E13A
:104DC000808190E0982F88272181820F911D9093F8
:104DD00039158093381504C0109239151092381582
:104DE00010923715E0913515F0913615309729F06E
:104DF0008091381590913915199508958F929F9249
:104E0000AF92CF92EF920F930F2EF3EA8F2EF6E22E
:104E10009F2EF02D6894AA24A4F86894CC24C4F89A
:104E2000E12C00E023E040E855E260E070E073D060
:104E300090933B1580933A150F91EF90CF90AF90E0
:104E40009F908F900895909336158093351508950F
:104E5000CF93DF93CDB7DEB729970FB6F894DEBFB7
:104E60000FBECDBF89E0E2E4F2E09E012F5F3F4F2D
:104E7000D90101900D928A95E1F71092391510929F
:104E8000381580913A1590913B15009731F0422FDB
:104E9000532F69E00FD180E001C082E029960FB660
:104EA000F894DEBF0FBECDBFDF91CF910895653678
:104EB0000CF064E66C390CF46CE996EF6902B00111
:104EC00011246854744F811105C0709329016093B7
:104ED0002801089570932B0160932A010895EAE058
:104EE000F1E08081886180838FE39CE990932701C2
:104EF0008093260160E080E0DADF60E081E0D7DFC8
:104F0000E0E2F1E08081826A8083E1E2F1E0808189
:104F10008A61808308952F923F924F925F926F92A1
:104F20007F928F929F92AF92CF92EF92FF920F93C8
:104F30001F93CF93DF93CDB7DEB7F82E2A013B0145
:104F400088E090E00E949F338C018F2D90E0FC015F
:104F5000EE0FFF1FE45CFA4E11830083011511056B
:104F600009F46BC0880F991FFC01E55FFD4F80813C
:104F70009181D8018D939C938C2D90E0880F991F7F
:104F8000880F991F0E949F331C0186E090E00E94C9
:104F90009F337C014C2DB101BBD6F801F582E48230
:104FA0008A2D90E0880F991F880F991F0E949F33C8
:104FB0001C0186E090E00E949F337C014A2DB101E4
:104FC000A7D6D8011396FC92EE92129717969C9250
:104FD0008E921697FFB6F894ED91FC911197369743
:104FE0008081826080838D909C90C301B2010E9479
:104FF0009E3220E030E040E051E40E94E0329B012C
:10500000AC0160E074E284E79BE40E942D3220E072
:1050100030E040E85FE33BDA8ED9F40132976083F9
:10502000D801ED91FC911197359788E98083ED9136
:10503000FC91349786E08083FFBEC801DF91CF9159
:105040001F910F91FF90EF90CF90AF909F908F9016
:105050007F906F905F904F903F902F900895CF93E7
:10506000DF93DC01892B01F11296ED91FC911397EE
:10507000938182812581981B922384819817B1F0B6
:10508000838126952823C081D181C20FD11D6883D9
:105090008F5F958189238383ED91FC913597808182
:1050A0008062808380E003C081E001C082E0DF9104
:1050B000CF910895EF92FF920F931F93CF93DF93B9
:1050C0007C01009709F441C0DC011296ED91FC913E
:1050D000139793818281981B858198238481891BF2
:1050E0008617A8F1662341F1842F952FDC016150CA
:1050F000462F50E04F5F5F4F480F591FE701EA818D
:10510000FB81938182812581981B9223848198174A
:1051100079F08C91938126952923608171818B018F
:10512000020F111DE80188839F5F85819823938377
:105130001196A417B50711F7D701ED91FC9135979A
:1051400080818062808380E003C081E001C082E0D2
:10515000DF91CF911F910F91FF90EF9008950097ED
:10516000D1F0DC011496ED91FC9115979381828129
:10517000981799F09281858186958923A081B181C4
:10518000A80FB11D8C91DB018C939F5F85819823C3
:10519000928380E0089581E0089583E008951F924E
:1051A0000F920FB60F9211240BB60F922F933F93CD
:1051B0004F935F936F937F938F939F93AF93BF931F
:1051C000CF93DF93EF93FF93A0913C15B0913D15E2
:1051D000109711F16091C6001496ED91FC9115970E
:1051E000938182812581981B92238481981761F095
:1051F000838126952823C081D181C20FD11D688368
:105200008F5F9581892383831696ED91FC91179783
:10521000309711F0CD011995FF91EF91DF91CF916A
:10522000BF91AF919F918F917F916F915F914F91BE
:105230003F912F910F900BBE0F900FBE0F901F90BC
:1052400018951F920F920FB60F9211240BB60F9262
:105250002F938F939F93AF93BF93EF93FF93E0911F
:105260003C15F0913D153097B9F00280F381E02DA7
:10527000938182819817B1F092818581282F26959C
:105280002923A081B181A20FB11D2C919F5F892399
:1052900082832093C6000BC0E1ECF0E080818F7D1B
:1052A000808305C0E1ECF0E080818F7D8083FF91F9
:1052B000EF91BF91AF919F918F912F910F900BBE66
:1052C0000F900FBE0F901F9018951F920F920FB660
:1052D0000F9211240BB60F922F933F934F935F932E
:1052E0006F937F938F939F93AF93BF93CF93DF93EE
:1052F000EF93FF93A0913E15B0913F15109711F1D8
:105300006091CE001496ED91FC9115979381828166
:105310002581981B92238481981761F083812695BB
:105320002823C081D181C20FD11D68838F5F9581F1
:10533000892383831696ED91FC911797309711F08E
:10534000CD011995FF91EF91DF91CF91BF91AF9171
:105350009F918F917F916F915F914F913F912F918D
:105360000F900BBE0F900FBE0F901F9018951F92BD
:105370000F920FB60F9211240BB60F922F938F93AB
:105380009F93AF93BF93EF93FF93E0913E15F091FE
:105390003F153097B9F00280F381E02D938182812F
:1053A0009817B1F092818581282F26952923A08115
:1053B000B181A20FB11D2C919F5F8923828320931D
:1053C000CE000BC0E9ECF0E080818F7D808305C0CA
:1053D000E9ECF0E080818F7D8083FF91EF91BF91B8
:1053E000AF919F918F912F910F900BBE0F900FBE99
:1053F0000F901F9018951F920F920FB60F921124C5
:105400000BB60F922F933F934F935F936F937F93BE
:105410008F939F93AF93BF93CF93DF93EF93FF93BC
:10542000A0914015B0914115109711F16091D600EF
:105430001496ED91FC911597938182812581981B9B
:1054400092238481981761F0838126952823C08157
:10545000D181C20FD11D68838F5F9581892383839A
:105460001696ED91FC911797309711F0CD01199593
:10547000FF91EF91DF91CF91BF91AF919F918F916C
:105480007F916F915F914F913F912F910F900BBE44
:105490000F900FBE0F901F9018951F920F920FB68E
:1054A0000F9211240BB60F922F938F939F93AF936C
:1054B000BF93EF93FF93E0914015F0914115309722
:1054C000B9F00280F381E02D938182819817B1F0C9
:1054D00092818581282F26952923A081B181A20F51
:1054E000B11D2C919F5F892382832093D6000BC02E
:1054F000E1EDF0E080818F7D808305C0E1EDF0E09B
:1055000080818F7D8083FF91EF91BF91AF919F91BB
:105510008F912F910F900BBE0F900FBE0F901F9089
:1055200018951F920F920FB60F9211240BB60F927F
:105530002F933F934F935F936F937F938F939F939B
:10554000AF93BF93CF93DF93EF93FF93A091421557
:10555000B0914315109711F1609136011496ED91B9
:10556000FC911597938182812581981B92238481D8
:10557000981761F0838126952823C081D181C20FBD
:10558000D11D68838F5F9581892383831696ED9162
:10559000FC911797309711F0CD011995FF91EF917C
:1055A000DF91CF91BF91AF919F918F917F916F913B
:1055B0005F914F913F912F910F900BBE0F900FBEB7
:1055C0000F901F9018951F920F920FB60F921124F3
:1055D0000BB60F922F938F939F93AF93BF93EF933D
:1055E000FF93E0914215F09143153097B9F0028096
:1055F000F381E02D938182819817B1F092818581AA
:10560000282F26952923A081B181A20FB11D2C91AD
:105610009F5F89238283209336010BC0E1E3F1E091
:1056200080818F7D808305C0E1E3F1E080818F7D03
:105630008083FF91EF91BF91AF919F918F912F91B7
:105640000F900BBE0F900FBE0F901F901895CF9329
:10565000DF931F92CDB7DEB7BE016F5F7F4F8091A2
:105660004415909145157BDD8111F6CF898190E03D
:105670000F90DF91CF910895682F809144159091FC
:105680004515EDDC80E090E008958F929F92AF92F7
:10569000CF92EF920F93812C912C6894AA24A7F8B3
:1056A0006894CC24C7F8E12C00E023E040E051EE00
:1056B00060E070E030DC9093451580934415E6E897
:1056C000F5E183E192E091838083938382830F915C
:1056D000EF90CF90AF909F908F900895E0914E15EE
:1056E000F0914F15309709F0199508956450623084
:1056F00008F03BC020914D15223079F018F421308C
:1057000031F030C0233081F02430A1F02BC022E0F2
:1057100020934D1561E00CC20895FA0180818093B9
:105720004A1582E0DBCF089524E020934D1564E014
:10573000FFC10895FA01818190E0982F8827208188
:10574000822B9093491580934815838190E0982F80
:1057500088272281822B909347158093461581E0FC
:10576000BDCF089580E0BACF089510924D1586E020
:10577000B5CF08952091501530915115211531055F
:1057800041F0462FBC01C90187D1823021F080E071
:10579000089587E0089585E008950F931F939093EF
:1057A0004F1580934E1506E71BE220E034E244EFEC
:1057B00050E060E089E21FD190935115809350151D
:1057C000892B11F080E001C088E01F910F910895AE
:1057D000CF93DF931F921F92CDB7DEB780EA898304
:1057E00083E08A8310924D1562E0CE010196C2DFFC
:1057F0000F900F90DF91CF910895CF93DF931F9279
:10580000CDB7DEB784EB898383E080934D1561E0EB
:10581000CE010196AFDF0F90DF91CF9108952F92C7
:105820003F924F925F926F927F928F929F92AF9230
:10583000BF92CF92DF92EF92FF920F931F93CF937D
:10584000DF93C0914615D0914715CF3F2FEFD20778
:1058500041F060914815709149156F3FEFEF7E0759
:1058600059F44FEF5FEF6FE77FE7FC01408351830F
:105870006283738383E09BC01C0180E090E05ED66E
:105880002B013C01BE0180E090E058D64B015C0149
:1058900080914B1590E0019624E6289FB001299F46
:1058A000700D112480914C15803269F08033A1F085
:1058B0008031E1F40F2EC12CD12CF8ECEF2EF1E465
:1058C000FF2EF02D1BC00F2EC12CD12CF6EDEF2E8C
:1058D000F3E4FF2EF02D12C00F2EC12CF0E5DF2EC9
:1058E000FAE1EF2EF6E4FF2EF02D08C00F2EC12CAA
:1058F000D12CF0E8EF2EFFE3FF2EF02D072E000C49
:10590000880B990B1DD6A70196015AD620E030E0EE
:105910004CEC53E4A2D56B017C0125E83BEE41ED54
:105920005FE3C501B4014CD69B01AC01C301B201D8
:105930000E944722A701960190D5162FD72FC82F76
:10594000092F2DE33AE047E15FE3C301B20138D606
:105950002B013C0126EF38E24CE55FE3C501B401C1
:105960002FD69B01AC01C301B2010E944722A701BF
:10597000960173D5C62ED72EE82EF92E262F372F57
:10598000482F592F612F7D2F8C2F902F14D618164A
:1059900024F01C2DDD2DCE2D0F2D412F5D2F6C2FD2
:1059A000702FF101408351836283738380E0DF9124
:1059B000CF911F910F91FF90EF90DF90CF90BF900C
:1059C000AF909F908F907F906F905F904F903F909F
:1059D0002F9008958091601581110CC08CE0809308
:1059E000B8008FEF8093BB0084E08093BC0081E01F
:1059F000809360150895AF92BF92CF92DF92EF929D
:105A0000FF920F931F93CF93DF93A82EB62E6901B9
:105A10007A0184E090E093D6EC01892B61F1A882B1
:105A200081E0B81212C0C701B60120EA36E841E0B1
:105A300050E032D6DA01C9014097A109B109B69503
:105A4000A79597958795898311C0C701B60120E86E
:105A50003AE146E050E020D6DA01C9014097A109B9
:105A6000B109B695A7959795879589831B830A8376
:105A70008C2F9D2F02C080E090E0DF91CF911F918D
:105A80000F91FF90EF90DF90CF90BF90AF9008956F
:105A90008091BC0081700895FF920F931F93CF9364
:105AA000DF930097D1F14A30D0F5F42E8B01EC0151
:105AB000EFDF811136C08091531590915415C817AE
:105AC000D90741F087DF89818093B800D0935415BE
:105AD000C093531581E08F0D809355158881880FF1
