S00B0000496F542E737265630D
S113000066C1000085C1000083C1000081C10000F9
S11300107FC100007DC100007BC1000079C10000E8
S113002077C1000075C1000073C1000071C10000F8
S11300300C9498086DC100006BC1000069C10000F8
S113004067C1000065C1000063C1000061C1000018
S11300505FC100005DC100005BC1000059C1000028
S113006057C100000C9473230C94C52351C10000A4
S11300704FC100004DC100004BC1000049C1000048
S113008047C1000045C1000043C1000041C1000058
S11300900C9409240C945B243BC100000C94F326BB
S11300A037C1000035C1000033C1000031C1000078
S11300B02FC100002DC100002BC1000029C1000088
S11300C027C1000025C1000023C100000C949F2417
S11300D00C94F1241DC100000C9435250C94872543
S11300E017C10000C51BC51BC51BFC1B041C191C28
S11300F0C51BC51BFC1B041C1527852785278527C5
S113010085278527852785271527852785278527FB
S113011085278527852785271727852785278527E9
S1130120852785278527852785278527852785276B
S113013085278527852785271727852785278527C9
S1130140852785278527852785278527852785274B
S1130150852785278527852781278527852785273F
S113016085278527852785274C2785278527852764
S1130170852785278527852785278527852785271B
S11301808527852785278527402785278527852750
S1130190852785278527852764276E616E00696E0C
S11301A0660000407A10F35A00A0724E180900103D
S11301B0A5D4E80000E87648170000E40B540200D8
S11301C000CA9A3B000000E1F50500008096980003
S11301D0000040420F000000A0860100000010272C
S11301E000000000E80300000000640000000000BC
S11301F00A00000000000100000000002C76D888EE
S1130200DC674F0823DFC1DFAE59E1B1B796E5E300
S1130210E453C63AE651997696E8E6C28426EB8919
S11302208C9B62ED407C6FFCEFBC9C9F40F2BAA5B6
S11302306FA5F490055A2AF75C936B6CF9676DC14E
S11302401BFCE0E40D47FEF520E6B500D0ED902E52
S11302500300943577050080841E080000204E0AB0
S1130260000000C80C333333330F986E12831141EE
S1130270EF8D2114893BE65516CFFEE6DB18D184B9
S11302804B381BF77C1D901DA4BBE42420328472E0
S11302905E228100C9F124ECA1E53D270E941E0FD6
S11302A080912B11823008F07DD60E94421CF6CF3B
S11302B0CF93DF931F92CDB7DEB7CE0101960E9494
S11302C0421949810E94371B0E948E1BF6CF1124CC
S11302D01FBECFEFD1E2DEBFCDBF00E00CBF17E001
S11302E0A0E0B2E0E0E9F0E600E00BBF02C0079056
S11302F00D92A630B107D9F722E1A6E0B7E001C01C
S11303001D92A83CB207E1F70E94BD1C0C94463034
S113031077CE9093AD128093AC120895CF93DF9370
S113032000D01F92CDB7DEB75C010E946E106983C6
S11303307A838B839C8340EE53E060E070E0CE01CF
S113034001960E9484124091AE125091AF126091B6
S1130350B0127091B112CC24CA94DC2C760101E065
S113036020E08091B2129091B312C7D20E94FF2173
S11303708093AB128111DFCF8091AC129091AD12BA
S1130380F501918380838091AD128F938091AC129B
S11303908F938FE692E09F938F930E94762F0F9016
S11303A00F900F900F90C7CFFC0180819181089529
S11303B0EF92FF920F93CF93DF93082FEB014091BD
S11303C0AE125091AF126091B0127091B11280913F
S11303D0B2129091B31231D3E12CF12C9E0144E27C
S11303E051E066E772E08EE891E00E94E40F8EE748
S11303F092E00E94892FDF91CF910F91FF90EF90AF
S11304000895AF92BF92CF92DF92EF92FF920F9333
S11304101F93CF93DF938C015B0169017A0182E022
S113042090E00E94C82CEC01892BD9F01982188223
S1130430B092B312A092B212C092AE12D092AF1286
S1130440E092B012F092B11283E00E94D52189E8C3
S113045091E00E94FA21BE01C801AADF8C2F9D2FD2
S113046002C080E090E0DF91CF911F910F91FF9047
S1130470EF90DF90CF90BF90AF900895CF93DF932C
S1130480EC010E94351E688379838A839B830E94D2
S11304902A1E9D838C83DF91CF910895CF93DF93A0
S11304A000D01F92CDB7DEB75C010E946E10698345
S11304B07A838B839C8342EA53E060E070E0CE0150
S11304C001960E9484120E94EF1D882321F08EE879
S11304D092E00E94892F4091AE125091AF12609128
S11304E0B0127091B112CC24CA94DC2C760101E0D4
S11304F020E08091B2129091B312FFD164E070E0D9
S113050080E090E00E94E9120E94041E60E070E026
S1130510CB010E94E912C501B1DFCDCFEF92FF926A
S11305200F93CF93DF93EC01062F4091AE125091BD
S1130530AF126091B0127091B1128091B212909189
S1130540B3127BD2E12CF12C9E0140EC50E068EA1E
S113055072E08EE492E00E94E40FDF91CF910F915C
S1130560FF90EF900895AF92BF92CF92DF92EF92F7
S1130570FF920F931F93CF93DF938C015B0169016B
S11305807A0186E090E00E94C82CEC01892B01F1ED
S1130590188219821A821B821D821C82B092B312A5
S11305A0A092B212C092AE12D092AF12E092B012E8
S11305B0F092B1120E94D71D811104C089EB92E020
S11305C00E94892FB801CE01A9DF8C2F9D2F02C074
S11305D080E090E0DF91CF911F910F91FF90EF9019
S11305E0DF90CF90BF90AF900895FC01608171813E
S11305F0828193810895FC018481958108950F93EC
S11306001F93CF93DF93CDB7DEB764970FB6F894FB
S1130610DEBF0FBECDBF0E94BC1F0E946E219F9300
S11306208F9382ED92E09F938F930E94762F0E9486
S11306306F200E946E219F938F9385EE92E09F938B
S11306408F930E94762F8E010F5F1F4FC8010E9467
S1130650CE1F0E946E211F930F939F938F938EEF53
S113066092E09F938F930E94762FC8010E94EA1F05
S11306700E946E219F938F931F930F9382E193E0C7
S11306809F938F930E94762FA80167E273E088E41A
S113069093E00E944D210E946E219F938F931F939C
S11306A00F9387E293E09F938F9388E493E09F9363
S11306B08F9389E593E09F938F930E94762F0E94F6
S11306C01D200E946E219F938F938FE893E09F9348
S11306D08F930E94762F0FB6F894DEBF0FBECDBF66
S11306E081E00E944C200E946E219F938F938EE99B
S11306F093E09F938F930E94762F84EF91E00E9462
S113070057200E946E219F938F9381E08F9384EFF3
S11307108F938FEB93E09F938F930E94762F0FB666
S1130720F894DEBF0FBECDBF1AE080E00E94232004
S1130730082F0E946E219F938F931F921F938FED1A
S113074093E09F938F930E94762F0F900F900F90BA
S11307500F900F900F90083041F066E371E080E055
S113076090E00E94E912115001F7083011F01AD4F8
S1130770FECF64960FB6F894DEBF0FBECDBFDF91F7
S1130780CF911F910F910895CF93DF93CDB7DEB72B
S113079028970FB6F894DEBF0FBECDBF81E00E944C
S11307A0AE1F62E070E080E090E00E94E91280E019
S11307B00E94AE1F66E970E080E090E00E94E912BA
S11307C00E94671F1CDF0E946E1069837A838B83EB
S11307D09C834CE652E060E070E0CE0101960E94FA
S11307E084128091B6129091B712FFDE162F072F54
S11307F0F82EE92E1D821E821F821886AE014B5FE1
S11308005F4F0E94C11CEF92FF920F931F938FEFD3
S113081093E09F938F930E94762F8091B6129091CC
S1130820B712E9DE9F938F9389E094E09F938F93AF
S11308300E94762F8091B4129091B512B5DD9F93EA
S11308408F9387E194E09F938F930E94762F0FB646
S1130850F894DEBF0FBECDBFBCCFEF92FF920F93D3
S11308607093B7126093B6125093B5124093B412BA
S1130870E12CF12C082F20E030E048E851E060E260
S113088074E084EC93E00E94E40F0F91FF90EF90EA
S113089008950F9301110CC0DC01CB018223932333
S11308A0A423B523892B8A2B8B2B79F480E010C0E9
S11308B0DC01CB0182239323A423B5232817390712
S11308C04A075B0721F080E003C081E001C081E0BA
S11308D00F910895CF93DF938FE090E0AFD1EC01B7
S11308E0009739F0FC011192119211921192CF01EB
S11308F08BD2CE01DF91CF9108952F923F924F92E8
S11309005F926F927F928F929F92AF92BF92CF929B
S1130910DF92EF92FF920F931F93CF93DF93EC013B
S11309204A015B01622E702E0E9468102880398073
S11309304A805B80A5019401C201B101AADF88232A
S1130940A1F0662089F1D501C40180959095A09508
S1130950B09582219321A421B52188839983AA8308
S1130960BB83C12CD12C760122C0C114D104E10473
S1130970F104E9F0611004C040E050E0BA0104C0A1
S113098040E050E060E071E071107460482959293A
S11309906A297B2997018601CE0104960E9480135F
S11309A0212C312C210103C0C12CD12C76010E94B1
S11309B0A811CD28CE28CF2859F1811101C0F2D237
S11309C00E943E166B017C0191FD1FC00FB6F89486
S11309D00F92C880D980EA80FB80072DA50194017D
S11309E0C701B60156DF882371F0662061F0809458
S11309F09094A094B0948C209D20AE20BF20888237
S1130A009982AA82BB820F900FBE1601270155243A
S1130A10C201B101DF91CF911F910F91FF90EF902F
S1130A20DF90CF90BF90AF909F908F907F906F900A
S1130A305F904F903F902F9008954F925F926F92E6
S1130A407F92AF92BF92CF92DF92EF92FF920F9379
S1130A501F93CF93DF93EC016A017B018C01095F43
S1130A601F4F0E946810EB85FC8588819981AA81BB
S1130A70BB81C82AD92AEA2AFB2AC882D982EA82F7
S1130A80FB82C12CD12C76013DC0A480B58080812D
S1130A909181A281B381AC01BD017727B2FD0EC063
S1130AA0488059806A807B804422552266227722BE
S1130AB045284628472889F420E012C048805980F8
S1130AC06A807B804422552266227722441555058C
S1130AD06605770521F020E003C021E001C021E094
S1130AE0222371F0B0FF04C0C42AD52AE62AF72ACB
S1130AF0488159816A817B817260CF010E94BB1455
S1130B00EA2DFB2DE017F10709F0BFCFC094D09474
S1130B10E094F09488819981AA81BB81C822D9226A
S1130B20EA22FB22C882D982EA82FB820E94A811AF
S1130B30688179818A819B81DF91CF911F910F9187
S1130B40FF90EF90DF90CF90BF90AF907F906F9029
S1130B505F904F900895E2E1F7E0A6E1B7E0B1833A
S1130B60A08313821282E6EDF0E1F0931107E09383
S1130B701007138212821182108280EC99E013967E
S1130B809C938E931297ED93FC9390930D0780930F
S1130B900C0790930F0780930E0780E090E89093E2
S1130BA00707809306070895CF93DF93EC01A2E132
S1130BB0B7E001C0DF01ED91FC911197EC17FD073F
S1130BC0C8F312968D919C9113979D01280F391F9C
S1130BD0C217D30749F42A813B81820F931F1396CE
S1130BE09C938E931297ED018A819B819E01280F1D
S1130BF0391FE217F307C1F4209110073091110750
S1130C00E217F30771F022813381820F931F9B83D4
S1130C108A83ED91FC9111978081918199838883D6
S1130C2005C03983288302C0F983E883CA17DB0728
S1130C3011F0CD93DC93DF91CF910895EF92FF9261
S1130C400F931F93CF93DF938C010E9468108091C0
S1130C50100790911107892B09F47DDF8091060715
S1130C609091070780239123892B09F076C0011501
S1130C70110549F0C80104960817190718F000E097
S1130C8010E001C08C010115110509F469C08091BF
S1130C900E0790910F078017910708F464C0C09164
S1130CA01207D0911307E2E1F7E002C0FE01EC0164
S1130CB08A819B818017910720F48881998100970C
S1130CC0A9F78091100790911107C817D90709F463
S1130CD04DC0E080F18084E0E80EF11C88819981A8
S1130CE0918380832A813B81201B310B293031057C
S1130CF048F0CE01800F911FFC01338322831B83B4
S1130D000A8352DF2A813B8180910E0790910F075D
S1130D10821B930B90930F0780930E0740910C074F
S1130D2050910D078417950720F490930D07809335
S1130D300C078091060790910707282B392B3B83DA
S1130D402A831982188280910A0790910B070196D1
S1130D5090930B0780930A070BC0E12CF12C08C079
S1130D60E12CF12C05C0E12CF12C02C0E12CF12C7A
S1130D700E94A811E114F10411F40E944E1CC70151
S1130D80DF91CF911F910F91FF90EF9008950F93F2
S1130D901F93CF93DF93009791F1EC0124974A813D
S1130DA05B812091060730910707BA016223732300
S1130DB0672B29F168817981672B09F52095309596
S1130DC0242335233B832A830E9468108A819B81D4
S1130DD020910E0730910F07820F931F90930F07F6
S1130DE080930E07CE01E0DE8091080790910907F9
S1130DF0019690930907809308070E94A811DF9138
S1130E00CF911F910F910895FC01039692838183E2
S1130E104FEF5FEFBA0143835483658376839087F2
S1130E2087839287818710820895FC011386128636
S1130E3008950F931F93CF93DF93EB0108811981DA
S1130E402A813B810F3F4FEF14072407340721F415
S1130E50FC01A185B28511C0DC01139601C0DF013C
S1130E601496ED91FC9115974081518162817381B3
S1130E70041715072607370790F71496ED91FC9190
S1130E801597FD83EC83D783C683BF83AE83159602
S1130E90DC93CE9314979B878A87FC0120812F5F74
S1130EA02083DF91CF911F910F910895CF93DF930A
S1130EB0FC01A285B385C481D581868197819F83F6
S1130EC08E83C681D781848195819D838C8311967D
S1130ED08D919C911297E817F90731F486819781D7
S1130EE012969C938E931197138612868C9181503F
S1130EF08C938C91DF91CF910895A89590EC88E123
S1130F000FB6F894A895809360000FBE909360008C
S1130F100895FC0160833197708331971082319773
S1130F201082319720E82083319710823197108204
S1130F30319710827797408331975083869708952D
S1130F40DCDFA0919911B0919A11CD91CDBFDD91C3
S1130F50DEBFFF91EF91DF91CF91BF91AF919F9150
S1130F608F917F916F915F914F913F912F911F913D
S1130F700F91FF90EF90DF90CF90BF90AF909F9034
S1130F808F907F906F905F904F903F902F901F9025
S1130F900F900CBE0F900BBE0F900FBE0F900895D4
S1130FA081E008950F920FB6F8940F920BB60F924A
S1130FB00CB60F921F9211242F923F924F925F9280
S1130FC06F927F928F929F92AF92BF92CF92DF9255
S1130FD0EF92FF920F931F932F933F934F935F933F
S1130FE06F937F938F939F93AF93BF93CF93DF932D
S1130FF0EF93FF93A0919911B0919A110DB60D92B0
S11310000EB60D920E940413A0919911B0919A11F9
S1131010CD91CDBFDD91DEBFFF91EF91DF91CF91F7
S1131020BF91AF919F918F917F916F915F914F91FC
S11310303F912F911F910F91FF90EF90DF90CF90F0
S1131040BF90AF909F908F907F906F905F904F90E4
S11310503F902F901F900F900CBE0F900BBE0F90DF
S11310600FBE0F9008950F920FB6F8940F920BB61F
S11310700F920CB60F921F9211242F923F924F920F
S11310805F926F927F928F929F92AF92BF92CF9214
S1131090DF92EF92FF920F931F932F933F934F93FF
S11310A05F936F937F938F939F93AF93BF93CF93EC
S11310B0DF93EF93FF93A0919911B0919A110DB61C
S11310C00D920EB60D9213BE0E947C1081110E94E7
S11310D00413A0919911B0919A11CD91CDBFDD91D6
S11310E0DEBFFF91EF91DF91CF91BF91AF919F91BF
S11310F08F917F916F915F914F913F912F911F91AC
S11311000F91FF90EF90DF90CF90BF90AF909F90A2
S11311108F907F906F905F904F903F902F901F9093
S11311200F900CBE0F900BBE0F900FBE0F90089542
S11311309ADF18950FB6F8940F92FC01868D8111F1
S113114002C081E001C080E00F900FBE08950FB689
S1131150F8940F92FC01268D878D281302C081E03C
S113116001C080E00F900FBE08950F931F93CF939B
S1131170DF93EC01042F1E8D48A141110CC088811E
S11311809981892B09F042C08C819D810E94E315CD
S11311901D821C8242C0011117C050E08A819B81CC
S11311A00E94D02E28A18A819B81820F911D9B834E
S11311B08A832C813D818217930750F1888199811C
S11311C09B838A8380E029C050E08E819F810E94A6
S11311D0D02E88A190E09195819591092E813F812F
S11311E0280F391F3F832E834881598124173507DF
S11311F030F42C813D81820F931F9F838E830230B4
S113120049F4112349F0115080E007C080E005C083
S113121080E003C080E001C080E01F5F1E8FDF918B
S1131220CF911F910F910895FC0140A14423A9F08F
S113123050E026813781240F351F3783268384812C
S113124095812817390720F08081918197838683BF
S1131250CB01668177810C94D02E08951F93CF9390
S1131260DF93EC010FB6F8940F921AA10BC08B898F
S1131270882351F0CE0143960E940C1481110E94E0
S1131280CC15115011169CF38FEF8AA30F900FBE4B
S11312900FB6F8940F9219A10BC08885882351F0DA
S11312A0CE0108960E940C1481110E94CC15115095
S11312B011169CF38FEF89A30F900FBEDF91CF918E
S11312C01F910895CF93DF93EC010FB6F8940F921A
S11312D0E881F9818F8D28A190E030E0829FA00100
S11312E0839F500D929F500D11244E0F5F1F5D83FD
S11312F04C831E8EFB83EA830197289FA001299FBC
S1131300500D389F500D1124CF01840F951F9F83DA
S11313108E838FEF89A38AA361110BC088858823EC
S113132071F0CE0108960E940C14882341F03ADE35
S113133006C0CE01089668DDCE01439665DD0F90A8
S11313400FBE81E0DF91CF9108950F931F93F801B1
S1131350611103C01183008302C051834083878FCE
S113136060A361E0CF01AEDF1F910F910895DF927A
S1131370EF92FF920F931F93CF93DF93F82EE62EF5
S1131380D42E869FC0011124839658DCEC0100976B
S113139041F08C012D2DAC014D5D5F4F6E2D8F2DD5
S11313A0D4DFCE01DF91CF911F910F91FF90EF9089
S11313B0DF900895CF92DF92EF92FF920F931F93E5
S11313C0CF93DF93CDB7DEB729970FB6F894DEBF7E
S11313D00FBECDBF7C016B012E833F8348875987A5
S11313E010E00FB6F8940F92F701968D878D981739
S11313F010F00230B1F4402FB601C701B6DEF70198
S11314009389992341F0C70143960E940C148823C1
S113141021F0C8DD02C08111C5DD0F900FBE81E04F
S113142049C08E819F81A885B985892B8A2B8B2BF6
S113143021F40F900FBE80E03DC0111105C0CE0114
S113144001960E94551511E00F900FBE41D60FB6BC
S1131450F8940F92F70181A18F3F09F411A2F701CB
S113146082A18F3F09F412A20F900FBEBE016A5FE2
S11314707F4FCE0101960E946615811117C0C701E6
S113148066DE882379F04E815F8168857985C7019E
S113149008960E946913C701E1DE5AD78111A1CFD2
S11314A081DD9FCFC701DADE53D79BCFC701D6DEDC
S11314B04FD780E029960FB6F894DEBF0FBECDBF9C
S11314C0DF91CF911F910F91FF90EF90DF90CF901C
S11314D008950F93009769F0FC011582148211821C
S11314E01082168200E020E030E0A90160E070E0A4
S11314F061DF0F910895CF93DF93482F60E081E07F
S113150036DFEC01E6DFCE01DF91CF910895EF9253
S1131510FF920F931F93CF93DF938A01FC01568DA3
S1131520378D531710F02230F9F4422F7801EC0173
S11315301AA18E8DCE0119DE1F3F81F48B89882379
S1131540A9F0CE0143960E940C14882389F0E1147B
S1131550F10481F081E0F70180830DC0FF24F3944E
S1131560F10EFAA281E007C080E005C081E003C06B
S113157081E001C081E0DF91CF911F910F91FF9035
S1131580EF900895CF92DF92EF92FF920F931F9303
S1131590CF93DF93CDB7DEB729970FB6F894DEBFAC
S11315A00FBECDBF8C016B012E833F8348875987C3
S11315B0E12C0FB6F8940F92F801F68CFF2099F005
S11315C0B601C80131DEFA94F801F68E80858823CD
S11315D031F0C80108960E940C148111E3DC0F90CD
S11315E00FBE81E04FC08E819F81A885B985892B6C
S11315F08A2B8B2B21F40F900FBE80E043C0E110A7
S113160006C0CE0101960E945515EE24E3940F9076
S11316100FBE5ED50FB6F8940F92F80181A18F3FEB
S113162009F411A2F80182A18F3F09F412A20F90CC
S11316300FBEBE016A5F7F4FCE0101960E94661500
S1131640811117C0C80176DD882379F04E815F814E
S113165068857985C80143960E946913C801FEDD37
S113166077D68111A6CF9EDCA4CFC801F7DD70D652
S1131670A0CFC801F3DD6CD6C8015CDD882309F472
S113168098CF80E029960FB6F894DEBF0FBECDBF89
S1131690DF91CF911F910F91FF90EF90DF90CF904A
S11316A00895CF93DF93EC010FB6F8940F9289A1BC
S11316B08F3F09F419A28AA18F3F09F41AA20F904F
S11316C00FBE8E8D811104C0CE0143960E94CA13B1
S11316D0CE01C4DDDF91CF910895FC014481558191
S11316E022813381240F351F80819181B901681BC8
S11316F0790BCB016417750710F0841B950B0895C3
S11317000F93FC018FE0DF011D928A95E9F775873D
S11317106487558344833783268306870F9108950E
S1131720AF92BF92CF92DF92EF92FF920F931F93EB
S1131730CF93DF936C015B017A01FC01C281D381F9
S1131740048115810C1B1D0B4017510708F48A01F5
S1131750F60184859585A801B5018C0F9D1F0E9413
S1131760D02E0E151F0558F4A701401B510BB501CF
S1131770600F711FF601848595850E94D02ECE01DD
S11317808E0D9F1DF601248135818217930710F079
S1131790821B930BF60193838283C701DF91CF9160
S11317A01F910F91FF90EF90DF90CF90BF90AF907B
S11317B00895CF92DF92EF92FF920F931F93CF93EE
S11317C0DF931F921F92CDB7DEB77C016B015A8362
S11317D0498321153105C1F0FC01868580FD08C0CF
S11317E04217530708F49A013A83298381E00FC012
S11317F02017310758F042E050E0BE016F5F7F4F81
S1131800C7018EDF81E003C080E001C080E088234F
S113181031F049815A81B601C70182DF02C080E0FC
S113182090E00F900F90DF91CF911F910F91FF9057
S1131830EF90DF90CF900895AF92BF92CF92DF9256
S1131840EF92FF920F931F93CF93DF937C015B0181
S1131850E9014217530708F4EA01209781F1F701DF
S11318600081118184819581801B910B6E018C17FD
S11318709D0708F46C01F70164857585600F711F7D
S1131880A601C5010E94D02ECC16DD0658F4AE0187
S11318904C195D09F70164857585C5018C0D9D1D85
S11318A00E94D02E0C0F1D1FF7018481958108170B
S11318B0190710F0081B190BF70111830083CE01DF
S11318C0DF91CF911F910F91FF90EF90DF90CF9018
S11318D0BF90AF9008956F927F928F929F92AF9234
S11318E0BF92CF92DF92EF92FF920F931F93CF9309
S11318F0DF931F921F92CDB7DEB76C014B015A01E3
S1131900790101151105B1F0FC0160807180A80115
S1131910BE016F5F7F4F90DF89819A81E01AF10ADF
S1131920A816B90630F4F60171826082A12CB12C9C
S113193001C05C019701A501B401C6017DDF0F90D0
S11319400F90DF91CF911F910F91FF90EF90DF9057
S1131950CF90BF90AF909F908F907F906F9008959D
S1131960CF92DF92EF92FF920F93CF93DF93EC012C
S11319706B01413011F401E001C000E0C114D10455
S113198019F4CC24C394D12CCE014096C817D9079E
S113199020F4219653D97C0102C0E12CF12CE114EE
S11319A0F10439F09601AE01B701615F7F4FC701C1
S11319B0A7DEC701DF91CF910F91FF90EF90DF90E9
S11319C0CF9008950F930FB6F8940F92FC012085E1
S11319D03185232B71F422853385232B61F42681F1
S11319E037814481558164857585068589DE81E06A
S11319F003C080E001C080E00F900FBE0F910895F6
S1131A00FC012481358180819181820F931F428161
S1131A105381841B950B01978217930710F0821B47
S1131A20930B0895AF92BF92CF92DF92EF92FF9201
S1131A300F931F93CF93DF93EC017B015A0169014C
S1131A408E8580FF04C08A010E5F1F4F01C08A018A
S1131A50CE01D6DF9C01A501B701CE01AADE5C014F
S1131A60892BC1F0CE0139DE2E813F818217930785
S1131A7088F088859985892B69F088859985E12C7A
S1131A80F12C00E020E030E0A90160E00E9406189B
S1131A9019861886C501DF91CF911F910F91FF9090
S1131AA0EF90DF90CF90BF90AF9008954F925F92E8
S1131AB06F927F928F929F92AF92BF92CF92DF925A
S1131AC0EF92FF920F931F93CF93DF93EC012B01BF
S1131AD03A01580169018E8580FF05C06894882405
S1131AE081F8912C02C0812C912CA114B104C10461
S1131AF0D10441F10FB6F8940F92CE01EEDD7C01D2
S1131B008816990648F060E080E090E00E94281969
S1131B100E94D015998788870F900FBE8E149F045A
S1131B20A0F0E12CF12C00E010E0980140E050E03E
S1131B30BA0180E00E94681619861886CE01CDDDB0
S1131B407C0103C0CE01C9DD7C018E149F04E8F43E
S1131B5084019701A301B201CE01BDDE6C01892B82
S1131B60B1F0B6D28A859B85892B69F08A859B85DD
S1131B70E12CF12C00E020E030E0A90160E00E94BB
S1131B800F171B861A86E4D302C0C12CD12CC601C0
S1131B90DF91CF911F910F91FF90EF90DF90CF9045
S1131BA0BF90AF909F908F907F906F905F904F9079
S1131BB00895E0911311F0911411808181110CC0EA
S1131BC08FEF9FEFDC018093DD109093DE10A093E4
S1131BD0DF10B093E0100895E0911311F091141107
S1131BE00780F085E02D80819181A281B38180936B
S1131BF0DD109093DE10A093DF10B093E0100895F1
S1131C00CF93DF93EC018B8D9C8DC1D8CE01BFD8CF
S1131C10DF91CF9108954F925F926F927F928F924E
S1131C209F92AF92BF92CF92DF92EF92FF920F9367
S1131C30CF93DF932C015B014A013901E60165EA88
S1131C4070E08B8D9C8D0E94D92E8B8D9C8D21E014
S1131C50821A9108880E991EA114B10489F415C042
S1131C60822F90E0F501E80FF91F3081DE01A80F03
S1131C70B91F5D963C938081882329F02F5F01C0B2
S1131C8020E0203168F31CA601C01D8E0A3008F044
S1131C9009E00A8F0DA71EA6CE010296C6D8CE0172
S1131CA00E96C3D8DB87CA878AE090E0A0E0B0E054
S1131CB0801B9109A109B1098E879F87A88BB98BD5
S1131CC0DF8BCE8B84E0FE01BF96DF011D928A95E7
S1131CD0E9F71BAAA301B201C4011BD99983888324
S1131CE0E114F10419F0F701D183C083DF91CF919E
S1131CF00F91FF90EF90DF90CF90BF90AF909F90A7
S1131D008F907F906F905F904F900895CF93C0E035
S1131D1008C02BE0C29FC0011124855D9E4E74D87B
S1131D20CF5FCA30B0F380E291E16ED885E191E1F2
S1131D306BD886E091E168D88BEF90E165D88FEE9F
S1131D4090E162D880E291E1909314118093131191
S1131D5085E191E19093121180931111CF9108952F
S1131D60CF93DF93EC010FB6F8940F928091EE10AD
S1131D708F5F8093EE108091991190919A11892B25
S1131D8051F4D0939A11C09399118091EE1081303F
S1131D9091F4BCDF10C08091E81081110CC0E09177
S1131DA09911F0919A11928D8A8D891720F0D09310
S1131DB09A11C09399118091E1108F5F8093E11083
S1131DC0EA8D8091E9108E1710F4E093E9108BE00E
S1131DD08E9FF0011124E55DFE4E0180F281E02D1D
S1131DE0FF83EE832681378139872887A681B781CF
S1131DF09E012E5F3F4F15963C932E931497378385
S1131E002683EA8D8E9FF0011124E55DFE4EFD8749
S1131E10EC8780818F5F80830F900FBE8091E810E4
S1131E20882349F0E0919911F0919A11928D8A8D4D
S1131E30981708F4B7D8DF91CF910895CF93DF9323
S1131E401AC00FB6F8940F92E0910211F0910311A9
S1131E50C085D185CE01029629D88091EE1081509B
S1131E608093EE108091FA1081508093FA100F90B5
S1131E700FBECE01C5DE8091FA108111E2CFDF9151
S1131E80CF9108958F929F92AF92BF92CF92DF929B
S1131E90EF92FF92CF93DF936B017C01C42F80906C
S1131EA0EA109090EB10A090EC10B090ED1080919F
S1131EB0991190919A1102960E9456078FEFC816B5
S1131EC0D806E806F806B1F5CC23A1F1EFEEF0E16F
S1131ED0A181B281C0919911D0919A11BF83AE832F
S1131EE0C0919911D0919A1116968D919C91179742
S1131EF0998788871696CD91DC91179780919911CF
S1131F0090919A1102969D838C838091991190915E
S1131F109A11029617969C938E931697A0919911F5
S1131F20B0919A111D96FC93EE931C9780818F5F5C
S1131F3080833FC0C80CD91CEA1CFB1CE09199119A
S1131F40F0919A11C282D382E482F582C814D90432
S1131F50EA04FB0468F46091991170919A118091DC
S1131F601111909112116E5F7F4F0E94190721C0C9
S1131F706091991170919A1180911311909114119B
S1131F806E5F7F4F0E9419078091DD109091DE10E3
S1131F90A091DF10B091E010C816D906EA06FB063E
S1131FA040F4C092DD10D092DE10E092DF10F09287
S1131FB0E010DF91CF91FF90EF90DF90CF90BF9032
S1131FC0AF909F908F9008952F923F924F925F927F
S1131FD06F927F928F929F92AF92BF92CF92DF9235
S1131FE0EF92FF920F93CF93DF933C011B014A01C1
S1131FF02901CA010E941E066C01892B71F084E339
S113200090E00E941E06EC01892B19F0DC8ECB8E29
S113201006C0C6010E94C70602C0C0E0D0E02097F7
S113202061F0A12CB12C6E019201A401B101C30194
S1132030F2DDCE0195DE81E001C08FEFDF91CF911B
S11320400F91FF90EF90DF90CF90BF90AF909F9053
S11320508F907F906F905F904F903F902F90089556
S1132060EF92FF920F930F2EFBEDEF2EF0E1FF2E78
S1132070F02D00E020E030E040EC50E06DE274E050
S11320808EE491E0A1DF813011F40E94CC198130FB
S1132090C9F4F8948FEF9FEFDC018093DD109093E7
S11320A0DE10A093DF10B093E01081E08093E8107D
S11320B01092EA101092EB101092EC101092ED10A6
S11320C00E94A007809106020F91FF90EF9008955F
S11320D08091DA108F5F8093DA1008950FB6F89428
S11320E00F926091EA107091EB108091EC10909136
S11320F0ED100F900FBE0895CF92DF92EF92FF92F2
S1132100CF93DF938091DA10811105C1C090EA105A
S1132110D090EB10E090EC10F090ED108FEFC81A17
S1132120D80AE80AF80AC092EA10D092EB10E092BA
S1132130EC10F092ED10C114D104E104F104B1F4F7
S11321408091131190911411209111113091121159
S11321503093141120931311909312118093111141
S11321608091E2108F5F8093E21023DD8091DD1077
S11321709091DE10A091DF10B091E010C816D9063E
S1132180EA06FB0620F480E0B2C081E001C080E0F2
S1132190E0911311F0911411908191110CC04FEF43
S11321A05FEFBA014093DD105093DE106093DF10AF
S11321B07093E0109CC0E0911311F091141107800A
S11321C0F085E02D0084F185E02D42815381648106
S11321D07581C416D506E606F70648F44093DD106B
S11321E05093DE106093DF107093E01080C0A485DC
S11321F0B585C681D781208531853F832E83C085EF
S1132200D185268137813D832C8311964D915C9134
S113221012979F012E5F3F4F4217530731F44085B9
S1132220518512965C934E931197158614869C9152
S113223091509C93A08DB18D109709F1C289D389D7
S1132240448955895F834E83C489D58942895389DA
S11322505D834C8311966D917C911297AF01425F1F
S11322605F4F6417750731F44489558912965C935E
S11322704E931197118E108E9C9191509C93A28D28
S11322809091E9109A1710F4A093E9109BE09A9F9B
S1132290D0011124A55DBE4E11960D90BC91A02DC8
S11322A0B783A68316964D915C9117975187408703
S11322B01696CD91DC9117973D832C8317963C930A
S11322C02E931697A28D9A9FD0011124A55DBE4E20
S11322D0B587A4879C919F5F9C93228DE09199116F
S11322E0F0919A11928D291708F04FCF51CFE091B8
S11322F09911F0919A11E28D9BE0E99FF00111246C
S1132300E55DFE4E9081923008F081E09091E310FB
S1132310911116C016C08091E4109091E510A0911F
S1132320E610B091E7100196A11DB11D8093E41051
S11323309093E510A093E610B093E71080E001C0FD
S113234081E0DF91CF91FF90EF90DF90CF900895DF
S1132350CF92DF92EF92FF92CF93DF930FB6F89470
S11323600F928091DA1081508093DA108091DA1004
S11323708111BEC08091EE10811188C0BCC0E09173
S11323800D11F0910E110084F185E02DA08DB18D19
S1132390C289D389848995899F838E83C489D58989
S11323A0828993899D838C8311962D913C911297F8
S11323B0CF010E962817390731F48489958912962E
S11323C09C938E931197118E108E8C9181508C93C7
S11323D0A485B585C681D781808591859F838E83A9
S11323E0C085D185868197819D838C8311968D913B
S11323F09C9112979F012E5F3F4F8217930731F4F0
S11324008085918512969C938E93119715861486D8
S11324108C9181508C93A28D8091E9108A1710F4CD
S1132420A093E9108BE08A9FD0011124A55DBE4ED4
S113243011960D90BC91A02DB783A68316964D914D
S11324405C911797518740871696CD91DC91179729
S11324503D832C8317963C932E931697A28D8A9FC7
S1132460D0011124A55DBE4EB587A4878C918F5FE2
S11324708C93928DA0919911B0919A115A968C9146
S1132480981730F081E08093E31002C0E0E0F0E0C0
S113249080910611811173CFEF2B09F08ADBC09074
S11324A0E410D090E510E090E610F090E710C1142D
S11324B0D104E104F104A1F01FDE882319F081E0C6
S11324C08093E31081E0C81AD108E108F108A1F76C
S11324D01092E4101092E5101092E6101092E7109A
S11324E08091E310882331F00E94D20781E003C079
S11324F080E001C080E00F900FBEDF91CF91FF908C
S1132500EF90DF90CF9008958F929F92AF92BF92F9
S1132510CF92DF92EF92FF921F93CF93DF93EC0160
S11325206A017B01D5DD8090EA109090EB10A090B9
S1132530EC10B090ED1088819981AA81BB81AC0127
S1132540BD014C0D5D1D6E1D7F1D88169906AA06E2
S1132550BB0660F4481759076A077B0798F484168A
S11325609506A606B70680F010E013C04817590771
S11325706A077B0758F084169506A606B70640F04E
S113258010E007C010E005C011E003C011E001C075
S113259011E0488359836A837B83112341F0CB0183
S11325A0BA01681979098A099B0940E06BDCD0DE1D
S11325B0811102C00E94D207812FDF91CF911F9118
S11325C0FF90EF90DF90CF90BF90AF909F908F904F
S11325D00895CF92DF92EF92FF926B017C01672BFB
S11325E0682B692B39F074DD40E0C701B6014ADC81
S11325F0AFDE01C080E0811102C00E94D207FF90CB
S1132600EF90DF90CF9008958091DA10882321F025
S113261081E08093E31008951092E310E091991102
S1132620F0919A1120813181E0919911F0919A11E0
S1132630838D948D8217930760F060919911709146
S11326409A11635E7F4F8091991190919A110E9423
S11326505A1C8091E91001C08150282F30E09BE082
S1132660929FF001939FF00D1124E55DFE4E908141
S1132670992391F39BE0929FA001939F500D112405
S1132680DF010180F281E02D0480F581E02D1296B6
S1132690FC93EE931197425D5E4EE417F50729F41F
S11326A044815581FD01528341839BE0929FF00157
S11326B0939FF00D1124E55DFE4E0180F281E02D23
S11326C02085318530939A11209399118093E910D4
S11326D00895CF92DF92EF92FF926A017B0160919D
S11326E0991170919A11625F7F4F0E94190741E01E
S11326F0C701B601C7DBFF90EF90DF90CF9008953C
S11327000F931F93CF93DF93FC01A0919911B09184
S11327109A1170681E964D935D936D937C935197B7
S1132720A181B281C0919911D0919A11BB8BAA8BCE
S1132730C0919911D0919A1116968D919C911797E9
S11327409D8B8C8B1696CD91DC9117978091991166
S113275090919A110E969D838C83809199119091FA
S11327609A110E9617969C938E931697A091991191
S1132770B0919A115996FC93EE93589780818F5F8C
S1132780808341E0C901B8017DDBDF91CF911F91C6
S11327900F910895CF93DF93FC01CB01BA01A1817E
S11327A0B281C0919911D0919A11BB8BAA8BC0911F
S11327B09911D0919A1116964D915C9117975D8B52
S11327C04C8B1696CD91DC911797409199115091AD
S11327D09A11425F5F4F5D834C83409199115091F0
S11327E09A11425F5F4F17965C934E931697A09190
S11327F09911B0919A115996FC93EE9358973081A0
S11328003F5F3083222319F06FEF7FEFCB01422F1C
S113281039DBDF91CF910895CF93DF93DC011796D5
S1132820ED91FC9118970084F185E02DA08DB18D78
S1132830C289D389848995899F838E83C489D589E4
S1132840828993899D838C8311968D919C91129793
S11328509F01225F3F4F8217930731F48489958942
S113286012969C938E931197118E108E8C91815099
S11328708C938091DA10811152C0A485B585C681EC
S1132880D781808591859F838E83C085D1858681FC
S113289097819D838C8311968D919C9112979F01B2
S11328A02E5F3F4F8217930731F4808591851296EE
S11328B09C938E931197158614868C9181508C93DA
S11328C0A28D8091E9108A1710F4A093E9108BE08F
S11328D08A9FD0011124A55DBE4E11960D90BC9126
S11328E0A02DB783A68316964D915C9117975187B7
S11328F040871696CD91DC9117973D832C831796CC
S11329003C932E931697A28D8A9FD0011124A55D26
S1132910BE4EB587A4878C918F5F8C931CC046E014
S113292051E1DA011196CD91DC911297D38BC28BD0
S11329308E819F81958B848B8E819F81DC0115967E
S11329403C932E9314973F832E83518F408FDA014B
S11329508C918F5F8C93928DE0919911F0919A11E3
S1132960828D891720F481E08093E31001C080E018
S1132970DF91CF910895CF93DF93DC0170684D937D
S11329805D936D937C9313971896ED91FC91199731
S11329901A964D915C911B9714968D919C91159765
S11329A016962D913C911797EC013F832E83169632
S11329B08D919C91179714962D913C911597EC014C
S11329C03D832C83EA0189819A81A817B90731F4E0
S11329D016968D919C9117979A8389831B961C92C6
S11329E01E921A97DA018C9181508C93A485B58537
S11329F0C681D781808591859F838E83C085D1854B
S1132A00868197819D838C8311968D919C911297D9
S1132A109F012E5F3F4F8217930731F48085918584
S1132A2012969C938E931197158614868C918150DF
S1132A308C93A28D8091E9108A1710F4A093E91069
S1132A408BE08A9FD0011124A55DBE4E11960D9096
S1132A50BC91A02DB783A68316964D915C911797D0
S1132A60518740871696CD91DC9117973D832C832F
S1132A7017963C932E931697A28D8A9FD00111240A
S1132A80A55DBE4EB587A4878C918F5F8C93928D84
S1132A90E0919911F0919A11828D891718F481E0CF
S1132AA08093E310DF91CF9108952091E210FC010F
S1132AB020834091EA105091EB106091EC107091DA
S1132AC0ED10418352836383748308958F929F92A0
S1132AD0AF92BF92CF92DF92EF92FF920F931F9328
S1132AE0CF93DF93FB010FB6F8940F92C090EA10D6
S1132AF0D090EB10E090EC10F090ED10DC0111960A
S1132B000D911D912D913C91149746015701801A06
S1132B10910AA20AB30A40815181628173814F3FB5
S1132B20BFEF5B076B077B0739F1EC01B881A0911C
S1132B30E210BA1759F0C016D106E206F30630F0D7
S1132B40108211821282138281E017C084169506C6
S1132B50A606B70658F4481959096A097B0940833F
S1132B60518362837383A1DF80E007C010821182E6
S1132B701282138281E001C080E00F900FBEDF91CA
S1132B80CF911F910F91FF90EF90DF90CF90BF9066
S1132B90AF909F908F90089581E08093E310089503
S1132BA08091991190919A1108958091E810882349
S1132BB031F08091DA10811104C082E0089581E03F
S1132BC0089580E008950F931F93CF93DF93FC0142
S1132BD0892B09F449C086A5815086A7228D95A525
S1132BE0291709F443C0811143C0EF018F010E5F1F
S1132BF01F4FC8010E945607EDA5EA8F8AE090E0B6
S1132C00A0E0B0E08E1B9109A109B1098E879F87CE
S1132C10A88BB98B8091E9108E1710F4E093E9101A
S1132C208BE08E9FF0011124E55DFE4E0180F28160
S1132C30E02DFF83EE832681378139872887A6819B
S1132C40B78115961C930E93149717830683EA8D08
S1132C508E9FF0011124E55DFE4EFD87EC87808197
S1132C608F5F808381E005C080E003C080E001C005
S1132C7080E0DF91CF911F910F910895CF92DF9261
S1132C80EF92FF92E0919911F0919A116685778500
S1132C9080899189E0919911F0919A11A0919911EB
S1132CA0B0919A115A962C910F2EFAE0CF2ED12C76
S1132CB0E12CF12CF02DC21AD108E108F108C686E6
S1132CC0D786E08AF18AFF90EF90DF90CF90089545
S1132CD04F925F926F927F92AF92BF92CF92DF92A8
S1132CE0EF92FF920F931F93CF93DF932801390143
S1132CF00FB6F8940F92E0919911F0919A11C82FA0
S1132D00D0E0EC0FFD1F83A9823071F1E09199119D
S1132D10F0919A11CE01880F991F880F991FE80F1F
S1132D20F91F87A590A9A1A9B2A9409550956095CE
S1132D307095482359236A237B2347A750AB61AB83
S1132D4072ABE0919911F0919A11EC0FFD1F81E0A3
S1132D5083ABA114B104C104D10431F041E0C60134
S1132D60B50190D80E94D2070F900FBE0FB6F89409
S1132D700F92E114F104A1F0E0919911F0919A11EC
S1132D80CE01880F991F880F991FE80FF91F87A597
S1132D9090A9A1A9B2A9F70180839183A283B383E7
S1132DA0E0919911F0919A11EC0FFD1F83A98230E3
S1132DB0E9F4E0919911F0919A11CE01880F991FCD
S1132DC0880F991FE80FF91F87A590A9A1A9B2A997
S1132DD04094509460947094482259226A227B2231
S1132DE047A650AA61AA72AA81E001C080E020919E
S1132DF0991130919A11C20FD31F1BAA0F900FBEC5
S1132E00DF91CF911F910F91FF90EF90DF90CF90C2
S1132E10BF90AF907F906F905F904F9008958F9286
S1132E209F92AF92BF92EF92FF920F93CF93DF9353
S1132E30DC010FB6F8940F92E114F10489F0E62F47
S1132E40F0E0EE0FFF1FEE0FFF1FE80FF91F87A43E
S1132E5090A8A1A8B2A8F70180829182A282B3822D
S1132E6070E0FD01E60FF71F83A992E093AB0230F7
S1132E7001F118F4013031F04DC0033079F1043020
S1132E80D1F148C0660F771F660F771FFD01E60F6B
S1132E90F71F87A490A8A1A8B2A8BA01A90148293C
S1132EA059296A297B2947A750AB61AB72AB01E072
S1132EB034C0660F771F660F771FFD01E60FF71FFB
S1132EC047A550A961A972A94F5F5F4F6F4F7F4F0C
S1132ED047A750AB61AB72AB01E01FC0660F771F11
S1132EE0660F771FFD01E60FF71F27A730AB41AB35
S1132EF052AB01E012C0823079F0660F771F660F83
S1132F00771FFD01E60FF71F27A730AB41AB52AB8C
S1132F1001E003C001E001C000E0813009F069C0B4
S1132F201C96ED91FC911D971696CD91DC91179707
S1132F3018968D919C9119979F838E831896CD91A5
S1132F40DC91199716968D919C9117979D838C838C
S1132F50818192819D012E5F3F4F8217930731F447
S1132F6018968D919C911997928381831D961C923A
S1132F701E921C978081815080835A96EC915A97B7
S1132F808091E9108E1710F4E093E9108BE08E9F86
S1132F90F0011124E55DFE4E0180F281E02D1796CB
S1132FA0FC93EE9316974681578119965C934E9342
S1132FB01897C681D7813D832C83378326835A96FD
S1132FC0EC915A978E9FF0011124E55DFE4E1D96FB
S1132FD0FC93EE931C9780818F5F80835A969C911B
S1132FE0E0919911F0919A11828D891710F40E9441
S1132FF0D2070F900FBE802FDF91CF910F91FF90DA
S1133000EF90BF90AF909F908F9008958F929F9272
S1133010AF92BF92CF92DF92EF92FF920F93CF9332
S1133020DF93DC01E114F10489F0E62FF0E0EE0F08
S1133030FF1FEE0FFF1FE80FF91F87A490A8A1A898
S1133040B2A8F70180829182A282B38270E0FD016E
S1133050E60FF71F93A982E083AB023001F118F465
S1133060013031F04DC0033079F10430D1F148C062
S1133070660F771F660F771FFD01E60FF71F87A402
S113308090A8A1A8B2A8BA01A901482959296A2976
S11330907B2947A750AB61AB72AB81E034C0660FAC
S11330A0771F660F771FFD01E60FF71F47A550A98D
S11330B061A972A94F5F5F4F6F4F7F4F47A750AB16
S11330C061AB72AB81E01FC0660F771F660F771F7D
S11330D0FD01E60FF71F27A730AB41AB52AB81E0F0
S11330E012C0923079F0660F771F660F771FFD01CB
S11330F0E60FF71F27A730AB41AB52AB81E003C00B
S113310081E001C080E0913009F096C09091DA101E
S113311091115FC01C96ED91FC911D971696CD916F
S1133120DC91179718962D913C9119973F832E8324
S11331301896CD91DC91199716962D913C9117977D
S11331403D832C83418152819D012E5F3F4F421765
S1133150530731F418964D915C911997528341832A
S11331601D961C921E921C979081915090835A96A2
S1133170EC915A979091E9109E1710F4E093E9109E
S11331809BE09E9FF0011124E55DFE4E0180F281DB
S1133190E02D1796FC93EE93169746815781199666
S11331A05C934E931897C681D7813D832C833783D4
S11331B026835A96EC915A979E9FF0011124E55D5F
S11331C0FE4E1D96FC93EE931C9790819F5F908317
S11331D021C066E071E1FB01C181D2815396DC9389
S11331E0CE9352972E813F8155963C932E935497BC
S11331F04E815F819D01225F3F4FFA013583248315
S11332003F832E8359967C936E935897FB0190814C
S11332109F5F90835A962C91E0919911F0919A11A5
S1133220928D921748F4C114D10419F091E0F6017B
S1133230908391E09093E310DF91CF910F91FF90F1
S1133240EF90DF90CF90BF90AF909F908F900895B4
S1133250009721F48091991190919A110FB6F894E6
S11332600F9270E0FC01E60FF71F23A9223031F41E
S1133270FC01E60FF71F13AA81E001C080E00F9064
S11332800FBE0895DC01E091A511F091A611808193
S113329091E0811190E09C93911108C00780F08522
S11332A0E02D6081718182819381089560E070E0F6
S11332B0CB010895CF92DF92EF92FF920F931F9369
S11332C0FC01428353836483758393878287041745
S11332D0150726073707C0F00C191D092E093F09E9
S11332E086859785A089B189081719072A073B079E
S11332F000F5BF016E5F7F4F8091A3119091A411DF
S11333000E94190780E018C00C151D052E053F0505
S113331028F44C155D056E057F0568F4BF016E5FEA
S11333207F4F8091A5119091A6110E94190780E00A
S113333003C081E001C081E01F910F91FF90EF90E5
S1133340DF90CF9008950FB6F8940F928091A11159
S11333509091A211892BE9F482EB91E10E94040778
S113336087EA91E10E94040782EB91E19093A61110
S11333708093A51187EA91E19093A4118093A311FE
S113338040E067E08AE00E94B7099093A21180931D
S1133390A1110F900FBE0895EF92FF920F93D3DF08
S11333A08091A1119091A211892B91F00F2EFFE928
S11333B0EF2EF1E1FF2EF02D03E020E030E040ECB1
S11333C050E062E374E088E591E00E94E40F01C0FC
S11333D080E00F91FF90EF9008958F929F92AF92AB
S11333E0BF92CF92DF92EF92FF920F931F93CF93EE
S11333F0DF93CDB7DEB727970FB6F894DEBF0FBEC5
S1133400CDBFE091A111F091A211309781F16983B0
S11334102A833B834C835D839F838E836630F4F4DD
S1133420C4DB823069F400E0A7019601BE016F5F3E
S11334307F4F8091A1119091A2110E94DA0918C0C6
S113344000E020E030E0A901BE016F5F7F4F809172
S1133450A1119091A2110E94DA090AC020E0A801EA
S1133460BE016F5F7F4FCF010E94870A01C080E0D9
S113347027960FB6F894DEBF0FBECDBFDF91CF9174
S11334801F910F91FF90EF90DF90CF90BF90AF907E
S11334909F908F9008958F929F92AF92BF92CF92F8
S11334A0DF92EF92FF920F931F93CF93DF933BC072
S11334B00780F085E02D80809180A280B380C08554
S11334C0D1858E010E5F1F4FC8010E945607EC89FB
S11334D0FD89CE0119958E8982FF25C08E859F8531
S11334E0A889B989880D991DAA1DBB1D881699063E
S11334F0AA06BB0670F48A839B83AC83BD83DB87F7
S1133500CA87B8018091A5119091A6110E9419074C
S11335100AC0C12CD12C760100E010E0A501940171
S113352060E0CE015ADFE091A511F091A6118081EF
S11335308111BECF8091A3119091A4119093A611F3
S11335408093A511F093A411E093A311DF91CF917F
S11335501F910F91FF90EF90DF90CF90BF90AF90AD
S11335609F908F900895CF92DF92EF92FF92CF9326
S1133570DF93EC010E946E106B017C0180919B1122
S113358090919C11A0919D11B0919E11C816D906DD
S1133590EA06FB0620F47FDF81E0888301C01882FD
S11335A0C0929B11D0929C11E0929D11F0929E11B9
S11335B0C701B601DF91CF91FF90EF90DF90CF90DC
S11335C008954F925F926F927F928F929F92AF92E3
S11335D0BF92CF92DF92EF92FF920F931F93CF93FC
S11335E0DF934B015C0129013A01E091A511F091AF
S11335F0A6110780F085E02DC085D185CE01029605
S11336000E9456078E8982FF1BC04E855F8568899C
S11336107989480D591D6A1D7B1D7501640193014B
S11336208201CE0147DE882369F0C12CD12C7601BA
S113363000E010E0A501940160E0CE01CEDE02C0FE
S11336408E7F8E8BEC89FD89CE011995DF91CF9108
S11336501F910F91FF90EF90DF90CF90BF90AF90AC
S11336609F908F907F906F905F904F9008958F926E
S11336709F92AF92BF92CF92DF92EF92FF921F93ED
S1133680CF93DF931F92CDB7DEB76B017C01142F6C
S11336900E946810CE01019666DF4B015C018981AE
S11336A081112DC011110DC08C149D04AE04BF04F2
S11336B040F00E94A811A5019401C701B60181DF61
S11336C020C0112341F0E091A311F091A411808155
S11336D011E0811110E0B701A601481959096A09DE
S11336E07B09212F8091A1119091A2110E94510B6D
S11336F00E94A811811105C00E94D20702C00E9435
S1133700A8110F90DF91CF911F91FF90EF90DF9060
S1133710CF90BF90AF909F908F900895AF92BF923B
S1133720CF92DF92EF92FF920F931F93CF93DF9389
S1133730CDB7DEB728970FB6F894DEBF0FBECDBF66
S113374082C0898188230CF47EC0AE80BF80D501FD
S11337501C968D919C911D97892B21F0C501029691
S11337600E945607CE010896FEDE8B019C01E9817A
S11337700E2E000CFF0BEA30F10508F064C0882718
S1133780EE58FF4F8F4F0C94C02CF5018689816051
S1133790868BCA80DB80EC80FD80468557856089F6
S11337A071894C0D5D1D6E1D7F1DC50183DD882350
S11337B009F449C0D5015496ED91FC915597C50182
S11337C01995F501868982FF3EC04A815B816C812F
S11337D07D8186859785A089B1899A01AB01280FDF
S11337E0391F4A1F5B1FC12CD12C760100E010E069
S11337F060E0C501F2DD27C0D50156968C9156973D
S11338008E7F56968C931FC0F50186898160868BC6
S11338104A815B816C817D8146875787608B718B80
S1133820400F511F621F731F68017901C50142DDFA
S11338300AC0F501868981FD04C0C5010E94C7063E
S113384002C08E7F868B20E030E0A901BE016F5F4D
S11338507F4F8091A1119091A2110E94C20A8111FF
S113386070CF28960FB6F894DEBF0FBECDBFDF91A0
S1133870CF911F910F91FF90EF90DF90CF90BF9069
S1133880AF900895089584B1806884B985B1806843
S113389085B9089583B1806883B90895F4DF2FEF63
S11338A080E792E0215080409040E1F700C00000A2
S11338B0F1DFF5CFE8DF2FEF87EA91E62150804072
S11338C09040E1F700C00000E5DFF5CF6091BD1145
S11338D07091BE1121E030E040E050E083E090E0E0
S11338E00E94B3029093B9128093B8126091BD11F3
S11338F07091BE1122E030E040E050E083E090E0BF
S11339000E9401029093BD128093BC1208950F93FC
S11339108091BA129091BB12892B89F481E00E94A4
S11339207B0A9093BB128093BA12009741F000E097
S113393020E030E0A90160E070E00E94DA09C6DF0F
S11339404091BC125091BD126091B8127091B9129D
S113395084E090E00E942D040F9108950E946A046F
S11339609093BE118093BD1180E00E94E92560E030
S113397070E081E0B3D2CBCF0895F0DF0E94301025
S1133980FFCFFA01DC01AA0FBB1F9B01AC01BF579B
S113399028F422273327442750781FC0B75188F4CE
S11339A0AB2F0024469537952795011CA395D2F398
S11339B0002069F0220F331F441FB395DAF30DD0B2
S11339C013C061307105A0E88A07B94630F49B0141
S11339D0AC016627772788279078309621F02083DA
S11339E031834283538308955058BB27AA270ED0AE
S11339F077C068D030F06DD020F031F49F3F11F4DF
S1133A001EF45DC00EF4E095E7FB53C0E92F79D0B6
S1133A1080F3BA17620773078407950718F071F4E7
S1133A209EF591C00EF4E0950B2EBA2FA02D0B013C
S1133A30B90190010C01CA01A0011124FF27591BEF
S1133A4099F0593F50F4503E68F11A16F040A22FF5
S1133A50232F342F4427585FF3CF46953795279566
S1133A60A795F0405395C9F77EF41F16BA0B620B65
S1133A70730B840BBAF09150A1F0FF0FBB1F661FAC
S1133A80771F881FC2F70EC0BA0F621F731F841FEF
S1133A9048F4879577956795B795F7959E3F08F015
S1133AA0B3CF9395880F08F09927EE0F97958795D4
S1133AB0089597F99F6780E870E060E008959FEFAC
S1133AC080EC089500240A941616170618060906B1
S1133AD0089500240A941216130614060506089580
S1133AE0092E0394000C11F4882352F0BB0F40F408
S1133AF0BF2B11F460FF04C06F5F7F4F8F4F9F4F48
S1133B00089557FD9058440F551F59F05F3F71F0C9
S1133B104795880F97FB991F61F09F3F79F0879530
S1133B200895121613061406551FF2CF4695F1DFB9
S1133B3008C0161617061806991FF1CF8695710549
S1133B40610508940895E894BB2766277727CB017D
S1133B5097F908956530F1F4FA0180818F7390E04C
S1133B60982F88272181822B90930A02809309023F
S1133B708281F0E48F9FC0011124FA0123812695EC
S1133B802695822B909308028093070281E080930C
S1133B90BF110895643051F080E090E490930802DE
S1133BA08093070290930A028093090208950F9369
S1133BB01F930AEA1DE120E034E244EF50E060E0A4
S1133BC087E20E9423269093C1118093C01121E0C3
S1133BD0892B09F020E0822F1F910F910895809185
S1133BE0C0119091C111009759F040E060E070E07D
S1133BF00E947426843031F41092BF1180E008953D
S1133C0082E0089583E008958091C0119091C111DC
S1133C10009739F064E00E94C026853021F083E0EB
S1133C20089582E0089580E00895609109027091FA
S1133C300A0280E090E00E94F52B20E030E048EC9E
S1133C4052E40E94322C20E038EF4FE756E40C9403
S1133C50552B0895EADF20E030E040E251E40E9471
S1133C60322C0E94C62BCB010895609107027091FB
S1133C70080280E090E00E94F52B20E030E045E26D
S1133C8053E40E94322C20E038EF4FE756E40E94C0
S1133C90552B20E030E040E252E4A6CE08950F9385
S1133CA01F93CF93DF931F921F92CDB7DEB78C0182
S1133CB019822DC0E091F911EC3250F481E08E0F9D
S1133CC08093F911F0E0E050FE4E8A81808302C0B7
S1133CD01092F9118A818A30D1F44091F91150E09F
S1133CE0FA01E250FE4E1082415051099E012F5FAD
S1133CF03F4F60E072E18091FC119091FD110E94B0
S1133D00120D898181110E94D2071092F911BE010E
S1133D106E5F7F4FC801C7D4882361F20F900F9064
S1133D20DF91CF911F910F9108950F931F93CF931C
S1133D30DF938C01EB018091FC119091FD110E94A5
S1133D40E20CB80182EC91E10E94102F209779F0E7
S1133D50E2ECF1E101900020E9F7319780E290E094
S1133D6091838083BE0182EC91E10E94052FE2ECF5
S1133D70F1E1DF010D900020E9F711978DE09AE061
S1133D8011969C938E9312961C9201900020E9F751
S1133D903197E25CF141AE2F82EC91E1AC016A2FE4
S1133DA08091FE119091FF1129D4811111C008E274
S1133DB015E020E030E04DE250E06AE572E18091E8
S1133DC0FC119091FD110E94560D8AE592E102C00A
S1133DD080E090E0DF91CF911F910F9108952F9291
S1133DE03F924F925F926F927F928F929F92AF9287
S1133DF0BF92CF92DF92EF92FF920F931F93CF93D4
S1133E00DF935C01FC0101900020E9F731976F0119
S1133E10C81AD90A5C2C0F2EF3ED8F2EF6E09F2ED4
S1133E20F02DE12CF12C4C2C3701F401018112818D
S1133E30E80109900020E9F72197C01BD10B3C2E23
S1133E40F9E0CF16D10458F0F4012080FEE02F12DF
S1133E5006C0B801C5010E94E02E892B09F5442D46
S1133E60351408F44C2F50E0B801C5010E94172FF7
S1133E70892B49F4F301EE0FFF1FE60DF71DED52F8
S1133E80F94F20800DC08FEFE81AF80AE3E08E0E98
S1133E90911CF1E1EF16F10439F66894222424F818
S1133EA0822DDF91CF911F910F91FF90EF90DF90C2
S1133EB0CF90BF90AF909F908F907F906F905F90C6
S1133EC04F903F902F90089530DF89CF08958091CF
S1133ED0FC119091FD110C94E20C08958F929F9225
S1133EE0AF92CF92EF920F931F93CF93C82F8B0172
S1133EF041E060E070E088EC90E00E94B00C9093A8
S1133F00FD118093FC111093FB110093FA110F2EF5
S1133F10FFE48F2EFEE19F2EF02D6894AA24A6F8CC
S1133F206894CC24C6F8E12C00E023E040E051EE94
S1133F3060E070E08C2F92D29093FF118093FE1179
S1133F40E7E0F1E0808180618083CF911F910F9140
S1133F50EF90CF90AF909F908F900895882331F089
S1133F60E8E0F1E080818F7E80830895E8E0F1E06D
S1133F70808180618083089560E070E089E594E049
S1133F80D4DEEAE5F2E101900020E9F73197EA5541
S1133F90F24181E0759708F080E00895CF93DF93B4
S1133FA0EC0160E070E08AE694E0BFDEEAE5F2E16D
S1133FB001900020E9F7EB56F24139F46AE572E129
S1133FC0CE010E94102F80E002C0188281E0DF91B0
S1133FD0CF910895FC0101900020E9F79F01215140
S1133FE031092817390729F4BC0188E994E06CCF1A
S1133FF0089589E00895FC0101900020E9F79F01EC
S1134000215131092817390729F4BC0187EA94E0C2
S11340105BCF089589E00895FC0101900020E9F741
S11340209F01215231092817390729F4BC0186EB75
S113403094E04ACF089589E0089560E070E085EF48
S113404094E042CF08950F931F93E82FF0E0EE0F12
S1134050FF1FE153F94F608171818EEF94E034DFEB
S1134060811114C008E215E020E030E04DE250E098
S11340706AE572E18091FC119091FD110E94560D48
S1134080882321F08AE592E1AADE03C08AE592E161
S1134090A6DE1F910F910895813019F06DE175E04E
S11340A002C066EF75E081E295E00ECF08959F931C
S11340B08F9382E595E09F938F938DE292E19F9396
S11340C08F930E94B92F60E070E08DE292E1FCDEF4
S11340D00F900F900F900F900F900F9008952F92C4
S11340E03F924F925F926F927F928F929F92AF9284
S11340F0BF92CF92DF92EF92FF920F931F93CF93D1
S1134100DF93CDB7DEB7A0970FB6F894DEBF0FBE2E
S1134110CDBF6FE775E08BE895E007DE60DE8111C7
S1134120A3C080E2E2E2F2E0DE01119601900D927A
S11341308A95E1F79E012F5F3F4F6901E12CF12C35
S11341400F2EF7E9AF2EF5E0BF2EF02D0DE212E1B0
S11341500F2EF0EB4F2EF5E05F2EF02D0F2EF7EC27
S11341608F2EF5E09F2EF02D0F2EF1EE6F2EF5E041
S11341707F2EF02D3E2C2F2CFF92EF92BF92AF9208
S11341801F930F930E94B92F60E070E0C801CDDD4A
S113419026DE0F900F900F900F900F900F908111CB
S11341A063C032E03E15E8F4F60183818F93828187
S11341B08F9381818F9380818F93FF92EF925F928F
S11341C04F921F930F930E94B92F60E070E0C801D3
S11341D0ACDD05DE0FB6F894DEBF0FBECDBF811196
S11341E043C02F923F929F928F921F930F930E94EE
S11341F0B92F60E070E0C80198DDF1DD0F900F90F9
S11342000F900F900F900F9081112EC02F923F921C
S11342107F926F921F930F930E94B92F60E070E01A
S1134220C80183DDDCDD0F900F900F900F900F908D
S11342300F90811119C03FEFE31AF30A84E0C80E0E
S1134240D11C98E0E916F10409F094CF60E070E025
S113425089EF95E06ADDC3DD811106C060E070E09E
S11342608AE096E062DDBBDDA0960FB6F894DEBF6F
S11342700FBECDBFDF91CF911F910F91FF90EF90B3
S1134280DF90CF90BF90AF909F908F907F906F9072
S11342905F904F903F902F900895EF92FF920F936D
S11342A01F93CF93DF93EC018B017A0181E0F4DE5D
S11342B081110DC0CE019FDE811109C0C801ACDEA1
S11342C0811105C0C70186DE811101C0B6DEDF9110
S11342D0CF911F910F91FF90EF90089590E0FC0112
S11342E0EE0FFF1F8E0F9F1FFC01ED52F94F8181CE
S11342F09281089580918A12860F80938A129091F8
S11343008D12913079F028F09230A9F0933019F1A0
S113431008956F3F09F048C010928A1281E080939B
S11343208D120895663809F03FC01092891282E018
S113433080938D120895E091891281E08E0F80930D
S11343408912F0E0E957FD4E6083823069F583E01D
S113435080938D1208959091891221E0290F209362
S11343608912963009F581110EC0E7E8F2E18081E7
S113437090E0982F88272181820F911D90938F12AE
S113438080938E1204C010928F1210928E1210928B
S11343908D12E0918B12F0918C12309729F080915C
S11343A08E1290918F12199508958F929F92AF92C9
S11343B0CF92EF920F930F2EFAE78F2EF1E29F2EFA
S11343C0F02D6894AA24A4F86894CC24C4F8E12CB1
S11343D000E023E040E855E260E070E03FD09093D5
S11343E09112809390120F91EF90CF90AF909F9085
S11343F08F90089590938C1280938B120895CF938D
S1134400DF93CDB7DEB729970FB6F894DEBF0FBEA2
S1134410CDBF89E0E2E4F2E09E012F5F3F4FD90176
S113442001900D928A95E1F710928F1210928E12DC
S11344308091901290919112009731F0422F532F56
S113444069E0DCD080E001C082E029960FB6F894E0
S1134450DEBF0FBECDBFDF91CF9108952F923F9263
S11344604F925F926F927F928F929F92AF92CF9270
S1134470EF92FF920F931F93CF93DF93CDB7DEB7E5
S1134480F82E2A013B0188E090E00E94C82C8C01A0
S11344908F2D90E0FC01EE0FFF1FEE56FD4E1183B1
S11344A000830115110509F46CC0880F991FFC01E4
S11344B0E55FFD4F80819181D8018D939C938C2D74
S11344C090E0880F991F880F991F0E94C82C1C0127
S11344D086E090E00E94C82C7C014C2DB10140D5AF
S11344E0F801F582E4828A2D90E0880F991F880FE5
S11344F0991F0E94C82C1C0186E090E00E94C82CE1
S11345007C014A2DB1012CD5D8011396FC92EE9270
S1134510129717969C928E921697FFB6F894ED9187
S1134520FC91119736978081826080838D909C9056
S1134530C301B2010E94F52B20E030E040E051E4D9
S11345400E94322C9B01AC0160E074E284E79BE49E
S11345500E94552B20E030E040E85FE345DA0E94FA
S1134560C62BF40132976083D801ED91FC91119729
S1134570359788E98083ED91FC91349786E08083B8
S1134580FFBEC801DF91CF911F910F91FF90EF9073
S1134590CF90AF909F908F907F906F905F904F904F
S11345A03F902F900895CF93DF93DC01892B01F185
S11345B01296ED91FC911397938182812581981B2A
S11345C0922384819817B1F0838126952823C08192
S11345D0D181C20FD11D68838F5F95818923838325
S11345E0ED91FC91359780818062808380E003C0E7
S11345F081E001C082E0DF91CF910895EF92FF92B4
S11346000F931F93CF93DF937C01009709F441C06C
S1134610DC011296ED91FC91139793818281981B92
S1134620858198238481891B8617A8F1662341F12B
S1134630842F952FDC016150462F50E04F5F5F4F70
S1134640480F591FE701EA81FB819381828125810B
S1134650981B92238481981779F08C9193812695E5
S11346602923608171818B01020F111DE801888368
S11346709F5F8581982393831196A417B50711F73B
S1134680D701ED91FC91359780818062808380E031
S113469003C081E001C082E0DF91CF911F910F91AF
S11346A0FF90EF9008950097D1F0DC011496ED91FE
S11346B0FC91159793818281981799F09281858155
S11346C086958923A081B181A80FB11D8C91DB014E
S11346D08C939F5F85819823928380E0089581E085
S11346E0089583E008951F920F920FB60F9211243C
S11346F00BB60F922F933F934F935F936F937F93D8
S11347008F939F93AF93BF93CF93DF93EF93FF93D5
S1134710A0919212B0919312109711F16091C6007A
S11347201496ED91FC911597938182812581981BB4
S113473092238481981761F0838126952823C08170
S1134740D181C20FD11D68838F5F958189238383B3
S11347501696ED91FC911797309711F0CD011995AC
S1134760FF91EF91DF91CF91BF91AF919F918F9185
S11347707F916F915F914F913F912F910F900BBE5D
S11347800F900FBE0F901F9018951F920F920FB6A7
S11347900F9211240BB60F922F938F939F93AF9385
S11347A0BF93EF93FF93E0919212F091931230979D
S11347B0B9F00280F381E02D938182819817B1F0E2
S11347C092818581282F26952923A081B181A20F6A
S11347D0B11D2C919F5F892382832093C6000BC057
S11347E0E1ECF0E080818F7D808305C0E1ECF0E0B6
S11347F080818F7D8083FF91EF91BF91AF919F91D5
S11348008F912F910F900BBE0F900FBE0F901F90A2
S113481018951F920F920FB60F9211240BB60F9298
S11348202F933F934F935F936F937F938F939F93B4
S1134830AF93BF93CF93DF93EF93FF93A091941221
S1134840B0919512109711F16091CE001496ED91EC
S1134850FC911597938182812581981B92238481F1
S1134860981761F0838126952823C081D181C20FD6
S1134870D11D68838F5F9581892383831696ED917B
S1134880FC911797309711F0CD011995FF91EF9195
S1134890DF91CF91BF91AF919F918F917F916F9154
S11348A05F914F913F912F910F900BBE0F900FBED0
S11348B00F901F9018951F920F920FB60F9211240C
S11348C00BB60F922F938F939F93AF93BF93EF9356
S11348D0FF93E0919412F09195123097B9F0028011
S11348E0F381E02D938182819817B1F092818581C3
S11348F0282F26952923A081B181A20FB11D2C91C7
S11349009F5F892382832093CE000BC0E9ECF0E003
S113491080818F7D808305C0E9ECF0E080818F7D0C
S11349208083FF91EF91BF91AF919F918F912F91D0
S11349300F900BBE0F900FBE0F901F9018951F92F3
S11349400F920FB60F9211240BB60F922F933F9331
S11349504F935F936F937F938F939F93AF93BF9383
S1134960CF93DF93EF93FF93A0919612B091971298
S1134970109711F16091D6001496ED91FC91159762
S1134980938182812581981B92238481981761F0F9
S1134990838126952823C081D181C20FD11D6883CC
S11349A08F5F9581892383831696ED91FC911797E8
S11349B0309711F0CD011995FF91EF91DF91CF91CF
S11349C0BF91AF919F918F917F916F915F914F9123
S11349D03F912F910F900BBE0F900FBE0F901F9021
S11349E018951F920F920FB60F9211240BB60F92C7
S11349F02F938F939F93AF93BF93EF93FF93E09184
S1134A009612F09197123097B9F00280F381E02D5D
S1134A10938182819817B1F092818581282F269500
S1134A202923A081B181A20FB11D2C919F5F8923FD
S1134A3082832093D6000BC0E1EDF0E080818F7D6E
S1134A40808305C0E1EDF0E080818F7D8083FF915C
S1134A50EF91BF91AF919F918F912F910F900BBECA
S1134A600F900FBE0F901F9018951F920F920FB6C4
S1134A700F9211240BB60F922F933F934F935F9392
S1134A806F937F938F939F93AF93BF93CF93DF9352
S1134A90EF93FF93A0919812B0919912109711F18E
S1134AA0609136011496ED91FC9115979381828162
S1134AB02581981B92238481981761F08381269520
S1134AC02823C081D181C20FD11D68838F5F958156
S1134AD0892383831696ED91FC911797309711F0F3
S1134AE0CD011995FF91EF91DF91CF91BF91AF91D6
S1134AF09F918F917F916F915F914F913F912F91F2
S1134B000F900BBE0F900FBE0F901F9018951F9221
S1134B100F920FB60F9211240BB60F922F938F930F
S1134B209F93AF93BF93EF93FF93E0919812F0910B
S1134B3099123097B9F00280F381E02D938182813C
S1134B409817B1F092818581282F26952923A08179
S1134B50B181A20FB11D2C919F5F89238283209381
S1134B6036010BC0E1E3F1E080818F7D808305C0D5
S1134B70E1E3F1E080818F7D8083FF91EF91BF912C
S1134B80AF919F918F912F910F900BBE0F900FBEFD
S1134B900F901F901895CF93DF931F92CDB7DEB778
S1134BA0BE016F5F7F4F80919A1290919B127BDDC3
S1134BB08111F6CF898190E00F90DF91CF91089514
S1134BC0682F80919A1290919B12EDDC80E090E026
S1134BD008958F929F92AF92CF92EF920F93812C70
S1134BE0912C6894AA24A7F86894CC24C7F8E12CE3
S1134BF000E023E040E051EE60E070E02FDC9093B1
S1134C009B1280939A12E2ECF2E183E192E09183A9
S1134C108083938382830F91EF90CF90AF909F9086
S1134C208F9008958091AA1281110CC08CE080931A
S1134C30B8008FEF8093BB0084E08093BC0081E0D8
S1134C408093AA120895AF92BF92CF92DF92EF920F
S1134C50FF920F931F93CF93DF93A82EB62E690173
S1134C607A0184E090E094D6EC01892B61F1A8826A
S1134C7081E0B81212C0C701B60120EA36E841E06B
S1134C8050E05CD6DA01C9014097A109B109B69593
S1134C90A79597958795898311C0C701B60120E828
S1134CA03AE146E050E04AD6DA01C9014097A10949
S1134CB0B109B695A7959795879589831B830A8330
S1134CC08C2F9D2F02C080E090E0DF91CF911F9147
S1134CD00F91FF90EF90DF90CF90BF90AF90089529
S1134CE08091BC0081700895FF920F931F93CF931E
S1134CF0DF930097D1F14A30D0F5F42E8B01EC010B
S1134D00EFDF811136C080919D1290919E12C817D9
S1134D10D90741F087DF89818093B800D0939E1230
S1134D20C0939D1281E08F0D80939F128881880F1C
S1134D308093A012FF2089F0F801A1EAB2E14FEFBD
S1134D404F0D642F70E0CB010196B801680F791FF5
S1134D5081918D93E617F707D9F788EF80932102A5
S1134D6085EA8093BC0084E005C086E003C087E048
S1134D7001C082E0DF91CF911F910F91FF900895C0
S1134D801F93CF93DF93009729F16B3028F5162FEB
S1134D90EC01A6DF811122C080919D1290919E1298
S1134DA0C817D90741F03EDF89818093B800D093BA
S1134DB09E12C0939D1210939F128881880F816068
S1134DC08093A01288EF8093210285EA8093BC002F
S1134DD085E005C086E003C087E001C082E0DF9182
S1134DE0CF911F9108951F920F920FB60F92112425
S1134DF00BB60F922F933F934F935F936F937F93D1
S1134E008F939F93AF93BF93EF93FF93E091B90078
S1134E108E2F90E0FC013897E135F10508F075C05C
S1134E208827E458FF4F8F4FABC510929C12E09136
S1134E309C1280919F12E81770F481E08E0F80938A
S1134E409C12F0E0E056FD4E80818093BB0085E823
S1134E508093BC0072C084E98093BC0080919D1251
S1134E6090919E12DC011296ED91FC91139730976C
S1134E7009F463C020E040E050E064E019955DC0AF
S1134E80E0919C1281E08E0F80939C128091BB0074
S1134E90F0E0E056FD4E80838091B900803411F437
S1134EA010929C1220919C1230E080919F1290E00D
S1134EB001972817390724F485EC8093BC003DC082
S1134EC085E88093BC0039C08091BB00E0919C12BE
S1134ED0F0E0E056FD4E808384E98093BC0080912D
S1134EE09D1290919E12DC011296ED91FC91139704
S1134EF0309719F120919F1240EA52E165E019952B
S1134F001CC085EA8093BC0018C08091B9008093CE
S1134F10210284E08093BC0080919D1290919E12A6
S1134F20DC011296ED91FC911397309731F020E05B
S1134F3040E050E0609121021995FF91EF91BF91FB
S1134F40AF919F918F917F916F915F914F913F911D
S1134F502F910F900BBE0F900FBE0F901F901895BE
S1134F60FC01411101C035D6842F90E09C012150F1
S1134F70310982239323892B09F02BD6413808F079
S1134F8028D6128213824483440F4150458371838F
S1134F90608380E090E008952F923F924F925F9259
S1134FA06F927F928F929F92AF92BF92CF92DF9235
S1134FB0EF92FF920F931F93CF93DF93CDB7DEB79A
S1134FC060970FB6F894DEBF0FBECDBF7C011B0106
S1134FD06A01FC0117821682838181FF2AC39E0124
S1134FE02F5F3F4F3901F7019381F10193FD8591C3
S1134FF093FF81911F01882309F417C3853239F483
S113500093FD859193FF81911F01853231F4B7019E
S113501090E030D756016501E6CF10E0512C912C79
S1135020FFE1F915D8F08B3279F038F4803279F059
S11350308332A1F4F92DF0612EC08D3261F08033FA
S113504069F4292D21602DC0392D3260932E892DCC
S11350508460982E2AC0E92DE86015C097FC2DC005
S113506020ED280F2A3088F496FE06C03AE0139FFC
S1135070200D1124122F19C08AE0589E200D1124EE
S1135080522EE92DE0629E2E10C08E3231F496FC31
S1135090CCC2F92DF0649F2E08C08C3621F4292D42
S11350A02068922E02C0883641F4F10193FD859167
S11350B093FF81911F018111B3CF9BEB980F933024
S11350C020F4992D9061805E07C09BE9980F93307E
S11350D008F059C1992D9F7E96FF16E09F73992E73
S11350E0853619F49064992E08C0863621F4392F38
S11350F03068932E02C01111115097FE07C01C3363
S113510050F444244394410E27E00BC0183038F087
S113511027E017E005C027E09CE3492E02C0212FB9
S1135120412C560184E0A80EB11CF6016081718106
S113513082819381042DA30150D56C01F981FC87F0
S1135140F0FF02C0F3FF06C091FC06C092FE06C049
S113515000E205C00DE203C00BE201C000E08C8553
S11351608C7019F0011143C280C297FE10C04C0C20
S1135170FC85F4FF04C08A81813309F44A94141431
S113518074F528E0241578F588E0482E2CC096FCA8
S11351902AC0812F90E08C159D059CF03CEFC3162E
S11351A03FEFD30674F0892D8068982E0AC0E2E0A0
S11351B0F0E0EC0FFD1FE10FF11D8081803319F445
S11351C011501111F4CF97FE0EC044244394410EA4
S11351D0812F90E0C816D9062CF41C1904C044246D
S11351E0439401C010E097FE06C01C141D0434F45F
S11351F0C601019605C085E090E002C081E090E020
S113520001110196112331F0212F30E02F5F3F4F20
S1135210820F931F252D30E08217930714F4581A38
S113522001C0512C892D897041F4552031F0B7010A
S113523080E290E01FD65A94F8CF002321F0B70102
S1135240802F90E017D693FC08C0552031F0B701A9
S113525080E390E00FD65A94F8CF97FE4AC04601F7
S1135260D7FE02C0812C912CC60188199909F3013B
S1135270E80FF91FFE87ED87960124193109388B51
S11352802F87012F10E01195019511093FEF831627
S1135290930621F4B7018EE290E0ECD5C814D9044A
S11352A04CF08F8598898815990524F4ED85FE8541
S11352B0818101C080E3F1E08F1A91082D853E853C
S11352C02F5F3F4F3E872D878016910624F0B7014C
S11352D090E0D0D5DBCFC814D90441F49A81963339
S11352E020F4953319F43C8534FF81E3B70190E051
S11352F048C08A81813319F09C859F7E9C87B701C1
S113530090E0B8D5111105C094FC16C085E690E074
S113531015C0B7018EE290E0ADD51E5F82E001E0DA
S1135320080FF301E80FF11D8081B70190E0A2D5C9
S1135330802F0113F4CFE8CF85E490E0B7019AD52C
S1135340D7FC06C0C114D10441F4EC85E4FF05C0C8
S1135350D194C194D1088DE201C08BE2B70190E0F1
S113536089D580E32AE0C216D1042CF08F5FFAE0DD
S1135370CF1AD108F7CFB70190E07CD5B701C601A9
S1135380C09678D549C1833631F0833779F08335B7
S113539009F052C01FC0560132E0A30EB11CF60141
S11353A08081898301E010E0630111C05601F2E0BD
S11353B0AF0EB11CF601C080D18096FE03C0612FF0
S11353C070E002C06FEF7FEFC60149D58C01F92D63
S11353D0FF7713C0560122E0A20EB11CF601C08073
S11353E0D18096FE03C0612F70E002C06FEF7FEFA3
S11353F0C601CBD48C01F92DF0689F2EF3FD18C0A3
S1135400852D90E00817190798F4B70180E290E021
S113541031D55A94F5CFF60197FC859197FE819189
S11354206F01B70190E026D551105A94015011092B
S11354300115110581F7F0C0843611F0893659F54C
S1135440560197FE09C024E0A20EB11CF60160814A
S11354507181828193810AC0F2E0AF0EB11CF60122
S113546060817181072E000C880B990BF92DFF7652
S11354709F2E97FF09C090958095709561957F4FF9
S11354808F4F9F4FF0689F2E2AE030E0A301A0D5F4
S1135490C82EC6183EC0092D853721F40F7E2AE098
S11354A030E01DC0097F8F3691F018F4883559F02B
S11354B0BCC0803719F0883711F0B7C0006104FF11
S11354C009C0046007C094FE08C0066006C028E056
S11354D030E005C020E130E002C020E132E05601B6
S11354E007FF09C084E0A80EB11CF6016081718138
S11354F08281938108C0F2E0AF0EB11CF601608195
S1135500718180E090E0A30163D5C82EC6180F779F
S1135510902E96FE0BC0092D0E7FC11650F494FEFA
S11355200AC092FC08C0092D0E7E05C0DC2C092D92
S113553003C0DC2C01C0D12E04FF0DC0FE01EC0D14
S1135540F11D8081803311F4097E09C002FF06C079
S1135550D394D39404C0802F867809F0D39403FDA8
S113556010C000FF06C01C2DD51478F4150D1D19AC
S11355700CC0D51450F4B70180E290E07BD4D394EE
S1135580F8CFD51410F45D1801C0512C04FF0FC0DE
S1135590B70180E390E06ED402FF16C001FD03C0A2
S11355A088E790E002C088E590E0B7010CC0802F46
S11355B0867851F001FF02C08BE201C080E207FD52
S11355C08DE2B70190E056D4C11630F4B70180E300
S11355D090E050D41150F8CFCA94F301EC0DF11DB2
S11355E08081B70190E046D4C110F6CF15C0F4E035
S11355F0F51550F584E0581A93FE1EC0011125C01C
S11356002C8523FF27C00AE911E0392D3071932E30
S1135610F8018491811121C0552009F4FCCCB70113
S113562080E290E027D45A94F7CFF70186819781DE
S113563023C08FEF9FEF20C0B70180E290E01AD41F
S11356405A945110F9CFDACF512CB701802F90E042
S113565011D4D6CF0EE911E0D8CF91108052B70102
S113566090E008D40F5F1F4FD3CF23E0251510F42B
S113567083E0C1CF512CC4CF60960FB6F894DEBF3F
S11356800FBECDBFDF91CF911F910F91FF90EF908F
S1135690DF90CF90BF90AF909F908F907F906F904E
S11356A05F904F903F902F90089512D00C94701DEE
S11356B00E94691D58F00E94621D40F029F45F3F6A
S11356C029F00C94591D51110C94A41D0C945F1DC8
S11356D00E94811D68F39923B1F3552391F3951B1F
S11356E0550BBB27AA2762177307840738F09F5FFF
S11356F05F4F220F331F441FAA1FA9F335D00E2E6C
S11357003AF0E0E832D091505040E695001CCAF7D8
S11357102BD0FE2F29D0660F771F881FBB1F26179B
S113572037074807AB07B0E809F0BB0B802DBF0172
S1135730FF2793585F4F3AF09E3F510578F00C9441
S1135740591D0C94A41D5F3FE4F3983ED4F3869551
S113575077956795B795F7959F5FC9F7880F911D62
S11357609695879597F90895E1E0660F771F881F4E
S1135770BB1F621773078407BA0720F0621B730B01
S1135780840BBA0BEE1F88F7E09508950E94891DDB
S113579088F09F5798F0B92F9927B751B0F0E1F0EE
S11357A0660F771F881F991F1AF0BA95C9F714C09E
S11357B0B13091F00E94A31DB1E008950C94A31D93
S11357C0672F782F8827B85F39F0B93FCCF38695D7
S11357D077956795B395D9F73EF490958095709534
S11357E061957F4F8F4F9F4F0895E89409C097FBB1
S11357F03EF490958095709561957F4F8F4F9F4FA4
S11358009923A9F0F92F96E9BB279395F6958795E7
S113581077956795B795F111F8CFFAF4BB0F11F4AA
S113582060FF1BC06F5F7F4F8F4F9F4F16C0882351
S113583011F096E911C0772321F09EE8872F762F87
S113584005C0662371F096E8862F70E060E02AF0C8
S11358509A95660F771F881FDAF7880F96958795B4
S113586097F9089511D00C94701D0E94621D38F0B0
S11358700E94691D20F0952311F00C94591D0C947D
S11358805F1D11240C94A41D0E94811D70F3959F2B
S1135890C1F3950F50E0551F629FF001729FBB2723
S11358A0F00DB11D639FAA27F00DB11DAA1F649FBF
S11358B06627B00DA11D661F829F2227B00DA11D72
S11358C0621F739FB00DA11D621F839FA00D611DF8
S11358D0221F749F3327A00D611D231F849F600D19
S11358E0211D822F762F6A2F11249F5750409AF042
S11358F0F1F088234AF0EE0FFF1FBB1F661F771FCE
S1135900881F91505040A9F79E3F510580F00C9498
S1135910591D0C94A41D5F3FE4F3983ED4F386957F
S113592077956795B795F795E7959F5FC1F7FE2B38
S1135930880F911D9695879597F90895A1E21A2EDF
S1135940AA1BBB1BFD010DC0AA1FBB1FEE1FFF1F1F
S1135950A217B307E407F50720F0A21BB30BE40B6F
S1135960F50B661F771F881F991F1A9469F76095B6
S11359707095809590959B01AC01BD01CF01089570
S1135980EE0FFF1F881F8BBF0790F691E02D19942F
S11359900F931F93CF93DF938230910510F482E02D
S11359A090E0E091C012F091C11220E030E0A0E05C
S11359B0B0E0309719F14081518102811381481779
S11359C05907C8F08417950769F4109731F01296B7
S11359D00C93129713961C9327C00093C012109334
S11359E0C11222C02115310519F04217530718F4CA
S11359F09A01BD01EF01DF01F801DBCF211531056B
S1135A00F9F0281B390B2430310580F48A819B81FD
S1135A106115710521F0FB019383828304C0909387
S1135A20C1128093C012FE01329644C0FE01E20FFF
S1135A30F31F8193919322503109398328833AC00B
S1135A402091BE123091BF12232B41F42091020207
S1135A50309103023093BF122093BE1220910002B2
S1135A60309101022115310541F42DB73EB7409123
S1135A70040250910502241B350BE091BE12F091F3
S1135A80BF12E217F307A0F42E1B3F0B28173907A8
S1135A9078F0AC014E5F5F4F2417350748F04E0F86
S1135AA05F1F5093BF124093BE128193919302C023
S1135AB0E0E0F0E0CF01DF91CF911F910F910895C5
S1135AC0CF93DF93009709F481C0FC0132971382CE
S1135AD01282A091C012B091C112109781F420815A
S1135AE03181820F931F2091BE123091BF1228176B
S1135AF0390751F5F093BF12E093BE1267C0ED0170
S1135B0020E030E0CE17DF0740F44A815B819E013C
S1135B1041155105F1F0EA01F5CFD383C2834081E9
S1135B205181840F951FC817D90759F48881998129
S1135B30840F951F0296918380838A819B8193832E
S1135B4082832115310529F4F093C112E093C01228
S1135B503DC0E901FB83EA8349915991C40FD51FE4
S1135B60EC17FD0761F480819181840F951F0296E3
S1135B70E90199838883828193819B838A83E0E00E
S1135B80F0E012968D919C911397009719F0FD0106
S1135B90DC01F7CF8D919C9111979D012E5F3F4FB2
S1135BA0820F931F2091BE123091BF12281739071C
S1135BB069F4309729F41092C1121092C01202C0F5
S1135BC013821282B093BF12A093BE12DF91CF91C1
S1135BD0089581E090E0F89459C2283008F027E055
S1135BE03327DA01990F311D87FD91600096610515
S1135BF0710539F432602E5F3D9330E32A95E1F765
S1135C0008959F3F30F080387105610509F03C5FCD
S1135C103C5F3D93913008F08068911DDF93CF93F2
S1135C201F930F93FF92EF92192F987F9695E92F68
S1135C3096959695E90FFF27E450FE4F9927332751
S1135C40EE24FF24A701E70105900894079428F4A3
S1135C50360FE71EF81E491F511D660F771F881F58
S1135C60991F0694A1F70590079428F4E70EF81EEF
S1135C70491F561FC11D770F881F991F661F069461
S1135C80A1F70590079428F4F80E491F561FC71F63
S1135C90D11D880F991F661F771F0694A1F70590E1
S1135CA0079420F4490F561FC71FD81F990F661F6A
S1135CB0771F881F0694A9F784911095177041F0F7
S1135CC0D695C79557954795F794E7941A95C1F7D4
S1135CD0E2EAF1E0689415901591359165919591FA
S1135CE005907FE27395E118F10A430B560BC90B3B
