S00B0000496F542E737265630D
S113000066C1000085C1000083C1000081C10000F9
S11300107FC100007DC100007BC1000079C10000E8
S113002077C1000075C1000073C1000071C10000F8
S11300300C946C096DC100006BC1000069C1000023
S113004067C1000065C1000063C1000061C1000018
S11300505FC100005DC100005BC1000059C1000028
S113006057C100000C94D2280C94242951C10000DB
S11300704FC100004DC100004BC1000049C1000048
S113008047C1000045C1000043C1000041C1000058
S11300900C9468290C94BA293BC100000C94522C8E
S11300A037C1000035C1000033C1000031C1000078
S11300B02FC100002DC100002BC1000029C1000088
S11300C027C1000025C1000023C100000C94FE29B3
S11300D00C94502A1DC100000C94942A0C94E62A16
S11300E017C10000461F461F461F7D1F851F9A1F0C
S11300F0461F461F7D1F851F742CE42CE42CE42C22
S1130100E42CE42CE42CE42C742CE42CE42CE42CDB
S1130110E42CE42CE42CE42C762CE42CE42CE42CC9
S1130120E42CE42CE42CE42CE42CE42CE42CE42C4B
S1130130E42CE42CE42CE42C762CE42CE42CE42CA9
S1130140E42CE42CE42CE42CE42CE42CE42CE42C2B
S1130150E42CE42CE42CE42CE02CE42CE42CE42C1F
S1130160E42CE42CE42CE42CAB2CE42CE42CE42C44
S1130170E42CE42CE42CE42CE42CE42CE42CE42CFB
S1130180E42CE42CE42CE42C9F2CE42CE42CE42C30
S1130190E42CE42CE42CE42CC32C6E616E00696E18
S11301A0660000407A10F35A00A0724E180900103D
S11301B0A5D4E80000E87648170000E40B540200D8
S11301C000CA9A3B000000E1F50500008096980003
S11301D0000040420F000000A0860100000010272C
S11301E000000000E80300000000640000000000BC
S11301F00A00000000000100000000002C76D888EE
S1130200DC674F0823DFC1DFAE59E1B1B796E5E300
S1130210E453C63AE651997696E8E6C28426EB8919
S11302208C9B62ED407C6FFCEFBC9C9F40F2BAA5B6
S11302306FA5F490055A2AF75C936B6CF9676DC14E
S11302401BFCE0E40D47FEF520E6B500D0ED902E52
S11302500300943577050080841E080000204E0AB0
S1130260000000C80C333333330F986E12831141EE
S1130270EF8D2114893BE65516CFFEE6DB18D184B9
S11302804B381BF77C1D901DA4BBE42420328472E0
S11302905E228100C9F124ECA1E53D270E9487116B
S11302A080917711823008F051D70E94C31FF6CF96
S11302B0CF93DF931F92CDB7DEB7CE0101960E9494
S11302C0C31C49810E94B81E0E940F1FF6CF11243F
S11302D01FBECFEFD1E2DEBFCDBF00E00CBF17E001
S11302E0A0E0B2E0E4E3FAE600E00BBF02C007904E
S11302F00D92AC33B107D9F723E1ACE3B7E001C009
S11303001D92AF33B207E1F70E944E200C941835CA
S113031077CE90932413809323130895CF93DF9380
S113032000D01F92CDB7DEB75C010E94D81269835A
S11303307A838B839C8340EE53E060E070E0CE01CF
S113034001960E94EE14409125135091261360915A
S1130350271370912813CC24CA94DC2C760101E075
S113036020E080912B1390912C139BD30E94602743
S1130370809322138111DFCF8091291390912A1346
S11303800097C9F24AE050E060E070E00E94380C47
S1130390813021F58091231390912413F5019183E9
S11303A08083809124138F93809123138F938FE6FE
S11303B092E09F938F930E94493400E020E030E064
S11303C0A90160E070E08091291390912A130E94A2
S11303D0BE0A0F900F900F900F90ADCF86E792E07A
S11303E09F938F930E9449340F900F90A4CFFC01E8
S11303F0808191810895EF92FF920F93CF93DF93C1
S1130400082FEB0140912513509126136091271377
S11304107091281380912B1390912C13E2D3E12C2B
S1130420F12C9E0144E251E067E972E08EE891E02C
S11304300E944E128FE992E00E945C34DF91CF91CA
S11304400F91FF90EF9008958F929F92AF92BF9279
S1130450CF92DF92EF92FF920F931F93CF93DF938C
S11304607C016B0149015A0182E090E00E949B31BA
S1130470EC01892BF9F019821882D0922C13C092C6
S11304802B138092251390922613A0922713B092D7
S1130490281310932A130093291383E00E9436270C
S11304A089E891E00E945B27BE01C701A4DF8C2F7D
S11304B09D2F02C080E090E0DF91CF911F910F91BA
S11304C0FF90EF90DF90CF90BF90AF909F908F9070
S11304D008950F93CF93DF932091291330912A131A
S11304E02115310549F1EC014AE050E060E070E08B
S11304F0C9010E94380C8130B9F40E9457226883E4
S113050079838A839B830E944E229D838C8300E09F
S113051020E030E0A90160E070E08091291390911F
S11305202A130E94BE0A08C086E792E09F938F9325
S11305300E9449340F900F90DF91CF910F9108954D
S1130540CF93DF9300D01F92CDB7DEB75C010E943A
S1130550D81269837A838B839C8342EA53E060E0F8
S113056070E0CE0101960E94EE140E9414228823AA
S113057021F08FEA92E00E945C344091251350915F
S113058026136091271370912813CC24CA94DC2C71
S1130590760101E020E080912B1390912C1381D2FD
S11305A064E070E080E090E00E9453150E942922EC
S11305B060E070E0CB010E945315C5018ADFCDCF06
S11305C0EF92FF920F93CF93DF93EC01062F4091AC
S11305D0251350912613609127137091281380914D
S11305E02B1390912C13FDD2E12CF12C9E0140ECA5
S11305F050E069EC72E080EA92E00E944E12DF91D2
S1130600CF910F91FF90EF9008958F929F92AF92A8
S1130610BF92CF92DF92EF92FF920F931F93CF93EB
S1130620DF937C016B0149015A0186E090E00E944E
S11306309B31EC01892B21F1188219821A821B82C9
S11306401D821C82D0922C13C0922B1380922513EE
S113065090922613A0922713B092281310932A1372
S1130660009329130E94FC21811104C08AED92E0B9
S11306700E945C34B701CE01A3DF8C2F9D2F02C0F2
S113068080E090E0DF91CF911F910F91FF90EF9068
S1130690DF90CF90BF90AF909F908F900895FC0112
S11306A060817181828193810895FC0184819581A7
S11306B008950F931F93CF93DF93CDB7DEB764975D
S11306C00FB6F894DEBF0FBECDBF0E94DD230E949B
S11306D05A269F938F9383EF92E09F938F930E9468
S11306E049340E945B250E945A269F938F9386E08B
S11306F093E09F938F930E9449348E010F5F1F4FA5
S1130700C8010E94EF230E945A261F930F939F93C0
S11307108F938FE193E09F938F930E944934C80194
S11307200E940B240E945A269F938F931F930F932A
S113073083E393E09F938F930E944934A80168E474
S113074073E089E693E00E9439260E945A269F931B
S11307508F931F930F9388E493E09F938F9389E67D
S113076093E09F938F938AE793E09F938F930E94E4
S113077049340E943E240E945A269F938F9380EB13
S113078093E09F938F930E9449340FB6F894DEBF91
S11307900FBECDBF81E00E9438250E945A269F9348
S11307A08F938FEB93E09F938F930E94493484EF50
S11307B091E00E9443250E945A269F938F9381E0E3
S11307C08F9384EF8F9380EE93E09F938F930E9497
S11307D049340FB6F894DEBF0FBECDBF1AE080E0F7
S11307E00E944424082F0E945A269F938F931F929D
S11307F01F9380E094E09F938F930E9449340F905D
S11308000F900F900F900F900F90083041F066E317
S113081071E080E090E00E945315115001F7083018
S113082011F094D4FECF64960FB6F894DEBF0FBED9
S1130830CDBFDF91CF911F910F910895CF93DF9397
S1130840CDB7DEB728970FB6F894DEBF0FBECDBF85
S113085081E00E94CF2362E070E080E090E00E949B
S1130860531580E00E94CF2366E970E080E090E0B9
S11308700E9453150E9488231CDF0E94D8126983AA
S11308807A838B839C834CE652E060E070E0CE0177
S113089001960E94EE14ECE3F7E085E0818381E0A9
S11308A080838091291390912A13009709F445C0FD
S11308B04AE050E060E070E0DBD7813069F5809178
S11308C02F1390913013EBDE962E172FB82EA92EEE
S11308D080912F1390913013E8DE9C01ADECBCECB9
S11308E00E948C317C01F694E794F694E794F69494
S11308F0E79480912D1390912E1379DDD82EC92E73
S113090000E020E030E0A90160E070E0809129136C
S113091090912A1333D619C086E792E09F938F9360
S11309200E9449340F900F90D12CC12CE12CF12C52
S1130930912C10E0B12CA12C08C0D12CC12CE12C9D
S1130940F12C912C10E0B12CA12C1D821E821F824F
S11309501886AE014B5F5F4F692D712F8B2D9A2D39
S11309600E94AC2020E030E048EC52E40E94DF20FA
S11309702B013C01AF92BF921F939F9280E294E0BF
S11309809F938F930E9449346D817E818F819885D6
S11309900E9452200CE317E0F8016283C301B20104
S11309A00E945220F8016383FF92EF928AE294E05E
S11309B09F938F930E944934F801E482CF92DF928F
S11309C088E394E09F938F930E944934F801C58291
S11309D0D682B80180E00E946D240E945A269F931B
S11309E08F9381E494E09F938F930E9449340FB6D0
S11309F0F894DEBF0FBECDBF46CFEF92FF920F93A8
S1130A007093301360932F1350932E1340932D1330
S1130A1030932A1320932913E12CF12C082F20E082
S1130A2030E048E851E066E574E08EE194E00E942D
S1130A304E120F91FF90EF9008950F9301110CC087
S1130A40DC01CB0182239323A423B523892B8A2B96
S1130A508B2B79F480E010C0DC01CB01822393233B
S1130A60A423B523281739074A075B0721F080E040
S1130A7003C081E001C081E00F910895CF93DF931B
S1130A808FE090E0AFD1EC01009739F0FC011192B6
S1130A90119211921192CF018BD2CE01DF91CF919D
S1130AA008952F923F924F925F926F927F928F920E
S1130AB09F92AF92BF92CF92DF92EF92FF920F93E9
S1130AC01F93CF93DF93EC014A015B01622E702EDA
S1130AD00E94D212288039804A805B80A50194014B
S1130AE0C201B101AADF8823A1F0662089F1D501F2
S1130AF0C40180959095A095B09582219321A4215D
S1130B00B52188839983AA83BB83C12CD12C760118
S1130B1022C0C114D104E104F104E9F0611004C05D
S1130B2040E050E0BA0104C040E050E060E071E011
S1130B3071107460482959296A297B299701860113
S1130B40CE0104960E94EA15212C312C210103C008
S1130B50C12CD12C76010E941214CD28CE28CF2886
S1130B6059F1811101C0F2D20E94AC196B017C01D0
S1130B7091FD1FC00FB6F8940F92C880D980EA8007
S1130B80FB80072DA5019401C701B60156DF882318
S1130B9071F0662061F080949094A094B0948C20BD
S1130BA09D20AE20BF2088829982AA82BB820F90AA
S1130BB00FBE160127015524C201B101DF91CF9167
S1130BC01F910F91FF90EF90DF90CF90BF90AF9067
S1130BD09F908F907F906F905F904F903F902F9059
S1130BE008954F925F926F927F92AF92BF92CF928D
S1130BF0DF92EF92FF920F931F93CF93DF93EC0159
S1130C006A017B018C01095F1F4F0E94D212EB85A0
S1130C10FC8588819981AA81BB81C82AD92AEA2ABC
S1130C20FB2AC882D982EA82FB82C12CD12C7601AC
S1130C303DC0A480B58080819181A281B381AC0143
S1130C40BD017727B2FD0EC0488059806A807B8041
S1130C50442255226622772245284628472889F4CB
S1130C6020E012C0488059806A807B80442255224B
S1130C7066227722441555056605770521F020E0A4
S1130C8003C021E001C021E0222371F0B0FF04C0C1
S1130C90C42AD52AE62AF72A488159816A817B81A8
S1130CA07260CF010E942517EA2DFB2DE017F10792
S1130CB009F0BFCFC094D094E094F09488819981D6
S1130CC0AA81BB81C822D922EA22FB22C882D98206
S1130CD0EA82FB820E941214688179818A819B8155
S1130CE0DF91CF911F910F91FF90EF90DF90CF9004
S1130CF0BF90AF907F906F905F904F900895EEE516
S1130D00F7E0A2E6B7E0B183A08313821282E2E2A5
S1130D10F1E1F0935D07E0935C0713821282118284
S1130D20108280EC99E013969C938E931297ED9326
S1130D30FC93909359078093580790935B07809393
S1130D405A0780E090E890935307809352070895E0
S1130D50CF93DF93EC01AEE5B7E001C0DF01ED9185
S1130D60FC911197EC17FD07C8F312968D919C9195
S1130D7013979D01280F391FC217D30749F42A81FD
S1130D803B81820F931F13969C938E931297ED01D0
S1130D908A819B819E01280F391FE217F307C1F452
S1130DA020915C0730915D07E217F30771F022810F
S1130DB03381820F931F9B838A83ED91FC9111975A
S1130DC0808191819983888305C03983288302C0F7
S1130DD0F983E883CA17DB0711F0CD93DC93DF9125
S1130DE0CF910895EF92FF920F931F93CF93DF93C8
S1130DF08C010E94D21280915C0790915D07892B2F
S1130E0009F47DDF80915207909153078023912349
S1130E10892B09F076C00115110549F0C801049623
S1130E200817190718F000E010E001C08C01011543
S1130E30110509F469C080915A0790915B078017E6
S1130E40910708F464C0C0915E07D0915F07EEE596
S1130E50F7E002C0FE01EC018A819B8180179107B3
S1130E6020F4888199810097A9F780915C0790917B
S1130E705D07C817D90709F44DC0E080F18084E00C
S1130E80E80EF11C88819981918380832A813B81BA
S1130E90201B310B2930310548F0CE01800F911F02
S1130EA0FC01338322831B830A8352DF2A813B8123
S1130EB080915A0790915B07821B930B90935B0779
S1130EC080935A0740915807509159078417950702
S1130ED020F490935907809358078091520790917A
S1130EE05307282B392B3B832A831982188280913C
S1130EF0560790915707019690935707809356078A
S1130F000BC0E12CF12C08C0E12CF12C05C0E12C24
S1130F10F12C02C0E12CF12C0E941214E114F10412
S1130F2011F40E94CF1FC701DF91CF911F910F9140
S1130F30FF90EF9008950F931F93CF93DF93009743
S1130F4091F1EC0124974A815B8120915207309101
S1130F505307BA0162237323672B29F168817981CE
S1130F60672B09F520953095242335233B832A8369
S1130F700E94D2128A819B8120915A0730915B078B
S1130F80820F931F90935B0780935A07CE01E0DE94
S1130F90809154079091550701969093550780933B
S1130FA054070E941214DF91CF911F910F9108955D
S1130FB0FC010396928381834FEF5FEFBA01438371
S1130FC05483658376839087878392878187108291
S1130FD00895FC011386128608950F931F93CF93EF
S1130FE0DF93EB01088119812A813B810F3F4FEF89
S1130FF014072407340721F4FC01A185B28511C02C
S1131000DC01139601C0DF011496ED91FC91159754
S113101040815181628173810417150726073707C0
S113102090F71496ED91FC911597FD83EC83D7838B
S1131030C683BF83AE831596DC93CE9314979B87A8
S11310408A87FC0120812F5F2083DF91CF911F913C
S11310500F910895CF93DF93FC01A285B385C481DA
S1131060D581868197819F838E83C681D781848130
S113107095819D838C8311968D919C911297E8178D
S1131080F90731F48681978112969C938E93119778
S1131090138612868C9181508C938C91DF91CF9121
S11310A00895A89590EC88E10FB6F894A8958093DC
S11310B060000FBE909360000895FC016083319737
S11310C070833197108231971082319720E8208302
S11310D0319710823197108231971082779740832D
S11310E03197508386970895DCDFA091E511B09184
S11310F0E611CD91CDBFDD91DEBFFF91EF91DF9180
S1131100CF91BF91AF919F918F917F916F915F919B
S11311104F913F912F911F910F91FF90EF90DF908E
S1131120CF90BF90AF909F908F907F906F905F9083
S11311304F903F902F901F900F900CBE0F900BBEBE
S11311400F900FBE0F90089581E008950F920FB68F
S1131150F8940F920BB60F920CB60F921F921124B3
S11311602F923F924F925F926F927F928F929F92B3
S1131170AF92BF92CF92DF92EF92FF920F931F93A1
S11311802F933F934F935F936F937F938F939F938B
S1131190AF93BF93CF93DF93EF93FF93A091E511A8
S11311A0B091E6110DB60D920EB60D920E946E1519
S11311B0A091E511B091E611CD91CDBFDD91DEBFD7
S11311C0FF91EF91DF91CF91BF91AF919F918F915B
S11311D07F916F915F914F913F912F911F910F914B
S11311E0FF90EF90DF90CF90BF90AF909F908F9043
S11311F07F906F905F904F903F902F901F900F9033
S11312000CBE0F900BBE0F900FBE0F9008950F925F
S11312100FB6F8940F920BB60F920CB60F921F9262
S113122011242F923F924F925F926F927F928F92EE
S11312309F92AF92BF92CF92DF92EF92FF920F9361
S11312401F932F933F934F935F936F937F938F934A
S11312509F93AF93BF93CF93DF93EF93FF93A091AB
S1131260E511B091E6110DB60D920EB60D9213BEB6
S11312700E94E61281110E946E15A091E511B091B1
S1131280E611CD91CDBFDD91DEBFFF91EF91DF91EE
S1131290CF91BF91AF919F918F917F916F915F910A
S11312A04F913F912F911F910F91FF90EF90DF90FD
S11312B0CF90BF90AF909F908F907F906F905F90F2
S11312C04F903F902F901F900F900CBE0F900BBE2D
S11312D00F900FBE0F9008959ADF1895DC01539676
S11312E02C915397222341F05A96ED91FC915B97F0
S11312F090818AE0891B089580E008950FB6F894E0
S11313000F92FC01868D811102C081E001C080E052
S11313100F900FBE08950FB6F8940F92FC01268D1E
S1131320878D281302C081E001C080E00F900FBEBA
S113133008950F931F93CF93DF93EC01042F1E8D19
S113134048A141110CC088819981892B09F042C0C0
S11313508C819D810E94EA181D821C8242C0011169
S113136017C050E08A819B810E94A33328A18A81FF
S11313709B81820F911D9B838A832C813D818217DF
S1131380930750F1888199819B838A8380E029C0E7
S113139050E08E819F810E94A33388A190E09195B3
S11313A0819591092E813F81280F391F3F832E8318
S11313B0488159812417350730F42C813D81820FEF
S11313C0931F9F838E83023049F4112349F01150F7
S11313D080E007C080E005C080E003C080E001C079
S11313E080E01F5F1E8FDF91CF911F910F910895B1
S11313F0FC0140A14423A9F050E026813781240F49
S1131400351F37832683848195812817390720F077
S11314108081918197838683CB01668177810C9447
S1131420A33308951F93CF93DF93EC010FB6F89481
S11314300F921AA10BC08B89882351F0CE014396D9
S11314400E94761681110E944C18115011169CF3BB
S11314508FEF8AA30F900FBE0FB6F8940F9219A1C5
S11314600BC08885882351F0CE0108960E94761619
S113147081110E944C18115011169CF38FEF89A30F
S11314800F900FBEDF91CF911F910895CF93DF93FB
S1131490EC010FB6F8940F92E881F9818F8D28A1A1
S11314A090E030E0829FA001839F500D929F500DE9
S11314B011244E0F5F1F5D834C831E8EFB83EA83D2
S11314C00197289FA001299F500D389F500D11248A
S11314D0CF01840F951F9F838E838FEF89A38AA3E7
S11314E061110BC08885882371F0CE0108960E9493
S11314F07616882341F02ADE06C0CE01089658DD10
S1131500CE01439655DD0F900FBE81E0DF91CF9160
S113151008950F931F93F801611103C01183008391
S113152002C051834083878F60A361E0CF01AEDFA7
S11315301F910F910895DF92EF92FF920F931F93E3
S1131540CF93DF93F82EE62ED42E869FC00111246C
S1131550839648DCEC01009741F08C012D2DAC0101
S11315604D5D5F4F6E2D8F2DD4DFCE01DF91CF9176
S11315701F910F91FF90EF90DF900895CF92DF922B
S1131580EF92FF920F931F93CF93DF93CDB7DEB704
S113159029970FB6F894DEBF0FBECDBF7C016B0157
S11315A02E833F834887598710E00FB6F8940F9233
S11315B0F701968D878D981710F00230B1F4402F03
S11315C0B601C701B6DEF7019389992341F0C7013B
S11315D043960E947616882321F0B8DD02C081115B
S11315E0B5DD0F900FBE81E04CC08E819F81A88530
S11315F0B985892B8A2B8B2B21F40F900FBE80E0A9
S113160040C0111105C0CE0101960E94D51711E00A
S11316100F900FBEC7D70FB6F8940F92F70181A1B0
S11316208F3F09F411A2F70182A18F3F09F412A29E
S11316300F900FBEBE016A5F7F4FCE0101960E94DC
S1131640E617811119C0C70166DE882381F04E8137
S11316505F8168857985C70108960E94D315C70103
S1131660E1DE0E9412148111A0CF70DD9ECFC7016C
S1131670D9DE0E94121499CFC701D4DE0E9412143D
S113168080E029960FB6F894DEBF0FBECDBFDF9180
S1131690CF911F910F91FF90EF90DF90CF9008951D
S11316A00F93009769F0FC01158214821182108255
S11316B0168200E020E030E0A90160E070E05EDF27
S11316C00F910895CF93DF93482F60E081E033DFDB
S11316D0EC01E6DFCE01DF91CF910895EF92FF9206
S11316E00F931F93CF93DF938A01FC01568D378D9F
S11316F0531710F02230F9F4422F7801EC011AA1AB
S11317008E8DCE0116DE1F3F81F48B898823A9F0CC
S1131710CE0143960E947616882389F0E114F104E1
S113172081F081E0F70180830DC0FF24F394F10E72
S1131730FAA281E007C080E005C081E003C081E037
S113174001C081E0DF91CF911F910F91FF90EF9045
S11317500895CF92DF92EF92FF920F931F93CF934E
S1131760DF93CDB7DEB729970FB6F894DEBF0FBE6F
S1131770CDBF8C016B012E833F8348875987E12CB1
S11317800FB6F8940F92F801F68CFF2099F0B60189
S1131790C8012EDEFA94F801F68E8085882331F094
S11317A0C80108960E9476168111D0DC0F900FBEF6
S11317B081E04FC08E819F81A885B985892B8A2BB2
S11317C08B2B21F40F900FBE80E043C0E11006C0C4
S11317D0CE0101960E94D517EE24E3940F900FBE1C
S11317E0E1D60FB6F8940F92F80181A18F3F09F466
S11317F011A2F80182A18F3F09F412A20F900FBE2B
S1131800BE016A5F7F4FCE0101960E94E6178111E7
S113181017C0C80173DD882379F04E815F81688524
S11318207985C80143960E94D315C801FBDDFAD718
S11318308111A6CF8BDCA4CFC801F4DDF3D7A0CFF0
S1131840C801F0DDEFD7C80159DD882309F498CF2A
S113185080E029960FB6F894DEBF0FBECDBFDF91AE
S1131860CF911F910F91FF90EF90DF90CF9008954B
S1131870EF92FF920F931F93CF93DF93CDB7DEB711
S113188029970FB6F894DEBF0FBECDBF8C014E83EF
S11318905F8368877987E12CF12C0FB6F8940F9257
S11318A0F801868D8823C9F08150868F80819181CB
S11318B0892B29F40E94D619F80195838483F801B1
S11318C08085882331F0C80108960E94761681111C
S11318D03DDC0F900FBE81E06FC08E819F81A88593
S11318E0B985892B8A2B8B2B21F40F900FBE80E0B6
S11318F063C0F11006C0CE0101960E94D517FF24E3
S1131900F3940F900FBE4ED60FB6F8940F92F801D1
S113191081A18F3F09F411A2F80182A18F3F09F43C
S113192012A20F900FBEBE016A5F7F4FCE010196D7
S11319300E94E617811126C0C801E0DC8823F1F07B
S1131940F80180819181892B51F40FB6F8940F929C
S1131950848195810E946318E82E0F900FBE4E81FA
S11319605F8168857985C80143960E94D315C801B3
S113197059DD58D7811191CFE9DB8FCFC80152DDF2
S113198051D78BCFC8014EDD4DD7C801B7DC8823B2
S113199009F483CFEE2079F00FB6F8940F92C801C2
S11319A09DDC682FF801848195810E9445190F9070
S11319B00FBE80E001C080E029960FB6F894DEBF28
S11319C00FBECDBFDF91CF911F910F91FF90EF908C
S11319D00895CF93DF93EC010FB6F8940F9289A189
S11319E08F3F09F419A28AA18F3F09F41AA20F901C
S11319F00FBE8E8D811104C0CE0143960E94341611
S1131A00CE0110DDDF91CF910895FC014481558111
S1131A1022813381240F351F80819181B901681B94
S1131A20790BCB016417750710F0841B950B08958F
S1131A300F93FC018FE0DF011D928A95E9F775870A
S1131A406487558344833783268306870F910895DB
S1131A50AF92BF92CF92DF92EF92FF920F931F93B8
S1131A60CF93DF936C015B017A01FC01C281D381C6
S1131A70048115810C1B1D0B4017510708F48A01C2
S1131A80F60184859585A801B5018C0F9D1F0E94E0
S1131A90A3330E151F0558F4A701401B510BB501C4
S1131AA0600F711FF601848595850E94A333CE01D2
S1131AB08E0D9F1DF601248135818217930710F046
S1131AC0821B930BF60193838283C701DF91CF912D
S1131AD01F910F91FF90EF90DF90CF90BF90AF9048
S1131AE00895CF92DF92EF92FF920F931F93CF93BB
S1131AF0DF931F921F92CDB7DEB77C016B015A832F
S1131B00498321153105C1F0FC01868580FD08C09B
S1131B104217530708F49A013A83298381E00FC0DE
S1131B202017310758F042E050E0BE016F5F7F4F4D
S1131B30C7018EDF81E003C080E001C080E088231C
S1131B4031F049815A81B601C70182DF02C080E0C9
S1131B5090E00F900F90DF91CF911F910F91FF9024
S1131B60EF90DF90CF900895AF92BF92CF92DF9223
S1131B70EF92FF920F931F93CF93DF937C015B014E
S1131B80E9014217530708F4EA01209781F1F701AC
S1131B900081118184819581801B910B6E018C17CA
S1131BA09D0708F46C01F70164857585600F711F4A
S1131BB0A601C5010E94A333CC16DD0658F4AE017C
S1131BC04C195D09F70164857585C5018C0D9D1D52
S1131BD00E94A3330C0F1D1FF70184819581081700
S1131BE0190710F0081B190BF70111830083CE01AC
S1131BF0DF91CF911F910F91FF90EF90DF90CF90E5
S1131C00BF90AF9008956F927F928F929F92AF9200
S1131C10BF92CF92DF92EF92FF920F931F93CF93D5
S1131C20DF931F921F92CDB7DEB76C014B015A01AF
S1131C30790101151105B1F0FC0160807180A801E2
S1131C40BE016F5F7F4F90DF89819A81E01AF10AAC
S1131C50A816B90630F4F60171826082A12CB12C69
S1131C6001C05C019701A501B401C6017DDF0F909D
S1131C700F90DF91CF911F910F91FF90EF90DF9024
S1131C80CF90BF90AF909F908F907F906F9008956A
S1131C90CF92DF92EF92FF920F93CF93DF93EC01F9
S1131CA06B01413011F401E001C000E0C114D10422
S1131CB019F4CC24C394D12CCE014096C817D9076B
S1131CC020F421968FD87C0102C0E12CF12CE11480
S1131CD0F10439F09601AE01B701615F7F4FC7018E
S1131CE0A7DEC701DF91CF910F91FF90EF90DF90B6
S1131CF0CF9008950F930FB6F8940F92FC012085AE
S1131D003185232B71F422853385232B61F42681BD
S1131D1037814481558164857585068589DE81E036
S1131D2003C080E001C080E00F900FBE0F910895C2
S1131D30FC012481358180819181820F931F42812E
S1131D405381841B950B01978217930710F0821B14
S1131D50930B08952F923F924F925F926F927F92CE
S1131D608F929F92AF92BF92CF92DF92EF92FF92A7
S1131D700F931F93CF93DF93CDB7DEB72B970FB697
S1131D80F894DEBF0FBECDBF4C017B876A871A0172
S1131D900E831F8328873987FC01848195810197ED
S1131DA0268520FF0CC02A01F2E04F0E511C841539
S1131DB0950558F41E821F821886198606C084175A
S1131DC0950710F02A0101C02C018E819F81A885FE
S1131DD0B985892B8A2B8B2B09F438C0CE01019647
S1131DE00E94BF170FB6F8940F92C401A1DF3C0103
S1131DF08415950540F560E080E090E00E94A91C00
S1131E000E945018F401938782870F900FBEAE8012
S1131E10BF80C884D984E12CF12C00E010E0980143
S1131E2040E050E0BA0180E00E94E819F401138612
S1131E301286BE016A5F7F4FCE0101960E94E617AB
S1131E40882381F205C00F900FBE02C0612C712C53
S1131E506114710419F4C4016BDF3C018201930124
S1131E60A1016A857B85C4013CDE6C01892BE9F004
S1131E70C401CBDDF4012681378182179307A8F0D2
S1131E8091D3F40180859185892B71F080859185AA
S1131E90E12CF12C00E020E030E0A90160E00E9498
S1131EA0901AF40111861086BDD4C6012B960FB684
S1131EB0F894DEBF0FBECDBFDF91CF911F910F917C
S1131EC0FF90EF90DF90CF90BF90AF909F908F9056
S1131ED07F906F905F904F903F902F900895AF92B6
S1131EE0BF92CF92DF92EF92FF920F931F93CF9303
S1131EF0DF93EC017B015A0169018E8580FF04C0E8
S1131F008A010E5F1F4F01C08A01CE0111DF9C01BF
S1131F10A501B701CE01E5DD5C01892BC1F0CE013D
S1131F2074DD2E813F818217930788F08885998517
S1131F30892B69F088859985E12CF12C00E020E05B
S1131F4030E0A90160E00E94871B19861886C5014C
S1131F50DF91CF911F910F91FF90EF90DF90CF9081
S1131F60BF90AF9008954F925F926F927F928F923D
S1131F709F92AF92BF92CF92DF92EF92FF920F9314
S1131F801F93CF93DF93EC012B013A0158016901B0
S1131F908E8580FF05C06894882481F8912C02C046
S1131FA0812C912CA114B104C104D10441F10FB6C8
S1131FB0F8940F92CE0129DD7C018816990648F029
S1131FC060E080E090E00E94A91C0E94501899876C
S1131FD088870F900FBE8E149F04A0F0E12CF12C83
S1131FE000E010E0980140E050E0BA0180E00E9477
S1131FF0E81919861886CE0108DD7C0103C0CE01DC
S113200004DD7C018E149F04E8F484019701A3018C
S1132010B201CE01F8DD6C01892BB1F0C3D28A85FF
S11320209B85892B69F08A859B85E12CF12C00E046
S113203020E030E0A90160E00E94901A1B861A8615
S1132040F1D302C0C12CD12CC601DF91CF911F91D5
S11320500F91FF90EF90DF90CF90BF90AF909F9043
S11320608F907F906F905F904F900895E0915F11F3
S1132070F0916011808181110CC08FEF9FEFDC0122
S11320808093291190932A11A0932B11B0932C11B2
S11320900895E0915F11F09160110780F085E02DC3
S11320A080819181A281B3818093291190932A1117
S11320B0A0932B11B0932C110895CF93DF93EC01CF
S11320C08B8D9C8D0E949B07CE010E949B07DF9104
S11320D0CF9108954F925F926F927F928F929F92C9
S11320E0AF92BF92CF92DF92EF92FF920F93CF9372
S11320F0DF932C015B014A013901E60165EA70E0D6
S11321008B8D9C8D0E94AC338B8D9C8D21E0821A2B
S11321109108880E991EA114B10489F415C0822F68
S113212090E0F501E80FF91F3081DE01A80FB91F17
S11321305D963C938081882329F02F5F01C020E0C5
S1132140203168F31CA601C01D8E0A3008F009E096
S11321500A8F0DA71EA6CE0102960E94E907CE01A2
S11321600E960E94E907DB87CA878AE090E0A0E028
S1132170B0E0801B9109A109B1098E879F87A88BC4
S1132180B98BDF8BCE8B84E0FE01BF96DF011D92FD
S11321908A95E9F71BAAA301B201C4010E945D0854
S11321A099838883E114F10419F0F701D183C08382
S11321B0DF91CF910F91FF90EF90DF90CF90BF9080
S11321C0AF909F908F907F906F905F904F90089505
S11321D0CF93C0E009C02BE0C29FC00111248958ED
S11321E09E4E0E94D807CF5FCA30A8F38CE691E1D7
S11321F00E94D80781E691E10E94D80782E591E127
S11322000E94D80787E491E10E94D8078BE391E10B
S11322100E94D8078CE691E19093601180935F113E
S113222081E691E190935E1180935D11CF910895C1
S1132230CF93DF93EC010FB6F8940F9280913A118B
S11322408F5F80933A118091E5119091E611892B6B
S113225051F4D093E611C093E51180913A11813085
S113226091F4B6DF10C08091341181110CC0E0915B
S1132270E511F091E611928D8A8D891720F0D093A3
S1132280E611C093E51180912D118F5F80932D117C
S1132290EA8D809135118E1710F4E09335118BE09F
S11322A08E9FF0011124E958FE4E0180F281E02D49
S11322B0FF83EE832681378139872887A681B781FA
S11322C09E012E5F3F4F15963C932E9314973783B0
S11322D02683EA8D8E9FF0011124E958FE4EFD8776
S11322E0EC8780818F5F80830F900FBE80913411C3
S11322F0882351F0E091E511F091E611928D8A8DD9
S1132300981710F40E94A608DF91CF910895CF93F7
S1132310DF931BC00FB6F8940F92E0914E11F09129
S11323204F11C085D185CE0102960E942A08809162
S11323303A11815080933A118091461181508093D3
S113234046110F900FBECE01B8DE80914611811167
S1132350E1CFDF91CF9108958F929F92AF92BF9278
S1132360CF92DF92EF92FF92CF93DF936B017C01C8
S1132370C42F8090361190903711A0903811B090EE
S113238039118091E5119091E61102960E942A0874
S11323908FEFC816D806E806F806B1F5CC23A1F1EC
S11323A0EBE3F1E1A181B281C091E511D091E61195
S11323B0BF83AE83C091E511D091E61116968D913D
S11323C09C911797998788871696CD91DC911797DA
S11323D08091E5119091E61102969D838C83809102
S11323E0E5119091E611029617969C938E93169799
S11323F0A091E511B091E6111D96FC93EE931C9704
S113240080818F5F80833FC0C80CD91CEA1CFB1CF1
S1132410E091E511F091E611C282D382E482F58263
S1132420C814D904EA04FB0468F46091E5117091BE
S1132430E61180915D1190915E116E5F7F4F0E9455
S1132440ED0721C06091E5117091E61180915F1153
S1132450909160116E5F7F4F0E94ED07809129116A
S113246090912A11A0912B11B0912C11C816D90664
S1132470EA06FB0640F4C0922911D0922A11E09298
S11324802B11F0922C11DF91CF91FF90EF90DF9000
S1132490CF90BF90AF909F908F9008952F923F92CE
S11324A04F925F926F927F928F929F92AF92BF9260
S11324B0CF92DF92EF92FF920F93CF93DF933C0181
S11324C01B014A012901CA010E94F2066C01892BF1
S11324D071F084E390E00E94F206EC01892B19F07C
S11324E0DC8ECB8E06C0C6010E949B0702C0C0E0F2
S11324F0D0E0209761F0A12CB12C6E019201A401CF
S1132500B101C301E7DDCE0193DE81E001C08FEFAD
S1132510DF91CF910F91FF90EF90DF90CF90BF901C
S1132520AF909F908F907F906F905F904F903F906F
S11325302F900895EF92FF920F930F2EF7E2EF2E54
S1132540F1E1FF2EF02D00E020E030E040EC50E01F
S113255063E674E08EE491E0A1DF813011F40E941F
S11325604D1D8130C9F4F8948FEF9FEFDC01809307
S1132570291190932A11A0932B11B0932C1181E06F
S11325808093341110923611109237111092381131
S1132590109239110E947408809106020F91FF90E5
S11325A0EF900895809126118F5F809326110895EE
S11325B00FB6F8940F926091361170913711809193
S11325C03811909139110F900FBE0895CF92DF9278
S11325D0EF92FF92CF93DF9380912611811105C171
S11325E0C0903611D0903711E0903811F090391125
S11325F08FEFC81AD80AE80AF80AC0923611D092A6
S11326003711E0923811F0923911C114D104E10468
S1132610F104B1F480915F119091601120915D11EA
S113262030915E113093601120935F1190935E118D
S113263080935D1180912E118F5F80932E1116DD92
S11326408091291190912A11A0912B11B0912C11F4
S1132650C816D906EA06FB0620F480E0B2C081E081
S113266001C080E0E0915F11F091601190819111BF
S11326700CC04FEF5FEFBA014093291150932A1118
S113268060932B1170932C119CC0E0915F11F09119
S113269060110780F085E02D0084F185E02D4281F2
S11326A0538164817581C416D506E606F70648F49D
S11326B04093291150932A1160932B1170932C117C
S11326C080C0A485B585C681D781208531853F83A7
S11326D02E83C085D185268137813D832C83119635
S11326E04D915C9112979F012E5F3F4F4217530704
S11326F031F44085518512965C934E93119715865B
S113270014869C9191509C93A08DB18D109709F1E2
S1132710C289D389448955895F834E83C489D58905
S1132720428953895D834C8311966D917C911297F4
S1132730AF01425F5F4F6417750731F444895589CF
S113274012965C934E931197118E108E9C9191501A
S11327509C93A28D909135119A1710F4A093351182
S11327609BE09A9FD0011124A958BE4E11960D905A
S1132770BC91A02DB783A68316964D915C911797B3
S1132780518740871696CD91DC9117973D832C8312
S113279017963C932E931697A28D9A9FD0011124DD
S11327A0A958BE4EB587A4879C919F5F9C93228DA8
S11327B0E091E511F091E611928D291708F04FCFC1
S11327C051CFE091E511F091E611E28D9BE0E99F94
S11327D0F0011124E958FE4E9081923008F081E016
S11327E090912F11911116C016C0809130119091C3
S11327F03111A0913211B09133110196A11DB11D77
S11328008093301190933111A0933211B09333110E
S113281080E001C081E0DF91CF91FF90EF90DF90E5
S1132820CF900895CF92DF92EF92FF92CF93DF93F0
S11328300FB6F8940F92809126118150809326113F
S1132840809126118111BEC080913A11811188C0F6
S1132850BCC0E0915911F0915A110084F185E02D2A
S1132860A08DB18DC289D389848995899F838E83F4
S1132870C489D589828993899D838C8311962D91EE
S11328803C911297CF010E962817390731F48489A9
S1132890958912969C938E931197118E108E8C911C
S11328A081508C93A485B585C681D7818085918517
S11328B09F838E83C085D185868197819D838C83F8
S11328C011968D919C9112979F012E5F3F4F821715
S11328D0930731F48085918512969C938E9311977A
S11328E0158614868C9181508C93A28D809135111C
S11328F08A1710F4A09335118BE08A9FD00111241C
S1132900A958BE4E11960D90BC91A02DB783A683F5
S113291016964D915C911797518740871696CD91E5
S1132920DC9117973D832C8317963C932E9316972F
S1132930A28D8A9FD0011124A958BE4EB587A487C1
S11329408C918F5F8C93928DA091E511B091E611DB
S11329505A968C91981730F081E080932F1102C021
S1132960E0E0F0E080915211811173CFEF2B09F078
S11329707DDBC0903011D0903111E0903211F09095
S11329803311C114D104E104F104A1F01FDE882342
S113299019F081E080932F1181E0C81AD108E10871
S11329A0F108A1F7109230111092311110923211E6
S11329B01092331180912F11882331F00E94A608C0
S11329C081E003C080E001C080E00F900FBEDF9182
S11329D0CF91FF90EF90DF90CF9008958F929F92C8
S11329E0AF92BF92CF92DF92EF92FF921F93CF9359
S11329F0DF93EC016A017B01D5DD80903611909064
S1132A003711A0903811B090391188819981AA8129
S1132A10BB81AC01BD014C0D5D1D6E1D7F1D881673
S1132A209906AA06BB0660F4481759076A077B078C
S1132A3098F484169506A606B70680F010E013C035
S1132A40481759076A077B0758F084169506A606A7
S1132A50B70640F010E007C010E005C011E003C065
S1132A6011E001C011E0488359836A837B831123F9
S1132A7041F0CB01BA01681979098A099B0940E040
S1132A806BDCD0DE811102C00E94A608812FDF9189
S1132A90CF911F91FF90EF90DF90CF90BF90AF90B8
S1132AA09F908F900895CF92DF92EF92FF926B01E7
S1132AB07C01672B682B692B39F074DD40E0C7017A
S1132AC0B6014ADCAFDE01C080E0811102C00E9481
S1132AD0A608FF90EF90DF90CF9008958091261183
S1132AE0882321F081E080932F11089510922F11F3
S1132AF0E091E511F091E61120813181E091E51139
S1132B00F091E611838D948D8217930760F06091A4
S1132B10E5117091E611635E7F4F8091E51190910C
S1132B20E6110E94DB1F8091351101C08150282FCE
S1132B3030E09BE0929FF001939FF00D1124E9583F
S1132B40FE4E9081992391F39BE0929FA001939F65
S1132B50500D1124DF010180F281E02D0480F58104
S1132B60E02D1296FC93EE93119746585E4EE417AF
S1132B70F50729F444815581FD01528341839BE08B
S1132B80929FF001939FF00D1124E958FE4E0180AD
S1132B90F281E02D208531853093E6112093E511F3
S1132BA0809335110895CF92DF92EF92FF926A01DC
S1132BB07B016091E5117091E611625F7F4F0E9485
S1132BC0ED0741E0C701B601C7DBFF90EF90DF904E
S1132BD0CF9008950F931F93CF93DF93FC01A0919F
S1132BE0E511B091E61170681E964D935D936D9357
S1132BF07C935197A181B281C091E511D091E611E6
S1132C00BB8BAA8BC091E511D091E61116968D91DC
S1132C109C9117979D8B8C8B1696CD91DC91179771
S1132C208091E5119091E6110E969D838C8380919D
S1132C30E5119091E6110E9617969C938E93169734
S1132C40A091E511B091E6115996FC93EE93589733
S1132C5080818F5F808341E0C901B8017DDBDF9112
S1132C60CF911F910F910895CF93DF93FC01CB0176
S1132C70BA01A181B281C091E511D091E611BB8B5B
S1132C80AA8BC091E511D091E61116964D915C91F5
S1132C9017975D8B4C8B1696CD91DC9117974091CD
S1132CA0E5115091E611425F5F4F5D834C83409183
S1132CB0E5115091E611425F5F4F17965C934E9376
S1132CC01697A091E511B091E6115996FC93EE93F5
S1132CD0589730813F5F3083222319F06FEF7FEFE5
S1132CE0CB01422F39DBDF91CF910895CF93DF934E
S1132CF0DC011796ED91FC9118970084F185E02D85
S1132D00A08DB18DC289D389848995899F838E834F
S1132D10C489D589828993899D838C8311968D91E9
S1132D209C9112979F01225F3F4F8217930731F4C2
S1132D308489958912969C938E931197118E108E87
S1132D408C9181508C9380912611811152C0A4855D
S1132D50B585C681D781808591859F838E83C08503
S1132D60D185868197819D838C8311968D919C91C9
S1132D7012979F012E5F3F4F8217930731F480858E
S1132D80918512969C938E931197158614868C9137
S1132D9081508C93A28D809135118A1710F4A093E1
S1132DA035118BE08A9FD0011124A958BE4E11968B
S1132DB00D90BC91A02DB783A68316964D915C917E
S1132DC01797518740871696CD91DC9117973D83CD
S1132DD02C8317963C932E931697A28D8A9FD0012D
S1132DE01124A958BE4EB587A4878C918F5F8C930C
S1132DF01CC042E551E1DA011196CD91DC911297A4
S1132E00D38BC28B8E819F81958B848B8E819F8186
S1132E10DC0115963C932E9314973F832E83518F98
S1132E20408FDA018C918F5F8C93928DE091E51144
S1132E30F091E611828D891720F481E080932F119F
S1132E4001C080E0DF91CF910895CF93DF93DC013F
S1132E5070684D935D936D937C9313971896ED91E1
S1132E60FC9119971A964D915C911B9714968D912C
S1132E709C91159716962D913C911797EC013F83E1
S1132E802E8316968D919C91179714962D913C91B3
S1132E901597EC013D832C83EA0189819A81A81757
S1132EA0B90731F416968D919C9117979A8389836B
S1132EB01B961C921E921A97DA018C9181508C9366
S1132EC0A485B585C681D781808591859F838E83AE
S1132ED0C085D185868197819D838C8311968D9140
S1132EE09C9112979F012E5F3F4F8217930731F4F5
S1132EF08085918512969C938E93119715861486DE
S1132F008C9181508C93A28D809135118A1710F485
S1132F10A09335118BE08A9FD0011124A958BE4E8D
S1132F2011960D90BC91A02DB783A68316964D9152
S1132F305C911797518740871696CD91DC9117972E
S1132F403D832C8317963C932E931697A28D8A9FCC
S1132F50D0011124A958BE4EB587A4878C918F5FE8
S1132F608C93928DE091E511F091E611828D891791
S1132F7018F481E080932F11DF91CF9108950FB65B
S1132F80F8940F9220912E11FC0120834091361168
S1132F9050913711609138117091391141835283E6
S1132FA0638374830F900FBE089520912E11FC014A
S1132FB020834091361150913711609138117091EE
S1132FC03911418352836383748308958F929F924E
S1132FD0AF92BF92CF92DF92EF92FF920F931F9323
S1132FE0CF93DF93FB010FB6F8940F92C090361184
S1132FF0D0903711E0903811F0903911DC0111961E
S11330000D911D912D913C91149746015701801A01
S1133010910AA20AB30A40815181628173814F3FB0
S1133020BFEF5B076B077B0739F1EC01B881A09117
S11330302E11BA1759F0C016D106E206F30630F085
S1133040108211821282138281E017C084169506C1
S1133050A606B70658F4481959096A097B0940833A
S1133060518362837383A1DF80E007C010821182E1
S11330701282138281E001C080E00F900FBEDF91C5
S1133080CF911F910F91FF90EF90DF90CF90BF9061
S1133090AF909F908F90089581E080932F110895B1
S11330A08091E5119091E61108958091341188235F
S11330B031F080912611811104C082E0089581E0ED
S11330C0089580E008950F931F93CF93DF93FC013D
S11330D0892B09F477C0828DA091E511B091E61196
S11330E05A969C91891708F063C046855785608974
S11330F07189772394F0A091E511B091E6115A9665
S11331009C914AE050E060E070E0491B510961097C
S1133110710946875787608B718B248535854BE011
S1133120849FC001112489589E4E28173907B9F588
S1133130EF018F010E5F1F4FC8010E942A08E09122
S1133140E511F091E611E28DEA8F809135118E1729
S113315010F4E09335118BE08E9FF0011124E958AF
S1133160FE4E0180F281E02DFF83EE8326813781BC
S113317039872887A681B78115961C930E931497D7
S113318017830683EA8D8E9FF0011124E958FE4EC1
S1133190FD87EC8780818F5F808381E016C0A091DA
S11331A0E511B091E6115A968C91828F81E00DC0A1
S11331B095A5E091E511F091E611828D981720F024
S11331C080E003C080E001C081E0DF91CF911F91D6
S11331D00F9108950F931F93CF93DF93FC01892BD5
S11331E009F449C086A5815086A7228D95A5291783
S11331F009F443C0811143C0EF018F010E5F1F4FDB
S1133200C8010E942A08EDA5EA8F8AE090E0A0E0B8
S1133210B0E08E1B9109A109B1098E879F87A88B05
S1133220B98B809135118E1710F4E09335118BE032
S11332308E9FF0011124E958FE4E0180F281E02DA9
S1133240FF83EE832681378139872887A681B7815A
S113325015961C930E93149717830683EA8D8E9FFD
S1133260F0011124E958FE4EFD87EC8780818F5FC1
S1133270808381E005C080E003C080E001C080E07D
S1133280DF91CF911F910F9108950F931F93CF93C7
S1133290DF93FC01892B09F45AC085A5861708F42D
S11332A0862F928D891709F452C026A5213009F082
S11332B04EC0828F4685578560897189772364F073
S11332C04AE050E060E070E0481B5109610971096F
S11332D046875787608B718B248535854BE0949F97
S11332E0C001112489589E4E2817390781F5EF0132
S11332F08F010E5F1F4FC8010E942A08EA8D80913A
S113330035118E1710F4E09335118BE08E9FF00188
S11333101124E958FE4E0180F281E02DFF83EE83F3
S11333202681378139872887A681B78115961C9312
S11333300E93149717830683EA8D8E9FF001112450
S1133340E958FE4EFD87EC8780818F5F8083DF9193
S1133350CF911F910F910895CF92DF92EF92FF9238
S1133360E091E511F091E611668577858089918970
S1133370E091E511F091E611A091E511B091E6110B
S11333805A962C910F2EFAE0CF2ED12CE12CF12C51
S1133390F02DC21AD108E108F108C686D786E08A62
S11333A0F18AFF90EF90DF90CF9008958091E5111E
S11333B09091E611892B39F0E091E511F091E61135
S11333C086A58F5F86A78091E5119091E6110895F7
S11333D04F925F926F927F92AF92BF92CF92DF92A1
S11333E0EF92FF920F931F93CF93DF93280139013C
S11333F00FB6F8940F92E091E511F091E611C82F01
S1133400D0E0EC0FFD1F83A9823079F1E091E51142
S1133410F091E611CE01880F991F880F991FE80FCC
S1133420F91F87A590A9A1A9B2A9409550956095C7
S11334307095482359236A237B2347A750AB61AB7C
S113344072ABE091E511F091E611EC0FFD1F81E004
S113345083ABA114B104C104D10439F041E0C60125
S1133460B5010E94AC110E94A6080F900FBE0FB6C2
S1133470F8940F92E114F104A1F0E091E511F091B8
S1133480E611CE01880F991F880F991FE80FF91FC5
S113349087A590A9A1A9B2A9F70180839183A283EA
S11334A0B383E091E511F091E611EC0FFD1F83A9C0
S11334B08230E9F4E091E511F091E611CE01880F34
S11334C0991F880F991FE80FF91F87A590A9A1A933
S11334D0B2A94094509460947094482259226A226C
S11334E07B2247A650AA61AA72AA81E001C080E0AB
S11334F02091E5113091E611C20FD31F1BAA0F9042
S11335000FBEDF91CF911F910F91FF90EF90DF904D
S1133510CF90BF90AF907F906F905F904F90089541
S11335208F929F92AF92BF92EF92FF920F93CF939D
S1133530DF93DC010FB6F8940F92E114F10489F0E3
S1133540E62FF0E0EE0FFF1FEE0FFF1FE80FF91F4D
S113355087A490A8A1A8B2A8F70180829182A28230
S1133560B38270E0FD01E60FF71F83A992E093ABED
S1133570023001F118F4013031F04DC0033079F11B
S11335800430D1F148C0660F771F660F771FFD0125
S1133590E60FF71F87A490A8A1A8B2A8BA01A901B1
S11335A0482959296A297B2947A750AB61AB72ABDB
S11335B001E034C0660F771F660F771FFD01E60F29
S11335C0F71F47A550A961A972A94F5F5F4F6F4FBD
S11335D07F4F47A750AB61AB72AB01E01FC0660FD2
S11335E0771F660F771FFD01E60FF71F27A730AB84
S11335F041AB52AB01E012C0823079F0660F771F05
S1133600660F771FFD01E60FF71F27A730AB41AB0D
S113361052AB01E003C001E001C000E0813009F0D9
S113362069C01C96ED91FC911D971696CD91DC9185
S1133630179718968D919C9119979F838E8318964E
S1133640CD91DC91199716968D919C9117979D8336
S11336508C83818192819D012E5F3F4F8217930756
S113366031F418968D919C911997928381831D96BC
S11336701C921E921C978081815080835A96EC91F3
S11336805A97809135118E1710F4E09335118BE021
S11336908E9FF0011124E958FE4E0180F281E02D45
S11336A01796FC93EE9316974681578119965C936F
S11336B04E931897C681D7813D832C833783268305
S11336C05A96EC915A978E9FF0011124E958FE4EB8
S11336D01D96FC93EE931C9780818F5F80835A968E
S11336E09C91E091E511F091E611828D891710F417
S11336F00E94A6080F900FBE802FDF91CF910F91EB
S1133700FF90EF90BF90AF909F908F9008958F920D
S11337109F92AF92BF92CF92DF92EF92FF920F935C
S1133720CF93DF93DC01E114F10489F0E62FF0E09C
S1133730EE0FFF1FEE0FFF1FE80FF91F87A490A8DD
S1133740A1A8B2A8F70180829182A282B38270E01C
S1133750FD01E60FF71F93A982E083AB023001F16C
S113376018F4013031F04DC0033079F10430D1F157
S113377048C0660F771F660F771FFD01E60FF71F1E
S113378087A490A8A1A8B2A8BA01A90148295929D7
S11337906A297B2947A750AB61AB72AB81E034C087
S11337A0660F771F660F771FFD01E60FF71F47A50A
S11337B050A961A972A94F5F5F4F6F4F7F4F47A711
S11337C050AB61AB72AB81E01FC0660F771F660F11
S11337D0771FFD01E60FF71F27A730AB41AB52ABB4
S11337E081E012C0923079F0660F771F660F771F61
S11337F0FD01E60FF71F27A730AB41AB52AB81E0C9
S113380003C081E001C080E0913009F096C090913E
S1133810261191115FC01C96ED91FC911D9716968F
S1133820CD91DC91179718962D913C9119973F8370
S11338302E831896CD91DC91199716962D913C9173
S113384017973D832C83418152819D012E5F3F4F09
S11338504217530731F418964D915C91199752838E
S113386041831D961C921E921C97908191509083C7
S11338705A96EC915A97909135119E1710F4E09353
S113388035119BE09E9FF0011124E958FE4E018002
S1133890F281E02D1796FC93EE931697468157819B
S11338A019965C934E931897C681D7813D832C83D8
S11338B0378326835A96EC915A979E9FF0011124E0
S11338C0E958FE4E1D96FC93EE931C9790819F5FE2
S11338D0908321C062E571E1FB01C181D2815396DD
S11338E0DC93CE9352972E813F8155963C932E9331
S11338F054974E815F819D01225F3F4FFA013583CA
S113390024833F832E8359967C936E935897FB01AF
S113391090819F5F90835A962C91E091E511F091EC
S1133920E611928D921748F4C114D10419F091E074
S1133930F601908391E090932F11DF91CF910F9135
S1133940FF90EF90DF90CF90BF90AF909F908F90BB
S11339500895009721F48091E5119091E6110FB636
S1133960F8940F9270E0FC01E60FF71F23A92230B0
S113397031F4FC01E60FF71F13AA81E001C080E0D7
S11339800F900FBE0895DC01E091F111F091F21156
S1133990808191E0811190E09C93911108C007808F
S11339A0F085E02D6081718182819381089560E0CA
S11339B070E0CB010895CF92DF92EF92FF920F93C4
S11339C01F93FC01428353836483758393878287A7
S11339D00417150726073707C0F00C191D092E090F
S11339E03F0986859785A089B189081719072A0791
S11339F03B0700F5BF016E5F7F4F8091EF119091FF
S1133A00F0110E94ED0780E018C00C151D052E056D
S1133A103F0528F44C155D056E057F0568F4BF016C
S1133A206E5F7F4F8091F1119091F2110E94ED072A
S1133A3080E003C081E001C081E01F910F91FF90FD
S1133A40EF90DF90CF9008950FB6F8940F92809185
S1133A50ED119091EE11892BE9F48EEF91E10E9422
S1133A60D80783EF91E10E94D8078EEF91E19093FC
S1133A70F2118093F11183EF91E19093F01180930F
S1133A80EF1140E067E08AE00E949B0A9093EE11F8
S1133A908093ED110F900FBE0895EF92FF920F9354
S1133AA0D3DF8091ED119091EE11892B91F00F2EBF
S1133AB0FBEEEF2EF1E1FF2EF02D03E020E030E0ED
S1133AC040EC50E068E674E088E591E00E944E1214
S1133AD001C080E00F91FF90EF9008958F929F9224
S1133AE0AF92BF92CF92DF92EF92FF920F931F9308
S1133AF0CF93DF93CDB7DEB727970FB6F894DEBF29
S1133B000FBECDBFE091ED11F091EE11309781F130
S1133B1069832A833B834C835D839F838E836630D2
S1133B20F4F4C3DA823069F400E0A7019601BE011F
S1133B306F5F7F4F8091ED119091EE110E94BE0A4C
S1133B4018C000E020E030E0A901BE016F5F7F4FA4
S1133B508091ED119091EE110E94BE0A0AC020E0FE
S1133B60A801BE016F5F7F4FCF010E946E0B01C0A1
S1133B7080E027960FB6F894DEBF0FBECDBFDF916D
S1133B80CF911F910F91FF90EF90DF90CF90BF9056
S1133B90AF909F908F9008958F929F92AF92BF9213
S1133BA0CF92DF92EF92FF920F931F93CF93DF9305
S1133BB03BC00780F085E02D80809180A280B38097
S1133BC0C085D1858E010E5F1F4FC8010E942A084F
S1133BD0EC89FD89CE0119958E8982FF25C08E85D9
S1133BE09F85A889B989880D991DAA1DBB1D8816B2
S1133BF09906AA06BB0670F48A839B83AC83BD83B3
S1133C00DB87CA87B8018091F1119091F2110E946B
S1133C10ED070AC0C12CD12C760100E010E0A5010B
S1133C20940160E0CE015ADFE091F111F091F211BC
S1133C3080818111BECF8091EF119091F01190930A
S1133C40F2118093F111F093F011E093EF11DF91F1
S1133C50CF911F910F91FF90EF90DF90CF90BF9085
S1133C60AF909F908F900895CF92DF92EF92FF9242
S1133C70CF93DF93EC010E94D8126B017C018091F9
S1133C80E7119091E811A091E911B091EA11C816D9
S1133C90D906EA06FB0620F47FDF81E0888301C0B1
S1133CA01882C092E711D092E811E092E911F092E3
S1133CB0EA11C701B601DF91CF91FF90EF90DF9039
S1133CC0CF9008954F925F926F927F928F929F92BE
S1133CD0AF92BF92CF92DF92EF92FF920F931F9316
S1133CE0CF93DF934B015C0129013A01E091F1117B
S1133CF0F091F2110780F085E02DC085D185CE01C9
S1133D0002960E942A088E8982FF1BC04E855F8519
S1133D1068897989480D591D6A1D7B1D75016401E7
S1133D2093018201CE0147DE882369F0C12CD12C96
S1133D30760100E010E0A501940160E0CE01CEDE42
S1133D4002C08E7F8E8BEC89FD89CE011995DF919F
S1133D50CF911F910F91FF90EF90DF90CF90BF9084
S1133D60AF909F908F907F906F905F904F90089549
S1133D708F929F92AF92BF92CF92DF92EF92FF9277
S1133D801F93CF93DF931F92CDB7DEB76B017C01F6
S1133D90142F0E94D212CE01019666DF4B015C0102
S1133DA0898181112DC011110DC08C149D04AE04A4
S1133DB0BF0440F00E941214A5019401C701B6018A
S1133DC081DF20C0112341F0E091EF11F091F01157
S1133DD0808111E0811110E0B701A6014819590949
S1133DE06A097B09212F8091ED119091EE110E94B7
S1133DF0E90C0E941214811105C00E94A60802C099
S1133E000E9412140F90DF91CF911F91FF90EF90B9
S1133E10DF90CF90BF90AF909F908F900895AF9216
S1133E20BF92CF92DF92EF92FF920F931F93CF93A3
S1133E30DF93CDB7DEB728970FB6F894DEBF0FBE79
S1133E40CDBF82C0898188230CF47EC0AE80BF8040
S1133E50D5011C968D919C911D97892B21F0C5014C
S1133E6002960E942A08CE010896FEDE8B019C0170
S1133E70E9810E2E000CFF0BEA30F10508F064C056
S1133E808827EE58FF4F8F4F0C948431F5018689B3
S1133E908160868BCA80DB80EC80FD8046855785F7
S1133EA0608971894C0D5D1D6E1D7F1DC50183DD0B
S1133EB0882309F449C0D5015496ED91FC91559796
S1133EC0C5011995F501868982FF3EC04A815B814F
S1133ED06C817D8186859785A089B1899A01AB0122
S1133EE0280F391F4A1F5B1FC12CD12C760100E01B
S1133EF010E060E0C501F2DD27C0D50156968C9133
S1133F0056978E7F56968C931FC0F50186898160E3
S1133F10868B4A815B816C817D8146875787608B64
S1133F20718B400F511F621F731F68017901C50116
S1133F3042DD0AC0F501868981FD04C0C5010E94E5
S1133F409B0702C08E7F868B20E030E0A901BE0172
S1133F506F5F7F4F8091ED119091EE110E94A90B3C
S1133F60811170CF28960FB6F894DEBF0FBECDBF77
S1133F70DF91CF911F910F91FF90EF90DF90CF9041
S1133F80BF90AF900895089584B1806884B985B1D5
S1133F90806885B9089583B1806883B90895F4DF92
S1133FA02FEF80E792E0215080409040E1F700C07D
S1133FB00000F1DFF5CFE8DF2FEF87EA91E621502B
S1133FC080409040E1F700C00000E5DFF5CF0F939B
S1133FD01F930091291310912A1360910912709173
S1133FE00A1221E030E040E050E083E090E00E94DB
S1133FF00503909332138093311300912913109188
S11340002A136091091270910A1222E030E040E014
S113401050E083E090E00E94240290933413809354
S113402033131F910F9108950F9380912913909149
S11340302A13892B89F481E00E94620B90932A133E
S113404080932913009741F000E020E030E0A901BB
S113405060E070E00E94BE0ABADF2091291330911B
S11340602A1340913313509134136091311370919A
S1134070321384E090E00E94FD040F9108950E94A1
S11340803E0590930A128093091280E00E94482B07
S113409060E070E081E043D3C7CF0895F0DF0E9471
S11340A09A12FFCF04D06894B11150C0089533D050
S11340B088F09F5790F0B92F9927B751A0F0D1F00D
S11340C0660F771F881F991F1AF0BA95C9F712C097
S11340D0B13081F03AD0B1E0089537C0672F782F1E
S11340E08827B85F39F0B93FCCF386957795679503
S11340F0B395D9F73EF490958095709561957F4F6F
S11341008F4F9F4F089557FD9058440F551F59F0F6
S11341105F3F71F04795880F97FB991F61F09F3FB0
S113412079F087950895121613061406551FF2CFD9
S11341304695F1DF08C0161617061806991FF1CF29
S113414086957105610508940895E894BB27662750
S11341507727CB0197F90895FA01DC01AA0FBB1F59
S11341609B01AC01BF5728F42227332744275078FA
S11341701FC0B75188F4AB2F002446953795279577
S1134180011CA395D2F3002069F0220F331F441FB2
S1134190B395DAF30DD076C061307105A0E88A07D3
S11341A0B94630F49B01AC016627772788279078BD
S11341B0309621F0208331834283538308950BD0BA
S11341C0DDC0CED028F0D3D018F0952309F0BFC0BD
S11341D0C4C01124BBCF97DFA0F3959FD1F3950FF3
S11341E050E0551F629FF001729FBB27F00DB11D77
S11341F0639FAA27F00DB11DAA1F649F6627B00D07
S1134200A11D661F829F2227B00DA11D621F739FEF
S1134210B00DA11D621F839FA00D611D221F749FFD
S11342203327A00D611D231F849F600D211D822F44
S1134230762F6A2F11249F5750408AF0E1F088238B
S11342404AF0EE0FFF1FBB1F661F771F881F915098
S11342505040A9F79E3F510570F079C077CF5F3F7A
S1134260ECF3983EDCF3869577956795B795F795CB
S1134270E7959F5FC1F7FE2B880F911D9695879553
S113428097F908955058BB27AA270ED077C068D055
S113429030F06DD020F031F49F3F11F41EF45DC076
S11342A00EF4E095E7FB53C0E92F2DDF80F3BA1736
S11342B0620773078407950718F071F49EF545CFDC
S11342C00EF4E0950B2EBA2FA02D0B01B90190012D
S11342D00C01CA01A0011124FF27591B99F0593F71
S11342E050F4503E68F11A16F040A22F232F342FB9
S11342F04427585FF3CF469537952795A795F04007
S11343005395C9F77EF41F16BA0B620B730B840B1B
S1134310BAF09150A1F0FF0FBB1F661F771F881FD3
S1134320C2F70EC0BA0F621F731F841F48F487952B
S113433077956795B795F7959E3F08F0B3CF93951A
S1134340880F08F09927EE0F97958795089597F9A8
S11343509F6780E870E060E008959FEF80EC089527
S113436000240A9416161706180609060895002450
S11343700A9412161306140605060895092E0394CA
S1134380000C11F4882352F0BB0F40F4BF2B11F43E
S113439060FF04C06F5F7F4F8F4F9F4F089565305C
S11343A0F1F4FA0180818F7390E0982F882721819E
S11343B0822B90930A02809309028281F0E48F9FFA
S11343C0C0011124FA01238126952695822B90930E
S11343D008028093070281E080930B1208956430F1
S11343E051F080E090E49093080280930702909348
S11343F00A028093090208950F931F930FEC11E2B0
S113440020E034E244EF50E060E087E20E94822B37
S113441090930D1280930C1221E0892B09F020E077
S1134420822F1F910F91089580910C1290910D127B
S1134430009759F040E060E070E00E94D32B843094
S113444031F410920B1280E0089582E0089583E025
S1134450089580910C1290910D12009739F064E048
S11344600E941F2C853021F083E0089582E0089596
S113447080E008956091090270910A0280E090E062
S11344800E94253120E030E048EC52E498DE20E040
S113449038EF4FE756E40C94B4300895EBDF20E096
S11344A030E040E251E48BDE02DECB0108956091FE
S11344B007027091080280E090E00E94253120E01C
S11344C030E045E253E47BDE20E038EF4FE756E48A
S11344D00E94B43020E030E040E252E4D3CE0895AC
S11344E00F931F93CF93DF931F921F92CDB7DEB725
S11344F08C0119822DC0E0914512EC3250F481E018
S11345008E0F80934512F0E0E958FD4E8A81808336
S113451002C0109245128A818A30D1F4409145122A
S113452050E0FA01EB58FD4E1082415051099E01B2
S11345302F5F3F4F67E772E18091481290914912D3
S11345400E946F0F898181110E94A6081092451262
S1134550BE016E5F7F4FC80105D6882361F20F90BC
S11345600F90DF91CF911F910F9108950F931F9397
S1134570CF93DF938C01EB01809148129091491203
S11345800E947A0EB8018EE092E10E94E3332097F4
S113459079F0EEE0F2E101900020E9F7319780E252
S11345A090E091838083BE018EE092E10E94D83333
S11345B0EEE0F2E1DF010D900020E9F711978DE0C4
S11345C09AE011969C938E9312961C92019000206F
S11345D0E9F73197EE50F241AE2F8EE092E1AC0153
S11345E06A2F80914A1290914B1267D5811111C0A4
S11345F008E215E020E030E04DE250E061ED72E1C8
S113460080914812909149120E94B30F81ED92E17A
S113461002C080E090E0DF91CF911F910F91089547
S11346202F923F924F925F926F927F928F929F92BE
S1134630AF92BF92CF92DF92EF92FF920F931F93AC
S1134640CF93DF935C01FC0101900020E9F73197DF
S11346506F01C81AD90A5C2C0F2EF9E08F2EF7E0EF
S11346609F2EF02DE12CF12C4C2C3701F40101810B
S11346701281E80109900020E9F72197C01BD10BB2
S11346803C2EF9E0CF16D10458F0F4012080FEE06E
S11346902F1206C0B801C5010E94B333892B09F556
S11346A0442D351408F44C2F50E0B801C5010E9484
S11346B0EA33892B49F4F301EE0FFF1FE60DF71DD2
S11346C0E75FF84F20800DC08FEFE81AF80AE3E0A7
S11346D08E0E911CF1E1EF16F10439F66894222450
S11346E024F8822DDF91CF911F910F91FF90EF90CD
S11346F0DF90CF90BF90AF909F908F907F906F90FE
S11347005F904F903F902F90089530DF89CF0895A8
S113471080914812909149120C947A0E08958F92C8
S11347209F92AF92CF92EF920F931F93CF93C82F84
S11347308B0141E060E070E088EC90E00E94480E5C
S11347409093491280934812109347120093461293
S11347500F2EF0E78F2EF2E29F2EF02D6894AA24FC
S1134760A6F86894CC24C6F8E12C00E023E040E0ED
S113477051EE60E070E08C2FD2D390934B12809373
S11347804A12E7E0F1E0808180618083CF911F913C
S11347900F91EF90CF90AF909F908F9008958823C2
S11347A031F0E8E0F1E080818F7E80830895E8E0D5
S11347B0F1E0808180618083089560E070E08FE89B
S11347C094E0D4DEE1EDF2E101900020E9F73197C5
S11347D0E15DF24181E0759708F080E00895CF93A0
S11347E0DF93EC0160E070E080EA94E0BFDEE1ED8D
S11347F0F2E101900020E9F7E25EF24139F461ED63
S113480072E1CE010E94E33380E002C0188281E0AD
S1134810DF91CF910895FC0101900020E9F79F01F9
S1134820215131092817390729F4BC018EEC94E091
S11348306CCF089589E00895FC0101900020E9F708
S11348409F01215131092817390729F4BC018DED45
S113485094E05BCF089589E00895FC010190002065
S1134860E9F79F01215231092817390729F4BC01BE
S11348708CEE94E04ACF089589E0089560E070E0FA
S11348808BE295E042CF08950F931F93E82FF0E059
S1134890EE0FFF1FEB5FF84F6081718184E395E0B9
S11348A034DF811114C008E215E020E030E04DE26D
S11348B050E061ED72E180914812909149120E949A
S11348C0B30F882321F081ED92E1AADE03C081EDCC
S11348D092E1A6DE1F910F9108950F931F93CF933A
S11348E0DF931F92CDB7DEB7DB0111969C91119730
S11348F0953108F0B4C0992381F160E070E0272F6E
S113490030E0462F50E0FD01E40FF51F92819295AF
S11349109F709A3010F0995C01C0905DF901EE59D6
S1134920FD4E90832F5F3F4FFD01E40FF51F9281F1
S11349309F70492F50E04A30510514F0995C01C032
S1134940905DF901EE59FD4E90837E5F6F5F119685
S11349509C911197691798F201C070E0E72FF0E07D
S1134960EE59FD4E10824C91811103C08DE395E008
S113497002C08FE395E022E632E13F932F931F922A
S11349804F939F938F9383E495E09F938F9384EA4F
S113499092E19F938F930E948C3460E070E084EAEC
S11349A092E1B3DE0FB6F894DEBF0FBECDBF811126
S11349B059C008E215E020E030E04DE250E061ED3E
S11349C072E180914812909149120E94B30F88239A
S11349D009F447C081ED92E123DE8E3009F042C034
S11349E087E089838091461290914712892BA9F11F
S11349F0BE016F5F7F4F81ED92E168D180934C12CD
S1134A00E981F0E0EF52FD4EDF010D900020E9F75F
S1134A101197AE1BBF0BAA2391F0BB27CD010197C1
S1134A209C0112F42F5F3F4F3595279520934D122B
S1134A30AF014F5F5F4F64E18EE492E173D101E017
S1134A4010E020E030E046E150E06CE472E1809157
S1134A504612909147120E94AA0E8EE003C084E190
S1134A6001C080E00F90DF91CF911F910F910895C5
S1134A70813019F063E575E002C06CE276E087E509
S1134A8095E043CE08959F938F9388E895E09F9394
S1134A908F9384EA92E19F938F930E948C3460E019
S1134AA070E084EA92E131DE0F900F900F900F9046
S1134AB00F900F9008952F923F924F925F926F92B2
S1134AC07F928F929F92AF92BF92CF92DF92EF929A
S1134AD0FF920F931F93CF93DF93CDB7DEB7A097C9
S1134AE00FB6F894DEBF0FBECDBF65EB75E081EC69
S1134AF095E03CDD95DD8111A3C080E2E2E2F2E0C5
S1134B00DE01119601900D928A95E1F79E012F5FC7
S1134B103F4F6901E12CF12C0F2EFDECAF2EF5E097
S1134B20BF2EF02D04EA12E10F2EF6EE4F2EF5E023
S1134B305F2EF02D0F2EFDEF8F2EF5E09F2EF02D22
S1134B400F2EF7E16F2EF6E07F2EF02D3E2C2F2C4A
S1134B50FF92EF92BF92AF921F930F930E948C34F7
S1134B6060E070E0C80102DD5BDD0F900F900F90F4
S1134B700F900F900F90811163C032E03E15E8F45E
S1134B80F60183818F9382818F9381818F938081BA
S1134B908F93FF92EF925F924F921F930F930E9415
S1134BA08C3460E070E0C801E1DC3ADD0FB6F894C3
S1134BB0DEBF0FBECDBF811143C02F923F929F92A3
S1134BC08F921F930F930E948C3460E070E0C801B1
S1134BD0CDDC26DD0F900F900F900F900F900F906B
S1134BE081112EC02F923F927F926F921F930F9349
S1134BF00E948C3460E070E0C801B8DC11DD0F90D5
S1134C000F900F900F900F900F90811119C03FEFEC
S1134C10E31AF30A84E0C80ED11C98E0E916F10403
S1134C2009F094CF60E070E08FE296E09FDCF8DC5E
S1134C30811106C060E070E080E496E097DCF0DC6F
S1134C40A0960FB6F894DEBF0FBECDBFDF91CF9113
S1134C501F910F91FF90EF90DF90CF90BF90AF9096
S1134C609F908F907F906F905F904F903F902F9088
S1134C700895EF92FF920F931F93CF93DF93EC016C
S1134C808B017A0181E0F4DE81110DC0CE01D4DD07
S1134C90811109C0C801E1DD811105C0C701BBDD77
S1134CA0811101C0EBDDDF91CF911F910F91FF9036
S1134CB0EF90089590E0FC01EE0FFF1F8E0F9F1FF1
S1134CC0FC01E75FF84F818192810895DC01009730
S1134CD029F1FB012081FC0101900020E9F73197C3
S1134CE0E81BF90B822F90E0E817F907C8F080E081
S1134CF008C0880F382F330F330F830F8053890F69
S1134D002F5FFD01E20FF11D908130ED390F3A3034
S1134D1010F49111EECFFB012083089580E00895F3
S1134D2080E008950F931F93CF93DF93DC01EA0192
S1134D302097E1F1FA0101900020E9F73197E41B93
S1134D40F50B329710F532C08D01040F151F30E0BA
S1134D50AE01420F531FFA019081913428F097530A
S1134D60592F5295507F03C0592F5295507F2C0FC5
S1134D703D1FF9019181913410F0975301C0905374
S1134D80950FF80190838F5F01C080E0282F220FD8
S1134D90482F50E0FE0101900020E9F73197EC1B09
S1134DA0FD0B4E175F0710F48613CECFDF91CF9122
S1134DB01F910F91089580910113860F8093011321
S1134DC090910413913079F028F09230A9F0933047
S1134DD019F108956F3F09F048C01092011381E062
S1134DE0809304130895663809F03FC010920013AD
S1134DF082E0809304130895E091001381E08E0F04
S1134E0080930013F0E0E250FD4E6083823069F538
S1134E1083E08093041308959091001321E0290FF7
S1134E2020930013963009F581110EC0EEEFF2E1E4
S1134E30808190E0982F88272181820F911D909383
S1134E4006138093051304C01092061310920513E1
S1134E5010920413E0910213F0910313309729F098
S1134E608091051390910613199508958F929F923E
S1134E70AF92CF92EF920F930F2EFBED8F2EF6E2AF
S1134E809F2EF02D6894AA24A4F86894CC24C4F826
S1134E90E12C00E023E040E855E260E070E03FD020
S1134EA090930813809307130F91EF90CF90AF90D6
S1134EB09F908F9008959093031380930213089505
S1134EC0CF93DF93CDB7DEB729970FB6F894DEBF43
S1134ED00FBECDBF89E0E2E4F2E09E012F5F3F4FB9
S1134EE0D90101900D928A95E1F710920613109260
S1134EF005138091071390910813009731F0422F06
S1134F00532F69E0DAD080E001C082E029960FB621
S1134F10F894DEBF0FBECDBFDF91CF9108952F92DD
S1134F203F924F925F926F927F928F929F92AF9235
S1134F30CF92EF92FF920F931F93CF93DF93CDB74E
S1134F40DEB7F82E2A013B0188E090E00E949B31F5
S1134F508C018F2D90E0FC01EE0FFF1FE75FFC4EEC
S1134F60118300830115110509F46AC0880F991F84
S1134F70FC01E55FFD4F80819181D8018D939C9365
S1134F808C2D90E0880F991F880F991F0E949B31E8
S1134F901C0186E090E00E949B317C014C2DB10104
S1134FA03ED5F801F582E4828A2D90E0880F991F9E
S1134FB0880F991F0E949B311C0186E090E00E949B
S1134FC09B317C014A2DB1012AD5D8011396FC925C
S1134FD0EE92129717969C928E921697FFB6F894BB
S1134FE0ED91FC91119736978081826080838D903A
S1134FF09C90C301B2010E94253120E030E040E0E2
S113500051E4DDD89B01AC0160E074E284E79BE4E9
S11350100E94B43020E030E040E85FE333D947D861
S1135020F40132976083D801ED91FC911197359783
S113503088E98083ED91FC91349786E08083FFBEFC
S1135040C801DF91CF911F910F91FF90EF90CF9006
S1135050AF909F908F907F906F905F904F903F9014
S11350602F900895CF93DF93DC01892B01F11296E1
S1135070ED91FC911397938182812581981B922352
S113508084819817B1F0838126952823C081D1812A
S1135090C20FD11D68838F5F958189238383ED912E
S11350A0FC91359780818062808380E003C081E039
S11350B001C082E0DF91CF910895EF92FF920F93A8
S11350C01F93CF93DF937C01009709F441C0DC0167
S11350D01296ED91FC91139793818281981B85819F
S11350E098238481891B8617A8F1662341F1842FB4
S11350F0952FDC016150462F50E04F5F5F4F480F02
S1135100591FE701EA81FB81938182812581981BE4
S113511092238481981779F08C9193812695292381
S1135120608171818B01020F111DE80188839F5FEB
S11351308581982393831196A417B50711F7D70196
S1135140ED91FC91359780818062808380E003C07B
S113515081E001C082E0DF91CF911F910F91FF9018
S1135160EF9008950097D1F0DC011496ED91FC9135
S1135170159793818281981799F0928185818695FC
S11351808923A081B181A80FB11D8C91DB018C937F
S11351909F5F85819823928380E0089581E008953C
S11351A083E008951F920F920FB60F9211240BB64D
S11351B00F922F933F934F935F936F937F938F93AC
S11351C09F93AF93BF93CF93DF93EF93FF93A091FC
S11351D00913B0910A13109711F16091C600149647
S11351E0ED91FC911597938182812581981B9223DF
S11351F08481981761F0838126952823C081D18109
S1135200C20FD11D68838F5F95818923838316968E
S1135210ED91FC911797309711F0CD011995FF91FD
S1135220EF91DF91CF91BF91AF919F918F917F913A
S11352306F915F914F913F912F910F900BBE0F9003
S11352400FBE0F901F9018951F920F920FB60F92DA
S113525011240BB60F922F938F939F93AF93BF9309
S1135260EF93FF93E0910913F0910A133097B9F08B
S11352700280F381E02D938182819817B1F09281AD
S11352808581282F26952923A081B181A20FB11DE4
S11352902C919F5F892382832093C6000BC0E1EC8D
S11352A0F0E080818F7D808305C0E1ECF0E08081B7
S11352B08F7D8083FF91EF91BF91AF919F918F91EB
S11352C02F910F900BBE0F900FBE0F901F9018954B
S11352D01F920F920FB60F9211240BB60F922F93B9
S11352E03F934F935F936F937F938F939F93AF936A
S11352F0BF93CF93DF93EF93FF93A0910B13B091E0
S11353000C13109711F16091CE001496ED91FC915D
S11353101597938182812581981B92238481981704
S113532061F0838126952823C081D181C20FD11DCC
S113533068838F5F9581892383831696ED91FC9111
S11353401797309711F0CD011995FF91EF91DF91E7
S1135350CF91BF91AF919F918F917F916F915F9109
S11353604F913F912F910F900BBE0F900FBE0F9056
S11353701F9018951F920F920FB60F9211240BB61F
S11353800F922F938F939F93AF93BF93EF93FF93BA
S1135390E0910B13F0910C133097B9F00280F38174
S11353A0E02D938182819817B1F092818581282F15
S11353B026952923A081B181A20FB11D2C919F5F55
S11353C0892382832093CE000BC0E9ECF0E0808136
S11353D08F7D808305C0E9ECF0E080818F7D808340
S11353E0FF91EF91BF91AF919F918F912F910F906A
S11353F00BBE0F900FBE0F901F9018951F920F9227
S11354000FB60F9211240BB60F922F933F934F9325
S11354105F936F937F938F939F93AF93BF93CF9338
S1135420DF93EF93FF93A0910D13B0910E13109798
S113543011F16091D6001496ED91FC91159793812A
S113544082812581981B92238481981761F083813E
S113545026952823C081D181C20FD11D68838F5F17
S11354609581892383831696ED91FC911797309744
S113547011F0CD011995FF91EF91DF91CF91BF917B
S1135480AF919F918F917F916F915F914F913F91D8
S11354902F910F900BBE0F900FBE0F901F90189579
S11354A01F920F920FB60F9211240BB60F922F93E7
S11354B08F939F93AF93BF93EF93FF93E0910D135B
S11354C0F0910E133097B9F00280F381E02D9381AF
S11354D082819817B1F092818581282F26952923FE
S11354E0A081B181A20FB11D2C919F5F892382837A
S11354F02093D6000BC0E1EDF0E080818F7D8083A6
S113550005C0E1EDF0E080818F7D8083FF91EF9114
S1135510BF91AF919F918F912F910F900BBE0F90E0
S11355200FBE0F901F9018951F920F920FB60F92F7
S113553011240BB60F922F933F934F935F936F9366
S11355407F938F939F93AF93BF93CF93DF93EF9307
S1135550FF93A0910F13B0911013109711F1609164
S113556036011496ED91FC911597938182812581E2
S1135570981B92238481981761F0838126952823B0
S1135580C081D181C20FD11D68838F5F958189232A
S113559083831696ED91FC911797309711F0CD0106
S11355A01995FF91EF91DF91CF91BF91AF919F91A9
S11355B08F917F916F915F914F913F912F910F90B8
S11355C00BBE0F900FBE0F901F9018951F920F9255
S11355D00FB60F9211240BB60F922F938F939F93B4
S11355E0AF93BF93EF93FF93E0910F13F0911013D8
S11355F03097B9F00280F381E02D9381828198176E
S1135600B1F092818581282F26952923A081B1812B
S1135610A20FB11D2C919F5F8923828320933601B1
S11356200BC0E1E3F1E080818F7D808305C0E1E37D
S1135630F1E080818F7D8083FF91EF91BF91AF91E5
S11356409F918F912F910F900BBE0F900FBE0F90D3
S11356501F901895CF93DF931F92CDB7DEB7BE018D
S11356606F5F7F4F80911113909112137BDD811135
S1135670F6CF898190E00F90DF91CF910895682F44
S11356808091111390911213EDDC80E090E0089565
S11356908F929F92AF92CF92EF920F93812C912C85
S11356A06894AA24A7F86894CC24C7F8E12C00E0F5
S11356B023E040E051EE60E070E031DC909312139F
S11356C080931113E9E3F3E183E192E09183808312
S11356D0938382830F91EF90CF90AF909F908F90A0
S11356E008958091211381110CC08CE08093B8003F
S11356F08FEF8093BB0084E08093BC0081E08093B3
S113570021130895AF92BF92CF92DF92EF92FF924E
S11357100F931F93CF93DF93A82EB62E69017A01BE
S113572084E090E008D6EC01892B61F1A88281E045
S1135730B81212C0C701B60120EA36E841E050E0D1
S1135740C1D5DA01C9014097A109B109B695A79558
S113575097958795898311C0C701B60120E83AE17E
S113576046E050E0AFD5DA01C9014097A109B1097B
S1135770B695A7959795879589831B830A838C2F64
S11357809D2F02C080E090E0DF91CF911F910F9197
S1135790FF90EF90DF90CF90BF90AF9008958091ED
S11357A0BC0081700895FF920F931F93CF93DF93F2
S11357B00097D1F14A30D0F5F42E8B01EC01EFDFE4
S11357C0811136C08091141390911513C817D9070D
S11357D041F087DF89818093B800D0931513C0937B
S11357E0141381E08F0D809316138881880F8093A2
S11357F01713FF2089F0F801A8E1B3E14FEF4F0D33
S1135800642F70E0CB010196B801680F791F819174
S11358108D93E617F707D9F788EF8093210285EA7D
S11358208093BC0084E005C086E003C087E001C02B
S113583082E0DF91CF911F910F91FF9008951F9304
S1135840CF93DF93009729F16B3028F5162FEC01E5
S1135850A6DF811122C08091141390911513C817EB
S1135860D90741F03EDF89818093B800D0931513A6
S1135870C0931413109316138881880F816080934A
S1135880171388EF8093210285EA8093BC0085E09A
S113589005C086E003C087E001C082E0DF91CF91BC
S11358A01F9108951F920F920FB60F9211240BB6F9
S11358B00F922F933F934F935F936F937F938F93A5
S11358C09F93AF93BF93EF93FF93E091B9008E2F13
S11358D090E0FC013897E135F10508F075C08827A0
S11358E0E458FF4F8F4F10C510921313E091131318
S11358F080911613E81770F481E08E0F80931313D0
S1135900F0E0E95EFC4E80818093BB0085E88093E3
S1135910BC0072C084E98093BC0080911413909100
S11359201513DC011296ED91FC911397309709F44D
S113593063C020E040E050E064E019955DC0E09170
S1135940131381E08E0F809313138091BB00F0E05A
S1135950E95EFC4E80838091B900803411F410928A
S113596013132091131330E08091161390E00197E4
S11359702817390724F485EC8093BC003DC085E8E2
S11359808093BC0039C08091BB00E0911313F0E018
S1135990E95EFC4E808384E98093BC0080911413FB
S11359A090911513DC011296ED91FC9113973097A9
S11359B019F12091161347E153E165E019951CC0D4
S11359C085EA8093BC0018C08091B90080932102BD
S11359D084E08093BC008091141390911513DC0132
S11359E01296ED91FC911397309731F020E040E04E
S11359F050E0609121021995FF91EF91BF91AF9111
S1135A009F918F917F916F915F914F913F912F91D2
S1135A100F900BBE0F900FBE0F901F901895FC01B6
S1135A20411101C0A9D5842F90E09C012150310976
S1135A3082239323892B09F09FD5413808F09CD504
S1135A40128213824483440F4150458371836083DF
S1135A5080E090E008952F923F924F925F926F9270
S1135A607F928F929F92AF92BF92CF92DF92EF92EA
S1135A70FF920F931F93CF93DF93CDB7DEB7609759
S1135A800FB6F894DEBF0FBECDBF7C011B016A01C7
S1135A90FC0117821682838181FF2AC39E012F5F36
S1135AA03F4F3901F7019381F10193FD859193FFF4
S1135AB081911F01882309F417C3853239F493FDBA
S1135AC0859193FF81911F01853231F4B70190E0F4
S1135AD0A4D656016501E6CF10E0512C912CFFE1CC
S1135AE0F915D8F08B3279F038F4803279F08332BA
S1135AF0A1F4F92DF0612EC08D3261F0803369F488
S1135B00292D21602DC0392D3260932E892D84607A
S1135B10982E2AC0E92DE86015C097FC2DC020ED11
S1135B20280F2A3088F496FE06C03AE0139F200D11
S1135B301124122F19C08AE0589E200D1124522ED0
S1135B40E92DE0629E2E10C08E3231F496FCCCC258
S1135B50F92DF0649F2E08C08C3621F4292D20687D
S1135B60922E02C0883641F4F10193FD859193FF92
S1135B7081911F018111B3CF9BEB980F933020F4D7
S1135B80992D9061805E07C09BE9980F933008F0CF
S1135B9059C1992D9F7E96FF16E09F73992E8536E5
S1135BA019F49064992E08C0863621F4392F306890
S1135BB0932E02C01111115097FE07C01C3350F4EC
S1135BC044244394410E27E00BC0183038F027E0FA
S1135BD017E005C027E09CE3492E02C0212F412C89
S1135BE0560184E0A80EB11CF601608171818281A6
S1135BF09381042DA301C4D46C01F981FC87F0FFC7
S1135C0002C0F3FF06C091FC06C092FE06C000E28B
S1135C1005C00DE203C00BE201C000E08C858C706E
S1135C2019F0011143C280C297FE10C04C0CFC85D0
S1135C30F4FF04C08A81813309F44A94141474F57E
S1135C4028E0241578F588E0482E2CC096FC2AC05C
S1135C50812F90E08C159D059CF03CEFC3163FEF1F
S1135C60D30674F0892D8068982E0AC0E2E0F0E033
S1135C70EC0FFD1FE10FF11D8081803319F41150E9
S1135C801111F4CF97FE0EC044244394410E812F8A
S1135C9090E0C816D9062CF41C1904C0442443947B
S1135CA001C010E097FE06C01C141D0434F4C601A4
S1135CB0019605C085E090E002C081E090E001110A
S1135CC00196112331F0212F30E02F5F3F4F820FD7
S1135CD0931F252D30E08217930714F4581A01C03E
S1135CE0512C892D897041F4552031F0B70180E29F
