S00B0000496F542E737265630D
S113000067C1000086C1000084C1000082C10000F5
S113001080C100007EC100007CC100007AC10000E4
S113002078C1000076C1000074C1000072C10000F4
S11300300C94AC0B6EC100006CC100006AC10000DE
S113004068C1000066C1000064C1000062C1000014
S113005060C100005EC100005CC100005AC1000024
S113006058C100000C946C2B0C94BE2B52C10000A0
S113007050C100004EC100004CC100004AC1000044
S113008048C1000046C1000044C1000042C1000054
S11300900C94022C0C94542C3CC100000C946C3035
S11300A038C1000036C1000034C1000032C1000074
S11300B030C100002EC100002CC100002AC1000084
S11300C028C1000026C1000024C100000C94982C13
S11300D00C94EA2C1EC100000C942E2D0C94802D3F
S11300E018C10000862186218621BD21C521DA217F
S11300F086218621BD21C5218E30FE30FE30FE30A2
S1130100FE30FE30FE30FE308E30FE30FE30FE30EB
S1130110FE30FE30FE30FE309030FE30FE30FE30D9
S1130120FE30FE30FE30FE30FE30FE30FE30FE305B
S1130130FE30FE30FE30FE309030FE30FE30FE30B9
S1130140FE30FE30FE30FE30FE30FE30FE30FE303B
S1130150FE30FE30FE30FE30FA30FE30FE30FE302F
S1130160FE30FE30FE30FE30C530FE30FE30FE3054
S1130170FE30FE30FE30FE30FE30FE30FE30FE300B
S1130180FE30FE30FE30FE30B930FE30FE30FE3040
S1130190FE30FE30FE30FE30DD306E616E00696E82
S11301A0660000407A10F35A00A0724E180900103D
S11301B0A5D4E80000E87648170000E40B540200D8
S11301C000CA9A3B000000E1F50500008096980003
S11301D0000040420F000000A0860100000010272C
S11301E000000000E80300000000640000000000BC
S11301F00A00000000000100000000002C76D888EE
S1130200DC674F0823DFC1DFAE59E1B1B796E5E300
S1130210E453C63AE651997696E8E6C28426EB8919
S11302208C9B62ED407C6FFCEFBC9C9F40F2BAA5B6
S11302306FA5F490055A2AF75C936B6CF9676DC14E
S11302401BFCE0E40D47FEF520E6B500D0ED902E52
S11302500300943577050080841E080000204E0AB0
S1130260000000C80C333333330F986E12831141EE
S1130270EF8D2114893BE65516CFFEE6DB18D184B9
S11302804B381BF77C1D901DA4BBE42420328472E0
S11302905E228100C9F124ECA1E53D270E94C71329
S11302A08091FD13823010F00E94E60A0E9403221E
S11302B0F5CFCF93DF931F92CDB7DEB7CE01019672
S11302C00E94031F49810E94F8200E944F21F6CF0B
S11302D011241FBECFEFD1E2DEBFCDBF00E00CBFC3
S11302E017E0A0E0B2E0E8E3F2E700E00BBF02C0F1
S11302F007900D92AC3AB107D9F725E1ACEAB7E023
S113030001C01D92A33DB207E1F70E948B220C9419
S11303101A3976CE9093B8158093B7150895CF9374
S1130320DF9300D01F92CDB7DEB75C010E94181591
S113033069837A838B839C8340EE53E060E070E0B2
S1130340CE0101960E942E174091B9155091BA150D
S11303506091BB157091BC15CC24CA94DC2C760139
S113036001E020E08091BD159091BE15DAD5009191
S1130370B9151091BA152091BB153091BC15DC014B
S1130380CB0180239123A223B323081719072A073B
S11303903B0791F60E94C5298093B6158111CCCFF5
S11303A08091B7159091B815F50191838083809160
S11303B0B7159091B815B1D2BFCFEF92FF920F93BA
S11303C0CF93DF93082FEB014091B9155091BA15E3
S11303D06091BB157091BC158091BD159091BE15AF
S11303E040D6E12CF12C9E0144E251E06FE672E02C
S11303F08FE891E00E948E14DF91CF910F91FF90CE
S1130400EF900895AF92BF92CF92DF92EF92FF9256
S11304100F931F93CF93DF938C015B0169017A01E2
S113042082E090E00E94D435EC01892B11F119820D
S11304301882B092BE15A092BD15C092B915D09283
S1130440BA15E092BB15F092BC1583E00E949B297B
S113045087E792E09F938F937AD18AE891E00E9494
S1130460C029BE01C801A9DF0F900F908C2F9D2FCA
S113047002C080E090E0DF91CF911F910F91FF9037
S1130480EF90DF90CF90BF90AF900895EF92FF92DE
S11304900F939B01E12CF12C082F48E851E06EE802
S11304A072E08BE992E00E948E140F91FF90EF901E
S11304B008950F931F93CF93DF930FEF1FEF9801CE
S11304C046E150E06CEA77E00E94F311CCEAD7E011
S11304D0998188811F929F931F928F9388EA92E05B
S11304E09F938F9334D189810F900F900F900F9029
S11304F00F900F908130D1F48091AE07813059F480
S11305006CE90E94F42989ED92E09F938F931FD1A7
S11305100F900F900BC064E681E00E94F42987EEEF
S113052092E09F938F9313D10F900F90DF91CF910F
S11305301F910F910895EC01CE01BBDFFDCF0F9306
S11305401F93CF93DF9300D01F92CDB7DEB78130D6
S113055031F58B01CE0101960E94AC2E811116C09B
S113056069817A818B819C810E9498227093C30750
S11305706093C207CB012CD269817A818B819C81E3
S11305800E949822F8017183608309C0833039F492
S113059085EF92E09F938F93DAD00F900F900F9096
S11305A00F900F900F90DF91CF911F910F910895AD
S11305B0EF92FF920F93CF93DF93082FEB014091BB
S11305C0B9155091BA156091BB157091BC15809105
S11305D0BD159091BE1545D5E12CF12C9E0148E83E
S11305E051E066E273E081E893E00E948E14DF91AB
S11305F0CF910F91FF90EF9008958F929F92AF92B9
S1130600BF92EF92FF921F93CF93DF93182F7B013A
S113061049015A0162E070E081E090E00E94BA353D
S1130620EC01892B19F1198218828092B9159092E4
S1130630BA15A092BB15B092BC15F092BE15E0920B
S1130640BD158FE992E00E946A2E811107C081E3F3
S113065093E09F938F937BD00F900F900E94852EF1
S1130660BE01812FA5DF8C2F9D2F02C080E090E07A
S1130670DF91CF911F91FF90EF90BF90AF909F902B
S11306808F900895CF92DF92EF92FF920F931F9372
S1130690CF93DF93EC014091B9155091BA15609155
S11306A0BB157091BC15CC24CA94DC2C760101E0F6
S11306B020E08091BD159091BE1533D40091B915F9
S11306C01091BA152091BB153091BC15DC01CB01FA
S11306D080239123A223B323081719072A073B0772
S11306E039F40E949A2E811103C0BE0181E027DFF4
S11306F0DF91CF911F910F91FF90EF90DF90CF90FA
S11307000895CF93DF9300D01F92CDB7DEB78C014D
S11307100E94181569837A838B839C8342EA53E091
S113072060E070E0CE0101960E942E17C801AADF96
S1130730F5CF8091BF159091C015892B39F481E0D4
S11307400E94A20D9093C0158093BF1508950F9336
S1130750CF93DF93CDB7DEB74CE251E060E070E0B9
S11307608091BF159091C0150E94780E8130B9F424
S1130770BE01675F7F4F8F8198850E94B5388AE0FC
S113078090E00E94823800E020E030E0A90160E0BF
S113079070E08091BF159091C0150E94FE0CDF910E
S11307A0CF910F9108958091C1159091C215892B15
S11307B039F481E00E94A20D9093C2158093C11573
S11307C00895CF92DF92EF92FF920F93CF93DF932E
S11307D06B017C01EA014CE251E060E070E0809141
S11307E0C1159091C2150E94780E8130C9F4C0924F
S11307F0CA07D092CB07E092CC07F092CD07D093F2
S1130800C907C093C80700E020E030E0A90160E018
S113081070E08091C1159091C2150E94FE0C07C032
S11308208AE493E09F938F9392DF0F900F90DF9170
S1130830CF910F91FF90EF90DF90CF9008950F9399
S1130840CF93DF934CE251E060E070E08091C115FA
S11308509091C2150E94780E813099F4D091C80706
S1130860C091C90700E020E030E0A90160E070E039
S11308708091C1159091C2150E94FE0C8D2F9C2F62
S113088009C08AE493E09F938F9361DF0F900F90E8
S113089080E090E0DF91CF910F910895FF920F9344
S11308A01F93CF93DF934CE251E060E070E08091BE
S11308B0C1159091C2150E94780E8130C9F4F09050
S11308C0CA071091CB07D091CC07C091CD0700E0A7
S11308D020E030E0A90160E070E08091C1159091C2
S11308E0C2150E94FE0C5F2D412F3D2F2C2F0BC0F3
S11308F08AE493E09F938F932ADF0F900F9050E048
S113090040E030E020E0652F742F832F922FDF9199
S1130910CF911F910F91FF9008950F93CF93DF9381
S1130920EC014CE251E060E070E08091C1159091DF
S1130930C2150E94780E813089F4D093C707C09302
S1130940C60700E020E030E0A90160E070E080919B
S1130950C1159091C2150E94FE0C07C08AE493E071
S11309609F938F93F4DE0F900F90DF91CF910F91AF
S113097008950F93CF93DF934CE251E060E070E071
S11309808091C1159091C2150E94780E813099F41E
S1130990D091C607C091C70700E020E030E0A9016C
S11309A060E070E08091C1159091C2150E94FE0C28
S11309B08D2F9C2F09C08AE493E09F938F93C7DE09
S11309C00F900F9080E090E0DF91CF910F91089508
S11309D00F93CF93DF93EC014CE251E060E070E0C1
S11309E08091C1159091C2150E94780E813081F4D6
S11309F0D093C507C093C40700E020E030E0A9010C
S1130A0060E070E08091C1159091C215F7D707C0DE
S1130A108AE493E09F938F939ADE0F900F90DF9177
S1130A20CF910F9108950F93CF93DF934CE251E050
S1130A3060E070E08091C1159091C2150E94780E1B
S1130A40813091F4D091C407C091C50700E020E043
S1130A5030E0A90160E070E08091C1159091C21569
S1130A60CDD78D2F9C2F09C08AE493E09F938F9359
S1130A706EDE0F900F9080E090E0DF91CF910F91A8
S1130A800895EF92FF920F93CF93DF93EC01062F1B
S1130A904091B9155091BA156091BB157091BC1570
S1130AA08091BD159091BE15DCD2E12CF12C9E01F4
S1130AB040EC50E06BE673E08CEC95E00E948E1401
S1130AC0DF91CF910F91FF90EF900895AF92BF9275
S1130AD0CF92DF92EF92FF920F931F93CF93DF9306
S1130AE08C015B0169017A0186E090E00E94D435B3
S1130AF0EC01892B19F1188219821A821B821D823A
S1130B001C82B092BE15A092BD15C092B915D092A8
S1130B10BA15E092BB15F092BC150E9461248111B4
S1130B2007C08CE793E09F938F9311DE0F900F9093
S1130B30B801CE01A6DF8C2F9D2F02C080E090E08B
S1130B40DF91CF911F910F91FF90EF90DF90CF90A5
S1130B50BF90AF900895CF93DF93EC010E94BC2423
S1130B60688379838A839B830E94B3249C01ADECC0
S1130B70BCEC0E94AB35AC0156954795569547950C
S1130B80569547955D834C83688179818A819B81E1
S1130B9018DEDF91CF910895CF93DF9300D01F9299
S1130BA0CDB7DEB75C010E94181569837A838B8305
S1130BB09C8342EA53E060E070E0CE0101960E941B
S1130BC02E170E947924882339F089EA93E09F93B1
S1130BD08F93BDDD0F900F904091B9155091BA15C8
S1130BE06091BB157091BC15CC24CA94DC2C7601A1
S1130BF001E020E08091BD159091BE1592D16B016A
S1130C007C0164E070E080E090E00E9493178091A2
S1130C10B9159091BA15A091BB15B091BC15C82215
S1130C20D922EA22FB228C159D05AE05BF0509F0E9
S1130C30C0CF0E948E2460E070E0CB010E94931725
S1130C40C50189DFB6CF0F931F93CF93DF93CDB741
S1130C50DEB764970FB6F894DEBF0FBECDBF0E9417
S1130C6042260E94C027CE0101960E945426CE013E
S1130C7001960E947026AE014F5F5F4F63EC73E0F4
S1130C8084EE93E00E949E280E94A32681E00E94A5
S1130C909D2784EF91E00E94A8271AE080E00E943B
S1130CA0A926082F0E94BF289F938F931F921F93FA
S1130CB085EF93E09F938F934ADD0F900F900F90F1
S1130CC00F900F900F90083041F066E371E080E0E0
S1130CD090E00E949317115009F7083041F485E120
S1130CE094E09F938F9333DD0F900F9002C06ED4E6
S1130CF0FECF64960FB6F894DEBF0FBECDBFDF9172
S1130D00CF911F910F910895CF93DF93CDB7DEB7A5
S1130D1028970FB6F894DEBF0FBECDBF81E00E94C6
S1130D20342662E070E080E090E00E94931780E057
S1130D300E94342666E970E080E090E00E949317F8
S1130D400E94ED2580DF0E94181569837A838B83C6
S1130D509C834CE652E060E070E0CE0101960E9474
S1130D602E17EEECF7E087E0818381E0808396DD47
S1130D70D62EC72EB82EA92E62DD8C01FADD7C0199
S1130D8052DE882E992E20E030E0A9016D2D7C2DB5
S1130D908B2D9A2D0E948F22882331F00115110585
S1130DA019F0E114F10499F4FF92EF921F930F9359
S1130DB0AF92BF92CF92DF9284E494E09F938F939B
S1130DC0C6DC0FB6F894DEBF0FBECDBFC2CF1D8206
S1130DD01E821F821886AE014B5F5F4F6D2D7C2DE6
S1130DE08B2D9A2D0E94112320E030E048EC52E430
S1130DF00E9444232B013C01AF92BF92CF92DF9219
S1130E008DE694E09F938F93A2DC6D817E818F8128
S1130E1098850E9493220F2EFEECCF2EF7E0DF2E52
S1130E20F02DF6016283C301B2010E949322F60100
S1130E3063831F930F938DE794E09F938F9387DCD5
S1130E40F6010483FF92EF928AE894E09F938F93D4
S1130E507EDCF601F582E6829F928F9282E994E02D
S1130E609F938F9374DCF60197828086B60180E0AD
S1130E700E94D2260E94BF289F938F9383EA94E016
S1130E809F938F9364DC0FB6F894DEBF0FBECDBF83
S1130E9060CFEF92FF920F93E12CF12C082F20E00A
S1130EA030E048E851E067EB74E084E896E00E94A3
S1130EB08E140F91FF90EF9008950F9301110CC0C1
S1130EC0DC01CB0182239323A423B523892B8A2B12
S1130ED08B2B79F480E010C0DC01CB0182239323B7
S1130EE0A423B523281739074A075B0721F080E0BC
S1130EF003C081E001C081E00F910895CF93DF9397
S1130F008FE090E0AFD1EC01009739F0FC01119231
S1130F10119211921192CF018BD2CE01DF91CF9118
S1130F2008952F923F924F925F926F927F928F9289
S1130F309F92AF92BF92CF92DF92EF92FF920F9364
S1130F401F93CF93DF93EC014A015B01622E702E55
S1130F500E941215288039804A805B80A501940183
S1130F60C201B101AADF8823A1F0662089F1D5016D
S1130F70C40180959095A095B09582219321A421D8
S1130F80B52188839983AA83BB83C12CD12C760194
S1130F9022C0C114D104E104F104E9F0611004C0D9
S1130FA040E050E0BA0104C040E050E060E071E08D
S1130FB071107460482959296A297B29970186018F
S1130FC0CE0104960E942A18212C312C210103C041
S1130FD0C12CD12C76010E945216CD28CE28CF28C0
S1130FE059F1811101C0F2D20E94EC1B6B017C010A
S1130FF091FD1FC00FB6F8940F92C880D980EA8083
S1131000FB80072DA5019401C701B60156DF882393
S113101071F0662061F080949094A094B0948C2038
S11310209D20AE20BF2088829982AA82BB820F9025
S11310300FBE160127015524C201B101DF91CF91E2
S11310401F910F91FF90EF90DF90CF90BF90AF90E2
S11310509F908F907F906F905F904F903F902F90D4
S113106008954F925F926F927F92AF92BF92CF9208
S1131070DF92EF92FF920F931F93CF93DF93EC01D4
S11310806A017B018C01095F1F4F0E941215EB85D9
S1131090FC8588819981AA81BB81C82AD92AEA2A38
S11310A0FB2AC882D982EA82FB82C12CD12C760128
S11310B03DC0A480B58080819181A281B381AC01BF
S11310C0BD017727B2FD0EC0488059806A807B80BD
S11310D0442255226622772245284628472889F447
S11310E020E012C0488059806A807B8044225522C7
S11310F066227722441555056605770521F020E020
S113110003C021E001C021E0222371F0B0FF04C03C
S1131110C42AD52AE62AF72A488159816A817B8123
S11311207260CF010E946519EA2DFB2DE017F107CB
S113113009F0BFCFC094D094E094F0948881998151
S1131140AA81BB81C822D922EA22FB22C882D98281
S1131150EA82FB820E945216688179818A819B818E
S1131160DF91CF911F910F91FF90EF90DF90CF907F
S1131170BF90AF907F906F905F904F900895E0EF95
S1131180F7E0A4EFB7E0B183A08313821282E8EA08
S1131190F3E1F093EF07E093EE07138212821182DA
S11311A0108284EB9BE013969C938E931297ED939D
S11311B0FC939093EB078093EA079093ED07809359
S11311C0EC0780E090E89093E5078093E4070895A6
S11311D0CF93DF93EC01A0EFB7E001C0DF01ED9105
S11311E0FC911197EC17FD07C8F312968D919C9111
S11311F013979D01280F391FC217D30749F42A8179
S11312003B81820F931F13969C938E931297ED014B
S11312108A819B819E01280F391FE217F307C1F4CD
S11312202091EE073091EF07E217F30771F0228166
S11312303381820F931F9B838A83ED91FC911197D5
S1131240808191819983888305C03983288302C072
S1131250F983E883CA17DB0711F0CD93DC93DF91A0
S1131260CF910895EF92FF920F931F93CF93DF9343
S11312708C010E9412158091EE079091EF07892B43
S113128009F47DDF8091E4079091E50780239123A1
S1131290892B09F076C00115110549F0C80104969F
S11312A00817190718F000E010E001C08C010115BF
S11312B0110509F469C08091EC079091ED0780173E
S11312C0910708F464C0C091F007D091F107E0EFF2
S11312D0F7E002C0FE01EC018A819B81801791072F
S11312E020F4888199810097A9F78091EE07909165
S11312F0EF07C817D90709F44DC0E080F18084E0F6
S1131300E80EF11C88819981918380832A813B8135
S1131310201B310B2930310548F0CE01800F911F7D
S1131320FC01338322831B830A8352DF2A813B819E
S11313308091EC079091ED07821B930B9093ED073E
S11313408093EC074091EA075091EB0784179507C7
S113135020F49093EB078093EA078091E40790913F
S1131360E507282B392B3B832A8319821882809125
S1131370E8079091E90701969093E9078093E807BD
S11313800BC0E12CF12C08C0E12CF12C05C0E12CA0
S1131390F12C02C0E12CF12C0E945216E114F1044C
S11313A011F40E940F22C701DF91CF911F910F9179
S11313B0FF90EF9008950F931F93CF93DF930097BF
S11313C091F1EC0124974A815B812091E4073091EB
S11313D0E507BA0162237323672B29F168817981B8
S11313E0672B09F520953095242335233B832A83E5
S11313F00E9412158A819B812091EC073091ED07A0
S1131400820F931F9093ED078093EC07CE01E0DEEB
S11314108091E6079091E70701969093E707809300
S1131420E6070E945216DF91CF911F910F91089504
S1131430FC010396928381834FEF5FEFBA014383EC
S1131440548365837683908787839287818710820C
S11314500895FC011386128608950F931F93CF936A
S1131460DF93EB01088119812A813B810F3F4FEF04
S113147014072407340721F4FC01A185B28511C0A7
S1131480DC01139601C0DF011496ED91FC911597D0
S1131490408151816281738104171507260737073C
S11314A090F71496ED91FC911597FD83EC83D78307
S11314B0C683BF83AE831596DC93CE9314979B8724
S11314C08A87FC0120812F5F2083DF91CF911F91B8
S11314D00F910895CF93DF93FC01A285B385C48156
S11314E0D581868197819F838E83C681D7818481AC
S11314F095819D838C8311968D919C911297E81709
S1131500F90731F48681978112969C938E931197F3
S1131510138612868C9181508C938C91DF91CF919C
S11315200895A89590EC88E10FB6F894A895809357
S113153060000FBE909360000895FC0160833197B2
S113154070833197108231971082319720E820837D
S113155031971082319710823197108277974083A8
S11315603197508386970895DCDFA0916B14B09176
S11315706C14CD91CDBFDD91DEBFFF91EF91DF9172
S1131580CF91BF91AF919F918F917F916F915F9117
S11315904F913F912F911F910F91FF90EF90DF900A
S11315A0CF90BF90AF909F908F907F906F905F90FF
S11315B04F903F902F901F900F900CBE0F900BBE3A
S11315C00F900FBE0F90089581E008950F920FB60B
S11315D0F8940F920BB60F920CB60F921F9211242F
S11315E02F923F924F925F926F927F928F929F922F
S11315F0AF92BF92CF92DF92EF92FF920F931F931D
S11316002F933F934F935F936F937F938F939F9306
S1131610AF93BF93CF93DF93EF93FF93A0916B149A
S1131620B0916C140DB60D920EB60D920E94AE17C9
S1131630A0916B14B0916C14CD91CDBFDD91DEBF40
S1131640FF91EF91DF91CF91BF91AF919F918F91D6
S11316507F916F915F914F913F912F911F910F91C6
S1131660FF90EF90DF90CF90BF90AF909F908F90BE
S11316707F906F905F904F903F902F901F900F90AE
S11316800CBE0F900BBE0F900FBE0F9008950F92DB
S11316900FB6F8940F920BB60F920CB60F921F92DE
S11316A011242F923F924F925F926F927F928F926A
S11316B09F92AF92BF92CF92DF92EF92FF920F93DD
S11316C01F932F933F934F935F936F937F938F93C6
S11316D09F93AF93BF93CF93DF93EF93FF93A09127
S11316E06B14B0916C140DB60D920EB60D9213BE20
S11316F00E94261581110E94AE17A0916B14B0911F
S11317006C14CD91CDBFDD91DEBFFF91EF91DF91E0
S1131710CF91BF91AF919F918F917F916F915F9185
S11317204F913F912F911F910F91FF90EF90DF9078
S1131730CF90BF90AF909F908F907F906F905F906D
S11317404F903F902F901F900F900CBE0F900BBEA8
S11317500F900FBE0F9008959ADF1895DC015396F1
S11317602C915397222341F05A96ED91FC915B976B
S113177090818AE0891B089580E008950FB6F8945B
S11317800F92FC01868D811102C081E001C080E0CE
S11317900F900FBE08950FB6F8940F92FC01268D9A
S11317A0878D281302C081E001C080E00F900FBE36
S11317B008950F931F93CF93DF93EC01042F1E8D95
S11317C048A141110CC088819981892B09F042C03C
S11317D08C819D810E942A1B1D821C8242C00111A2
S11317E017C050E08A819B810E94DC3728A18A813E
S11317F09B81820F911D9B838A832C813D8182175B
S1131800930750F1888199819B838A8380E029C062
S113181050E08E819F810E94DC3788A190E09195F1
S1131820819591092E813F81280F391F3F832E8393
S1131830488159812417350730F42C813D81820F6A
S1131840931F9F838E83023049F4112349F0115072
S113185080E007C080E005C080E003C080E001C0F4
S113186080E01F5F1E8FDF91CF911F910F9108952C
S1131870FC0140A14423A9F050E026813781240FC4
S1131880351F37832683848195812817390720F0F3
S11318908081918197838683CB01668177810C94C3
S11318A0DC3708951F93CF93DF93EC010FB6F894C0
S11318B00F921AA10BC08B89882351F0CE01439655
S11318C00E94B61881110E948C1A115011169CF3B3
S11318D08FEF8AA30F900FBE0FB6F8940F9219A141
S11318E00BC08885882351F0CE0108960E94B61853
S11318F081110E948C1A115011169CF38FEF89A349
S11319000F900FBEDF91CF911F910895CF93DF9376
S1131910EC010FB6F8940F92E881F9818F8D28A11C
S113192090E030E0829FA001839F500D929F500D64
S113193011244E0F5F1F5D834C831E8EFB83EA834D
S11319400197289FA001299F500D389F500D112405
S1131950CF01840F951F9F838E838FEF89A38AA362
S113196061110BC08885882371F0CE0108960E940E
S1131970B618882341F02ADE06C0CE01089658DD49
S1131980CE01439655DD0F900FBE81E0DF91CF91DC
S113199008950F931F93F801611103C0118300830D
S11319A002C051834083878F60A361E0CF01AEDF23
S11319B01F910F910895DF92EF92FF920F931F935F
S11319C0CF93DF93F82EE62ED42E869FC0011124E8
S11319D0839648DCEC01009741F08C012D2DAC017D
S11319E04D5D5F4F6E2D8F2DD4DFCE01DF91CF91F2
S11319F01F910F91FF90EF90DF900895CF92DF92A7
S1131A00EF92FF920F931F93CF93DF93CDB7DEB77F
S1131A1029970FB6F894DEBF0FBECDBF7C016B01D2
S1131A202E833F834887598710E00FB6F8940F92AE
S1131A30F701968D878D981710F00230B1F4402F7E
S1131A40B601C701B6DEF7019389992341F0C701B6
S1131A5043960E94B618882321F0B8DD02C0811194
S1131A60B5DD0F900FBE81E04CC08E819F81A885AB
S1131A70B985892B8A2B8B2B21F40F900FBE80E024
S1131A8040C0111105C0CE0101960E94151A11E043
S1131A900F900FBEC7D70FB6F8940F92F70181A12C
S1131AA08F3F09F411A2F70182A18F3F09F412A21A
S1131AB00F900FBEBE016A5F7F4FCE0101960E9458
S1131AC0261A811119C0C70166DE882381F04E8170
S1131AD05F8168857985C70108960E941318C7013C
S1131AE0E1DE0E9452168111A0CF70DD9ECFC701A6
S1131AF0D9DE0E94521699CFC701D4DE0E94521635
S1131B0080E029960FB6F894DEBF0FBECDBFDF91FB
S1131B10CF911F910F91FF90EF90DF90CF90089598
S1131B200F93009769F0FC011582148211821082D0
S1131B30168200E020E030E0A90160E070E05EDFA2
S1131B400F910895CF93DF93482F60E081E033DF56
S1131B50EC01E6DFCE01DF91CF910895EF92FF9281
S1131B600F931F93CF93DF938A01FC01568D378D1A
S1131B70531710F02230F9F4422F7801EC011AA126
S1131B808E8DCE0116DE1F3F81F48B898823A9F048
S1131B90CE0143960E94B618882389F0E114F1041B
S1131BA081F081E0F70180830DC0FF24F394F10EEE
S1131BB0FAA281E007C080E005C081E003C081E0B3
S1131BC001C081E0DF91CF911F910F91FF90EF90C1
S1131BD00895CF92DF92EF92FF920F931F93CF93CA
S1131BE0DF93CDB7DEB729970FB6F894DEBF0FBEEB
S1131BF0CDBF8C016B012E833F8348875987E12C2D
S1131C000FB6F8940F92F801F68CFF2099F0B60104
S1131C10C8012EDEFA94F801F68E8085882331F00F
S1131C20C80108960E94B6188111D0DC0F900FBE2F
S1131C3081E04FC08E819F81A885B985892B8A2B2D
S1131C408B2B21F40F900FBE80E043C0E11006C03F
S1131C50CE0101960E94151AEE24E3940F900FBE54
S1131C60E1D60FB6F8940F92F80181A18F3F09F4E1
S1131C7011A2F80182A18F3F09F412A20F900FBEA6
S1131C80BE016A5F7F4FCE0101960E94261A811120
S1131C9017C0C80173DD882379F04E815F816885A0
S1131CA07985C80143960E941318C801FBDDFAD751
S1131CB08111A6CF8BDCA4CFC801F4DDF3D7A0CF6C
S1131CC0C801F0DDEFD7C80159DD882309F498CFA6
S1131CD080E029960FB6F894DEBF0FBECDBFDF912A
S1131CE0CF911F910F91FF90EF90DF90CF900895C7
S1131CF0EF92FF920F931F93CF93DF93CDB7DEB78D
S1131D0029970FB6F894DEBF0FBECDBF8C014E836A
S1131D105F8368877987E12CF12C0FB6F8940F92D2
S1131D20F801868D8823C9F08150868F8081918146
S1131D30892B29F40E94161CF80195838483F801E9
S1131D408085882331F0C80108960E94B618811155
S1131D503DDC0F900FBE81E06FC08E819F81A8850E
S1131D60B985892B8A2B8B2B21F40F900FBE80E031
S1131D7063C0F11006C0CE0101960E94151AFF241B
S1131D80F3940F900FBE4ED60FB6F8940F92F8014D
S1131D9081A18F3F09F411A2F80182A18F3F09F4B8
S1131DA012A20F900FBEBE016A5F7F4FCE01019653
S1131DB00E94261A811126C0C801E0DC8823F1F0B4
S1131DC0F80180819181892B51F40FB6F8940F9218
S1131DD0848195810E94A31AE82E0F900FBE4E8134
S1131DE05F8168857985C80143960E941318C801EC
S1131DF059DD58D7811191CFE9DB8FCFC80152DD6E
S1131E0051D78BCFC8014EDD4DD7C801B7DC88232D
S1131E1009F483CFEE2079F00FB6F8940F92C8013D
S1131E209DDC682FF801848195810E94851B0F90A9
S1131E300FBE80E001C080E029960FB6F894DEBFA3
S1131E400FBECDBFDF91CF911F910F91FF90EF9007
S1131E500895CF93DF93EC010FB6F8940F9289A104
S1131E608F3F09F419A28AA18F3F09F41AA20F9097
S1131E700FBE8E8D811104C0CE0143960E9474184A
S1131E80CE0110DDDF91CF910895FC01448155818D
S1131E9022813381240F351F80819181B901681B10
S1131EA0790BCB016417750710F0841B950B08950B
S1131EB00F93FC018FE0DF011D928A95E9F7758786
S1131EC06487558344833783268306870F91089557
S1131ED0AF92BF92CF92DF92EF92FF920F931F9334
S1131EE0CF93DF936C015B017A01FC01C281D38142
S1131EF0048115810C1B1D0B4017510708F48A013E
S1131F00F60184859585A801B5018C0F9D1F0E945B
S1131F10DC370E151F0558F4A701401B510BB50102
S1131F20600F711FF601848595850E94DC37CE0110
S1131F308E0D9F1DF601248135818217930710F0C1
S1131F40821B930BF60193838283C701DF91CF91A8
S1131F501F910F91FF90EF90DF90CF90BF90AF90C3
S1131F600895CF92DF92EF92FF920F931F93CF9336
S1131F70DF931F921F92CDB7DEB77C016B015A83AA
S1131F80498321153105C1F0FC01868580FD08C017
S1131F904217530708F49A013A83298381E00FC05A
S1131FA02017310758F042E050E0BE016F5F7F4FC9
S1131FB0C7018EDF81E003C080E001C080E0882398
S1131FC031F049815A81B601C70182DF02C080E045
S1131FD090E00F900F90DF91CF911F910F91FF90A0
S1131FE0EF90DF90CF900895AF92BF92CF92DF929F
S1131FF0EF92FF920F931F93CF93DF937C015B01CA
S1132000E9014217530708F4EA01209781F1F70127
S11320100081118184819581801B910B6E018C1745
S11320209D0708F46C01F70164857585600F711FC5
S1132030A601C5010E94DC37CC16DD0658F4AE01BA
S11320404C195D09F70164857585C5018C0D9D1DCD
S11320500E94DC370C0F1D1FF7018481958108173E
S1132060190710F0081B190BF70111830083CE0127
S1132070DF91CF911F910F91FF90EF90DF90CF9060
S1132080BF90AF9008956F927F928F929F92AF927C
S1132090BF92CF92DF92EF92FF920F931F93CF9351
S11320A0DF931F921F92CDB7DEB76C014B015A012B
S11320B0790101151105B1F0FC0160807180A8015E
S11320C0BE016F5F7F4F90DF89819A81E01AF10A28
S11320D0A816B90630F4F60171826082A12CB12CE5
S11320E001C05C019701A501B401C6017DDF0F9019
S11320F00F90DF91CF911F910F91FF90EF90DF90A0
S1132100CF90BF90AF909F908F907F906F900895E5
S1132110CF92DF92EF92FF920F93CF93DF93EC0174
S11321206B01413011F401E001C000E0C114D1049D
S113213019F4CC24C394D12CCE014096C817D907E6
S113214020F421968FD87C0102C0E12CF12CE114FB
S1132150F10439F09601AE01B701615F7F4FC70109
S1132160A7DEC701DF91CF910F91FF90EF90DF9031
S1132170CF9008950F930FB6F8940F92FC01208529
S11321803185232B71F422853385232B61F4268139
S113219037814481558164857585068589DE81E0B2
S11321A003C080E001C080E00F900FBE0F9108953E
S11321B0FC012481358180819181820F931F4281AA
S11321C05381841B950B01978217930710F0821B90
S11321D0930B08952F923F924F925F926F927F924A
S11321E08F929F92AF92BF92CF92DF92EF92FF9223
S11321F00F931F93CF93DF93CDB7DEB72B970FB613
S1132200F894DEBF0FBECDBF4C017B876A871A01ED
S11322100E831F8328873987FC0184819581019768
S1132220268520FF0CC02A01F2E04F0E511C8415B4
S1132230950558F41E821F821886198606C08417D5
S1132240950710F02A0101C02C018E819F81A88579
S1132250B985892B8A2B8B2B09F438C0CE010196C2
S11322600E94FF190FB6F8940F92C401A1DF3C013C
S11322708415950540F560E080E090E00E94E91E39
S11322800E94901AF401938782870F900FBEAE804C
S1132290BF80C884D984E12CF12C00E010E09801BF
S11322A040E050E0BA0180E00E94281CF40113864B
S11322B01286BE016A5F7F4FCE0101960E94261AE4
S11322C0882381F205C00F900FBE02C0612C712CCF
S11322D06114710419F4C4016BDF3C0182019301A0
S11322E0A1016A857B85C4013CDE6C01892BE9F080
S11322F0C401CBDDF4012681378182179307A8F04E
S113230091D3F40180859185892B71F08085918525
S1132310E12CF12C00E020E030E0A90160E00E9413
S1132320D01CF40111861086BDD4C6012B960FB6BD
S1132330F894DEBF0FBECDBFDF91CF911F910F91F7
S1132340FF90EF90DF90CF90BF90AF909F908F90D1
S11323507F906F905F904F903F902F900895AF9231
S1132360BF92CF92DF92EF92FF920F931F93CF937E
S1132370DF93EC017B015A0169018E8580FF04C063
S11323808A010E5F1F4F01C08A01CE0111DF9C013B
S1132390A501B701CE01E5DD5C01892BC1F0CE01B9
S11323A074DD2E813F818217930788F08885998593
S11323B0892B69F088859985E12CF12C00E020E0D7
S11323C030E0A90160E00E94C71D19861886C50186
S11323D0DF91CF911F910F91FF90EF90DF90CF90FD
S11323E0BF90AF9008954F925F926F927F928F92B9
S11323F09F92AF92BF92CF92DF92EF92FF920F9390
S11324001F93CF93DF93EC012B013A01580169012B
S11324108E8580FF05C06894882481F8912C02C0C1
S1132420812C912CA114B104C104D10441F10FB643
S1132430F8940F92CE0129DD7C018816990648F0A4
S113244060E080E090E00E94E91E0E94901A998763
S113245088870F900FBE8E149F04A0F0E12CF12CFE
S113246000E010E0980140E050E0BA0180E00E94F2
S1132470281C19861886CE0108DD7C0103C0CE0114
S113248004DD7C018E149F04E8F484019701A30108
S1132490B201CE01F8DD6C01892BB1F0C3D28A857B
S11324A09B85892B69F08A859B85E12CF12C00E0C2
S11324B020E030E0A90160E00E94D01C1B861A864F
S11324C0F1D302C0C12CD12CC601DF91CF911F9151
S11324D00F91FF90EF90DF90CF90BF90AF909F90BF
S11324E08F907F906F905F904F900895E091E513E7
S11324F0F091E613808181110CC08FEF9FEFDC0116
S11325008093AF139093B013A093B113B093B2130D
S11325100895E091E513F091E6130780F085E02D2E
S113252080819181A281B3818093AF139093B01382
S1132530A093B113B093B2130895CF93DF93EC013A
S11325408B8D9C8D0E94DB09CE010E94DB09DF91FB
S1132550CF9108954F925F926F927F928F929F9244
S1132560AF92BF92CF92DF92EF92FF920F93CF93ED
S1132570DF932C015B014A013901E60165EA70E051
S11325808B8D9C8D0E94E5378B8D9C8D21E0821A6A
S11325909108880E991EA114B10489F415C0822FE4
S11325A090E0F501E80FF91F3081DE01A80FB91F93
S11325B05D963C938081882329F02F5F01C020E041
S11325C0203168F31CA601C01D8E0A3008F009E012
S11325D00A8F0DA71EA6CE0102960E94290ACE01DB
S11325E00E960E94290ADB87CA878AE090E0A0E061
S11325F0B0E0801B9109A109B1098E879F87A88B40
S1132600B98BDF8BCE8B84E0FE01BF96DF011D9278
S11326108A95E9F71BAAA301B201C4010E949D0A8D
S113262099838883E114F10419F0F701D183C083FD
S1132630DF91CF910F91FF90EF90DF90CF90BF90FB
S1132640AF909F908F907F906F905F904F90089580
S1132650CF93C0E009C02BE0C29FC0011124835076
S11326609C4E0E94180ACF5FCA30A8F382EF93E110
S11326700E94180A87EE93E10E94180A88ED93E1FC
S11326800E94180A8DEC93E10E94180A81EC93E1F0
S11326900E94180A82EF93E19093E6138093E51366
S11326A087EE93E19093E4138093E313CF9108951D
S11326B0CF93DF93EC010FB6F8940F928091C0137F
S11326C08F5F8093C01380916B1490916C14892B4D
S11326D051F4D0936C14C0936B148091C013813067
S11326E091F4B6DF10C08091BA1381110CC0E0914F
S11326F06B14F0916C14928D8A8D891720F0D0930D
S11327006C14C0936B148091B3138F5F8093B313D5
S1132710EA8D8091BB138E1710F4E093BB138BE00A
S11327208E9FF0011124E350FC4E0180F281E02DD4
S1132730FF83EE832681378139872887A681B78175
S11327409E012E5F3F4F15963C932E93149737832B
S11327502683EA8D8E9FF0011124E350FC4EFD8701
S1132760EC8780818F5F80830F900FBE8091BA13B6
S1132770882351F0E0916B14F0916C14928D8A8D42
S1132780981710F40E94E60ADF91CF910895CF9331
S1132790DF931BC00FB6F8940F92E091D413F0911D
S11327A0D513C085D185CE0102960E946A0A809114
S11327B0C01381508093C0138091CC1381508093B7
S11327C0CC130F900FBECE01B8DE8091CC138111D3
S11327D0E1CFDF91CF9108958F929F92AF92BF92F4
S11327E0CF92DF92EF92FF92CF93DF936B017C0144
S11327F0C42F8090BC139090BD13A090BE13B090D2
S1132800BF1380916B1490916C1402960E946A0A13
S11328108FEFC816D806E806F806B1F5CC23A1F167
S1132820E1ECF3E1A181B281C0916B14D0916C14FD
S1132830BF83AE83C0916B14D0916C1416968D91A6
S11328409C911797998788871696CD91DC91179755
S113285080916B1490916C1402969D838C8380916B
S11328606B1490916C14029617969C938E93169702
S1132870A0916B14B0916C141D96FC93EE931C976D
S113288080818F5F80833FC0C80CD91CEA1CFB1C6D
S1132890E0916B14F0916C14C282D382E482F582CD
S11328A0C814D904EA04FB0468F460916B147091B1
S11328B06C148091E3139091E4136E5F7F4F0E9438
S11328C02D0A21C060916B1470916C148091E513F2
S11328D09091E6136E5F7F4F0E942D0A8091AF1393
S11328E09091B013A091B113B091B213C816D90648
S11328F0EA06FB0640F4C092AF13D092B013E09204
S1132900B113F092B213DF91CF91FF90EF90DF906B
S1132910CF90BF90AF909F908F9008952F923F9249
S11329204F925F926F927F928F929F92AF92BF92DB
S1132930CF92DF92EF92FF920F93CF93DF933C01FC
S11329401B014A012901CA010E9432096C01892B29
S113295071F084E390E00E943209EC01892B19F0B4
S1132960DC8ECB8E06C0C6010E94DB0902C0C0E02B
S1132970D0E0209761F0A12CB12C6E019201A4014A
S1132980B101C301E7DDCE0193DE81E001C08FEF29
S1132990DF91CF910F91FF90EF90DF90CF90BF9098
S11329A0AF909F908F907F906F905F904F903F90EB
S11329B02F900895EF92FF920F930F2EFDEAEF2EC2
S11329C0F3E1FF2EF02D00E020E030E040EC50E099
S11329D064EC74E08EE491E0A1DF813011F40E9494
S11329E08D1F8130C9F4F8948FEF9FEFDC01809341
S11329F0AF139093B013A093B113B093B21381E0CB
S1132A008093BA131092BC131092BD131092BE138C
S1132A101092BF130E94B40A809106020F91FF9096
S1132A20EF9008958091AC138F5F8093AC13089559
S1132A300FB6F8940F926091BC137091BD138091FE
S1132A40BE139091BF130F900FBE0895CF92DF92E3
S1132A50EF92FF92CF93DF938091AC13811105C164
S1132A60C090BC13D090BD13E090BE13F090BF1380
S1132A708FEFC81AD80AE80AF80AC092BC13D09299
S1132A80BD13E092BE13F092BF13C114D104E1044C
S1132A90F104B1F48091E5139091E6132091E313CE
S1132AA03091E4133093E6132093E5139093E413E9
S1132AB08093E3138091B4138F5F8093B41316DD76
S1132AC08091AF139091B013A091B113B091B21350
S1132AD0C816D906EA06FB0620F480E0B2C081E0FD
S1132AE001C080E0E091E513F091E613908191112B
S1132AF00CC04FEF5FEFBA014093AF135093B01384
S1132B006093B1137093B2139CC0E091E513F091FC
S1132B10E6130780F085E02D0084F185E02D4281E5
S1132B20538164817581C416D506E606F70648F418
S1132B304093AF135093B0136093B1137093B213D7
S1132B4080C0A485B585C681D781208531853F8322
S1132B502E83C085D185268137813D832C831196B0
S1132B604D915C9112979F012E5F3F4F421753077F
S1132B7031F44085518512965C934E9311971586D6
S1132B8014869C9191509C93A08DB18D109709F15E
S1132B90C289D389448955895F834E83C489D58981
S1132BA0428953895D834C8311966D917C91129770
S1132BB0AF01425F5F4F6417750731F4448955894B
S1132BC012965C934E931197118E108E9C91915096
S1132BD09C93A28D9091BB139A1710F4A093BB13EE
S1132BE09BE09A9FD0011124A350BC4E11960D90E6
S1132BF0BC91A02DB783A68316964D915C9117972F
S1132C00518740871696CD91DC9117973D832C838D
S1132C1017963C932E931697A28D9A9FD001112458
S1132C20A350BC4EB587A4879C919F5F9C93228D33
S1132C30E0916B14F0916C14928D291708F04FCF2A
S1132C4051CFE0916B14F0916C14E28D9BE0E99FFD
S1132C50F0011124E350FC4E9081923008F081E0A1
S1132C609091B513911116C016C08091B61390912E
S1132C70B713A091B813B091B9130196A11DB11D5A
S1132C808093B6139093B713A093B813B093B9136A
S1132C9080E001C081E0DF91CF91FF90EF90DF9061
S1132CA0CF900895CF92DF92EF92FF92CF93DF936C
S1132CB00FB6F8940F928091AC1381508093AC13AB
S1132CC08091AC138111BEC08091C013811188C062
S1132CD0BCC0E091DF13F091E0130084F185E02D96
S1132CE0A08DB18DC289D389848995899F838E8370
S1132CF0C489D589828993899D838C8311962D916A
S1132D003C911297CF010E962817390731F4848924
S1132D10958912969C938E931197118E108E8C9197
S1132D2081508C93A485B585C681D7818085918592
S1132D309F838E83C085D185868197819D838C8373
S1132D4011968D919C9112979F012E5F3F4F821790
S1132D50930731F48085918512969C938E931197F5
S1132D60158614868C9181508C93A28D8091BB130F
S1132D708A1710F4A093BB138BE08A9FD00111240F
S1132D80A350BC4E11960D90BC91A02DB783A68381
S1132D9016964D915C911797518740871696CD9161
S1132DA0DC9117973D832C8317963C932E931697AB
S1132DB0A28D8A9FD0011124A350BC4EB587A4874D
S1132DC08C918F5F8C93928DA0916B14B0916C1445
S1132DD05A968C91981730F081E08093B51302C015
S1132DE0E0E0F0E08091D813811173CFEF2B09F06C
S1132DF07DDBC090B613D090B713E090B813F09079
S1132E00B913C114D104E104F104A1F01FDE882335
S1132E1019F081E08093B51381E0C81AD108E10864
S1132E20F108A1F71092B6131092B7131092B813C9
S1132E301092B9138091B513882331F00E94E60AE9
S1132E4081E003C080E001C080E00F900FBEDF91FD
S1132E50CF91FF90EF90DF90CF9008958F929F9243
S1132E60AF92BF92CF92DF92EF92FF921F93CF93D4
S1132E70DF93EC016A017B01D5DD8090BC13909057
S1132E80BD13A090BE13B090BF1388819981AA810D
S1132E90BB81AC01BD014C0D5D1D6E1D7F1D8816EF
S1132EA09906AA06BB0660F4481759076A077B0708
S1132EB098F484169506A606B70680F010E013C0B1
S1132EC0481759076A077B0758F084169506A60623
S1132ED0B70640F010E007C010E005C011E003C0E1
S1132EE011E001C011E0488359836A837B83112375
S1132EF041F0CB01BA01681979098A099B0940E0BC
S1132F006BDCD0DE811102C00E94E60A812FDF91C2
S1132F10CF911F91FF90EF90DF90CF90BF90AF9033
S1132F209F908F900895CF92DF92EF92FF926B0162
S1132F307C01672B682B692B39F074DD40E0C701F5
S1132F40B6014ADCAFDE01C080E0811102C00E94FC
S1132F50E60AFF90EF90DF90CF9008958091AC1334
S1132F60882321F081E08093B51308951092B5135E
S1132F70E0916B14F0916C1420813181E0916B1419
S1132F80F0916C14838D948D8217930760F0609197
S1132F906B1470916C14635E7F4F80916B149091ED
S1132FA06C140E941B228091BB1301C08150282FF6
S1132FB030E09BE0929FF001939FF00D1124E350C9
S1132FC0FC4E9081992391F39BE0929FA001939FE3
S1132FD0500D1124DF010180F281E02D0480F58180
S1132FE0E02D1296FC93EE93119740505C4EE4173B
S1132FF0F50729F444815581FD01528341839BE007
S1133000929FF001939FF00D1124E350FC4E018038
S1133010F281E02D2085318530936C1420936B145C
S11330208093BB130895CF92DF92EF92FF926A01CF
S11330307B0160916B1470916C14625F7F4F0E94EE
S11330402D0A41E0C701B601C7DBFF90EF90DF9086
S1133050CF9008950F931F93CF93DF93FC01A0911A
S11330606B14B0916C1470681E964D935D936D93C0
S11330707C935197A181B281C0916B14D0916C144F
S1133080BB8BAA8BC0916B14D0916C1416968D9146
S11330909C9117979D8B8C8B1696CD91DC911797ED
S11330A080916B1490916C140E969D838C83809107
S11330B06B1490916C140E9617969C938E9316979E
S11330C0A0916B14B0916C145996FC93EE9358979D
S11330D080818F5F808341E0C901B8017DDBDF918E
S11330E0CF911F910F910895CF93DF93FC01CB01F2
S11330F0BA01A181B281C0916B14D0916C14BB8BC5
S1133100AA8BC0916B14D0916C1416964D915C915E
S113311017975D8B4C8B1696CD91DC911797409148
S11331206B1450916C14425F5F4F5D834C834091EC
S11331306B1450916C14425F5F4F17965C934E93DF
S11331401697A0916B14B0916C145996FC93EE935E
S1133150589730813F5F3083222319F06FEF7FEF60
S1133160CB01422F39DBDF91CF910895CF93DF93C9
S1133170DC011796ED91FC9118970084F185E02D00
S1133180A08DB18DC289D389848995899F838E83CB
S1133190C489D589828993899D838C8311968D9165
S11331A09C9112979F01225F3F4F8217930731F43E
S11331B08489958912969C938E931197118E108E03
S11331C08C9181508C938091AC13811152C0A48551
S11331D0B585C681D781808591859F838E83C0857F
S11331E0D185868197819D838C8311968D919C9145
S11331F012979F012E5F3F4F8217930731F480850A
S1133200918512969C938E931197158614868C91B2
S113321081508C93A28D8091BB138A1710F4A093D4
S1133220BB138BE08A9FD0011124A350BC4E11968E
S11332300D90BC91A02DB783A68316964D915C91F9
S11332401797518740871696CD91DC9117973D8348
S11332502C8317963C932E931697A28D8A9FD001A8
S11332601124A350BC4EB587A4878C918F5F8C9397
S11332701CC048ED53E1DA011196CD91DC9112970F
S1133280D38BC28B8E819F81958B848B8E819F8102
S1133290DC0115963C932E9314973F832E83518F14
S11332A0408FDA018C918F5F8C93928DE0916B1437
S11332B0F0916C14828D891720F481E08093B5130A
S11332C001C080E0DF91CF910895CF93DF93DC01BB
S11332D070684D935D936D937C9313971896ED915D
S11332E0FC9119971A964D915C911B9714968D91A8
S11332F09C91159716962D913C911797EC013F835D
S11333002E8316968D919C91179714962D913C912E
S11333101597EC013D832C83EA0189819A81A817D2
S1133320B90731F416968D919C9117979A838983E6
S11333301B961C921E921A97DA018C9181508C93E1
S1133340A485B585C681D781808591859F838E8329
S1133350C085D185868197819D838C8311968D91BB
S11333609C9112979F012E5F3F4F8217930731F470
S11333708085918512969C938E9311971586148659
S11333808C9181508C93A28D8091BB138A1710F479
S1133390A093BB138BE08A9FD0011124A350BC4E91
S11333A011960D90BC91A02DB783A68316964D91CE
S11333B05C911797518740871696CD91DC911797AA
S11333C03D832C8317963C932E931697A28D8A9F48
S11333D0D0011124A350BC4EB587A4878C918F5F74
S11333E08C93928DE0916B14F0916C14828D8917FB
S11333F018F481E08093B513DF91CF9108950FB64F
S1133400F8940F922091B413FC0120834091BC13D3
S11334105091BD136091BE137091BF1341835283C9
S1133420638374830F900FBE08952091B413FC013D
S113343020834091BC135091BD136091BE137091D1
S1133440BF13418352836383748308958F929F9241
S1133450AF92BF92CF92DF92EF92FF920F931F939E
S1133460CF93DF93FB010FB6F8940F92C090BC1377
S1133470D090BD13E090BE13F090BF13DC01119601
S11334800D911D912D913C91149746015701801A7D
S1133490910AA20AB30A40815181628173814F3F2C
S11334A0BFEF5B076B077B0739F1EC01B881A09193
S11334B0B413BA1759F0C016D106E206F30630F079
S11334C0108211821282138281E017C0841695063D
S11334D0A606B70658F4481959096A097B094083B6
S11334E0518362837383A1DF80E007C0108211825D
S11334F01282138281E001C080E00F900FBEDF9141
S1133500CF911F910F91FF90EF90DF90CF90BF90DC
S1133510AF909F908F90089581E08093B5130895A4
S113352080916B1490916C1408958091BA13882340
S113353031F08091AC13811104C082E0089581E0E0
S1133540089580E008950F931F93CF93DF93FC01B8
S1133550892B09F477C0828DA0916B14B0916C14FF
S11335605A969C91891708F063C0468557856089EF
S11335707189772394F0A0916B14B0916C145A96CE
S11335809C914AE050E060E070E0491B51096109F8
S1133590710946875787608B718B248535854BE08D
S11335A0849FC001112483509C4E28173907B9F514
S11335B0EF018F010E5F1F4FC8010E946A0AE0915C
S11335C06B14F0916C14E28DEA8F8091BB138E170B
S11335D010F4E093BB138BE08E9FF0011124E350B1
S11335E0FC4E0180F281E02DFF83EE83268137813A
S11335F039872887A681B78115961C930E93149753
S113360017830683EA8D8E9FF0011124E350FC4E4C
S1133610FD87EC8780818F5F808381E016C0A09155
S11336206B14B0916C145A968C91828F81E00DC00A
S113363095A5E0916B14F0916C14828D981720F08D
S113364080E003C080E001C081E0DF91CF911F9151
S11336500F9108950F931F93CF93DF93FC01892B50
S113366009F449C086A5815086A7228D95A52917FE
S113367009F443C0811143C0EF018F010E5F1F4F56
S1133680C8010E946A0AEDA5EA8F8AE090E0A0E0F2
S1133690B0E08E1B9109A109B1098E879F87A88B81
S11336A0B98B8091BB138E1710F4E093BB138BE09E
S11336B08E9FF0011124E350FC4E0180F281E02D35
S11336C0FF83EE832681378139872887A681B781D6
S11336D015961C930E93149717830683EA8D8E9F79
S11336E0F0011124E350FC4EFD87EC8780818F5F4D
S11336F0808381E005C080E003C080E001C080E0F9
S1133700DF91CF911F910F9108950F931F93CF9342
S1133710DF93FC01892B09F45AC085A5861708F4A8
S1133720862F928D891709F452C026A5213009F0FD
S11337304EC0828F4685578560897189772364F0EE
S11337404AE050E060E070E0481B510961097109EA
S113375046875787608B718B248535854BE0949F12
S1133760C001112483509C4E2817390781F5EF01BD
S11337708F010E5F1F4FC8010E946A0AEA8D809173
S1133780BB138E1710F4E093BB138BE08E9FF001F4
S11337901124E350FC4E0180F281E02DFF83EE837F
S11337A02681378139872887A681B78115961C938E
S11337B00E93149717830683EA8D8E9FF0011124CC
S11337C0E350FC4EFD87EC8780818F5F8083DF911F
S11337D0CF911F910F910895CF92DF92EF92FF92B4
S11337E0E0916B14F0916C146685778580899189DA
S11337F0E0916B14F0916C14A0916B14B0916C1463
S11338005A962C910F2EFAE0CF2ED12CE12CF12CCC
S1133810F02DC21AD108E108F108C686D786E08ADD
S1133820F18AFF90EF90DF90CF90089580916B1410
S113383090916C14892B39F0E0916B14F0916C1415
S113384086A58F5F86A780916B1490916C14089560
S11338504F925F926F927F92AF92BF92CF92DF921C
S1133860EF92FF920F931F93CF93DF9328013901B7
S11338700FB6F8940F92E0916B14F0916C14C82F6A
S1133880D0E0EC0FFD1F83A9823079F1E0916B1435
S1133890F0916C14CE01880F991F880F991FE80FBF
S11338A0F91F87A590A9A1A9B2A940955095609543
S11338B07095482359236A237B2347A750AB61ABF8
S11338C072ABE0916B14F0916C14EC0FFD1F81E06E
S11338D083ABA114B104C104D10439F041E0C601A1
S11338E0B5010E94EC130E94E60A0F900FBE0FB6BA
S11338F0F8940F92E114F104A1F0E0916B14F091AB
S11339006C14CE01880F991F880F991FE80FF91FB7
S113391087A590A9A1A9B2A9F70180839183A28365
S1133920B383E0916B14F0916C14EC0FFD1F83A929
S11339308230E9F4E0916B14F0916C14CE01880F9D
S1133940991F880F991FE80FF91F87A590A9A1A9AE
S1133950B2A94094509460947094482259226A22E7
S11339607B2247A650AA61AA72AA81E001C080E026
S113397020916B1430916C14C20FD31F1BAA0F90AB
S11339800FBEDF91CF911F910F91FF90EF90DF90C9
S1133990CF90BF90AF907F906F905F904F900895BD
S11339A08F929F92AF92BF92EF92FF920F93CF9319
S11339B0DF93DC010FB6F8940F92E114F10489F05F
S11339C0E62FF0E0EE0FFF1FEE0FFF1FE80FF91FC9
S11339D087A490A8A1A8B2A8F70180829182A282AC
S11339E0B38270E0FD01E60FF71F83A992E093AB69
S11339F0023001F118F4013031F04DC0033079F197
S1133A000430D1F148C0660F771F660F771FFD01A0
S1133A10E60FF71F87A490A8A1A8B2A8BA01A9012C
S1133A20482959296A297B2947A750AB61AB72AB56
S1133A3001E034C0660F771F660F771FFD01E60FA4
S1133A40F71F47A550A961A972A94F5F5F4F6F4F38
S1133A507F4F47A750AB61AB72AB01E01FC0660F4D
S1133A60771F660F771FFD01E60FF71F27A730ABFF
S1133A7041AB52AB01E012C0823079F0660F771F80
S1133A80660F771FFD01E60FF71F27A730AB41AB89
S1133A9052AB01E003C001E001C000E0813009F055
S1133AA069C01C96ED91FC911D971696CD91DC9101
S1133AB0179718968D919C9119979F838E831896CA
S1133AC0CD91DC91199716968D919C9117979D83B2
S1133AD08C83818192819D012E5F3F4F82179307D2
S1133AE031F418968D919C911997928381831D9638
S1133AF01C921E921C978081815080835A96EC916F
S1133B005A978091BB138E1710F4E093BB138BE08C
S1133B108E9FF0011124E350FC4E0180F281E02DD0
S1133B201796FC93EE9316974681578119965C93EA
S1133B304E931897C681D7813D832C833783268380
S1133B405A96EC915A978E9FF0011124E350FC4E43
S1133B501D96FC93EE931C9780818F5F80835A9609
S1133B609C91E0916B14F0916C14828D891710F480
S1133B700E94E60A0F900FBE802FDF91CF910F9124
S1133B80FF90EF90BF90AF909F908F9008958F9289
S1133B909F92AF92BF92CF92DF92EF92FF920F93D8
S1133BA0CF93DF93DC01E114F10489F0E62FF0E018
S1133BB0EE0FFF1FEE0FFF1FE80FF91F87A490A859
S1133BC0A1A8B2A8F70180829182A282B38270E098
S1133BD0FD01E60FF71F93A982E083AB023001F1E8
S1133BE018F4013031F04DC0033079F10430D1F1D3
S1133BF048C0660F771F660F771FFD01E60FF71F9A
S1133C0087A490A8A1A8B2A8BA01A9014829592952
S1133C106A297B2947A750AB61AB72AB81E034C002
S1133C20660F771F660F771FFD01E60FF71F47A585
S1133C3050A961A972A94F5F5F4F6F4F7F4F47A78C
S1133C4050AB61AB72AB81E01FC0660F771F660F8C
S1133C50771FFD01E60FF71F27A730AB41AB52AB2F
S1133C6081E012C0923079F0660F771F660F771FDC
S1133C70FD01E60FF71F27A730AB41AB52AB81E044
S1133C8003C081E001C080E0913009F096C09091BA
S1133C90AC1391115FC01C96ED91FC911D97169683
S1133CA0CD91DC91179718962D913C9119973F83EC
S1133CB02E831896CD91DC91199716962D913C91EF
S1133CC017973D832C83418152819D012E5F3F4F85
S1133CD04217530731F418964D915C91199752830A
S1133CE041831D961C921E921C9790819150908343
S1133CF05A96EC915A979091BB139E1710F4E09347
S1133D00BB139BE09E9FF0011124E350FC4E018005
S1133D10F281E02D1796FC93EE9316974681578116
S1133D2019965C934E931897C681D7813D832C8353
S1133D30378326835A96EC915A979E9FF00111245B
S1133D40E350FC4E1D96FC93EE931C9790819F5F6D
S1133D50908321C068ED73E1FB01C181D281539648
S1133D60DC93CE9352972E813F8155963C932E93AC
S1133D7054974E815F819D01225F3F4FFA01358345
S1133D8024833F832E8359967C936E935897FB012B
S1133D9090819F5F90835A962C91E0916B14F091DF
S1133DA06C14928D921748F4C114D10419F091E067
S1133DB0F601908391E09093B513DF91CF910F9129
S1133DC0FF90EF90DF90CF90BF90AF909F908F9037
S1133DD00895009721F480916B1490916C140FB6A0
S1133DE0F8940F9270E0FC01E60FF71F23A922302C
S1133DF031F4FC01E60FF71F13AA81E001C080E053
S1133E000F900FBE0895DC01E0917714F0917814BF
S1133E10808191E0811190E09C93911108C007800A
S1133E20F085E02D6081718182819381089560E045
S1133E3070E0CB010895CF92DF92EF92FF920F933F
S1133E401F93FC0142835383648375839387828722
S1133E500417150726073707C0F00C191D092E098A
S1133E603F0986859785A089B189081719072A070C
S1133E703B0700F5BF016E5F7F4F809175149091F1
S1133E8076140E942D0A80E018C00C151D052E051D
S1133E903F0528F44C155D056E057F0568F4BF01E8
S1133EA06E5F7F4F80917714909178140E942D0A51
S1133EB080E003C081E001C081E01F910F91FF9079
S1133EC0EF90DF90CF9008950FB6F8940F92809101
S1133ED0731490917414892BE9F484E894E10E949A
S1133EE0180A89E794E10E94180A84E894E19093FF
S1133EF078148093771489E794E1909376148093EF
S1133F00751440E067E08AE00E94DB0C909374141F
S1133F10809373140F900FBE0895EF92FF920F9346
S1133F20D3DF8091731490917414892B91F00F2E28
S1133F30F1E7EF2EF4E1FF2EF02D03E020E030E076
S1133F4040EC50E069EC74E089E591E00E948E1445
S1133F5001C080E00F91FF90EF9008958F929F929F
S1133F60AF92BF92CF92DF92EF92FF920F931F9383
S1133F70CF93DF93CDB7DEB727970FB6F894DEBFA4
S1133F800FBECDBFE0917314F0917414309781F19A
S1133F9069832A833B834C835D839F838E8366304E
S1133FA0F4F4C3DA823069F400E0A7019601BE019B
S1133FB06F5F7F4F80917314909174140E94FE0C74
S1133FC018C000E020E030E0A901BE016F5F7F4F20
S1133FD080917314909174140E94FE0C0AC020E026
S1133FE0A801BE016F5F7F4FCF010E94AE0D01C0DB
S1133FF080E027960FB6F894DEBF0FBECDBFDF91E9
S1134000CF911F910F91FF90EF90DF90CF90BF90D1
S1134010AF909F908F9008958F929F92AF92BF928E
S1134020CF92DF92EF92FF920F931F93CF93DF9380
S11340303BC00780F085E02D80809180A280B38012
S1134040C085D1858E010E5F1F4FC8010E946A0A88
S1134050EC89FD89CE0119958E8982FF25C08E8554
S11340609F85A889B989880D991DAA1DBB1D88162D
S11340709906AA06BB0670F48A839B83AC83BD832E
S1134080DB87CA87B80180917714909178140E94D5
S11340902D0A0AC0C12CD12C760100E010E0A50144
S11340A0940160E0CE015ADFE0917714F091781426
S11340B080818111BECF8091751490917614909374
S11340C0781480937714F0937614E0937514DF9149
S11340D0CF911F910F91FF90EF90DF90CF90BF9001
S11340E0AF909F908F900895CF92DF92EF92FF92BE
S11340F0CF93DF93EC010E9418156B017C01809132
S11341006D1490916E14A0916F14B0917014C81630
S1134110D906EA06FB0620F47FDF81E0888301C02C
S11341201882C0926D14D0926E14E0926F14F092C3
S11341307014C701B601DF91CF91FF90EF90DF902B
S1134140CF9008954F925F926F927F928F929F9239
S1134150AF92BF92CF92DF92EF92FF920F931F9391
S1134160CF93DF934B015C0129013A01E09177146D
S1134170F09178140780F085E02DC085D185CE01BB
S113418002960E946A0A8E8982FF1BC04E855F8553
S113419068897989480D591D6A1D7B1D7501640163
S11341A093018201CE0147DE882369F0C12CD12C12
S11341B0760100E010E0A501940160E0CE01CEDEBE
S11341C002C08E7F8E8BEC89FD89CE011995DF911B
S11341D0CF911F910F91FF90EF90DF90CF90BF9000
S11341E0AF909F908F907F906F905F904F900895C5
S11341F08F929F92AF92BF92CF92DF92EF92FF92F3
S11342001F93CF93DF931F92CDB7DEB76B017C0171
S1134210142F0E941215CE01019666DF4B015C013A
S1134220898181112DC011110DC08C149D04AE041F
S1134230BF0440F00E945216A5019401C701B601C3
S113424081DF20C0112341F0E0917514F0917614C0
S1134250808111E0811110E0B701A60148195909C4
S11342606A097B09212F80917314909174140E9420
S1134270290F0E945216811105C00E94E60A02C04D
S11342800E9452160F90DF91CF911F91FF90EF90F3
S1134290DF90CF90BF90AF909F908F900895AF9292
S11342A0BF92CF92DF92EF92FF920F931F93CF931F
S11342B0DF93CDB7DEB728970FB6F894DEBF0FBEF5
S11342C0CDBF82C0898188230CF47EC0AE80BF80BC
S11342D0D5011C968D919C911D97892B21F0C501C8
S11342E002960E946A0ACE010896FEDE8B019C01AA
S11342F0E9810E2E000CFF0BEA30F10508F064C0D2
S11343008827EE58FF4F8F4F0C94A335F50186890B
S11343108160868BCA80DB80EC80FD804685578572
S1134320608971894C0D5D1D6E1D7F1DC50183DD86
S1134330882309F449C0D5015496ED91FC91559711
S1134340C5011995F501868982FF3EC04A815B81CA
S11343506C817D8186859785A089B1899A01AB019D
S1134360280F391F4A1F5B1FC12CD12C760100E096
S113437010E060E0C501F2DD27C0D50156968C91AE
S113438056978E7F56968C931FC0F501868981605F
S1134390868B4A815B816C817D8146875787608BE0
S11343A0718B400F511F621F731F68017901C50192
S11343B042DD0AC0F501868981FD04C0C5010E9461
S11343C0DB0902C08E7F868B20E030E0A901BE01AC
S11343D06F5F7F4F80917314909174140E94E90D64
S11343E0811170CF28960FB6F894DEBF0FBECDBFF3
S11343F0DF91CF911F910F91FF90EF90DF90CF90BD
S1134400BF90AF900895089584B1806884B985B150
S1134410806885B9089583B1806883B90895F4DF0D
S11344202FEF80E792E0215080409040E1F700C0F8
S11344300000F1DFF5CFE8DF2FEF87EA91E62150A6
S113444080409040E1F700C00000E5DFF5CF6091C7
S113445091147091921421E030E040E050E083E048
S113446090E00E9466059093C4158093C3156091F3
S113447091147091921422E030E040E050E083E027
S113448090E00E9402029093C8158093C715609132
S113449091147091921424E030E040E050E083E005
S11344A00E94FD029093C6158093C51508950E943D
S11344B0990381ED94E09F938F930E94A703C7DF34
S11344C00E94D30360918F147091901484E090E063
S11344D00E94460282E090E00E9449070F900F90EC
S11344E008950E947E07909392148093911480E023
S11344F00E94E22D91D741E060E070E08CE290E010
S11345000E9488109093901480938F14BC0181E0D2
S11345106BD3CDCF0895E5DF0E94DA14FFCF34D0FA
S113452008F481E0089504D06894B11174C008952A
S113453057D088F09F5790F0B92F9927B751A0F022
S1134540D1F0660F771F881F991F1AF0BA95C9F723
S113455012C0B13081F05ED0B1E008955BC0672F26
S1134560782F8827B85F39F0B93FCCF386957795D3
S11345706795B395D9F73EF49095809570956195BC
S11345807F4F8F4F9F4F0895990F0008550FAA0B27
S1134590E0E8FEEF16161706E807F907C0F0121652
S11345A01306E407F50798F0621B730B840B950B55
S11345B039F40A2661F0232B242B252B21F40895AA
S11345C00A2609F4A140A6958FEF811D811D089547
S11345D057FD9058440F551F59F05F3F71F04795B0
S11345E0880F97FB991F61F09F3F79F08795089595
S11345F0121613061406551FF2CF4695F1DF08C0B4
S1134600161617061806991FF1CF869571056105D0
S113461008940895E894BB2766277727CB0197F978
S11346200895FA01DC01AA0FBB1F9B01AC01BF571F
S113463028F422273327442750781FC0B75188F421
S1134640AB2F0024469537952795011CA395D2F3EB
S1134650002069F0220F331F441FB395DAF30DD005
S113466076C061307105A0E88A07B94630F49B0131
S1134670AC016627772788279078309621F020832D
S113468031834283538308950BD0DDC0CED028F00C
S1134690D3D018F0952309F0BFC0C4C01124BBCFF8
S11346A097DFA0F3959FD1F3950F50E0551F629FBC
S11346B0F001729FBB27F00DB11D639FAA27F00D77
S11346C0B11DAA1F649F6627B00DA11D661F829F9E
S11346D02227B00DA11D621F739FB00DA11D621F83
S11346E0839FA00D611D221F749F3327A00D611DA0
S11346F0231F849F600D211D822F762F6A2F112482
S11347009F5750408AF0E1F088234AF0EE0FFF1FD4
S1134710BB1F661F771F881F91505040A9F79E3F0B
S1134720510570F079C077CF5F3FECF3983EDCF32E
S1134730869577956795B795F795E7959F5FC1F748
S1134740FE2B880F911D9695879597F908955058DB
S1134750BB27AA270ED077C068D030F06DD020F0E8
S113476031F49F3F11F41EF45DC00EF4E095E7FBB5
S113477053C0E92F2DDF80F3BA176207730784074C
S1134780950718F071F49EF545CF0EF4E0950B2EC5
S1134790BA2FA02D0B01B90190010C01CA01A0018F
S11347A01124FF27591B99F0593F50F4503E68F1EA
S11347B01A16F040A22F232F342F4427585FF3CF2B
S11347C0469537952795A795F0405395C9F77EF4FC
S11347D01F16BA0B620B730B840BBAF09150A1F045
S11347E0FF0FBB1F661F771F881FC2F70EC0BA0FCB
S11347F0621F731F841F48F4879577956795B79553
S1134800F7959E3F08F0B3CF9395880F08F099274A
S1134810EE0F97958795089597F99F6780E870E064
S113482060E008959FEF80EC089500240A94161622
S1134830170618060906089500240A94121613068A
S1134840140605060895092E0394000C11F4882318
S113485052F0BB0F40F4BF2B11F460FF04C06F5F34
S11348607F4F8F4F9F4F08956530F1F4FA01808197
S11348708F7390E0982F88272181822B90930A02CE
S1134880809309028281F0E48F9FC0011124FA0110
S1134890238126952695822B909308028093070204
S11348A081E0809393140895643051F080E090E4A3
S11348B0909308028093070290930A02809309025E
S11348C008950F931F9304E314E220E034E244EFCD
S11348D050E060E087E20E949C2F909395148093AF
S11348E0941421E0892B09F020E0822F1F910F916D
S11348F008958091941490919514009759F040E094
S113490060E070E00E94ED2F843031F41092931433
S113491080E0089582E0089583E0089580919414DE
S113492090919514009739F064E00E9439308530F5
S113493021F083E0089582E0089580E00895609175
S1134940090270910A0280E090E00E943F3520E065
S113495030E048EC52E498DE20E038EF4FE756E4CC
S11349600C94CE340895EBDF20E030E040E251E4D3
S11349708BDEDEDDCB0108956091070270910802A1
S113498080E090E00E943F3520E030E045E253E4CF
S11349907BDE20E038EF4FE756E40E94CE3420E07F
S11349A030E040E252E4D3CE08950F931F93CF93A7
S11349B0DF931F921F92CDB7DEB78C0119822DC0F1
S11349C0E091CD14EC3250F481E08E0F8093CD143D
S11349D0F0E0E150FB4E8A81808302C01092CD1436
S11349E08A818A30D1F44091CD1450E0FA01E35029
S11349F0FB4E1082415051099E012F5F3F4F6FEFD4
S1134A0074E18091D0149091D1140E94AF118981E6
S1134A1081110E94E60A1092CD14BE016E5F7F4F91
S1134A20C8013AD6882361F20F900F90DF91CF919D
S1134A301F910F9108950F931F93CF93DF938C01D0
S1134A40EB018091D0149091D1140E94BA10B80156
S1134A5086E994E10E941C38209779F0E6E9F4E1B4
S1134A6001900020E9F7319780E290E09183808300
S1134A70BE0186E994E10E941138E6E9F4E1DF0120
S1134A800D900020E9F711978DE09AE011969C9320
S1134A908E9312961C9201900020E9F73197E65903
S1134AA0F441AE2F86E994E1AC016A2F8091D214CF
S1134AB09091D3149CD5811111C008E215E020E037
S1134AC030E04DE250E069E575E18091D0149091B9
S1134AD0D1140E94F31189E595E102C080E090E0D1
S1134AE0DF91CF911F910F9108952F923F924F9292
S1134AF05F926F927F928F929F92AF92BF92CF926A
S1134B00DF92EF92FF920F931F93CF93DF935C0199
S1134B10FC0101900020E9F731976F01C81AD90A06
S1134B205C2C0F2EF9E78F2EF7E09F2EF02DE12C51
S1134B30F12C4C2C3701F40101811281E801099018
S1134B400020E9F72197C01BD10B3C2EF9E0CF16CA
S1134B50D10458F0F4012080FEE02F1206C0B80101
S1134B60C5010E94EC37892B09F5442D351408F44E
S1134B704C2F50E0B801C5010E942338892B49F419
S1134B80F301EE0FFF1FE60DF71DE758F84F2080E5
S1134B900DC08FEFE81AF80AE3E08E0E911CF1E1E4
S1134BA0EF16F10439F66894222424F8822DDF915B
S1134BB0CF911F910F91FF90EF90DF90CF90BF9016
S1134BC0AF909F908F907F906F905F904F903F90A9
S1134BD02F90089530DF89CF08958091D01490915B
S1134BE0D1140C94BA1008958F929F92AF92CF92E1
S1134BF0EF920F931F93CF93C82F8B0141E060E096
S1134C0070E088EC90E00E9488109093D114809317
S1134C10D0141093CF140093CE140F2EF5ED8F2ED5
S1134C20F4E29F2EF02D6894AA24A6F86894CC246C
S1134C30C6F8E12C00E023E040E051EE60E070E0D3
S1134C408C2F06D49093D3148093D214E7E0F1E030
S1134C50808180618083CF911F910F91EF90CF90DD
S1134C60AF909F908F900895882331F0E8E0F1E0B1
S1134C7080818F7E80830895E8E0F1E08081806107
S1134C808083089560E070E08FEF94E0D4DEE9E57E
S1134C90F5E101900020E9F73197E955F54181E00C
S1134CA0759708F080E00895CF93DF93EC0160E0FE
S1134CB070E080E195E0BFDEE9E5F5E101900020D8
S1134CC0E9F7EA56F54139F469E575E1CE010E9448
S1134CD01C3880E002C0188281E0DF91CF910895F2
S1134CE0FC0101900020E9F79F01215131092817A7
S1134CF0390729F4BC018EE395E06CCF089589E06F
S1134D000895FC0101900020E9F79F012151310928
S1134D102817390729F4BC018DE495E05BCF089589
S1134D2089E00895FC0101900020E9F79F012152D8
S1134D3031092817390729F4BC018CE595E04ACFDD
S1134D40089589E0089560E070E08BE995E042CF32
S1134D5008950F931F93E82FF0E0EE0FFF1FEB5819
S1134D60F84F6081718184EA95E034DF811114C0C9
S1134D7008E215E020E030E04DE250E069E575E13D
S1134D808091D0149091D1140E94F311882321F0C2
S1134D9089E595E1AADE03C089E595E1A6DE1F91C8
S1134DA00F9108950F931F93CF93DF931F92CDB765
S1134DB0DEB7DB0111969C911197953108F0B4C0D0
S1134DC0992381F160E070E0272F30E0462F50E016
S1134DD0FD01E40FF51F928192959F709A3010F0B7
S1134DE0995C01C0905DF901E651FB4E90832F5F01
S1134DF03F4FFD01E40FF51F92819F70492F50E052
S1134E004A30510514F0995C01C0905DF901E651F6
S1134E10FB4E90837E5F6F5F11969C91119769178B
S1134E2098F201C070E0E72FF0E0E651FB4E1082EB
S1134E304C91811103C08DEA95E002C08FEA95E0A0
S1134E402AEE34E13F932F931F924F939F938F93B6
S1134E5083EB95E09F938F938CE295E19F938F93DF
S1134E600E94873860E070E08CE295E1B3DE0FB613
S1134E70F894DEBF0FBECDBF811159C008E215E022
S1134E8020E030E04DE250E069E575E18091D01416
S1134E909091D1140E94F311882309F447C089E545
S1134EA095E123DE8E3009F042C087E0898380914A
S1134EB0CE149091CF14892BA9F1BE016F5F7F4F5F
S1134EC089E595E168D18093D414E981F0E0E75A4B
S1134ED0FA4EDF010D900020E9F71197AE1BBF0BCE
S1134EE0AA2391F0BB27CD0101979C0112F42F5FF7
S1134EF03F4F359527952093D514AF014F5F5F4FF2
S1134F0064E186ED94E173D101E010E020E030E04B
S1134F1046E150E064ED74E18091CE149091CF1499
S1134F200E94EA108EE003C084E101C080E00F908B
S1134F30DF91CF911F910F910895813019F063ECA7
S1134F4075E002C06CE976E087EC95E043CE089505
S1134F509F938F9388EF95E09F938F938CE295E1D5
S1134F609F938F930E94873860E070E08CE295E114
S1134F7031DE0F900F900F900F900F900F900895C7
S1134F802F923F924F925F926F927F928F929F9255
S1134F90AF92BF92CF92DF92EF92FF920F931F9343
S1134FA0CF93DF93CDB7DEB7A0970FB6F894DEBFEB
S1134FB00FBECDBF65E276E081E396E03CDD95DD92
S1134FC08111A3C080E2E2E2F2E0DE0111960190D9
S1134FD00D928A95E1F79E012F5F3F4F6901E12C05
S1134FE0F12C0F2EFDE3AF2EF6E0BF2EF02D0CE2D8
S1134FF015E10F2EF6E54F2EF6E05F2EF02D0F2E65
S1135000FDE68F2EF6E09F2EF02D0F2EF7E86F2E83
S1135010F6E07F2EF02D3E2C2F2CFF92EF92BF92C4
S1135020AF921F930F930E94873860E070E0C8012D
S113503002DD5BDD0F900F900F900F900F900F909B
S1135040811163C032E03E15E8F4F60183818F9349
S113505082818F9381818F9380818F93FF92EF92CE
S11350605F924F921F930F930E94873860E070E025
S1135070C801E1DC3ADD0FB6F894DEBF0FBECDBF48
S1135080811143C02F923F929F928F921F930F934F
S11350900E94873860E070E0C801CDDC26DD0F9007
S11350A00F900F900F900F900F9081112EC02F92A0
S11350B03F927F926F921F930F930E94873860E014
S11350C070E0C801B8DC11DD0F900F900F900F90C5
S11350D00F900F90811119C03FEFE31AF30A84E097
S11350E0C80ED11C98E0E916F10409F094CF60E0F1
S11350F070E08FE996E09FDCF8DC811106C060E087
S113510070E080EB96E097DCF0DCA0960FB6F894A4
S1135110DEBF0FBECDBFDF91CF911F910F91FF90E6
S1135120EF90DF90CF90BF90AF909F908F907F9043
S11351306F905F904F903F902F900895EF92FF9261
S11351400F931F93CF93DF93EC018B017A0181E0DE
S1135150F4DE81110DC0CE01D4DD811109C0C80176
S1135160E1DD811105C0C701BBDD811101C0EBDDAB
S1135170DF91CF911F910F91FF90EF90089590E0F0
S1135180FC01EE0FFF1F8E0F9F1FFC01E758F84F25
S1135190818192810895DC01009729F1FB0120812E
S11351A0FC0101900020E9F73197E81BF90B822FED
S11351B090E0E817F907C8F080E008C0880F382F9E
S11351C0330F330F830F8053890F2F5FFD01E20FDD
S11351D0F11D908130ED390F3A3010F49111EECF7A
S11351E0FB012083089580E0089580E008950F93E3
S11351F01F93CF93DF93DC01EA012097E1F1FA01D9
S113520001900020E9F73197E41BF50B329710F574
S113521032C08D01040F151F30E0AE01420F531F41
S1135220FA019081913428F09753592F5295507F69
S113523003C0592F5295507F2C0F3D1FF9019181C6
S1135240913410F0975301C09053950FF801908357
S11352508F5F01C080E0282F220F482F50E0FE010D
S113526001900020E9F73197EC1BFD0B4E175F0707
S113527010F48613CECFDF91CF911F910F91089533
S113528080918915860F8093891590918C159130A2
S113529079F028F09230A9F0933019F108956F3F16
S11352A009F048C01092891581E080938C15089507
S11352B0663809F03FC01092881582E080938C15FF
S11352C00895E091881581E08E0F80938815F0E0B1
S11352D0EA57FA4E6083823069F583E080938C1537
S11352E008959091881521E0290F20938815963010
S11352F009F581110EC0E6E8F5E1808190E0982F70
S113530088272181820F911D90938E1580938D158E
S113531004C010928E1510928D1510928C15E09188
S11353208A15F0918B15309729F080918D15909105
S11353308E15199508958F929F92AF92CF92EF9206
S11353400F930F2EF0E48F2EF9E29F2EF02D689428
S1135350AA24A4F86894CC24C4F8E12C00E023E047
S113536040E855E260E070E073D09093901580932C
S11353708F150F91EF90CF90AF909F908F900895DD
S113538090938B1580938A150895CF93DF93CDB7AF
S1135390DEB729970FB6F894DEBF0FBECDBF89E004
S11353A0E2E4F2E09E012F5F3F4FD90101900D929C
S11353B08A95E1F710928E1510928D1580918F15B4
S11353C090919015009731F0422F532F69E00FD13F
S11353D080E001C082E029960FB6F894DEBF0FBECC
S11353E0CDBFDF91CF91089565360CF064E66C393A
S11353F00CF46CE996EF6902B00111246854744FFF
S1135400811105C070932901609328010895709358
S11354102B0160932A010895EAE0F1E0808188611C
S113542080838FE39CE9909327018093260160E0B9
S113543080E0DADF60E081E0D7DFE0E2F1E0808164
S1135440826A8083E1E2F1E080818A618083089549
S11354502F923F924F925F926F927F928F929F9280
S1135460AF92CF92EF92FF920F931F93CF93DF935C
S1135470CDB7DEB7F82E2A013B0188E090E00E9408
S1135480D4358C018F2D90E0FC01EE0FFF1FEF56F9
S1135490FA4E118300830115110509F46BC0880FBE
S11354A0991FFC01E55FFD4F80819181D8018D93A7
S11354B09C938C2D90E0880F991F880F991F0E9450
S11354C0D4351C0186E090E00E94D4357C014C2D3B
S11354D0B101BFD6F801F582E4828A2D90E0880FED
S11354E0991F880F991F0E94D4351C0186E090E013
S11354F00E94D4357C014A2DB101ABD6D801139654
S1135500FC92EE92129717969C928E921697FFB683
S1135510F894ED91FC911197369780818260808395
S11355208D909C90C301B2010E943F3520E030E091
S113553040E051E4A9D89B01AC0160E074E284E747
S11355409BE40E94CE3420E030E040E85FE3FFD8E3
S11355500E949822F40132976083D801ED91FC9166
S11355601197359788E98083ED91FC91349786E013
S11355708083FFBEC801DF91CF911F910F91FF90EF
S1135580EF90CF90AF909F908F907F906F905F90AF
S11355904F903F902F900895CF93DF93DC01892B98
S11355A001F11296ED91FC911397938182812581EB
S11355B0981B922384819817B1F083812695282320
S11355C0C081D181C20FD11D68838F5F95818923EA
S11355D08383ED91FC91359780818062808380E0A4
S11355E003C081E001C082E0DF91CF910895EF9282
S11355F0FF920F931F93CF93DF937C01009709F4DD
S113560041C0DC011296ED91FC9113979381828144
S1135610981B858198238481891B8617A8F16623AA
S113562041F1842F952FDC016150462F50E04F5FEC
S11356305F4F480F591FE701EA81FB819381828103
S11356402581981B92238481981779F08C919381FA
S113565026952923608171818B01020F111DE801B8
S113566088839F5F8581982393831196A417B50738
S113567011F7D701ED91FC91359780818062808389
S113568080E003C081E001C082E0DF91CF911F91EF
S11356900F91FF90EF9008950097D1F0DC011496DC
S11356A0ED91FC91159793818281981799F09281DD
S11356B0858186958923A081B181A80FB11D8C9124
S11356C0DB018C939F5F85819823928380E008950A
S11356D081E0089583E008951F920F920FB60F9210
S11356E011240BB60F922F933F934F935F936F93B5
S11356F07F938F939F93AF93BF93CF93DF93EF9356
S1135700FF93A0919115B0919215109711F16091AA
S1135710C6001496ED91FC911597938182812581A1
S1135720981B92238481981761F0838126952823FE
S1135730C081D181C20FD11D68838F5F9581892378
S113574083831696ED91FC911797309711F0CD0154
S11357501995FF91EF91DF91CF91BF91AF919F91F7
S11357608F917F916F915F914F913F912F910F9006
S11357700BBE0F900FBE0F901F9018951F920F92A3
S11357800FB60F9211240BB60F922F938F939F9302
S1135790AF93BF93EF93FF93E0919115F09192151E
S11357A03097B9F00280F381E02D938182819817BC
S11357B0B1F092818581282F26952923A081B1817A
S11357C0A20FB11D2C919F5F892382832093C60071
S11357D00BC0E1ECF0E080818F7D808305C0E1ECBB
S11357E0F0E080818F7D8083FF91EF91BF91AF9135
S11357F09F918F912F910F900BBE0F900FBE0F9022
S11358001F9018951F920F920FB60F9211240BB68A
S11358100F922F933F934F935F936F937F938F9345
S11358209F93AF93BF93CF93DF93EF93FF93A09195
S11358309315B0919415109711F16091CE001496C0
S1135840ED91FC911597938182812581981B922378
S11358508481981761F0838126952823C081D181A2
S1135860C20FD11D68838F5F958189238383169628
S1135870ED91FC911797309711F0CD011995FF9197
S1135880EF91DF91CF91BF91AF919F918F917F91D4
S11358906F915F914F913F912F910F900BBE0F909D
S11358A00FBE0F901F9018951F920F920FB60F9274
S11358B011240BB60F922F938F939F93AF93BF93A3
S11358C0EF93FF93E0919315F09194153097B9F00D
S11358D00280F381E02D938182819817B1F0928147
S11358E08581282F26952923A081B181A20FB11D7E
S11358F02C919F5F892382832093CE000BC0E9EC17
S1135900F0E080818F7D808305C0E9ECF0E0808148
S11359108F7D8083FF91EF91BF91AF919F918F9184
S11359202F910F900BBE0F900FBE0F901F901895E4
S11359301F920F920FB60F9211240BB60F922F9352
S11359403F934F935F936F937F938F939F93AF9303
S1135950BF93CF93DF93EF93FF93A0919515B091ED
S11359609615109711F16091D6001496ED91FC9163
S11359701597938182812581981B9223848198179E
S113598061F0838126952823C081D181C20FD11D66
S113599068838F5F9581892383831696ED91FC91AB
S11359A01797309711F0CD011995FF91EF91DF9181
S11359B0CF91BF91AF919F918F917F916F915F91A3
S11359C04F913F912F910F900BBE0F900FBE0F90F0
S11359D01F9018951F920F920FB60F9211240BB6B9
S11359E00F922F938F939F93AF93BF93EF93FF9354
S11359F0E0919515F09196153097B9F00280F381F6
S1135A00E02D938182819817B1F092818581282FAE
S1135A1026952923A081B181A20FB11D2C919F5FEE
S1135A20892382832093D6000BC0E1EDF0E08081CE
S1135A308F7D808305C0E1EDF0E080818F7D8083E0
S1135A40FF91EF91BF91AF919F918F912F910F9003
S1135A500BBE0F900FBE0F901F9018951F920F92C0
S1135A600FB60F9211240BB60F922F933F934F93BF
S1135A705F936F937F938F939F93AF93BF93CF93D2
S1135A80DF93EF93FF93A0919715B091981510971A
S1135A9011F1609136011496ED91FC911597938163
S1135AA082812581981B92238481981761F08381D8
S1135AB026952823C081D181C20FD11D68838F5FB1
S1135AC09581892383831696ED91FC9117973097DE
S1135AD011F0CD011995FF91EF91DF91CF91BF9115
S1135AE0AF919F918F917F916F915F914F913F9172
S1135AF02F910F900BBE0F900FBE0F901F90189513
S1135B001F920F920FB60F9211240BB60F922F9380
S1135B108F939F93AF93BF93EF93FF93E091971568
S1135B20F09198153097B9F00280F381E02D9381BC
S1135B3082819817B1F092818581282F2695292397
S1135B40A081B181A20FB11D2C919F5F8923828313
S1135B50209336010BC0E1E3F1E080818F7D8083E7
S1135B6005C0E1E3F1E080818F7D8083FF91EF91B7
S1135B70BF91AF919F918F912F910F900BBE0F907A
S1135B800FBE0F901F901895CF93DF931F92CDB740
S1135B90DEB7BE016F5F7F4F8091991590919A1582
S1135BA07BDD8111F6CF898190E00F90DF91CF9159
S1135BB00895682F8091991590919A15EDDC80E0F5
S1135BC090E008958F929F92AF92CF92EF920F93AD
S1135BD0812C912C6894AA24A7F86894CC24C7F843
S1135BE0E12C00E023E040E051EE60E070E030DCC6
S1135BF090939A1580939915EDECF5E183E192E089
S1135C0091838083938382830F91EF90CF90AF90A1
S1135C109F908F900895E091A315F091A41530976B
S1135C2009F0199508956450623008F03BC0209142
S1135C30A215223079F018F4213031F030C023302D
S1135C4081F02430A1F02BC022E02093A21561E062
S1135C5010C20895FA01808180939F1582E0DBCF02
S1135C60089524E02093A21564E003C20895FA0184
S1135C70818190E0982F88272081822B90939E1514
S1135C8080939D15838190E0982F88272281822B11
S1135C9090939C1580939B1581E0BDCF089580E07F
S1135CA0BACF08951092A21586E0B5CF0895209139
S1135CB0A5153091A6152115310541F0462FBC01DB
S1135CC0C9018BD1823021F080E0089587E00895E6
S1135CD085E008950F931F939093A4158093A315C3
S1135CE003E11EE220E034E244EF50E060E089E2A8
